:0400000057EF00F0C6
:10000800CE51CE51CE51CE51CE51CE51CE51CE51F0
:10001800CE51CE519C4FCE51CE51CE51CE51CE5114
:10002800AD4FCE51CE51CE51CE51CE51CE51CE51F3
:10003800CE51CE51CE511A50EC4FCE51CE51CE5159
:10004800CE51CE51CE51CE512B00CE51CE51CE51A4
:10005800CE51CE51CE51CE51CE51CE51CE51CE51A0
:10006800CE51CE51CE51CE51CE51CE51CE51CE5190
:10007800CE51CE512B00CE51CE51CE512B002B005C
:100088002B002B002B002B002B002B00404FCE51B8
:100098008050CE51CE51CE512B002B002B002B007F
:0A00A800CE51CE51FF005FEF9AF039
:10FEDA000002400050000D0A20436F6D6D616E6490
:10FEEA002070726F636573736F722056302E310DF6
:10FEFA000A002050532054657374202531753A2026
:10FF0A00444143204F55543D252E32752C205375BC
:10FF1A0070706C7920526561644261636B2025348C
:10FF2A002E347520563D252B362E31665620253423
:10FF3A002E347520493D252B332E31666D410D0A2D
:10FF4A00000D0A2052616D7020746F2031303030FC
:10FF5A00564443204F4E200D0A000D0A2053746563
:10FF6A006164792031303030564443204F4E200DA1
:10FF7A000A000D0A20507320546573746572202597
:10FF8A00732025730D0A0053504920646973706CFD
:10FF9A0061792074657374696E67000D0A20566F63
:10FFAA006C74616765204F4646200D0A00446973E8
:10FFBA00706C61792074657374696E672020004DD6
:10FFCA00617220313420323032320031343A3431E5
:10FFDA003A353600494E46004E414E00696E66007B
:10FFEA006E616E006C6C73006C6600706F007072EC
:05FFFA0000707300001F
:020000040001F9
:10000000000E9A6F000E996F7BC0A9F07CC0AAF019
:100010007DC0ABF07EC0ACF0ACAF16D0000E9A6FD6
:10002000010E996FA9C017F0AAC018F0ABC019F063
:10003000ACC01AF07FECA1F017C0A9F018C0AAF06C
:1000400019C0ABF01AC0ACF0000EB26F000EB16F69
:10005000F9C09EF0FAC09FF099519A11D8A402D02D
:100060003BA413D099519A11D8A404D0000E866FE6
:100070002B0E03D0000E866F2D0E856F85C06BF1A1
:10008000B14BB22B9E07D8A09F07A9C017F0AAC0FA
:1000900018F0ABC019F0ACC01AF0D4EC97F017040C
:1000A0001810D8A443D0BF0E0001806FFF0E816FDF
:1000B0007F51826F836B80518227815183238351CB
:1000C00011E11A0E825DD8B00DD06B0EB125176EFE
:1000D000010EB221186EDE0E196EFF0E1A6EFDECC7
:1000E0009CF00CD06B0EB125176E010EB221186E6C
:1000F000E60E196EFF0E1A6EFDEC9CF00001FD0E6F
:100100009E27FF0E9F2379C02BF07AC02CF06B0E38
:100110002D6E010E2E6E9EC02FF09FC030F005ECAC
:100120009BF02BC079F02CC07AF01200A9C017F018
:10013000AAC018F0ABC019F0ACC01AF0D4EC97F01C
:1001400017501810D8A42CD0BF0E0001806FFF0EDE
:10015000816F7F51826F836B80518227815183230E
:10016000835111E11A0E825DD8B00DD06B0EB1250E
:10017000176E010EB221186EE20E196EFF0E1A6E86
:10018000FDEC9CF0BBD76B0EB125176E010EB221B2
:10019000186EEA0E196EFF0E1A6EFDEC9CF0AED7CB
:1001A000000E0001B36F000EB46F800EB56F3F0EEE
:1001B000B66F000EB06F000EAF6FA9C017F0AAC0E7
:1001C00018F0ABC019F0ACC01AF0000E1B6E000E98
:1001D0001C6E000E1D6E000E1E6E54EC9BF0D8A01F
:1001E0001DD074D0B3C025F0B4C026F0B5C027F040
:1001F000B6C028F0000E296E000E2A6E200E2B6E5F
:10020000410E2C6E5CEC8AF025C0B3F026C0B4F031
:1002100027C0B5F028C0B6F0AF4BB02BA9C06DF029
:10022000AAC06EF0ABC06FF0ACC070F0000E296ECB
:10023000000E2A6E200E2B6E410E2C6EB3C025F0E0
:10024000B4C026F0B5C027F0B6C028F05CEC8AF048
:1002500025C071F026C072F027C073F028C074F07A
:100260009EEC96F0D8A01ED0BDD7B3C017F0B4C096
:1002700018F0B5C019F0B6C01AF0000E1B6E000ED3
:100280001C6E200E1D6E410E1E6EE7EC8EF017C028
:10029000B3F018C0B4F019C0B5F01AC0B6F0AF078B
:1002A000D8A0B007A9C06DF0AAC06EF0ABC06FF0C7
:1002B000ACC070F0B3C071F0B4C072F0B5C073F0F0
:1002C000B6C074F09EEC96F0D8A0CFD77FC01DF0DA
:1002D0001E6A52ECA0F01D50A06FA0C09DF0670EEA
:1002E000A019D8A419D0FB51FC11D8A404D0000E39
:1002F000FC6F010EFB6FFCBF05D0FC5108E1FB0554
:10030000D8B005D0000E9C6F060E9B6F08D0FBC0C6
:100310009BF0FCC09CF003D0FCAFF9D7F3D7670E7D
:10032000A019D8A422D0B0AF06D0FC0EAF5DFF0E4E
:10033000B059D8A018D0FF0E806FFF0E816F9BC000
:1003400082F09CC083F08051822781518323AF517A
:10035000825D8351800A846FB051800A8459D8A08D
:1003600002D0660E01D0650E9D6F9BC091F09CC0BF
:1003700092F0670EA019D8A405D0660E9D19D8B4C6
:10038000B0AF02D0914B922B660E9D19D8A416D017
:10039000B0AF0CD0000EB36F000EB46F800EB56F0F
:1003A0003F0EB66F000EB06F000EAF6F670EA01954
:1003B000D8B404D0AF519127B0519223000EAE6F44
:1003C000000EAD6FA9C0A1F0AAC0A2F0ABC0A3F00F
:1003D000ACC0A4F0B3C093F0B4C094F0B5C095F035
:1003E000B6C096F07AD0A1C017F0A2C018F0A3C092
:1003F00019F0A4C01AF0B3C01BF0B4C01CF0B5C013
:100400001DF0B6C01EF0E7EC8EF017C030F018C03B
:1004100031F019C032F01AC033F0E1EC91F030C085
:10042000A5F031C0A6F032C0A7F033C0A8F0A5C037
:1004300017F0A6C018F0A7C019F0A8C01AF09AECDF
:1004400098F017C097F018C098F0A1C06DF0A2C046
:100450006EF0A3C06FF0A4C070F0B3C029F0B4C0B8
:100460002AF0B5C02BF0B6C02CF0A5C025F0A6C070
:1004700026F0A7C027F0A8C028F05CEC8AF025C0C1
:1004800071F026C072F027C073F028C074F0F1EC50
:100490009EF06DC0A1F06EC0A2F06FC0A3F070C05E
:1004A000A4F0B3C017F0B4C018F0B5C019F0B6C0CE
:1004B0001AF0000E1B6E000E1C6E200E1D6E410EFB
:1004C0001E6EE7EC8EF017C0B3F018C0B4F019C080
:1004D000B5F01AC0B6F0AD4BAE2B9151AD5DAE513B
:1004E000800A806F9251800A8059D8A07CD7B3C00F
:1004F00025F0B4C026F0B5C027F0B6C028F0000E35
:10050000296E000E2A6EA00E2B6E400E2C6E5CEC37
:100510008AF025C0A5F026C0A6F027C0A7F028C005
:10052000A8F0A1C06DF0A2C06EF0A3C06FF0A4C08F
:1005300070F0A5C071F0A6C072F0A7C073F0A8C09B
:1005400074F09EEC96F0D8A015D0A1C017F0A2C010
:1005500018F0A3C019F0A4C01AF0A5C01BF0A6C0E3
:100560001CF0A7C01DF0A8C01EF054EC9BF0D8B042
:1005700097B108D0000EA56F000EA66F000EA76FF2
:10058000000EA86FA9C017F0AAC018F0ABC019F0F0
:10059000ACC01AF0A5C01BF0A6C01CF0A7C01DF08F
:1005A000A8C01EF005EC8CF017C0A1F018C0A2F096
:1005B00019C0A3F01AC0A4F0A1C06DF0A2C06EF0E3
:1005C000A3C06FF0A4C070F0000E296E000E2A6E5A
:1005D000200E2B6E410E2C6E93C025F094C026F099
:1005E00095C027F096C028F05CEC8AF025C071F029
:1005F00026C072F027C073F028C074F09EEC96F00D
:10060000D8A022D0AF4BB02B93C025F094C026F0D9
:1006100095C027F096C028F0000E296E000E2A6EB5
:10062000200E2B6E410E2C6E5CEC8AF025C093F0F0
:1006300026C094F027C095F028C096F0660E9D194C
:10064000D8A402D0914B922B93C0B3F094C0B4F0D5
:1006500095C0B5F096C0B6F0650E9D19D8B405D01A
:10066000AFC08FF0B0C090F004D0000E906F000EBD
:100670008F6F000E8E6F000E8D6F000E8C6F000E50
:100680008B6F000EAE6F000EAD6FC4D0A1C017F01F
:10069000A2C018F0A3C019F0A4C01AF0B3C01BF098
:1006A000B4C01CF0B5C01DF0B6C01EF0E7EC8EF073
:1006B00017C030F018C031F019C032F01AC033F052
:1006C000E1EC91F030C0A5F031C0A6F032C0A7F047
:1006D00033C0A8F0A5C017F0A6C018F0A7C019F045
:1006E000A8C01AF09AEC98F017C097F018C098F0CC
:1006F0003BB80CD097519811D8A408D0670EA01918
:10070000D8B490AF03D08B4B8C2B39D08D518E1138
:10071000D8B490AF22D06B0EB125D96E010EB221A4
:10072000DA6E2E0EDF6EB14BB22B9E07D8A09F075C
:10073000000E8E6F010E8D6F10D06B0EB125D96E2D
:10074000010EB221DA6E300EDF6EB14BB22B9E0776
:10075000D8A09F078B07D8A08C078B518C11D8A4E9
:10076000ECD76B0EB125D96E010EB221DA6E97511E
:10077000300FDF6EB14BB22B9E07D8A09F07A1C0F0
:100780006DF0A2C06EF0A3C06FF0A4C070F0B3C053
:1007900029F0B4C02AF0B5C02BF0B6C02CF0A5C02B
:1007A00025F0A6C026F0A7C027F0A8C028F05CEC72
:1007B0008AF025C071F026C072F027C073F028C0FF
:1007C00074F0F1EC9EF06DC0A1F06EC0A2F06FC0AD
:1007D000A3F070C0A4F0B3C017F0B4C018F0B5C057
:1007E00019F0B6C01AF0000E1B6E000E1C6E200E23
:1007F0001D6E410E1E6EE7EC8EF017C0B3F018C0F0
:10080000B4F019C0B5F01AC0B6F08F07D8A09007A1
:10081000AD4BAE2B9151AD5DAE51800A806F9251C0
:10082000800A8059D8B008D0B2BF30D7B25104E1A5
:100830004B0EB15DD8A02AD78D518E11D8B43BA8EC
:100840000AD06B0EB125D96E010EB221DA6E2E0ED2
:10085000DF6EB14BB22B6B0EB125D96E010EB221FA
:10086000DA6E000EDF6E650E9D19D8A44CD4000E12
:10087000AE6F4F0EAD6F6B0EAD25D96E010EAE2172
:10088000DA6E000EDF6E000E9A6F000E996FB0AF39
:1008900008D0000E9A6F010E996FAF6DB01FD8B0DF
:1008A000B02B000E9C6F020E9B6F2AD0AD07D8A014
:1008B000AE076B0EAD25D96E010EAE21DA6EAFC05C
:1008C00017F0B0C018F0000E1A6E0A0E196E91ECF7
:1008D0009CF01750300FDF6EAFC017F0B0C018F0AB
:1008E000000E1A6E0A0E196E99EC9BF017C0AFF04D
:1008F00018C0B0F09B07D8A09C079E07D8A09F0700
:10090000AF51B011D8A4D2D79CBF05D09C51CEE135
:100910009B05D8B0CBD7AD07D8A0AE0799519A1197
:10092000D8A404D0000E886F2B0E03D0000E886F61
:100930002D0E876F6B0EAD25D96E010EAE21DA6ECE
:1009400060001FF2DFFF9E07D8A09F07AD07D8A069
:10095000AE07BF0E806FFF0E816F7F51826F836B7A
:100960008051822781518323835104E11A0E825DD5
:10097000D8A004D0000E8A6F650E03D0000E8A6FD7
:10098000450E896F6B0EAD25D96E010EAE21DA6E64
:10099000600027F2DFFF9E07D8A09F076B0EB125EE
:1009A000176E010EB221186E6B0EAD25196E010E79
:1009B000AE211A6EFDEC9CF083EF80F0B951D96E38
:1009C000DA6A6F007BFFF6FF6F0077FFF7FF000E1C
:1009D000F86E0800F550250AD8A451D3B951D96E44
:1009E000DA6ADE2A000EDD22000EFA6F000EF96FC1
:1009F000F9C03BF0FAC03CF0FB69FC69000ECB6F1C
:100A0000000E13D03B80B951D96EDA6ADE2A000E8F
:100A1000DD2231D03B82F7D73B84F5D73B86F3D735
:100A20003B88F1D7000ECB6F010ECA6F24D0B951AD
:100A3000D96EDA6A6F007BFFF6FF6F0077FFF7FF72
:100A4000000EF86E0800F550BC6FBD6BBD51000A7A
:100A5000D8A4E8D7BC51200AD8B4E0D7030AD8B448
:100A6000DFD7080AD8B4D8D7060AD8B4CBD71D0A1E
:100A7000D8B4D0D7D7D7CA51CB11D8B4D8D73BB078
:100A80003B92B951D96EDA6A6F007BFFF6FF6F00B7
:100A900077FFF7FF000EF86E0800F5502A0AD8A479
:100AA0002AD0B951D96EDA6ADE2A000EDD22600042
:100AB000EBF2D9FF6000EFF2DAFF6F007CFFBCF0D1
:100AC000020EDE266F007CFFBDF0000EDD2260000E
:100AD000F3F2D9FF6000F7F2DAFF6F0078FFF9F068
:100AE0006F0074FFFAF0FAAF3AD03B80F96DFA1F4D
:100AF000D8B0FA2B34D0B951D96EDA6A6F0078FFCA
:100B00001EF06F0074FF1FF05EEC95F01EC0F9F050
:100B10001FC0FAF006D0B951D96EDA6ADE2A000E8B
:100B2000DD22D00E0001BC6FFF0EBD6FB951D96E32
:100B3000DA6A6F007BFFF6FF6F0077FFF7FF000EAA
:100B4000F86E0800F550BE6FBF6BBC51BE27BD519B
:100B5000BF23BF5104E10A0EBE5DD8A0DCD7B95156
:100B6000D96EDA6A6F007BFFF6FF6F0077FFF7FF41
:100B7000000EF86E0800F5502E0AD8A471D0000EB1
:100B8000FC6F000EFB6FB951D96EDA6ADE2A000ED7
:100B9000DD22B951D96EDA6A6F007BFFF6FF6F0074
:100BA00077FFF7FF000EF86E0800F5502A0AD8A468
:100BB00023D0B951D96EDA6ADE2A000EDD22600038
:100BC000EBF2D9FF6000EFF2DAFF6F007CFFBCF0C0
:100BD000020EDE266F007CFFBDF0000EDD226000FD
:100BE000F3F2D9FF6000F7F2DAFF6F0078FFFBF055
:100BF0006F0074FFFCF034D0B951D96EDA6A6F001F
:100C000078FF1EF06F0074FF1FF05EEC95F01EC0C1
:100C1000FBF01FC0FCF006D0B951D96EDA6ADE2AAB
:100C2000000EDD22D00E0001BC6FFF0EBD6FB9516A
:100C3000D96EDA6A6F007BFFF6FF6F0077FFF7FF70
:100C4000000EF86E0800F550BE6FBF6BBC51BE279A
:100C5000BD51BF23BF5104E10A0EBE5DD8A0DCD751
:100C6000B951D96EDA6A6F007BFFF6FF6F0077FF2C
:100C7000F7FF000EF86E0800F5501D6E1E6A52EC6C
:100C8000A0F01D50D36FD351D8B43DD0B951D96E17
:100C9000DA6A6F0078FFBCF06F0074FFBDF0010EE0
:100CA000BC27000EBD236000F3F2F6FF6000F7F2F0
:100CB000F7FF000EF86E0800F5501D6E1E6A52EC2C
:100CC000A0F01D50D46FD451D8B41DD0B951D96EF5
:100CD000DA6A6F0078FFBCF06F0074FFBDF0020E9F
:100CE000BC27000EBD236000F3F2F6FF6000F7F2B0
:100CF000F7FF000EF86E0800F5501D6E1E6A52ECEC
:100D0000A0F01D50D56F660ED319D8A44CD0B951A0
:100D1000D96EDA6A6F007BFFF6FF6F0077FFF7FF8F
:100D2000000EF86E08006F00D4FFCEF0B951D96EF6
:100D3000DA6ADE2A000EDD226000EBF2D9FF6000E5
:100D4000EFF2DAFF6F007CFFBCF0040EDE266F00CE
:100D50007CFFBDF0000EDD226000F3F2D9FF6000E1
:100D6000F7F2DAFF6F0078FFCFF06F0078FFD0F076
:100D70006F0078FFD1F06F0078FFD2F0B7C079F044
:100D8000B8C07AF0CFC07BF0D0C07CF0D1C07DF08D
:100D9000D2C07EF0CEC07FF000EC80F079C0B7F01A
:100DA0007AC0B8F01200D30E1B6E1C6AF20E1D6ED4
:100DB000FF0E1E6E000E206E020E1F6EB6EC92F03D
:100DC0001B501C10D8A45FD00001B951D96EDA6A4B
:100DD0006F0078FFBCF06F0074FFBDF0010EBC2700
:100DE000000EBD236000F3F2F6FF6000F7F2F7FF9C
:100DF000000EF86E08006F00D4FFCEF0BF0EBC6F7F
:100E0000FF0EBD6FB951D96EDA6A6F007BFFF6FF36
:100E10006F0077FFF7FF000EF86E0800F550BE6F09
:100E2000BF6BBC51BE27BD51BF23BF5102E11A0E9B
:100E3000BE5D6000EBF2D9FF6000EFF2DAFF6F00F9
:100E40007CFFBCF0040EDE266F007CFFBDF0000EC0
:100E5000DD226000F3F2D9FF6000F7F2DAFF6F00E5
:100E600078FFCFF06F0078FFD0F06F0078FFD1F0FF
:100E70006F0078FFD2F0B951D96EDA6A020EDE2621
:100E8000000EDD227BD70001B951D96EDA6A6F00FE
:100E90007BFFF6FF6F0077FFF7FF000EF86E08008C
:100EA000F550730AD8B417D0B951D96EDA6A6F0009
:100EB00078FF1BF06F0074FF1CF0EE0E1D6EFF0E2E
:100EC0001E6E000E206E030E1F6EB6EC92F01B50CD
:100ED0001C10D8A44BD00001B951D96EDA6A6F004A
:100EE0007BFFF6FF6F0077FFF7FF000EF86E08003C
:100EF000F550730AD8B404D0000ECD6F030E03D0A2
:100F0000000ECD6F010ECC6FB951D96EDA6ACC519B
:100F1000DE26CD51DD226000EBF2D9FF6000EFF25A
:100F2000DAFF6F007CFFBCF0020EDE266F007CFF54
:100F3000BDF0000EDD226000F3F2D9FF6000F7F291
:100F4000DAFF6F0078FFC8F06F0074FFC9F0B7C018
:100F500022F0B8C023F0C8C024F0C9C025F010ECBE
:100F600094F022C0B7F023C0B8F012000001B951CC
:100F7000D96EDA6A6F007BFFF6FF6F0077FFF7FF2D
:100F8000000EF86E0800F550750AD8A447D0B95184
:100F9000D96EDA6ADE2A000EDD226000EBF2D9FF9C
:100FA0006000EFF2DAFF6F007CFFBCF0020EDE267D
:100FB0006F007CFFBDF0000EDD226000F3F2D9FF70
:100FC0006000F7F2DAFF6F0078FFBEF06F0074FF89
:100FD000BFF0BEC0C0F0BFC0C1F0C26BC36BC46B7A
:100FE000C56BC66BC76BB7C064F0B8C065F0C0C056
:100FF00066F0C1C067F0C2C068F0C3C069F0C4C089
:101000006AF0C5C06BF0C6C06CF0C7C06DF009ECEB
:1010100091F064C0B7F065C0B8F01200B951D96E54
:10102000DA6A6F007BFFF6FF6F0077FFF7FF000EB5
:10103000F86E0800F550250AD8A416D0B951D96E1B
:10104000DA6ADE2A000EDD22000E1A6E250E196EF7
:10105000B7C01BF0B8C01CF0AEEC99F0000E000158
:10106000B86F010EB76F1200B951D96EDA6ADE2A75
:10107000000EDD22000EB86F000EB76F1200B951DE
:10108000D96EDA6A6F007BFFF6FF6F0077FFF7FF1C
:10109000000EF86E0800F550196E1A6AB7C01BF002
:1010A000B8C01CF0AEEC99F00001B951D96EDA6A03
:1010B000DE2A000EDD22D2D7FF00FF00FF00FF0076
:1010C000FF00FF00FF00FF00000000000000000024
:1010D0000000000000000000000000000000000010
:1010E0000000000000000000000000000000000000
:1010F00000000000000000000000000000000000F0
:1011000000000000000000000000000000000000DF
:1014B00000000000000000002850800B0001606F59
:1014C00028502824626F27BE62816251D8B40DD0A3
:1014D0006229D8A408D0000E256E000E266E000EDC
:1014E000276E000E286E278E08D0000E256E000E87
:1014F000266E000E276E000E286E2C50800B601B8F
:101500002C502C24616F2BBE61816151D8B40DD059
:101510006129D8A408D0000E296E000E2A6E000E94
:101520002B6E000E2C6E2B8E08D0000E296E000E36
:101530002A6E000E2B6E000E2C6E6151D8B403D0B3
:101540006251D8A409D0000E256E000E266E000E42
:10155000276E000E286E12002B5025026F00CCFF64
:101560006BF06F00D0FF6CF06B51636F646B656B59
:10157000666B6C51676F686B696B6A6B2A502602E9
:101580006F00CCFF6BF06F00D0FF6CF06B516327E6
:10159000000E6423652366236C516727000E6823C1
:1015A00069236A23295027026F00CCFF6BF06F007C
:1015B000D0FF6CF06B516327000E64236523662314
:1015C0006C516727000E682369236A2365C066F0A3
:1015D00064C065F063C064F0636B295026026F003D
:1015E000CCFF6BF06F00D0FF6CF06B5163276C5138
:1015F0006423000E6523000E66232A5025026F0027
:10160000CCFF6BF06F00D0FF6CF06B5163276C5117
:101610006423000E6523000E662365C066F064C077
:1016200065F063C064F0636B295025026F00CCFF46
:101630006BF06F00D0FF6CF06B5163276C5164232B
:10164000000E6523000E66232B5026026F00CCFF90
:101650006BF06F00D0FF6CF06B5167276C51682303
:10166000000E6923000E6A232A5027026F00CCFF68
:101670006BF06F00D0FF6CF06B5167276C516823E3
:10168000000E6923000E6A232B5027026F00CCFF47
:101690006BF06F00D0FF6CF06B512D6E6C512E6EA5
:1016A0002F6A306A2FC030F02EC02FF02DC02EF0E0
:1016B0002D6A2D5067272E5068232F5069233050F4
:1016C0006A2366516727000E682369236A2365C071
:1016D00066F064C065F063C064F0636B615162C022
:1016E0002DF02E6A2D26000E2E22820E2D246B6FD9
:1016F000FF0E2E206C6F0FD0D89067376837693790
:101700006A3766BF6781D890633764376537663755
:101710006B07D8A06C0769AFEFD7000E616F66AF9B
:1017200017D0FF0E63152D6EFF0E64152E6EFF0E83
:1017300065152F6E7F0E6615306E2D502E102F10F2
:101740003010D8B403D0010E616F02D067B1FBD75F
:101750006151D8B41FD0010E6727000E682369239A
:101760006A236AA117D067C02DF068C02EF069C047
:101770002FF06AC030F0303430322F322E322D321A
:101780002DC067F02EC068F02FC069F030C06AF03D
:101790006B4B6C2B6CBF0DD06C5103E16B29D8A047
:1017A00008D0000E676F000E686F800E696F7F0EA5
:1017B00020D06CBF05D06C510EE16B05D8B00BD0BA
:1017C000000E676F000E686F000E696F000E6A6F83
:1017D000000E606F0FD06BC062F0FF0E6717FF0E38
:1017E00068177F0E6917000E6A1762B1698FD8906B
:1017F00062316A6F60516A1367C025F068C026F0D5
:1018000069C027F06AC028F012001A50800B236EBE
:101810001A501A24256E19BE25802550D8B40DD033
:101820002528D8A408D0000E176E000E186E000EE2
:10183000196E000E1A6E198E06D0000E176E000E6D
:10184000186E000E196E000E1A6E1E50800B246E5C
:1018500023502418D8A4238C1E501E24246E1DBE91
:1018600024802450D8B40DD02428D8A408D0000E49
:101870001B6E000E1C6E000E1D6E000E1E6E1D8E69
:1018800006D0000E1B6E000E1C6E000E1D6E000EAC
:101890001E6E2550245CD8B022D023AC02D0800E1E
:1018A000231A25C026F024C025F026C024F017C036
:1018B00026F01BC017F026C01BF018C026F01CC075
:1018C00018F026C01CF019C026F01DC019F026C063
:1018D0001DF01AC026F01EC01AF026C01EF0000E21
:1018E000266E255024C01FF0206A1F5E000E205A6D
:1018F00020BE2CD0205004E11A0E1F5CD8A026D0A8
:101900001750181019101A10D8B402D0010E01D0B7
:10191000000E266E000E176E000E186E000E196E69
:10192000000E1A6E24C025F015D026A005D0D89040
:1019300026300109266E02D0D890263217B0268EA6
:101940001A341A32193218321732252A2450255CDB
:10195000D8A0EBD723BC28D02550D8A409D0000E9E
:10196000176E000E186E000E196E000E1A6E120021
:101970001B5017261C5018221D5019221E501A22C7
:101980001AA071D026A005D0D89026300109266E65
:1019900002D0D890263217B0268E1A341A32193255
:1019A00018321732252A5FD01B50175C1C5018586C
:1019B0001D5019581A50800A1F6E1E50800A1F5859
:1019C000D8B025D017501B5C1F6E18501C58206EC5
:1019D00019501D58216E1A501E58226EFF0E1F24DA
:1019E000176EFF0E2020186EFF0E2120196EFF0EBD
:1019F00022201A6E800E231A266C2650D8A40FD0EF
:101A0000010E1726000E182219221A2208D01B5088
:101A1000175E1C50185A1D50195A1E501A5A17504A
:101A2000181019101A10D8A41CD02650D8A419D0F8
:101A3000000E176E000E186E000E196E000E1A6E54
:101A40001200D8901736183619361A3626BE178067
:101A500026A002D0D88001D0D89026362550D8A410
:101A6000250619AEEED7000E246E26AE0BD026C08A
:101A70001FF07F0E1F16D8B403D0010E246E02D0C3
:101A800017B0FBD72450D8B420D0010E1726000E73
:101A9000182219221A221AA018D017C01FF018C035
:101AA00020F019C021F01AC022F022342232213253
:101AB00020321F321FC017F020C018F021C019F0CB
:101AC00022C01AF02528D8A4252A2528D8B403D066
:101AD0002550D8A40DD0000E176E000E186E000E03
:101AE000196E000E1A6E2550D8A402D0000E236E77
:101AF00025A002D0198E01D0199ED89025301A6EDB
:101B000023BE1A8E17C017F018C018F019C019F0AC
:101B10001AC01AF01200000E0201C46F000EC36F4B
:101B2000B9EC9FF0BD92BE94260E176E450E186E4E
:101B3000010E196E53ECA3F0AE0E176E3C0E186E2C
:101B4000010E196E5AECA3F0C60E176E410E186EF8
:101B5000010E196E6FECA3F060000BF1F1FE000EA8
:101B6000186E000E176E36ECA1F0000E186E000E07
:101B7000176E1DECA1F0D8ECA2F0280E176E470EE0
:101B8000186E010E196E68ECA3F0D28E000E86EC72
:101B9000A3F03AEC98F00C0E7CECA3F0910E286EBA
:101BA000FF0E296EDBEC9BF00001FE51D8B4FCD790
:101BB000840E345C030E3558D8B004D0000EF7EC18
:101BC00098F00DD0090E345C070E3558D8A004D01B
:101BD000010EF7EC98F003D0020EF7EC98F03750B6
:101BE00008E1320E365CD8B004D0030EF7EC98F062
:101BF0000DD0375004E1970E365CD8A004D0040E07
:101C0000F7EC98F003D0050EF7EC98F0000E000109
:101C1000FE6FCABC04D00B0EF7EC98F003D0090E8F
:101C2000F7EC98F0CAB804D0070EF7EC98F003D0A0
:101C3000060EF7EC98F00001FF51D8B4B5D734C0C8
:101C400017F035C018F0196A1A6A000EFEEC95F00C
:101C500017C025F018C026F019C027F01AC028F0C8
:101C6000970E296E750E2A6ECF0E2B6E3E0E2C6EC1
:101C70005CEC8AF025C064F126C065F127C066F1EE
:101C800028C067F136C017F037C018F0196A1A6A11
:101C9000000EFEEC95F017C025F018C026F019C014
:101CA00027F01AC028F06F0E296E120E2A6E830ECE
:101CB0002B6E3B0E2C6E5CEC8AF025C060F126C0CA
:101CC00061F127C062F128C063F1FC0E0101E46FED
:101CD000FE0EE56FFDC0E6F1E76B8EECA3F00101AF
:101CE000FD6FFD51E86FE96B34C0EAF135C0EBF1EF
:101CF00064C1ECF165C1EDF166C1EEF167C1EFF1D0
:101D000036C0F0F137C0F1F160C1F2F161C1F3F119
:101D100062C1F4F163C1F5F1D9ECA1F0B70E286E00
:101D2000FF0E296EDBEC9BF021D0130E0201C4657F
:101D300002D0000EC46FC42BC45186ECA3F008D0AF
:101D4000BA9A28D0140E0201C46F140E86ECA3F0C8
:101D5000BD82F6D7000E0001FD6F000E0201C46FB8
:101D6000000E86ECA3F0BD92BA8A14D00001FD519A
:101D70000101FD6FFE6BFE51000AD8A4EBD7FD51A7
:101D8000000AD8B4E7D7010AD8B4CFD7030AD8B429
:101D9000D9D7E0D7000E0001686F030E696F67ECBA
:101DA00093F0000E0001FF6FCBB00CD00201C32BEB
:101DB000040EC365F9D60001FD2B000E0201C36FAE
:101DC000BE84F2D6000E0201C36FBE94EDD61A5047
:101DD000800B276E1A501A242E6E19BE2E802E509C
:101DE000D8B40DD02E28D8A408D0000E176E000E3F
:101DF000186E000E196E000E1A6E198E06D0000EA7
:101E0000176E000E186E000E196E000E1A6E1E5020
:101E1000800B271A1E501E242F6E1DBE2F802F50A0
:101E2000D8B40DD02F28D8A408D0000E1B6E000EF9
:101E30001C6E000E1D6E000E1E6E1D8E06D0000E56
:101E40001B6E000E1C6E000E1D6E000E1E6E1B50D3
:101E50001C101D101E10D8A417D0000E176E000EF7
:101E6000186E000E196E000E1A6E800E19127F0E7B
:101E70001A1227501A1217C017F018C018F019C0FC
:101E800019F01AC01AF012002E50D8A409D0000E72
:101E9000176E000E186E000E196E000E1A6E1200EC
:101EA0002F502EC01FF0206A1F5E000E205A7F0E9A
:101EB0001F24286E000E2020296E17C023F018C0A2
:101EC00024F019C025F01AC026F0000E176E000E7F
:101ED000186E000E196E000E1A6E000E2A6E000E9D
:101EE0002B6E000E2C6E000E2D6E000E2F6E28D065
:101EF0002F50D8B411D0D890233624362536263624
:101F0000D8901736183619361A362DBE1780D89045
:101F10002A362B362C362D361B50235C1C50245869
:101F20001D5025581E502658D8A009D02D8C1B5066
:101F3000235E1C50245A1D50255A1E50265A2F2A03
:101F4000190E2F64D5D72350241025102610D8B48D
:101F500011D02A800FD0D8901736183619361A3675
:101F60002DBE1780D8902A362B362C362D362806D3
:101F7000D8A0290619AEEFD7000E2F6E2DAE17D0C0
:101F8000FF0E2A141F6EFF0E2B14206EFF0E2C1452
:101F9000216E7F0E2D14226E1F5020102110221052
:101FA000D8B403D0010E2F6E02D017B0FBD72F503C
:101FB000D8B41FD0010E1726000E182219221A229B
:101FC0001AA017D017C01FF018C020F019C021F0B8
:101FD0001AC022F022342232213220321F321FC096
:101FE00017F020C018F021C019F022C01AF0284ABA
:101FF000292A29BE10D0295003E12828D8A00BD0C7
:10200000000E296E2868000E176E000E186E000E66
:10201000196E000E1A6E29BE05D0295011E1280450
:10202000D8B00ED0000E296E000E286E000E176E6E
:10203000000E186E000E196E000E1A6E000E276E3E
:1020400028C02EF02EA002D0198E01D0199ED89053
:102050002E301A6E0ED7000E336E000E326E020E48
:102060003024176E000E3120186EA7EC9EF017502A
:102070001810D8A402D0030E1200020E3024176EDE
:10208000000E3120186EA7EC9EF0185003E1020EEE
:10209000175CD8B07ED0020E12003350050D6F00D1
:1020A000CCFF60F06F00D0FF61F06000C3F0D9FF9B
:1020B0006000C7F0DAFF6F0078FF62F06F0074FF16
:1020C00063F060516225D96E61516321DA6E6F0051
:1020D00078FF1BF06F0074FF1CF0020E30241D6EA1
:1020E000000E31201E6E3350050D6F00CCFF64F0E2
:1020F0006F00D0FF65F06000C3F0D9FF6000C7F04B
:10210000DAFF6F0078FF66F06F0074FF67F06451CC
:102110006625D96E65516721DA6E6F0078FF17F07A
:102120006F0074FF18F0A7EC9EF017C01FF018C0E6
:1021300020F0B6EC92F01B501C10D8A429D030C06F
:102140002EF031C02FF03350050D6000C3F0D9FFE1
:102150006000C7F0DAFF6F0078FF60F06F0074FF77
:1021600061F0F35000016027F4506123020E6025F6
:10217000D96E000E6121DA6E01D829D00500FA6E01
:10218000DE50FD6EDE50FE6EDE50FF6EFA50120025
:10219000332A3350050D6000C3F0D9FF6000C7F04B
:1021A000DAFF6F0078FF60F06F0074FF61F0F350AA
:1021B00000016027F4506123020E6025D96E000EE5
:1021C0006121DA6EDE50DE10DE10D8A466D73350FF
:1021D000050D6000C3F0D9FF6000C7F0DAFF6F00A3
:1021E00078FF60F06F0074FF61F0F350000160272A
:1021F000F4506123020E6025D96E000E6121DA6E63
:10220000DE50DE10DE10D8A402D0010E326E325045
:102210001200FCAF3B92FCBF05D0FC5108E1FB056E
:10222000D8B005D0000E776F010E766F04D0FBC0DA
:1022300076F0FCC077F0F9C078F0FAC079F066C0AB
:102240007AF067C07BF068C07CF069C07DF06AC03E
:102250007EF06BC07FF06CC080F06DC081F0000E2E
:10226000836F4F0E826F000E0101BA6F76D0820726
:10227000D8A083076B0E8225D96E010E8321DA6EFA
:102280007AC017F07BC018F07CC019F07DC01AF03E
:102290007EC01BF07FC01CF080C01DF081C01EF00E
:1022A0000A0E1F6E000E206E000E216E000E226EB2
:1022B000000E236E000E246E000E256E000E266E9C
:1022C00008EC9AF017C06EF018C06FF019C070F0EB
:1022D0001AC071F01BC072F01CC073F01DC074F006
:1022E0001EC075F06E51300FDF6E7607D8A07707ED
:1022F0007807D8A079077AC017F07BC018F07CC0A7
:1023000019F07DC01AF07EC01BF07FC01CF080C0A9
:102310001DF081C01EF00A0E1F6E000E206E000E12
:10232000216E000E226E000E236E000E246E000E33
:10233000256E000E266E06EC97F017C07AF018C0D6
:102340007BF019C07CF01AC07DF01BC07EF01CC071
:102350007FF01DC080F01EC081F00001825183110A
:10236000D8B41AD07A517B117C117D117E117F1166
:1023700080118111D8A47BD777BF05D0775102E1B6
:102380007605D8B074D779BF07D0795103E17805C5
:10239000D8A002D03BB26BD764C02BF065C02CF044
:1023A0006B0E82252D6E010E83212E6E78C02FF0CC
:1023B00079C030F005EC9BF02BC064F02CC065F0C8
:1023C000120058C16CF059C16DF05AC16EF05BC17A
:1023D0006FF030C06CF031C06DF032C06EF033C0C1
:1023E0006FF0810E606FFF0E616F6CC062F06DC0A8
:1023F00063F06EC064F06FC065F0180E05D0D89021
:102400006533643363336233E82EF9D76251602554
:102410006A6F000E61216B6F6BBF0FD06B5104E1CF
:10242000170E6A5DD8A009D030C030F031C031F04D
:1024300032C032F033C033F012006BBF5CD06AC0E0
:1024400060F0FF0E616FFF0E626F7F0E636F000E14
:10245000646F606701D007D06435643363336233DF
:102460006133602FF6D761C066F062C067F063C069
:1024700068F064C069F0000166516C15606F6751C7
:102480006D15616F68516E15626F69516F15636FDD
:102490006051611162116311D8B4C6D76CC060F08D
:1024A0006DC061F06EC062F06FC063F0200E05D0A9
:1024B000D8906333623361336033E82EF9D76051CB
:1024C000D8B408D066516C2767516D2368516E23CC
:1024D00069516F23661D606F671D616F681D626FB4
:1024E000691D636F60516C1761516D1762516E17F2
:1024F00063516F1732D06CC060F06DC061F06EC078
:1025000062F06FC063F0200E05D0D8906333623361
:1025100061336033E82EF9D7606708D0000E6C6F26
:10252000000E6D6F000E6E6F000E16D0D8906C35D9
:10253000606F6D35616F6E35626F6F35636F6051BF
:10254000611162116311D8B408D0000E6C6F000ED7
:102550006D6F800E6E6FBF0E6F6F6CC030F06DC010
:1025600031F06EC032F06FC033F012001BC023F0A8
:102570001CC024F01DC025F01EC026F01F06D8A0E8
:1025800020061F280FE12028D8A40CD0000E1C6EB6
:10259000000E1B6E1200234A242A254A262A1F06F3
:1025A000D8A0200660008FF0F6FF600093F0F7FFE0
:1025B000000EF86E1F0EF76403D00800F55007D028
:1025C0006F00DBFFE1FF6F00DFFFE2FFE750000974
:1025D000D8B44AD0600097F0F6FF60009BF0F7FF98
:1025E000000EF86E1F0EF76403D00800F55007D0F8
:1025F0006F00DBFFE1FF6F00DFFFE2FFE750000944
:10260000D8B432D01F502010D8B42ED0600097F02C
:10261000F6FF60009BF0F7FF000EF86E1F0EF764E8
:1026200003D00800F55007D06F00DBFFE1FF6F001B
:10263000DFFFE2FFE750216E60008FF0F6FF6000E1
:1026400093F0F7FF000EF86E1F0EF76403D008003A
:10265000F55007D06F00DBFFE1FF6F00DFFFE2FF07
:10266000E7502118D8B497D760008FF0F6FF6000CC
:1026700093F0F7FF000EF86E1F0EF76403D008000A
:10268000F55007D06F00DBFFE1FF6F00DFFFE2FFD7
:10269000E750216E600097F0F6FF60009BF0F7FFB7
:1026A000000EF86E1F0EF76403D00800F55007D037
:1026B0006F00DBFFE1FF6F00DFFFE2FFE750226EFC
:1026C0002250215C1B6E1C6AD8A01C061200000E52
:1026D0006F6F6F0E186EEDECA1F00009D8B4120008
:1026E00089D020EE82F06851D9266951DA227E0E17
:1026F000DF640CD020EE82F06851D9266951DA22CD
:10270000DF506A6F6A516D6F6E6B0ED020EE82F0F3
:102710006851D9266951DA22DF506A6F010E6A25A5
:102720006D6F6E6B000E6E236D5168256A6F6E5172
:1027300069216B6F020E6A25D96E000E6B21DA6E6D
:10274000000EDF6EB40E2E6EFF0E2F6E020E306E78
:1027500022ECA3F068C030F069C031F02BEC90F0AF
:10276000416E000120EE82F06851D9266951DA22CB
:10277000000EDF6E020E6825176E000E6921186EBE
:10278000000E1A6E000E196E000E1C6E800E1B6E6F
:10279000B8EC94F0120020EE82F06851D92669510D
:1027A000DA227F0EDF60120020EE82F06851D92617
:1027B0006951DA22DF506A6F6A5168256B6F000E2B
:1027C00069216C6F020E6B25D96E000E6C21DA6EDA
:1027D0006000BFF1DFFF20EE82F06851D926695119
:1027E000DA22DF2A6F0E2E6E2F6A010E306E22EC77
:1027F000A3F0120000016F516A6F6B6B6B51000AFE
:10280000D8A4C9D76A510D0AD8B46BD7160AD8B460
:102810001200650AD8B41200010AD8B41200BBD75E
:1028200020EEC5F110EE60F0060E6F006FFFE3FFC3
:10283000E806FBE224C06BF025C06CF06B516C1114
:10284000D8A403D0600E6B6F6C6B6BC017F06CC0BC
:1028500018F0A7EC9EF017C06FF018C070F0FBC026
:102860006DF0FCC06EF000016EBF0ED06F516D5D5B
:102870006E51800A266E7051800A2658D8B004D056
:102880006DC06FF06EC070F06FC06DF070C06EF014
:10289000F9C069F0FAC06AF03BA00ED017D0000E64
:1028A0001A6E200E196E22C01BF023C01CF0AEEC75
:1028B00099F000016F4B702B69516F5D7051800A68
:1028C000266E6A51800A2658D8A0E9D7000E686F94
:1028D000000E676F24D06000AFF1F6FF6000B3F127
:1028E000F7FF000EF86E1F0EF76403D00800F550D6
:1028F00007D06F00DBFFE1FF6F00DFFFE2FFE75073
:10290000266E2650196E1A6A22C01BF023C01CF0D6
:10291000AEEC99F000016B4B6C2B674B682B6D5143
:10292000675D6851800A266E6E51800A2658D8A0CD
:10293000D2D73BB00ED017D0000E1A6E200E196EF3
:1029400022C01BF023C01CF0AEEC99F000016F4BCD
:10295000702B69516F5D7051800A266E6A51800A32
:102960002658D8A0E9D76FC022F070C023F012001B
:1029700017C021F018C022F01B501C10D8B4120050
:10298000600087F0D9FF60008BF0DAFF600067F02D
:10299000DFFF1B5021241D6E1C5022201E6EFF0ED7
:1029A0001D24D96EFF0E1E20DA6E600067F0DFFF77
:1029B0001C5004E1030E1B5CD8A0120020EE01F0B5
:1029C0002150D9262250DA22600067F0DFFF20EE86
:1029D00002F02150D9262250DA22600067F0DFFF92
:1029E0001B5021241D6E1C5022201E6EFE0E1D2425
:1029F000D96EFF0E1E20DA6E600067F0DFFF1B50FD
:102A000021241D6E1C5022201E6EFD0E1D24D96E29
:102A1000FF0E1E20DA6E600067F0DFFF1C5004E13D
:102A2000070E1B5CD8A0120020EE03F02150D9261F
:102A30002250DA22600067F0DFFF1B5021241D6E58
:102A40001C5022201E6EFC0E1D24D96EFF0E1E206F
:102A5000DA6E600067F0DFFF1C5004E1090E1B5CBA
:102A6000D8A0120021C01DF022C01EF01D1E1E1E87
:102A70001D4A1E2A030E1D141F6E206A1F50212698
:102A8000205022221F501B5E20501C5AFC0E1B1689
:102A9000FF0E1C160ED0600087F0D9FF60008BF08F
:102AA000DAFF600067F0DFFF1B06D8A01C06214A92
:102AB000222A1B501C10D8B41200EDD7000E276E2E
:102AC000000E266E000E256E000E246E02D01E4AE9
:102AD0001F2A60007BF0F6FF60007FF0F7FF000E1A
:102AE000F86E0800F550200AD8B4F1D7F70E206E22
:102AF000FF0E216E60007BF0F6FF60007FF0F7FFB5
:102B0000000EF86E0800F550226E236A205022262F
:102B10002150232223500CE1050E225CD8B008D0AE
:102B2000D6D7000E256E010E246E1E4A1F2A36D0FF
:102B300060007BF0F6FF60007FF0F7FF000EF86E9C
:102B40000800F550206E216A2150000AD8A426D032
:102B500020502B0AD8B4E9D7060AD8B4E2D71ED041
:102B600026C017F027C018F0000E1A6E0A0E196E54
:102B7000C4ECA1F060007BF0F6FF60007FF0F7FF8F
:102B8000000EF86E0800F550175E000E185A300E51
:102B90001724266E000E1820276EC7D7D00E206E81
:102BA000FF0E216E60007BF0F6FF60007FF0F7FF04
:102BB000000EF86E0800F550226E236A205022267F
:102BC00021502322235004E10A0E225CD8A0C8D74A
:102BD00024502510D8A40DD026C020F027C021F005
:102BE000201E211E204A212A20C01EF021C01FF0D5
:102BF000120026C01EF027C01FF012001F6E1F50CB
:102C0000D8A41AAE1AD017C01BF018C01CF019C0F7
:102C10001DF01AC01EF01B1E1C1E1D1E1E1E1B2A90
:102C2000000E1C221D221E221BC021F01CC022F0FF
:102C30001DC023F01EC024F008D017C021F018C01A
:102C400022F019C023F01AC024F0175018101910E0
:102C50001A10D8A409D0000E176E000E186E000EC0
:102C6000196E000E1A6E1200960E206E06D0202AE3
:102C7000D8902432233222322132000E21141B6ECE
:102C8000000E22141C6E000E23141D6EFE0E241462
:102C90001E6E1B501C101D101E10D8B40DD0E7D78F
:102CA000202A010E2126000E222223222422D8903F
:102CB0002432233222322132000E21141B6E000EE8
:102CC00022141C6E000E23141D6EFF0E24141E6EA3
:102CD0001B501C101D101E10D8B407D0E1D72006C1
:102CE000D890213622362336243623BE03D0020E56
:102CF0002060F5D720A0239ED890203220C01BF062
:102D00001C6A1D6A1E6A1BC01EF01D6A1C6A1B6AB3
:102D10001B5021121C5022121D5023121E5024122F
:102D20001F50D8A41AAE01D0248E21C017F022C0A3
:102D300018F023C019F024C01AF01200000E6D150F
:102D4000756F000E6E15766F800E6F15776F7F0EA4
:102D50007015786F7551761177117811D8A408D055
:102D6000000E6D6F000E6E6F000E6F6F000E706FB5
:102D7000000E7115756F000E7215766F800E73154B
:102D8000776F7F0E7415786F755176117711781102
:102D9000D8A408D0000E716F000E726F000E736F12
:102DA000000E746F70AF09D06D6D6E1FD8B06E2BB2
:102DB0006F1FD8B06F2B800E705774AF09D0716D34
:102DC000721FD8B0722B731FD8B0732B800E74573C
:102DD000000E6D1B000E6E1B000E6F1B800E701B15
:102DE000000E711B000E721B000E731B800E741BF5
:102DF00071516D5D72516E5973516F5974517059A3
:102E0000D8B002D0D8901200D880120020EE27F05F
:102E1000070EDE6AE806FDE21F5020102110221086
:102E20002310241025102610D8B446D0010E2F6E82
:102E30000AD0D8901F362036213622362336243643
:102E4000253626362F2A26AEF4D7D89027362836B0
:102E500029362A362B362C362D362E361F50175C47
:102E6000205018582150195822501A5823501B58D6
:102E700024501C5825501D5826501E58D8A011D03B
:102E80001F50175E2050185A2150195A22501A5AB2
:102E900023501B5A24501C5A25501D5A26501E5A86
:102EA0002780D89026322532243223322232213212
:102EB00020321F322F2EC9D727C017F028C018F094
:102EC00029C019F02AC01AF02BC01BF02CC01CF02E
:102ED0002DC01DF02EC01EF01200000EBE6E110E91
:102EE000BD6E200EBA6E000EBF6E000EBB6E070EDA
:102EF000BC6E020EC66E0B0EC76EDF0EC26EC368CE
:102F0000900EC46E080EC56E0C0E3A01706F600E06
:102F1000606FFE0E506F020E806F0F0E906F8F0E5F
:102F2000406F000E716F000E916F000E816F010EE9
:102F3000516F500E416F000E616F000E5A6F000E00
:102F40005B6F000E6A6F000E6B6F000E7A6F000EE3
:102F50007B6F000E826F000E926F000E426F000EAC
:102F6000526F000E626F000E726F4369536963699E
:102F70007369070E836F936944695469646974695E
:102F80000F0E846F94690E0E1A6F130EDE6F1E0EF5
:102F9000136F1F0E156F130E166F170EE56F0D0EC4
:102FA0002A6F140EDF6F12005CC121F05DC122F0A8
:102FB0005EC123F05FC124F017C021F018C022F0D9
:102FC00019C023F01AC024F021C01BF022C01CF04D
:102FD00023C01DF024C01EF0180E05D0D8901E325C
:102FE0001D321C321B32E82EF9D71B501F6E206A8F
:102FF0001F502010D8A419D0D89021341B6E223431
:103000001C6E23341D6E24341E6E1B501C101D10AC
:103010001E10D8A405D0000E186E020E176E1200F6
:10302000000E186E030E176E12001F282010D8A471
:103030001CD021C01BF022C01CF023C01DF024C0F6
:103040001EF0090ED8901B361C361D361E36E82E93
:10305000F9D71B501C101D101E10D8A402D0010E51
:1030600001D0000E176E186A1200000E186E040EC2
:10307000176E1200800E0101466F020E476F46C1A7
:1030800023F047C124F075ECA2F03D01149F200EFF
:10309000156F030E166F040E196F020E1C6F830E50
:1030A000146F148F300E176E570E186E050E196EB2
:1030B000000E1A6EA9ECA0F0460E6FECA0F0410EC7
:1030C0008CECA0F0500E176E000E186E000E196EEC
:1030D000000E1A6EA9ECA0F0530E8CECA0F0020EBC
:1030E00045ECA2F0500E176E000E186E000E196E11
:1030F000000E1A6EA9ECA0F0510E6FECA0F03D018D
:10310000149F020E166F148F1A933F0E3B01FD178A
:10311000FD9BFD51F90B0209FD6FE70EFD17FD81C7
:10312000800EF96F020EFA6F000EFB6FFC9B3D01E3
:103130001A83120019341A34206E2050D8A409D0F2
:10314000000E176E000E186E000E196E000E1A6E2D
:10315000120017C01BF018C01CF019C01DF01AC0D7
:103160001EF0200E05D0D8901E321D321C321B32AC
:10317000E82EF9D71B501F6E198EFF0E1716FF0E83
:103180001816FF0E1916000E1A16960E205E20AEA7
:103190000DD02050800A970FD8A0D2D7D8901A32DD
:1031A000193218321732203EF9D70DD01F0E206485
:1031B00007D0C6D7D8901736183619361A362006D3
:1031C0002050D8A4F7D71F50D8B408D01A1E191E03
:1031D000181E176C000E182219221A2217C017F099
:1031E00018C018F019C019F01AC01AF01200196EA0
:1031F0002DD0BD98BD9A1200BD98BD8A1200BD8821
:10320000BD9A1200BD9CBD9E1200BD9CBD8E1200D9
:10321000BD8CBD9E1200BF98BF9A1200BF98BF8A96
:103220001200BF88BF9A1200BF9CBF9E1200BF9CB5
:10323000BF8E1200BF8CBF9E1200BD98BD9ABD9C70
:10324000BD9EBF98BF9ABF9CBF9E12001950176EBB
:10325000186A1850000AD8A4F0D71750000AD8B43A
:10326000C8D7010AD8B4CBD7030AD8B4C5D7010A46
:10327000D8B4C8D7070AD8B4CBD7010AD8B4C5D7B1
:10328000030AD8B4C8D7010AD8B4CBD70F0AD8B428
:10329000C5D7010AD8B4C8D7030AD8B4CBD7010A16
:1032A000D8B4C5D7CAD739019397680E176E350EB3
:1032B000186E010E196E37ECA3F093995A0E176E23
:1032C000430E186E010E196E30ECA3F0000E3D0196
:1032D000EC6F000EED6F000EEE6F000EEF6F000E44
:1032E000F06F000EF16FB00EF26F800EF36F000EF4
:1032F000F46F8A0EF56F000EF66F000EF76F000E7A
:10330000F86F000EF96F000EFA6F3C0E176E470E45
:10331000186E010E196E45ECA3F03A0E176E470EAB
:10332000186E010E196E3EECA3F0220E176E470EBA
:10333000186E010E196E4CECA3F0000E436E000ED9
:10334000496E000E486E400E476E000E466E000E2F
:10335000456E000E446E3901938712001B501C10FD
:10336000D8B404D01B501C10D8A404D0195081EC40
:10337000A3F04AD020EE09F01B50D9261C50DA22C7
:10338000DE50DE10D8B416D020EE09F01B50D9263E
:103390001C50DA2210EE03F01B50E1261C50E222F2
:1033A000DE50E65CE650800A216EDE50800A21582D
:1033B000D8B02AD020EE03F01B50D9261C50DA22B8
:1033C0006F0078FF1DF06F0074FF1EF060006FF05B
:1033D000D9FF600073F0DAFF6F0078FF1FF06F0015
:1033E00074FF20F01D501F24D96E1E502020DA6E6D
:1033F000600067F0DFFF20EE03F01B50D9261C5061
:10340000DA22DE2A000EDD2219C019F01A6A120033
:103410001F502010211022102310241025102610D8
:10342000D8B43CD0010E276E0AD0D8901F36203673
:10343000213622362336243625362636272A26AE4E
:10344000F4D71F50175C205018582150195822509B
:103450001A5823501B5824501C5825501D582650CC
:103460001E58D8A010D01F50175E2050185A215057
:10347000195A22501A5A23501B5A24501C5A2550AC
:103480001D5A26501E5AD890263225322432233215
:103490002232213220321F32272ED3D717C017F005
:1034A00018C018F019C019F01AC01AF01BC01BF090
:1034B0001CC01CF01DC01DF01EC01EF01200B80E76
:1034C000F66E100EF76E010EF86E01EEFFF011EEC3
:1034D00000F009006F00D7FFEEFFE550E150F9E181
:1034E000E250F7E1CA0EF66E440EF76E010EF86E6A
:1034F00000EEC5F110EE1FF009006F00D7FFEEFFE0
:10350000E550E150F9E101EE00F010EEFFF0EE6A57
:10351000E550E150FCE1E250FAE100EE00F3830EE9
:10352000EE6AE806FDE100EE00F2C30EEE6AE80680
:10353000FDE100EE00F1C50EEE6AE806FDE100EEE9
:10354000DEF0220EEE6AE806FDE100EE34F0160E23
:10355000EE6AE806FDE1080ED56E000ED66E000E8E
:10356000D76E00018BEF8DF0000E4624D96EDA6A1B
:10357000010EDA22000EDF6E3D01F9A715D0000E14
:103580004624D96EDA6A010EDA220101DF8201D8FF
:103590000BD00500FA6E0001EB51FD6EEC51FE6E92
:1035A000ED51FF6EFA5012003D01F9A315D0000E47
:1035B0004624D96EDA6A010EDA220101DF8401D8CD
:1035C0000BD00500FA6E0001E851FD6EE951FE6E68
:1035D000EA51FF6EFA501200000E4624D96EDA6AE4
:1035E000010EDA22DF50D8B40DD001D81200050048
:1035F000FA6E01016851FD6E6951FE6E6A51FF6EEF
:10360000FA50120034ECA2F012003BA00AD02DC0F8
:1036100022F02EC023F02BC024F02CC025F0C9ECE2
:103620009CF030BE05D02FC062F030C063F005D0F2
:10363000000E0001636F000E626F000E0001616FEB
:10364000000E606F0DD0000E1A6E200E196E2BC08A
:103650001BF02CC01CF0AEEC99F00001604B612B0C
:103660006251605D6151800A316E6351800A315848
:10367000D8A0E9D73BB00AD02DC022F02EC023F04D
:103680002BC024F02CC025F0C9EC9CF02DC017F005
:103690002EC018F0A7EC9EF00001625117242B6E8B
:1036A000635118202C6E1200000E17141F6E000EAE
:1036B0001814206E800E1914216E7F0E1A14226EBB
:1036C0001F50201021102210D8A408D0000E176E11
:1036D000000E186E000E196E000E1A6E000E1B14EE
:1036E0001F6E000E1C14206E800E1D14216E7F0EA6
:1036F0001E14226E1F50201021102210D8A408D0B2
:10370000000E1B6E000E1C6E000E1D6E000E1E6E57
:103710001B5017180AE11C50181807E11D50191802
:1037200004E11E501A18D8B402D0D8901200D880E4
:103730001200000E1C6E1AAE06D0196C1A1ED8B0FC
:103740001A2A010E1C6E18AE06D0176C181ED8B0BF
:10375000182A010E1C1A000E1E6E000E1D6E195046
:103760001A10D8B41CD0010E1B6E04D0D890193694
:103770001A361B2A1AAEFAD7D8901D361E361950A3
:10378000175C1A501858D8A005D01950175E1A5057
:10379000185A1D80D8901A3219321B2EEDD71C50A2
:1037A000D8B404D01D6C1E1ED8B01E2A1DC017F040
:1037B0001EC018F0120028C017F029C018F0A7EC9E
:1037C0009EF017502C6E8BECA3F046C123F047C13E
:1037D00024F0000E256EB2EC9DF0BC94400E2C64DB
:1037E00013D0400E28242A6E000E29202B6E600074
:1037F000ABF0F6FF6000AFF0F7FF000EF86E000EC2
:10380000F56E0C00400E2C6E3B01FC9F6000B3F087
:10381000F7FBF86BFC8F46C122F047C123F028C0AC
:1038200024F029C025F02CC026F005EC9EF097EC82
:10383000A3F01200F9C117F0FAC118F0000E1A6EC9
:10384000000E196E000E1C6E830E1B6EB8EC94F009
:103850006000E7F7D9FF6000EBF7DAFF6000EFF7F1
:10386000DEFF6000F3F7DDFF020E0101F925E46FD2
:10387000000EFA21E56F7C0EE66FFF0EE76FC90EB2
:10388000E86FFF0EE96FD50EEA6FFF0EEB6FDCEC11
:103890009DF0020EF9252B6E000EFA212C6EC6EC5F
:1038A000A0F0E00E2B6EFE0E2C6EC6ECA0F0120007
:1038B000000E3E01DE6F000EDF6F000EE06F000EA7
:1038C000E16F000EE46F000EE56F000EEA6F000E70
:1038D000EC6F000EF16F100EF36F000EF46F000E20
:1038E000F56F000EF66F000EF76F000EF96F000E09
:1038F000FA6F200EFB6F000EFC6F020EFD6F070EBD
:10390000FE6F1F0EFF6F840EF86F3901A195918530
:10391000320E176E470E186E010E196E6FECA3F083
:103920001200000E1C6E18AE06D0176C181ED8B010
:10393000182A010E1C6E1AAE04D0196C1A1ED8B0CB
:103940001A2A19501A10D8B418D0010E1B6E04D0C0
:10395000D89019361A361B2A1AAEFAD71950175CA6
:103960001A501858D8A004D01950175E1A50185A77
:10397000D8901A3219321B2EF1D71C50D8B404D06B
:10398000176C181ED8B0182A17C017F018C018F0F6
:103990001200000E2A6E000E296E0BD028C019F0FE
:1039A0001A6A24C01BF025C01CF0AEEC99F0294A1D
:1039B0002A2A29502224266E2A502320276E6000AE
:1039C0009BF0F6FF60009FF0F7FF000EF86E1F0EF1
:1039D000F76403D00800F55007D06F00DBFFE1FF6C
:1039E0006F00DFFFE2FFE750286E2850D8A4D6D73B
:1039F00029C022F02AC023F0120019C01DF01AC0FD
:103A00001EF017C01FF018C020F01D501B6E1E5076
:103A10001C6E1D4A1E2A60006FF0F6FF600073F0F6
:103A2000F7FF000EF86E60007FF0D9FF600083F0B2
:103A3000DAFF1F4A202A1F0EF76403D00800F55052
:103A400007D06F00DBFFE1FF6F00DFFFE2FFE75011
:103A5000DF6EDF50D8B41200D8D7BB0E3B01F96F30
:103A6000010EFA6F000EFB6F3D0EF16F110EF06F3D
:103A7000030EFD6F000EF86F010EF76F000EEF6F73
:103A8000010EEE6F150EFF6F000EFE6F3901A2934F
:103A9000A291A297A29592939281400E176E470E23
:103AA000186E010E196E68ECA3F039019297929589
:103AB000C00E3B01FC6F1200D8C0DCF0D9C0DDF0B5
:103AC000000EF86F000EF76F10D0D6C0B7F0D7C059
:103AD000B8F0DC0EB96FDAC0BAF0DBC0BBF0DEECD8
:103AE00084F0B751F727B851F823600073F3F6FF5D
:103AF000600077F3F7FF000EF86E0800F55000093C
:103B0000D8A4E3D7F7C0D6F0F8C0D7F0120019C098
:103B100020F01AC021F017C01EF018C01FF019D0F5
:103B2000600083F0F6FF600087F0F7FF000EF86E8C
:103B300008006F00D4FF1DF0204A212A60007BF0AE
:103B4000D9FF60007FF0DAFF600077F0DFFF1E4AE8
:103B50001F2A1B06D8A01C061B28E2E11C28D8B48B
:103B60001200DED720EE42F02350D9262450DA226C
:103B7000000EDF6E20EE40F02350D9262450DA22CA
:103B8000000EDF6E20EE41F02350D9262450DA22B9
:103B9000000EDF6E2550D8B4120023C017F024C0E9
:103BA00018F0000E1A6E000E196E000E1C6E400EFC
:103BB0001B6EB8EC94F01200E80EEC6F010EED6F86
:103BC000E4C1EEF1E5C1EFF1000EF26F000EF16F0E
:103BD000000EF86F000EF76FEE0E0001D66F010EAB
:103BE000D76FE6C1D8F0E7C1D9F0EC0EDA6F010E5D
:103BF000DB6F5CEC9DF00101F151E425D96EF251CF
:103C0000E521DA6E000EDF6E120020EE42F0225047
:103C1000D9262350DA22400EDF60120022C017F0AE
:103C200023C018F024C019F025C01AF026C01BF0DC
:103C30001C6A87EC9DF020EE40F02250D9262350DC
:103C4000DA2260009BF0DFFF20EE42F02250D926FE
:103C50002350DA2260009BF0DFFF120020EE42F0DA
:103C60001750D9261850DA22400EDF60120020EEDD
:103C700040F01750D9261850DA22DF501A6E1A5029
:103C80001724D96E000E1820DA6E600067F0DFFF8F
:103C900020EE40F01750D9261850DA22DF2A20EE05
:103CA00042F01750D9261850DA22DF2A1200000EEF
:103CB000126E000E116ED8901134D96E1234DA6E75
:103CC0004C0ED926010EDA22DE50DE10D8B40CD00C
:103CD000D8901134D96E1234DA6E4C0ED926010EFA
:103CE000DA22DE06000EDD5A114A122A12BEE3D78E
:103CF000125005E1060E115CD8B01200DCD712009C
:103D00006F00E8FF13F06F00ECFF14F03901A89D7D
:103D10003DC00FF03EC010F011ECA2F00001E551E3
:103D2000E611E711D8B40CD001D80AD00500FA6E1C
:103D3000E551FD6EE651FE6EE751FF6EFA5012003E
:103D4000600053F0FBFF60004FF0FAFF110017C056
:103D500019F018C01AF002D0174A182A60005FF054
:103D6000F6FF600063F0F7FF000EF86E1F0EF764B9
:103D700003D00800F55007D06F00DBFFE1FF6F00B4
:103D8000DFFFE2FFE7500009D8A4E6D71950175C1F
:103D9000176E1A501858186E1200000E9B6E000E07
:103DA0009C6E020E9D6E830E996E000E986E390108
:103DB000A89D98506F0064FE1AF01B6A1AC01BF091
:103DC0001A6A1A103D6E1B503E6E988D3E0E176E8D
:103DD000470E186E010E196E5AECA3F0010E9A6E82
:103DE0001200000E711B000E721B000E731B800E62
:103DF000741B6DC017F06EC018F06FC019F070C062
:103E00001AF071C01BF072C01CF073C01DF074C0BA
:103E10001EF005EC8CF017C06DF018C06EF019C0E4
:103E20006FF01AC070F01200D28A000ED2BE010EDE
:103E3000176ED29E550ED46EAA0ED46ED490000E7C
:103E4000D76E000ED66E080ED56E550ED46EAA0E25
:103E5000D46ED48017B002D0D29E01D0D28E390158
:0E3E60008281838983878981888D8185120004
:103E70006F00E8FF06F06F00ECFF07F03901A19535
:103E80000001F151F211F311D8B40CD001D80AD0CD
:103E90000500FA6EF151FD6EF251FE6EF351FF6EA8
:103EA000FA50120060001FF0FBFF60001BF0FAFFE9
:023EB0001100FF
:103EB4006F00E8FF15F06F00ECFF16F03901A291D6
:103EC4000001E251E311E411D8B40CD001D80AD0B6
:103ED4000500FA6EE251FD6EE351FE6EE451FF6E91
:103EE400FA50120060005BF0FBFF600057F0FAFF2D
:103EF4001100010E1D6E200E17181810D8B414D01E
:103F0400F70E196EFF0E1A6E17C01BF018C01CF0C6
:103F140019501B261A501C221C5004E1050E1B5C70
:103F2400D8A002D0000E1D6E1DC017F0186A120032
:103F34004450D8B4FDD7000E4524D96EDA6A010E78
:103F4400DA22DF50436E000E4524D96EDA6A020E7F
:103F5400DA22DF50176E452A3F0E456402D0000E68
:103F6400456E39019397440693871750120014EC59
:103F74009FF023ECA2F06DEC97F0B0ECA2F058ECBB
:103F84009CF02DEC9DF084ECA2F0E4ECA2F096EC15
:103F9400A1F076ECA3F0CDEC9EF0F0ECA2F053ECA3
:103FA40099F0CBECA2F061ECA3F012006F00E8FFF3
:103FB4000BF06F00ECFF0CF00001F451F511F61159
:103FC400D8B40CD001D80AD00500FA6EF451FD6EB5
:103FD400F551FE6EF651FF6EFA501200600033F098
:103FE400FBFF60002FF0FAFF1100266E8BECA3F0AC
:103FF40046C123F047C124F0000E256EB2EC9DF0BB
:10400400BC943B01FC9F000EF86F010EF76FFC8F10
:1040140046C117F047C118F026C019F02EEC9EF0E7
:1040240097ECA3F01200176E4750D8B4FDD73901AE
:1040340093B904D060005FF0EAFD11D09399400E6B
:104044004924D96EDA6A020EDA2260005FF0DFFFDB
:10405400492A3F0E496402D0000E496E47069389EF
:02406400120048
:104068006F00E8FF0DF06F00ECFF0EF038503910CC
:104078003A10D8B40CD001D80AD00500FA6E3850DE
:10408800FD6E3950FE6E3A50FF6EFA501200600015
:104098003BF0FBFF600037F0FAFF1100BF0E1F6E08
:1040A800FF0E206E1DC021F01EC022F01F502126D9
:1040B8002050222222500AE11A0E215CD8B006D0E4
:1040C800200E1D101D6E1E501E6E12001DC01DF00C
:1040D8001EC01EF012001B6EBC94FE0EBEECA2F0B9
:1040E800080E176E000E186E000E196E000E1A6E6E
:1040F800A9ECA0F01B50BEECA2F0200E176E030E28
:10410800186E000E196E000E1A6EA9ECA0F01200BF
:104118001B6EBC94FE0EBEECA2F0080E176E000ECD
:10412800186E000E196E000E1A6EA9ECA0F01B5046
:10413800BEECA2F0080E176E000E186E000E196E77
:10414800000E1A6EA9ECA0F01200000E0001DE6F3E
:10415800000EDF6F000EE06F000EE16F00F004004C
:10416800010E0001DE27000EDF23E023E123DE51EC
:10417800175CDF511858E0511958E1511A58D8A066
:104188001200ECD7010E2D6E2BC022F02CC023F0AC
:10419800000E246E000E256EC9EC9CF023BE1200A2
:1041A800000E1A6E0A0E196E000E1B6E000E1C6EA3
:1041B800AEEC99F01ABE1200000E2D6E1200FCEC47
:1041C800A2F04250020DF350340FD96EDA6A600043
:1041D80007F0DEFF60000BF0DDFF422A4204056EA7
:1041E800010E056402D0000E426E60000BF1F1FE74
:1041F800010E0001FE6F12006F00E8FF09F06F006A
:10420800ECFF0AF03901A9913F4A402A405004E1E5
:10421800170E3F5CD8A006D0FFECA1F0000E406E50
:10422800000E3F6E60002BF0FBFF600027F0FAFFE6
:10423800110017C019F018C01AF0D8901A321932A4
:10424800D8901A3219321950696E17C019F0030E36
:104258001916060E1A6ED89019361A2EFCD7195050
:10426800686E120017C019F018C01AF0D8901A32E8
:104278001932D8901A32193219506D6E17C019F0C8
:10428800030E1916060E1A6ED89019361A2EFCD778
:1042980019506C6E1200BF0E196EFF0E1A6E17C001
:1042A8001BF018C01CF019501B261A501C221C5059
:1042B80006E11A0E1B5CD8B002D0010E01D0000E28
:1042C800176E186A1200D00E196EFF0E1A6E17C0FC
:1042D8001BF018C01CF019501B261A501C221C5029
:1042E80006E10A0E1B5CD8B002D0010E01D0000E08
:1042F800176E186A12001750181019101A10D8B42F
:1043080008D0000E171A000E181A000E191A800E7F
:104318001A1A17C017F018C018F019C019F01AC0E7
:104328001AF01200010E966E200E956E000E976E12
:104338004D0E936E000E926E3901A9919981340E3B
:10434800176E470E186E010E196E53ECA3F09468A1
:104358001200400E476011D0400E4824D96EDA6A28
:10436800020EDA22DF503D01EA6F482A3F0E486408
:1043780002D0000E486E472A1200390193991200A4
:10438800175019026F00CCFF1BF06F00D0FF1CF014
:1043980017501A02F3501C2618501902F3501C2605
:1043A8001BC017F01CC018F01200E60EF66F010EC5
:1043B800F76F000E0001D66F000ED76FE4C1D8F07A
:1043C800E5C1D9F0F60EDA6F010EDB6F5CEC9DF0FB
:1043D800120029ECA3F00009D8B40BD09AEC9FF096
:1043E800196E1850D96EDA6A600067F0DFFF010EA7
:1043F8001200000E12000001EE51EF11F011D8B4B6
:10440800120001D812000500FA6EEE51FD6EEF5150
:10441800FE6EF051FF6EFA5012009AA409D09A90DD
:10442800600043F099FF60003FF098FF9A80120007
:10443800600043F099FF60003FF098FF1200000E03
:10444800C06F000EC16F000EC26F000EC36F000E6A
:10445800C46F000EC56F000EC66F000EC76F120046
:10446800000E4624D96EDA6A020EDA226F00A3F72C
:10447800DFFF462A3F0E466402D0000E466E442AED
:1044880012001B6EBC941B50BEECA2F0080E176EF7
:10449800000E186E000E196E000E1A6EA9ECA0F030
:1044A80012002EC02BF02FC02CF0C6ECA0F04B0E43
:1044B8002B6EFF0E2C6EC6ECA0F0010E0001FD6FF6
:1044C8001200286E756C6C2900D5FFC9FFF8FFAA89
:1044D8004401FBFF224601F5FF0E460100000000E3
:0144E80000D3
:1044EA0023C017F024C018F0000E1A6E000E196EC1
:1044FA00000E1C6E430E1B6EB8EC94F01200010EF7
:10450A00AE6E000EAD6E000EAF6E9F0EAB6E000E5D
:10451A00AA6E3901A495800EAC6E1200BEA002D01C
:10452A00010E01D0000EFF0A086EBE500818FE0BDD
:10453A000818BE6E010EFF6F1200276E1BECA3F067
:10454A00FE0EF7EC9FF01BECA3F02750F7EC9FF060
:10455A001BECA3F01200200E3901D96F000EDB6F9D
:10456A00000EDD6F050EDF6F000EDE6FDCB112008C
:10457A00FDD7176E010E3D01126F60005FF011FD4D
:10458A003901A2A9FDD73D0110511200020E3D01C9
:10459A00146F400E156F000E166F000E1C6F500E32
:1045AA00196FC4961200000E0101F96F030EFA6F1B
:1045BA00D00EFB6F010EFC6F1AEC9CF01200800EFD
:1045CA006A6E4F0E696EC00E686E3F015F51F30B43
:1045DA0004095F6F1200800E6E6E4F0E6D6EC00E74
:1045EA006C6E3F015F51FC0B01095F6F12003E01C7
:1045FA00F051046E036AEF510324016E000E042089
:10460A00026E1200A50E2B6EFF0E2C6EC6ECA0F0E9
:10461A00000E0001FD6F1200640E2B6EFF0E2C6E51
:10462A00C6ECA0F0020E0001FD6F1200010140B7B6
:10463A00FDD73D0117BB1200FCD72EC02BF02FC0AF
:10464A002CF0C6ECA0F012004450D8B402D0010EEF
:10465A001200000E120017C0F4F018C0F5F019C0CD
:10466A00F6F0120017C038F018C039F019C03AF045
:10467A00120017C0E8F018C0E9F019C0EAF01200F9
:10468A0017C0EBF018C0ECF019C0EDF0120017C01B
:10469A0068F118C069F119C06AF1120017C0EEF08A
:1046AA0018C0EFF019C0F0F0120017C0E5F018C0FA
:1046BA00E6F019C0E7F01200550E3901EF6FAA0EA5
:1046CA00EF6FEF81120017C0E2F018C0E3F019C0D3
:1046DA00E4F0120017C0F1F018C0F2F019C0F3F0BC
:1046EA001200A40E3E019E6F1F0E9C6F1200286ED0
:1046FA002850A2ECA2F01200186E185015ECA0F087
:10470A001200176E60005FF09CFE120001014087E4
:10471A0012003E019C51120034ECA2F01200010179
:0C472A0040971200FC8D120012001200DB
:0A473800110012001200120012001E
:020000040020DA
:10000000FF0FFF0FFF0FFF0FFF0FFF0FFF0FFF0F80
:020000040030CA
:0A000000AFFFFFFF9FFFFFDFFFFFD0
:00000001FF
