:0400000057EF00F0C6
:100008001D0F1D0F1D0F1D0F1D0F1D0F1D0F1D0F88
:100018001D0F1D0FCF0D1D0F1D0F1D0F1D0F1D0FC8
:100028001D0F1D0F1D0F1D0F1D0F1D0F1D0F1D0F68
:100038001D0F1D0F1D0F1F0E0F0E1D0F1D0F1D0F66
:100048001D0F1D0F1D0F1D0F2B001D0F1D0F1D0F49
:100058001D0F1D0F1D0F1D0F1D0F1D0F1D0F1D0F38
:100068001D0F1D0F1D0F1D0F1D0F1D0F1D0F1D0F28
:100078001D0F1D0F2B001D0F1D0F1D0F2B002B001B
:100088002B002B002B002B002B002B00730D1D0FBA
:10009800FF0D1D0F1D0F1D0F2B002B002B002B001C
:0A00A8001D0F1D0FFF002AEF1AF0D4
:102000000002400008000D0A20436F6D6D616E6490
:102010002070726F636573736F722056302E310DAE
:102020000A000D0A205073205465737465722025D0
:10203000732025730D0A0050533A20563D25347500
:1020400020493D253475200D0A004D617220203451
:1020500020323032320020686920202020202000E9
:1020600020686F2020202020200032323A30303A81
:102070003437006C6C7300686900686F0068770023
:01208000005F
:10208200CD51D96EDA6A6F007FFFF6FF200EF76E30
:10209200000EF86E0800F550250AD8A45FD1CD5184
:1020A200D96EDA6ADF2A000E3D6E000E3C6E3CC02D
:1020B20040F03DC041F03E683F68CD51D96EDA6ACA
:1020C2006F007FFFF6FF200EF76E000EF86E08001D
:1020D200F5502A0AD8A428D0CD51D96EDA6ADF2A5F
:1020E20060003BF3D9FF60003FF3DAFF6F007CFF33
:1020F200D0F0020EDE266F007CFFD1F0000EDD2252
:10210200600043F3D9FF600047F3DAFF6F0078FF06
:102112003CF06F0074FF3DF03DAE33D040803C6C2C
:102122003D1ED8B03D2A2DD0CD51D96EDA6ADF508E
:102132001C6E2FEC15F01CC03CF01DC03DF004D00D
:10214200CD51D96EDA6ADF2AD00E0001D06FFF0EB0
:10215200D16FCD51D96EDA6A6F007FFFF6FF200E84
:10216200F76E000EF86E0800F550D26FD36BD051A7
:10217200D227D151D323D35104E10A0ED25DD8A084
:10218200DFD7CD51D96EDA6A6F007FFFF6FF200EDE
:10219200F76E000EF86E0800F550730AD8B415D029
:1021A200CD51D96EDA6ADF50196E730E1A6E1A505B
:1021B200D8A4200E1B6E000E1D6E030E1C6E5BEC6F
:1021C20016F019501A10D8A448D00001CD51D96E7A
:1021D200DA6A6F007FFFF6FF200EF76E000EF86ED0
:1021E2000800F550730AD8B404D0000EDF6F030E56
:1021F20003D0000EDF6F010EDE6FCD51D96EDA6AA9
:10220200DE51DF2660003BF3D9FF60003FF3DAFFC7
:102212006F007CFFD0F0020EDE266F007CFFD1F053
:10222200000EDD22600043F3D9FF600047F3DAFFBE
:102232006F0078FFDCF06F0074FFDDF0CBC020F0A0
:10224200CCC021F0DCC022F0DDC023F0ECEC13F0B6
:1022520020C0CBF021C0CCF012000001CD51D96ECC
:10226200DA6A6F007FFFF6FF200EF76E000EF86E3F
:102272000800F550750AD8A445D0CD51D96EDA6A56
:10228200DF2A60003BF3D9FF60003FF3DAFF6F0003
:102292007CFFD0F0020EDE266F007CFFD1F0000E34
:1022A200DD22600043F3D9FF600047F3DAFF6F00DD
:1022B20078FFD2F06F0074FFD3F0D2C0D4F0D3C055
:1022C200D5F0D66BD76BD86BD96BDA6BDB6BCBC027
:1022D200ABF0CCC0ACF0D4C0ADF0D5C0AEF0D6C03F
:1022E200AFF0D7C0B0F0D8C0B1F0D9C0B2F0DAC008
:1022F200B3F0DBC0B4F0C9EC11F0ABC0CBF0ACC0B2
:10230200CCF01200CD51D96EDA6A6F007FFFF6FF72
:10231200200EF76E000EF86E0800F550250AD8A4BC
:1023220014D0CD51D96EDA6ADF2A000E186E250E4E
:10233200176ECBC019F0CCC01AF068EC18F0000E82
:102342000001CC6F010ECB6F1200CD51D96EDA6A4B
:10235200DF2A000ECC6F000ECB6F1200CD51D96E6A
:10236200DA6A6F007FFFF6FF200EF76E000EF86E3E
:102372000800F550176E186ACBC019F0CCC01AF0DD
:1023820068EC18F00001CD51D96EDA6ADF2AD7D78E
:102392003FAE40923FBE05D03F5008E13E04D8B068
:1023A20005D0000EBE6F010EBD6F04D03EC0BDF061
:1023B2003FC0BEF03CC0BFF03DC0C0F0ADC0C1F0F8
:1023C200AEC0C2F0AFC0C3F0B0C0C4F0B1C0C5F07F
:1023D200B2C0C6F0B3C0C7F0B4C0C8F0000ECA6F36
:1023E2001F0EC96F000EAA6F74D0C907D8A0CA0702
:1023F200C9518B0FD96EDA6AC1C015F0C2C016F08E
:10240200C3C017F0C4C018F0C5C019F0C6C01AF096
:10241200C7C01BF0C8C01CF00A0E1D6E000E1E6E57
:10242200000E1F6E000E206E000E216E000E226E38
:10243200000E236E000E246EC2EC18F015C0B5F02B
:1024420016C0B6F017C0B7F018C0B8F019C0B9F08E
:102452001AC0BAF01BC0BBF01CC0BCF0B551300FA3
:10246200DF6EBD07D8A0BE07BF07D8A0C007C1C096
:1024720015F0C2C016F0C3C017F0C4C018F0C5C032
:1024820019F0C6C01AF0C7C01BF0C8C01CF00A0E73
:102492001D6E000E1E6E000E1F6E000E206E000ED0
:1024A200216E000E226E000E236E000E246EE7ECEB
:1024B20016F015C0C1F016C0C2F017C0C3F018C0A4
:1024C200C4F019C0C5F01AC0C6F01BC0C7F01CC0CA
:1024D200C8F0C951CA11D8B41AD0C151C211C3111E
:1024E200C411C511C611C711C811D8A47ED7BEBF69
:1024F20005D0BE5102E1BD05D8B077D7C0BF07D025
:10250200C05103E1BF05D8A002D040B26ED7ABC024
:1025120029F0ACC02AF0C9518B0F2B6EBFC02CF032
:10252200C0C02DF06AEC19F029C0ABF02AC0ACF0A3
:102532001200000E0001B06FB00E166E23EC1DF0FB
:102542000009D8B412008BD020EE81F03550D92684
:102552003650DA227E0EDF640CD020EE81F0355048
:10256200D9263650DA22DF50AB6FAB51AE6FAF6B6C
:102572000ED020EE81F03550D9263650DA22DF50C7
:10258200AB6F010EAB25AE6FAF6B000EAF23AE513A
:102592003524AB6FAF513620AC6F010EAB25D96E2F
:1025A200000EAC21DA6E000EDF6E470E2C6E2C5040
:1025B200D8A4200E2D6E020E2E6ED8EC1DF035C062
:1025C2002EF036C02FF090EC14F000018A6F20EE4E
:1025D20081F03550D9263650DA22000EDF6E010E18
:1025E2003524156E000E3620166E000E186E000E83
:1025F200176E000E1A6E800E196E46EC13F0120062
:1026020020EE81F03550D9263650DA227F0EDF6077
:10261200120020EE81F03550D9263650DA22DF50F2
:10262200AB6FAB513524AC6F000E3620AD6F010E8F
:10263200AC25D96E000EAD21DA6E6000C3F2DFFF69
:1026420020EE81F03550D9263650DA22DF2AB00E3C
:102652002C6E2D6A010E2E6ED8EC1DF012000001B8
:10266200B051AB6FAC6BAC51000AD8A4C9D7AB5117
:102672000D0AD8B469D7160AD8B41200650AD8B4BC
:102682001200010AD8B41200BBD715C01FF016C041
:1026920020F019501A10D8B4120060007FF0D9FF50
:1026A200600083F0DAFF60005FF0DFFF19501F2443
:1026B2001B6E1A5020201C6EFF0E1B24D96EFF0EBB
:1026C2001C20DA6E60005FF0DFFF1A5004E1030E97
:1026D200195CD8A0120020EE01F01F50D92620501C
:1026E200DA2260005FF0DFFF20EE02F01F50D926F1
:1026F2002050DA2260005FF0DFFF19501F241B6EAA
:102702001A5020201C6EFE0E1B24D96EFF0E1C20B8
:10271200DA6E60005FF0DFFF19501F241B6E1A5043
:1027220020201C6EFD0E1B24D96EFF0E1C20DA6EBB
:1027320060005FF0DFFF1A5004E1070E195CD8A0B9
:10274200120020EE03F01F50D9262050DA2260003A
:102752005FF0DFFF19501F241B6E1A5020201C6EE1
:10276200FC0E1B24D96EFF0E1C20DA6E60005FF097
:10277200DFFF1A5004E1090E195CD8A012001FC035
:102782001BF020C01CF01B1E1C1E1B4A1C2A030E21
:102792001B141D6E1E6A1D501F261E5020221D5026
:1027A200195E1E501A5AFC0E1916FF0E1A160ED07A
:1027B20060007FF0D9FF600083F0DAFF60005FF015
:1027C200DFFF1906D8A01A061F4A202A19501A102C
:1027D200D8B41200EDD720EEE5F010EE25F0060E8B
:1027E2006F006FFFE3FFE806FBE222C030F023C078
:1027F20031F030503110D8A403D0250E306E316A3A
:1028020030C015F031C016F00DEC1BF015C034F0DD
:1028120016C035F03EC032F03FC033F033BE0ED0AA
:102822003450325C3350800A246E3550800A24586A
:10283200D8B004D032C034F033C035F034C032F0F6
:1028420035C033F03CC02EF03DC02FF040A00DD07B
:1028520016D0000E186E200E176E20C019F021C07F
:102862001AF068EC18F0344A352A2E50345C355090
:10287200800A246E2F50800A2458D8A0EAD7000E6E
:102882002D6E000E2C6E23D06000C3F0F6FF6000A8
:10289200C7F0F7FF000EF86E1F0EF76403D00800B2
:1028A200F55007D06F00DBFFE1FF6F00DFFFE2FFB3
:1028B200E750246E2450176E186A20C019F021C008
:1028C2001AF068EC18F0304A312A2C4A2D2A32507C
:1028D2002C5C2D50800A246E3350800A2458D8A0D4
:1028E200D3D740B00DD016D0000E186E200E176E42
:1028F20020C019F021C01AF068EC18F0344A352AC9
:102902002E50345C3550800A246E2F50800A245891
:10291200D8A0EAD734C020F035C021F01200000E52
:10292200346E000E336E010E2E24156E000E2F2013
:10293200166E0DEC1BF015501610D8A402D0030E23
:102942001200010E2E24156E000E2F20166E0DECB5
:102952001BF0165059E1020E155CD8B055D0020E8C
:1029620012003450040D6000BBF0D9FF6000BFF0CC
:10297200DAFFDF50F324D96EDA6ADF50196E010EE6
:102982002E241A6E000E2F201B6E3450040D600090
:10299200BBF0D9FF6000BFF0DAFFDF50F324D96E3D
:1029A200DA6ADF50306E30C015F01550D8A4200E10
:1029B200166E0DEC1BF015C01CF016C01DF05BEC82
:1029C20016F019501A10D8A41ED02EC02CF02FC009
:1029D2002DF03450040D6000BBF0D9FF6000BFF051
:1029E200DAFFDF50F324D96EDA6A010ED92601D854
:1029F2001ED00500FA6EDE50FD6EDE50FE6EDE5019
:102A0200FF6EFA501200342A3450040D6000BBF0FD
:102A1200D9FF6000BFF0DAFFDF50F324D96EDA6A23
:102A2200010ED926DE50DE10DE10D8A49AD734501B
:102A3200040D6000BBF0D9FF6000BFF0DAFFDF5089
:102A4200F324D96EDA6A010ED926DE50DE10DE10CA
:102A5200D8A402D0010E336E33501200000E256E40
:102A6200000E246E000E236E000E226E01D01C2A70
:102A7200600073F0F6FF200EF76E000EF86E08008D
:102A8200F550200AD8B4F3D7F70E1E6EFF0E1F6E54
:102A9200600073F0F6FF200EF76E000EF86E08006D
:102AA200F550206E216A1E5020261F5021222150EF
:102AB2000BE1050E205CD8B007D0D9D7000E236EEB
:102AC200010E226E1C2A34D0600073F0F6FF200E35
:102AD200F76E000EF86E0800F5501E6E1F6A1F504A
:102AE200000AD8A425D01E502B0AD8B4EBD7060A68
:102AF200D8B4E4D71DD024C015F025C016F0000EBE
:102B0200186E0A0E176EF9EC1CF0600073F0F6FFF7
:102B1200200EF76E000EF86E0800F550155E000EDE
:102B2200165A300E1524246E000E1620256ECAD7B2
:102B3200D00E1E6EFF0E1F6E600073F0F6FF200EA9
:102B4200F76E000EF86E0800F550206E216A1E50D6
:102B520020261F502122215004E10A0E205CD8A019
:102B6200CAD722502310D8A40DD024C01EF025C0ED
:102B72001FF01E1E1F1E1E4A1F2A1EC01CF01FC051
:102B82001DF0120024C01CF025C01DF01200010E21
:102B9200376E0EEC1DF0BD92BE94F40E156E3A0E19
:102BA200166E000E176E10EC1EF0B20E156E360E7B
:102BB200166E000E176E17EC1EF0300E156E390EE3
:102BC200166E000E176E1EEC1EF060000BF1F1FE89
:102BD200BCEC1DF0D28E010E30EC1EF04350D8B486
:102BE200FDD7840E385C030E3958D8B007D0000EDA
:102BF200B1EC17F0090EB1EC17F013D0C50E385C2A
:102C0200090E3958D8A007D0010EB1EC17F00A0E00
:102C1200B1EC17F006D0020EB1EC17F00B0EB1ECCE
:102C220017F0840E3A5C030E3B58D8B007D0030E5F
:102C3200B1EC17F0060EB1EC17F013D0C50E3A5CEA
:102C4200090E3B58D8A007D0040EB1EC17F0070EBE
:102C5200B1EC17F006D0050EB1EC17F0080EB1EC8E
:102C620017F0000E436E4450D8B4B8D7000E0101DD
:102C7200C06F020EC16F370EC26F38C0C3F139C0C8
:102C8200C4F13AC0C5F13BC0C6F1BFEC1AF0000E68
:102C9200296E020E2A6E7BEC1CF0372A375030EC7C
:102CA2001EF0000E356E030E366E9AEC12F0000E18
:102CB200446E94D719C022F01AC020F01BC021F034
:102CC2001C06D8A01D061C280EE11D28D8A40BD076
:102CD200000E1A6E000E196E1200222A204A212AB4
:102CE2001C06D8A01D0660008BF0F6FF200EF76EC2
:102CF200000EF86E0800F5500009D8B43FD060000D
:102D020083F0F6FF600087F0F7FF000EF86E1F0EEB
:102D1200F76403D00800F55007D06F00DBFFE1FF36
:102D22006F00DFFFE2FFE7500009D8B427D01C5044
:102D32001D10D8B423D060008BF0F6FF200EF76E82
:102D4200000EF86E08006F00D4FF1EF0600083F0E2
:102D5200F6FF600087F0F7FF000EF86E1F0EF764B3
:102D620003D00800F55007D06F00DBFFE1FF6F00D2
:102D7200DFFFE2FFE7501E18D8B4AFD760008BF038
:102D8200F6FF200EF76E000EF86E08006F00D4FFFB
:102D92001EF0600083F0F6FF600087F0F7FF000E80
:102DA200F86E1F0EF76403D00800F55007D06F00CD
:102DB200DBFFE1FF6F00DFFFE2FFE7501F6E1F50F6
:102DC2001E5C196E1A6AD8A01A06120020EE25F0AF
:102DD200070EDE6AE806FDE21D501E101F102010CD
:102DE2002110221023102410D8B446D0010E2D6ECB
:102DF2000AD0D8901D361E361F362036213622368E
:102E0200233624362D2A24AEF4D7D89025362636FA
:102E12002736283629362A362B362C361D50155C95
:102E22001E5016581F501758205018582150195824
:102E320022501A5823501B5824501C58D8A011D085
:102E42001D50155E1E50165A1F50175A2050185A00
:102E52002150195A22501A5A23501B5A24501C5AD4
:102E62002580D890243223322232213220321F325E
:102E72001E321D322D2EC9D725C015F026C016F0E0
:102E820027C017F028C018F029C019F02AC01AF07C
:102E92002BC01BF02CC01CF01200000EBE6E110ED7
:102EA200BD6E200EBA6E000EBF6E000EBB6E000E1F
:102EB200BC6E020EC66E0F0EC76EDF0EC26EC36808
:102EC200900EC46E0C0EC56E0C0E3A01706F600E41
:102ED200606FFE0E506F020E806F0F0E906F8F0E9E
:102EE200406F000E716F000E916F000E816F010E28
:102EF200516F500E416F000E616F000E5A6F000E3F
:102F02005B6F000E6A6F000E6B6F000E7A6F000E21
:102F12007B6F000E826F000E926F000E426F000EEA
:102F2200526F000E626F000E726F436953696369DC
:102F32007369070E836F936944695469646974699C
:102F42000F0E846F9469130EDE6F1E0E136F1F0E29
:102F5200156F130E166F170EE56F140EDF6F12004A
:102F6200176E2DD0BD98BD9A1200BD98BD8A120071
:102F7200BD88BD9A1200BD9CBD9E1200BD9CBD8E37
:102F82001200BD8CBD9E1200BF98BF9A1200BF985E
:102F9200BF8A1200BF88BF9A1200BF9CBF9E120058
:102FA200BF9CBF8E1200BF8CBF9E1200BD98BD9AFF
:102FB200BD9CBD9EBF98BF9ABF9CBF9E120017507A
:102FC200156E166A1650000AD8A4F0D71550000ADA
:102FD200D8B4C8D7010AD8B4CBD7030AD8B4C5D756
:102FE200010AD8B4C8D7070AD8B4CBD7010AD8B4D3
:102FF200C5D7030AD8B4C8D7010AD8B4CBD70F0AA9
:10300200D8B4C5D7010AD8B4C8D7030AD8B4CBD725
:10301200010AD8B4C5D7CAD739019397320E156EB3
:10302200320E166E000E176EF4EC1DF09399980E88
:10303200156E390E166E000E176EEDEC1DF0000EB9
:103042003D01EC6F000EED6F000EEE6F000EEF6FA4
:10305200000EF06F000EF16FB00EF26F800EF36F84
:10306200000EF46F150EF56F010EF66F000EF76F7E
:10307200000EF86F000EF96F000EFA6F780E156EE3
:103082003C0E166E000E176E02EC1EF0760E156EDA
:103092003C0E166E000E176EFBEC1DF06A0E156EDE
:1030A2003C0E166E000E176E09EC1EF0000E456EF9
:1030B200000E4B6E000E4A6E400E496E000E486EB8
:1030C200000E476E000E466E3901938712001950AA
:1030D2001A10D8B404D019501A10D8A404D017501A
:1030E2002BEC1EF04AD020EE09F01950D9261A50C6
:1030F200DA22DE50DE10D8B416D020EE09F01950D4
:10310200D9261A50DA2210EE03F01950E1261A508D
:10311200E222DE50E65CE650800A1F6EDE50800A34
:103122001F58D8B02AD020EE03F01950D9261A50D1
:10313200DA226F0078FF1BF06F0074FF1CF0600052
:1031420067F0D9FF60006BF0DAFF6F0078FF1DF0C7
:103152006F0074FF1EF01B501D24D96E1C501E20E0
:10316200DA6E60005FF0DFFF20EE03F01950D9261F
:103172001A50DA22DE2A000EDD2217C017F0186A72
:1031820012001D501E101F1020102110221023109B
:103192002410D8B43CD0010E256E0AD0D8901D362A
:1031A2001E361F3620362136223623362436252A6D
:1031B20024AEF4D71D50155C1E5016581F501758D8
:1031C200205018582150195822501A5823501B5871
:1031D20024501C58D8A010D01D50155E1E50165AEF
:1031E2001F50175A2050185A2150195A22501A5A51
:1031F20023501B5A24501C5AD89024322332223294
:10320200213220321F321E321D32252ED3D715C055
:1032120015F016C016F017C017F018C018F019C034
:1032220019F01AC01AF01BC01BF01CC01CF01200CF
:10323200000E4824D96EDA6A010EDA22000EDF6E21
:103242003D01F9A715D0000E4824D96EDA6A010EA5
:10325200DA220101DF8201D80BD00500FA6E0001EB
:103262007551FD6E7651FE6E7751FF6EFA50120067
:103272003D01F9A315D0000E4824D96EDA6A010E79
:10328200DA220101DF8401D80BD00500FA6E0001B9
:103292007251FD6E7351FE6E7451FF6EFA50120040
:1032A200000E4824D96EDA6A010EDA22DF50D8B451
:1032B2000DD001D812000500FA6E00016F51FD6EAB
:1032C2007051FE6E7151FF6EFA50120069EC1DF0E2
:1032D200120040A009D02BC020F0216A29C022F0A0
:1032E2002AC023F062EC1AF02DBE05D02CC031F0BA
:1032F2002DC032F004D0000E326E000E316E000E80
:10330200306E000E2F6E0CD0000E186E200E176E4F
:1033120029C019F02AC01AF068EC18F02F4A302A96
:1033220031502F5C3050800A2E6E3250800A2E5857
:10333200D8A0EAD740B009D02BC020F0216A29C01A
:1033420022F02AC023F062EC1AF02BC015F0166AA4
:103352000DEC1BF031501524296E325016202A6EC6
:103362001200D4C115F0D5C116F0000E186E000E71
:10337200176E000E1A6E820E196E46EC13F0600084
:1033820053F7D9FF600057F7DAFF60005BF7DFFF02
:10339200010E0101D425C06F000ED521C16F220E8E
:1033A200C26F4A0EC36FC351D8A4200EC46F6A0EF7
:1033B200C56FC551D8A4200EC66FBFEC1AF0010E1E
:1033C200D425296E000ED5212A6E7BEC1CF0060E48
:1033D200296E2950D8A4200E2A6E7BEC1CF0120014
:1033E200000E3E01DE6F000EDF6F000EE06F000E7A
:1033F200E16F000EE46F000EE56F000EEA6F000E43
:10340200EC6F000EF16F100EF36F000EF46F000EF2
:10341200F56F000EF66F000EF76F000EF96F000EDB
:10342200FA6F000EFB6F000EFC6F020EFD6F070EAF
:10343200FE6F000EFF6F940EF86F3901A195918512
:10344200700E156E3C0E166E000E176E1EEC1EF000
:103452001200480EF66E3B0EF76E000EF86E00EE8E
:10346200E5F010EE19F009006F00D7FFEEFFE5500E
:10347200E150F9E100EE00F3820EEE6AE806FDE1AA
:1034820000EE00F2800EEE6AE806FDE100EE00F1C9
:10349200C00EEE6AE806FDE100EE60F04B0EEE6A49
:1034A200E806FDE100EE38F0140EEE6AE806FDE1F2
:1034B200080ED56E000ED66E000ED76E0001C8EF54
:1034C20015F0000E286E000E276E0BD026C017F0E6
:1034D200186A22C019F023C01AF068EC18F0274AC3
:1034E200282A27502024246E28502120256E60008F
:1034F20093F0F6FF600097F0F7FF000EF86E1F0ED4
:10350200F76403D00800F55007D06F00DBFFE1FF3E
:103512006F00DFFFE2FFE750266E2650D8A4D6D711
:1035220027C020F028C021F01200E2C036F0000EC1
:10353200856F000E846F11D0E0C0CBF0E1C0CCF0FB
:10354200360ECD6FE3C0CEF0E4C0CFF041EC10F008
:103552000001CB518427CC5185236000DBF0F6FFBC
:10356200200EF76E000EF86E0800F5500009D8A480
:10357200E3D784C0E0F085C0E1F01200C30EC76F4C
:10358200010EC86FC0C1C9F1C1C1CAF1000ECD6F31
:10359200000ECC6F000ED36F000ED26FC90E000169
:1035A200E06F010EE16FC2C1E2F0C70EE36F010EE0
:1035B200E46F96EC1AF00101CC51C025D96ECD51C1
:1035C200C121DA6E000EDF6E12006F00E8FF13F009
:1035D2006F00ECFF14F03901A89D86C00FF087C080
:1035E20010F035EC1DF000016C516D116E11D8B464
:1035F2000CD001D80AD00500FA6E6C51FD6E6D51E7
:10360200FE6E6E51FF6EFA501200600053F0FBFF27
:1036120060004FF0FAFF110015C017F016C018F045
:1036220002D0154A162A600057F0F6FF60005BF0E0
:10363200F7FF000EF86E1F0EF76403D00800F55076
:1036420007D06F00DBFFE1FF6F00DFFFE2FFE75013
:103652000009D8A4E6D71750155C156E18501658F5
:10366200166E1200000E9B6E000E9C6E020E9D6E78
:10367200830E996E000E986E3901A89D98506F00C6
:1036820064FE18F0196A18C019F0186A18100001BF
:10369200866F1950876F3901988D7A0E156E3C0E20
:1036A200166E000E176E17EC1EF0010E9A6E1200C7
:1036B200000E126E000E116E1150020DF350600FCB
:1036C200D96EDA6ADE50DE10D8B409D01150020D7C
:1036D200F350600FD96EDA6ADE06000EDD5A114A27
:1036E200122A12BEE9D7125005E1060E115CD8B0BB
:1036F2001200E2D71200D28A000ED2BE010E156E5F
:10370200D29E550ED46EAA0ED46ED490000ED76EF1
:10371200000ED66E080ED56E550ED46EAA0ED46E5D
:10372200D48015B002D0D29E01D0D28E39018389C5
:1037320083878981888D818512006F00E8FF06F0FA
:103742006F00ECFF07F03901A19500017B517C115C
:103752007D11D8B40CD001D80AD00500FA6E7B5185
:10376200FD6E7C51FE6E7D51FF6EFA5012006000BC
:103772001FF0FBFF60001BF0FAFF1100010E1B6E31
:10378200200E15181610D8B414D0F70E176EFF0EAF
:10379200186E15C019F016C01AF0175019261850D5
:1037A2001A221A5004E1050E195CD8A002D0000EAC
:1037B2001B6E1BC015F0166A12004650D8B4FDD716
:1037C200000E4724D96EDA6A010EDA22DF50456E06
:1037D200400E4724D96EDA6A010EDA22DF50156EE6
:1037E200472A3F0E476402D0000E476E3901939775
:0837F2004606938715501200F2
:1037FC006F00E8FF09F06F00ECFF0AF03901A991A6
:10380C000001884B892B895104E1170E885DD8A0E3
:10381C0007D058EC1DF0000E0001896F000E886F68
:0E382C0060002BF0FBFF600027F0FAFF110098
:10383C006F00E8FF0BF06F00ECFF0CF000017E5105
:10384C007F118011D8B40CD001D80AD00500FA6EC3
:10385C007E51FD6E7F51FE6E8051FF6EFA5012004C
:0E386C00600033F0FBFF60002FF0FAFF110048
:10387C006F00E8FF0DF06F00ECFF0EF000018151BE
:10388C0082118311D8B40CD001D80AD00500FA6E7D
:10389C008151FD6E8251FE6E8351FF6EFA50120003
:1038AC0060003BF0FBFF600037F0FAFF1100156E73
:1038BC004950D8B4FDD7390193B904D0600057F002
:1038CC00EAFD11D09399800E4B24D96EDA6A010E61
:1038DC00DA22600057F0DFFF4B2A3F0E4B6402D018
:1038EC00000E4B6E490693891200010E2B6E29C0F7
:1038FC0020F02AC021F0000E226E000E236E62EC26
:10390C001AF021BE1200000E186E0A0E176E000E71
:10391C00196E000E1A6E68EC18F018BE1200000E2C
:10392C002B6E1200B1EC1DF04250020DF350380F0B
:10393C00D96EDA6A600007F0DEFF60000BF0DDFF85
:10394C00422A4204056E010E056402D0000E426E3E
:10395C0060000BF1F1FE010E436E1200D00E176EDB
:10396C00FF0E186E15C019F016C01AF01750192654
:10397C0018501A221A5006E10A0E195CD8B002D05F
:10398C00010E01D0000E156E166A1200400E496031
:10399C0011D0800E4A24D96EDA6A010EDA22DF5079
:1039AC003D01EA6F4A2A3F0E4A6402D0000E4A6E6D
:1039BC00492A1200390193991200010E966E200EBD
:1039CC00956E000E976E4D0E936E000E926EA99131
:1039DC009981720E156E3C0E166E000E176E10EC61
:1039EC001EF094681200155017026F00CCFF19F0EE
:1039FC006F00D0FF1AF015501802F3501A2616500B
:103A0C001702F3501A2619C015F01AC016F012003E
:103A1C007CEC1BF047EC1DF04EEC17F089EC1DF024
:103A2C00E3EC1CF0F1EC19F025EC1EF033EC1BF080
:103A3C000DEC18F097EC1DF01200DFEC1DF00009F6
:103A4C00D8B40BD0DEEC1BF0176E1650D96EDA6AB8
:103A5C0060005FF0DFFF010E1200000E12009AA44E
:103A6C0009D09A90600043F099FF60003FF098FFF6
:103A7C009A801200600043F099FF60003FF098FFBD
:103A8C001200000EC06F000EC16F000EC26F000E50
:103A9C00C36F000EC46F000EC56F000EC66F000E14
:103AAC00C76F1200785179117A11D8B4120001D86D
:103ABC0012000500FA6E7851FD6E7951FE6E7A5146
:103ACC00FF6EFA501200400E4824D96EDA6A010ECD
:103ADC00DA226F00A3F7DFFF482A3F0E486402D0BA
:103AEC00000E486E462A1200BEA002D0010E01D074
:103AFC00000EFF0A086EBE500818FE0B0818BE6EAA
:103B0C00010E446E1200200E3901D96F000EDB6FCE
:103B1C00000EDD6F050EDF6F000EDE6FDCB11200E4
:103B2C00FDD7020E3D01146F400E156F000E166F7F
:103B3C00000E1C6F080E196FC4961200286E756C5F
:103B4C006C29006A4A7DCC3B00779E3B007A8C3B0B
:053B5C00000000000064
:103B62003E01F051046E036AEF510324016E000E10
:103B72000420026E1200000E0101D46F030ED56FF5
:103B8200EE0ED66FB2EC19F01200600E296E2950BB
:103B9200D8A4200E2A6E7BEC1CF01200560E296E61
:103BA2002950D8A4200E2A6E7BEC1CF012002CC0E7
:103BB20029F02DC02AF07BEC1CF012004650D8B43C
:103BC20002D0010E1200000E12002CC029F02DC0EE
:103BD2002AF07BEC1CF0120015C07EF016C07FF0BC
:103BE20017C080F0120015C081F016C082F017C015
:103BF20083F0120015C072F016C073F017C074F093
:103C0200120015C075F016C076F017C077F01200DA
:103C120015C06FF016C070F017C071F0120015C019
:103C220078F016C079F017C07AF0120015C06CF067
:103C320016C06DF017C06EF0120015C07BF016C0F2
:103C42007CF017C07DF01200A40E3E019E6F1F0E85
:103C52009C6F1200166E16505DEC1CF01200156E71
:103C6200600057F09CFE120069EC1DF01200120079
:0A3C720012001100120012001200EF
:020000040020DA
:10000000FF0FFF0FFF0FFF0FFF0FFF0FFF0FFF0F80
:020000040030CA
:0A000000AFFFFFFF9FFFFFFFFFFFB0
:00000001FF
