:0400000057EF00F0C6
:10000800CB53CB53CB53CB53CB53CB53CB53CB53F8
:10001800CB53CB534951CB53CB53CB53CB53CB536C
:100028005A51CB53CB53CB53CB53CB53CB53CB534B
:10003800CB53CB53CB5315510351E851F751CB5305
:10004800CB53CB53CB53CB532B00CB53CB53CB53AB
:10005800CB53CB53CB53CB53CB53CB53CB53CB53A8
:10006800CB53CB53CB53CB53CB53CB53CB53CB5398
:10007800CB53CB532B00CB53CB53CB532B002B0061
:100088002B002B002B002B002B002B00CB50CB532D
:100098002352CB53CB53CB532B002B002B002B00DD
:0A00A800CB53CB53FF007CEF98F020
:10FDF6000002400050000D0A20436F6D6D616E6475
:10FE06002070726F636573736F722056302E320DD9
:10FE16000A0056312E30302050532054455354009A
:10FE26002050532054595045202531753A205053BF
:10FE36002054657374202531753A20444143204F80
:10FE460055542025342E34756D5620423D252E32CC
:10FE5600752C20537570706C79205265616442610F
:10FE6600636B2025342E34756D5620563D252B3672
:10FE76002E3166562025342E34756D5620493D2583
:10FE86002B332E31666D41200D0A000D0A204143A9
:10FE960043454C205375707072657373696F6E209D
:10FEA600537570706C79200D0A000D0A2045585460
:10FEB600205375707072657373696F6E2053757019
:10FEC600706C79200D0A000D0A20537465616479FF
:10FED60020564443204F4E203A2044656661756C97
:10FEE600740D0A0025342E34756D562025342E34B3
:10FEF600756D562025342E34756D560044252E32E8
:10FF0600752C204D2531752C20502531752C204916
:10FF160025327500563D252B362E31665620493D35
:10FF2600252B332E31666D412020000D0A20566F99
:10FF36006C74616765204F4E203A205365740D0A34
:10FF4600000D0A20566F6C7461676520444F574E4A
:10FF5600200D0A000D0A20566F6C74616765204FEC
:10FF66004646200D0A000D0A2052616D7020564447
:10FF760043204F4E200D0A000D0A20566F6C746107
:10FF86006765204C4F57200D0A000D0A20566F6CEE
:10FF960074616765205550200D0A000D0A204275D0
:10FFA600696C642025732025730D0A004170722048
:10FFB600203520323032320031363A34353A323258
:10FFC60000257320257300494E46004E414E0069B8
:10FFD6006E66006E616E006C6C73006C660070304D
:10FFE60000703100706400706C00706F00707000FB
:0AFFF6007072007073007075000057
:020000040001F9
:10000000000EB46F000EB36F95C0C3F096C0C4F07D
:1000100097C0C5F098C0C6F0C6AF16D0000EB46F3A
:10002000010EB36FC3C060F0C4C061F0C5C062F020
:10003000C6C063F0F7ECA4F060C0C3F061C0C4F0C8
:1000400062C0C5F063C0C6F0000ECC6F000ECB6F6F
:10005000F4C0B8F0F5C0B9F0B351B411D8A402D0CF
:100060002DA413D0B351B411D8A404D0000EA06FA6
:100070002B0E03D0000EA06F2D0E9F6F9FC043F17B
:10008000CB4BCC2BB807D8A0B907C3C060F0C4C015
:1000900061F0C5C062F0C6C063F02FEC9BF0600554
:1000A0006111D8A443D0BF0E9A6FFF0E9B6F995178
:1000B0009C6F9D6B9A519C279B519D239D5111E1F3
:1000C0001A0E9C5DD8B00DD0430ECB25606F010E8B
:1000D000CC21616FCD0E626FFF0E636F95EC9FF0C8
:1000E0000CD0430ECB25606F010ECC21616FD50E75
:1000F000626FFF0E636F95EC9FF00001FD0EB82755
:10010000FF0EB92393C073F094C074F0430E000146
:10011000756F010E766FB8C077F0B9C078F0B3ECA8
:100120009DF073C093F074C094F01200C3C060F0EF
:10013000C4C061F0C5C062F0C6C063F02FEC9BF094
:1001400060516111D8A42BD0BF0E9A6FFF0E9B6F28
:1001500099519C6F9D6B9A519C279B519D239D515A
:1001600011E11A0E9C5DD8B00DD0430ECB25606F07
:10017000010ECC21616FD10E626FFF0E636F95ECA3
:100180009FF0BBD7430ECB25606F010ECC21616F72
:10019000D90E626FFF0E636F95EC9FF0AED7000E25
:1001A000CD6F000ECE6F800ECF6F3F0ED06F000E62
:1001B000CA6F000EC96FC3C060F0C4C061F0C5C093
:1001C00062F0C6C063F0000E646F000E656F000E33
:1001D000666F000E676FFEEC9DF0D8A01DD074D046
:1001E000CDC06EF0CEC06FF0CFC070F0D0C071F057
:1001F000000E726F000E736F200E746F410E756FDC
:1002000096EC8DF06EC0CDF06FC0CEF070C0CFF028
:1002100071C0D0F0C94BCA2BC3C087F0C4C088F0EE
:10022000C5C089F0C6C08AF0000E726F000E736FF1
:10023000200E746F410E756FCDC06EF0CEC06FF0A2
:10024000CFC070F0D0C071F096EC8DF06EC08BF026
:100250006FC08CF070C08DF071C08EF0F9EC99F029
:10026000D8A01ED0BDD7CDC060F0CEC061F0CFC049
:1002700062F0D0C063F0000E646F000E656F200E58
:10028000666F410E676FC4EC90F060C0CDF061C046
:10029000CEF062C0CFF063C0D0F0C907D8A0CA07C3
:1002A000C3C087F0C4C088F0C5C089F0C6C08AF05A
:1002B000CDC08BF0CEC08CF0CFC08DF0D0C08EF012
:1002C000F9EC99F0D8A0CFD799C066F0676B0CEC29
:1002D000A4F06651BA6FBAC0B7F0670EBA19D8A4C5
:1002E00019D0F651F711D8A404D0000EF76F010E03
:1002F000F66FF7BF05D0F75108E1F605D8B005D085
:10030000000EB66F060EB56F08D0F6C0B5F0F7C098
:10031000B6F003D0F7AFF9D7F3D7670EBA19D8A460
:1003200022D0CAAF06D0FC0EC95DFF0ECA59D8A0B4
:1003300018D0FF0E9A6FFF0E9B6FB5C09CF0B6C031
:100340009DF09A519C279B519D23C9519C5D9D51C5
:10035000800A9E6FCA51800A9E59D8A002D0660EAC
:1003600001D0650EB76FB5C0ABF0B6C0ACF0670E8C
:10037000BA19D8A405D0660EB719D8B4CAAF02D03E
:10038000AB4BAC2B660EB719D8A416D0CAAF0CD0A5
:10039000000ECD6F000ECE6F800ECF6F3F0ED06F70
:1003A000000ECA6F000EC96F670EBA19D8B404D018
:1003B000C951AB27CA51AC23000EC86F000EC76FDE
:1003C000C3C0BBF0C4C0BCF0C5C0BDF0C6C0BEF069
:1003D000CDC0ADF0CEC0AEF0CFC0AFF0D0C0B0F069
:1003E0007AD0BBC060F0BCC061F0BDC062F0BEC0DE
:1003F00063F0CDC064F0CEC065F0CFC066F0D0C071
:1004000067F0C4EC90F060C079F061C07AF062C02F
:100410007BF063C07CF0BCEC93F079C0BFF07AC095
:10042000C0F07BC0C1F07CC0C2F0BFC060F0C0C0F3
:1004300061F0C1C062F0C2C063F0F6EC9BF060C036
:10044000B1F061C0B2F0BBC087F0BCC088F0BDC0E5
:1004500089F0BEC08AF0CDC072F0CEC073F0CFC0BC
:1004600074F0D0C075F0BFC06EF0C0C06FF0C1C0F6
:1004700070F0C2C071F096EC8DF06EC08BF06FC062
:100480008CF070C08DF071C08EF04EECA2F087C081
:10049000BBF088C0BCF089C0BDF08AC0BEF0CDC042
:1004A00060F0CEC061F0CFC062F0D0C063F0000E4B
:1004B000646F000E656F200E666F410E676FC4ECAF
:1004C00090F060C0CDF061C0CEF062C0CFF063C0EC
:1004D000D0F0C74BC82BAB51C75DC851800A9A6F8B
:1004E000AC51800A9A59D8A07CD7CDC06EF0CEC04E
:1004F0006FF0CFC070F0D0C071F0000E726F000EC0
:10050000736FA00E746F400E756F96EC8DF06EC019
:10051000BFF06FC0C0F070C0C1F071C0C2F0BBC00E
:1005200087F0BCC088F0BDC089F0BEC08AF0BFC0F3
:100530008BF0C0C08CF0C1C08DF0C2C08EF0F9EC61
:1005400099F0D8A015D0BBC060F0BCC061F0BDC0B0
:1005500062F0BEC063F0BFC064F0C0C065F0C1C04F
:1005600066F0C2C067F0FEEC9DF0D8B0B1B108D023
:10057000000EBF6F000EC06F000EC16F000EC26F85
:10058000C3C060F0C4C061F0C5C062F0C6C063F013
:10059000BFC064F0C0C065F0C1C066F0C2C067F003
:1005A0003EEC8FF060C0BBF061C0BCF062C0BDF03B
:1005B00063C0BEF0BBC087F0BCC088F0BDC089F08E
:1005C000BEC08AF0000E726F000E736F200E746F43
:1005D000410E756FADC06EF0AEC06FF0AFC070F081
:1005E000B0C071F096EC8DF06EC08BF06FC08CF0E7
:1005F00070C08DF071C08EF0F9EC99F0D8A022D0C7
:10060000C94BCA2BADC06EF0AEC06FF0AFC070F07A
:10061000B0C071F0000E726F000E736F200E746F19
:10062000410E756F96EC8DF06EC0ADF06FC0AEF000
:1006300070C0AFF071C0B0F0660EB719D8A402D088
:10064000AB4BAC2BADC0CDF0AEC0CEF0AFC0CFF059
:10065000B0C0D0F0650EB719D8B405D0C9C0A9F0A4
:10066000CAC0AAF004D0000EAA6F000EA96F000E37
:10067000A86F000EA76F000EA66F000EA56F000EEC
:10068000C86F000EC76FC4D0BBC060F0BCC061F0C3
:10069000BDC062F0BEC063F0CDC064F0CEC065F0F6
:1006A000CFC066F0D0C067F0C4EC90F060C079F0C5
:1006B00061C07AF062C07BF063C07CF0BCEC93F068
:1006C00079C0BFF07AC0C0F07BC0C1F07CC0C2F07E
:1006D000BFC060F0C0C061F0C1C062F0C2C063F0D2
:1006E000F6EC9BF060C0B1F061C0B2F02DB80CD058
:1006F000B151B211D8A408D0670EBA19D8B4AAAFB4
:1007000003D0A54BA62B39D0A751A811D8B4AAAFB6
:1007100022D0430ECB25D96E010ECC21DA6E2E0EDF
:10072000DF6ECB4BCC2BB807D8A0B907000EA86F53
:10073000010EA76F10D0430ECB25D96E010ECC2130
:10074000DA6E300EDF6ECB4BCC2BB807D8A0B907D2
:10075000A507D8A0A607A551A611D8A4ECD7430E8B
:10076000CB25D96E010ECC21DA6EB151300FDF6E80
:10077000CB4BCC2BB807D8A0B907BBC087F0BCC007
:1007800088F0BDC089F0BEC08AF0CDC072F0CEC086
:1007900073F0CFC074F0D0C075F0BFC06EF0C0C0B1
:1007A0006FF0C1C070F0C2C071F096EC8DF06EC0F9
:1007B0008BF06FC08CF070C08DF071C08EF04EEC7D
:1007C000A2F087C0BBF088C0BCF089C0BDF08AC071
:1007D000BEF0CDC060F0CEC061F0CFC062F0D0C03E
:1007E00063F0000E646F000E656F200E666F410EA1
:1007F000676FC4EC90F060C0CDF061C0CEF062C015
:10080000CFF063C0D0F0A907D8A0AA07C74BC82B68
:10081000AB51C75DC851800A9A6FAC51800A9A5992
:10082000D8B008D0CCBF30D7CC5104E14B0ECB5D53
:10083000D8A02AD7A751A811D8B42DA80AD0430E02
:10084000CB25D96E010ECC21DA6E2E0EDF6ECB4B8E
:10085000CC2B430ECB25D96E010ECC21DA6E000EC7
:10086000DF6E650EB719D8A44DD4000EC86F4F0EB9
:10087000C76F430EC725D96E010EC821DA6E000E70
:10088000DF6E000EB46F000EB36FCAAF08D0000E5B
:10089000B46F010EB36FC96DCA1FD8B0CA2B000E5A
:1008A000B66F020EB56F2AD0C707D8A0C807430E8F
:1008B000C725D96E010EC821DA6EC9C060F0CAC062
:1008C00061F0000E636F0A0E626FBFEC9EF0605124
:1008D000300FDF6EC9C060F0CAC061F0000E636FF8
:1008E0000A0E626F43EC9EF060C0C9F061C0CAF0AE
:1008F000B507D8A0B607B807D8A0B907C951CA111B
:10090000D8A4D2D7B6BF05D0B651CEE1B505D8B080
:10091000CBD7C707D8A0C807B351B411D8A404D007
:10092000000EA26F2B0E03D0000EA26F2D0EA16F32
:10093000430EC725D96E010EC821DA6E600087F21A
:10094000DFFFB807D8A0B907C707D8A0C807BF0EF0
:100950009A6FFF0E9B6F99519C6F9D6B9A519C27CC
:100960009B519D239D5104E11A0E9C5DD8A004D09B
:10097000000EA46F650E03D0000EA46F450EA36F8A
:10098000430EC725D96E010EC821DA6E60008FF2C2
:10099000DFFFB807D8A0B907430ECB25606F010E63
:1009A000CC21616F430EC725626F010EC821636FB2
:1009B00095EC9FF082EF80F0D351D96EDA6A6F0028
:1009C0007BFFF6FF6F0077FFF7FF000EF86E080061
:1009D000F550250AD8A44AD3D351D96EDA6ADE2A53
:1009E000000EDD22000EF56F000EF46FF4C02DF046
:1009F000F5C02EF0F669F769000EE56F000E13D012
:100A00002D80D351D96EDA6ADE2A000EDD2231D074
:100A10002D82F7D72D84F5D72D86F3D72D88F1D7E2
:100A2000000EE56F010EE46F24D0D351D96EDA6A5F
:100A30006F007BFFF6FF6F0077FFF7FF000EF86E89
:100A40000800F550D66FD76BD751000AD8A4E8D765
:100A5000D651200AD8B4E0D7030AD8B4DFD7080AA1
:100A6000D8B4D8D7060AD8B4CBD71D0AD8B4D0D7B3
:100A7000D7D7E451E511D8B4D8D72DB02D92D351A2
:100A8000D96EDA6A6F007BFFF6FF6F0077FFF7FF22
:100A9000000EF86E0800F5502A0AD8A42AD0D351C7
:100AA000D96EDA6ADE2A000EDD22600053F3D9FF28
:100AB000600057F3DAFF6F007CFFD6F0020EDE26EF
:100AC0006F007CFFD7F0000EDD2260005BF3D9FFE2
:100AD00060005FF3DAFF6F0078FFF4F06F0074FFDF
:100AE000F5F0F5AF39D02D80F46DF51FD8B0F52BAA
:100AF00033D0D351D96EDA6A6F0078FF66F06F0099
:100B000074FF67F0DCEC97F066C0F4F067C0F5F0B6
:100B100006D0D351D96EDA6ADE2A000EDD22D00E5D
:100B2000D66FFF0ED76FD351D96EDA6A6F007BFF95
:100B3000F6FF6F0077FFF7FF000EF86E0800F55024
:100B4000D86FD96BD651D827D751D923D95104E1C1
:100B50000A0ED85DD8A0DDD7D351D96EDA6A6F00FE
:100B60007BFFF6FF6F0077FFF7FF000EF86E0800BF
:100B7000F5502E0AD8A470D0000EF76F000EF66F55
:100B8000D351D96EDA6ADE2A000EDD22D351D96E36
:100B9000DA6A6F007BFFF6FF6F0077FFF7FF000E4A
:100BA000F86E0800F5502A0AD8A423D0D351D96E84
:100BB000DA6ADE2A000EDD22600053F3D9FF6000FE
:100BC00057F3DAFF6F007CFFD6F0020EDE266F00CF
:100BD0007CFFD7F0000EDD2260005BF3D9FF6000E0
:100BE0005FF3DAFF6F0078FFF6F06F0074FFF7F045
:100BF00033D0D351D96EDA6A6F0078FF66F06F0098
:100C000074FF67F0DCEC97F066C0F6F067C0F7F0B1
:100C100006D0D351D96EDA6ADE2A000EDD22D00E5C
:100C2000D66FFF0ED76FD351D96EDA6A6F007BFF94
:100C3000F6FF6F0077FFF7FF000EF86E0800F55023
:100C4000D86FD96BD651D827D751D923D95104E1C0
:100C50000A0ED85DD8A0DDD7D351D96EDA6A6F00FD
:100C60007BFFF6FF6F0077FFF7FF000EF86E0800BE
:100C7000F550666F676B0CECA4F06651E96FE951B3
:100C8000D8B43DD0D351D96EDA6A6F0078FFD6F070
:100C90006F0074FFD7F0010ED627000ED723600037
:100CA0005BF3F6FF60005FF3F7FF000EF86E0800DD
:100CB000F550666F676B0CECA4F06651EA6FEA5171
:100CC000D8B41DD0D351D96EDA6A6F0078FFD6F050
:100CD0006F0074FFD7F0020ED627000ED7236000F6
:100CE0005BF3F6FF60005FF3F7FF000EF86E08009D
:100CF000F550666F676B0CECA4F06651EB6F660EF7
:100D0000E919D8A44CD0D351D96EDA6A6F007BFFB1
:100D1000F6FF6F0077FFF7FF000EF86E08006F0018
:100D2000D4FFE8F0D351D96EDA6ADE2A000EDD2254
:100D3000600053F3D9FF600057F3DAFF6F007CFFC8
:100D4000D6F0040EDE266F007CFFD7F0000EDD2209
:100D500060005BF3D9FF60005FF3DAFF6F0078FF9C
:100D6000ECF06F0078FFEDF06F0078FFEEF06F00B1
:100D700078FFEFF0D1C093F0D2C094F0ECC095F0C2
:100D8000EDC096F0EEC097F0EFC098F0E8C099F093
:100D900000EC80F093C0D1F094C0D2F01200E90EC4
:100DA000646F656BE10E666FFF0E676F000E696F13
:100DB000020E686F91EC94F064516511D8A45ED076
:100DC000D351D96EDA6A6F0078FFD6F06F0074FFE6
:100DD000D7F0010ED627000ED72360005BF3F6FF95
:100DE00060005FF3F7FF000EF86E08006F00D4FF9D
:100DF000E8F0BF0ED66FFF0ED76FD351D96EDA6A07
:100E00006F007BFFF6FF6F0077FFF7FF000EF86EB5
:100E10000800F550D86FD96BD651D827D751D923B0
:100E2000D95102E11A0ED85D600053F3D9FF60007A
:100E300057F3DAFF6F007CFFD6F0040EDE266F005A
:100E40007CFFD7F0000EDD2260005BF3D9FF60006D
:100E50005FF3DAFF6F0078FFECF06F0078FFEDF0E2
:100E60006F0078FFEEF06F0078FFEFF0D351D96E8E
:100E7000DA6A020EDE26000EDD227CD7D351D96E4F
:100E8000DA6A6F007BFFF6FF6F0077FFF7FF000E57
:100E9000F86E0800F550730AD8B417D0D351D96E44
:100EA000DA6A6F0078FF64F06F0074FF65F0DD0EA2
:100EB000666FFF0E676F000E696F030E686F91EC2F
:100EC00094F064516511D8A44AD0D351D96EDA6A2E
:100ED0006F007BFFF6FF6F0077FFF7FF000EF86EE5
:100EE0000800F550730AD8B404D0000EE76F030E63
:100EF00003D0000EE76F010EE66FD351D96EDA6AA8
:100F0000E651DE26E751DD22600053F3D9FF600091
:100F100057F3DAFF6F007CFFD6F0020EDE266F007B
:100F20007CFFD7F0000EDD2260005BF3D9FF60008C
:100F30005FF3DAFF6F0078FFE2F06F0074FFE3F019
:100F4000D1C06AF0D2C06BF0E2C06CF0E3C06DF0CB
:100F500096EC96F06AC0D1F06BC0D2F01200D3517B
:100F6000D96EDA6A6F007BFFF6FF6F0077FFF7FF3D
:100F7000000EF86E0800F550750AD8A447D0D3517A
:100F8000D96EDA6ADE2A000EDD22600053F3D9FF43
:100F9000600057F3DAFF6F007CFFD6F0020EDE260A
:100FA0006F007CFFD7F0000EDD2260005BF3D9FFFD
:100FB00060005FF3DAFF6F0078FFD8F06F0074FF16
:100FC000D9F0D8C0DAF0D9C0DBF0DC6BDD6BDE6BBA
:100FD000DF6BE06BE16BD1C07EF0D2C07FF0DAC096
:100FE00080F0DBC081F0DCC082F0DDC083F0DEC0C9
:100FF00084F0DFC085F0E0C086F0E1C087F0E4EC6B
:1010000092F07EC0D1F07FC0D2F01200D351D96EE1
:10101000DA6A6F007BFFF6FF6F0077FFF7FF000EC5
:10102000F86E0800F550250AD8A415D0D351D96E12
:10103000DA6ADE2A000EDD22000E626F250E616F75
:10104000D1C063F0D2C064F0B0EC9CF0000ED26F5F
:10105000010ED16F1200D351D96EDA6ADE2A000E6A
:10106000DD22000ED26F000ED16F1200D351D96E67
:10107000DA6A6F007BFFF6FF6F0077FFF7FF000E65
:10108000F86E0800F550616F626BD1C063F0D2C09A
:1010900064F0B0EC9CF0D351D96EDA6ADE2A000E0F
:1010A000DD22D4D7000E0101BE6F000EBF6F92EC9F
:1010B000A3F0BD92BE94200E0001606F4C0E616FD4
:1010C000010E626F40ECA7F0A00E606F410E616FE1
:1010D000010E626F47ECA7F00A0E606F330E616F6E
:1010E000010E626F5CECA7F0000E3E01F16F000E86
:1010F0000001616F000E606FAEECA4F0000E616F36
:10110000000E606F95ECA4F01A0E606F4F0E616FC9
:10111000010E626F55ECA7F0D28ED28CFA5175ECAD
:10112000A7F095EC9BF00C0EF3ECA6F0BF0E0001BF
:10113000606F010E616F74ECA5F00009D8A4F6D7BA
:1011400091ECA6F0000E0101A36F040EA46FA10E96
:10115000A56FFF0EA66FB20EA76FFF0EA86FBE0E93
:10116000A96FFF0EAA6F21ECA1F0000E0001736FB2
:10117000040E746F29ECA4F0010E656F2C0E646FE1
:101180004EECA5F0000E0101A36F040EA46FC70E74
:10119000A56FFF0EA66FB20EA76FFF0EA86FBE0E53
:1011A000A96FFF0EAA6F21ECA1F0000E0001736F72
:1011B000000E746F040E756F000E63EC9FF0000E4E
:1011C0000101A36F040EA46FCA0EA56FFF0EA66FD8
:1011D000180EA76FFE0EA86F21ECA1F0000E000103
:1011E000736F000E746F040E756F010E63EC9FF049
:1011F000000E0001616F000E606F4DECA6F0310A29
:10120000D8B42ED0000E0001616F000E606F310E59
:10121000626F15ECA3F0000E0001616F010E606FAC
:10122000390E626F15ECA3F0000E0001616F020E23
:10123000606F350E626F15ECA3F0000E0001616F58
:10124000030E606F370E626F15ECA3F0000E000105
:10125000616F100E606F000E626F15ECA3F008D086
:10126000000E0001616F100E606F4DECA6F0346E41
:10127000070E0001656FD00E646F4EECA5F0000103
:10128000FB51D8B4FCD737507E0D830EF324D96EB2
:10129000050EF420DA6E840EDE5C030EDE58D8B044
:1012A00004D0000E53EC9CF015D037507E0D830E09
:1012B000F324D96E050EF420DA6E090EDE5C070EFB
:1012C000DE58D8A004D0010E53EC9CF003D0020EDF
:1012D00053EC9CF037507E0D850EF324D96E050E2D
:1012E000F420DA6E010EDB5008E1320EDE5CD8B07D
:1012F00004D0030E53EC9CF016D037507E0D850EB3
:10130000F324D96E050EF420DA6E010EDB5004E1F1
:10131000970EDE5CD8A004D0040E53EC9CF003D0F2
:10132000050E53EC9CF0000EFB6FCABC04D00B0EF4
:1013300053EC9CF003D0090E53EC9CF0CAB804D0D7
:10134000070E53EC9CF003D0060E53EC9CF0FC51BE
:10135000D8B495D73450080DB20EF3243F6E020E68
:10136000F420406E37507E0D830EF324D96E050EA7
:10137000F420DA6E6F0078FFBCF16F0074FFBDF1EE
:10138000BCC160F0BDC161F0626B636B000E3BECF1
:1013900097F060C06EF061C06FF062C070F063C023
:1013A00071F06000FFF0D9FF600003F1DAFF6F0019
:1013B00078FF72F06F0078FF73F06F0078FF74F0C1
:1013C0006F0078FF75F096EC8DF06EC028F16FC05D
:1013D00029F170C02AF171C02BF137507E0D850EB6
:1013E000F324D96E050EF420DA6E6F0078FFBCF19D
:1013F0006F0074FFBDF1BCC160F0BDC161F0626BF4
:10140000636B000E3BEC97F060C06EF061C06FF054
:1014100062C070F063C071F020EE04F03F50D92636
:101420004050DA226F0078FF72F06F0078FF73F09F
:101430006F0078FF74F06F0078FF75F096EC8DF018
:101440006EC024F16FC025F170C026F171C027F184
:10145000260E0101A36FFE0EA46F34C0A5F1A66B8A
:1014600035C0A7F1A86B37507E0DFD0EF324D96E61
:10147000050EF420DA6E6F0078FFA9F16F0074FF9B
:10148000AAF184ECA7F00101BC6FBC51AB6FAC6B4F
:1014900037507E0D830EF324D96E050EF420DA6EDC
:1014A0006F0078FFADF16F0074FFAEF128C1AFF1AE
:1014B00029C1B0F12AC1B1F12BC1B2F137507E0D73
:1014C000850EF324D96E050EF420DA6E6F0078FFD6
:1014D000B3F16F0074FFB4F124C1B5F125C1B6F1C9
:1014E00026C1B7F127C1B8F13AECA5F0BE2BBE0575
:1014F000BC6F030EBC17D8A4EDD0000EA36F040E72
:10150000A46FEA0EA56FFE0EA66F37507E0DFD0E7E
:10151000F324D96E050EF420DA6E6F0078FFA7F180
:101520006F0074FFA8F137507E0D830EF324D96E3F
:10153000050EF420DA6E6F0078FFA9F16F0074FFDA
:10154000AAF137507E0D850EF324D96E050EF420D6
:10155000DA6E6F0078FFABF16F0074FFACF121EC35
:10156000A1F0000E0001736F000E746F040E756F12
:10157000010E63EC9FF0000E0101A36F040EA46F37
:10158000EA0EA56FFE0EA66F37507E0DC50EF32432
:10159000D96E050EF420DA6E6F0078FFA7F16F00A8
:1015A00074FFA8F137507E0DD30EF324D96E050ECB
:1015B000F420DA6E6F0078FFA9F16F0074FFAAF1D2
:1015C00037507E0DD50EF324D96E050EF420DA6E59
:1015D0006F0078FFABF16F0074FFACF121ECA1F06C
:1015E000000E0001736F000E746F040E756F020E13
:1015F00063EC9FF0000E0101A36F040EA46F020EB6
:10160000A56FFF0EA66F84ECA7F00101BC6FBC5163
:10161000A76FA86B35C0A9F1AA6B34C0ABF1AC6B56
:1016200036C0ADF1AE6B21ECA1F0000E0001736F7E
:10163000000E746F040E756F030E63EC9FF0000EC6
:101640000101A36F040EA46F1A0EA56FFF0EA66F03
:1016500028C1A7F129C1A8F12AC1A9F12BC1AAF17A
:1016600024C1ABF125C1ACF126C1ADF127C1AEF16A
:1016700021ECA1F0000E0001736F000E746F040ED8
:10168000756F000E63EC9FF025D0362A0001FA51E9
:10169000FE5DD8B004D0000EFA6F000E366EFA511F
:1016A00075ECA7F00001FA2B08D0BA9A26D0FDC03D
:1016B000FAF00001FA5175ECA7F0BD82F6D7000EE2
:1016C000356E000E0001FA6F000E75ECA7F0BD92AA
:1016D000BA8A13D035500101BC6FBD6BBD51000AF1
:1016E000D8A4EDD7BC51000AD8B4E9D7010AD8B4C0
:1016F000CCD7030AD8B4DBD7E2D7000E0001846F41
:10170000050E856F47EC95F0000E0001FC6FCBB025
:1017100009D0F92B040EF965B2D5352A000EF96F00
:10172000BE84ADD5000EF96FBE94A9D5FF00FF00B1
:10173000FF00FF00FF00FF00FF00FF0000000000AF
:101740000000000000000000000000000000000099
:101750000000000000000000000000000000000089
:101760000000000000000000000000000000000079
:101770000000000000000000000000000000000069
:101B20000000000000000000000000007151800B68
:101B30007A6F715171257C6F70BF7C817C51D8B4F4
:101B40000DD07C29D8A408D0000E6E6F000E6F6FE8
:101B5000000E706F000E716F708F08D0000E6E6FE8
:101B6000000E6F6F000E706F000E716F7551800B5D
:101B70007A1B755175257B6F74BF7B817B51D8B4FF
:101B80000DD07B29D8A408D0000E726F000E736FA1
:101B9000000E746F000E756F748F08D0000E726F98
:101BA000000E736F000E746F000E756F7B51D8B40A
:101BB00003D07C51D8A409D0000E6E6F000E6F6F59
:101BC000000E706F000E716F120074516E036F0083
:101BD000CCFF85F06F00D0FF86F085517D6F7E6B66
:101BE0007F6B806B8651816F826B836B846B7351CB
:101BF0006F036F00CCFF85F06F00D0FF86F085513A
:101C00007D27000E7E237F23802386518127000EAF
:101C1000822383238423725170036F00CCFF85F0ED
:101C20006F00D0FF86F085517D27000E7E237F2335
:101C3000802386518127000E8223832384237FC043
:101C400080F07EC07FF07DC07EF07D6B72516F03AF
:101C50006F00CCFF85F06F00D0FF86F085517D27A7
:101C600086517E23000E7F23000E802373516E0366
:101C70006F00CCFF85F06F00D0FF86F085517D2787
:101C800086517E23000E7F23000E80237FC080F0CC
:101C90007EC07FF07DC07EF07D6B72516E036F0061
:101CA000CCFF85F06F00D0FF86F085517D278651EF
:101CB0007E23000E7F23000E802374516F036F007C
:101CC000CCFF85F06F00D0FF86F0855181278651CB
:101CD0008223000E8323000E8423735170036F0050
:101CE000CCFF85F06F00D0FF86F0855181278651AB
:101CF0008223000E8323000E8423745170036F002F
:101D0000CCFF85F06F00D0FF86F08551766F86514D
:101D1000776F786B796B78C079F077C078F076C0A0
:101D200077F0766B76518127775182237851832320
:101D30007951842380518127000E822383238423B9
:101D40007FC080F07EC07FF07DC07EF07D6B7B51D8
:101D50007CC076F0776B7627000E7723820E76258F
:101D6000856FFF0E7721866F0FD0D890813782372D
:101D70008337843780BF8181D8907D377E377F3726
:101D800080378507D8A0860783AFEFD7000E7B6F1B
:101D900080AF17D0FF0E7D15766FFF0E7E15776F23
:101DA000FF0E7F15786F7F0E8015796F7651771152
:101DB00078117911D8B403D0010E7B6F02D081B1B4
:101DC000FBD77B51D8B41FD0010E8127000E822390
:101DD0008323842384A117D081C076F082C077F05A
:101DE00083C078F084C079F07935793378337733EC
:101DF000763376C081F077C082F078C083F079C006
:101E000084F0854B862B86BF0DD0865103E1852952
:101E1000D8A008D0000E816F000E826F800E836FF5
:101E20007F0E20D086BF05D086510EE18505D8B043
:101E30000BD0000E816F000E826F000E836F000EBC
:101E4000846F000E7A6F0FD085C07CF0FF0E811773
:101E5000FF0E82177F0E8317000E84177CB1838FCD
:101E6000D8907C31846F7A51841381C06EF082C027
:101E70006FF083C070F084C071F012006351800B6A
:101E80006C6F635163256E6F62BF6E816E51D8B403
:101E90000DD06E29D8A408D0000E606F000E616FBF
:101EA000000E626F000E636F628F06D0000E606FCF
:101EB000000E616F000E626F000E636F6751800B42
:101EC0006D6F6C516D19D8A46C8D675167256D6F5E
:101ED00066BF6D816D51D8B40DD06D29D8A408D0DE
:101EE000000E646F000E656F000E666F000E676F68
:101EF000668F06D0000E646F000E656F000E666F71
:101F0000000E676F6E516D5DD8B022D06CAD02D0FF
:101F1000800E6C1B6EC06FF06DC06EF06FC06DF008
:101F200060C06FF064C060F06FC064F061C06FF0BB
:101F300065C061F06FC065F062C06FF066C062F0AE
:101F40006FC066F063C06FF067C063F06FC067F08A
:101F5000000E6F6F6E516DC068F0696B685F000EA8
:101F6000695B69BF2CD0695104E11A0E685DD8A085
:101F700026D06051611162116311D8B402D0010EF4
:101F800001D0000E6F6F000E606F000E616F000ECB
:101F9000626F000E636F6DC06EF015D06FA105D03B
:101FA000D8906F3101096F6F02D0D8906F3360B154
:101FB0006F8F633563336233613360336E2B6D51E2
:101FC0006E5DD8A0EBD76CBD28D06E51D8A409D0D7
:101FD000000E606F000E616F000E626F000E636F87
:101FE0001200645160276551612366516223675175
:101FF000632363A171D06FA105D0D8906F3101091F
:102000006F6F02D0D8906F3360B16F8F63356333D9
:102010006233613360336E2B5FD06451605D655114
:102020006159665162596351800A686F6751800A2D
:102030006859D8B025D06051645D686F61516559A9
:10204000696F625166596A6F635167596B6FFF0E12
:102050006825606FFF0E6921616FFF0E6A21626F54
:10206000FF0E6B21636F800E6C1B6F6D6F51D8A4D8
:102070000FD0010E6027000E61236223632308D076
:102080006451605F6551615B6651625B6751635B80
:102090006051611162116311D8A41CD06F51D8A492
:1020A00019D0000E606F000E616F000E626F000E9F
:1020B000636F1200D89060376137623763376FBF44
:1020C00060816FA102D0D88001D0D8906F376E5157
:1020D000D8A46E0762AFEED7000E6D6F6FAF0BD056
:1020E0006FC068F07F0E6817D8B403D0010E6D6F13
:1020F00002D060B1FBD76D51D8B420D0010E60275B
:10210000000E61236223632363A118D060C068F0CE
:1021100061C069F062C06AF063C06BF06B356B330D
:102120006A336933683368C060F069C061F06AC0BF
:1021300062F06BC063F06E29D8A46E2B6E29D8B400
:1021400003D06E51D8A40DD0000E606F000E616FE9
:10215000000E626F000E636F6E51D8A402D0000EA5
:102160006C6F6EA102D0628F01D0629FD8906E31E9
:10217000636F6CBF638F60C060F061C061F062C06C
:1021800062F063C063F012006351800B706F6351A3
:102190006325776F62BF77817751D8B40DD07729E7
:1021A000D8A408D0000E606F000E616F000E626F41
:1021B000000E636F628F06D0000E606F000E616FBD
:1021C000000E626F000E636F6751800B701B6751CA
:1021D0006725786F66BF78817851D8B40DD078299B
:1021E000D8A408D0000E646F000E656F000E666FF5
:1021F000000E676F668F06D0000E646F000E656F6D
:10220000000E666F000E676F6451651166116711ED
:10221000D8A417D0000E606F000E616F000E626FC1
:10222000000E636F800E62137F0E63137051631391
:1022300060C060F061C061F062C062F063C063F0D2
:1022400012007751D8A409D0000E606F000E616FA4
:10225000000E626F000E636F1200785177C068F055
:10226000696B685F000E695B7F0E6825716F000EF9
:102270006921726F60C06CF061C06DF062C06EF079
:1022800063C06FF0000E606F000E616F000E626F32
:10229000000E636F000E736F000E746F000E756F8B
:1022A000000E766F000E786F28D07851D8B411D018
:1022B000D8906C376D376E376F37D890603761378D
:1022C0006237633776BF6081D8907337743775375C
:1022D000763764516C5D65516D5966516E59675121
:1022E0006F59D8A009D0768D64516C5F65516D5BD4
:1022F00066516E5B67516F5B782B190E7865D5D789
:102300006C516D116E116F11D8B411D073810FD053
:10231000D890603761376237633776BF6081D89075
:1023200073377437753776377107D8A0720762AF85
:10233000EFD7000E786F76AF17D0FF0E7315686F6A
:10234000FF0E7415696FFF0E75156A6F7F0E761597
:102350006B6F685169116A116B11D8B403D0010E0B
:10236000786F02D060B1FBD77851D8B41FD0010E7E
:102370006027000E61236223632363A117D060C02E
:1023800068F061C069F062C06AF063C06BF06B35E1
:102390006B336A336933683368C060F069C061F0D9
:1023A0006AC062F06BC063F0714B722B72BF10D0C9
:1023B000725103E17129D8A00BD0000E726F7169C0
:1023C000000E606F000E616F000E626F000E636F93
:1023D00072BF05D0725111E17105D8B00ED0000E58
:1023E000726F000E716F000E606F000E616F000E55
:1023F000626F000E636F000E706F71C077F077A18F
:1024000002D0628F01D0629FD8907731636F0ED770
:10241000000E836F000E826F020E7825606F000E33
:102420007921616FF9ECA0F060516111D8A402D05C
:10243000030E1200020E7825606F000E7921616F85
:10244000F9ECA0F0615103E1020E605DD8B07DD0DF
:10245000020E12008351050D6F00CCFF7AF06F0061
:10246000D0FF7BF06000E3F1D9FF6000E7F1DAFF15
:102470006F0078FF7CF06F0074FF7DF07A517C254F
:10248000D96E7B517D21DA6E6F0078FF64F06F00AA
:1024900074FF65F0020E7825666F000E7921676F74
:1024A0008351050D6F00CCFF7EF06F00D0FF7FF0F1
:1024B0006000E3F1D9FF6000E7F1DAFF6F0078FF19
:1024C00080F06F0074FF81F07E518025D96E7F51BE
:1024D0008121DA6E6F0078FF60F06F0074FF61F0A9
:1024E000F9ECA0F060C068F061C069F091EC94F084
:1024F00064516511D8A428D078C076F079C077F0FF
:102500008351050D6000E3F1D9FF6000E7F1DAFFC8
:102510006F0078FF7AF06F0074FF7BF0F3507A273A
:10252000F4507B23020E7A25D96E000E7B21DA6EE1
:1025300001D828D00500FA6EDE50FD6EDE50FE6E2A
:10254000DE50FF6EFA501200832B8351050D6000A0
:10255000E3F1D9FF6000E7F1DAFF6F0078FF7AF06E
:102560006F0074FF7BF0F3507A27F4507B23020E48
:102570007A25D96E000E7B21DA6EDE50DE10DE1079
:10258000D8A468D700018351050D6000E3F1D9FF9D
:102590006000E7F1DAFF6F0078FF7AF06F0074FFF8
:1025A0007BF0F3507A27F4507B23020E7A25D96E04
:1025B000000E7B21DA6EDE50DE10DE10D8A402D0D1
:1025C000010E826F82511200F7AF2D92F7BF05D036
:1025D000F75108E1F605D8B005D0000E916F010E55
:1025E000906F04D0F6C090F0F7C091F0F4C092F074
:1025F000F5C093F080C094F081C095F082C096F051
:1026000083C097F084C098F085C099F086C09AF096
:1026100087C09BF0000E9D6F4F0E9C6F000E010156
:10262000926F76D09C07D8A09D07430E9C25D96E4B
:10263000010E9D21DA6E94C060F095C061F096C0E5
:1026400062F097C063F098C064F099C065F09AC0DA
:1026500066F09BC067F00A0E686F000E696F000E8F
:102660006A6F000E6B6F000E6C6F000E6D6F000EC8
:102670006E6F000E6F6F0BEC9DF060C088F061C054
:1026800089F062C08AF063C08BF064C08CF065C0D2
:102690008DF066C08EF067C08FF08851300FDF6E0E
:1026A0009007D8A091079207D8A0930794C060F034
:1026B00095C061F096C062F097C063F098C064F076
:1026C00099C065F09AC066F09BC067F00A0E686F0B
:1026D000000E696F000E6A6F000E6B6F000E6C6F5C
:1026E000000E6D6F000E6E6F000E6F6F61EC9AF052
:1026F00060C094F061C095F062C096F063C097F03E
:1027000064C098F065C099F066C09AF067C09BF00D
:1027100000019C519D11D8B41AD094519511961175
:102720009711981199119A119B11D8A47BD791BF39
:1027300005D0915102E19005D8B074D793BF07D06E
:10274000935103E19205D8A002D02DB26BD77EC081
:1027500073F07FC074F0430E9C25756F010E9D21B0
:10276000766F92C077F093C078F0B3EC9DF073C0B1
:102770007EF074C07FF0120018C189F019C18AF090
:102780001AC18BF01BC18CF079C089F07AC08AF035
:102790007BC08BF07CC08CF0810E7D6FFF0E7E6F56
:1027A00089C07FF08AC080F08BC081F08CC082F03D
:1027B000180E05D0D8908233813380337F33E82ED2
:1027C000F9D77F517D25876F000E7E21886F88BFE6
:1027D0000FD0885104E1170E875DD8A009D079C0C9
:1027E00079F07AC07AF07BC07BF07CC07CF012007C
:1027F00088BF5CD087C07DF0FF0E7E6FFF0E7F6FBD
:102800007F0E806F000E816F7D6701D007D081350C
:10281000813380337F337E337D2FF6D77EC083F0C4
:102820007FC084F080C085F081C086F000018351B4
:1028300089157D6F84518A157E6F85518B157F6F49
:1028400086518C15806F7D517E117F118011D8B417
:10285000C6D789C07DF08AC07EF08BC07FF08CC067
:1028600080F0200E05D0D89080337F337E337D33C7
:10287000E82EF9D77D51D8B408D0835189278451E7
:102880008A2385518B2386518C23831D7D6F841D64
:102890007E6F851D7F6F861D806F7D5189177E51EC
:1028A0008A177F518B1780518C1732D089C07DF0E9
:1028B0008AC07EF08BC07FF08CC080F0200E05D0E7
:1028C000D89080337F337E337D33E82EF9D77D6710
:1028D00008D0000E896F000E8A6F000E8B6F000EFD
:1028E00016D0D89089357D6F8A357E6F8B357F6F96
:1028F0008C35806F7D517E117F118011D8B408D046
:10290000000E896F000E8A6F800E8B6FBF0E8C6F6A
:1029100089C079F08AC07AF08BC07BF08CC07CF0E3
:10292000120064C06CF065C06DF066C06EF067C0E8
:102930006FF06807D8A06907682910E16929D8A451
:102940000DD0000E656F000E646F120000016C4B1D
:102950006D2B6E4B6F2B6807D8A069076000B3F131
:10296000F6FF6000B7F1F7FF000EF86E1F0EF76478
:1029700003D00800F55007D06F00DBFFE1FF6F00C8
:10298000DFFFE2FFE7500009D8B44CD06000BBF194
:10299000F6FF6000BFF1F7FF000EF86E1F0EF76440
:1029A00003D00800F55007D06F00DBFFE1FF6F0098
:1029B000DFFFE2FFE7500009D8B434D000016851CE
:1029C0006911D8B42FD06000BBF1F6FF6000BFF1F1
:1029D000F7FF000EF86E1F0EF76403D00800F550E5
:1029E00007D06F00DBFFE1FF6F00DFFFE2FFE75082
:1029F00000016A6F6000B3F1F6FF6000B7F1F7FF06
:102A0000000EF86E1F0EF76403D00800F55007D0D3
:102A10006F00DBFFE1FF6F00DFFFE2FFE7506A19A5
:102A2000D8B494D76000B3F1F6FF6000B7F1F7FFB8
:102A3000000EF86E1F0EF76403D00800F55007D0A3
:102A40006F00DBFFE1FF6F00DFFFE2FFE7500001F7
:102A50006A6F6000BBF1F6FF6000BFF1F7FF000E88
:102A6000F86E1F0EF76403D00800F55007D06F0012
:102A7000DBFFE1FF6F00DFFFE2FFE75000016B6F5C
:102A80006B516A5D646F656BD8A065071200000E1C
:102A90008B6F8B0E606F616B74ECA5F00009D8B47E
:102AA000120088D020EE82F08451D9268551DA2296
:102AB0007E0EDF640CD020EE82F08451D926855141
:102AC000DA22DF50866F8651896F8A6B0ED020EE36
:102AD00082F08451D9268551DA22DF50866F010EAB
:102AE0008625896F8A6B000E8A2389518425866F1B
:102AF0008A518521876F020E8625D96E000E8721A7
:102B0000DA6E000EDF6E8E0E766FFE0E776F020E9F
:102B1000786F01ECA7F084C078F085C079F008ECFC
:102B200092F0F86F20EE82F08451D9268551DA2296
:102B3000000EDF6E020E8425606F000E8521616F2E
:102B4000000E636F000E626F000E656F800E646F83
:102B5000F0EC95F0120020EE82F08451D9268551D8
:102B6000DA227F0EDF60120020EE82F08451D92637
:102B70008551DA22DF50866F86518425876F000EDB
:102B80008521886F020E8725D96E000E8821DA6EA6
:102B900060002FF2DFFF20EE82F08451D9268551AC
:102BA000DA22DF2A8B0E766F776B010E786F01ECDD
:102BB000A7F0120000018B51866F876B8751000AC6
:102BC000D8A4C9D786510D0AD8B46CD7160AD8B480
:102BD0001200650AD8B41200010AD8B41200BBD79B
:102BE00060C06AF061C06BF064516511D8B4120026
:102BF0006000ABF1D9FF6000AFF1DAFF60008BF14C
:102C0000DFFF64516A25666F65516B21676FFF0EA8
:102C10006625D96EFF0E6721DA6E60008BF1DFFF4B
:102C2000655104E1030E645DD8A0120020EE01F0AE
:102C30006A51D9266B51DA2260008BF1DFFF20EE5A
:102C400002F06A51D9266B51DA2260008BF1DFFF66
:102C500064516A25666F65516B21676FFE0E6625AC
:102C6000D96EFF0E6721DA6E60008BF1DFFF6451D1
:102C70006A25666F65516B21676FFD0E6625D96EFB
:102C8000FF0E6721DA6E60008BF1DFFF655104E112
:102C9000070E645DD8A0120020EE03F06A51D92619
:102CA0006B51DA2260008BF1DFFF64516A25666F99
:102CB00065516B21676FFC0E6625D96EFF0E67218B
:102CC000DA6E60008BF1DFFF655104E1090E645D8F
:102CD000D8A012006AC066F06BC067F0661F671F5D
:102CE000664B672B030E6615686F696B68516A2720
:102CF00069516B236851645F6951655BFC0E641711
:102D0000FF0E65170ED06000ABF1D9FF6000AFF188
:102D1000DAFF60008BF1DFFF6407D8A065076A4B1C
:102D20006B2B64516511D8B41200EDD720EEC0F1C1
:102D300010EE6FF0060E6F006FFFE3FFE806FBE298
:102D40006CC07AF06DC07BF07A517B11D8A403D0AF
:102D50006F0E7A6F7B6B7AC060F07BC061F0F9EC2C
:102D6000A0F060C07EF061C07FF0F6C07CF0F7C0DC
:102D70007DF07DBF0ED07E517C5D7D51800A6E6FEF
:102D80007F51800A6E59D8B004D07CC07EF07DC0DF
:102D90007FF07EC07CF07FC07DF0F4C078F0F5C09D
:102DA00079F02DA00DD016D0000E626F200E616F4D
:102DB0006AC063F06BC064F0B0EC9CF07E4B7F2B7C
:102DC00078517E5D7F51800A6E6F7951800A6E590D
:102DD000D8A0EAD7000E776F000E766F24D060007F
:102DE000EBF1F6FF6000EFF1F7FF000EF86E1F0E3B
:102DF000F76403D00800F55007D06F00DBFFE1FF58
:102E00006F00DFFFE2FFE75000016E6F6E51616FF0
:102E1000626B6AC063F06BC064F0B0EC9CF07A4BFC
:102E20007B2B764B772B7C51765D7751800A6E6FCA
:102E30007D51800A6E59D8A0D2D72DB00DD016D0B2
:102E4000000E626F200E616F6AC063F06BC064F0A9
:102E5000B0EC9CF07E4B7F2B78517E5D7F51800AD9
:102E60006E6F7951800A6E59D8A0EAD77EC06AF099
:102E70007FC06BF01200686F00016851D8A463AF87
:102E80001AD060C064F061C065F062C066F063C0D3
:102E900067F0641F651F661F671F642B000E6523A4
:102EA0006623672364C06AF065C06BF066C06CF08F
:102EB00067C06DF008D060C06AF061C06BF062C09E
:102EC0006CF063C06DF06051611162116311D8A4A0
:102ED00009D0000E606F000E616F000E626F000E71
:102EE000636F1200960E696F06D0692BD8906D3310
:102EF0006C336B336A33000E6A15646F000E6B150A
:102F0000656F000E6C15666FFE0E6D15676F645170
:102F1000651166116711D8B40DD0E7D7692B010E82
:102F20006A27000E6B236C236D23D8906D336C33AE
:102F30006B336A33000E6A15646F000E6B15656F94
:102F4000000E6C15666FFF0E6D15676F645165118D
:102F500066116711D8B407D0E1D76907D8906A37EE
:102F60006B376C376D376CBF03D0020E6961F5D7D4
:102F700069A16C9FD890693369C064F0656B666B1A
:102F8000676B64C067F0666B656B646B64516A1352
:102F900065516B1366516C1367516D136851D8A45A
:102FA00063AF01D06D8F6AC060F06BC061F06CC020
:102FB00062F06DC063F01200000E6F6F000E6E6F56
:102FC000000E6D6F000E6C6F02D0664B672B6000B9
:102FD0009BF1F6FF60009FF1F7FF000EF86E08000E
:102FE000F550200AD8B4F1D7F70E686FFF0E696F5D
:102FF00060009BF1F6FF60009FF1F7FF000EF86E96
:103000000800F5506A6F6B6B68516A2769516B2332
:103010006B510CE1050E6A5DD8B008D0D6D7000E12
:103020006D6F010E6C6F664B672B36D060009BF1A5
:10303000F6FF60009FF1F7FF000EF86E0800F550F4
:10304000686F696B6951000AD8A426D068512B0AB1
:10305000D8B4E9D7060AD8B4E2D71ED06EC060F063
:103060006FC061F0000E636F0A0E626F25ECA5F071
:1030700060009BF1F6FF60009FF1F7FF000EF86E15
:103080000800F550605F000E615B300E60256E6FCA
:10309000000E61216F6FC7D7D00E686FFF0E696F8A
:1030A00060009BF1F6FF60009FF1F7FF000EF86EE5
:1030B0000800F5506A6F6B6B68516A2769516B2382
:1030C0006B5104E10A0E6A5DD8A0C8D76C516D112E
:1030D000D8A40DD06EC068F06FC069F0681F691F7A
:1030E000684B692B68C066F069C067F012006EC05B
:1030F00066F06FC067F012002C0EF66E170EF76EBA
:10310000010EF86E05EE43F111EE00F009006F00BC
:10311000D7FFEEFFE550E150F9E1E250F7E14A0E4A
:10312000F66E400EF76E010EF86E00EE80F210EEB5
:103130005AF009006F00D7FFEEFFE550E150F9E1CA
:10314000DE0EF66E4E0EF76E010EF86E00EEC0F15A
:1031500010EE0BF009006F00D7FFEEFFE550E150D5
:10316000F9E1200EF66E4F0EF76E010EF86E0900B3
:103170006F00D4FFFDF009006F00D4FFFEF01E0EBB
:10318000F66E4F0EF76E010EF86E09006F00D4FF59
:103190003FF009006F00D4FF40F001EE83F113EE21
:1031A000C0F3EE6AE550E150FCE1E250FAE101EED5
:1031B00000F1830EEE6AE806FDE101EE00F010EE8C
:1031C000FFF0EE6AE550E150FCE1E250FAE100EE7A
:1031D00000F3830EEE6AE806FDE100EE00F2800ED9
:1031E000EE6AE806FDE100EE00F19D0EEE6AE806EB
:1031F000FDE100EEF4F0090EEE6AE806FDE100EEF6
:1032000021F01E0EEE6AE806FDE1080ED56E000EF6
:10321000D66E000ED76E000152EF88F039019397F9
:10322000C40E0001606F3A0E616F010E626F1DECFB
:10323000A7F0390193991C0E0001606F4A0E616F6F
:10324000010E626F16ECA7F03901939BF40E00019A
:10325000606F4E0E616F010E626F2BECA7F03901AB
:10326000939D140E0001606F4F0E616F010E626F2F
:103270000FECA7F0000E3D01EC6F000EED6F000E9D
:10328000EE6F000EEF6F000EF06F000EF16FB00EDC
:10329000F26F900EF36F000EF46F8A0EF56F000E52
:1032A000F66F000EF76F000EF86F000EF96F000E4C
:1032B000FA6F240E0001606F4F0E616F010E626F96
:1032C00032ECA7F0220E606F4F0E616F010E626F3D
:1032D00024ECA7F00E0E606F4F0E616F010E626F4F
:1032E00039ECA7F0000E386E000E3E6E000E3D6EFB
:1032F000400E3C6E000E3B6E000E3A6E000E396EB4
:1033000039019387938B938D1200D6ECA6F033503E
:10331000020D6F00CCFF05F06F00D0FF06F03750B4
:103320007E0D830E076E050E086EF3500726F450CF
:10333000082205500724D96E06500820DA6E600076
:1033400007F0DEFF60000BF0DDFFD6ECA6F0335097
:10335000020D6F00CCFF05F06F00D0FF06F0365075
:103360007E0D830E076E050E086EF3500726F4508F
:10337000082205500724D96E06500820DA6E600036
:1033800007F0DEFF60000BF0DDFF14D0010E05D06A
:103390003D0E03D0280E01D0290E336E23D0000E2F
:1033A000336E3504D8A4362A1F0E36641BD0000EA7
:1033B000366E18D03350056E066A0650000AD8A43F
:1033C000EED70550000AD8B4E1D7010AD8B4E0D747
:1033D000290AD8B4E1D7010AD8B4E1D7140AD8B47D
:1033E000D9D7DDD76000CFF0F1FE010E0001FB6FF1
:1033F0001200000E87158F6F000E8815906F800EDB
:103400008915916F7F0E8A15926F8F5190119111CE
:103410009211D8A408D0000E876F000E886F000E9E
:10342000896F000E8A6F000E8B158F6F000E8C1542
:10343000906F800E8D15916F7F0E8E15926F8F514C
:10344000901191119211D8A408D0000E8B6F000E2C
:103450008C6F000E8D6F000E8E6F8AAF09D0876D56
:10346000881FD8B0882B891FD8B0892B800E8A5727
:103470008EAF09D08B6D8C1FD8B08C2B8D1FD8B020
:103480008D2B800E8E57000E871B000E881B000EA2
:10349000891B800E8A1B000E8B1B000E8C1B000EDE
:1034A0008D1B800E8E1B8B51875D8C5188598D51E1
:1034B00089598E518A59D8B002D0D8901200D8803C
:1034C000120020EE70F0070EDE6AE806FDE2685199
:1034D00069116A116B116C116D116E116F11D8B4F5
:1034E00046D0010E786F0AD0D890683769376A37AE
:1034F0006B376C376D376E376F37782B6FAFF4D70C
:10350000D8907037713772377337743775377637AD
:1035100077376851605D695161596A5162596B51E1
:1035200063596C5164596D5165596E5166596F51AB
:103530006759D8A011D06851605F6951615B6A51C9
:10354000625B6B51635B6C51645B6D51655B6E518B
:10355000665B6F51675B7081D8906F336E336D33EC
:103560006C336B336A3369336833782FC9D770C0D3
:1035700060F071C061F072C062F073C063F074C03B
:1035800064F075C065F076C066F077C067F0120031
:10359000000EBE6E110EBD6E200EBA6E000EBF6E16
:1035A000000EBB6E070EBC6E020EC66E0B0EC76E13
:1035B000DF0EC26EC368900EC46E080EC56E080E94
:1035C0003A01706F000E606FFE0E506F020E806F3A
:1035D0000B0E906F8F0E406F000E716F000E916F8B
:1035E000000E816F010E516F500E416F000E616F22
:1035F000000E5A6F000E5B6F000E6A6F000E6B6F4D
:10360000000E7A6F000E7B6F000E826F000E926FBD
:10361000000E426F000E526F000E626F000E726F4E
:103620004369536963697369070E836F93694469DA
:103630005469646974690F0E846F94690E0E1A6F71
:10364000130EDE6F1E0E136F1F0E156F130E166F07
:10365000170EE56F0D0E2A6F140EDF6F12001CC1DE
:103660006AF01DC16BF01EC16CF01FC16DF060C02F
:103670006AF061C06BF062C06CF063C06DF06AC04C
:1036800064F06BC065F06CC066F06DC067F0180E3A
:1036900005D0D8906733663365336433E82EF9D7A5
:1036A0006451686F696B68516911D8A419D0D890BA
:1036B0006A35646F6B35656F6C35666F6D35676F36
:1036C0006451651166116711D8A405D0000E616FB1
:1036D000020E606F1200000E616F030E606F120029
:1036E00068296911D8A41CD06AC064F06BC065F069
:1036F0006CC066F06DC067F0090ED890643765370E
:1037000066376737E82EF9D764516511661167117E
:10371000D8A402D0010E01D0000E606F616B1200C0
:10372000000E616F040E606F1200400E0101066F03
:10373000030E076F06C16CF007C16DF000ECA6F038
:103740003D01149F200E156F030E166F040E196FA6
:10375000020E1C6F830E146F148F300E0001606F09
:10376000570E616F050E626F000E636FE2ECA1F001
:10377000460E35ECA3F0410E54ECA3F0500E606FF2
:10378000000E616F000E626F000E636FE2ECA1F03D
:10379000530E54ECA3F0020E62ECA5F0500E606FD5
:1037A000000E616F000E626F000E636FE2ECA1F01D
:1037B000510E35ECA3F03D01149F020E166F148FCD
:1037C0001A933F0E3B01FD17FD9BFD51F90B0209BA
:1037D000FD6FE70EFD17FD81400EF96F030EFA6FC6
:1037E000000EFB6FFC9B3D011A83120062356335AE
:1037F000696F6951D8A409D0000E606F000E616F27
:10380000000E626F000E636F120060C064F061C052
:1038100065F062C066F063C067F0200E05D0D890F6
:103820006733663365336433E82EF9D76451686FC4
:10383000628FFF0E6017FF0E6117FF0E6217000EFA
:103840006317960E695F69AF0DD06951800A970FB3
:10385000D8A0D2D7D8906333623361336033693FE5
:10386000F9D70DD01F0E696507D0C6D7D89060373D
:1038700061376237633769076951D8A4F7D7685150
:10388000D8B408D0631F621F611F606D000E6123F2
:103890006223632360C060F061C061F062C062F0C7
:1038A00063C063F01200206E2DD0BD98BD9A120047
:1038B000BD98BD8A1200BD88BD9A1200BD9CBD9EF8
:1038C0001200BD9CBD8E1200BD8CBD9E1200BF9823
:1038D000BF9A1200BF98BF8A1200BF88BF9A120019
:1038E000BF9CBF9E1200BF9CBF8E1200BF8CBF9EAC
:1038F0001200BD98BD9ABD9CBD9EBF98BF9ABF9C4B
:10390000BF9E120020500001606F616B6151000A80
:10391000D8A4EFD76051000AD8B4C7D7010AD8B4E9
:10392000CAD7030AD8B4C4D7010AD8B4C7D7070A7C
:10393000D8B4CAD7010AD8B4C4D7030AD8B4C7D7F1
:10394000010AD8B4CAD70F0AD8B4C4D7010AD8B468
:10395000C7D7030AD8B4CAD7010AD8B4C4D7C9D7BD
:1039600063516411D8B404D063516411D8A404D055
:10397000615163ECA7F04AD020EE09F06351D926DB
:103980006451DA22DE50DE10D8B416D020EE09F0F1
:103990006351D9266451DA2210EE03F06351E12617
:1039A0006451E222DE50E65CE650800A696FDE5028
:1039B000800A6959D8B02AD020EE03F06351D92685
:1039C0006451DA226F0078FF65F06F0074FF66F0D3
:1039D00060008FF1D9FF600093F1DAFF6F0078FF8C
:1039E00067F06F0074FF68F065516725D96E665106
:1039F0006821DA6E600087F1DFFF20EE03F063518B
:103A0000D9266451DA22DE2A000EDD2261C061F07F
:103A10000001626B1200685169116A116B116C111F
:103A20006D116E116F11D8B43CD0010E206E0AD00A
:103A3000D890683769376A376B376C376D376E37B0
:103A40006F37202A6FAFF4D76851605D69516159B3
:103A50006A5162596B5163596C5164596D51655982
:103A60006E5166596F516759D8A010D06851605F88
:103A70006951615B6A51625B6B51635B6C51645B62
:103A80006D51655B6E51665B6F51675BD8906F33AC
:103A90006E336D336C336B336A3369336833202E86
:103AA000D3D760C060F061C061F062C062F063C0F3
:103AB00063F064C064F065C065F066C066F067C01E
:103AC00067F01200000E3B24D96EDA6A020EDA2289
:103AD000000EDF6E3D01F9A715D0000E3B24D96E14
:103AE000DA6A020EDA220201DF8201D80BD0050069
:103AF000FA6E01013251FD6E3351FE6E3451FF6E8C
:103B0000FA5012003D01F9A315D0000E3B24D96EE6
:103B1000DA6A020EDA220201DF8401D80BD0050036
:103B2000FA6E01012F51FD6E3051FE6E3151FF6E64
:103B3000FA501200000E3B24D96EDA6A020EDA2225
:103B4000DF50D8B40DD001D812000500FA6E010183
:103B50002C51FD6E2D51FE6E2E51FF6EFA5012004B
:103B6000EFECA5F012002DA00AD075C06AF076C067
:103B70006BF073C06CF074C06DF02EEC9FF078BFEA
:103B800005D077C07CF078C07DF004D0000E7D6F4A
:103B9000000E7C6F000E7B6F000E7A6F0CD0000E53
:103BA000626F200E616F73C063F074C064F0B0EC9C
:103BB0009CF07A4B7B2B7C517A5D7B51800A796F2C
:103BC0007D51800A7959D8A0EAD72DB00AD075C0A6
:103BD0006AF076C06BF073C06CF074C06DF02EECC0
:103BE0009FF075C060F076C061F0F9ECA0F07C51F8
:103BF0006025736F7D516121746F1200000E601596
:103C0000686F000E6115696F800E62156A6F7F0E16
:103C100063156B6F685169116A116B11D8A408D0D4
:103C2000000E606F000E616F000E626F000E636F1A
:103C3000000E6415686F000E6515696F800E6615BD
:103C40006A6F7F0E67156B6F685169116A116B118E
:103C5000D8A408D0000E646F000E656F000E666F6A
:103C6000000E676F645160190AE16551611907E13F
:103C70006651621904E167516319D8B402D0D89033
:103C80001200D8801200000E656F63AF06D0626D1F
:103C9000631FD8B0632B010E656F61AF06D0606DF6
:103CA000611FD8B0612B010E651B000E676F000EFF
:103CB000666F62516311D8B41CD0010E646F04D0DA
:103CC000D89062376337642B63AFFAD7D8906637E2
:103CD00067376251605D63516159D8A005D0625168
:103CE000605F6351615B6681D89063336233642F98
:103CF000EDD76551D8B404D0666D671FD8B0672B77
:103D000066C060F067C061F01200000E3E01DE6F19
:103D1000000EDF6F000EE06F000EE16F000EE46F2B
:103D2000000EE56F000EEA6F000EEC6F000EF16FF3
:103D3000100EF36F000EF46F000EF56F000EF66FAD
:103D4000000EF76F000EF96F000EFA6F200EFB6F7A
:103D5000000EFC6F020EFD6F070EFE6F1F0EFF6F51
:103D6000840EF86F3901A1959185260E0001606FD0
:103D70004F0E616F010E626F5CECA7F01200000E37
:103D8000656F61AF06D0606D611FD8B0612B010E09
:103D9000656F63AF04D0626D631FD8B0632B62514F
:103DA0006311D8B418D0010E646F04D0D890623774
:103DB0006337642B63AFFAD76251605D6351615919
:103DC000D8A004D06251605F6351615BD8906333C7
:103DD0006233642FF1D76551D8B404D0606D611F90
:103DE000D8B0612B60C060F061C061F0120070C09B
:103DF00060F071C061F0F9ECA0F06051726F7EEC80
:103E0000A7F006C16CF007C16DF0000E00016E6FE7
:103E1000A6ECA0F0BC94400E72650AD020EE40F0F3
:103E20007051D9267151DA22000EDF6E400E726F8A
:103E30003B01FC9F6000CBF1F7FBF86BFC8F06C1E8
:103E40006BF007C16CF070C06DF071C06EF072C0A5
:103E50006FF052ECA0F081ECA7F01200000E726F30
:103E6000000E716F0BD070C061F0626B6CC063F0BC
:103E70006DC064F0B0EC9CF0714B722B71516A25EF
:103E80006E6F72516B216F6F6000BBF1F6FF6000C7
:103E9000BFF1F7FF000EF86E1F0EF76403D00800A5
:103EA000F55007D06F00DBFFE1FF6F00DFFFE2FF9F
:103EB000E7500001706F7051D8A4D5D771C06AF077
:103EC00072C06BF01200786F09D0400E05D0140E4E
:103ED00003D0540E01D0000E796F16D00001785136
:103EE000766F776B7751000AD8A4F5D77651000A20
:103EF000D8B4F1D7010AD8B4E8D7030AD8B4E7D7C1
:103F0000010AD8B4E6D7E7D7450E20ECA6F00001A9
:103F100079517325F5ECA2F0FAECA6F074C070F0BC
:103F200075C071F0F7EC9EF0120062C066F063C0DD
:103F300067F060C068F061C069F000016651646FAD
:103F40006751656F664B672B600093F1F6FF600069
:103F500097F1F7FF000EF86E6000A3F1D9FF600043
:103F6000A7F1DAFF684B692B1F0EF76403D0080036
:103F7000F55007D06F00DBFFE1FF6F00DFFFE2FFCE
:103F8000E750DF6EDF50D8B41200D7D7930E3B0155
:103F9000F96F010EFA6F000EFB6F3D0EF16F110EFF
:103FA000F06F030EFD6F000EF86F010EF76F000E3D
:103FB000EF6F010EEE6F150EFF6F000EFE6F3901F1
:103FC000A293A291A297A29592939281300E0001A2
:103FD000606F4F0E616F010E626F55ECA7F03901F3
:103FE00092979295C00E3B01FC6F12009FC1F0F0BA
:103FF000A0C1F1F0000E426F000E416F14D09DC1C0
:10400000D1F09EC1D2F0F00E0001D36FA1C1D4F067
:10401000A2C1D5F0DCEC84F0D151010141270001AF
:10402000D251010142236000C3F3F6FF6000C7F3E1
:10403000F7FF000EF86E0800F5500009D8A4DFD78E
:1040400041C19DF142C19EF11200F6FF5E4C01F9A3
:10405000FFEE4C01F0FFD44D01F3FFC24D01FCFF18
:10406000964D01EAFF804D01EDFF6A4D01E4FF9A94
:104070004B01E7FF784B0100000000009775CF3E31
:104080006F12833B295C4F3F6F12833B9775CF3E86
:104090006F12833B9775CF3E6F12833B9775CF3E70
:1040A0006F12833B000120EE42F06B51D9266C5118
:1040B000DA22400EDF6012006BC060F06CC061F06D
:1040C0006DC062F06EC063F06FC064F0656B48EC69
:1040D000A1F020EE40F06B51D9266C51DA2260003D
:1040E000BFF1DFFF20EE42F06B51D9266C51DA228E
:1040F0006000BFF1DFFF1200000120EE42F06051CE
:10410000D9266151DA22400EDF60120020EE40F025
:104110006051D9266151DA22DF50206E205060258F
:10412000D96E000E6121DA6E60008BF1DFFF20EEA8
:1041300040F06051D9266151DA22DF2A20EE42F0A8
:104140006051D9266151DA22DF2A120020EE42F0B6
:104150006C51D9266D51DA22000EDF6E20EE40F050
:104160006C51D9266D51DA22000EDF6E20EE41F03F
:104170006C51D9266D51DA22000EDF6E6E51D8B423
:1041800012006CC060F06DC061F0000E636F000E35
:10419000626F000E656F400E646FF0EC95F01200D8
:1041A000000E116E000E106ED8901034D96E1134BE
:1041B000DA6E0C0ED926010EDA22DE50DE10D8B4EB
:1041C0000CD0D8901034D96E1134DA6E0C0ED9267A
:1041D000010EDA22DE06000EDD5A104A112A11BE47
:1041E000E3D7115005E1060E105CD8B01200DCD701
:1041F000120060C062F061C063F003D00001604B48
:10420000612B600083F1F6FF600087F1F7FF000E7D
:10421000F86E1F0EF76403D00800F55007D06F004A
:10422000DBFFE1FF6F00DFFFE2FFE7500009D8A4EA
:10423000E5D700016251605D606F63516159616F44
:104240001200A70EAF6F010EB06FA3C1B1F1A4C1F0
:10425000B2F1000EB56F000EB46F000EBB6F000E12
:10426000BA6FB10E9D6F010E9E6FA5C19FF1A6C1E1
:10427000A0F1AF0EA16F010EA26FF6EC9FF0B4514A
:10428000A325D96EB551A421DA6E000EDF6E12009F
:1042900062C069F063C06AF060C067F061C068F036
:1042A00015D06000A7F1D9FF6000ABF1DAFFDF5055
:1042B000666F694B6A2B60009FF1D9FF6000A3F124
:1042C000DAFF60009BF1DFFF674B682B6407D8A023
:1042D00065076429E6E16529D8B41200E2D7000E2B
:1042E0009B6E000E9C6E020E9D6E830E996E000EEC
:1042F000986E3901A89D98506F0064FE63F000012C
:10430000646B63C064F0636B63112F6E6451306E35
:104310003901988D2E0E0001606F4F0E616F010EF6
:10432000626F47ECA7F0010E9A6E12006F00E8FF73
:1043300012F06F00ECFF13F03901A89D2FC00EF0B2
:1043400030C00FF0AAECA5F00101385139113A1133
:10435000D8B40CD001D80AD00500FA6E3851FD6EE1
:104360003951FE6E3A51FF6EFA50120060004FF064
:10437000FBFF60004BF0FAFF1100D28A000ED2BEA4
:10438000010E206ED29E550ED46EAA0ED46ED4901D
:10439000000ED76E000ED66E080ED56E550ED46E7A
:1043A000AA0ED46ED48020B002D0D29E01D0D28E7C
:1043B00039018281838D8399838B83978981888D4D
:1043C00081851200000E0101206F000E216F000E8A
:1043D000226F000E236F00F00400010E0101202760
:1043E000000E21232223232320510001605D0101BF
:1043F000215100016159010122510001625901015D
:10440000235100016359D8A01200E5D76F0060FF67
:104410001AF06F00E8FF1BF06F00ECFF1CF0275054
:1044200028102910D8B40CD001D80AD00500FA6E93
:104430002750FD6E2850FE6E2950FF6EFA50120074
:10444000600073F0FBFF60006FF0FAFF60006BF03C
:10445000D8FF11006F0060FF1DF06F00E8FF1EF035
:104460006F00ECFF1FF02A502B102C10D8B40CD08A
:1044700001D80AD00500FA6E2A50FD6E2B50FE6E50
:104480002C50FF6EFA50120060007FF0FBFF6000BE
:104490007BF0FAFF600077F0D8FF1100000E8B1B55
:1044A000000E8C1B000E8D1B800E8E1B87C060F0D3
:1044B00088C061F089C062F08AC063F08BC064F08C
:1044C0008CC065F08DC066F08EC067F03EEC8FF05A
:1044D00060C087F061C088F062C089F063C08AF074
:1044E000120076C060F077C061F0000E636F000EBE
:1044F000626F000E656F830E646FF0EC95F06000E4
:10450000DBF1D9FF6000DFF1DAFF6000E3F1DEFFED
:104510006000E7F1DDFFFC0E736FFD0E746F29EC98
:10452000A4F012006F00E8FF09F06F00ECFF0AF042
:104530003901A19501013E513F114011D8B40CD071
:1045400001D80AD00500FA6E3E51FD6E3F51FE6E55
:104550004051FF6EFA50120060002BF0FBFF60002C
:0645600027F0FAFF110034
:104568006F00E8FF14F06F00ECFF15F03901A2911D
:104578000101355136113711D8B40CD001D80AD001
:104588000500FA6E3551FD6E3651FE6E3751FF6EDD
:10459800FA501200600057F0FBFF600053F0FAFF7A
:1045A8001100010E206E200E000160196111D8B4AF
:1045B80014D0F70E626FFF0E636F60C064F061C0C5
:1045C80065F06251642763516523655104E1050E66
:1045D800645DD8A002D0000E206E20C060F0616B30
:1045E800120000016F6F7EECA7F006C16CF007C1E6
:1045F8006DF0000E00016E6FA6ECA0F0BC943B01BC
:10460800FC9F000EF86F010EF76FFC8F06C160F07B
:1046180007C161F06FC062F07CECA0F081ECA7F0FC
:104628001200000ED2BE010E206E6151030B39013B
:10463800E16F600083F1E0F960008BF1E3F93F0E70
:10464800E517E585D29E550EE66FAA0EE66FE5835F
:10465800E5B3FED7E59520B002D0D29E01D0D28E28
:104668001200646FBC94FE0E6AECA6F0080E0001FE
:10467800606F000E616F000E626F000E636FE2ECF8
:10468800A1F064516AECA6F0200E0001606F030EE1
:10469800616F000E626F000E636FE2ECA1F0120012
:1046A800646FBC94FE0E6AECA6F0080E0001606F01
:1046B800000E616F000E626F000E636FE2ECA1F0F6
:1046C80064516AECA6F0080E0001606F000E616F7D
:1046D800000E626F000E636FE2ECA1F01200395019
:1046E800D8B4FDD7000E3A24D96EDA6A020EDA225F
:1046F800DF50386E000E3A24D96EDA6A030EDA22D9
:10470800DF50206E3A2A3F0E3A6402D0000E3A6E0D
:10471800390193973906938720501200BDECA1F018
:10472800DEECA5F0C8EC9AF05CECA6F085EC9EF007
:10473800C6EC9FF03EECA6F09DECA6F0DFECA4F0F2
:1047480069ECA7F06FECA1F0A9ECA6F00EEC99F0DB
:1047580084ECA6F04EECA7F01200206E3C50D8B4C2
:10476800FDD7390193B904D0600083F0EAFD11D078
:104778009399400E3E24D96EDA6A020EDA2260005E
:1047880083F0DFFF3E2A3F0E3E6402D0000E3E6EED
:064798003C0693891200AB
:1047A0006F00E8FF16F06F00ECFF17F024502510A3
:1047B0002610D8B40CD001D80AD00500FA6E2450C7
:1047C000FD6E2550FE6E2650FF6EFA5012006000FE
:1047D0005FF0FBFF60005BF0FAFF11006F00E8FF85
:1047E00018F06F00ECFF19F0215022102310D8B4FC
:1047F0000CD001D80AD00500FA6E2150FD6E22506F
:10480000FE6E2350FF6EFA501200600067F0FBFF4F
:10481000600063F0FAFF1100BF0E686FFF0E696F52
:1048200066C06AF067C06BF068516A2769516B23F4
:104830006B510AE11A0E6A5DD8B006D0200E6611DF
:10484000666F6751676F120066C066F067C067F0F9
:104850001200010E756F73C06AF074C06BF0000E29
:104860006C6F000E6D6F2EEC9FF06BBF1200000E90
:10487000626F0A0E616F000E636F000E646FB0EC22
:104880009CF062BF1200000E756F12006F00E8FF0F
:104890000CF06F00ECFF0DF03901A991314A322A7A
:1048A000325004E1170E315CD8A006D098ECA5F088
:1048B000000E326E000E316E600037F0FBFF6000BC
:1048C00033F0FAFF1100BF0E0001626FFF0E636F3D
:1048D00060C064F061C065F0625164276351652374
:1048E000655106E11A0E645DD8B002D0010E01D008
:1048F000000E606F616B1200D00E0001626FFF0E40
:10490000636F60C064F061C065F0625164276351F9
:104910006523655106E10A0E645DD8B002D0010E30
:1049200001D0000E606F616B120060C062F061C068
:1049300063F0D89063336233D8906333623362514B
:10494000696E60C062F0030E6217060E636FD89046
:104950006237632FFCD76251686E120060C062F04C
:1049600061C063F0D89063336233D89063336233AD
:1049700062516D6E60C062F0030E6217060E636FC7
:10498000D8906237632FFCD762516C6E1200206E94
:1049900060C062F061C063F0D89000016237633795
:1049A0002050020D0C0EF324D96E010EF420DA6EA5
:1049B00060008BF1DEFF60008FF1DDFF1200010E61
:1049C000966E200E956E000E976E4D0E936E000E35
:1049D000926E3901A9919981280E0001606F4F0EE6
:1049E000616F010E626F40ECA7F094681200605195
:1049F000611162116311D8B408D0000E601B000E63
:104A0000611B000E621B800E631B60C060F061C002
:104A100061F062C062F063C063F01200400E3C605F
:104A200011D0400E3D24D96EDA6A020EDA22DF5030
:104A30003D01EA6F3D2A3F0E3D6402D0000E3D6EFF
:104A40003C2A1200390193991200605162036F00F1
:104A5000CCFF64F06F00D0FF65F060516303F3504A
:104A6000652761516203F350652764C060F065C03B
:104A700061F01200A50E0001F26F010EF36F000E3F
:104A800001019D6F000E9E6FA3C19FF1A4C1A0F113
:104A9000F20EA16FA26BF6EC9FF0120064C060F002
:104AA00065C061F0000EC7ECA4F005D000F000F086
:104AB00000F000F00400000E86ECA5F00009D8A478
:104AC0001200F4D7646FBC94000164516AECA6F044
:104AD000080E0001606F000E616F000E626F000E25
:104AE000636FE2ECA1F0120008ECA7F00009D8B463
:104AF0000BD073ECA3F0600083F1D9FF600087F165
:104B0000DAFFDF6E010E1200000E1200206E0400AC
:104B10002050020D0C0EF324D96E010EF420DA6E33
:104B2000DE50DE10D8A402D0010E1200000E1200DA
:104B300001013B513C113D11D8B4120001D81200C3
:104B40000500FA6E3B51FD6E3C51FE6E3D51FF6E0D
:104B5000FA5012009AA409D09A9060003FF099FF91
:104B600060003BF098FF9A80120060003FF099FFD0
:104B700060003BF098FF1200910E736FFE0E746F91
:104B800029ECA4F0010E346E000E616F100E606F00
:104B900034C062F015ECA3F01200B00E736FFE0E7D
:104BA000746F29ECA4F0000E346E000E616F100ECD
:104BB000606F34C062F015ECA3F01200000EC06FFD
:104BC000000EC16F000EC26F000EC36F000EC46FE7
:104BD000000EC56F000EC66F000EC76F1200000EEC
:104BE0003B24D96EDA6A030EDA226F00A3F7DFFFE7
:104BF0003B2A3F0E3B6402D0000E3B6E392A120066
:104C00006CC060F06DC061F0000E0001636F000EBB
:104C1000626F000E656F430E646FF0EC95F012004A
:104C2000BEA002D0010E01D0000EFF0A0B6EBE50D6
:104C30000B18FE0B0B18BE6E010E0001FC6F12006C
:104C4000706FFAECA6F0FE0EF5ECA2F0FAECA6F00E
:104C500000017051F5ECA2F0FAECA6F0120076C05B
:104C600073F077C074F029ECA4F06C0E736FFF0E34
:104C7000746F29ECA4F0010E356E1200010EAE6EB9
:104C8000000EAD6E000EAF6E9F0EAB6E000EAA6EE4
:104C90003901A495800EAC6E12006151030B3901ED
:104CA000E16F600083F1E0F93F0EE517E58100F068
:104CB00000F03901E3511200200E3901D96F000EC6
:104CC000DB6F000EDD6F050EDF6F000EDE6FDCB1F7
:104CD0001200FDD7206E010E3D01126F600083F0BF
:104CE00011FD3901A2A9FDD73D0110511200CD0ED1
:104CF000736FFE0E746F29ECA4F0130EFE6F140E8A
:104D0000FD6F020E356E1200020E3D01146F400E53
:104D1000156F000E166F000E1C6F500E196FC496A3
:104D20001200000E0001766F050E776F800E786F0F
:104D3000020E796F71ECA2F01200800E6A6E4F0EB7
:104D4000696EC00E686E3F015F51F30B04095F6F1F
:104D50001200800E6E6E4F0E6D6EC00E6C6E3F01B7
:104D60005F51FC0B01095F6F12007E0E736FFF0E27
:104D7000746F29ECA4F0020EFE6F030EFD6F12009B
:104D8000470E736FFF0E746F29ECA4F0070EFE6FD1
:104D9000080EFD6F1200900E736FFF0E746F29ECFA
:104DA000A4F01F0EFE6F1F0EFD6F12003E01F051AA
:104DB000046E036AEF510324016E000E0420026E9C
:104DC0001200310E736FFF0E746F29ECA4F0020E07
:104DD000356E12005A0E736FFF0E746F29ECA4F03B
:104DE000000E356E12000001716F0001715120EC50
:104DF000A6F01200010100B7FDD73D0117BB12005C
:104E0000FCD776C073F077C074F029ECA4F01200E0
:104E10003950D8B402D0010E1200000E120060C04A
:104E200021F061C022F062C023F0120060C027F0C0
:104E300061C028F062C029F0120060C02AF061C091
:104E40002BF062C02CF0120060C02FF161C030F175
:104E500062C031F1120060C024F061C025F062C070
:104E600026F0120060C032F161C033F162C034F14B
:104E7000120060C02CF161C02DF162C02EF1120051
:104E800060C03BF161C03CF162C03DF1120060C006
:104E900038F161C039F162C03AF11200550E3901A2
:104EA000EF6FAA0EEF6FEF81120060C035F161C0A5
:104EB00036F162C037F1120060C03EF161C03FF1CF
:104EC00062C040F11200606F00016051B1ECA3F0CC
:104ED0001200A40E3E019E6F1F0E9C6F1200286EE2
:094EE000756C6C2900BEFFB2FFE5
:104EEA00206E600083F09CFE1200000E3D01F96FF7
:104EFA0012000101008712003B01FC8D12003E01E5
:104F0A009C511200EFECA5F012003D01F89F12002F
:104F1A0000971200B20214131200120012001200BB
:064F2C001100120012004A
:020000040020DA
:10000000FF0FFF0FFF0FFF0FFF0FFF0FFF0FFF0F80
:020000040030CA
:0A000000AFFFFFFF9FFFFFDFFFFFD0
:00000001FF
