:0400000057EF00F0C6
:1000080068176817681768176817681768176817F0
:1000180068176817E015681768176817681768176A
:1000280068176817681768176817681768176817D0
:100038006817681768172016101668176817681762
:1000480068176817681768172B0068176817681704
:1000580068176817681768176817681768176817A0
:100068006817681768176817681768176817681790
:10007800681768172B006817681768172B002B007C
:100088002B002B002B002B002B002B00851568174D
:100098006A166817681768172B002B002B002B00AF
:0A00A80068176817FF0059EF28F0F1
:102000000002400008000D0A20436F6D6D616E6490
:102010002070726F636573736F722056302E310DAE
:102020000A002050532054657374202531753A20DE
:10203000444143204F55543D2532752C2053757033
:10204000706C7920526561644261636B2025347540
:1020500020563D252B352E316656202534752049D6
:102060003D252B332E31666D410D0A000D0A20529D
:10207000616D7020746F2031303030564443204FF2
:102080004E200D0A000D0A205374656164792031D9
:10209000303030564443204F4E200D0A000D0A20A8
:1020A0005073205465737465722025732025730D59
:1020B0000A000D0A20566F6C74616765204F464612
:1020C000200D0A004D61722020392032303232005A
:1020D00031313A35353A303900494E46004E414E9D
:1020E00000696E66006E616E006C6C73006C660059
:1020F000706F0070720070730000000E926F000E1F
:10210000916F73C0A1F074C0A2F075C0A3F076C047
:10211000A4F0A4AF16D0000E926F010E916FA1C073
:1021200015F0A2C016F0A3C017F0A4C018F021EC5F
:102130002DF015C0A1F016C0A2F017C0A3F018C072
:10214000A4F0000EAA6F000EA96FF7C096F0F8C0B9
:1021500097F091519211D8A402D03DA413D091517F
:102160009211D8A404D0000E7E6F2B0E03D0000E67
:102170007E6F2D0E7D6F7DC098F1A94BAA2B96071F
:10218000D8A09707A1C015F0A2C016F0A3C017F001
:10219000A4C018F07AEC25F015041610D8A447D086
:1021A000BF0E0001786FFF0E796F77517A6F7B6BEE
:1021B00078517A2779517B237B5113E11A0E7A5D8E
:1021C000D8B00FD0980EA925156E010EAA21166E53
:1021D000D90E176E1750D8A4200E186E60EC2AF096
:1021E0000ED0980EA925156E010EAA21166EE10ECD
:1021F000176E1750D8A4200E186E60EC2AF000015C
:10220000FD0E9627FF0E972371C029F072C02AF0A9
:10221000980E2B6E010E2C6E96C02DF097C02EF0EE
:10222000A7EC28F029C071F02AC072F01200A1C0FA
:1022300015F0A2C016F0A3C017F0A4C018F07AECF5
:1022400025F015501610D8A430D0BF0E0001786FBD
:10225000FF0E796F77517A6F7B6B78517A277951BE
:102260007B237B5113E11A0E7A5DD8B00FD0980E04
:10227000A925156E010EAA21166EDD0E176E1750D8
:10228000D8A4200E186E60EC2AF0B9D7980EA925B4
:10229000156E010EAA21166EE50E176E1750D8A402
:1022A000200E186E60EC2AF0AAD7000E0001AB6F6A
:1022B000000EAC6F800EAD6F3F0EAE6F000EA86FBC
:1022C000000EA76FA1C015F0A2C016F0A3C017F0B2
:1022D000A4C018F0000E196E000E1A6E000E1B6ED0
:1022E000000E1C6EF2EC28F0D8A01DD074D0ABC04C
:1022F00023F0ACC024F0ADC025F0AEC026F0000E37
:10230000276E000E286E200E296E410E2A6E9FEC5D
:1023100018F023C0ABF024C0ACF025C0ADF026C04F
:10232000AEF0A74BA82BA1C02FF0A2C030F0A3C0E5
:1023300031F0A4C032F0000E276E000E286E200E81
:10234000296E410E2A6EABC023F0ACC024F0ADC0A4
:1023500025F0AEC026F09FEC18F023C033F024C067
:1023600034F025C035F026C036F0ABEC24F0D8A010
:102370001ED0BDD7ABC015F0ACC016F0ADC017F085
:10238000AEC018F0000E196E000E1A6E200E1B6EF5
:10239000410E1C6ECEEC1BF015C0ABF016C0ACF0BD
:1023A00017C0ADF018C0AEF0A707D8A0A807A1C00D
:1023B0002FF0A2C030F0A3C031F0A4C032F0ABC007
:1023C00033F0ACC034F0ADC035F0AEC036F0ABEC9D
:1023D00024F0D8A0CFD777C01BF01C6A7DEC2CF07E
:1023E0001B50986F98C095F0670E9819D8A419D013
:1023F000F951FA11D8A404D0000EFA6F010EF96F4A
:10240000FABF05D0FA5108E1F905D8B005D0000EA1
:10241000946F060E936F08D0F9C093F0FAC094F051
:1024200003D0FAAFF9D7F3D7670E9819D8A422D002
:10243000A8AF06D0FC0EA75DFF0EA859D8A018D0F3
:10244000FF0E786FFF0E796F93C07AF094C07BF027
:1024500078517A2779517B23A7517A5D7B51800A85
:102460007C6FA851800A7C59D8A002D0660E01D09A
:10247000650E956F93C089F094C08AF0670E981925
:10248000D8A405D0660E9519D8B4A8AF02D0894B50
:102490008A2B660E9519D8A416D0A8AF0CD0000EC2
:1024A000AB6F000EAC6F800EAD6F3F0EAE6F000EC7
:1024B000A86F000EA76F670E9819D8B404D0A75163
:1024C0008927A8518A23000EA66F000EA56FA1C010
:1024D00099F0A2C09AF0A3C09BF0A4C09CF0ABC03E
:1024E0008BF0ACC08CF0ADC08DF0AEC08EF07AD069
:1024F00099C015F09AC016F09BC017F09CC018F058
:10250000ABC019F0ACC01AF0ADC01BF0AEC01CF0EF
:10251000CEEC1BF015C02EF016C02FF017C030F017
:1025200018C031F0F7EC1FF02EC09DF02FC09EF0C8
:1025300030C09FF031C0A0F09DC015F09EC016F0D5
:102540009FC017F0A0C018F043EC26F015C08FF024
:1025500016C090F099C02FF09AC030F09BC031F0B7
:102560009CC032F0ABC027F0ACC028F0ADC029F061
:10257000AEC02AF09DC023F09EC024F09FC025F07D
:10258000A0C026F09FEC18F023C033F024C034F034
:1025900025C035F026C036F07BEC2BF02FC099F02B
:1025A00030C09AF031C09BF032C09CF0ABC015F047
:1025B000ACC016F0ADC017F0AEC018F0000E196E2A
:1025C000000E1A6E200E1B6E410E1C6ECEEC1BF020
:1025D00015C0ABF016C0ACF017C0ADF018C0AEF02F
:1025E000A54BA62B8951A55DA651800A786F8A510B
:1025F000800A7859D8A07CD7ABC023F0ACC024F0B7
:10260000ADC025F0AEC026F0000E276E000E286E7D
:10261000A00E296E400E2A6E9FEC18F023C09DF08C
:1026200024C09EF025C09FF026C0A0F099C02FF0D6
:102630009AC030F09BC031F09CC032F09DC033F0A6
:102640009EC034F09FC035F0A0C036F0ABEC24F053
:10265000D8A015D099C015F09AC016F09BC017F0FD
:102660009CC018F09DC019F09EC01AF09FC01BF0CE
:10267000A0C01CF0F2EC28F0D8B08FB108D0000E4A
:102680009D6F000E9E6F000E9F6F000EA06FA1C089
:1026900015F0A2C016F0A3C017F0A4C018F09DC09A
:1026A00019F09EC01AF09FC01BF0A0C01CF048ECAF
:1026B0001AF015C099F016C09AF017C09BF018C018
:1026C0009CF099C02FF09AC030F09BC031F09CC0B4
:1026D00032F0000E276E000E286E200E296E410E7D
:1026E0002A6E8BC023F08CC024F08DC025F08EC0E4
:1026F00026F09FEC18F023C033F024C034F025C03E
:1027000035F026C036F0ABEC24F0D8A022D0A74B91
:10271000A82B8BC023F08CC024F08DC025F08EC078
:1027200026F0000E276E000E286E200E296E410E38
:102730002A6E9FEC18F023C08BF024C08CF025C0CB
:102740008DF026C08EF0660E9519D8A402D0894B64
:102750008A2B8BC0ABF08CC0ACF08DC0ADF08EC0BE
:10276000AEF0650E9519D8B405D0A7C087F0A8C003
:1027700088F004D0000E886F000E876F000E866F01
:10278000000E856F000E846F000E836F000EA66F23
:10279000000EA56FC4D099C015F09AC016F09BC06A
:1027A00017F09CC018F0ABC019F0ACC01AF0ADC067
:1027B0001BF0AEC01CF0CEEC1BF015C02EF016C006
:1027C0002FF017C030F018C031F0F7EC1FF02EC01A
:1027D0009DF02FC09EF030C09FF031C0A0F09DC092
:1027E00015F09EC016F09FC017F0A0C018F043EC83
:1027F00026F015C08FF016C090F03DB80CD08F5168
:102800009011D8A408D0670E9819D8B488AF03D017
:10281000834B842B39D085518611D8B488AF22D010
:10282000980EA925D96E010EAA21DA6E2E0EDF6E42
:10283000A94BAA2B9607D8A09707000E866F010E0A
:10284000856F10D0980EA925D96E010EAA21DA6ED7
:10285000300EDF6EA94BAA2B9607D8A097078307E7
:10286000D8A0840783518411D8A4ECD7980EA92549
:10287000D96E010EAA21DA6E8F51300FDF6EA94B8F
:10288000AA2B9607D8A0970799C02FF09AC030F0CE
:102890009BC031F09CC032F0ABC027F0ACC028F038
:1028A000ADC029F0AEC02AF09DC023F09EC024F038
:1028B0009FC025F0A0C026F09FEC18F023C033F095
:1028C00024C034F025C035F026C036F07BEC2BF068
:1028D0002FC099F030C09AF031C09BF032C09CF00C
:1028E000ABC015F0ACC016F0ADC017F0AEC018F01C
:1028F000000E196E000E1A6E200E1B6E410E1C6E1D
:10290000CEEC1BF015C0ABF016C0ACF017C0ADF0AC
:1029100018C0AEF08707D8A08807A54BA62B895111
:10292000A55DA651800A786F8A51800A7859D8B07F
:1029300008D0AABF30D7AA5104E14B0EA95DD8A098
:102940002AD785518611D8B43DA80AD0980EA9255A
:10295000D96E010EAA21DA6E2E0EDF6EA94BAA2BBC
:10296000980EA925D96E010EAA21DA6E000EDF6E2F
:10297000650E9519D8A448D4000EA66F4F0EA56F0A
:10298000980EA525D96E010EA621DA6E000EDF6E17
:10299000000E926F000E916FA8AF08D0000E926FDC
:1029A000010E916FA76DA81FD8B0A82B000E946FD1
:1029B000020E936F2AD0A507D8A0A607980EA525CA
:1029C000D96E010EA621DA6EA7C015F0A8C016F0C8
:1029D000000E186E0A0E176EF4EC29F01550300F29
:1029E000DF6EA7C015F0A8C016F0000E186E0A0E14
:1029F000176E79EC29F015C0A7F016C0A8F0930760
:102A0000D8A094079607D8A09707A751A811D8A4D3
:102A1000D2D794BF05D09451CEE19305D8B0CBD78F
:102A2000A507D8A0A60791519211D8A404D0000EF2
:102A3000806F2B0E03D0000E806F2D0E7F6F980ECF
:102A4000A525D96E010EA621DA6E6000FFF1DFFF29
:102A50009607D8A09707A507D8A0A607BF0E786F3E
:102A6000FF0E796F77517A6F7B6B78517A277951A6
:102A70007B237B5104E11A0E7A5DD8A004D0000EAE
:102A8000826F650E03D0000E826F450E816F980E27
:102A9000A525D96E010EA621DA6E600007F2DFFFD0
:102AA0009607D8A09707980EA925156E010EAA21A2
:102AB000166E980EA525176E010EA621186E60ECF5
:102AC0002AF004EF11F0B151D96EDA6A6F007FFF7E
:102AD000F6FF200EF76E000EF86E0800F550250A7E
:102AE000D8A413D3B151D96EDA6ADF2A000EF86F79
:102AF000000EF76FF7C03DF0F8C03EF0F969FA69D3
:102B0000000EC36F000E11D03D80B151D96EDA6A4C
:102B1000DF2A30D03D82F9D73D84F7D73D86F5D7FF
:102B20003D88F3D7000EC36F010EC26F23D0B151A1
:102B3000D96EDA6A6F007FFFF6FF200EF76E000E87
:102B4000F86E0800F550B46FB56BB551000AD8A403
:102B5000E9D7B451200AD8B4E1D7030AD8B4E0D7F2
:102B6000080AD8B4D9D7060AD8B4CED71D0AD8B423
:102B7000D1D7D8D7C251C311D8B4D9D73DB03D921F
:102B8000B151D96EDA6A6F007FFFF6FF200EF76E43
:102B9000000EF86E0800F5502A0AD8A428D0B151CA
:102BA000D96EDA6ADF2A6000CBF2D9FF6000CFF27B
:102BB000DAFF6F007CFFB4F0020EDE266F007CFFB0
:102BC000B5F0000EDD226000D3F2D9FF6000D7F22D
:102BD000DAFF6F0078FFF7F06F0074FFF8F0F8AFDE
:102BE00033D03D80F76DF81FD8B0F82B2DD0B15100
:102BF000D96EDA6ADF501C6E12EC24F01CC0F7F0BC
:102C00001DC0F8F004D0B151D96EDA6ADF2AD00EB7
:102C10000001B46FFF0EB56FB151D96EDA6A6F0063
:102C20007FFFF6FF200EF76E000EF86E0800F550DD
:102C3000B66FB76BB451B627B551B723B75104E19E
:102C40000A0EB65DD8A0DFD7B151D96EDA6A6F002F
:102C50007FFFF6FF200EF76E000EF86E0800F550AD
:102C60002E0AD8A465D0000EFA6F000EF96FB1518C
:102C7000D96EDA6ADF2AB151D96EDA6A6F007FFF46
:102C8000F6FF200EF76E000EF86E0800F5502A0AC7
:102C9000D8A421D0B151D96EDA6ADF2A6000CBF214
:102CA000D9FF6000CFF2DAFF6F007CFFB4F0020EB4
:102CB000DE266F007CFFB5F0000EDD226000D3F24F
:102CC000D9FF6000D7F2DAFF6F0078FFF9F06F00EC
:102CD00074FFFAF02DD0B151D96EDA6ADF501C6E54
:102CE00012EC24F01CC0F9F01DC0FAF004D0B15170
:102CF000D96EDA6ADF2AD00E0001B46FFF0EB56F0D
:102D0000B151D96EDA6A6F007FFFF6FF200EF76EC1
:102D1000000EF86E0800F550B66FB76BB451B627C9
:102D2000B551B723B75104E10A0EB65DD8A0DFD77D
:102D3000B151D96EDA6A6F007FFFF6FF200EF76E91
:102D4000000EF86E0800F5501B6E1C6A7DEC2CF02E
:102D50001B50CB6FCB51D8B42FD0B151D96EDA6A9A
:102D6000DF50B46F010EB4276000D3F2F6FF200EDF
:102D7000F76E000EF86E0800F5501B6E1C6A7DECB5
:102D80002CF01B50CC6FCC51D8B416D0B151D96EA9
:102D9000DA6ADF50B46F020EB4276000D3F2F6FF98
:102DA000200EF76E000EF86E0800F5501B6E1C6AC0
:102DB0007DEC2CF01B50CD6F660ECB19D8A449D0FA
:102DC000B151D96EDA6A6F007FFFF6FF200EF76E01
:102DD000000EF86E08006F00D4FFC6F0B151D96E36
:102DE000DA6ADF2A6000CBF2D9FF6000CFF2DAFFA7
:102DF0006F007CFFB4F0040EDE266F007CFFB5F0A0
:102E0000000EDD226000D3F2D9FF6000D7F2DAFFB6
:102E10006F0078FFC7F06F0078FFC8F06F0078FF91
:102E2000C9F06F0078FFCAF0AFC071F0B0C072F0A7
:102E3000C7C073F0C8C074F0C9C075F0CAC076F0DE
:102E4000C6C077F07DEC10F071C0AFF072C0B0F08A
:102E50001200CB0E196E1A6AED0E1B6E1B50D8A411
:102E6000200E1C6E000E1E6E020E1D6ECCEC20F0AD
:102E700019501A10D8A455D00001B151D96EDA6A90
:102E8000DF50B46F010EB4276000D3F2F6FF200EBE
:102E9000F76E000EF86E08006F00D4FFC6F0BF0E8C
:102EA000B46FFF0EB56FB151D96EDA6A6F007FFF54
:102EB000F6FF200EF76E000EF86E0800F550B66FA4
:102EC000B76BB451B627B551B723B75102E11A0E0B
:102ED000B65D6000CBF2D9FF6000CFF2DAFF6F0081
:102EE0007CFFB4F0040EDE266F007CFFB5F0000E10
:102EF000DD226000D3F2D9FF6000D7F2DAFF6F0065
:102F000078FFC7F06F0078FFC8F06F0078FFC9F056
:102F10006F0078FFCAF0B151D96EDA6A020EDF266F
:102F200083D70001B151D96EDA6A6F007FFFF6FFD7
:102F3000200EF76E000EF86E0800F550730AD8B434
:102F40001BD0B151D96EDA6ADF50B46FB4C019F03A
:102F50001950D8A4200E1A6EE90E1B6E1B50D8A46F
:102F6000200E1C6E000E1E6E030E1D6ECCEC20F0AB
:102F700019501A10D8A448D00001B151D96EDA6A9C
:102F80006F007FFFF6FF200EF76E000EF86E080050
:102F9000F550730AD8B404D0000EC56F030E03D0E9
:102FA000000EC56F010EC46FB151D96EDA6AC451FB
:102FB000DF266000CBF2D9FF6000CFF2DAFF6F00AE
:102FC0007CFFB4F0020EDE266F007CFFB5F0000E31
:102FD000DD226000D3F2D9FF6000D7F2DAFF6F0084
:102FE00078FFC0F06F0074FFC1F0AFC020F0B0C038
:102FF00021F0C0C022F0C1C023F0CEEC22F020C0EE
:10300000AFF021C0B0F012000001B151D96EDA6A00
:103010006F007FFFF6FF200EF76E000EF86E0800BF
:10302000F550750AD8A445D0B151D96EDA6ADF2AB5
:103030006000CBF2D9FF6000CFF2DAFF6F007CFFB7
:10304000B4F0020EDE266F007CFFB5F0000EDD222C
:103050006000D3F2D9FF6000D7F2DAFF6F0078FF8B
:10306000B6F06F0074FFB7F0B6C0B8F0B7C0B9F0F3
:10307000BA6BBB6BBC6BBD6BBE6BBF6BAFC060F0A4
:10308000B0C061F0B8C062F0B9C063F0BAC064F01B
:10309000BBC065F0BCC066F0BDC067F0BEC068F0E4
:1030A000BFC069F01FEC1FF060C0AFF061C0B0F0AE
:1030B0001200B151D96EDA6A6F007FFFF6FF200E61
:1030C000F76E000EF86E0800F550250AD8A414D04B
:1030D000B151D96EDA6ADF2A000E186E250E176E0E
:1030E000AFC019F0B0C01AF057EC27F0000E000185
:1030F000B06F010EAF6F1200B151D96EDA6ADF2ADC
:10310000000EB06F000EAF6F1200B151D96EDA6AC7
:103110006F007FFFF6FF200EF76E000EF86E0800BE
:10312000F550176E186AAFC019F0B0C01AF057EC1E
:1031300027F00001B151D96EDA6ADF2AD7D72650BD
:10314000800B0001606F26502624626F25BE6281CD
:103150006251D8B40DD06229D8A408D0000E236ED5
:10316000000E246E000E256E000E266E258E08D0F1
:10317000000E236E000E246E000E256E000E266ECD
:103180002A50800B601B2A502A24616F29BE61815E
:103190006151D8B40DD06129D8A408D0000E276E93
:1031A000000E286E000E296E000E2A6E298E08D0A1
:1031B000000E276E000E286E000E296E000E2A6E7D
:1031C0006151D8B403D06251D8A409D0000E236E47
:1031D000000E246E000E256E000E266E1200295081
:1031E00023026F00CCFF6BF06F00D0FF6CF06B51CF
:1031F000636F646B656B666B6C51676F686B696B53
:103200006A6B285024026F00CCFF6BF06F00D0FF78
:103210006CF06B516327000E6423652366236C51A9
:103220006727000E682369236A23275025026F0051
:10323000CCFF6BF06F00D0FF6CF06B516327000E7A
:103240006423652366236C516727000E6823692376
:103250006A2365C066F064C065F063C064F0636BA8
:10326000275024026F00CCFF6BF06F00D0FF6CF092
:103270006B5163276C516423000E6523000E662397
:10328000285023026F00CCFF6BF06F00D0FF6CF072
:103290006B5163276C516423000E6523000E662377
:1032A00065C066F064C065F063C064F0636B27506E
:1032B00023026F00CCFF6BF06F00D0FF6CF06B51FE
:1032C00063276C516423000E6523000E662329508A
:1032D00024026F00CCFF6BF06F00D0FF6CF06B51DD
:1032E00067276C516823000E6923000E6A2328505B
:1032F00025026F00CCFF6BF06F00D0FF6CF06B51BC
:1033000067276C516823000E6923000E6A23295039
:1033100025026F00CCFF6BF06F00D0FF6CF06B519B
:103320002B6E6C512C6E2D6A2E6A2DC02EF02CC087
:103330002DF02BC02CF02B6A2B5067272C506823C4
:103340002D5069232E506A2366516727000E68238B
:1033500069236A2365C066F064C065F063C064F0E9
:10336000636B615162C02BF02C6A2B26000E2C225D
:10337000820E2B246B6FFF0E2C206C6F0FD0D89019
:103380006737683769376A3766BF6781D8906337B0
:103390006437653766376B07D8A06C0769AFEFD71E
:1033A000000E616F66AF17D0FF0E63152B6EFF0E18
:1033B00064152C6EFF0E65152D6E7F0E66152E6E34
:1033C0002B502C102D102E10D8B403D0010E616F8D
:1033D00002D067B1FBD76151D8B41FD0010E672767
:1033E000000E682369236A236AA117D067C02BF0F7
:1033F00068C02CF069C02DF06AC02EF02E342E3239
:103400002D322C322B322BC067F02CC068F02DC02F
:1034100069F02EC06AF06B4B6C2B6CBF0DD06C51F9
:1034200003E16B29D8A008D0000E676F000E686F0B
:10343000800E696F7F0E20D06CBF05D06C510EE1FD
:103440006B05D8B00BD0000E676F000E686F000ED2
:10345000696F000E6A6F000E606F0FD06BC062F074
:10346000FF0E6717FF0E68177F0E6917000E6A17A9
:1034700062B1698FD89062316A6F60516A1367C018
:1034800023F068C024F069C025F06AC026F012005D
:103490001850800B216E18501824236E17BE2380FD
:1034A0002350D8B40DD02328D8A408D0000E156E10
:1034B000000E166E000E176E000E186E178E06D0D8
:1034C000000E156E000E166E000E176E000E186EB2
:1034D0001C50800B226E21502218D8A4218C1C5025
:1034E0001C24226E1BBE22802250D8B40DD022286C
:1034F000D8A408D0000E196E000E1A6E000E1B6EB6
:10350000000E1C6E1B8E06D0000E196E000E1A6E79
:10351000000E1B6E000E1C6E2350225CD8B022D011
:1035200021AC02D0800E211A23C024F022C023F047
:1035300024C022F015C024F019C015F024C019F0E1
:1035400016C024F01AC016F024C01AF017C024F0D8
:103550001BC017F024C01BF018C024F01CC018F0CA
:1035600024C01CF0000E246E235022C01DF01E6AE1
:103570001D5E000E1E5A1EBE2CD01E5004E11A0EF7
:103580001D5CD8A026D01550161017101810D8B4EE
:1035900002D0010E01D0000E246E000E156E000E3A
:1035A000166E000E176E000E186E22C023F015D096
:1035B00024A005D0D89024300109246E02D0D890E0
:1035C000243215B0248E18341832173216321532C0
:1035D000232A2250235CD8A0EBD721BC28D023502B
:1035E000D8A409D0000E156E000E166E000E176ED0
:1035F000000E186E1200195015261A5016221B5074
:1036000017221C50182218A071D024A005D0D890E1
:1036100024300109246E02D0D890243215B0248EB3
:1036200018341832173216321532232A5FD0195047
:10363000155C1A5016581B5017581850800A1D6EEA
:103640001C50800A1D58D8B025D01550195C1D6E2D
:1036500016501A581E6E17501B581F6E18501C58C3
:10366000206EFF0E1D24156EFF0E1E20166EFF0E1F
:103670001F20176EFF0E2020186E800E211A246C5A
:103680002450D8A40FD0010E1526000E16221722A2
:10369000182208D01950155E1A50165A1B50175A86
:1036A0001C50185A1550161017101810D8A41CD0FA
:1036B0002450D8A419D0000E156E000E166E000E00
:1036C000176E000E186E1200D89015361636173683
:1036D000183624BE158024A002D0D88001D0D890FE
:1036E00024362350D8A4230617AEEED7000E226E40
:1036F00024AE0BD024C01DF07F0E1D16D8B403D00D
:10370000010E226E02D015B0FBD72250D8B420D0C3
:10371000010E1526000E16221722182218A018D006
:1037200015C01DF016C01EF017C01FF018C020F005
:10373000203420321F321E321D321DC015F01EC033
:1037400016F01FC017F020C018F02328D8A4232A91
:103750002328D8B403D02350D8A40DD0000E156E62
:10376000000E166E000E176E000E186E2350D8A4B1
:1037700002D0000E216E23A002D0178E01D0179E1A
:10378000D8902330186E21BE188E15C015F016C0C3
:1037900016F017C017F018C018F012001850800B60
:1037A000256E185018242C6E17BE2C802C50D8B4BF
:1037B0000DD02C28D8A408D0000E156E000E166E61
:1037C000000E176E000E186E178E06D0000E156EC6
:1037D000000E166E000E176E000E186E1C50800B39
:1037E000251A1C501C242D6E1BBE2D802D50D8B4C4
:1037F0000DD02D28D8A408D0000E196E000E1A6E18
:10380000000E1B6E000E1C6E1B8E06D0000E196E75
:10381000000E1A6E000E1B6E000E1C6E19501A1050
:103820001B101C10D8A417D0000E156E000E166EBB
:10383000000E176E000E186E800E17127F0E1812F3
:103840002550181215C015F016C016F017C017F045
:1038500018C018F012002C50D8A409D0000E156E14
:10386000000E166E000E176E000E186E12002D5010
:103870002CC01DF01E6A1D5E000E1E5A7F0E1D24F8
:10388000266E000E1E20276E15C021F016C022F0F5
:1038900017C023F018C024F0000E156E000E166E2F
:1038A000000E176E000E186E000E286E000E296EA8
:1038B000000E2A6E000E2B6E000E2D6E28D02D509D
:1038C000D8B411D0D8902136223623362436D89059
:1038D00015361636173618362BBE1580D890283672
:1038E00029362A362B361950215C1A5022581B5083
:1038F00023581C502458D8A009D02B8C1950215E75
:103900001A50225A1B50235A1C50245A2D2A190E81
:103910002D64D5D72150221023102410D8B411D0F3
:1039200028800FD0D89015361636173618362BBE8D
:103930001580D890283629362A362B362606D8A068
:10394000270617AEEFD7000E2D6E2BAE17D0FF0E49
:1039500028141D6EFF0E29141E6EFF0E2A141F6EF2
:103960007F0E2B14206E1D501E101F102010D8B477
:1039700003D0010E2D6E02D015B0FBD72D50D8B458
:103980001FD0010E1526000E16221722182218A08D
:1039900017D015C01DF016C01EF017C01FF018C0BC
:1039A00020F0203420321F321E321D321DC015F08F
:1039B0001EC016F01FC017F020C018F0264A272A94
:1039C00027BE10D0275003E12628D8A00BD0000E28
:1039D000276E2668000E156E000E166E000E176E0E
:1039E000000E186E27BE05D0275011E12604D8B06E
:1039F0000ED0000E276E000E266E000E156E000E05
:103A0000166E000E176E000E186E000E256E26C084
:103A10002CF02CA002D0178E01D0179ED8902C30FD
:103A2000186E0ED7000E0001D86F000ED76F7AEC1B
:103A30002DF0BD92BE94140E156E5C0E166E000E27
:103A4000176EA0EC2EF0720E156E550E166E000E4F
:103A5000176EA7EC2EF06E0E156E590E166E000E38
:103A6000176EAEEC2EF0600013F1F1FE34EC2EF088
:103A7000D28E000EC0EC2EF00001FB51D8B4FCD762
:103A8000840E395C030E3A58D8B004D0000EA0EC76
:103A900026F00DD0090E395C070E3A58D8A004D094
:103AA000010EA0EC26F003D0020EA0EC26F03C5054
:103AB00008E1320E3B5CD8B004D0030EA0EC26F037
:103AC0000DD03C5004E1970E3B5CD8A004D0040E0E
:103AD000A0EC26F003D0050EA0EC26F0000E0001AD
:103AE000FB6FCABC04D00B0EA0EC26F003D0090E6D
:103AF000A0EC26F0CAB804D0070EA0EC26F003D044
:103B0000060EA0EC26F00001FC51D8B4B5D739C0A0
:103B100015F03AC016F0176A186A000E72EC23F01E
:103B200015C023F016C024F017C025F018C026F0E9
:103B3000970E276E750E286ECF0E296E3E0E2A6EDA
:103B40009FEC18F023C0D9F024C0DAF025C0DBF0D8
:103B500026C0DCF03BC015F03CC016F0176A186AAE
:103B6000000E72EC23F015C023F016C024F017C02D
:103B700025F018C026F06F0E276E120E286E830EE9
:103B8000296E3B0E2A6E9FEC18F023C094F124C0DE
:103B900095F125C096F126C097F1220E0201C36F60
:103BA000FDC0C4F2C56BC5EC2EF00001D56FD55138
:103BB0000201C66FC76B39C0C8F23AC0C9F2D9C09A
:103BC000CAF2DAC0CBF2DBC0CCF2DCC0CDF23BC033
:103BD000CEF23CC0CFF294C1D0F295C1D1F296C1E1
:103BE000D2F297C1D3F2D7EC2DF01DD0130ED865C9
:103BF00002D0000ED86FD82BD851C0EC2EF007D0D1
:103C0000BA9A23D0140ED86F140EC0EC2EF0BD82D9
:103C1000F7D7000EFD6F000ED86F000EC0EC2EF02F
:103C2000BD92BA8A12D0FD51D56FD66BD651000A1B
:103C3000D8A4EFD7D551000AD8B4EBD7010AD8B42D
:103C4000D5D7030AD8B4DED7E4D7400E326E020EC1
:103C5000336E7DEC21F0000E0001FC6FCBB009D07B
:103C6000D72B040ED76508D7FD2B000ED76FBE8467
:103C700003D7000ED76FBE94FFD6000E316E000E34
:103C8000306E020E2E24156E000E2F20166E31ECB3
:103C90002BF015501610D8A402D0030E1200020EFD
:103CA0002E24156E000E2F20166E31EC2BF01650C0
:103CB00003E1020E155CD8B082D0020E1200315022
:103CC000040D6F00CCFF60F06F00D0FF61F060006A
:103CD000BBF0D9FF6000BFF0DAFF6F0078FF62F041
:103CE0006F0074FF63F060516225D96E61516321EA
:103CF000DA6EDF50646F64C019F01950D8A4200E3A
:103D00001A6E020E2E241B6E000E2F201C6E3150D8
:103D1000040D6F00CCFF65F06F00D0FF66F060000F
:103D2000BBF0D9FF6000BFF0DAFF6F0078FF67F0EB
:103D30006F0074FF68F065516725D96E6651682180
:103D4000DA6EDF50696F69C015F01550D8A4200EE7
:103D5000166E31EC2BF015C01DF016C01EF0CCEC29
:103D600020F019501A10D8A429D02EC02CF02FC042
:103D70002DF03150040D6000BBF0D9FF6000BFF0A2
:103D8000DAFF6F0078FF60F06F0074FF61F0F350AE
:103D900000016027F4506123010E6025D96E000EEA
:103DA0006121DA6E01D829D00500FA6EDE50FD6E71
:103DB000DE50FE6EDE50FF6EFA501200312A315096
:103DC000040D6000BBF0D9FF6000BFF0DAFF6F00A8
:103DD00078FF60F06F0074FF61F0F350000160271E
:103DE000F4506123010E6025D96E000E6121DA6E58
:103DF000DE50DE10DE10D8A462D73150040D600012
:103E0000BBF0D9FF6000BFF0DAFF6F0078FF60F011
:103E10006F0074FF61F0F35000016027F4506123DC
:103E2000010E6025D96E000E6121DA6EDE50DE10C3
:103E3000DE10D8A402D0010E306E30501200FAAF5E
:103E40003D92FABF05D0FA5108E1F905D8B005D086
:103E5000000E736F010E726F04D0F9C072F0FAC0D9
:103E600073F0F7C074F0F8C075F062C076F063C00C
:103E700077F064C078F065C079F066C07AF067C00A
:103E80007BF068C07CF069C07DF0000E7F6F4F0E44
:103E90007E6F000E0101E76F76D07E07D8A07F0706
:103EA000980E7E25D96E010E7F21DA6E76C015F050
:103EB00077C016F078C017F079C018F07AC019F002
:103EC0007BC01AF07CC01BF07DC01CF00A0E1D6E7A
:103ED000000E1E6E000E1F6E000E206E000E216E74
:103EE000000E226E000E236E000E246EB1EC27F041
:103EF00015C06AF016C06BF017C06CF018C06DF0FA
:103F000019C06EF01AC06FF01BC070F01CC071F0C9
:103F10006A51300FDF6E7207D8A073077407D8A0FC
:103F2000750776C015F077C016F078C017F079C025
:103F300018F07AC019F07BC01AF07CC01BF07DC06D
:103F40001CF00A0E1D6E000E1E6E000E1F6E000E7F
:103F5000206E000E216E000E226E000E236E000EEB
:103F6000246E13EC25F015C076F016C077F017C05C
:103F700078F018C079F019C07AF01AC07BF01BC035
:103F80007CF01CC07DF000017E517F11D8B41AD0A6
:103F900076517711781179117A117B117C117D118D
:103FA000D8A47BD773BF05D0735102E17205D8B096
:103FB00074D775BF07D0755103E17405D8A002D03E
:103FC0003DB26BD760C029F061C02AF0980E7E2503
:103FD0002B6E010E7F212C6E74C02DF075C02EF05B
:103FE000A7EC28F029C060F02AC061F012008CC153
:103FF00066F08DC167F08EC168F08FC169F02EC088
:1040000066F02FC067F030C068F031C069F0810EF3
:10401000326EFF0E336E66C034F067C035F068C094
:1040200036F069C037F0180E05D0D89037323632E6
:1040300035323432E82EF9D734503224646F000E12
:104040003320656F65BF0FD0655104E1170E645DC5
:10405000D8A009D02EC02EF02FC02FF030C030F0E5
:1040600031C031F0120065BF5CD064C032F0FF0E89
:10407000336EFF0E346E7F0E356E000E366E326676
:1040800001D007D036343632353234323332322E24
:10409000F6D733C060F034C061F035C062F036C08E
:1040A00063F0000160516615326E61516715336E21
:1040B00062516815346E63516915356E3250331094
:1040C00034103510D8B4C6D766C032F067C033F0AC
:1040D00068C034F069C035F0200E05D0D890353274
:1040E000343233323232E82EF9D73250D8B408D0D5
:1040F00060516627615167236251682363516923C8
:10410000601D326E611D336E621D346E631D356E2F
:104110003250661733506717345068173550691797
:1041200032D066C032F067C033F068C034F069C086
:1041300035F0200E05D0D890353234323332323259
:10414000E82EF9D7326608D0000E666F000E676F52
:10415000000E686F000E16D0D8906635326E673547
:10416000336E6835346E6935356E32503310341025
:104170003510D8B408D0000E666F000E676F800E41
:10418000686FBF0E696F66C02EF067C02FF068C001
:1041900030F069C031F0120019C021F01AC022F0CD
:1041A0001BC023F01CC024F01D06D8A01E061D282D
:1041B0000FE11E28D8A40CD0000E1A6E000E196E46
:1041C0001200214A222A234A242A1D06D8A01E06AC
:1041D000600087F0F6FF60008BF0F7FF000EF86ECE
:1041E0001F0EF76403D00800F55007D06F00DBFF07
:1041F000E1FF6F00DFFFE2FFE7500009D8B44AD0CB
:1042000060008FF0F6FF600093F0F7FF000EF86E8D
:104210001F0EF76403D00800F55007D06F00DBFFD6
:10422000E1FF6F00DFFFE2FFE7500009D8B432D0B2
:104230001D501E10D8B42ED060008FF0F6FF600025
:1042400093F0F7FF000EF86E1F0EF76403D008001E
:10425000F55007D06F00DBFFE1FF6F00DFFFE2FFEB
:10426000E7501F6E600087F0F6FF60008BF0F7FFED
:10427000000EF86E1F0EF76403D00800F55007D04B
:104280006F00DBFFE1FF6F00DFFFE2FFE7501F1869
:10429000D8B497D7600087F0F6FF60008BF0F7FF87
:1042A000000EF86E1F0EF76403D00800F55007D01B
:1042B0006F00DBFFE1FF6F00DFFFE2FFE7501F6EE3
:1042C00060008FF0F6FF600093F0F7FF000EF86ECD
:1042D0001F0EF76403D00800F55007D06F00DBFF16
:1042E000E1FF6F00DFFFE2FFE750206E20501F5C10
:1042F000196E1A6AD8A01A061200000E00016C6F1F
:104300006C0E166E8FEC2DF00009D8B412008AD016
:1043100020EE82F03250D9263350DA227E0EDF644E
:104320000CD020EE82F03250D9263350DA22DF5002
:10433000346E34506A6F6B6B0ED020EE82F03250C8
:10434000D9263350DA22DF50346E010E34246A6FDE
:104350006B6B000E6B236A513224346E6B51332029
:10436000356E020E3424D96E000E3520DA6E000E42
:10437000DF6EC10E2C6E2C50D8A4200E2D6E020EB6
:104380002E6E6FEC2EF032C02EF033C02FF03DECCD
:104390001EF0436E20EE82F03250D9263350DA22DE
:1043A000000EDF6E020E3224156E000E3320166EE4
:1043B000000E186E000E176E000E1A6E800E196E2B
:1043C00028EC22F0120020EE82F03250D926335031
:1043D000DA227F0EDF60120020EE82F03250D92602
:1043E0003350DA22DF50346E34503224356E000EF2
:1043F0003320366E020E3524D96E000E3620DA6E6A
:104400006000B3F1DFFF20EE82F03250D926335046
:10441000DA22DF2A6C0E2C6E2D6A010E2E6E6FECE6
:104420002EF0120000016C51346E356A3550000ACE
:10443000D8A4C9D734500D0AD8B46AD7160AD8B44C
:104440001200650AD8B41200010AD8B41200BBD712
:1044500015C01FF016C020F019501A10D8B4120061
:1044600060007FF0D9FF600083F0DAFF60005FF04A
:10447000DFFF19501F241B6E1A5020201C6EFF0EE8
:104480001B24D96EFF0E1C20DA6E60005FF0DFFF88
:104490001A5004E1030E195CD8A0120020EE01F0BE
:1044A0001F50D9262050DA2260005FF0DFFF20EE97
:1044B00002F01F50D9262050DA2260005FF0DFFFA3
:1044C00019501F241B6E1A5020201C6EFE0E1B2438
:1044D000D96EFF0E1C20DA6E60005FF0DFFF19500E
:1044E0001F241B6E1A5020201C6EFD0E1B24D96E3B
:1044F000FF0E1C20DA6E60005FF0DFFF1A5004E14F
:10450000070E195CD8A0120020EE03F01F50D92628
:104510002050DA2260005FF0DFFF19501F241B6E6D
:104520001A5020201C6EFC0E1B24D96EFF0E1C207E
:10453000DA6E60005FF0DFFF1A5004E1090E195CCB
:10454000D8A012001FC01BF020C01CF01B1E1C1E98
:104550001B4A1C2A030E1B141D6E1E6A1D501F26AB
:104560001E5020221D50195E1E501A5AFC0E19169C
:10457000FF0E1A160ED060007FF0D9FF600083F0A6
:10458000DAFF60005FF0DFFF1906D8A01A061F4AA5
:10459000202A19501A10D8B41200EDD720EEE8F1F5
:1045A00010EE25F0060E6F006FFFE3FFE806FBE25A
:1045B00022C030F023C031F030503110D8A403D0E5
:1045C000250E306E316A30C015F031C016F031EC76
:1045D0002BF015C034F016C035F0F9C032F0FAC037
:1045E00033F033BE0ED03450325C3350800A246E28
:1045F0003550800A2458D8B004D032C034F033C0CB
:1046000035F034C032F035C033F0F7C02EF0F8C0CA
:104610002FF03DA00DD016D0000E186E200E176E94
:1046200020C019F021C01AF057EC27F0344A352A7F
:104630002E50345C3550800A246E2F50800A245846
:10464000D8A0EAD7000E2D6E000E2C6E23D060008D
:10465000C3F0F6FF6000C7F0F7FF000EF86E1F0E04
:10466000F76403D00800F55007D06F00DBFFE1FFCF
:104670006F00DFFFE2FFE750246E2450176E186AC8
:1046800020C019F021C01AF057EC27F0304A312A27
:104690002C4A2D2A32502C5C2D50800A246E335027
:1046A000800A2458D8A0D3D73DB00DD016D0000E24
:1046B000186E200E176E20C019F021C01AF057ECAA
:1046C00027F0344A352A2E50345C3550800A246E47
:1046D0002F50800A2458D8A0EAD734C020F035C023
:1046E00021F012001D6E1D50D8A418AE1AD015C0AE
:1046F00019F016C01AF017C01BF018C01CF0191ED4
:104700001A1E1B1E1C1E192A000E1A221B221C22F6
:1047100019C01FF01AC020F01BC021F01CC022F0ED
:1047200008D015C01FF016C020F017C021F018C027
:1047300022F01550161017101810D8A409D0000E2A
:10474000156E000E166E000E176E000E186E12001B
:10475000960E1E6E06D01E2AD890223221322032AA
:104760001F32000E1F14196E000E20141A6E000E58
:1047700021141B6EFE0E22141C6E19501A101B10F1
:104780001C10D8B40DD0E7D71E2A010E1F26000E2C
:10479000202221222222D8902232213220321F329E
:1047A000000E1F14196E000E20141A6E000E211434
:1047B0001B6EFF0E22141C6E19501A101B101C10B9
:1047C000D8B407D0E1D71E06D8901F362036213640
:1047D000223621BE03D0020E1E60F5D71EA0219EF8
:1047E000D8901E321EC019F01A6A1B6A1C6A19C0C2
:1047F0001CF01B6A1A6A196A19501F121A502012EB
:104800001B5021121C5022121D50D8A418AE01D0EA
:10481000228E1FC015F020C016F021C017F022C054
:1048200018F01200000E256E000E246E000E236E8E
:10483000000E226E01D01C2A600073F0F6FF200EDD
:10484000F76E000EF86E0800F550200AD8B4F3D7C2
:10485000F70E1E6EFF0E1F6E600073F0F6FF200E47
:10486000F76E000EF86E0800F550206E216A1E509B
:1048700020261F50212221500BE1050E205CD8B0CC
:1048800007D0D9D7000E236E010E226E1C2A34D019
:10489000600073F0F6FF200EF76E000EF86E080051
:1048A000F5501E6E1F6A1F50000AD8A425D01E5056
:1048B0002B0AD8B4EBD7060AD8B4E4D71DD024C04D
:1048C00015F025C016F0000E186E0A0E176E65EC76
:1048D0002DF0600073F0F6FF200EF76E000EF86EFC
:1048E0000800F550155E000E165A300E1524246E81
:1048F000000E1620256ECAD7D00E1E6EFF0E1F6E3C
:10490000600073F0F6FF200EF76E000EF86E0800E0
:10491000F550206E216A1E5020261F502122215062
:1049200004E10A0E205CD8A0CAD722502310D8A4D4
:104930000DD024C01EF025C01FF01E1E1F1E1E4AD3
:104940001F2A1EC01CF01FC01DF0120024C01CF046
:1049500025C01DF01200000E2F146D6F000E3014D4
:104960006E6F800E31146F6F7F0E3214706F6D5149
:104970006E116F117011D8A408D0000E2F6E000EAA
:10498000306E000E316E000E326E000E33146D6FFD
:10499000000E34146E6F800E35146F6F7F0E361458
:1049A000706F6D516E116F117011D8A408D0000E88
:1049B000336E000E346E000E356E000E366E32AE63
:1049C00009D02F6C301ED8B0302A311ED8B0312A11
:1049D000800E325636AE09D0336C341ED8B0342A2D
:1049E000351ED8B0352A800E3656000E2F1A000E0E
:1049F000301A000E311A800E321A000E331A000ED1
:104A0000341A000E351A800E361A33502F5C34508B
:104A100030583550315836503258D8B002D0D8902E
:104A20001200D880120020EE25F0070EDE6AE8069C
:104A3000FDE21D501E101F10201021102210231007
:104A40002410D8B446D0010E2D6E0AD0D8901D3651
:104A50001E361F36203621362236233624362D2A9E
:104A600024AEF4D7D8902536263627362836293670
:104A70002A362B362C361D50155C1E5016581F50EA
:104A80001758205018582150195822501A5823509E
:104A90001B5824501C58D8A011D01D50155E1E5014
:104AA000165A1F50175A2050185A2150195A22507E
:104AB0001A5A23501B5A24501C5A2580D89024324D
:104AC00023322232213220321F321E321D322D2E4D
:104AD000C9D725C015F026C016F027C017F028C08A
:104AE00018F029C019F02AC01AF02BC01BF02CC0F6
:104AF0001CF0120090C11FF091C120F092C121F072
:104B000093C122F015C01FF016C020F017C021F08D
:104B100018C022F01FC019F020C01AF021C01BF0ED
:104B200022C01CF0180E05D0D8901C321B321A324D
:104B30001932E82EF9D719501D6E1E6A1D501E102D
:104B4000D8A419D0D8901F34196E20341A6E21348D
:104B50001B6E22341C6E19501A101B101C10D8A486
:104B600005D0000E166E020E156E1200000E166EA7
:104B7000030E156E12001D281E10D8A41CD01FC0D5
:104B800019F020C01AF021C01BF022C01CF0090E41
:104B9000D89019361A361B361C36E82EF9D719501C
:104BA0001A101B101C10D8A402D0010E01D0000E48
:104BB000156E166A1200000E166E040E156E1200A7
:104BC000000EBE6E110EBD6E200EBA6E000EBF6ED0
:104BD000000EBB6E000EBC6E020EC66E0F0EC76ED0
:104BE000DF0EC26EC368900EC46E0C0EC56E0C0E46
:104BF0003A01706F600E606FFE0E506F020E806F94
:104C00000F0E906F8F0E406F000E716F000E916F40
:104C1000000E816F010E516F500E416F000E616FDB
:104C2000000E5A6F000E5B6F000E6A6F000E6B6F06
:104C3000000E7A6F000E7B6F000E826F000E926F77
:104C4000000E426F000E526F000E626F000E726F08
:104C50004369536963697369070E836F9369446994
:104C60005469646974690F0E846F9469130EDE6F62
:104C70001E0E136F1F0E156F130E166F170EE56FB6
:104C8000140EDF6F1200173418341E6E1E50D8A495
:104C900009D0000E156E000E166E000E176E000E77
:104CA000186E120015C019F016C01AF017C01BF0CC
:104CB00018C01CF0200E05D0D8901C321B321A32BE
:104CC0001932E82EF9D719501D6E178EFF0E1516E2
:104CD000FF0E1616FF0E1716000E1816960E1E5E05
:104CE0001EAE0DD01E50800A970FD8A0D2D7D890F4
:104CF00018321732163215321E3EF9D70DD01F0E5C
:104D00001E6407D0C6D7D890153616361736183613
:104D10001E061E50D8A4F7D71D50D8B408D0181EB0
:104D2000171E161E156C000E16221722182215C00B
:104D300015F016C016F017C017F018C018F01200C2
:104D4000176E2DD0BD98BD9A1200BD98BD8A120075
:104D5000BD88BD9A1200BD9CBD9E1200BD9CBD8E3B
:104D60001200BD8CBD9E1200BF98BF9A1200BF9862
:104D7000BF8A1200BF88BF9A1200BF9CBF9E12005C
:104D8000BF9CBF8E1200BF8CBF9E1200BD98BD9A03
:104D9000BD9CBD9EBF98BF9ABF9CBF9E120017507E
:104DA000156E166A1650000AD8A4F0D71550000ADE
:104DB000D8B4C8D7010AD8B4CBD7030AD8B4C5D75A
:104DC000010AD8B4C8D7070AD8B4CBD7010AD8B4D7
:104DD000C5D7030AD8B4C8D7010AD8B4CBD70F0AAD
:104DE000D8B4C5D7010AD8B4C8D7030AD8B4CBD72A
:104DF000010AD8B4C5D7CAD739019397100E156EDA
:104E0000500E166E000E176E84EC2EF09399700EF5
:104E1000156E5A0E166E000E176E7DEC2EF0000EFB
:104E20003D01EC6F000EED6F000EEE6F000EEF6FA8
:104E3000000EF06F000EF16FB00EF26F800EF36F88
:104E4000000EF46F8A0EF56F000EF66F000EF76F0E
:104E5000000EF86F000EF96F000EFA6FA40E156EBB
:104E60005D0E166E000E176E92EC2EF0A20E156EF1
:104E70005D0E166E000E176E8BEC2EF0900E156EFA
:104E80005D0E166E000E176E99EC2EF0000E456E3C
:104E9000000E4B6E000E4A6E400E496E000E486EBC
:104EA000000E476E000E466E3901938712001950AE
:104EB0001A10D8B404D019501A10D8A404D017501E
:104EC000BBEC2EF04AD020EE09F01950D9261A502A
:104ED000DA22DE50DE10D8B416D020EE09F01950D8
:104EE000D9261A50DA2210EE03F01950E1261A5092
:104EF000E222DE50E65CE650800A1F6EDE50800A39
:104F00001F58D8B02AD020EE03F01950D9261A50D5
:104F1000DA226F0078FF1BF06F0074FF1CF0600056
:104F200067F0D9FF60006BF0DAFF6F0078FF1DF0CB
:104F30006F0074FF1EF01B501D24D96E1C501E20E4
:104F4000DA6E60005FF0DFFF20EE03F01950D92623
:104F50001A50DA22DE2A000EDD2217C017F0186A76
:104F600012001D501E101F1020102110221023109F
:104F70002410D8B43CD0010E256E0AD0D8901D362E
:104F80001E361F3620362136223623362436252A71
:104F900024AEF4D71D50155C1E5016581F501758DC
:104FA000205018582150195822501A5823501B5875
:104FB00024501C58D8A010D01D50155E1E50165AF3
:104FC0001F50175A2050185A2150195A22501A5A55
:104FD00023501B5A24501C5AD89024322332223298
:104FE000213220321F321E321D32252ED3D715C05A
:104FF00015F016C016F017C017F018C018F019C039
:1050000019F01AC01AF01BC01BF01CC01CF01200D3
:10501000000E4824D96EDA6A010EDA22000EDF6E25
:105020003D01F9A715D0000E4824D96EDA6A010EA9
:10503000DA220101DF8201D80BD00500FA6E0001EF
:10504000E651FD6EE751FE6EE851FF6EFA50120018
:105050003D01F9A315D0000E4824D96EDA6A010E7D
:10506000DA220101DF8401D80BD00500FA6E0001BD
:10507000E351FD6EE451FE6EE551FF6EFA501200F1
:10508000000E4824D96EDA6A010EDA22DF50D8B455
:105090000DD001D812000500FA6E0001E051FD6E3E
:1050A000E151FE6EE251FF6EFA501200F9EC2DF064
:1050B0001200B00EF66E5C0EF76E000EF86E00EE8B
:1050C000E8F110EE17F009006F00D7FFEEFFE55092
:1050D000E150F9E1960EF66E5D0EF76E000EF86E79
:1050E00009006F00D4FFFDF009006F00D4FFFEF04F
:1050F00009006F00D4FFFFF000EE00F310EEFFF0A8
:10510000EE6AE550E150FCE1E250FAE100EE00F217
:10511000C30EEE6AE806FDE100EE00F1E80EEE6A6D
:10512000E806FDE100EED9F0240EEE6AE806FDE1A6
:1051300000EE39F0130EEE6AE806FDE1080ED56EBA
:10514000000ED66E000ED76E000112EF1DF03DA0CE
:105150000AD02BC020F02CC021F029C022F02AC098
:1051600023F02CEC2AF02EBE05D02DC032F02EC03C
:1051700033F004D0000E336E000E326E000E316E2E
:10518000000E306E0CD0000E186E200E176E29C067
:1051900019F02AC01AF057EC27F0304A312A325061
:1051A000305C3150800A2F6E3350800A2F58D8A0BF
:1051B000EAD73DB00AD02BC020F02CC021F029C086
:1051C00022F02AC023F02CEC2AF02BC015F02CC0C2
:1051D00016F031EC2BF032501524296E3350162086
:1051E0002A6E1200000E15141D6E000E16141E6E8F
:1051F000800E17141F6E7F0E1814206E1D501E1087
:105200001F102010D8A408D0000E156E000E166EC8
:10521000000E176E000E186E000E19141D6E000E93
:105220001A141E6E800E1B141F6E7F0E1C14206E2F
:105230001D501E101F102010D8A408D0000E196E8B
:10524000000E1A6E000E1B6E000E1C6E1950151803
:105250000AE11A50161807E11B50171804E11C50F8
:105260001818D8B402D0D8901200D8801200D7C233
:1052700015F0D8C216F0000E186E000E176E000E54
:105280001A6E830E196E28EC22F060005FFBD9FFC6
:10529000600063FBDAFF600067FBDEFF60006BFB12
:1052A000DDFF020E0201D725C36F000ED821C46FA7
:1052B0009D0EC56FC40EC66FC651D8A4200EC76F11
:1052C000D00EC86FC851D8A4200EC96FE2EC2AF0E6
:1052D000020ED725296E000ED8212A6E9AEC2CF0EA
:1052E000060E296E2950D8A4200E2A6E9AEC2CF0B6
:1052F0001200000E1A6E18AE06D0176C181ED8B029
:10530000182A010E1A6E16AE06D0156C161ED8B0ED
:10531000162A010E1A1A000E1C6E000E1B6E175074
:105320001810D8B41CD0010E196E04D0D8901736BE
:105330001836192A18AEFAD7D8901B361C361750D3
:10534000155C18501658D8A005D01750155E185087
:10535000165A1B80D89018321732192EEDD71A50D2
:10536000D8B404D01B6C1C1ED8B01C2A1BC015F06E
:105370001CC016F01200000E3E01DE6F000EDF6F43
:10538000000EE06F000EE16F000EE46F000EE56F9F
:10539000000EEA6F000EEC6F000EF16F100EF36F4F
:1053A000000EF46F000EF56F000EF66F000EF76F33
:1053B000000EF96F000EFA6F000EFB6F000EFC6F0F
:1053C000020EFD6F070EFE6F000EFF6F940EF86F5A
:1053D0003901A19591859A0E156E5D0E166E000E1F
:1053E000176EAEEC2EF01200000E1A6E16AE06D03E
:1053F000156C161ED8B0162A010E1A6E18AE04D0FF
:10540000176C181ED8B0182A17501810D8B418D016
:10541000010E196E04D0D89017361836192A18AE16
:10542000FAD71750155C18501658D8A004D017504A
:10543000155E1850165AD89018321732192EF1D717
:105440001A50D8B404D0156C161ED8B0162A15C040
:1054500015F016C016F01200000E286E000E276E12
:105460000BD026C017F0186A22C019F023C01AF01A
:1054700057EC27F0274A282A27502024246E28504A
:105480002120256E600093F0F6FF600097F0F7FF93
:10549000000EF86E1F0EF76403D00800F55007D019
:1054A0006F00DBFFE1FF6F00DFFFE2FFE750266EDA
:1054B0002650D8A4D6D727C020F028C021F012004B
:1054C00017C01BF018C01CF015C01DF016C01EF050
:1054D0001B50196E1C501A6E1B4A1C2A600067F084
:1054E000F6FF60006BF0F7FF000EF86E600077F0DB
:1054F000D9FF60007BF0DAFF1D4A1E2A1F0EF764F9
:1055000003D00800F55007D06F00DBFFE1FF6F000C
:10551000DFFFE2FFE750DF6EDF50D8B41200D8D7CC
:10552000D0C038F0000EF66F000EF56F11D0CEC06F
:10553000AFF0CFC0B0F0380EB16FD1C0B2F0D2C072
:10554000B3F063EC15F00001AF51F527B051F6232D
:105550006000E3F0F6FF200EF76E000EF86E080014
:10556000F5500009D8A4E3D7F5C0CEF0F6C0CFF0CF
:105570001200000E126E000E116ED8901134D96E0A
:105580001234DA6E800ED926010EDA22DE50DE10D9
:10559000D8B40CD0D8901134D96E1234DA6E800E93
:1055A000D926010EDA22DE06000EDD5A114A122A31
:1055B00012BEE3D7125005E1060E115CD8B01200FE
:1055C000DCD71200C60ECA6F020ECB6FC3C2CCF27C
:1055D000C4C2CDF2000ED06F000ECF6F000ED66F9A
:1055E000000ED56FCC0E0001CE6F020ECF6FC5C27C
:1055F000D0F0CA0ED16F020ED26F90EC2AF00201E9
:10560000CF51C325D96ED051C421DA6E000EDF6EA2
:02561000120086
:105614006F00E8FF13F06F00ECFF14F03901A89D50
:105624003FC00FF040C010F0C5EC2DF00001DD517B
:10563400DE11DF11D8B40CD001D80AD00500FA6EFF
:10564400DD51FD6EDE51FE6EDF51FF6EFA50120029
:10565400600053F0FBFF60004FF0FAFF110015C02B
:1056640017F016C018F002D0154A162A600057F039
:10567400F6FF60005BF0F7FF000EF86E1F0EF76494
:1056840003D00800F55007D06F00DBFFE1FF6F0087
:10569400DFFFE2FFE7500009D8A4E6D71750155CF6
:1056A400156E18501658166E1200000E9B6E000EE2
:1056B4009C6E020E9D6E830E996E000E986E3901DB
:1056C400A89D98506F0064FE18F0196A18C019F06C
:1056D400186A18103F6E1950406E988DA60E156EFC
:1056E4005D0E166E000E176EA7EC2EF0010E9A6E6C
:1056F4001200000E331A000E341A000E351A800EF2
:10570400361A2FC015F030C016F031C017F032C071
:1057140018F033C019F034C01AF035C01BF036C08D
:105724001CF048EC1AF015C02FF016C030F017C06A
:1057340031F018C032F01200D28A000ED2BE010E2F
:10574400156ED29E550ED46EAA0ED46ED490000E51
:10575400D76E000ED66E080ED56E550ED46EAA0EF8
:10576400D46ED48015B002D0D29E01D0D28E39012D
:10577400838983878981888D818512006F00E8FF82
:1057840006F06F00ECFF07F03901A1950001EC5120
:10579400ED11EE11D8B40CD001D80AD00500FA6E80
:1057A400EC51FD6EED51FE6EEE51FF6EFA5012009B
:1057B40060001FF0FBFF60001BF0FAFF1100010EF8
:1057C4001B6E200E15181610D8B414D0F70E176ED1
:1057D400FF0E186E15C019F016C01AF017501926CE
:1057E40018501A221A5004E1050E195CD8A002D0F0
:1057F400000E1B6E1BC015F0166A12004650D8B47A
:10580400FDD7000E4724D96EDA6A010EDA22DF5082
:10581400456E000E4724D96EDA6A020EDA22DF5092
:10582400156E472A3F0E476402D0000E476E3901B9
:0A5834009397460693871550120063
:105840006F00E8FF0BF06F00ECFF0CF00001EF5170
:10585000F011F111D8B40CD001D80AD00500FA6EBD
:10586000EF51FD6EF051FE6EF151FF6EFA501200D5
:0E587000600033F0FBFF60002FF0FAFF110024
:105880006F00E8FF0DF06F00ECFF0EF00001F25129
:10589000F311F411D8B40CD001D80AD00500FA6E77
:1058A000F251FD6EF351FE6EF451FF6EFA5012008C
:1058B00060003BF0FBFF600037F0FAFF1100156E4F
:1058C0004950D8B4FDD7390193B904D0600057F0DE
:1058D000EAFD11D09399400E4B24D96EDA6A010E7D
:1058E000DA22600057F0DFFF4B2A3F0E4B6402D0F4
:1058F000000E4B6E490693891200BF0E1D6EFF0EFF
:105900001E6E1BC01FF01CC020F01D501F261E5015
:10591000202220500AE11A0E1F5CD8B006D0200EBB
:105920001B101B6E1C501C6E12001BC01BF01CC0F9
:105930001CF01200010E2B6E29C020F02AC021F0AD
:10594000000E226E000E236E2CEC2AF021BE1200F7
:10595000000E186E0A0E176E000E196E000E1A6EEB
:1059600057EC27F018BE1200000E2B6E120064ECEC
:105970002EF04450020DF350390FD96EDA6A6000F0
:1059800007F0DEFF60000BF0DDFF442A4404056EE3
:10599000010E056402D0000E446E600013F1F1FEAA
:1059A000010E0001FB6F12006F00E8FF09F06F00AD
:1059B000ECFF0AF03901A991414A422A425004E120
:1059C000170E415CD8A006D0B3EC2DF0000E426E4D
:1059D000000E416E60002BF0FBFF600027F0FAFF25
:1059E0001100BF0E176EFF0E186E15C019F016C00D
:1059F0001AF01750192618501A221A5006E11A0EDA
:105A0000195CD8B002D0010E01D0000E156E166AD6
:105A10001200D00E176EFF0E186E15C019F016C0CA
:105A20001AF01750192618501A221A5006E10A0EB9
:105A3000195CD8B002D0010E01D0000E156E166AA6
:105A400012001550161017101810D8B408D0000EF8
:105A5000151A000E161A000E171A800E181A15C005
:105A600015F016C016F017C017F018C018F0120085
:105A7000400E496011D0400E4A24D96EDA6A010EF8
:105A8000DA22DF503D01EA6F4A2A3F0E4A6402D013
:105A9000000E4A6E492A1200390193991200010E34
:105AA000966E200E956E000E976E4D0E936E000E44
:105AB000926EA99199819C0E156E5D0E166E000E68
:105AC000176EA0EC2EF094681200155017026F00AC
:105AD000CCFF19F06F00D0FF1AF015501802F350E8
:105AE0001A2616501702F3501A2619C015F01AC0BC
:105AF00016F012009EEC2BF0E8EC2DF0E0EC25F017
:105B000019EC2EF04FEC2DF0BBEC29F0B5EC2EF09B
:105B100057EC2BF0FCEC26F027EC2EF0120076EC84
:105B20002EF00009D8B40BD000EC2CF0176E1650F4
:105B3000D96EDA6A60005FF0DFFF010E1200000E1E
:105B400012002CC029F02DC02AF09AEC2CF06C0E1B
:105B5000296E2950D8A4200E2A6E9AEC2CF0010E42
:105B60000001FD6F12000001E951EA11EB11D8B4F8
:105B7000120001D812000500FA6EE951FD6EEA51DB
:105B8000FE6EEB51FF6EFA5012009AA409D09A9063
:105B9000600043F099FF60003FF098FF9A80120088
:105BA000600043F099FF60003FF098FF1200C40EC0
:105BB0000001D36F020ED46F000ECE6F000ECF6FB8
:105BC000C3C2D0F0D30ED16FD26B90EC2AF012008A
:105BD000000EC06F000EC16F000EC26F000EC36FCB
:105BE000000EC46F000EC56F000EC66F000EC76FAB
:105BF0001200000E4824D96EDA6A020EDA226F0013
:105C0000A3F7DFFF482A3F0E486402D0000E486E1B
:105C1000462A1200BEA002D0010E01D0000EFF0ADB
:105C2000086EBE500818FE0B0818BE6E010EFC6F01
:105C30001200200E3901D96F000EDB6F000EDD6FF0
:105C4000050EDF6F000EDE6FDCB11200FDD7020E15
:105C50003D01146F400E156F000E166F000E1C6F85
:105C6000080E196FC4961200400E0201D76F020E83
:105C7000D86FEF0ED96F010EDA6F37EC29F01200F2
:105C8000B20E296E2950D8A4200E2A6E9AEC2CF060
:105C9000000E0001FD6F1200850E296E2950D8A458
:105CA000200E2A6E9AEC2CF0020E0001FD6F1200FD
:105CB000286E756C6C2900F3425B00F6985C00F06E
:075CC000805C000000000001
:105CC8003E01F051046E036AEF510324016E000E89
:105CD8000420026E12002CC029F02DC02AF09AEC84
:105CE8002CF012004650D8B402D0010E1200000E5B
:105CF800120015C0EFF016C0F0F017C0F1F0120056
:105D080015C0F2F016C0F3F017C0F4F0120015C079
:105D1800E3F016C0E4F017C0E5F0120015C0E6F095
:105D280016C0E7F017C0E8F0120015C0E0F016C082
:105D3800E1F017C0E2F0120015C0E9F016C0EAF071
:105D480017C0EBF0120015C0DDF016C0DEF017C06A
:105D5800DFF0120015C0ECF016C0EDF017C0EEF041
:105D68001200A40E3E019E6F1F0E9C6F1200166E4D
:105D780016505FEC2CF01200156E600057F09CFE78
:105D880012003E019C511200F9EC2DF0120001D0D6
:015D9800C446
:045D9A0012001200E1
:085DA0001100120012001200B4
:020000040020DA
:10000000FF0FFF0FFF0FFF0FFF0FFF0FFF0FFF0F80
:020000040030CA
:0A000000AFFFFFFF9FFFFFFFFFFFB0
:00000001FF
