:0400000057EF00F0C6
:1000080074527452745274527452745274527452B8
:10001800745274522C5074527452745274527452F2
:100028003D507452745274527452745274527452D1
:10003800745274527452F74FE54FAA50B950745223
:1000480074527452745274522B0074527452745213
:100058007452745274527452745274527452745268
:100068007452745274527452745274527452745258
:10007800745274522B007452745274522B002B0019
:100088002B002B002B002B002B002B009A4F7452B7
:1000980002517452745274522B002B002B002B0007
:0A00A80074527452FF008EEF97F0BF
:10FE92000002400050000D0A20436F6D6D616E64D8
:10FEA2002070726F636573736F722056302E310D3E
:10FEB2000A002050532054657374202531753A206E
:10FEC200444143204F55542025342E34756D56201D
:10FED200423D252E32752C20537570706C7920525C
:10FEE2006561644261636B2025342E34756D562042
:10FEF200563D252B362E3166562025342E34756D0F
:10FF02005620493D252B332E31666D410D0A000DD9
:10FF12000A2052616D7020746F20313030305644A7
:10FF220043204F4E200D0A000D0A20537465616470
:10FF3200792031303030564443204F4E200D0A0094
:10FF420053504920646973706C61792074657374CD
:10FF5200696E67000D0A20566F6C746167652044F4
:10FF62004F574E200D0A000D0A20566F6C746167C0
:10FF720065204F4646200D0A000D0A20566F6C740C
:10FF8200616765204C4F57200D0A00446973706CFD
:10FF920061792074657374696E672020000D0A20F0
:10FFA200566F6C74616765205550200D0A000D0A6A
:10FFB200204275696C642025732025730D0A004D5B
:10FFC200617220323220323032320031313A3038EE
:10FFD2003A333400494E46004E414E00696E660087
:10FFE2006E616E006C6C73006C6600706400706C05
:0EFFF20000706F007072007073007075000078
:020000040001F9
:10000000000EAC6F000EAB6F8DC0BBF08EC0BCF0AD
:100010008FC0BDF090C0BEF0BEAF16D0000EAC6F6A
:10002000010EAB6FBBC01EF0BCC01FF0BDC020F006
:10003000BEC021F09AECA2F01EC0BBF01FC0BCF005
:1000400020C0BDF021C0BEF0000EC46F000EC36F13
:10005000F5C0B0F0F6C0B1F0AB51AC11D8A402D0ED
:1000600034A413D0AB51AC11D8A404D0000E986FB7
:100070002B0E03D0000E986F2D0E976F97C080F255
:10008000C34BC42BB007D8A0B107BBC01EF0BCC087
:100090001FF0BDC020F0BEC021F02DEC99F01E0471
:1000A0001F10D8A443D0BF0E926FFF0E936F9151D3
:1000B000946F956B9251942793519523955111E12B
:1000C0001A0E945DD8B00DD0800EC3251E6E020EA0
:1000D000C4211F6ED60E206EFF0E216EA8EC9DF07F
:1000E0000CD0800EC3251E6E020EC4211F6EDE0EC4
:1000F000206EFF0E216EA8EC9DF00001FD0EB027D2
:10010000FF0EB1238BC06CF08CC06DF0800E00012F
:100110006E6F020E6F6FB0C070F0B1C071F0B0ECD6
:100120009BF06CC08BF06DC08CF01200BBC01EF059
:10013000BCC01FF0BDC020F0BEC021F02DEC99F076
:100140001E501F10D8A42BD0BF0E926FFF0E936FBE
:100150009151946F956B925194279351952395519A
:1001600011E11A0E945DD8B00DD0800EC3251E6E1D
:10017000020EC4211F6EDA0E206EFF0E216EA8EC57
:100180009DF0BBD7800EC3251E6E020EC4211F6ECC
:10019000E20E206EFF0E216EA8EC9DF0AED7000E91
:1001A000C56F000EC66F800EC76F3F0EC86F000E82
:1001B000C26F000EC16FBBC01EF0BCC01FF0BDC03F
:1001C00020F0BEC021F0000E226E000E236E000E45
:1001D000246E000E256EFDEC9BF0D8A01DD074D0CF
:1001E000C5C066F0C6C067F0C7C068F0C8C069F097
:1001F000000E6A6F000E6B6F200E6C6F410E6D6FFC
:10020000BCEC8AF066C0C5F067C0C6F068C0C7F035
:1002100069C0C8F0C14BC22BBBC07FF0BCC080F02E
:10022000BDC081F0BEC082F0000E6A6F000E6B6F21
:10023000200E6C6F410E6D6FC5C066F0C6C067F0D2
:10024000C7C068F0C8C069F0BCEC8AF066C083F033
:1002500067C084F068C085F069C086F0F7EC97F05D
:10026000D8A01ED0BDD7C5C01EF0C6C01FF0C7C0E5
:1002700020F0C8C021F0000E226E000E236E200E6A
:10028000246E410E256E62EC8FF01EC0C5F01FC0BB
:10029000C6F020C0C7F021C0C8F0C107D8A0C2076F
:1002A000BBC07FF0BCC080F0BDC081F0BEC082F09A
:1002B000C5C083F0C6C084F0C7C085F0C8C086F052
:1002C000F7EC97F0D8A0CFD791C024F0256A90EC36
:1002D000A1F02450B26FB2C0AFF0670EB219D8A42B
:1002E00019D0F751F811D8A404D0000EF86F010E00
:1002F000F76FF8BF05D0F85108E1F705D8B005D081
:10030000000EAE6F060EAD6F08D0F7C0ADF0F8C0AE
:10031000AEF003D0F8AFF9D7F3D7670EB219D8A46F
:1003200022D0C2AF06D0FC0EC15DFF0EC259D8A0CC
:1003300018D0FF0E926FFF0E936FADC094F0AEC059
:1003400095F09251942793519523C151945D955105
:10035000800A966FC251800A9659D8A002D0660EC4
:1003600001D0650EAF6FADC0A3F0AEC0A4F0670EB4
:10037000B219D8A405D0660EAF19D8B4C2AF02D056
:10038000A34BA42B660EAF19D8A416D0C2AF0CD0C5
:10039000000EC56F000EC66F800EC76F3F0EC86F90
:1003A000000EC26F000EC16F670EB219D8B404D030
:1003B000C151A327C251A423000EC06F000EBF6F0E
:1003C000BBC0B3F0BCC0B4F0BDC0B5F0BEC0B6F0A9
:1003D000C5C0A5F0C6C0A6F0C7C0A7F0C8C0A8F0A9
:1003E0007AD0B3C01EF0B4C01FF0B5C020F0B6C0C4
:1003F00021F0C5C022F0C6C023F0C7C024F0C8C099
:1004000025F062EC8FF01EC071F01FC072F020C0AA
:1004100073F021C074F05DEC92F071C0B7F072C05F
:10042000B8F073C0B9F074C0BAF0B7C01EF0B8C06D
:100430001FF0B9C020F0BAC021F0F3EC99F01EC053
:10044000A9F01FC0AAF0B3C07FF0B4C080F0B5C05F
:1004500081F0B6C082F0C5C06AF0C6C06BF0C7C0FC
:100460006CF0C8C06DF0B7C066F0B8C067F0B9C036
:1004700068F0BAC069F0BCEC8AF066C083F067C06F
:1004800084F068C085F069C086F012ECA0F07FC0EF
:10049000B3F080C0B4F081C0B5F082C0B6F0C5C082
:1004A0001EF0C6C01FF0C7C020F0C8C021F0000E6B
:1004B000226E000E236E200E246E410E256E62EC1D
:1004C0008FF01EC0C5F01FC0C6F020C0C7F021C00D
:1004D000C8F0BF4BC02BA351BF5DC051800A926FC3
:1004E000A451800A9259D8A07CD7C5C066F0C6C076
:1004F00067F0C7C068F0C8C069F0000E6A6F000EF0
:100500006B6FA00E6C6F400E6D6FBCEC8AF066C016
:10051000B7F067C0B8F068C0B9F069C0BAF0B3C04E
:100520007FF0B4C080F0B5C081F0B6C082F0B7C033
:1005300083F0B8C084F0B9C085F0BAC086F0F7EC9B
:1005400097F0D8A015D0B3C01EF0B4C01FF0B5C04E
:1005500020F0B6C021F0B7C022F0B8C023F0B9C077
:1005600024F0BAC025F0FDEC9BF0D8B0A9B108D0BA
:10057000000EB76F000EB86F000EB96F000EBA6FA5
:10058000BBC01EF0BCC01FF0BDC020F0BEC021F03B
:10059000B7C022F0B8C023F0B9C024F0BAC025F02B
:1005A00064EC8CF01EC0B3F01FC0B4F020C0B5F0F6
:1005B00021C0B6F0B3C07FF0B4C080F0B5C081F008
:1005C000B6C082F0000E6A6F000E6B6F200E6C6F6B
:1005D000410E6D6FA5C066F0A6C067F0A7C068F0B9
:1005E000A8C069F0BCEC8AF066C083F067C084F0F4
:1005F00068C085F069C086F0F7EC97F0D8A022D0EB
:10060000C14BC22BA5C066F0A6C067F0A7C068F0BA
:10061000A8C069F0000E6A6F000E6B6F200E6C6F41
:10062000410E6D6FBCEC8AF066C0A5F067C0A6F005
:1006300068C0A7F069C0A8F0660EAF19D8A402D0B0
:10064000A34BA42BA5C0C5F0A6C0C6F0A7C0C7F099
:10065000A8C0C8F0650EAF19D8B405D0C1C0A1F0CC
:10066000C2C0A2F004D0000EA26F000EA16F000E57
:10067000A06F000E9F6F000E9E6F000E9D6F000E0C
:10068000C06F000EBF6FC4D0B3C01EF0B4C01FF067
:10069000B5C020F0B6C021F0C5C022F0C6C023F01E
:1006A000C7C024F0C8C025F062EC8FF01EC071F006
:1006B0001FC072F020C073F021C074F05DEC92F0A6
:1006C00071C0B7F072C0B8F073C0B9F074C0BAF0BE
:1006D000B7C01EF0B8C01FF0B9C020F0BAC021F0FA
:1006E000F3EC99F01EC0A9F01FC0AAF034B80CD0EA
:1006F000A951AA11D8A408D0670EB219D8B4A2AFD4
:1007000003D09D4B9E2B39D09F51A011D8B4A2AFDE
:1007100022D0800EC325D96E020EC421DA6E2E0EB1
:10072000DF6EC34BC42BB007D8A0B107000EA06F7B
:10073000010E9F6F10D0800EC325D96E020EC4210A
:10074000DA6E300EDF6EC34BC42BB007D8A0B107F2
:100750009D07D8A09E079D519E11D8A4ECD7800E6E
:10076000C325D96E020EC421DA6EA951300FDF6E97
:10077000C34BC42BB007D8A0B107B3C07FF0B4C03F
:1007800080F0B5C081F0B6C082F0C5C06AF0C6C0C6
:100790006BF0C7C06CF0C8C06DF0B7C066F0B8C0F1
:1007A00067F0B9C068F0BAC069F0BCEC8AF066C006
:1007B00083F067C084F068C085F069C086F012ECF1
:1007C000A0F07FC0B3F080C0B4F081C0B5F082C0AB
:1007D000B6F0C5C01EF0C6C01FF0C7C020F0C8C02C
:1007E00021F0000E226E000E236E200E246E410EAC
:1007F000256E62EC8FF01EC0C5F01FC0C6F020C091
:10080000C7F021C0C8F0A107D8A0A207BF4BC02BDA
:10081000A351BF5DC051800A926FA451800A9259C2
:10082000D8B008D0C4BF30D7C45104E14B0EC35D6B
:10083000D8A02AD79F51A011D8B434A80AD0800ECE
:10084000C325D96E020EC421DA6E2E0EDF6EC34BA5
:10085000C42B800EC325D96E020EC421DA6E000EA1
:10086000DF6E650EAF19D8A44DD4000EC06F4F0EC9
:10087000BF6F800EBF25D96E020EC021DA6E000E4A
:10088000DF6E000EAC6F000EAB6FC2AF08D0000E73
:10089000AC6F010EAB6FC16DC21FD8B0C22B000E82
:1008A000AE6F020EAD6F2AD0BF07D8A0C007800E72
:1008B000BF25D96E020EC021DA6EC1C01EF0C2C0C3
:1008C0001FF0000E216E0A0E206E3AEC9DF01E50B5
:1008D000300FDF6EC1C01EF0C2C01FF0000E216ECF
:1008E0000A0E206E42EC9CF01EC0C1F01FC0C2F088
:1008F000AD07D8A0AE07B007D8A0B107C151C2114B
:10090000D8A4D2D7AEBF05D0AE51CEE1AD05D8B098
:10091000CBD7BF07D8A0C007AB51AC11D8A404D027
:10092000000E9A6F2B0E03D0000E9A6F2D0E996F4A
:10093000800EBF25D96E020EC021DA6E600067F20C
:10094000DFFFB007D8A0B107BF07D8A0C007BF0E10
:10095000926FFF0E936F9151946F956B9251942704
:1009600093519523955104E11A0E945DD8A004D0BB
:10097000000E9C6F650E03D0000E9C6F450E9B6FA2
:10098000800EBF25D96E020EC021DA6E60006FF2B4
:10099000DFFFB007D8A0B107800EC3251E6E020E80
:1009A000C4211F6E800EBF25206E020EC021216E55
:1009B000A8EC9DF082EF80F060002FF3D9FF60007B
:1009C00033F3DAFF6F007BFFF6FF6F0077FFF7FF6F
:1009D000000EF86E0800F550250AD8A4ABD36000CD
:1009E0002FF3D9FF600033F3DAFFDE2A000EDD2299
:1009F000000EF66F000EF56FF5C034F0F6C035F05E
:100A0000F769F869000EDE6F000E16D034806000C2
:100A10002FF3D9FF600033F3DAFFDE2A000EDD2268
:100A200034D03482F4D73484F2D73486F0D7348883
:100A3000EED7000EDE6F010EDD6F27D060002FF3C2
:100A4000D9FF600033F3DAFF6F007BFFF6FF6F0022
:100A500077FFF7FF000EF86E0800F550CF6FD06BF0
:100A6000D051000AD8A4E5D7CF51200AD8B4DDD799
:100A7000030AD8B4DCD7080AD8B4D5D7060AD8B444
:100A8000C5D71D0AD8B4CDD7D4D7DD51DE11D8B41F
:100A9000D5D734B0349260002FF3D9FF600033F320
:100AA000DAFF6F007BFFF6FF6F0077FFF7FF000EA6
:100AB000F86E0800F5502A0AD8A42DD060002FF354
:100AC000D9FF600033F3DAFFDE2A000EDD2260007A
:100AD00037F3D9FF60003BF3DAFF6F007CFFCFF004
:100AE000020EDE266F007CFFD0F0000EDD226000DB
:100AF0003FF3D9FF600043F3DAFF6F0078FFF5F0B2
:100B00006F0074FFF6F0F6AF42D03480F56DF61F3B
:100B1000D8B0F62B3CD060002FF3D9FF600033F340
:100B2000DAFF6F0078FF60F06F0074FF61F080EC17
:100B300096F060C0F5F061C0F6F009D060002FF3C8
:100B4000D9FF600033F3DAFFDE2A000EDD22D00E7B
:100B5000CF6FFF0ED06F60002FF3D9FF600033F32B
:100B6000DAFF6F007BFFF6FF6F0077FFF7FF000EE5
:100B7000F86E0800F550D16FD26BCF51D127D0510C
:100B8000D223D25104E10A0ED15DD8A0D7D760009C
:100B90002FF3D9FF600033F3DAFF6F007BFFF6FF1E
:100BA0006F0077FFF7FF000EF86E0800F5502E0A71
:100BB000D8A482D0000EF86F000EF76F60002FF3FC
:100BC000D9FF600033F3DAFFDE2A000EDD22600079
:100BD0002FF3D9FF600033F3DAFF6F007BFFF6FFDE
:100BE0006F0077FFF7FF000EF86E0800F5502A0A35
:100BF000D8A426D060002FF3D9FF600033F3DAFFCA
:100C0000DE2A000EDD22600037F3D9FF60003BF3DF
:100C1000DAFF6F007CFFCFF0020EDE266F007CFF54
:100C2000D0F0000EDD2260003FF3D9FF600043F3F7
:100C3000DAFF6F0078FFF7F06F0074FFF8F03CD038
:100C400060002FF3D9FF600033F3DAFF6F0078FF05
:100C500060F06F0074FF61F080EC96F060C0F7F018
:100C600061C0F8F009D060002FF3D9FF600033F3C2
:100C7000DAFFDE2A000EDD22D00ECF6FFF0ED06F1E
:100C800060002FF3D9FF600033F3DAFF6F007BFFC2
:100C9000F6FF6F0077FFF7FF000EF86E0800F550C3
:100CA000D16FD26BCF51D127D051D223D25104E191
:100CB0000A0ED15DD8A0D7D760002FF3D9FF60000E
:100CC00033F3DAFF6F007BFFF6FF6F0077FFF7FF6C
:100CD000000EF86E0800F550246E256A90ECA1F025
:100CE0002450E26FE251D8B443D060002FF3D9FF13
:100CF000600033F3DAFF6F0078FFCFF06F0074FF0E
:100D0000D0F0010ECF27000ED02360003FF3F6FF96
:100D1000600043F3F7FF000EF86E0800F550246EF4
:100D2000256A90ECA1F02450E36FE351D8B420D0B1
:100D300060002FF3D9FF600033F3DAFF6F0078FF14
:100D4000CFF06F0074FFD0F0020ECF27000ED0233B
:100D500060003FF3F6FF600043F3F7FF000EF86E0C
:100D60000800F550246E256A90ECA1F02450E46F41
:100D7000660EE219D8A452D060002FF3D9FF6000AC
:100D800033F3DAFF6F007BFFF6FF6F0077FFF7FFAB
:100D9000000EF86E08006F00D4FFE1F060002FF342
:100DA000D9FF600033F3DAFFDE2A000EDD22600097
:100DB00037F3D9FF60003BF3DAFF6F007CFFCFF021
:100DC000040EDE266F007CFFD0F0000EDD226000F6
:100DD0003FF3D9FF600043F3DAFF6F0078FFE5F0DF
:100DE0006F0078FFE6F06F0078FFE7F06F0078FFA4
:100DF000E8F0C9C08BF0CAC08CF0E5C08DF0E6C049
:100E00008EF0E7C08FF0E8C090F0E1C091F000EC08
:100E100080F08BC0C9F08CC0CAF01200E20E606F87
:100E2000616BEA0E626FFF0E636F000E656F020E5C
:100E3000646F32EC93F060516111D8A467D0600008
:100E40002FF3D9FF600033F3DAFF6F0078FFCFF0A4
:100E50006F0074FFD0F0010ECF27000ED02360008A
:100E60003FF3F6FF600043F3F7FF000EF86E080053
:100E70006F00D4FFE1F0BF0ECF6FFF0ED06F6000A8
:100E80002FF3D9FF600033F3DAFF6F007BFFF6FF2B
:100E90006F0077FFF7FF000EF86E0800F550D16F76
:100EA000D26BCF51D127D051D223D25102E11A0EA9
:100EB000D15D600037F3D9FF60003BF3DAFF6F00CC
:100EC0007CFFCFF0040EDE266F007CFFD0F0000E1A
:100ED000DD2260003FF3D9FF600043F3DAFF6F00CB
:100EE00078FFE5F06F0078FFE6F06F0078FFE7F03D
:100EF0006F0078FFE8F0020E60002FF3D9FF60006A
:100F000033F3DAFFDE26000EDD2273D760002FF305
:100F1000D9FF600033F3DAFF6F007BFFF6FF6F004D
:100F200077FFF7FF000EF86E0800F550730AD8B48B
:100F30001AD060002FF3D9FF600033F3DAFF6F009F
:100F400078FF60F06F0074FF61F0E60E626FFF0ED5
:100F5000636F000E656F030E646F32EC93F06051A7
:100F60006111D8A450D060002FF3D9FF600033F393
:100F7000DAFF6F007BFFF6FF6F0077FFF7FF000ED1
:100F8000F86E0800F550730AD8B404D0000EE06F74
:100F9000030E03D0000EE06F010EDF6F60002FF331
:100FA000D9FF600033F3DAFFDF51DE26E051DD22A6
:100FB000600037F3D9FF60003BF3DAFF6F007CFF7E
:100FC000CFF0020EDE266F007CFFD0F0000EDD2297
:100FD00060003FF3D9FF600043F3DAFF6F0078FF52
:100FE000DBF06F0074FFDCF0C9C065F0CAC066F0CA
:100FF000DBC067F0DCC068F090EC94F065C0C9F02D
:1010000066C0CAF0120060002FF3D9FF600033F30E
:10101000DAFF6F007BFFF6FF6F0077FFF7FF000E30
:10102000F86E0800F550750AD8A44AD060002FF376
:10103000D9FF600033F3DAFFDE2A000EDD22600004
:1010400037F3D9FF60003BF3DAFF6F007CFFCFF08E
:10105000020EDE266F007CFFD0F0000EDD22600065
:101060003FF3D9FF600043F3DAFF6F0078FFD1F060
:101070006F0074FFD2F0D1C0D3F0D2C0D4F0D56BE2
:10108000D66BD76BD86BD96BDA6BC9C079F0CAC095
:101090007AF0D3C07BF0D4C07CF0D5C07DF0D6C050
:1010A0007EF0D7C07FF0D8C080F0D9C081F0DAC020
:1010B00082F085EC91F079C0C9F07AC0CAF01200D4
:1010C00060002FF3D9FF600033F3DAFF6F007BFF7E
:1010D000F6FF6F0077FFF7FF000EF86E0800F5507F
:1010E000250AD8A419D060002FF3D9FF600033F38C
:1010F000DAFFDE2A000EDD22000E216E250E206EA4
:10110000C9C022F0CAC023F0ACEC9AF0000E000176
:10111000CA6F010EC96F120060002FF3D9FF600083
:1011200033F3DAFFDE2A000EDD22000ECA6F000E56
:10113000C96F120060002FF3D9FF600033F3DAFFAC
:101140006F007BFFF6FF6F0077FFF7FF000EF86E72
:101150000800F550206E216AC9C022F0CAC023F0F1
:10116000ACEC9AF060002FF3D9FF600033F3DAFFA4
:10117000DE2A000EDD22CAD7FF00FF00FF00FF00BD
:10118000FF00FF00FF00FF00000000000000000063
:10119000000000000000000000000000000000004F
:1011A000000000000000000000000000000000003F
:1011B000000000000000000000000000000000002F
:1011C000000000000000000000000000000000001F
:1015700000000000000000006951800B726F69518B
:101580006925746F68BF74817451D8B40DD0742903
:10159000D8A408D0000E666F000E676F000E686F4B
:1015A000000E696F688F08D0000E666F000E676FBF
:1015B000000E686F000E696F6D51800B721B6D51CC
:1015C0006D25736F6CBF73817351D8B40DD07329BF
:1015D000D8A408D0000E6A6F000E6B6F000E6C6FFF
:1015E000000E6D6F6C8F08D0000E6A6F000E6B6F6F
:1015F000000E6C6F000E6D6F7351D8B403D0745130
:10160000D8A409D0000E666F000E676F000E686FD9
:10161000000E696F12006C5166036F00CCFF7DF005
:101620006F00D0FF7EF07D51756F766B776B786BB6
:101630007E51796F7A6B7B6B7C6B6B5167036F00AC
:10164000CCFF7DF06F00D0FF7EF07D517527000E3E
:101650007623772378237E517927000E7A237B2304
:101660007C236A5168036F00CCFF7DF06F00D0FFD0
:101670007EF07D517527000E7623772378237E51E7
:101680007927000E7A237B237C2377C078F076C0FD
:1016900077F075C076F0756B6A5167036F00CCFF09
:1016A0007DF06F00D0FF7EF07D5175277E5176234F
:1016B000000E7723000E78236B5166036F00CCFF7A
:1016C0007DF06F00D0FF7EF07D5175277E5176232F
:1016D000000E7723000E782377C078F076C077F07D
:1016E00075C076F0756B6A5166036F00CCFF7DF0B4
:1016F0006F00D0FF7EF07D5175277E517623000E5E
:101700007723000E78236C5167036F00CCFF7DF0C8
:101710006F00D0FF7EF07D5179277E517A23000E35
:101720007B23000E7C236B5168036F00CCFF7DF0A0
:101730006F00D0FF7EF07D5179277E517A23000E15
:101740007B23000E7C236C5168036F00CCFF7DF07F
:101750006F00D0FF7EF07D516E6F7E516F6F706BAA
:10176000716B70C071F06FC070F06EC06FF06E6B17
:101770006E5179276F517A2370517B2371517C23ED
:1017800078517927000E7A237B237C2377C078F069
:1017900076C077F075C076F0756B735174C06EF0DB
:1017A0006F6B6E27000E6F23820E6E257D6FFF0E0E
:1017B0006F217E6F0FD0D89079377A377B377C379F
:1017C00078BF7981D89075377637773778377D0746
:1017D000D8A07E077BAFEFD7000E736F78AF17D01E
:1017E000FF0E75156E6FFF0E76156F6FFF0E771576
:1017F000706F7F0E7815716F6E516F1170117111CE
:10180000D8B403D0010E736F02D079B1FBD77351F6
:10181000D8B41FD0010E7927000E7A237B237C23B6
:101820007CA117D079C06EF07AC06FF07BC070F0E9
:101830007CC071F07135713370336F336E336EC0AD
:1018400079F06FC07AF070C07BF071C07CF07D4B96
:101850007E2B7EBF0DD07E5103E17D29D8A008D01C
:10186000000E796F000E7A6F800E7B6F7F0E20D096
:101870007EBF05D07E510EE17D05D8B00BD0000EA5
:10188000796F000E7A6F000E7B6F000E7C6F000E7A
:10189000726F0FD07DC074F0FF0E7917FF0E7A17AC
:1018A0007F0E7B17000E7C1774B17B8FD89074313C
:1018B0007C6F72517C1379C066F07AC067F07BC090
:1018C00068F07CC069F012002150800B646F2150D9
:1018D0002124666F20BE66816651D8B40DD066297A
:1018E000D8A408D0000E1E6E000E1F6E000E206ED3
:1018F000000E216E208E06D0000E1E6E000E1F6E92
:10190000000E206E000E216E2550800B656F645115
:101910006519D8A4648D25502524656F24BE658182
:101920006551D8B40DD06529D8A408D0000E226E18
:10193000000E236E000E246E000E256E248E06D03F
:10194000000E226E000E236E000E246E000E256E19
:101950006651655DD8B022D064AD02D0800E641BA4
:1019600066C067F065C066F067C065F01EC067F0CE
:1019700022C01EF067C022F01FC067F023C01FF016
:1019800067C023F020C067F024C020F067C024F0B7
:1019900021C067F025C021F067C025F0000E676FF9
:1019A000665165C060F0616B605F000E615B61BF96
:1019B0002CD0615104E11A0E605DD8A026D01E50D3
:1019C0001F1020102110D8B402D0010E01D0000E3B
:1019D000676F000E1E6E000E1F6E000E206E000E52
:1019E000216E65C066F015D067A105D0D89067312B
:1019F0000109676F02D0D89067331EB0678F21341A
:101A0000213220321F321E32662B6551665DD8A00E
:101A1000EBD764BD28D06651D8A409D0000E1E6E45
:101A2000000E1F6E000E206E000E216E120022505E
:101A30001E2623501F22245020222550212221A07F
:101A400071D067A105D0D89067310109676F02D0C6
:101A5000D89067331EB0678F2134213220321F3275
:101A60001E32662B5FD022501E5C23501F5824501C
:101A700020582150800A606F2550800A6059D8B0E4
:101A800025D01E50225C606F1F502358616F20507C
:101A90002458626F21502558636FFF0E60251E6E1B
:101AA000FF0E61211F6EFF0E6221206EFF0E63216B
:101AB000216E800E641B676D6751D8A40FD0010E94
:101AC0001E26000E1F222022212208D022501E5E38
:101AD00023501F5A2450205A2550215A1E501F109F
:101AE00020102110D8A41CD06751D8A419D0000E02
:101AF0001E6E000E1F6E000E206E000E216E120074
:101B0000D8901E361F362036213667BF1E8067A14B
:101B100002D0D88001D0D89067376651D8A4660724
:101B200020AEEED7000E656F67AF0BD067C060F0D8
:101B30007F0E6017D8B403D0010E656F02D01EB0BF
:101B4000FBD76551D8B420D0010E1E26000E1F22EF
:101B50002022212221A018D01EC060F01FC061F0F9
:101B600020C062F021C063F06335633362336133B8
:101B7000603360C01EF061C01FF062C020F063C01F
:101B800021F06629D8A4662B6629D8B403D0665103
:101B9000D8A40DD0000E1E6E000E1F6E000E206E1B
:101BA000000E216E6651D8A402D0000E646F66A1AB
:101BB00002D0208E01D0209ED8906631216E64BF65
:101BC000218E1EC01EF01FC01FF020C020F021C0BB
:101BD00021F01200F9ECA0F0BD92BE945C0E1E6ED6
:101BE000470E1F6E010E206E99ECA4F0160E1E6EAD
:101BF0003E0E1F6E010E206EA0ECA4F08C0E1E6E29
:101C0000390E1F6E010E206EB5ECA4F0000E3E01E1
:101C1000F16F000E1F6E000E1E6E3AECA2F0000E69
:101C20001F6E000E1E6E21ECA2F0B80E1E6E490E45
:101C30001F6E010E206EAEECA4F0D28ED28C00018D
:101C4000FA51C7ECA4F093EC99F00C0E4CECA4F014
:101C5000420E00016A6FFF0E6B6F84EC9CF0E5ECA6
:101C6000A3F0000E0101F36F050EF46FB00EF56FD7
:101C7000FF0EF66FC10EF76FFF0EF86FCD0EF96F06
:101C8000FF0EFA6F36EC9EF0000E00016C6F050E31
:101C90006D6F18ECA1F00001FC51D8B4FCD7840E94
:101CA0000101005D030E0159D8B004D0000E50ECC4
:101CB0009AF00DD0090E005D070E0159D8A004D08E
:101CC000010E50EC9AF003D0020E50EC9AF0010194
:101CD000035108E1320E025DD8B004D0030E50EC7F
:101CE0009AF00DD0035104E1970E025DD8A004D004
:101CF000040E50EC9AF003D0050E50EC9AF0000E52
:101D00000001FC6FCABC04D00B0E50EC9AF003D05B
:101D1000090E50EC9AF0CAB804D0070E50EC9AF0B5
:101D200003D0060E50EC9AF00001FD51D8B4B3D7A1
:101D300000C11EF001C11FF0206A216A000EDFEC15
:101D400095F01EC066F01FC067F020C068F021C08B
:101D500069F0970E6A6F750E6B6FCF0E6C6F3E0E4B
:101D60006D6FBCEC8AF066C0A6F167C0A7F168C0D1
:101D7000A8F169C0A9F102C11EF003C11FF0206AD9
:101D8000216A000EDFEC95F01EC066F01FC067F000
:101D900020C068F021C069F06F0E6A6F120E6B6F81
:101DA000830E6C6F3B0E6D6FBCEC8AF066C0A2F1C7
:101DB00067C0A3F168C0A4F169C0A5F1B40E020127
:101DC000D06FFE0ED16FFBC0D2F2D36B7AC1D4F2CA
:101DD0007BC1D5F2D6ECA4F00101FB6FFB510201EF
:101DE000D66FD76B00C1D8F201C1D9F2A6C1DAF221
:101DF000A7C1DBF2A8C1DCF2A9C1DDF202C1DEF2AB
:101E000003C1DFF2A2C1E0F2A3C1E1F2A4C1E2F298
:101E1000A5C1E3F2F4ECA2F08D0E00016A6FFF0E93
:101E20006B6F84EC9CF021D00001FA51FF5DD8B0BB
:101E300002D0000EFA6FFA2BFA51C7ECA4F008D0CA
:101E4000BA9A27D0FEC0FAF00001FA51C7ECA4F00C
:101E5000BD82F6D7000E0001FB6F000EFA6F000E78
:101E6000C7ECA4F0BD92BA8A14D00001FB51010165
:101E7000FB6FFC6BFC51000AD8A4ECD7FB51000AA5
:101E8000D8B4E8D7010AD8B4CFD7030AD8B4DAD780
:101E9000E1D7000E00017D6F040E7E6FE7EC93F03A
:101EA000000E0001FD6FCBB009D0F92B040EF965CF
:101EB000F2D6FB2B000EF96FBE84EDD6000EF96F43
:101EC000BE94E9D62150800B686F215021246F6F9A
:101ED00020BE6F816F51D8B40DD06F29D8A408D01F
:101EE000000E1E6E000E1F6E000E206E000E216E84
:101EF000208E06D0000E1E6E000E1F6E000E206E8D
:101F0000000E216E2550800B681B25502524706F14
:101F100024BE70817051D8B40DD07029D8A408D0D7
:101F2000000E226E000E236E000E246E000E256E33
:101F3000248E06D0000E226E000E236E000E246E3C
:101F4000000E256E2250231024102510D8A417D07F
:101F5000000E1E6E000E1F6E000E206E000E216E13
:101F6000800E20127F0E2112685121121EC01EF019
:101F70001FC01FF020C020F021C021F012006F51BF
:101F8000D8A409D0000E1E6E000E1F6E000E206E2B
:101F9000000E216E120070516FC060F0616B605FC7
:101FA000000E615B7F0E6025696F000E61216A6F14
:101FB0001EC064F01FC065F020C066F021C067F04D
:101FC000000E1E6E000E1F6E000E206E000E216EA3
:101FD000000E6B6F000E6C6F000E6D6F000E6E6F5B
:101FE000000E706F28D07051D8B411D0D8906437DB
:101FF000653766376737D8901E361F36203621364C
:102000006EBF1E80D8906B376C376D376E3722509D
:10201000645D235065592450665925506759D8A0EE
:1020200009D06E8D2250645F2350655B2450665B3F
:102030002550675B702B190E7065D5D764516511FB
:1020400066116711D8B411D06B810FD0D8901E36AD
:102050001F36203621366EBF1E80D8906B376C3706
:102060006D376E376907D8A06A0720AEEFD7000E2C
:10207000706F6EAF17D0FF0E6B15606FFF0E6C1593
:10208000616FFF0E6D15626F7F0E6E15636F60518D
:10209000611162116311D8B403D0010E706F02D0C8
:1020A0001EB0FBD77051D8B41FD0010E1E26000EF3
:1020B0001F222022212221A017D01EC060F01FC0A5
:1020C00061F020C062F021C063F063356333623396
:1020D0006133603360C01EF061C01FF062C020F049
:1020E00063C021F0694B6A2B6ABF10D06A5103E1CB
:1020F0006929D8A00BD0000E6A6F6969000E1E6EA8
:10210000000E1F6E000E206E000E216E6ABF05D0FD
:102110006A5111E16905D8B00ED0000E6A6F000E49
:10212000696F000E1E6E000E1F6E000E206E000EF8
:10213000216E000E686F69C06FF06FA102D0208E13
:1021400001D0209ED8906F31216E0ED7000E000175
:102150007C6F000E7B6F020E71251E6E000E7221C9
:102160001F6E5BEC9FF01E501F10D8A402D0030E10
:102170001200020E000171251E6E000E72211F6EEC
:102180005BEC9FF01F5003E1020E1E5CD8B07DD0C7
:10219000020E12007C51050D6F00CCFF73F06F0032
:1021A000D0FF74F06000C7F1D9FF6000CBF1DAFF17
:1021B0006F0078FF75F06F0074FF76F0735175252E
:1021C000D96E74517621DA6E6F0078FF60F06F007F
:1021D00074FF61F0020E7125626F000E7221636F51
:1021E0007C51050D6F00CCFF77F06F00D0FF78F0C9
:1021F0006000C7F1D9FF6000CBF1DAFF6F0078FF14
:1022000079F06F0074FF7AF077517925D96E7851A3
:102210007A21DA6E6F0078FF1EF06F0074FF1FF0F6
:102220005BEC9FF01EC064F01FC065F032EC93F0D1
:1022300060516111D8A428D071C06FF072C070F0E5
:102240007C51050D6000C7F1D9FF6000CBF1DAFFCA
:102250006F0078FF73F06F0074FF74F0F350732712
:10226000F4507423020E7325D96E000E7421DA6EB9
:1022700001D829D00500FA6EDE50FD6EDE50FE6EEC
:10228000DE50FF6EFA5012007C2B00017C51050DD0
:102290006000C7F1D9FF6000CBF1DAFF6F0078FF73
:1022A00073F06F0074FF74F0F3507327F4507423CD
:1022B000020E7325D96E000E7421DA6EDE50DE1028
:1022C000DE10D8A467D700017C51050D6000C7F16E
:1022D000D9FF6000CBF1DAFF6F0078FF73F06F0079
:1022E00074FF74F0F3507327F4507423020E7325B7
:1022F000D96E000E7421DA6EDE50DE10DE10D8A426
:1023000002D0010E7B6F7B511200F8AF3492F8BF00
:1023100005D0F85108E1F705D8B005D0000E8C6F54
:10232000010E8B6F04D0F7C08BF0F8C08CF0F5C0B5
:102330008DF0F6C08EF07BC08FF07CC090F07DC039
:1023400091F07EC092F07FC093F080C094F081C085
:1023500095F082C096F0000E986F4F0E976F000EAA
:102360000201CF6F76D09707D8A09807800E9725E7
:10237000D96E020E9821DA6E8FC060F090C061F0C5
:1023800091C062F092C063F093C064F094C065F0B5
:1023900095C066F096C067F00A0E686F000E696F10
:1023A000000E6A6F000E6B6F000E6C6F000E6D6F8B
:1023B000000E6E6F000E6F6F08EC9BF060C083F034
:1023C00061C084F062C085F063C086F064C087F0AD
:1023D00065C088F066C089F067C08AF08351300F0D
:1023E000DF6E8B07D8A08C078D07D8A08E078FC013
:1023F00060F090C061F091C062F092C063F093C051
:1024000064F094C065F095C066F096C067F00A0E5F
:10241000686F000E696F000E6A6F000E6B6F000E22
:102420006C6F000E6D6F000E6E6F000E6F6F5FECC5
:1024300098F060C08FF061C090F062C091F063C00E
:1024400092F064C093F065C094F066C095F067C0E8
:1024500096F0000197519811D8B41AD08F5190116D
:10246000911192119311941195119611D8A47BD7C3
:102470008CBF05D08C5102E18B05D8B074D78EBFCC
:1024800007D08E5103E18D05D8A002D034B26BD7AE
:1024900079C06CF07AC06DF0800E97256E6F020ED9
:1024A00098216F6F8DC070F08EC071F0B0EC9BF012
:1024B0006CC079F06DC07AF0120096C181F097C1BE
:1024C00082F098C183F099C184F071C081F072C02C
:1024D00082F073C083F074C084F0810E756FFF0EBC
:1024E000766F81C077F082C078F083C079F084C0C5
:1024F0007AF0180E05D0D8907A3379337833773361
:10250000E82EF9D7775175257F6F000E7621806F01
:1025100080BF0FD0805104E1170E7F5DD8A009D095
:1025200071C071F072C072F073C073F074C074F057
:10253000120080BF5CD07FC075F0FF0E766FFF0E7B
:10254000776F7F0E786F000E796F756701D007D0B7
:1025500079357933783377337633752FF6D776C07C
:102560007BF077C07CF078C07DF079C07EF0000110
:102570007B518115756F7C518215766F7D51831566
:10258000776F7E518415786F7551761177117811B8
:10259000D8B4C6D781C075F082C076F083C077F01A
:1025A00084C078F0200E05D0D89078337733763316
:1025B0007533E82EF9D77551D8B408D07B518127EF
:1025C0007C5182237D5183237E5184237B1D756F33
:1025D0007C1D766F7D1D776F7E1D786F755181171D
:1025E00076518217775183177851841732D081C082
:1025F00075F082C076F083C077F084C078F0200E4A
:1026000005D0D8907833773376337533E82EF9D701
:10261000756708D0000E816F000E826F000E836F09
:10262000000E16D0D8908135756F8235766F833560
:10263000776F8435786F7551761177117811D8B42A
:1026400008D0000E816F000E826F800E836FBF0E68
:10265000846F81C071F082C072F083C073F084C057
:1026600074F0120060C066F061C067F062C068F08C
:1026700063C069F000016407D8A06507642910E110
:102680006529D8A40DD0000E616F000E606F120096
:102690000001664B672B684B692B6407D8A0650760
:1026A00060009BF1F6FF60009FF1F7FF000EF86EEF
:1026B0001F0EF76403D00800F55007D06F00DBFF52
:1026C000E1FF6F00DFFFE2FFE7500009D8B44BD015
:1026D0006000A3F1F6FF6000A7F1F7FF000EF86EAF
:1026E0001F0EF76403D00800F55007D06F00DBFF22
:1026F000E1FF6F00DFFFE2FFE7500009D8B433D0FD
:10270000000164516511D8B42ED06000A3F1F6FF2A
:102710006000A7F1F7FF000EF86E1F0EF76403D0FC
:102720000800F55007D06F00DBFFE1FF6F00DFFF0F
:10273000E2FFE750226E60009BF1F6FF60009FF120
:10274000F7FF000EF86E1F0EF76403D00800F55077
:1027500007D06F00DBFFE1FF6F00DFFFE2FFE75014
:102760002218D8B495D760009BF1F6FF60009FF166
:10277000F7FF000EF86E1F0EF76403D00800F55047
:1027800007D06F00DBFFE1FF6F00DFFFE2FFE750E4
:10279000226E6000A3F1F6FF6000A7F1F7FF000EC4
:1027A000F86E1F0EF76403D00800F55007D06F00D5
:1027B000DBFFE1FF6F00DFFFE2FFE750236E2350F6
:1027C000225C0001606F616BD8A061071200000EEF
:1027D000846F840E1F6E08ECA3F00009D8B41200B9
:1027E00089D020EE82F07D51D9267E51DA227E0EEC
:1027F000DF640CD020EE82F07D51D9267E51DA22A2
:10280000DF507F6F7F51826F836B0ED020EE82F09E
:102810007D51D9267E51DA22DF507F6F010E7F2550
:10282000826F836B000E832382517D257F6F8351DE
:102830007E21806F020E7F25D96E000E8021DA6E18
:10284000000EDF6E780E6F6FFF0E706F020E716FED
:102850005AECA4F07DC071F07EC072F0A6EC90F04E
:102860003A6E000120EE82F07D51D9267E51DA22A7
:10287000000EDF6E020E7D251E6E000E7E211F6E85
:10288000000E216E000E206E000E236E800E226E52
:1028900038EC95F0120020EE82F07D51D9267E5161
:1028A000DA227F0EDF60120020EE82F07D51D92601
:1028B0007E51DA22DF507F6F7F517D25806F000EC1
:1028C0007E21816F020E8025D96E000E8121DA6E85
:1028D000600013F2DFFF20EE82F07D51D9267E5199
:1028E000DA22DF2A840E6F6F706B010E716F5AEC63
:1028F000A4F01200000184517F6F806B8051000AA8
:10290000D8A4C9D77F510D0AD8B46BD7160AD8B44A
:102910001200650AD8B41200010AD8B41200BBD75D
:1029200020EEBDF110EE69F0060E6F006FFFE3FFC1
:10293000E806FBE267C074F068C075F07451751169
:10294000D8A403D0690E746F756B74C01EF075C087
:102950001FF05BEC9FF01EC078F01FC079F0F7C04D
:1029600076F0F8C077F0000177BF0ED07851765D31
:102970007751800A246E7951800A2458D8B004D047
:1029800076C078F077C079F078C076F079C077F0CB
:10299000F5C072F0F6C073F034A00ED017D0000E60
:1029A000216E200E206E65C022F066C023F0ACECD4
:1029B0009AF00001784B792B7251785D7951800A39
:1029C000246E7351800A2458D8A0E9D7000E716F85
:1029D000000E706F24D06000D3F1F6FF6000D7F1D5
:1029E000F7FF000EF86E1F0EF76403D00800F550D5
:1029F00007D06F00DBFFE1FF6F00DFFFE2FFE75072
:102A0000246E2450206E216A65C022F066C023F037
:102A1000ACEC9AF00001744B752B704B712B765116
:102A2000705D7151800A246E7751800A2458D8A0B5
:102A3000D2D734B00ED017D0000E216E200E206EEB
:102A400065C022F066C023F0ACEC9AF00001784B30
:102A5000792B7251785D7951800A246E7351800A06
:102A60002458D8A0E9D778C065F079C066F0120084
:102A70001EC062F01FC063F022502310D8B41200B1
:102A800060008BF1D9FF60008FF1DAFF600083F006
:102A9000DFFF225000016225246E23506321256E42
:102AA000FF0E2424D96EFF0E2520DA6E600083F01D
:102AB000DFFF235004E1030E225CD8A0120020EEB9
:102AC00001F06251D9266351DA22600083F0DFFF02
:102AD00020EE02F06251D9266351DA22600083F0C1
:102AE000DFFF22506225246E23506321256EFE0EE7
:102AF0002424D96EFF0E2520DA6E600083F0DFFFFC
:102B000022506225246E23506321256EFD0E24245D
:102B1000D96EFF0E2520DA6E600083F0DFFF2350B0
:102B200004E1070E225CD8A0120020EE03F06251EF
:102B3000D9266351DA22600083F0DFFF225062253C
:102B4000246E23506321256EFC0E2424D96EFF0EC3
:102B50002520DA6E600083F0DFFF235004E1090EC8
:102B6000225CD8A0120062C024F063C025F0241EAD
:102B7000251E244A252A030E2414606F616B6051C0
:102B80006227615163236051225E6151235AFC0E1A
:102B90002216FF0E23160ED060008BF1D9FF6000C5
:102BA0008FF1DAFF600083F0DFFF2206D8A0230652
:102BB000624B632B22502310D8B41200EDD7606F04
:102BC00000016051D8A421AE1AD01EC022F01FC04F
:102BD00023F020C024F021C025F0221E231E241E35
:102BE000251E222A000E23222422252222C062F042
:102BF00023C063F024C064F025C065F008D01EC077
:102C000062F01FC063F020C064F021C065F01E5068
:102C10001F1020102110D8A409D0000E1E6E000E27
:102C20001F6E000E206E000E216E1200960E616F58
:102C300006D0612BD8906533643363336233000E62
:102C40006215226E000E6315236E000E6415246E4D
:102C5000FE0E6515256E2250231024102510D8B4C1
:102C60000DD0E7D7612B010E6227000E632364238A
:102C70006523D8906533643363336233000E621585
:102C8000226E000E6315236E000E6415246EFF0E77
:102C90006515256E2250231024102510D8B407D0B6
:102CA000E1D76107D890623763376437653764BF0F
:102CB00003D0020E6161F5D761A1649FD8906133A2
:102CC00061C022F0236A246A256A22C025F0246AA2
:102CD000236A226A22506213235063132450641320
:102CE000255065136051D8A421AE01D0658F62C014
:102CF0001EF063C01FF064C020F065C021F0120018
:102D0000000E696F000E686F000E676F000E666F31
:102D100002D0604B612B600083F1F6FF600087F109
:102D2000F7FF000EF86E0800F550200AD8B4F1D76E
:102D3000F70E626FFF0E636F600083F1F6FF6000B5
:102D400087F1F7FF000EF86E0800F550646F656BB1
:102D5000625164276351652365510CE1050E645D82
:102D6000D8B008D0D6D7000E676F010E666F604BE3
:102D7000612B36D0600083F1F6FF600087F1F7FF2A
:102D8000000EF86E0800F550626F636B6351000A25
:102D9000D8A426D062512B0AD8B4E9D7060AD8B4F1
:102DA000E2D71ED068C01EF069C01FF0000E216E71
:102DB0000A0E206EDFECA2F0600083F1F6FF6000E7
:102DC00087F1F7FF000EF86E0800F5501E5E000E4A
:102DD0001F5A300E1E24686F000E1F20696FC7D760
:102DE000D00E626FFF0E636F600083F1F6FF60002C
:102DF00087F1F7FF000EF86E0800F550646F656B01
:102E00006251642763516523655104E10A0E645DD4
:102E1000D8A0C8D766516711D8A40DD068C062F099
:102E200069C063F0621F631F624B632B62C060F076
:102E300063C061F0120068C060F069C061F0120008
:102E40009397BE0E1E6E360E1F6E010E206E76EC30
:102E5000A4F09399900E1E6E450E1F6E010E206E0B
:102E60006FECA4F0939B980E1E6E490E1F6E010E20
:102E7000206E84ECA4F0939DBE0E1E6E490E1F6E54
:102E8000010E206E68ECA4F0000E3D01EC6F000E08
:102E9000ED6F000EEE6F000EEF6F000EF06F000E84
:102EA000F16FB00EF26F900EF36F000EF46F8A0E9A
:102EB000F56F000EF66F000EF76F000EF86F000E44
:102EC000F96F000EFA6FC80E1E6E490E1F6E010ECE
:102ED000206E8BECA4F0C60E1E6E490E1F6E010E06
:102EE000206E7DECA4F0B20E1E6E490E1F6E010E18
:102EF000206E92ECA4F0000E3C6E000E426E000EAE
:102F0000416E400E406E000E3F6E000E3E6E000E93
:102F10003D6E39019387938B938D1200780EF66E78
:102F2000110EF76E010EF86E01EEFFF111EE00F0DA
:102F300009006F00D7FFEEFFE550E150F9E1E250E4
:102F4000F7E1060EF66E450EF76E010EF86E00EE16
:102F5000BDF110EE2EF009006F00D7FFEEFFE55037
:102F6000E150F9E1C40EF66E490EF76E010EF86EEF
:102F700009006F00D4FFFEF009006F00D4FFFFF0DE
:102F800001EE00F110EEFFF0EE6AE550E150FCE1D9
:102F9000E250FAE101EE00F0830EEE6AE806FDE190
:102FA00000EE00F3830EEE6AE806FDE100EE00F2AB
:102FB000D00EEE6AE806FDE100EE00F1BD0EEE6A0D
:102FC000E806FDE100EEE9F0150EEE6AE806FDE127
:102FD00000EE26F01D0EEE6AE806FDE1080ED56E45
:102FE000000ED66E000ED76E0001EAEF8DF0000ED7
:102FF0007F15876F000E8015886F800E8115896F91
:103000007F0E82158A6F8751881189118A11D8A481
:1030100008D0000E7F6F000E806F000E816F000ED3
:10302000826F000E8315876F000E8415886F800EE7
:103030008515896F7F0E86158A6F875188118911D2
:103040008A11D8A408D0000E836F000E846F000E82
:10305000856F000E866F82AF09D07F6D801FD8B05C
:10306000802B811FD8B0812B800E825786AF09D06C
:10307000836D841FD8B0842B851FD8B0852B800E1C
:103080008657000E7F1B000E801B000E811B800EDA
:10309000821B000E831B000E841B000E851B800EFE
:1030A000861B83517F5D845180598551815986519A
:1030B0008259D8B002D0D8901200D880120020EEE9
:1030C00070F0070EDE6AE806FDE2685169116A11C8
:1030D0006B116C116D116E116F11D8B446D0010EC9
:1030E000786F0AD0D890683769376A376B376C3792
:1030F0006D376E376F37782B6FAFF4D7D890703746
:103100007137723773377437753776377737685159
:10311000605D695161596A5162596B5163596C51D3
:1031200064596D5165596E5166596F516759D8A0F0
:1031300011D06851605F6951615B6A51625B6B518C
:10314000635B6C51645B6D51655B6E51665B6F5187
:10315000675B7081D8906F336E336D336C336B3334
:103160006A3369336833782FC9D770C060F071C093
:1031700061F072C062F073C063F074C064F075C037
:1031800065F076C066F077C067F01200000EBE6E84
:10319000110EBD6E200EBA6E000EBF6E000EBB6E1D
:1031A000070EBC6E020EC66E0B0EC76EDF0EC26E31
:1031B000C368900EC46E080EC56E080E3A01706F9B
:1031C000000E606FFE0E506F020E806F0B0E906F40
:1031D0008F0E406F000E716F000E916F000E816FA9
:1031E000010E516F500E416F000E616F000E5A6F4D
:1031F000000E5B6F000E6A6F000E6B6F000E7A6F31
:10320000000E7B6F000E826F000E926F000E426FF9
:10321000000E526F000E626F000E726F43695369A9
:1032200063697369070E836F9369446954696469BC
:1032300074690F0E846F94690E0E1A6F130EDE6F91
:103240001E0E136F1F0E156F130E166F170EE56F00
:103250000D0E2A6F140EDF6F12009AC162F09BC12F
:1032600063F09CC164F09DC165F01EC062F01FC098
:1032700063F020C064F021C065F062C022F063C03A
:1032800023F064C024F065C025F0180E05D0D89056
:103290002532243223322232E82EF9D72250606FB1
:1032A000616B60516111D8A419D0D8906235226E3B
:1032B0006335236E6435246E6535256E22502310E8
:1032C00024102510D8A405D0000E1F6E020E1E6E0D
:1032D0001200000E1F6E030E1E6E12006029611197
:1032E000D8A41CD062C022F063C023F064C024F0D4
:1032F00065C025F0090ED8902236233624362536AF
:10330000E82EF9D72250231024102510D8A402D07B
:10331000010E01D0000E1E6E1F6A1200000E1F6EFD
:10332000040E1E6E1200400E0101846F030E856FA5
:1033300084C164F085C165F081ECA3F03D01149F68
:10334000200E156F030E166F040E196F020E1C6F00
:10335000830E146F148F300E1E6E570E1F6E050EE7
:10336000206E000E216EE7ECA1F0460EADECA1F050
:10337000410ECAECA1F0500E1E6E000E1F6E000E24
:10338000206E000E216EE7ECA1F0530ECAECA1F006
:10339000020E71ECA3F0500E1E6E000E1F6E000E9A
:1033A000206E000E216EE7ECA1F0510EADECA1F005
:1033B0003D01149F020E166F148F1A933F0E3B01AE
:1033C000FD17FD9BFD51F90B0209FD6FE70EFD177F
:1033D000FD81400EF96F030EFA6F000EFB6FFC9B30
:1033E0003D011A83120020342134616F6151D8A449
:1033F00009D0000E1E6E000E1F6E000E206E000E15
:10340000216E12001EC022F01FC023F020C024F045
:1034100021C025F0200E05D0D89025322432233249
:103420002232E82EF9D72250606F208EFF0E1E1632
:10343000FF0E1F16FF0E2016000E2116960E615F5E
:1034400061AF0DD06151800A970FD8A0D2D7D89024
:10345000213220321F321E32613FF9D70DD01F0EAC
:10346000616507D0C6D7D8901E361F362036213664
:1034700061076151D8A4F7D76051D8B408D0211E94
:10348000201E1F1E1E6C000E1F22202221221EC085
:103490001EF01FC01FF020C020F021C021F012003C
:1034A000206E2DD0BD98BD9A1200BD98BD8A120025
:1034B000BD88BD9A1200BD9CBD9E1200BD9CBD8EF4
:1034C0001200BD8CBD9E1200BF98BF9A1200BF981B
:1034D000BF8A1200BF88BF9A1200BF9CBF9E120015
:1034E000BF9CBF8E1200BF8CBF9E1200BD98BD9ABC
:1034F000BD9CBD9EBF98BF9ABF9CBF9E120020502E
:103500001E6E1F6A1F50000AD8A4F0D71E50000A72
:10351000D8B4C8D7010AD8B4CBD7030AD8B4C5D712
:10352000010AD8B4C8D7070AD8B4CBD7010AD8B48F
:10353000C5D7030AD8B4C8D7010AD8B4CBD70F0A65
:10354000D8B4C5D7010AD8B4C8D7030AD8B4CBD7E2
:10355000010AD8B4C5D7CAD722502310D8B404D092
:1035600022502310D8A404D02050C2ECA4F04CD098
:1035700020EE09F02250D9262350DA22DE50DE1048
:10358000D8B417D020EE09F02250D9262350DA22E1
:1035900010EE03F02250E1262350E222DE50E65CDA
:1035A000E650800A0001646FDE50800A6459D8B08A
:1035B0002BD020EE03F02250D9262350DA226F00C0
:1035C00078FF60F06F0074FF61F060008BF0D9FF4E
:1035D00060008FF0DAFF6F0078FF62F06F0074FF19
:1035E00063F0000160516225D96E61516321DA6E8A
:1035F000600083F0DFFF20EE03F02250D926235035
:10360000DA22DE2A000EDD2220C020F0216A12001C
:10361000685169116A116B116C116D116E116F1186
:10362000D8B43CD0010E1E6E0AD0D89068376937E6
:103630006A376B376C376D376E376F371E2A6FAF4F
:10364000F4D76851605D695161596A5162596B5193
:1036500063596C5164596D5165596E5166596F517A
:103660006759D8A010D06851605F6951615B6A5199
:10367000625B6B51635B6C51645B6D51655B6E515A
:10368000665B6F51675BD8906F336E336D336C330D
:103690006B336A33693368331E2ED3D760C060F052
:1036A00061C061F062C062F063C063F064C064F046
:1036B00065C065F066C066F067C067F01200000E76
:1036C0003F24D96EDA6A020EDA22000EDF6E3D0167
:1036D000F9A715D0000E3F24D96EDA6A020EDA225D
:1036E0000201DF8201D80BD00500FA6E0101B05152
:1036F000FD6EB151FE6EB251FF6EFA5012003D01E7
:10370000F9A315D0000E3F24D96EDA6A020EDA2230
:103710000201DF8401D80BD00500FA6E0101AD5122
:10372000FD6EAE51FE6EAF51FF6EFA501200000EEC
:103730003F24D96EDA6A020EDA22DF50D8B40DD0F7
:1037400001D812000500FA6E0101AA51FD6EAB51BD
:10375000FE6EAC51FF6EFA50120060ECA3F0120046
:1037600034A00AD06EC065F06FC066F06CC067F020
:103770006DC068F072EC9DF071BF05D070C075F03F
:1037800071C076F004D0000E766F000E756F000EDB
:10379000746F000E736F0DD0000E216E200E206E20
:1037A0006CC022F06DC023F0ACEC9AF00001734BBA
:1037B000742B7551735D7451800A726F7651800A53
:1037C0007259D8A0E9D734B00AD06EC065F06FC086
:1037D00066F06CC067F06DC068F072EC9DF06EC072
:1037E0001EF06FC01FF05BEC9FF0000175511E24AE
:1037F0006C6F76511F206D6F1200000E1E14606FEB
:10380000000E1F14616F800E2014626F7F0E211452
:10381000636F6051611162116311D8A408D0000E6A
:103820001E6E000E1F6E000E206E000E216E000E2A
:103830002214606F000E2314616F800E2414626FD7
:103840007F0E2514636F6051611162116311D8A45A
:1038500008D0000E226E000E236E000E246E000EA5
:10386000256E22501E180AE123501F1807E124502C
:10387000201804E125502118D8B402D0D8901200A5
:10388000D8801200000E236E21AE06D0206C211EBF
:10389000D8B0212A010E236E1FAE06D01E6C1F1E4B
:1038A000D8B01F2A010E231A000E256E000E246EBA
:1038B00020502110D8B41CD0010E226E04D0D89014
:1038C00020362136222A21AEFAD7D8902436253642
:1038D00020501E5C21501F58D8A005D020501E5EDD
:1038E00021501F5A2480D89021322032222EEDD729
:1038F0002350D8B404D0246C251ED8B0252A24C067
:103900001EF025C01FF012006AC01EF06BC01FF031
:103910005BEC9FF01E5000016E6FD0ECA4F084C1F0
:1039200064F085C165F0000E0001666FB8EC9EF092
:10393000BC94400E00016E6513D0400E6A256C6F7A
:10394000000E6B216D6F6000B3F1F6FF6000B7F100
:10395000F7FF000EF86E000EF56E0C00400E6E6F55
:103960003B01FC9F6000BBF1F7FBF86BFC8F84C14F
:1039700065F085C166F06AC067F06BC068F06EC024
:1039800069F08EEC9EF0D3ECA4F012002DECA4F0C4
:103990003B50020D000EF324D96E010EF420DA6EB6
:1039A000600007F0DEFF60000BF0DDFF0BD0010EC2
:1039B00007D03D0E05D0280E03D0290E01D0000EF1
:1039C0003B6E18D03B50056E066A0650000AD8A41C
:1039D000F6D70550000AD8B4EAD7010AD8B4E9D717
:1039E000290AD8B4EAD7010AD8B4E9D7140AD8B456
:1039F000E2D7E5D76000EFF0F1FE010E0001FC6FA9
:103A00001200000E3E01DE6F000EDF6F000EE06F51
:103A1000000EE16F000EE46F000EE56F000EEA6F1E
:103A2000000EEC6F000EF16F100EF36F000EF46FCE
:103A3000000EF56F000EF66F000EF76F000EF96FB7
:103A4000000EFA6F200EFB6F000EFC6F020EFD6F72
:103A5000070EFE6F1F0EFF6F840EF86F3901A195E0
:103A60009185CA0E1E6E490E1F6E010E206EB5ECBA
:103A7000A4F01200000E236E1FAE06D01E6C1F1E97
:103A8000D8B01F2A010E236E21AE04D0206C211E57
:103A9000D8B0212A20502110D8B418D0010E226E9F
:103AA00004D0D89020362136222A21AEFAD72050D1
:103AB0001E5C21501F58D8A004D020501E5E2150FB
:103AC0001F5AD89021322032222EF1D72350D8B459
:103AD00004D01E6C1F1ED8B01F2A1EC01EF01FC0AF
:103AE0001FF01200000E6B6F000E6A6F0CD069C0E1
:103AF00020F0216A67C022F068C023F0ACEC9AF095
:103B000000016A4B6B2B6A516525246E6B5166214F
:103B1000256E600093F0F6FF600097F0F7FF000E4F
:103B2000F86E1F0EF76403D00800F55007D06F0041
:103B3000DBFFE1FF6F00DFFFE2FFE7500001696F8D
:103B40006951D8A4D4D76AC065F06BC066F0120082
:103B500020C060F021C061F01EC062F01FC063F0A1
:103B600000016051226E6151236E604B612B600039
:103B70008BF0F6FF60008FF0F7FF000EF86E60002C
:103B80008BF1D9FF60008FF1DAFF624B632B1F0EC0
:103B9000F76403D00800F55007D06F00DBFFE1FFAA
:103BA0006F00DFFFE2FFE750DF6EDF50D8B4120096
:103BB000D7D7B30E3B01F96F010EFA6F000EFB6F02
:103BC0003D0EF16F110EF06F030EFD6F000EF86FDA
:103BD000010EF76F000EEF6F010EEE6F150EFF6F07
:103BE000000EFE6F3901A293A291A297A295929323
:103BF0009281D40E1E6E490E1F6E010E206EAEEC29
:103C0000A4F0390192979295C00E3B01FC6F12000F
:103C1000EDC1F1F1EEC1F2F1000E336E000E326E25
:103C200013D0EBC1C9F0ECC1CAF0F10E0001CB6FAB
:103C3000010ECC6FEFC1CDF0F0C1CEF0DCEC84F022
:103C4000C9513226CA5133226000C7F7F6FF60001F
:103C5000CBF7F7FF000EF86E0800F5500009D8A466
:103C6000E0D732C0EBF133C0ECF11200F70E0201E5
:103C7000D06F010ED16FF3C1D2F2F4C1D3F2000EB6
:103C8000D66F000ED56F000EDC6F000EDB6FD20E0C
:103C90000101EB6F020EEC6FF5C1EDF1F6C1EEF133
:103CA000D00EEF6F020EF06F08EC9EF00201D551BE
:103CB0000101F325D96E0201D6510101F421DA6E1A
:103CC000000EDF6E120020C063F021C064F01EC041
:103CD00061F01FC062F019D060008FF1F6FF600044
:103CE00093F1F7FF000EF86E08006F00D4FF60F04C
:103CF000634B642B600087F1D9FF60008BF1DAFF22
:103D0000600083F1DFFF614B622B2206D8A02306FF
:103D10002228E2E12328D8B41200DED7000120EEE9
:103D200042F06551D9266651DA22400EDF6012005A
:103D300065C01EF066C01FF067C020F068C021F0AB
:103D400069C022F0236A63EC9EF020EE40F06551DA
:103D5000D9266651DA226000A7F1DFFF20EE42F09B
:103D60006551D9266651DA226000A7F1DFFF120003
:103D700020EE42F06451D9266551DA22000EDF6E42
:103D800020EE40F06451D9266551DA22000EDF6E34
:103D900020EE41F06451D9266551DA22000EDF6E23
:103DA0006651D8B4120064C01EF065C01FF0000E4A
:103DB000216E000E206E000E236E400E226E38EC37
:103DC00095F0120020EE42F01E50D9261F50DA2244
:103DD000400EDF60120020EE40F01E50D9261F502A
:103DE000DA22DF50216E21501E24D96E000E1F20D2
:103DF000DA6E600083F0DFFF20EE40F01E50D9261F
:103E00001F50DA22DF2A20EE42F01E50D9261F5022
:103E1000DA22DF2A1200000E0F6E000E0E6ED8900E
:103E20000E34D96E0F34DA6E8A0ED926010EDA22DC
:103E3000DE50DE10D8B40CD0D8900E34D96E0F34CA
:103E4000DA6E8A0ED926010EDA22DE06000EDD5A5F
:103E50000E4A0F2A0FBEE3D70F5005E1060E0E5C87
:103E6000D8B01200DCD712006F00E8FF10F06F002E
:103E7000ECFF11F03901A89D36C00CF037C00DF0F1
:103E80002CECA3F00001EC51ED11EE11D8B40CD0E4
:103E900001D80AD00500FA6EEC51FD6EED51FE6EB0
:103EA000EE51FF6EFA501200600047F0FBFF600019
:103EB00043F0FAFF11001EC020F01FC021F002D015
:103EC0001E4A1F2A60007BF0F6FF60007FF0F7FFBC
:103ED000000EF86E1F0EF76403D00800F55007D0EF
:103EE0006F00DBFFE1FF6F00DFFFE2FFE75000093B
:103EF000D8A4E6D720501E5C1E6E21501F581F6E9E
:103F00001200D28A000ED2BE010E1E6ED29E550E37
:103F1000D46EAA0ED46ED490000ED76E000ED66E5C
:103F2000080ED56E550ED46EAA0ED46ED4801EB077
:103F300002D0D29E01D0D28E39018281838D8399A5
:103F4000838B83978981888D81851200000E9B6EFB
:103F5000000E9C6E020E9D6E830E996E000E986E82
:103F60003901A89D98506F0064FE21F0226A21C09B
:103F700022F0216A2110366E2250376E988DD20EB3
:103F80001E6E490E1F6E010E206EA0ECA4F0010EF5
:103F90009A6E12006F0060FF18F06F00E8FF19F0D2
:103FA0006F00ECFF1AF02C502D102E10D8B40CD04E
:103FB00001D80AD00500FA6E2C50FD6E2D50FE6E11
:103FC0002E50FF6EFA50120060006BF0FBFF600095
:103FD00067F0FAFF600063F0D8FF11006F0060FF28
:103FE0001BF06F00E8FF1CF06F00ECFF1DF02F507E
:103FF00030103110D8B40CD001D80AD00500FA6EB8
:104000002F50FD6E3050FE6E3150FF6EFA50120090
:10401000600077F0FBFF600073F0FAFF60006FF064
:10402000D8FF1100000E831B000E841B000E851BA1
:10403000800E861B7FC01EF080C01FF081C020F064
:1040400082C021F083C022F084C023F085C024F018
:1040500086C025F064EC8CF01EC07FF01FC080F09D
:1040600020C081F021C082F012006FC01EF070C02D
:104070001FF0000E216E000E206E000E236E830EC8
:10408000226E38EC95F06000BFF1D9FF6000C3F1FB
:10409000DAFF6000C7F1DEFF6000CBF1DDFF980EB4
:0E40A00000016C6FFE0E6D6F18ECA1F01200A7
:1040B0006F00E8FF07F06F00ECFF08F03901A195F1
:1040C0000001F251F311F411D8B40CD001D80AD088
:1040D0000500FA6EF251FD6EF351FE6EF451FF6E63
:1040E000FA501200600023F0FBFF60001FF0FAFF9F
:0240F0001100BD
:1040F4006F00E8FF12F06F00ECFF13F03901A2919A
:104104000001E951EA11EB11D8B40CD001D80AD05E
:104114000500FA6EE951FD6EEA51FE6EEB51FF6E39
:10412400FA50120060004FF0FBFF60004BF0FAFF02
:1041340011000001676FD0ECA4F084C164F085C164
:1041440065F0000E0001666FB8EC9EF0BC943B0174
:10415400FC9F000EF86F010EF76FFC8F84C11EF0F8
:1041640085C11FF067C020F0E2EC9EF0D3ECA4F010
:104174001200010E246E200E1E181F10D8B414D085
:10418400F70E206EFF0E216E1EC022F01FC023F01A
:104194002050222621502322235004E1050E225CC4
:1041A400D8A002D0000E246E24C01EF01F6A120094
:1041B4003D50D8B4FDD7000E3E24D96EDA6A020E03
:1041C400DA22DF503C6E000E3E24D96EDA6A030E0A
:1041D400DA22DF501E6E3E2A3F0E3E6402D0000EED
:1041E4003E6E390193973D0693871E50120081EC71
:1041F4009FF04FECA3F0C6EC98F0BDECA3F001ECFB
:104204009DF0D9EC9DF09FECA3F015ECA4F0B1EC7B
:10421400A2F0BCECA4F021ECA4F0A6EC9FF020ECFE
:1042240097F0D8ECA3F0A7ECA4F01200010E6E6F87
:104234006CC065F06DC066F0000E676F000E686FAD
:1042440072EC9DF066BF1200000E216E0A0E206E05
:10425400000E226E000E236EACEC9AF021BE12000A
:10426400000E00016E6F12001E6E4050D8B4FDD7D0
:10427400390193B904D060007BF0EAFD11D0939921
:10428400400E4224D96EDA6A020EDA2260007BF014
:10429400DFFF422A3F0E426402D0000E426E400607
:1042A400938912006F00E8FF14F06F00ECFF15F023
:1042B40029502A102B10D8B40CD001D80AD00500EC
:1042C400FA6E2950FD6E2A50FE6E2B50FF6EFA5086
:1042D4001200600057F0FBFF600053F0FAFF11007A
:1042E4006F00E8FF16F06F00ECFF17F02650271060
:1042F4002810D8B40CD001D80AD00500FA6E265084
:10430400FD6E2750FE6E2850FF6EFA5012006000BA
:104314005FF0FBFF60005BF0FAFF1100BF0E606FFF
:10432400FF0E616F24C062F025C063F06051622704
:104334006151632363510AE11A0E625DD8B006D05D
:10434400200E2410246E2550256E120024C024F063
:1043540025C025F01200226EBC94FE0ECBECA3F017
:10436400080E1E6E000E1F6E000E206E000E216ED3
:10437400E7ECA1F02250CBECA3F0200E1E6E030E4E
:104384001F6E000E206E000E216EE7ECA1F01200ED
:10439400226EBC94FE0ECBECA3F0080E1E6E000E33
:1043A4001F6E000E206E000E216EE7ECA1F022506D
:1043B400CBECA3F0080E1E6E000E1F6E000E206ED6
:1043C400000E216EE7ECA1F01200000E01019E6FB9
:1043D400000E9F6F000EA06F000EA16F00F004008E
:1043E400010E01019E27000E9F23A023A1239E51AD
:1043F4001E5C9F511F58A0512058A1512158D8A08C
:104404001200ECD76F00E8FF0AF06F00ECFF0BF02E
:104414003901A991384A392A395004E1170E385C18
:10442400D8A006D01AECA3F0000E396E000E386E38
:1044340060002FF0FBFF60002BF0FAFF11001EC09C
:1044440020F01FC021F0D89021322032D8902132A0
:1044540020322050696E1EC020F0030E2016060E76
:10446400216ED8902036212EFCD72050686E120081
:104474001EC020F01FC021F0D89021322032D890E5
:104484002132203220506D6E1EC020F0030E201603
:10449400060E216ED8902036212EFCD720506C6E4B
:1044A4001200BF0E206EFF0E216E1EC022F01FC030
:1044B40023F02050222621502322235006E11A0EF5
:1044C400225CD8B002D0010E01D0000E1E6E1F6A0D
:1044D4001200D00E206EFF0E216E1EC022F01FC0EF
:1044E40023F02050222621502322235006E10A0ED5
:1044F400225CD8B002D0010E01D0000E1E6E1F6ADD
:104504001200286E756C6C2900CDFFC1FFF6FF7C8C
:104514004601F9FF844801F3FF704801FCFF12488B
:1045240001EDFFFA4701F0FFE2470100000000003F
:104534001E501F1020102110D8B408D0000E1E1ACF
:10454400000E1F1A000E201A800E211A1EC01EF023
:104554001FC01FF020C020F021C021F01200010E66
:10456400966E200E956E000E976E4D0E936E000E95
:10457400926E3901A9919981CC0E1E6E490E1F6E5F
:10458400010E206E99ECA4F094681200400E406075
:1045940011D0400E4124D96EDA6A020EDA22DF50BD
:1045A4003D01EA6F412A3F0E416402D0000E416E84
:1045B400402A12003901939912001E5020026F0004
:1045C400CCFF22F06F00D0FF23F01E502102F350E5
:1045D40023261F502002F350232622C01EF023C09E
:1045E4001FF01200D20E0101F36F020EF46F000EE1
:1045F400EB6F000EEC6FD0C2EDF1D1C2EEF1F30E11
:10460400EF6F010EF06F08EC9EF0120061ECA4F065
:104614000009D8B40BD0DAECA0F0206E1F50D96E8C
:10462400DA6A600083F0DFFF010E1200000E120050
:104634000001EF51F011F111D8B4120001D81200A9
:104644000500FA6EEF51FD6EF051FE6EF151FF6EF2
:10465400FA5012009AA409D09A90600037F099FF9A
:10466400600033F098FF9A801200600037F099FFE1
:10467400600033F098FF12006FC06CF070C06DF0F2
:1046840018ECA1F0110E00016C6FFF0E6D6F18ECA9
:10469400A1F0010E0001FB6F1200000EC06F000EAE
:1046A400C16F000EC26F000EC36F000EC46F000E08
:1046B400C56F000EC66F000EC76F1200000E3F24B8
:1046C400D96EDA6A030EDA226F00A3F7DFFF3F2AFE
:1046D4003F0E3F6402D0000E3F6E3D2A1200226E50
:1046E400BC942250CBECA3F0080E1E6E000E1F6E7D
:1046F400000E206E000E216EE7ECA1F0120064C0E3
:104704001EF065C01FF0000E216E000E206E000E1C
:10471400236E430E226E38EC95F01200686F53EC52
:10472400A4F0FE0E9BECA0F053ECA4F00001685141
:104734009BECA0F053ECA4F01200010EAE6E000E40
:10474400AD6E000EAF6E9F0EAB6E000EAA6E3901F9
:10475400A495800EAC6E1200BEA002D0010E01D052
:10476400000EFF0A096EBE500918FE0B0918BE6E32
:10477400010EFD6F1200200E3901D96F000EDB6FA0
:10478400000EDD6F050EDF6F000EDE6FDCB1120070
:10479400FDD71E6E010E3D01126F60007BF011FD0E
:1047A4003901A2A9FDD73D0110511200020E3D01AD
:1047B400146F400E156F000E166F000E1C6F500E16
:1047C400196FC4961200000E00016F6F040E706F13
:1047D400C80E716F010E726F35ECA0F012007B0EE3
:1047E4006C6FFF0E6D6F18ECA1F0020E0001FF6FED
:1047F400030EFE6F1200560E6C6FFF0E6D6F18ECF9
:10480400A1F0090E0001FF6F0A0EFE6F12009F0E49
:104814006C6FFF0E6D6F18ECA1F01D0E0001FF6FA1
:104824001E0EFE6F1200800E6A6E4F0E696EC00E71
:10483400686E3F015F51F30B04095F6F1200800E35
:104844006E6E4F0E6D6EC00E6C6E3F015F51FC0BB1
:1048540001095F6F12003E01F051046E036AEF51CB
:104864000324016E000E0420026E1200690E6C6FA8
:10487400FF0E6D6F18ECA1F0000E0001FB6F12002B
:104884002A0E6C6FFF0E6D6F18ECA1F0020E000182
:10489400FB6F12000001696F0001695190ECA3F0F5
:1048A400120001017EB7FDD73D0117BB1200FCD7F2
:1048B4006FC06CF070C06DF018ECA1F012003D50A8
:1048C400D8B402D0010E1200000E12001EC026F051
:1048D4001FC027F020C028F012001EC02CF01FC0FB
:1048E4002DF020C02EF012001EC02FF01FC030F09B
:1048F40020C031F012001EC0ADF11FC0AEF120C0C7
:10490400AFF112001EC029F01FC02AF020C02BF006
:1049140012001EC0B0F11FC0B1F120C0B2F11200EC
:104924001EC0AAF11FC0ABF120C0ACF112001EC022
:10493400EFF01FC0F0F020C0F1F012001EC0ECF048
:104944001FC0EDF020C0EEF01200550E3901EF6FDC
:10495400AA0EEF6FEF8112001EC0E9F01FC0EAF04B
:1049640020C0EBF012001EC0F2F01FC0F3F020C014
:10497400F4F01200A40E3E019E6F1F0E9C6F1200F5
:104984001F6E1F5036ECA1F012001E6E60007BF00B
:104994009CFE1200000E3D01F96F120001017E879A
:1049A40012003B01FC8D12003E019C51120060EC90
:1049B400A3F0120001017E9712003D01F89F12003E
:0A49C400141312001200120012007A
:0649D000110012001200AC
:020000040020DA
:10000000FF0FFF0FFF0FFF0FFF0FFF0FFF0FFF0F80
:020000040030CA
:0A000000AFFFFFFF9FFFFFDFFFFFD0
:00000001FF
