:0400000057EF00F0C6
:1000080050535053505350535053505350535053D0
:1000180050535053AB505053505350535053505368
:10002800BC50505350535053505350535053505347
:10003800505350535053765064502A5139515053AD
:1000480050535053505350532B0050535053505308
:100058005053505350535053505350535053505380
:100068005053505350535053505350535053505370
:10007800505350532B005053505350532B002B00C8
:100088002B002B002B002B002B002B00195050535A
:1000980091515053505350532B002B002B002B00E1
:0A00A80050535053FF00E6EF97F0AD
:10FDFE000002400050000D0A20436F6D6D616E646D
:10FE0E002070726F636573736F722056302E310DD2
:10FE1E000A0056312E303020505320544553540092
:10FE2E002050532054595045202531753A205053B7
:10FE3E002054657374202531753A20444143204F78
:10FE4E0055542025342E34756D5620423D252E32C4
:10FE5E00752C20537570706C792052656164426107
:10FE6E00636B2025342E34756D5620563D252B366A
:10FE7E002E3166562025342E34756D5620493D257B
:10FE8E002B332E31666D41200D0A000D0A204143A1
:10FE9E0043454C205375707072657373696F6E2095
:10FEAE00537570706C79200D0A000D0A2045585458
:10FEBE00205375707072657373696F6E2053757011
:10FECE00706C79200D0A000D0A2052616D7020743D
:10FEDE006F2031303030564443204F4E200D0A00F3
:10FEEE000D0A2053746561647920313030305644E8
:10FEFE0043204F4E200D0A0025342E34756D5620AA
:10FF0E0025342E34756D562025342E34756D5600DD
:10FF1E00563D252B362E31665620493D252B332E48
:10FF2E0031666D412020000D0A20566F6C7461679A
:10FF3E006520444F574E200D0A000D0A20566F6C57
:10FF4E0074616765204F4646200D0A000D0A205643
:10FF5E006F6C74616765204C4F57200D0A00442565
:10FF6E002E32752C204D2531752C205025317500E3
:10FF7E000D0A20566F6C74616765204F4E200D0A76
:10FF8E00000D0A20566F6C74616765205550200D68
:10FF9E000A000D0A204275696C64202573202573B2
:10FFAE000D0A00417072202033203230323200317F
:10FFBE00393A31303A343000257320257300494EDA
:10FFCE0046004E414E00696E66006E616E006C6CAE
:10FFDE0073006C6600703000703100706400706CDD
:10FFEE0000706F007070007072007073007075009A
:01FFFE000002
:020000040001F9
:10000000000EAC6F000EAB6F8DC0BBF08EC0BCF0AD
:100010008FC0BDF090C0BEF0BEAF16D0000EAC6F6A
:10002000010EAB6FBBC01EF0BCC01FF0BDC020F006
:10003000BEC021F0D4ECA3F01EC0BBF01FC0BCF0CA
:1000400020C0BDF021C0BEF0000EC46F000EC36F13
:10005000F3C0B0F0F4C0B1F0AB51AC11D8A402D0F1
:1000600033A413D0AB51AC11D8A404D0000E986FB8
:100070002B0E03D0000E986F2D0E976F97C040F295
:10008000C34BC42BB007D8A0B107BBC01EF0BCC087
:100090001FF0BDC020F0BEC021F008EC9AF01E0495
:1000A0001F10D8A443D0BF0E926FFF0E936F9151D3
:1000B000946F956B9251942793519523955111E12B
:1000C0001A0E945DD8B00DD0400EC3251E6E020EE0
:1000D000C4211F6ECC0E206EFF0E216EABEC9EF085
:1000E0000CD0400EC3251E6E020EC4211F6ED40E0E
:1000F000206EFF0E216EABEC9EF00001FD0EB027CE
:10010000FF0EB1238BC06CF08CC06DF0400E00016F
:100110006E6F020E6F6FB0C070F0B1C071F08BECFB
:100120009CF06CC08BF06DC08CF01200BBC01EF058
:10013000BCC01FF0BDC020F0BEC021F008EC9AF09A
:100140001E501F10D8A42BD0BF0E926FFF0E936FBE
:100150009151946F956B925194279351952395519A
:1001600011E11A0E945DD8B00DD0400EC3251E6E5D
:10017000020EC4211F6ED00E206EFF0E216EABEC5E
:100180009EF0BBD7400EC3251E6E020EC4211F6E0B
:10019000D80E206EFF0E216EABEC9EF0AED7000E97
:1001A000C56F000EC66F800EC76F3F0EC86F000E82
:1001B000C26F000EC16FBBC01EF0BCC01FF0BDC03F
:1001C00020F0BEC021F0000E226E000E236E000E45
:1001D000246E000E256ED8EC9CF0D8A01DD074D0F3
:1001E000C5C066F0C6C067F0C7C068F0C8C069F097
:1001F000000E6A6F000E6B6F200E6C6F410E6D6FFC
:10020000F9EC8CF066C0C5F067C0C6F068C0C7F0F6
:1002100069C0C8F0C14BC22BBBC07FF0BCC080F02E
:10022000BDC081F0BEC082F0000E6A6F000E6B6F21
:10023000200E6C6F410E6D6FC5C066F0C6C067F0D2
:10024000C7C068F0C8C069F0F9EC8CF066C083F0F4
:1002500067C084F068C085F069C086F0D2EC98F081
:10026000D8A01ED0BDD7C5C01EF0C6C01FF0C7C0E5
:1002700020F0C8C021F0000E226E000E236E200E6A
:10028000246E410E256E27EC90F01EC0C5F01FC0F5
:10029000C6F020C0C7F021C0C8F0C107D8A0C2076F
:1002A000BBC07FF0BCC080F0BDC081F0BEC082F09A
:1002B000C5C083F0C6C084F0C7C085F0C8C086F052
:1002C000D2EC98F0D8A0CFD791C024F0256A90EC5A
:1002D000A2F02450B26FB2C0AFF0670EB219D8A42A
:1002E00019D0F551F611D8A404D0000EF66F010E06
:1002F000F56FF6BF05D0F65108E1F505D8B005D089
:10030000000EAE6F060EAD6F08D0F5C0ADF0F6C0B2
:10031000AEF003D0F6AFF9D7F3D7670EB219D8A471
:1003200022D0C2AF06D0FC0EC15DFF0EC259D8A0CC
:1003300018D0FF0E926FFF0E936FADC094F0AEC059
:1003400095F09251942793519523C151945D955105
:10035000800A966FC251800A9659D8A002D0660EC4
:1003600001D0650EAF6FADC0A3F0AEC0A4F0670EB4
:10037000B219D8A405D0660EAF19D8B4C2AF02D056
:10038000A34BA42B660EAF19D8A416D0C2AF0CD0C5
:10039000000EC56F000EC66F800EC76F3F0EC86F90
:1003A000000EC26F000EC16F670EB219D8B404D030
:1003B000C151A327C251A423000EC06F000EBF6F0E
:1003C000BBC0B3F0BCC0B4F0BDC0B5F0BEC0B6F0A9
:1003D000C5C0A5F0C6C0A6F0C7C0A7F0C8C0A8F0A9
:1003E0007AD0B3C01EF0B4C01FF0B5C020F0B6C0C4
:1003F00021F0C5C022F0C6C023F0C7C024F0C8C099
:1004000025F027EC90F01EC071F01FC072F020C0E4
:1004100073F021C074F022EC93F071C0B7F072C099
:10042000B8F073C0B9F074C0BAF0B7C01EF0B8C06D
:100430001FF0B9C020F0BAC021F0CEEC9AF01EC077
:10044000A9F01FC0AAF0B3C07FF0B4C080F0B5C05F
:1004500081F0B6C082F0C5C06AF0C6C06BF0C7C0FC
:100460006CF0C8C06DF0B7C066F0B8C067F0B9C036
:1004700068F0BAC069F0F9EC8CF066C083F067C030
:1004800084F068C085F069C086F010ECA1F07FC0F0
:10049000B3F080C0B4F081C0B5F082C0B6F0C5C082
:1004A0001EF0C6C01FF0C7C020F0C8C021F0000E6B
:1004B000226E000E236E200E246E410E256E27EC58
:1004C00090F01EC0C5F01FC0C6F020C0C7F021C00C
:1004D000C8F0BF4BC02BA351BF5DC051800A926FC3
:1004E000A451800A9259D8A07CD7C5C066F0C6C076
:1004F00067F0C7C068F0C8C069F0000E6A6F000EF0
:100500006B6FA00E6C6F400E6D6FF9EC8CF066C0D7
:10051000B7F067C0B8F068C0B9F069C0BAF0B3C04E
:100520007FF0B4C080F0B5C081F0B6C082F0B7C033
:1005300083F0B8C084F0B9C085F0BAC086F0D2ECC0
:1005400098F0D8A015D0B3C01EF0B4C01FF0B5C04D
:1005500020F0B6C021F0B7C022F0B8C023F0B9C077
:1005600024F0BAC025F0D8EC9CF0D8B0A9B108D0DE
:10057000000EB76F000EB86F000EB96F000EBA6FA5
:10058000BBC01EF0BCC01FF0BDC020F0BEC021F03B
:10059000B7C022F0B8C023F0B9C024F0BAC025F02B
:1005A000A1EC8EF01EC0B3F01FC0B4F020C0B5F0B7
:1005B00021C0B6F0B3C07FF0B4C080F0B5C081F008
:1005C000B6C082F0000E6A6F000E6B6F200E6C6F6B
:1005D000410E6D6FA5C066F0A6C067F0A7C068F0B9
:1005E000A8C069F0F9EC8CF066C083F067C084F0B5
:1005F00068C085F069C086F0D2EC98F0D8A022D00F
:10060000C14BC22BA5C066F0A6C067F0A7C068F0BA
:10061000A8C069F0000E6A6F000E6B6F200E6C6F41
:10062000410E6D6FF9EC8CF066C0A5F067C0A6F0C6
:1006300068C0A7F069C0A8F0660EAF19D8A402D0B0
:10064000A34BA42BA5C0C5F0A6C0C6F0A7C0C7F099
:10065000A8C0C8F0650EAF19D8B405D0C1C0A1F0CC
:10066000C2C0A2F004D0000EA26F000EA16F000E57
:10067000A06F000E9F6F000E9E6F000E9D6F000E0C
:10068000C06F000EBF6FC4D0B3C01EF0B4C01FF067
:10069000B5C020F0B6C021F0C5C022F0C6C023F01E
:1006A000C7C024F0C8C025F027EC90F01EC071F040
:1006B0001FC072F020C073F021C074F022EC93F0E0
:1006C00071C0B7F072C0B8F073C0B9F074C0BAF0BE
:1006D000B7C01EF0B8C01FF0B9C020F0BAC021F0FA
:1006E000CEEC9AF01EC0A9F01FC0AAF033B80CD00F
:1006F000A951AA11D8A408D0670EB219D8B4A2AFD4
:1007000003D09D4B9E2B39D09F51A011D8B4A2AFDE
:1007100022D0400EC325D96E020EC421DA6E2E0EF1
:10072000DF6EC34BC42BB007D8A0B107000EA06F7B
:10073000010E9F6F10D0400EC325D96E020EC4214A
:10074000DA6E300EDF6EC34BC42BB007D8A0B107F2
:100750009D07D8A09E079D519E11D8A4ECD7400EAE
:10076000C325D96E020EC421DA6EA951300FDF6E97
:10077000C34BC42BB007D8A0B107B3C07FF0B4C03F
:1007800080F0B5C081F0B6C082F0C5C06AF0C6C0C6
:100790006BF0C7C06CF0C8C06DF0B7C066F0B8C0F1
:1007A00067F0B9C068F0BAC069F0F9EC8CF066C0C7
:1007B00083F067C084F068C085F069C086F010ECF3
:1007C000A1F07FC0B3F080C0B4F081C0B5F082C0AA
:1007D000B6F0C5C01EF0C6C01FF0C7C020F0C8C02C
:1007E00021F0000E226E000E236E200E246E410EAC
:1007F000256E27EC90F01EC0C5F01FC0C6F020C0CB
:10080000C7F021C0C8F0A107D8A0A207BF4BC02BDA
:10081000A351BF5DC051800A926FA451800A9259C2
:10082000D8B008D0C4BF30D7C45104E14B0EC35D6B
:10083000D8A02AD79F51A011D8B433A80AD0400E0F
:10084000C325D96E020EC421DA6E2E0EDF6EC34BA5
:10085000C42B400EC325D96E020EC421DA6E000EE1
:10086000DF6E650EAF19D8A44DD4000EC06F4F0EC9
:10087000BF6F400EBF25D96E020EC021DA6E000E8A
:10088000DF6E000EAC6F000EAB6FC2AF08D0000E73
:10089000AC6F010EAB6FC16DC21FD8B0C22B000E82
:1008A000AE6F020EAD6F2AD0BF07D8A0C007400EB2
:1008B000BF25D96E020EC021DA6EC1C01EF0C2C0C3
:1008C0001FF0000E216E0A0E206ED3EC9DF01E501C
:1008D000300FDF6EC1C01EF0C2C01FF0000E216ECF
:1008E0000A0E206E1DEC9DF01EC0C1F01FC0C2F0AC
:1008F000AD07D8A0AE07B007D8A0B107C151C2114B
:10090000D8A4D2D7AEBF05D0AE51CEE1AD05D8B098
:10091000CBD7BF07D8A0C007AB51AC11D8A404D027
:10092000000E9A6F2B0E03D0000E9A6F2D0E996F4A
:10093000400EBF25D96E020EC021DA6E600067F24C
:10094000DFFFB007D8A0B107BF07D8A0C007BF0E10
:10095000926FFF0E936F9151946F956B9251942704
:1009600093519523955104E11A0E945DD8A004D0BB
:10097000000E9C6F650E03D0000E9C6F450E9B6FA2
:10098000400EBF25D96E020EC021DA6E60006FF2F4
:10099000DFFFB007D8A0B107400EC3251E6E020EC0
:1009A000C4211F6E400EBF25206E020EC021216E95
:1009B000ABEC9EF082EF80F0CB51D96EDA6A6F001B
:1009C0007BFFF6FF6F0077FFF7FF000EF86E080061
:1009D000F550250AD8A44BD3CB51D96EDA6ADE2A5A
:1009E000000EDD22000EF46F000EF36FF3C033F043
:1009F000F4C034F0F569F669000EDD6F000E13D017
:100A00003380CB51D96EDA6ADE2A000EDD2231D076
:100A10003382F7D73384F5D73386F3D73388F1D7CA
:100A2000000EDD6F010EDC6F24D0CB51D96EDA6A77
:100A30006F007BFFF6FF6F0077FFF7FF000EF86E89
:100A40000800F550CE6FCF6BCF51000AD8A4E8D77D
:100A5000CE51200AD8B4E0D7030AD8B4DFD7080AA9
:100A6000D8B4D8D7060AD8B4CBD71D0AD8B4D0D7B3
:100A7000D7D7DC51DD11D8B4D8D733B03392CB51AE
:100A8000D96EDA6A6F007BFFF6FF6F0077FFF7FF22
:100A9000000EF86E0800F5502A0AD8A42AD0CB51CF
:100AA000D96EDA6ADE2A000EDD22600033F3D9FF48
:100AB000600037F3DAFF6F007CFFCEF0020EDE2617
:100AC0006F007CFFCFF0000EDD2260003BF3D9FF0A
:100AD00060003FF3DAFF6F0078FFF3F06F0074FF00
:100AE000F4F0F4AF39D03380F36DF41FD8B0F42BA9
:100AF00033D0CB51D96EDA6A6F0078FF25F06F00E2
:100B000074FF26F046EC97F025C0F3F026C0F4F011
:100B100006D0CB51D96EDA6ADE2A000EDD22D00E65
:100B2000CE6FFF0ECF6FCB51D96EDA6A6F007BFFAD
:100B3000F6FF6F0077FFF7FF000EF86E0800F55024
:100B4000D06FD16BCE51D027CF51D123D15104E1F9
:100B50000A0ED05DD8A0DDD7CB51D96EDA6A6F000E
:100B60007BFFF6FF6F0077FFF7FF000EF86E0800BF
:100B7000F5502E0AD8A470D0000EF66F000EF56F57
:100B8000CB51D96EDA6ADE2A000EDD22CB51D96E46
:100B9000DA6A6F007BFFF6FF6F0077FFF7FF000E4A
:100BA000F86E0800F5502A0AD8A423D0CB51D96E8C
:100BB000DA6ADE2A000EDD22600033F3D9FF60001E
:100BC00037F3DAFF6F007CFFCEF0020EDE266F00F7
:100BD0007CFFCFF0000EDD2260003BF3D9FF600008
:100BE0003FF3DAFF6F0078FFF5F06F0074FFF6F067
:100BF00033D0CB51D96EDA6A6F0078FF25F06F00E1
:100C000074FF26F046EC97F025C0F5F026C0F6F00C
:100C100006D0CB51D96EDA6ADE2A000EDD22D00E64
:100C2000CE6FFF0ECF6FCB51D96EDA6A6F007BFFAC
:100C3000F6FF6F0077FFF7FF000EF86E0800F55023
:100C4000D06FD16BCE51D027CF51D123D15104E1F8
:100C50000A0ED05DD8A0DDD7CB51D96EDA6A6F000D
:100C60007BFFF6FF6F0077FFF7FF000EF86E0800BE
:100C7000F550246E256A90ECA2F02450E56FE55102
:100C8000D8B43DD0CB51D96EDA6A6F0078FFCEF080
:100C90006F0074FFCFF0010ECE27000ECF2360004F
:100CA0003BF3F6FF60003FF3F7FF000EF86E08001D
:100CB000F550246E256A90ECA2F02450E66FE651C0
:100CC000D8B41DD0CB51D96EDA6A6F0078FFCEF060
:100CD0006F0074FFCFF0020ECE27000ECF2360000E
:100CE0003BF3F6FF60003FF3F7FF000EF86E0800DD
:100CF000F550246E256A90ECA2F02450E76F660E42
:100D0000E519D8A44CD0CB51D96EDA6A6F007BFFBD
:100D1000F6FF6F0077FFF7FF000EF86E08006F0018
:100D2000D4FFE0F0CB51D96EDA6ADE2A000EDD2264
:100D3000600033F3D9FF600037F3DAFF6F007CFF08
:100D4000CEF0040EDE266F007CFFCFF0000EDD2219
:100D500060003BF3D9FF60003FF3DAFF6F0078FFDC
:100D6000E1F06F0078FFE2F06F0078FFE3F06F00D2
:100D700078FFE4F0C9C08BF0CAC08CF0E1C08DF000
:100D8000E2C08EF0E3C08FF0E4C090F0E0C091F0DC
:100D900000EC80F08BC0C9F08CC0CAF01200E50EE8
:100DA000606F616BE00E626FFF0E636F000E656F28
:100DB000020E646FF7EC93F060516111D8A45ED01D
:100DC000CB51D96EDA6A6F0078FFCEF06F0074FFF6
:100DD000CFF0010ECE27000ECF2360003BF3F6FFCD
:100DE00060003FF3F7FF000EF86E08006F00D4FFBD
:100DF000E0F0BF0ECE6FFF0ECF6FCB51D96EDA6A27
:100E00006F007BFFF6FF6F0077FFF7FF000EF86EB5
:100E10000800F550D06FD16BCE51D027CF51D123E0
:100E2000D15102E11A0ED05D600033F3D9FF6000AA
:100E300037F3DAFF6F007CFFCEF0040EDE266F0082
:100E40007CFFCFF0000EDD2260003BF3D9FF600095
:100E50003FF3DAFF6F0078FFE1F06F0078FFE2F018
:100E60006F0078FFE3F06F0078FFE4F0CB51D96EAC
:100E7000DA6A020EDE26000EDD227CD7CB51D96E57
:100E8000DA6A6F007BFFF6FF6F0077FFF7FF000E57
:100E9000F86E0800F550730AD8B417D0CB51D96E4C
:100EA000DA6A6F0078FF60F06F0074FF61F0DC0EAB
:100EB000626FFF0E636F000E656F030E646FF7ECD9
:100EC00093F060516111D8A44AD0CB51D96EDA6A3F
:100ED0006F007BFFF6FF6F0077FFF7FF000EF86EE5
:100EE0000800F550730AD8B404D0000EDF6F030E6B
:100EF00003D0000EDF6F010EDE6FCB51D96EDA6AC0
:100F0000DE51DE26DF51DD22600033F3D9FF6000C1
:100F100037F3DAFF6F007CFFCEF0020EDE266F00A3
:100F20007CFFCFF0000EDD2260003BF3D9FF6000B4
:100F30003FF3DAFF6F0078FFDAF06F0074FFDBF049
:100F4000C9C065F0CAC066F0DAC067F0DBC068F0FF
:100F500056EC95F065C0C9F066C0CAF01200CB51DE
:100F6000D96EDA6A6F007BFFF6FF6F0077FFF7FF3D
:100F7000000EF86E0800F550750AD8A447D0CB5182
:100F8000D96EDA6ADE2A000EDD22600033F3D9FF63
:100F9000600037F3DAFF6F007CFFCEF0020EDE2632
:100FA0006F007CFFCFF0000EDD2260003BF3D9FF25
:100FB00060003FF3DAFF6F0078FFD0F06F0074FF3E
:100FC000D1F0D0C0D2F0D1C0D3F0D46BD56BD66BFA
:100FD000D76BD86BD96BC9C076F0CAC077F0D2C0D6
:100FE00078F0D3C079F0D4C07AF0D5C07BF0D6C009
:100FF0007CF0D7C07DF0D8C07EF0D9C07FF04AEC3D
:1010000092F076C0C9F077C0CAF01200CB51D96E09
:10101000DA6A6F007BFFF6FF6F0077FFF7FF000EC5
:10102000F86E0800F550250AD8A416D0CB51D96E19
:10103000DA6ADE2A000EDD22000E216E250E206EF9
:10104000C9C022F0CAC023F087EC9BF0000E00015B
:10105000CA6F010EC96F1200CB51D96EDA6ADE2A4F
:10106000000EDD22000ECA6F000EC96F1200CB51B8
:10107000D96EDA6A6F007BFFF6FF6F0077FFF7FF2C
:10108000000EF86E0800F550206E216AC9C022F0EB
:10109000CAC023F087EC9BF00001CB51D96EDA6A0D
:1010A000DE2A000EDD22D2D7000E0201DB6F000E19
:1010B000DC6F16ECA2F0BD92BE94360E1E6E4A0E88
:1010C0001F6E010E206E51ECA6F0C20E1E6E3F0E7A
:1010D0001F6E010E206E58ECA6F0BE0E1E6E3A0E6C
:1010E0001F6E010E206E6DECA6F0000E3E01F16F3A
:1010F000000E1F6E000E1E6E8BECA3F0000E1F6E16
:10110000000E1E6E72ECA3F0320E1E6E4D0E1F6EA0
:10111000010E206E66ECA6F0D28ED28C0001F85142
:101120007FECA6F06EEC9AF00C0E04ECA6F0DC0E50
:101130001F6E020E206E6EECA4F00009D8A4F7D743
:101140009DECA5F0000E0201C26F040EC36FA00E4D
:10115000C46FFF0EC56FB10EC66FFF0EC76FBD0E19
:10116000C86FFF0EC96F8FEC9FF0000E00016C6F0F
:10117000040E6D6F04ECA3F0010E246E2C0E236E92
:101180005AECA4F0000E0201C26F040EC36FC60E2B
:10119000C46FFF0EC56FB10EC66FFF0EC76FBD0ED9
:1011A000C86FFF0EC96F8FEC9FF0000E00016C6FCF
:1011B000000E6D6F040E6E6F000E79EC9EF0000E47
:1011C0000201C26F040EC36FC90EC46FFF0EC56F5C
:1011D000200EC66FFE0EC76F8FEC9FF0000E000151
:1011E0006C6F000E6D6F040E6E6F010E79EC9EF049
:1011F000000E1F6E000E1E6E58ECA5F0310AD8B41A
:1012000029D0000E1F6E000E1E6E310E206E99EC5E
:10121000A1F0000E1F6E010E1E6E390E206E99ECAD
:10122000A1F0000E1F6E020E1E6E350E206E99ECA0
:10123000A1F0000E1F6E030E1E6E370E206E99EC8D
:10124000A1F0000E1F6E100E1E6E000E206E99ECA7
:10125000A1F007D0000E1F6E100E1E6E58ECA5F008
:101260003B6E070E246ED00E236E5AECA4F00001E4
:10127000FA51D8B4FCD7840E0101005D030E015968
:10128000D8B004D0000E2BEC9BF00DD0090E005D01
:10129000070E0159D8A004D0010E2BEC9BF003D00F
:1012A000020E2BEC9BF00101035108E1320E025DAE
:1012B000D8B004D0030E2BEC9BF00DD0035104E109
:1012C000970E025DD8A004D0040E2BEC9BF003D047
:1012D000050E2BEC9BF0000E0001FA6FCABC04D087
:1012E0000B0E2BEC9BF003D0090E2BEC9BF0CAB835
:1012F00004D0070E2BEC9BF003D0060E2BEC9BF0DA
:101300000001FB51D8B4B3D73B50080DD30EF324E2
:10131000FC6F010EF420FD6F00C11EF001C11FF033
:10132000206A216A000EA5EC96F01EC066F01FC070
:1013300067F020C068F021C069F06000F3F3D9FFC6
:101340006000F7F3DAFF6F0078FF6AF06F0078FF54
:101350006BF06F0078FF6CF06F0078FF6DF0F9ECC8
:101360008CF066C0A6F167C0A7F168C0A8F169C09B
:10137000A9F102C11EF003C11FF0206A216A000E0C
:10138000A5EC96F01EC066F01FC067F020C068F0A4
:1013900021C069F020EE04F0FC51D926FD51DA227B
:1013A0006F0078FF6AF06F0078FF6BF06F0078FFD6
:1013B0006CF06F0078FF6DF0F9EC8CF066C0A2F174
:1013C00067C0A3F168C0A4F169C0A5F12E0E0201A7
:1013D000C26FFE0EC36F3BC0C4F2C56BF9C0C6F24C
:1013E000C76B7AC1C8F27BC1C9F28EECA6F00101CD
:1013F000FD6FFD510201CA6FCB6B00C1CCF201C180
:10140000CDF2A6C1CEF2A7C1CFF2A8C1D0F2A9C138
:10141000D1F202C1D2F203C1D3F2A2C1D4F2A3C16C
:10142000D5F2A4C1D6F2A5C1D7F230ECA4F00201E6
:10143000DB2BDB050101FD6F030EFD17D8A4ACD03B
:10144000000E0201C26F040EC36F060EC46FFF0EC2
:10145000C56F7AC1C6F27BC1C7F200C1C8F201C133
:10146000C9F202C1CAF203C1CBF28FEC9FF0000EA9
:1014700000016C6F000E6D6F040E6E6F010E79EC43
:101480009EF0000E0201C26F040EC36F060EC46F01
:10149000FF0EC56F42C1C6F243C1C7F250C1C8F2C8
:1014A00051C1C9F252C1CAF253C1CBF28FEC9FF0C5
:1014B000000E00016C6F000E6D6F040E6E6F020E59
:1014C00079EC9EF0000E0201C26F040EC36F6C0E29
:1014D000C46FFF0EC56F8EECA6F00101FD6FFD51CC
:1014E0000201C66FC76BF9C0C8F2C96B3BC0CAF234
:1014F000CB6B8FEC9FF0000E00016C6F000E6D6FD8
:10150000040E6E6F030E79EC9EF0000E0201C26FA6
:10151000040EC36F1E0EC46FFF0EC56FA6C1C6F2C8
:10152000A7C1C7F2A8C1C8F2A9C1C9F2A2C1CAF233
:10153000A3C1CBF2A4C1CCF2A5C1CDF28FEC9FF038
:10154000000E00016C6F000E6D6F040E6E6F000ECA
:1015500079EC9EF021D00001F851FF5DD8B002D0A7
:10156000000EF86FF82BF8517FECA6F008D0BA9A6D
:1015700027D0FEC0F8F00001F8517FECA6F0BD8244
:10158000F6D7000E0001F96F000EF86F000E7FEC29
:10159000A6F0BD92BA8A14D00001F9510101FD6F85
:1015A000FE6BFE51000AD8A4ECD7FD51000AD8B456
:1015B000E8D7010AD8B4CFD7030AD8B4DAD7E1D72D
:1015C000000E00017C6F050E7D6FACEC94F0000EF8
:1015D0000001FB6FCBB009D0F72B040EF76547D69F
:1015E000F92B000EF76FBE8442D6000EF76FBE9443
:1015F0003ED6FF00FF00FF00FF00FF00FF00FF00DE
:10160000FF000000000000000000000000000000DB
:1016100000000000000000000000000000000000CA
:1016200000000000000000000000000000000000BA
:1016300000000000000000000000000000000000AA
:10164000000000000000000000000000000000009A
:1019F00000006951800B726F69516925746F68BF6F
:101A000074817451D8B40DD07429D8A408D0000EB4
:101A1000666F000E676F000E686F000E696F688F4B
:101A200008D0000E666F000E676F000E686F000E24
:101A3000696F6D51800B721B6D516D25736F6CBF9B
:101A400073817351D8B40DD07329D8A408D0000E77
:101A50006A6F000E6B6F000E6C6F000E6D6F6C8FF7
:101A600008D0000E6A6F000E6B6F000E6C6F000ED8
:101A70006D6F7351D8B403D07451D8A409D0000E3F
:101A8000666F000E676F000E686F000E696F1200C0
:101A90006C5166036F00CCFF7DF06F00D0FF7EF0CD
:101AA0007D51756F766B776B786B7E51796F7A6B42
:101AB0007B6B7C6B6B5167036F00CCFF7DF06F001D
:101AC000D0FF7EF07D517527000E76237723782393
:101AD0007E517927000E7A237B237C236A51680389
:101AE0006F00CCFF7DF06F00D0FF7EF07D51752739
:101AF000000E7623772378237E517927000E7A23F0
:101B00007B237C2377C078F076C077F075C076F0C1
:101B1000756B6A5167036F00CCFF7DF06F00D0FFDB
:101B20007EF07D5175277E517623000E7723000EBF
:101B300078236B5166036F00CCFF7DF06F00D0FF00
:101B40007EF07D5175277E517623000E7723000E9F
:101B5000782377C078F076C077F075C076F0756B33
:101B60006A5166036F00CCFF7DF06F00D0FF7EF0FE
:101B70007D5175277E517623000E7723000E782342
:101B80006C5167036F00CCFF7DF06F00D0FF7EF0DB
:101B90007D5179277E517A23000E7B23000E7C2312
:101BA0006B5168036F00CCFF7DF06F00D0FF7EF0BB
:101BB0007D5179277E517A23000E7B23000E7C23F2
:101BC0006C5168036F00CCFF7DF06F00D0FF7EF09A
:101BD0007D516E6F7E516F6F706B716B70C071F065
:101BE0006FC070F06EC06FF06E6B6E5179276F51E1
:101BF0007A2370517B2371517C2378517927000E11
:101C00007A237B237C2377C078F076C077F075C089
:101C100076F0756B735174C06EF06F6B6E27000EAB
:101C20006F23820E6E257D6FFF0E6F217E6F0FD0AA
:101C3000D89079377A377B377C3778BF7981D890DD
:101C400075377637773778377D07D8A07E077BAF33
:101C5000EFD7000E736F78AF17D0FF0E75156E6F4C
:101C6000FF0E76156F6FFF0E7715706F7F0E78156C
:101C7000716F6E516F1170117111D8B403D0010ED4
:101C8000736F02D079B1FBD77351D8B41FD0010E56
:101C90007927000E7A237B237C237CA117D079C07F
:101CA0006EF07AC06FF07BC070F07CC071F071355F
:101CB000713370336F336E336EC079F06FC07AF06A
:101CC00070C07BF071C07CF07D4B7E2B7EBF0DD051
:101CD0007E5103E17D29D8A008D0000E796F000E57
:101CE0007A6F800E7B6F7F0E20D07EBF05D07E5135
:101CF0000EE17D05D8B00BD0000E796F000E7A6F23
:101D0000000E7B6F000E7C6F000E726F0FD07DC0D7
:101D100074F0FF0E7917FF0E7A177F0E7B17000EF7
:101D20007C1774B17B8FD89074317C6F72517C13A7
:101D300079C066F07AC067F07BC068F07CC069F05B
:101D400012002150800B646F21502124666F20BE49
:101D500066816651D8B40DD06629D8A408D0000E8B
:101D60001E6E000E1F6E000E206E000E216E208E65
:101D700006D0000E1E6E000E1F6E000E206E000EAE
:101D8000216E2550800B656F64516519D8A4648D50
:101D900025502524656F24BE65816551D8B40DD0CA
:101DA0006529D8A408D0000E226E000E236E000E06
:101DB000246E000E256E248E06D0000E226E000EBC
:101DC000236E000E246E000E256E6651655DD8B040
:101DD00022D064AD02D0800E641B66C067F065C07F
:101DE00066F067C065F01EC067F022C01EF067C0D5
:101DF00022F01FC067F023C01FF067C023F020C08F
:101E000067F024C020F067C024F021C067F025C02F
:101E100021F067C025F0000E676F665165C060F065
:101E2000616B605F000E615B61BF2CD0615104E1AA
:101E30001A0E605DD8A026D01E501F102010211051
:101E4000D8B402D0010E01D0000E676F000E1E6ED6
:101E5000000E1F6E000E206E000E216E65C066F033
:101E600015D067A105D0D89067310109676F02D0FE
:101E7000D89067331EB0678F2134213220321F3251
:101E80001E32662B6551665DD8A0EBD764BD28D0A5
:101E90006651D8A409D0000E1E6E000E1F6E000EF3
:101EA000206E000E216E120022501E2623501F228B
:101EB000245020222550212221A071D067A105D0D5
:101EC000D89067310109676F02D0D89067331EB090
:101ED000678F2134213220321F321E32662B5FD0B1
:101EE00022501E5C23501F58245020582150800A35
:101EF000606F2550800A6059D8B025D01E50225CF2
:101F0000606F1F502358616F20502458626F21501A
:101F10002558636FFF0E60251E6EFF0E61211F6E38
:101F2000FF0E6221206EFF0E6321216E800E641B66
:101F3000676D6751D8A40FD0010E1E26000E1F2218
:101F40002022212208D022501E5E23501F5A2450E6
:101F5000205A2550215A1E501F1020102110D8A49D
:101F60001CD06751D8A419D0000E1E6E000E1F6E33
:101F7000000E206E000E216E1200D8901E361F3605
:101F80002036213667BF1E8067A102D0D88001D0DD
:101F9000D89067376651D8A4660720AEEED7000EFA
:101FA000656F67AF0BD067C060F07F0E6017D8B465
:101FB00003D0010E656F02D01EB0FBD76551D8B4B7
:101FC00020D0010E1E26000E1F222022212221A039
:101FD00018D01EC060F01FC061F020C062F021C0A8
:101FE00063F06335633362336133603360C01EF086
:101FF00061C01FF062C020F063C021F06629D8A440
:10200000662B6629D8B403D06651D8A40DD0000E33
:102010001E6E000E1F6E000E206E000E216E6651A9
:10202000D8A402D0000E646F66A102D0208E01D029
:10203000209ED8906631216E64BF218E1EC01EF096
:102040001FC01FF020C020F021C021F0120021503D
:10205000800B686F215021246F6F20BE6F816F51FC
:10206000D8B40DD06F29D8A408D0000E1E6E000E73
:102070001F6E000E206E000E216E208E06D0000E08
:102080001E6E000E1F6E000E206E000E216E25507B
:10209000800B681B25502524706F24BE7081705101
:1020A000D8B40DD07029D8A408D0000E226E000E2E
:1020B000236E000E246E000E256E248E06D0000EB8
:1020C000226E000E236E000E246E000E256E22502E
:1020D000231024102510D8A417D0000E1E6E000E59
:1020E0001F6E000E206E000E216E800E20127F0EDD
:1020F0002112685121121EC01EF01FC01FF020C007
:1021000020F021C021F012006F51D8A409D0000E98
:102110001E6E000E1F6E000E206E000E216E12004D
:1021200070516FC060F0616B605F000E615B7F0E8D
:102130006025696F000E61216A6F1EC064F01FC0C8
:1021400065F020C066F021C067F0000E1E6E000E24
:102150001F6E000E206E000E216E000E6B6F000EC3
:102160006C6F000E6D6F000E6E6F000E706F28D0DA
:102170007051D8B411D0D890643765376637673757
:10218000D8901E361F36203621366EBF1E80D8905E
:102190006B376C376D376E372250645D235065594D
:1021A0002450665925506759D8A009D06E8D225009
:1021B000645F2350655B2450665B2550675B702B22
:1021C000190E7065D5D76451651166116711D8B4C1
:1021D00011D06B810FD0D8901E361F362036213695
:1021E0006EBF1E80D8906B376C376D376E376907BE
:1021F000D8A06A0720AEEFD7000E706F6EAF17D071
:10220000FF0E6B15606FFF0E6C15616FFF0E6D1585
:10221000626F7F0E6E15636F605161116211631101
:10222000D8B403D0010E706F02D01EB0FBD770512E
:10223000D8B41FD0010E1E26000E1F2220222122FC
:1022400021A017D01EC060F01FC061F020C062F056
:1022500021C063F06335633362336133603360C040
:102260001EF061C01FF062C020F063C021F0694B16
:102270006A2B6ABF10D06A5103E16929D8A00BD03C
:10228000000E6A6F6969000E1E6E000E1F6E000E52
:10229000206E000E216E6ABF05D06A5111E16905FA
:1022A000D8B00ED0000E6A6F000E696F000E1E6E61
:1022B000000E1F6E000E206E000E216E000E686F65
:1022C00069C06FF06FA102D0208E01D0209ED890FF
:1022D0006F31216E0ED7000E00017B6F000E7A6FFA
:1022E000020E70251E6E000E71211F6E59ECA0F0BB
:1022F0001E501F10D8A402D0030E1200020E0001BF
:1023000070251E6E000E71211F6E59ECA0F01F503B
:1023100003E1020E1E5CD8B07DD0020E12007B518C
:10232000050D6F00CCFF72F06F00D0FF73F06000FE
:10233000C3F1D9FF6000C7F1DAFF6F0078FF74F0D6
:102340006F0074FF75F072517425D96E7351752149
:10235000DA6E6F0078FF60F06F0074FF61F0020EBC
:102360007025626F000E7121636F7B51050D6F0048
:10237000CCFF76F06F00D0FF77F06000C3F1D9FF9B
:102380006000C7F1DAFF6F0078FF78F06F0074FF2C
:1023900079F076517825D96E77517921DA6E6F0010
:1023A00078FF1EF06F0074FF1FF059ECA0F01EC004
:1023B00064F01FC065F0F7EC93F060516111D8A490
:1023C00028D070C06EF071C06FF07B51050D6000B9
:1023D000C3F1D9FF6000C7F1DAFF6F0078FF72F038
:1023E0006F0074FF73F0F3507227F4507323020EE2
:1023F0007225D96E000E7321DA6E01D829D005003E
:10240000FA6EDE50FD6EDE50FE6EDE50FF6EFA504C
:1024100012007B2B00017B51050D6000C3F1D9FF39
:102420006000C7F1DAFF6F0078FF72F06F0074FF91
:1024300073F0F3507227F4507323020E7225D96E95
:10244000000E7321DA6EDE50DE10DE10D8A467D7DE
:1024500000017B51050D6000C3F1D9FF6000C7F199
:10246000DAFF6F0078FF72F06F0074FF73F0F350C3
:102470007227F4507323020E7225D96E000E732159
:10248000DA6EDE50DE10DE10D8A402D0010E7A6FB4
:102490007A511200F6AF3392F6BF05D0F65108E13B
:1024A000F505D8B005D0000E896F010E886F04D0F5
:1024B000F5C088F0F6C089F0F3C08AF0F4C08BF064
:1024C00078C08CF079C08DF07AC08EF07BC08FF030
:1024D0007CC090F07DC091F07EC092F07FC093F000
:1024E000000E956F4F0E946F000E02018F6F76D025
:1024F0009407D8A09507400E9425D96E020E952119
:10250000DA6E8CC060F08DC061F08EC062F08FC05A
:1025100063F090C064F091C065F092C066F093C023
:1025200067F00A0E686F000E696F000E6A6F000E8A
:102530006B6F000E6C6F000E6D6F000E6E6F000EF5
:102540006F6FE3EC9BF060C080F061C081F062C00F
:1025500082F063C083F064C084F065C085F066C01B
:1025600086F067C087F08051300FDF6E8807D8A0F3
:1025700089078A07D8A08B078CC060F08DC061F0F6
:102580008EC062F08FC063F090C064F091C065F0BF
:1025900092C066F093C067F00A0E686F000E696F14
:1025A000000E6A6F000E6B6F000E6C6F000E6D6F89
:1025B000000E6E6F000E6F6F3AEC99F060C08CF0F9
:1025C00061C08DF062C08EF063C08FF064C090F087
:1025D00065C091F066C092F067C093F0000194511D
:1025E0009511D8B41AD08C518D118E118F11901174
:1025F000911192119311D8A47BD789BF05D089512D
:1026000002E18805D8B074D78BBF07D08B5103E1A6
:102610008A05D8A002D033B26BD776C06CF077C0F1
:102620006DF0400E94256E6F020E95216F6F8AC07B
:1026300070F08BC071F08BEC9CF06CC076F06DC0CC
:1026400077F0120096C181F097C182F098C183F0B3
:1026500099C184F071C081F072C082F073C083F0C0
:1026600074C084F0810E756FFF0E766F81C077F0B5
:1026700082C078F083C079F084C07AF0180E05D05B
:10268000D8907A33793378337733E82EF9D7775186
:1026900075257F6F000E7621806F80BF0FD080512F
:1026A00004E1170E7F5DD8A009D071C071F072C02F
:1026B00072F073C073F074C074F0120080BF5CD00D
:1026C0007FC075F0FF0E766FFF0E776F7F0E786F0D
:1026D000000E796F756701D007D07935793378337B
:1026E00077337633752FF6D776C07BF077C07CF0E2
:1026F00078C07DF079C07EF000017B518115756F47
:102700007C518215766F7D518315776F7E518415CC
:10271000786F7551761177117811D8B4C6D781C00A
:1027200075F082C076F083C077F084C078F0200E18
:1027300005D0D8907833773376337533E82EF9D7D0
:102740007551D8B408D07B5181277C5182237D51AB
:1027500083237E5184237B1D756F7C1D766F7D1DC9
:10276000776F7E1D786F755181177651821777517B
:1027700083177851841732D081C075F082C076F00B
:1027800083C077F084C078F0200E05D0D8907833DD
:10279000773376337533E82EF9D7756708D0000E96
:1027A000816F000E826F000E836F000E16D0D890DE
:1027B0008135756F8235766F8335776F8435786FA5
:1027C0007551761177117811D8B408D0000E816F49
:1027D000000E826F800E836FBF0E846F81C071F018
:1027E00082C072F083C073F084C074F0120060C0C5
:1027F00066F061C067F062C068F063C069F0000114
:102800006407D8A06507642910E16529D8A40DD014
:10281000000E616F000E606F12000001664B672BA7
:10282000684B692B6407D8A0650760009BF1F6FF31
:1028300060009FF1F7FF000EF86E1F0EF76403D0E3
:102840000800F55007D06F00DBFFE1FF6F00DFFFEE
:10285000E2FFE7500009D8B44BD06000A3F1F6FFC7
:102860006000A7F1F7FF000EF86E1F0EF76403D0AB
:102870000800F55007D06F00DBFFE1FF6F00DFFFBE
:10288000E2FFE7500009D8B433D00001645165116C
:10289000D8B42ED06000A3F1F6FF6000A7F1F7FFD7
:1028A000000EF86E1F0EF76403D00800F55007D035
:1028B0006F00DBFFE1FF6F00DFFFE2FFE750226EFA
:1028C00060009BF1F6FF60009FF1F7FF000EF86ECD
:1028D0001F0EF76403D00800F55007D06F00DBFF30
:1028E000E1FF6F00DFFFE2FFE7502218D8B495D771
:1028F00060009BF1F6FF60009FF1F7FF000EF86E9D
:102900001F0EF76403D00800F55007D06F00DBFFFF
:10291000E1FF6F00DFFFE2FFE750226E6000A3F1EE
:10292000F6FF6000A7F1F7FF000EF86E1F0EF764C8
:1029300003D00800F55007D06F00DBFFE1FF6F0008
:10294000DFFFE2FFE750236E2350225C0001606F3F
:10295000616BD8A061071200000E836F830E1F6E9B
:10296000206A6EECA4F00009D8B4120089D020EEE1
:1029700082F07C51D9267D51DA227E0EDF640CD0A4
:1029800020EE82F07C51D9267D51DA22DF507E6F15
:102990007E51816F826B0ED020EE82F07C51D92661
:1029A0007D51DA22DF507E6F010E7E25816F826BB2
:1029B000000E822381517C257E6F82517D217F6FA5
:1029C000020E7E25D96E000E7F21DA6E000EDF6EBC
:1029D000960E6E6FFE0E6F6F020E706F12ECA6F009
:1029E0007CC070F07DC071F06BEC91F0396E00012D
:1029F00020EE82F07C51D9267D51DA22000EDF6E66
:102A0000020E7C251E6E000E7D211F6E000E216EB3
:102A1000000E206E000E236E800E226EFEEC95F0EE
:102A2000120020EE82F07C51D9267D51DA227F0EF1
:102A3000DF60120020EE82F07C51D9267D51DA222F
:102A4000DF507E6F7E517C257F6F000E7D21806F71
:102A5000020E7F25D96E000E8021DA6E60000FF223
:102A6000DFFF20EE82F07C51D9267D51DA22DF2A69
:102A7000830E6E6F6F6B010E706F12ECA6F012007A
:102A8000000183517E6F7F6B7F51000AD8A4C9D7A4
:102A90007E510D0AD8B46BD7160AD8B41200650A55
:102AA000D8B41200010AD8B41200BBD720EEC8F186
:102AB00010EE69F0060E6F006FFFE3FFE806FBE221
:102AC00067C074F068C075F074517511D8A403D054
:102AD000690E746F756B74C01EF075C01FF059ECF1
:102AE000A0F01EC078F01FC079F0F5C076F0F6C0F7
:102AF00077F0000177BF0ED07851765D7751800A6C
:102B0000246E7951800A2458D8B004D076C078F069
:102B100077C079F078C076F079C077F0F3C072F0C2
:102B2000F4C073F033A00ED017D0000E216E200E2B
:102B3000206E65C022F066C023F087EC9BF0000198
:102B4000784B792B7251785D7951800A246E7351DC
:102B5000800A2458D8A0E9D7000E716F000E706F5C
:102B600024D06000D3F1F6FF6000D7F1F7FF000E2C
:102B7000F86E1F0EF76403D00800F55007D06F0001
:102B8000DBFFE1FF6F00DFFFE2FFE750246E245020
:102B9000206E216A65C022F066C023F087EC9BF0AE
:102BA0000001744B752B704B712B7651705D715118
:102BB000800A246E7751800A2458D8A0D2D733B027
:102BC0000ED017D0000E216E200E206E65C022F0B0
:102BD00066C023F087EC9BF00001784B792B725193
:102BE000785D7951800A246E7351800A2458D8A0E8
:102BF000E9D778C065F079C066F012001EC062F0B7
:102C00001FC063F022502310D8B4120060008BF173
:102C1000D9FF60008FF1DAFF600083F0DFFF225000
:102C200000016225246E23506321256EFF0E2424AB
:102C3000D96EFF0E2520DA6E600083F0DFFF23508F
:102C400004E1030E225CD8A0120020EE01F06251D4
:102C5000D9266351DA22600083F0DFFF20EE02F014
:102C60006251D9266351DA22600083F0DFFF2250DF
:102C70006225246E23506321256EFE0E2424D96E16
:102C8000FF0E2520DA6E600083F0DFFF2250622500
:102C9000246E23506321256EFD0E2424D96EFF0E71
:102CA0002520DA6E600083F0DFFF235004E1070E79
:102CB000225CD8A0120020EE03F06251D9266351A5
:102CC000DA22600083F0DFFF22506225246E235059
:102CD0006321256EFC0E2424D96EFF0E2520DA6EAA
:102CE000600083F0DFFF235004E1090E225CD8A0CE
:102CF000120062C024F063C025F0241E251E244A61
:102D0000252A030E2414606F616B605162276151A4
:102D100063236051225E6151235AFC0E2216FF0E7E
:102D200023160ED060008BF1D9FF60008FF1DAFF1F
:102D3000600083F0DFFF2206D8A02306624B632BDE
:102D400022502310D8B41200EDD7606F00016051FB
:102D5000D8A421AE1AD01EC022F01FC023F020C07C
:102D600024F021C025F0221E231E241E251E222A07
:102D7000000E23222422252222C062F023C063F009
:102D800024C064F025C065F008D01EC062F01FC0EA
:102D900063F020C064F021C065F01E501F102010A9
:102DA0002110D8A409D0000E1E6E000E1F6E000E5A
:102DB000206E000E216E1200960E616F06D0612B00
:102DC000D8906533643363336233000E6215226E2C
:102DD000000E6315236E000E6415246EFE0E65153D
:102DE000256E2250231024102510D8B40DD0E7D71B
:102DF000612B010E6227000E632364236523D890A4
:102E00006533643363336233000E6215226E000E45
:102E10006315236E000E6415246EFF0E6515256E76
:102E20002250231024102510D8B407D0E1D7610711
:102E3000D890623763376437653764BF03D0020EBA
:102E40006161F5D761A1649FD890613361C022F0C0
:102E5000236A246A256A22C025F0246A236A226A2A
:102E600022506213235063132450641325506513BA
:102E70006051D8A421AE01D0658F62C01EF063C03E
:102E80001FF064C020F065C021F01200000E676FD3
:102E9000000E666F000E656F000E646F02D0254A4B
:102EA000262A600097F0F6FF60009BF0F7FF000E07
:102EB000F86E0800F550200AD8B4F1D7F70E606F0D
:102EC000FF0E616F600097F0F6FF60009BF0F7FF68
:102ED000000EF86E0800F550626F636B6051622758
:102EE0006151632363510CE1050E625DD8B008D0D7
:102EF000D6D7000E656F010E646F254A262A36D09C
:102F0000600097F0F6FF60009BF0F7FF000EF86E90
:102F10000800F550606F616B6151000AD8A426D09B
:102F200060512B0AD8B4E9D7060AD8B4E2D71ED02C
:102F300066C01EF067C01FF0000E216E0A0E206EE4
:102F400045ECA4F0600097F0F6FF60009BF0F7FFFF
:102F5000000EF86E0800F5501E5E000E1F5A300E6F
:102F60001E24666F000E1F20676FC7D7D00E606FDC
:102F7000FF0E616F600097F0F6FF60009BF0F7FFB7
:102F8000000EF86E0800F550626F636B60516227A7
:102F900061516323635104E10A0E625DD8A0C8D772
:102FA00064516511D8A40DD066C060F067C061F0AF
:102FB000601F611F604B612B60C025F061C026F06F
:102FC000120066C025F067C026F01200F20EF66E01
:102FD000150EF76E010EF86E01EE83F111EE00F0A2
:102FE00009006F00D7FFEEFFE550E150F9E1E25034
:102FF000F7E1B10EF66E460EF76E010EF86E00EEBA
:1030000090F210EE32F009006F00D7FFEEFFE550AE
:10301000E150F9E17E0EF66E460EF76E010EF86E87
:1030200000EEC8F110EE33F009006F00D7FFEEFF9D
:10303000E550E150F9E12E0EF66E4D0EF76E010EE1
:10304000F86E00EEFCF010EE04F009006F00D7FF00
:10305000EEFFE550E150F9E101EE00F1830EEE6A7A
:10306000E806FDE101EE00F010EEFFF0EE6AE5503B
:10307000E150FCE1E250FAE100EE00F3C30EEE6A2B
:10308000E806FDE100EE00F2900EEE6AE806FDE1D2
:1030900000EE00F1C80EEE6AE806FDE100EEF0F089
:1030A0000C0EEE6AE806FDE100EE27F01C0EEE6A5B
:1030B000E806FDE1080ED56E000ED66E000ED76E46
:1030C000000154EF88F039019397740E1E6E380E8C
:1030D0001F6E010E206E2EECA6F09399320E1E6E1E
:1030E000480E1F6E010E206E27ECA6F0939B080E73
:1030F0001E6E4D0E1F6E010E206E3CECA6F0939DD1
:10310000280E1E6E4D0E1F6E010E206E20ECA6F0D6
:10311000000E3D01EC6F000EED6F000EEE6F000E25
:10312000EF6F000EF06F000EF16FB00EF26F900EA9
:10313000F36F000EF46F8A0EF56F000EF66F000E3F
:10314000F76F000EF86F000EF96F000EFA6F380E71
:103150001E6E4D0E1F6E010E206E43ECA6F0360E55
:103160001E6E4D0E1F6E010E206E35ECA6F0220E67
:103170001E6E4D0E1F6E010E206E4AECA6F0000E64
:103180003C6E000E426E000E416E400E406E000E10
:103190003F6E000E3E6E000E3D6E39019387938B9D
:1031A000938D1200000E7F15876F000E8015886FBB
:1031B000800E8115896F7F0E82158A6F8751881165
:1031C00089118A11D8A408D0000E7F6F000E806F7D
:1031D000000E816F000E826F000E8315876F000E48
:1031E0008415886F800E8515896F7F0E86158A6F0E
:1031F0008751881189118A11D8A408D0000E836FD5
:10320000000E846F000E856F000E866F82AF09D0AE
:103210007F6D801FD8B0802B811FD8B0812B800E8E
:10322000825786AF09D0836D841FD8B0842B851F49
:10323000D8B0852B800E8657000E7F1B000E801B9A
:10324000000E811B800E821B000E831B000E841B50
:10325000000E851B800E861B83517F5D8451805933
:103260008551815986518259D8B002D0D890120028
:10327000D880120020EE1EF0070EDE6AE806FDE29E
:10328000685169116A116B116C116D116E116F111A
:10329000D8B446D0010E266E0AD0D8906837693768
:1032A0006A376B376C376D376E376F37262A6FAFDB
:1032B000F4D7D8901E361F362036213622362336D4
:1032C000243625366851605D695161596A516259E9
:1032D0006B5163596C5164596D5165596E51665902
:1032E0006F516759D8A011D06851605F6951615B17
:1032F0006A51625B6B51635B6C51645B6D51655BE2
:103300006E51665B6F51675B1E80D8906F336E3372
:103310006D336C336B336A3369336833262EC9D708
:103320001EC060F01FC061F020C062F021C063F0D9
:1033300022C064F023C065F024C066F025C067F0A9
:103340001200000EBE6E110EBD6E200EBA6E000E83
:10335000BF6E000EBB6E070EBC6E020EC66E0B0E6D
:10336000C76EDF0EC26EC368900EC46E080EC56EC7
:10337000080E3A01706F000E606FFE0E506F020E65
:10338000806F0B0E906F8F0E406F000E716F000EEE
:10339000916F000E816F010E516F500E416F000E44
:1033A000616F000E5A6F000E5B6F000E6A6F000EA9
:1033B0006B6F000E7A6F000E7B6F000E826F000E37
:1033C000926F000E426F000E526F000E626F000E81
:1033D000726F4369536963697369070E836F9369F9
:1033E00044695469646974690F0E846F94690E0EA0
:1033F0001A6F130EDE6F1E0E136F1F0E156F130E56
:10340000166F170EE56F0D0E2A6F140EDF6F120088
:103410009AC162F09BC163F09CC164F09DC165F0EC
:103420001EC062F01FC063F020C064F021C065F0D0
:1034300062C022F063C023F064C024F065C025F0B0
:10344000180E05D0D8902532243223322232E82EAD
:10345000F9D72250606F616B60516111D8A419D007
:10346000D8906235226E6335236E6435246E6535DF
:10347000256E2250231024102510D8A405D0000E4C
:103480001F6E020E1E6E1200000E1F6E030E1E6EC9
:10349000120060296111D8A41CD062C022F063C060
:1034A00023F064C024F065C025F0090ED8902236C0
:1034B000233624362536E82EF9D72250231024103F
:1034C0002510D8A402D0010E01D0000E1E6E1F6A76
:1034D0001200000E1F6E040E1E6E1200800E0101FF
:1034E000846F030E856F84C164F085C165F02BEC99
:1034F000A5F03D01149F200E156F030E166F040EEC
:10350000196F020E1C6F830E146F148F300E1E6E17
:10351000570E1F6E050E206E000E216EE7ECA2F016
:10352000460EADECA2F0410ECAECA2F0500E1E6E9B
:10353000000E1F6E000E206E000E216EE7ECA2F052
:10354000530ECAECA2F0020E0BECA5F0500E1E6E4C
:10355000000E1F6E000E206E000E216EE7ECA2F032
:10356000510EADECA2F03D01149F020E166F148FA8
:103570001A933F0E3B01FD17FD9BFD51F90B02090C
:10358000FD6FE70EFD17FD81800EF96F030EFA6FD8
:10359000000EFB6FFC9B3D011A8312002034213486
:1035A000616F6151D8A409D0000E1E6E000E1F6E0F
:1035B000000E206E000E216E12001EC022F01FC0F1
:1035C00023F020C024F021C025F0200E05D0D89093
:1035D0002532243223322232E82EF9D72250606F6E
:1035E000208EFF0E1E16FF0E1F16FF0E2016000E59
:1035F0002116960E615F61AF0DD06151800A970F61
:10360000D8A0D2D7D890213220321F321E32613F4B
:10361000F9D70DD01F0E616507D0C6D7D8901E36DA
:103620001F362036213661076151D8A4F7D7605183
:10363000D8B408D0211E201E1F1E1E6C000E1F2293
:10364000202221221EC01EF01FC01FF020C020F02B
:1036500021C021F01200206E2DD0BD98BD9A12001D
:10366000BD98BD8A1200BD88BD9A1200BD9CBD9E4A
:103670001200BD9CBD8E1200BD8CBD9E1200BF9875
:10368000BF9A1200BF98BF8A1200BF88BF9A12006B
:10369000BF9CBF9E1200BF9CBF8E1200BF8CBF9EFE
:1036A0001200BD98BD9ABD9CBD9EBF98BF9ABF9C9D
:1036B000BF9E120020501E6E1F6A1F50000AD8A421
:1036C000F0D71E50000AD8B4C8D7010AD8B4CBD757
:1036D000030AD8B4C5D7010AD8B4C8D7070AD8B4E2
:1036E000CBD7010AD8B4C5D7030AD8B4C8D7010AC2
:1036F000D8B4CBD70F0AD8B4C5D7010AD8B4C8D725
:10370000030AD8B4CBD7010AD8B4C5D7CAD7225038
:103710002310D8B404D022502310D8A404D02050B1
:103720007AECA6F04CD020EE09F02250D926235096
:10373000DA22DE50DE10D8B417D020EE09F0225085
:10374000D9262350DA2210EE03F02250E12623502E
:10375000E222DE50E65CE650800A0001646FDE5033
:10376000800A6459D8B02BD020EE03F02250D9261D
:103770002350DA226F0078FF60F06F0074FF61F071
:1037800060008BF0D9FF60008FF0DAFF6F0078FFE8
:1037900062F06F0074FF63F0000160516225D96E22
:1037A00061516321DA6E600083F0DFFF20EE03F0E9
:1037B0002250D9262350DA22DE2A000EDD2220C034
:1037C00020F0216A1200685169116A116B116C11A5
:1037D0006D116E116F11D8B43CD0010E1E6E0AD05F
:1037E000D890683769376A376B376C376D376E3703
:1037F0006F371E2A6FAFF4D76851605D6951615908
:103800006A5162596B5163596C5164596D516559D4
:103810006E5166596F516759D8A010D06851605FDA
:103820006951615B6A51625B6B51635B6C51645BB4
:103830006D51655B6E51665B6F51675BD8906F33FE
:103840006E336D336C336B336A33693368331E2EDA
:10385000D3D760C060F061C061F062C062F063C045
:1038600063F064C064F065C065F066C066F067C070
:1038700067F01200000E3F24D96EDA6A020EDA22D7
:10388000000EDF6E3D01F9A715D0000E3F24D96E62
:10389000DA6A020EDA220201DF8201D80BD00500BB
:1038A000FA6E0101B051FD6EB151FE6EB251FF6E64
:1038B000FA5012003D01F9A315D0000E3F24D96E35
:1038C000DA6A020EDA220201DF8401D80BD0050089
:1038D000FA6E0101AD51FD6EAE51FE6EAF51FF6E3D
:1038E000FA501200000E3F24D96EDA6A020EDA2274
:1038F000DF50D8B40DD001D812000500FA6E0101D6
:10390000AA51FD6EAB51FE6EAC51FF6EFA50120023
:10391000FAECA4F0120033A00AD06EC065F06FC0BC
:1039200066F06CC067F06DC068F043EC9EF071BF4C
:1039300005D070C074F071C075F004D0000E756FC2
:10394000000E746F000E736F000E726F0DD0000EBC
:10395000216E200E206E6CC022F06DC023F087EC2B
:103960009BF00001724B732B7451725D7351800A8E
:10397000266E7551800A2658D8A0E9D733B00AD0F0
:103980006EC065F06FC066F06CC067F06DC068F027
:1039900043EC9EF06EC01EF06FC01FF059ECA0F01B
:1039A000000174511E246C6F75511F206D6F120041
:1039B000000E1E14606F000E1F14616F800E201425
:1039C000626F7F0E2114636F605161116211631188
:1039D000D8A408D0000E1E6E000E1F6E000E206EC2
:1039E000000E216E000E2214606F000E2314616F12
:1039F000800E2414626F7F0E2514636F6051611175
:103A000062116311D8A408D0000E226E000E236E3E
:103A1000000E246E000E256E22501E180AE123505F
:103A20001F1807E12450201804E125502118D8B4AC
:103A300002D0D8901200D8801200000E236E21AE62
:103A400006D0206C211ED8B0212A010E236E1FAE95
:103A500006D01E6C1F1ED8B01F2A010E231A000E9E
:103A6000256E000E246E20502110D8B41CD0010EFB
:103A7000226E04D0D89020362136222A21AEFAD7E1
:103A8000D8902436253620501E5C21501F58D8A0CF
:103A900005D020501E5E21501F5A2480D89021321C
:103AA0002032222EEDD72350D8B404D0246C251E0A
:103AB000D8B0252A24C01EF025C01FF01200E5EC66
:103AC000A5F03A50020D000EF324D96E010EF42039
:103AD000DA6E600007F0DEFF60000BF0DDFF0BD058
:103AE000010E07D03D0E05D0280E03D0290E01D0BF
:103AF000000E3A6E18D03A50056E066A0650000A5B
:103B0000D8A4F6D70550000AD8B4EAD7010AD8B429
:103B1000E9D7290AD8B4EAD7010AD8B4E9D7140AF0
:103B2000D8B4E2D7E5D76000EBF0F1FE010E00015A
:103B3000FA6F1200000E3E01DE6F000EDF6F000E06
:103B4000E06F000EE16F000EE46F000EE56F000EF7
:103B5000EA6F000EEC6F000EF16F100EF36F000EA7
:103B6000F46F000EF56F000EF66F000EF76F000E8B
:103B7000F96F000EFA6F200EFB6F000EFC6F020E45
:103B8000FD6F070EFE6F1F0EFF6F840EF86F390179
:103B9000A19591853A0E1E6E4D0E1F6E010E206E80
:103BA0006DECA6F01200000E236E1FAE06D01E6C48
:103BB0001F1ED8B01F2A010E236E21AE04D0206C28
:103BC000211ED8B0212A20502110D8B418D0010EBF
:103BD000226E04D0D89020362136222A21AEFAD780
:103BE00020501E5C21501F58D8A004D020501E5ECB
:103BF00021501F5AD89021322032222EF1D7235043
:103C0000D8B404D01E6C1F1ED8B01F2A1EC01EF0D0
:103C10001FC01FF012006AC01EF06BC01FF059ECED
:103C2000A0F01E50266E88ECA6F084C164F085C119
:103C300065F0000E0001666F65EC9FF0BC94400ECD
:103C400026640BD0000120EE40F06A51D9266B515A
:103C5000DA22000EDF6E400E266E3B01FC9F6000F4
:103C60009BF0F7FBF86BFC8F84C165F085C166F0B3
:103C70006AC067F06BC068F026C069F03BEC9FF04B
:103C80008BECA6F01200000E6B6F000E6A6F0CD06A
:103C900069C020F0216A67C022F068C023F087EC79
:103CA0009BF000016A4B6B2B6A516525246E6B51AA
:103CB0006621256E600093F0F6FF600097F0F7FF35
:103CC000000EF86E1F0EF76403D00800F55007D001
:103CD0006F00DBFFE1FF6F00DFFFE2FFE750000155
:103CE000696F6951D8A4D4D76AC065F06BC066F01B
:103CF0001200716F09D0400E05D0140E03D0540E7F
:103D000001D0000E726F16D0000171516F6F706B91
:103D10007051000AD8A4F5D76F51000AD8B4F1D772
:103D2000010AD8B4E8D7030AD8B4E7D7010AD8B44F
:103D3000E6D7E7D7450E3AECA5F0000172516C25A5
:103D4000D8ECA1F00BECA6F06DC06AF06EC06BF081
:103D50000BEC9EF0120020C060F021C061F01EC08C
:103D600062F01FC063F000016051226E6151236E4A
:103D7000604B612B60008BF0F6FF60008FF0F7FF67
:103D8000000EF86E60008BF1D9FF60008FF1DAFF52
:103D9000624B632B1F0EF76403D00800F55007D069
:103DA0006F00DBFFE1FF6F00DFFFE2FFE750DF6E38
:103DB000DF50D8B41200D7D7EAC0EEF0EBC0EFF076
:103DC000000E0101BD6F000EBC6F14D0E8C0C9F039
:103DD000E9C0CAF0EE0E0001CB6FECC0CCF0EDC034
:103DE000CDF0DCEC84F0C9510101BC270001CA51BF
:103DF0000101BD236000BBF3F6FF6000BFF3F7FFD6
:103E0000000EF86E0800F5500009D8A4DFD7BCC139
:103E1000E8F0BDC1E9F01200BE0E3B01F96F010EE2
:103E2000FA6F000EFB6F3D0EF16F110EF06F030E77
:103E3000FD6F000EF86F010EF76F000EEF6F010EB1
:103E4000EE6F150EFF6F000EFE6F3901A293A29167
:103E5000A297A29592939281440E1E6E4D0E1F6EF4
:103E6000010E206E66ECA6F0390192979295C00E75
:103E70003B01FC6F1200000120EE42F06551D92693
:103E80006651DA22400EDF60120065C01EF066C087
:103E90001FF067C020F068C021F069C022F0236ADB
:103EA0000AECA0F020EE40F06551D9266651DA22E6
:103EB0006000A7F1DFFF20EE42F06551D926665180
:103EC000DA226000A7F1DFFF120020EE42F0645119
:103ED000D9266551DA22000EDF6E20EE40F06451E3
:103EE000D9266551DA22000EDF6E20EE41F06451D2
:103EF000D9266551DA22000EDF6E6651D8B4120061
:103F000064C01EF065C01FF0000E216E000E206E12
:103F1000000E236E400E226EFEEC95F01200C60ECF
:103F2000CE6F020ECF6FC2C2D0F2C3C2D1F2000E6A
:103F3000D46F000ED36F000EDA6F000ED96FD00E63
:103F40000001E86F020EE96FC4C2EAF0C5C2EBF0EF
:103F5000CE0EEC6F020EED6FDCEC9EF00201D35141
:103F6000C225D96ED451C321DA6E000EDF6E120065
:103F700020EE42F01E50D9261F50DA22400EDF609C
:103F8000120020EE40F01E50D9261F50DA22DF50DA
:103F9000216E21501E24D96E000E1F20DA6E6000A3
:103FA00083F0DFFF20EE40F01E50D9261F50DA22AA
:103FB000DF2A20EE42F01E50D9261F50DA22DF2AD7
:103FC0001200000E0F6E000E0E6ED8900E34D96ED9
:103FD0000F34DA6E8A0ED926010EDA22DE50DE1098
:103FE000D8B40CD0D8900E34D96E0F34DA6E8A0E55
:103FF000D926010EDA22DE06000EDD5A0E4A0F2AFD
:104000000FBEE3D70F5005E1060E0E5CD8B01200CC
:10401000DCD7120020C063F021C064F01EC061F044
:104020001FC062F015D060008FF1D9FF600093F1DE
:10403000DAFFDF50606F634B642B600087F1D9FFBC
:1040400060008BF1DAFF600083F1DFFF614B622BD0
:104050002206D8A023062228E6E12328D8B412009D
:02406000E2D7A5
:104064006F00E8FF10F06F00ECFF11F03901A89D1C
:1040740035C00CF036C00DF0A4ECA4F00101B6512B
:10408400B711B811D8B40CD001D80AD00500FA6E13
:10409400B651FD6EB751FE6EB851FF6EFA50120064
:1040A400600047F0FBFF600043F0FAFF11001EC000
:1040B40020F01FC021F002D01E4A1F2A60007BF0AE
:1040C400F6FF60007FF0F7FF000EF86E1F0EF76436
:1040D40003D00800F55007D06F00DBFFE1FF6F004D
:1040E400DFFFE2FFE7500009D8A4E6D720501E5CAA
:1040F4001E6E21501F581F6E1200D28A000ED2BEAF
:10410400010E1E6ED29E550ED46EAA0ED46ED4909D
:10411400000ED76E000ED66E080ED56E550ED46EF8
:10412400AA0ED46ED4801EB002D0D29E01D0D28EFC
:1041340039018281838D8399838B83978981888DCB
:1041440081851200000E9B6E000E9C6E020E9D6E09
:10415400830E996E000E986E3901A89D98506F00D9
:1041640064FE21F0226A21C022F0216A2110356EFA
:104174002250366E988D420E1E6E4D0E1F6E010E2D
:10418400206E58ECA6F0010E9A6E12006F0060FFCC
:1041940018F06F00E8FF19F06F00ECFF1AF02D50D3
:1041A4002E102F10D8B40CD001D80AD00500FA6E06
:1041B4002D50FD6E2E50FE6E2F50FF6EFA501200E1
:1041C40060006BF0FBFF600067F0FAFF600063F0D3
:1041D400D8FF11006F0060FF1BF06F00E8FF1CF0B8
:1041E4006F00ECFF1DF0305031103210D8B40CD0F9
:1041F40001D80AD00500FA6E3050FD6E3150FE6EC3
:104204003250FF6EFA501200600077F0FBFF60003E
:1042140073F0FAFF60006FF0D8FF1100000E831BEB
:10422400000E841B000E851B800E861B7FC01EF0B3
:1042340080C01FF081C020F082C021F083C022F032
:1042440084C023F085C024F086C025F0A1EC8EF054
:104254001EC07FF01FC080F020C081F021C082F01A
:1042640012006EC01EF06FC01FF0000E216E000E13
:10427400206E000E236E830E226EFEEC95F060001D
:10428400BBF1D9FF6000BFF1DAFF6000C3F1DEFFCC
:104294006000C7F1DDFF040E00016C6FFE0E6D6F50
:0642A40004ECA3F012007F
:1042AC006F00E8FF07F06F00ECFF08F03901A195F3
:1042BC000001F051F111F211D8B40CD001D80AD090
:1042CC000500FA6EF051FD6EF151FE6EF251FF6E6B
:1042DC00FA501200600023F0FBFF60001FF0FAFFA1
:0242EC001100BF
:1042F0006F00E8FF12F06F00ECFF13F03901A2919C
:104300000101B351B411B511D8B40CD001D80AD001
:104310000500FA6EB351FD6EB451FE6EB551FF6EDD
:10432000FA50120060004FF0FBFF60004BF0FAFF04
:104330001100000ED2BE010E216E1F50030B390179
:10434000E16F60007BF0E0F9600083F0E3F93F0E7D
:10435000E517E585D29E550EE66FAA0EE66FE5835A
:10436000E5B3FED7E59521B002D0D29E01D0D28E22
:104370001200010E246E200E1E181F10D8B414D087
:10438000F70E206EFF0E216E1EC022F01FC023F01C
:104390002050222621502322235004E1050E225CC6
:1043A000D8A002D0000E246E24C01EF01F6A120096
:1043B000266E88ECA6F084C164F085C165F0000E1D
:1043C0000001666F65EC9FF0BC943B01FC9F000E02
:1043D000F86F010EF76FFC8F84C11EF085C11FF0CE
:1043E00026C020F0B8EC9FF08BECA6F012003D50F8
:1043F000D8B4FDD7000E3E24D96EDA6A020EDA2256
:10440000DF503C6E000E3E24D96EDA6A030EDA22CB
:10441000DF501E6E3E2A3F0E3E6402D0000E3E6EFE
:10442000390193973D0693871E5012007FECA0F050
:10443000E9ECA4F0A1EC99F075ECA5F09AEC9DF0F4
:104440000CEC9FF049ECA5F0CDECA5F002ECA4F04B
:1044500074ECA6F0A4ECA0F0D9ECA5F063EC98F015
:1044600090ECA5F05FECA6F012001E6E4050D8B4A0
:10447000FDD7390193B904D060007BF0EAFD11D07B
:104480009399400E4224D96EDA6A030EDA22600054
:104490007BF0DFFF422A3F0E426402D0000E426EE4
:0644A000400693891200A2
:1044A8006F00E8FF14F06F00ECFF15F02A502B1096
:1044B8002C10D8B40CD001D80AD00500FA6E2A50B6
:1044C800FD6E2B50FE6E2C50FF6EFA5012006000ED
:1044D80057F0FBFF600053F0FAFF11006F00E8FF90
:1044E80016F06F00ECFF17F0275028102910D8B4E9
:1044F8000CD001D80AD00500FA6E2750FD6E28505E
:10450800FE6E2950FF6EFA50120060005FF0FBFF4C
:1045180060005BF0FAFF1100BF0E606FFF0E616F65
:1045280024C062F025C063F06051622761516323A3
:1045380063510AE11A0E625DD8B006D0200E24102D
:10454800246E2550256E120024C024F025C025F0C5
:104558001200226EBC94FE0E83ECA5F0080E1E6EAF
:10456800000E1F6E000E206E000E216EE7ECA2F00A
:10457800225083ECA5F0200E1E6E030E1F6E000E57
:10458800206E000E216EE7ECA2F01200226EBC94A1
:10459800FE0E83ECA5F0080E1E6E000E1F6E000EB8
:1045A800206E000E216EE7ECA2F0225083ECA5F0FD
:1045B800080E1E6E000E1F6E000E206E000E216E7D
:1045C800E7ECA2F01200000E01019E6F000E9F6F33
:1045D800000EA06F000EA16F00F00400010E010193
:1045E8009E27000E9F23A023A1239E511E5C9F514E
:1045F8001F58A0512058A1512158D8A01200ECD71B
:10460800010E266E6CC065F06DC066F0000E676F17
:10461800000E686F43EC9EF066BF1200000E216E1C
:104628000A0E206E000E226E000E236E87EC9BF0A1
:0A46380021BE1200000E266E1200D3
:104644006F00E8FF0AF06F00ECFF0BF03901A9914D
:10465400374A382A385004E1170E375CD8A006D000
:1046640092ECA4F0000E386E000E376E60002FF04E
:10467400FBFF60002BF0FAFF1100286E756C6C29AB
:1046840000BDFFB1FF9775CF3E6F12833B295C4F8E
:104694003F6F12833B9775CF3E6F12833B9775CF65
:1046A4003E6F12833B9775CF3E6F12833BF5FFB08D
:1046B4004901F8FFCE4A01EFFFF44B01F2FFE04B52
:1046C40001FBFF824B01E9FF6A4B01ECFF524B01F6
:0F46D400E3FF8E4901E6FF6C4901000000000082
:1046E4001EC020F01FC021F0D89021322032D89073
:1046F400213220322050696E1EC020F0030E201695
:10470400060E216ED8902036212EFCD72050686EDC
:1047140012001EC020F01FC021F0D8902132203298
:10472400D8902132203220506D6E1EC020F0030E2E
:104734002016060E216ED8902036212EFCD720504C
:104744006C6E1200BF0E206EFF0E216E1EC022F092
:104754001FC023F02050222621502322235006E19B
:104764001A0E225CD8B002D0010E01D0000E1E6ECB
:104774001F6A1200D00E206EFF0E216E1EC022F0A2
:104784001FC023F02050222621502322235006E16B
:104794000A0E225CD8B002D0010E01D0000E1E6EAB
:1047A4001F6A12001E501F1020102110D8B408D008
:1047B400000E1E1A000E1F1A000E201A800E211A57
:1047C4001EC01EF01FC01FF020C020F021C021F029
:1047D4001200226E1EC020F01FC021F0D890203697
:1047E40021362250020D8A0EF324D96E010EF420D4
:1047F400DA6E600083F0DEFF600087F0DDFF1200F8
:10480400010E966E200E956E000E976E4D0E936EF1
:10481400000E926E3901A99199813C0E1E6E4D0EC7
:104824001F6E010E206E51ECA6F094681200400E2B
:10483400406011D0400E4124D96EDA6A030EDA22A8
:10484400DF503D01EA6F412A3F0E416402D0000E61
:10485400416E402A1200390193991200C40E0101DD
:10486400FB6F020EFC6F000E0001E86F000EE96F93
:10487400C2C2EAF0C3C2EBF0FB0EEC6F010EED6FA7
:10488400DCEC9EF012001E5020026F00CCFF22F0E0
:104894006F00D0FF23F01E502102F35023261F5037
:1048A4002002F350232622C01EF023C01FF0120062
:1048B40023C01EF024C01FF0000EEBECA3F005D0C3
:1048C40000F000F000F000F00400000E80ECA4F012
:1048D4000009D8A41200F4D719ECA6F00009D8B442
:1048E4000BD0F7ECA1F060007FF0D9FF600083F0FB
:1048F400DAFFDF6E010E1200000E1200206E0400BB
:104904002050020D8A0EF324D96E010EF420DA6EC3
:10491400DE50DE10D8A402D0010E1200000E1200E8
:104924000101B951BA11BB11D8B4120001D8120057
:104934000500FA6EB951FD6EBA51FE6EBB51FF6EA1
:10494400FA5012009AA409D09A90600037F099FFA7
:10495400600033F098FF9A801200600037F099FFEE
:10496400600033F098FF1200990E6C6FFE0E6D6FAD
:1049740004ECA3F0010E3B6E000E1F6E100E1E6EB3
:104984003BC020F099ECA1F01200B80E6C6FFE0E43
:104994006D6F04ECA3F0000E3B6E000E1F6E100E44
:1049A4001E6E3BC020F099ECA1F012006EC06CF0BA
:1049B4006FC06DF004ECA3F0D50E00016C6FFE0E19
:1049C4006D6F04ECA3F0010E0001F96F1200000EEC
:1049D400C06F000EC16F000EC26F000EC36F000ED9
:1049E400C46F000EC56F000EC66F000EC76F1200B5
:1049F400000E3F24D96EDA6A030EDA226F00A3F7A1
:104A0400DFFF3F2A3F0E3F6402D0000E3F6E3D2A77
:104A14001200226EBC94225083ECA5F0080E1E6E88
:104A2400000E1F6E000E206E000E216EE7ECA2F049
:104A34001200BEA002D0010E01D0000EFF0A096EC2
:104A4400BE500918FE0B0918BE6E010E0001FB6F63
:104A5400120064C01EF065C01FF0000E216E000E2F
:104A6400206E000E236E430E226EFEEC95F01200B3
:104A7400676F0BECA6F0FE0ED8ECA1F00BECA6F0E1
:104A840000016751D8ECA1F00BECA6F01200010E66
:104A9400AE6E000EAD6E000EAF6E9F0EAB6E000ECE
:104AA400AA6E3901A495800EAC6E12001F50030B40
:104AB4003901E16F60007BF0E0F93F0EE517E58115
:104AC40000F000F03901E3511200EE0E6C6FFE0E9F
:104AD4006D6F04ECA3F0130E0001FF6F140EFE6F54
:104AE400020EF96F1200200E3901D96F000EDB6F30
:104AF400000EDD6F050EDF6F000EDE6FDCB11200FD
:104B0400FDD71E6E010E3D01126F60007BF011FD9A
:104B14003901A2A9FDD73D0110511200020E3D0139
:104B2400146F400E156F000E166F000E1C6F500EA2
:104B3400196FC4961200000E00016E6F050E6F6FA0
:104B4400900E706F020E716F33ECA1F012005A0ECA
:104B54006C6FFF0E6D6F04ECA3F0020E0001FF6F8B
:104B6400030EFE6F1200350E6C6FFF0E6D6F04ECBA
:104B7400A3F0070E0001FF6F080EFE6F12008F0EE8
:104B84006C6FFF0E6D6F04ECA3F01D0E0001FF6F40
:104B94001F0EFE6F1200800E6A6E4F0E696EC00EFD
:104BA400686E3F015F51F30B04095F6F1200800EC2
:104BB4006E6E4F0E6D6EC00E6C6E3F015F51FC0B3E
:104BC40001095F6F12003E01F051046E036AEF5158
:104BD4000324016E000E0420026E12007E0E6C6F20
:104BE400FF0E6D6F04ECA3F0020E0001F96F1200CA
:104BF400480E6C6FFF0E6D6F04ECA3F0000E000105
:104C0400F96F12000001686F000168513AECA5F0D9
:104C1400120001017EB7FDD73D0117BB1200FCD77E
:104C24006EC06CF06FC06DF004ECA3F012003D5048
:104C3400D8B402D0010E1200000E12001EC027F0DC
:104C44001FC028F020C029F012001EC02DF01FC084
:104C54002EF020C02FF012001EC030F01FC031F023
:104C640020C032F012001EC0ADF11FC0AEF120C052
:104C7400AFF112001EC02AF01FC02BF020C02CF090
:104C840012001EC0B0F11FC0B1F120C0B2F1120079
:104C94001EC0AAF11FC0ABF120C0ACF112001EC0AF
:104CA400B9F11FC0BAF120C0BBF112001EC0B6F1A9
:104CB4001FC0B7F120C0B8F11200550E3901EF6FD3
:104CC400AA0EEF6FEF8112001EC0B3F11FC0B4F142
:104CD40020C0B5F112001EC0F0F01FC0F1F020C0DA
:104CE400F2F01200A40E3E019E6F1F0E9C6F120084
:104CF4001F6E1F5035ECA2F012001E6E60007BF098
:104D04009CFE1200000E3D01F96F120001017E8726
:104D140012003B01FC8D12003E019C511200FAEC82
:104D2400A4F012003D01F89F1200D30114137E97E2
:0A4D3400120012001200120012001B
:064D400011001200120038
:020000040020DA
:10000000FF0FFF0FFF0FFF0FFF0FFF0FFF0FFF0F80
:020000040030CA
:0A000000AFFFFFFF9FFFFFDFFFFFD0
:00000001FF
