:0400000057EF00F0C6
:100008003619361936193619361936193619361970
:100018003619361938173619361936193619361960
:100028003619361936193619361936193619361950
:1000380036193619361987177717361936193619B2
:1000480036193619361936192B0036193619361954
:100058003619361936193619361936193619361920
:100068003619361936193619361936193619361910
:10007800361936192B003619361936192B002B006C
:100088002B002B002B002B002B002B00CA16361937
:10009800FD173619361936192B002B002B002B00AB
:0A00A80036193619FF0058EF28F052
:102000000002400008000D0A20436F6D6D616E6490
:102010002070726F636573736F722056302E310DAE
:102020000A002050532054657374202531753A20DE
:10203000444143204F55543D252E32752C20537575
:1020400070706C7920526561644261636B20253445
:102050002E347520563D252B362E316656202534DC
:102060002E347520493D252B332E31666D410D0AE6
:10207000000D0A2052616D7020746F2031303030B5
:10208000564443204F4E200D0A000D0A205374651C
:102090006164792031303030564443204F4E200D5A
:1020A0000A000D0A20507320546573746572202550
:1020B000732025730D0A000D0A20566F6C7461673A
:1020C00065204F4646200D0A004D617220313320B5
:1020D000323032320031343A30373A343700494EF8
:1020E00046004E414E00696E66006E616E006C6C7B
:0F20F00073006C6600706F0070720070730000F8
:10210000000E926F000E916F73C0A1F074C0A2F028
:1021100075C0A3F076C0A4F0A4AF16D0000E926FE5
:10212000010E916FA1C015F0A2C016F0A3C017F068
:10213000A4C018F079EC30F015C0A1F016C0A2F0E0
:1021400017C0A3F018C0A4F0000EAA6F000EA96F6C
:10215000F7C096F0F8C097F091519211D8A402D030
:102160003DA413D091519211D8A404D0000E7E6FDB
:102170002B0E03D0000E7E6F2D0E7D6F7DC068F19B
:10218000A94BAA2B9607D8A09707A1C015F0A2C00B
:1021900016F0A3C017F0A4C018F0F2EC27F0150455
:1021A0001610D8A447D0BF0E0001786FFF0E796FCC
:1021B00077517A6F7B6B78517A2779517B237B51EA
:1021C00013E11A0E7A5DD8B00FD0680EA925156EEE
:1021D000010EAA21166EDE0E176E1750D8A4200E1F
:1021E000186EEAEC2CF00ED0680EA925156E010EC3
:1021F000AA21166EE60E176E1750D8A4200E186E80
:10220000EAEC2CF00001FD0E9627FF0E972371C01B
:1022100029F072C02AF0680E2B6E010E2C6E96C04B
:102220002DF097C02EF031EC2BF029C071F02AC0B0
:1022300072F01200A1C015F0A2C016F0A3C017F0F2
:10224000A4C018F0F2EC27F015501610D8A430D026
:10225000BF0E0001786FFF0E796F77517A6F7B6B3D
:1022600078517A2779517B237B5113E11A0E7A5DDD
:10227000D8B00FD0680EA925156E010EAA21166ED2
:10228000E20E176E1750D8A4200E186EEAEC2CF050
:10229000B9D7680EA925156E010EAA21166EEA0E91
:1022A000176E1750D8A4200E186EEAEC2CF0AAD79F
:1022B000000E0001AB6F000EAC6F800EAD6F3F0ED5
:1022C000AE6F000EA86F000EA76FA1C015F0A2C0E0
:1022D00016F0A3C017F0A4C018F0000E196E000E7F
:1022E0001A6E000E1B6E000E1C6E7CEC2BF0D8A03C
:1022F0001DD074D0ABC023F0ACC024F0ADC025F02D
:10230000AEC026F0000E276E000E286E200E296E3D
:10231000410E2A6EA2EC1AF023C0ABF024C0ACF040
:1023200025C0ADF026C0AEF0A74BA82BA1C02FF062
:10233000A2C030F0A3C031F0A4C032F0000E276E6E
:10234000000E286E200E296E410E2A6EABC023F0BF
:10235000ACC024F0ADC025F0AEC026F0A2EC1AF05F
:1023600023C033F024C034F025C035F026C036F049
:10237000BCEC26F0D8A01ED0BDD7ABC015F0ACC0C9
:1023800016F0ADC017F0AEC018F0000E196E000EBA
:102390001A6E200E1B6E410E1C6ED1EC1DF015C086
:1023A000ABF016C0ACF017C0ADF018C0AEF0A70788
:1023B000D8A0A807A1C02FF0A2C030F0A3C031F070
:1023C000A4C032F0ABC033F0ACC034F0ADC035F0D7
:1023D000AEC036F0BCEC26F0D8A0CFD777C01BF04B
:1023E0001C6A4BEC2FF01B50986F98C095F0670E4D
:1023F0009819D8A419D0F951FA11D8A404D0000E14
:10240000FA6F010EF96FFABF05D0FA5108E1F9052C
:10241000D8B005D0000E946F060E936F08D0F9C0A7
:1024200093F0FAC094F003D0FAAFF9D7F3D7670E60
:102430009819D8A422D0A8AF06D0FC0EA75DFF0E35
:10244000A859D8A018D0FF0E786FFF0E796F93C0EF
:102450007AF094C07BF078517A2779517B23A75189
:102460007A5D7B51800A7C6FA851800A7C59D8A084
:1024700002D0660E01D0650E956F93C089F094C0AE
:102480008AF0670E9819D8A405D0660E9519D8B4AD
:10249000A8AF02D0894B8A2B660E9519D8A416D006
:1024A000A8AF0CD0000EAB6F000EAC6F800EAD6FFE
:1024B0003F0EAE6F000EA86F000EA76F670E981943
:1024C000D8B404D0A7518927A8518A23000EA66F3B
:1024D000000EA56FA1C099F0A2C09AF0A3C09BF016
:1024E000A4C09CF0ABC08BF0ACC08CF0ADC08DF044
:1024F000AEC08EF07AD099C015F09AC016F09BC08D
:1025000017F09CC018F0ABC019F0ACC01AF0ADC009
:102510001BF0AEC01CF0D1EC1DF015C02EF016C0A3
:102520002FF017C030F018C031F008EC22F02EC0A8
:102530009DF02FC09EF030C09FF031C0A0F09DC034
:1025400015F09EC016F09FC017F0A0C018F01BEC4D
:1025500029F015C08FF016C090F099C02FF09AC0E6
:1025600030F09BC031F09CC032F0ABC027F0ACC063
:1025700028F0ADC029F0AEC02AF09DC023F09EC067
:1025800024F09FC025F0A0C026F0A2EC1AF023C0D2
:1025900033F024C034F025C035F026C036F02BECE3
:1025A0002EF02FC099F030C09AF031C09BF032C0AD
:1025B0009CF0ABC015F0ACC016F0ADC017F0AEC0CB
:1025C00018F0000E196E000E1A6E200E1B6E410ED2
:1025D0001C6ED1EC1DF015C0ABF016C0ACF017C0EE
:1025E000ADF018C0AEF0A54BA62B8951A55DA65144
:1025F000800A786F8A51800A7859D8A07CD7ABC0FE
:1026000023F0ACC024F0ADC025F0AEC026F0000E23
:10261000276E000E286EA00E296E400E2A6EA2ECC8
:102620001AF023C09DF024C09EF025C09FF026C064
:10263000A0F099C02FF09AC030F09BC031F09CC040
:1026400032F09DC033F09EC034F09FC035F0A0C082
:1026500036F0BCEC26F0D8A015D099C015F09AC081
:1026600016F09BC017F09CC018F09DC019F09EC0DA
:102670001AF09FC01BF0A0C01CF07CEC2BF0D8B06F
:102680008FB108D0000E9D6F000E9E6F000E9F6FE1
:10269000000EA06FA1C015F0A2C016F0A3C017F0E5
:1026A000A4C018F09DC019F09EC01AF09FC01BF086
:1026B000A0C01CF04BEC1CF015C099F016C09AF0AD
:1026C00017C09BF018C09CF099C02FF09AC030F052
:1026D0009BC031F09CC032F0000E276E000E286EB9
:1026E000200E296E410E2A6E8BC023F08CC024F080
:1026F0008DC025F08EC026F0A2EC1AF023C033F076
:1027000024C034F025C035F026C036F0BCEC26F0ED
:10271000D8A022D0A74BA82B8BC023F08CC024F0CC
:102720008DC025F08EC026F0000E276E000E286E9C
:10273000200E296E410E2A6EA2EC1AF023C08BF0F7
:1027400024C08CF025C08DF026C08EF0660E951941
:10275000D8A402D0894B8A2B8BC0ABF08CC0ACF0D4
:102760008DC0ADF08EC0AEF0650E9519D8B405D011
:10277000A7C087F0A8C088F004D0000E886F000EB4
:10278000876F000E866F000E856F000E846F000E3F
:10279000836F000EA66F000EA56FC4D099C015F010
:1027A0009AC016F09BC017F09CC018F0ABC019F08F
:1027B000ACC01AF0ADC01BF0AEC01CF0D1EC1DF0E7
:1027C00015C02EF016C02FF017C030F018C031F031
:1027D00008EC22F02EC09DF02FC09EF030C09FF07C
:1027E00031C0A0F09DC015F09EC016F09FC017F03C
:1027F000A0C018F01BEC29F015C08FF016C090F0A7
:102800003DB80CD08F519011D8A408D0670E9819FC
:10281000D8B488AF03D0834B842B39D0855186112F
:10282000D8B488AF22D0680EA925D96E010EAA218E
:10283000DA6E2E0EDF6EA94BAA2B9607D8A097074B
:10284000000E866F010E856F10D0680EA925D96E17
:10285000010EAA21DA6E300EDF6EA94BAA2B960765
:10286000D8A097078307D8A0840783518411D8A4E0
:10287000ECD7680EA925D96E010EAA21DA6E8F5108
:10288000300FDF6EA94BAA2B9607D8A0970799C0E7
:102890002FF09AC030F09BC031F09CC032F0ABC03A
:1028A00027F0ACC028F0ADC029F0AEC02AF09DC022
:1028B00023F09EC024F09FC025F0A0C026F0A2EC1B
:1028C0001AF023C033F024C034F025C035F026C000
:1028D00036F02BEC2EF02FC099F030C09AF031C0BA
:1028E0009BF032C09CF0ABC015F0ACC016F0ADC090
:1028F00017F0AEC018F0000E196E000E1A6E200E02
:102900001B6E410E1C6ED1EC1DF015C0ABF016C055
:10291000ACF017C0ADF018C0AEF08707D8A088079C
:10292000A54BA62B8951A55DA651800A786F8A51C7
:10293000800A7859D8B008D0AABF30D7AA5104E18C
:102940004B0EA95DD8A02AD785518611D8B43DA8D1
:102950000AD0680EA925D96E010EAA21DA6E2E0EB4
:10296000DF6EA94BAA2B680EA925D96E010EAA21EC
:10297000DA6E000EDF6E650E9519D8A448D4000EED
:10298000A66F4F0EA56F680EA525D96E010EA62164
:10299000DA6E000EDF6E000E926F000E916FA8AF20
:1029A00008D0000E926F010E916FA76DA81FD8B0CE
:1029B000A82B000E946F020E936F2AD0A507D8A003
:1029C000A607680EA525D96E010EA621DA6EA7C04E
:1029D00015F0A8C016F0000E186E0A0E176E7EECE9
:1029E0002CF01550300FDF6EA7C015F0A8C016F000
:1029F000000E186E0A0E176E03EC2CF015C0A7F02F
:102A000016C0A8F09307D8A094079607D8A09707F8
:102A1000A751A811D8A4D2D794BF05D09451CEE124
:102A20009305D8B0CBD7A507D8A0A607915192118E
:102A3000D8A404D0000E806F2B0E03D0000E806F40
:102A40002D0E7F6F680EA525D96E010EA621DA6EB8
:102A50006000FFF1DFFF9607D8A09707A507D8A071
:102A6000A607BF0E786FFF0E796F77517A6F7B6B79
:102A700078517A2779517B237B5104E11A0E7A5DD4
:102A8000D8A004D0000E826F650E03D0000E826FB6
:102A9000450E816F680EA525D96E010EA621DA6E4E
:102AA000600007F2DFFF9607D8A09707680EA925F8
:102AB000156E010EAA21166E680EA525176E010E61
:102AC000A621186EEAEC2CF007EF11F0B151D96E87
:102AD000DA6A6F007FFFF6FF200EF76E000EF86EC9
:102AE0000800F550250AD8A413D3B151D96EDA6A7B
:102AF000DF2A000EF86F000EF76FF7C03DF0F8C048
:102B00003EF0F969FA69000EC36F000E11D03D80E6
:102B1000B151D96EDA6ADF2A30D03D82F9D73D84CF
:102B2000F7D73D86F5D73D88F3D7000EC36F010E6A
:102B3000C26F23D0B151D96EDA6A6F007FFFF6FF02
:102B4000200EF76E000EF86E0800F550B46FB56BEE
:102B5000B551000AD8A4E9D7B451200AD8B4E1D7B6
:102B6000030AD8B4E0D7080AD8B4D9D7060AD8B42B
:102B7000CED71D0AD8B4D1D7D8D7C251C311D8B433
:102B8000D9D73DB03D92B151D96EDA6A6F007FFF5F
:102B9000F6FF200EF76E000EF86E0800F5502A0AB8
:102BA000D8A428D0B151D96EDA6ADF2A6000CBF2FE
:102BB000D9FF6000CFF2DAFF6F007CFFB4F0020EA5
:102BC000DE266F007CFFB5F0000EDD226000D3F240
:102BD000D9FF6000D7F2DAFF6F0078FFF7F06F00DF
:102BE00074FFF8F0F8AF33D03D80F76DF81FD8B020
:102BF000F82B2DD0B151D96EDA6ADF501C6E23EC60
:102C000026F01CC0F7F01DC0F8F004D0B151D96E09
:102C1000DA6ADF2AD00E0001B46FFF0EB56FB15132
:102C2000D96EDA6A6F007FFFF6FF200EF76E000E96
:102C3000F86E0800F550B66FB76BB451B627B551B2
:102C4000B723B75104E10A0EB65DD8A0DFD7B15162
:102C5000D96EDA6A6F007FFFF6FF200EF76E000E66
:102C6000F86E0800F5502E0AD8A465D0000EFA6F51
:102C7000000EF96FB151D96EDA6ADF2AB151D96EFF
:102C8000DA6A6F007FFFF6FF200EF76E000EF86E17
:102C90000800F5502A0AD8A421D0B151D96EDA6AB9
:102CA000DF2A6000CBF2D9FF6000CFF2DAFF6F00BD
:102CB0007CFFB4F0020EDE266F007CFFB5F0000E44
:102CC000DD226000D3F2D9FF6000D7F2DAFF6F0097
:102CD00078FFF9F06F0074FFFAF02DD0B151D96E82
:102CE000DA6ADF501C6E23EC26F01CC0F9F01DC020
:102CF000FAF004D0B151D96EDA6ADF2AD00E0001A1
:102D0000B46FFF0EB56FB151D96EDA6A6F007FFFF5
:102D1000F6FF200EF76E000EF86E0800F550B66F45
:102D2000B76BB451B627B551B723B75104E10A0EBA
:102D3000B65DD8A0DFD7B151D96EDA6A6F007FFFD8
:102D4000F6FF200EF76E000EF86E0800F5501B6EB1
:102D50001C6A4BEC2FF01B50CB6FCB51D8B42FD04B
:102D6000B151D96EDA6ADF50B46F010EB42760003A
:102D7000D3F2F6FF200EF76E000EF86E0800F55045
:102D80001B6E1C6A4BEC2FF01B50CC6FCC51D8B48F
:102D900016D0B151D96EDA6ADF50B46F020EB42783
:102DA0006000D3F2F6FF200EF76E000EF86E0800FA
:102DB000F5501B6E1C6A4BEC2FF01B50CD6F660E4E
:102DC000CB19D8A449D0B151D96EDA6A6F007FFF10
:102DD000F6FF200EF76E000EF86E08006F00D4FFAD
:102DE000C6F0B151D96EDA6ADF2A6000CBF2D9FFA2
:102DF0006000CFF2DAFF6F007CFFB4F0040EDE2635
:102E00006F007CFFB5F0000EDD226000D3F2D9FF29
:102E10006000D7F2DAFF6F0078FFC7F06F0078FF2D
:102E2000C8F06F0078FFC9F06F0078FFCAF0AFC03C
:102E300071F0B0C072F0C7C073F0C8C074F0C9C000
:102E400075F0CAC076F0C6C077F080EC10F071C0A3
:102E5000AFF072C0B0F01200CB0E196E1A6AF20E0B
:102E60001B6E1B50D8A4200E1C6E000E1E6E020E90
:102E70001D6EDDEC22F019501A10D8A455D00001B7
:102E8000B151D96EDA6ADF50B46F010EB427600019
:102E9000D3F2F6FF200EF76E000EF86E08006F00FA
:102EA000D4FFC6F0BF0EB46FFF0EB56FB151D96E2F
:102EB000DA6A6F007FFFF6FF200EF76E000EF86EE5
:102EC0000800F550B66FB76BB451B627B551B723AC
:102ED000B75102E11A0EB65D6000CBF2D9FF600077
:102EE000CFF2DAFF6F007CFFB4F0040EDE266F0035
:102EF0007CFFB5F0000EDD226000D3F2D9FF600048
:102F0000D7F2DAFF6F0078FFC7F06F0078FFC8F0E4
:102F10006F0078FFC9F06F0078FFCAF0B151D96E29
:102F2000DA6A020EDF2683D70001B151D96EDA6A60
:102F30006F007FFFF6FF200EF76E000EF86E0800A0
:102F4000F550730AD8B41BD0B151D96EDA6ADF508C
:102F5000B46FB4C019F01950D8A4200E1A6EEE0E3A
:102F60001B6E1B50D8A4200E1C6E000E1E6E030E8E
:102F70001D6EDDEC22F019501A10D8A448D00001C3
:102F8000B151D96EDA6A6F007FFFF6FF200EF76E3F
:102F9000000EF86E0800F550730AD8B404D0000E85
:102FA000C56F030E03D0000EC56F010EC46FB15183
:102FB000D96EDA6AC451DF266000CBF2D9FF600017
:102FC000CFF2DAFF6F007CFFB4F0020EDE266F0056
:102FD0007CFFB5F0000EDD226000D3F2D9FF600067
:102FE000D7F2DAFF6F0078FFC0F06F0074FFC1F016
:102FF000AFC020F0B0C021F0C0C022F0C1C023F0AB
:10300000DFEC24F020C0AFF021C0B0F012000001CE
:10301000B151D96EDA6A6F007FFFF6FF200EF76EAE
:10302000000EF86E0800F550750AD8A445D0B151CD
:10303000D96EDA6ADF2A6000CBF2D9FF6000CFF2E6
:10304000DAFF6F007CFFB4F0020EDE266F007CFF1B
:10305000B5F0000EDD226000D3F2D9FF6000D7F298
:10306000DAFF6F0078FFB6F06F0074FFB7F0B6C0FC
:10307000B8F0B7C0B9F0BA6BBB6BBC6BBD6BBE6BC5
:10308000BF6BAFC060F0B0C061F0B8C062F0B9C053
:1030900063F0BAC064F0BBC065F0BCC066F0BDC0F0
:1030A00067F0BEC068F0BFC069F030EC21F060C0CE
:1030B000AFF061C0B0F01200B151D96EDA6A6F00A2
:1030C0007FFFF6FF200EF76E000EF86E0800F55039
:1030D000250AD8A414D0B151D96EDA6ADF2A000EBD
:1030E000186E250E176EAFC019F0B0C01AF02FEC95
:1030F0002AF0000E0001B06F010EAF6F1200B15147
:10310000D96EDA6ADF2A000EB06F000EAF6F1200C0
:10311000B151D96EDA6A6F007FFFF6FF200EF76EAD
:10312000000EF86E0800F550176E186AAFC019F05F
:10313000B0C01AF02FEC2AF00001B151D96EDA6A52
:10314000DF2AD7D7FF00FF00FF00FF00FF00FF00CE
:10315000FF00FF0000000000000000000000000071
:10316000000000000000000000000000000000005F
:10317000000000000000000000000000000000004F
:10318000000000000000000000000000000000003F
:10319000000000000000000000000000000000002F
:10354000000000002650800B0001606F26502624EA
:10355000626F25BE62816251D8B40DD06229D8A4B1
:1035600008D0000E236E000E246E000E256E000E95
:10357000266E258E08D0000E236E000E246E000EDF
:10358000256E000E266E2A50800B601B2A502A24BE
:10359000616F29BE61816151D8B40DD06129D8A471
:1035A00008D0000E276E000E286E000E296E000E49
:1035B0002A6E298E08D0000E276E000E286E000E8F
:1035C000296E000E2A6E6151D8B403D06251D8A47E
:1035D00009D0000E236E000E246E000E256E000E24
:1035E000266E1200295023026F00CCFF6BF06F0093
:1035F000D0FF6CF06B51636F646B656B666B6C51E5
:10360000676F686B696B6A6B285024026F00CCFF90
:103610006BF06F00D0FF6CF06B516327000E6423DA
:10362000652366236C516727000E682369236A238C
:10363000275025026F00CCFF6BF06F00D0FF6CF0BD
:103640006B516327000E6423652366236C51672743
:10365000000E682369236A2365C066F064C065F0C4
:1036600063C064F0636B275024026F00CCFF6BF0E3
:103670006F00D0FF6CF06B5163276C516423000E18
:103680006523000E6623285023026F00CCFF6BF0E9
:103690006F00D0FF6CF06B5163276C516423000EF8
:1036A0006523000E662365C066F064C065F063C0E4
:1036B00064F0636B275023026F00CCFF6BF06F0048
:1036C000D0FF6CF06B5163276C516423000E6523AF
:1036D000000E6623295024026F00CCFF6BF06F00B0
:1036E000D0FF6CF06B5167276C516823000E692383
:1036F000000E6A23285025026F00CCFF6BF06F008C
:10370000D0FF6CF06B5167276C516823000E692362
:10371000000E6A23295025026F00CCFF6BF06F006A
:10372000D0FF6CF06B512B6E6C512C6E2D6A2E6A93
:103730002DC02EF02CC02DF02BC02CF02B6A2B505E
:1037400067272C5068232D5069232E506A23665119
:103750006727000E682369236A2365C066F064C08A
:1037600065F063C064F0636B615162C02BF02C6A3A
:103770002B26000E2C22820E2B246B6FFF0E2C208A
:103780006C6F0FD0D8906737683769376A3766BF74
:103790006781D89063376437653766376B07D8A081
:1037A0006C0769AFEFD7000E616F66AF17D0FF0EE1
:1037B00063152B6EFF0E64152C6EFF0E65152D6EB6
:1037C0007F0E66152E6E2B502C102D102E10D8B497
:1037D00003D0010E616F02D067B1FBD76151D8B43D
:1037E0001FD0010E6727000E682369236A236AA190
:1037F00017D067C02BF068C02CF069C02DF06AC0EC
:103800002EF02E342E322D322C322B322BC067F07C
:103810002CC068F02DC069F02EC06AF06B4B6C2B89
:103820006CBF0DD06C5103E16B29D8A008D0000EFD
:10383000676F000E686F800E696F7F0E20D06CBFBF
:1038400005D06C510EE16B05D8B00BD0000E676F40
:10385000000E686F000E696F000E6A6F000E606FD9
:103860000FD06BC062F0FF0E6717FF0E68177F0E58
:103870006917000E6A1762B1698FD89062316A6F5A
:1038800060516A1367C023F068C024F069C025F056
:103890006AC026F012001850800B216E18501824B0
:1038A000236E17BE23802350D8B40DD02328D8A46C
:1038B00008D0000E156E000E166E000E176E000E6C
:1038C000186E178E06D0000E156E000E166E000EC6
:1038D000176E000E186E1C50800B226E215022189D
:1038E000D8A4218C1C501C24226E1BBE2280225086
:1038F000D8B40DD02228D8A408D0000E196E000E1E
:103900001A6E000E1B6E000E1C6E1B8E06D0000E73
:10391000196E000E1A6E000E1B6E000E1C6E2350E8
:10392000225CD8B022D021AC02D0800E211A23C054
:1039300024F022C023F024C022F015C024F019C0C6
:1039400015F024C019F016C024F01AC016F024C0D7
:103950001AF017C024F01BC017F024C01BF018C0C9
:1039600024F01CC018F024C01CF0000E246E23505C
:1039700022C01DF01E6A1D5E000E1E5A1EBE2CD0F7
:103980001E5004E11A0E1D5CD8A026D0155016104A
:1039900017101810D8B402D0010E01D0000E246EFA
:1039A000000E156E000E166E000E176E000E186ECD
:1039B00022C023F015D024A005D0D89024300109CE
:1039C000246E02D0D890243215B0248E18341832C8
:1039D000173216321532232A2250235CD8A0EBD797
:1039E00021BC28D02350D8A409D0000E156E000E9B
:1039F000166E000E176E000E186E12001950152666
:103A00001A5016221B5017221C50182218A071D0D1
:103A100024A005D0D89024300109246E02D0D8907B
:103A2000243215B0248E183418321732163215325B
:103A3000232A5FD01950155C1A5016581B5017587E
:103A40001850800A1D6E1C50800A1D58D8B025D011
:103A50001550195C1D6E16501A581E6E17501B58C3
:103A60001F6E18501C58206EFF0E1D24156EFF0E81
:103A70001E20166EFF0E1F20176EFF0E2020186EE0
:103A8000800E211A246C2450D8A40FD0010E1526C4
:103A9000000E16221722182208D01950155E1A504F
:103AA000165A1B50175A1C50185A1550161017103A
:103AB0001810D8A41CD02450D8A419D0000E156E0C
:103AC000000E166E000E176E000E186E1200D890C3
:103AD000153616361736183624BE158024A002D0A7
:103AE000D88001D0D89024362350D8A4230617AE0E
:103AF000EED7000E226E24AE0BD024C01DF07F0E38
:103B00001D16D8B403D0010E226E02D015B0FBD71B
:103B10002250D8B420D0010E1526000E16221722EE
:103B2000182218A018D015C01DF016C01EF017C01E
:103B30001FF018C020F0203420321F321E321D32F8
:103B40001DC015F01EC016F01FC017F020C018F0E1
:103B50002328D8A4232A2328D8B403D02350D8A4B8
:103B60000DD0000E156E000E166E000E176E000EB4
:103B7000186E2350D8A402D0000E216E23A002D0CC
:103B8000178E01D0179ED8902330186E21BE188E44
:103B900015C015F016C016F017C017F018C018F0B1
:103BA00012001850800B256E185018242C6E17BE6A
:103BB0002C802C50D8B40DD02C28D8A408D0000EBE
:103BC000156E000E166E000E176E000E186E178E14
:103BD00006D0000E156E000E166E000E176E000E4B
:103BE000186E1C50800B251A1C501C242D6E1BBEF9
:103BF0002D802D50D8B40DD02D28D8A408D0000E7B
:103C0000196E000E1A6E000E1B6E000E1C6E1B8EBF
:103C100006D0000E196E000E1A6E000E1B6E000EFE
:103C20001C6E19501A101B101C10D8A417D0000EAF
:103C3000156E000E166E000E176E000E186E800EBA
:103C400017127F0E18122550181215C015F016C045
:103C500016F017C017F018C018F012002C50D8A496
:103C600009D0000E156E000E166E000E176E000EB7
:103C7000186E12002D502CC01DF01E6A1D5E000E25
:103C80001E5A7F0E1D24266E000E1E20276E15C0A4
:103C900021F016C022F017C023F018C024F0000E47
:103CA000156E000E166E000E176E000E186E000ECA
:103CB000286E000E296E000E2A6E000E2B6E000E6E
:103CC0002D6E28D02D50D8B411D0D8902136223660
:103CD00023362436D89015361636173618362BBEAE
:103CE0001580D890283629362A362B361950215C73
:103CF0001A5022581B5023581C502458D8A009D0C1
:103D00002B8C1950215E1A50225A1B50235A1C50DA
:103D1000245A2D2A190E2D64D5D721502210231094
:103D20002410D8B411D028800FD0D890153616366C
:103D3000173618362BBE1580D890283629362A36E5
:103D40002B362606D8A0270617AEEFD7000E2D6E0D
:103D50002BAE17D0FF0E28141D6EFF0E29141E6EF9
:103D6000FF0E2A141F6E7F0E2B14206E1D501E1086
:103D70001F102010D8B403D0010E2D6E02D015B044
:103D8000FBD72D50D8B41FD0010E1526000E1622D9
:103D90001722182218A017D015C01DF016C01EF04B
:103DA00017C01FF018C020F0203420321F321E32FE
:103DB0001D321DC015F01EC016F01FC017F020C028
:103DC00018F0264A272A27BE10D0275003E12628BC
:103DD000D8A00BD0000E276E2668000E156E000EC0
:103DE000166E000E176E000E186E27BE05D02750F7
:103DF00011E12604D8B00ED0000E276E000E266EFC
:103E0000000E156E000E166E000E176E000E186E68
:103E1000000E256E26C02CF02CA002D0178E01D0EB
:103E2000179ED8902C30186E0ED7000E0001D86F58
:103E3000000ED76FCFEC2EF0BD92BE94F80E156E2B
:103E4000620E166E000E176E37EC32F0860E156E8F
:103E50005A0E166E000E176E3EEC32F0B80E156E4E
:103E60005F0E166E000E176E4CEC32F0600013F110
:103E7000F1FE000E166E000E156E30EC30F0000EE6
:103E8000166E000E156E17EC30F0B3EC31F0D28EDA
:103E9000000E5EEC32F0BBEC28F00001FC51D8B40F
:103EA000FCD7840E395C030E3A58D8B004D0000E0B
:103EB00078EC29F00DD0090E395C070E3A58D8A0DD
:103EC00004D0010E78EC29F003D0020E78EC29F032
:103ED0003C5008E1320E3B5CD8B004D0030E78ECC5
:103EE00029F00DD03C5004E1970E3B5CD8A004D0E3
:103EF000040E78EC29F003D0050E78EC29F0000EC2
:103F00000001FC6FCABC04D00B0E78EC29F003D082
:103F1000090E78EC29F0CAB804D0070E78EC29F025
:103F200003D0060E78EC29F00001FD51D8B4B5D7C6
:103F300039C015F03AC016F0176A186A000E83EC03
:103F400025F015C023F016C024F017C025F018C0C6
:103F500026F0970E276E750E286ECF0E296E3E0E38
:103F60002A6EA2EC1AF023C064F124C065F125C0CA
:103F700066F126C067F13BC015F03CC016F0176A29
:103F8000186A000E83EC25F015C023F016C024F04B
:103F900017C025F018C026F06F0E276E120E286E7F
:103FA000830E296E3B0E2A6EA2EC1AF023C060F13C
:103FB00024C061F125C062F126C063F1220E010127
:103FC000C26FFBC0C3F1C46B63EC32F00001D56F6C
:103FD000D5510101C56FC66B39C0C7F13AC0C8F1F0
:103FE00064C1C9F165C1CAF166C1CBF167C1CCF149
:103FF0003BC0CDF13CC0CEF160C1CFF161C1D0F189
:1040000062C1D1F163C1D2F11BEC31F01DD0130EAE
:10401000D86502D0000ED86FD82BD8515EEC32F0A4
:1040200007D0BA9A23D0140ED86F140E5EEC32F07B
:10403000BD82F7D7000EFB6F000ED86F000E5EEC4E
:1040400032F0BD92BA8A12D0FB51D56FD66BD651E1
:10405000000AD8A4EFD7D551000AD8B4EBD7010A8B
:10406000D8B4D5D7030AD8B4DED7E4D7000E326E61
:10407000030E336E8EEC23F0000E0001FD6FCBB00B
:1040800009D0D72B040ED76508D7FB2B000ED76FAE
:10409000BE8403D7000ED76FBE94FFD6000E316EDC
:1040A000000E306E020E2E24156E000E2F20166E9E
:1040B000BBEC2DF015501610D8A402D0030E120040
:1040C000020E2E24156E000E2F20166EBBEC2DF066
:1040D000165003E1020E155CD8B082D0020E120019
:1040E0003150040D6F00CCFF60F06F00D0FF61F025
:1040F0006000BBF0D9FF6000BFF0DAFF6F0078FF0F
:1041000062F06F0074FF63F060516225D96E6151F7
:104110006321DA6EDF50646F64C019F01950D8A4BF
:10412000200E1A6E020E2E241B6E000E2F201C6E07
:104130003150040D6F00CCFF65F06F00D0FF66F0CA
:104140006000BBF0D9FF6000BFF0DAFF6F0078FFBE
:1041500067F06F0074FF68F065516725D96E66518E
:104160006821DA6EDF50696F69C015F01550D8A468
:10417000200E166EBBEC2DF015C01DF016C01EF003
:10418000DDEC22F019501A10D8A429D02EC02CF042
:104190002FC02DF03150040D6000BBF0D9FF60003E
:1041A000BFF0DAFF6F0078FF60F06F0074FF61F01E
:1041B000F35000016027F4506123010E6025D96E91
:1041C000000E6121DA6E01D829D00500FA6EDE50AA
:1041D000FD6EDE50FE6EDE50FF6EFA501200312A88
:1041E0003150040D6000BBF0D9FF6000BFF0DAFF72
:1041F0006F0078FF60F06F0074FF61F0F350000112
:104200006027F4506123010E6025D96E000E6121F4
:10421000DA6EDE50DE10DE10D8A462D73150040D05
:104220006000BBF0D9FF6000BFF0DAFF6F0078FFDD
:1042300060F06F0074FF61F0F35000016027F450EC
:104240006123010E6025D96E000E6121DA6EDE5009
:10425000DE10DE10D8A402D0010E306E30501200F5
:10426000FAAF3D92FABF05D0FA5108E1F905D8B08E
:1042700005D0000E736F010E726F04D0F9C072F09A
:10428000FAC073F0F7C074F0F8C075F062C076F051
:1042900063C077F064C078F065C079F066C07AF0EA
:1042A00067C07BF068C07CF069C07DF0000E7F6F56
:1042B0004F0E7E6F000E0101B76F76D07E07D8A03B
:1042C0007F07680E7E25D96E010E7F21DA6E76C0DB
:1042D00015F077C016F078C017F079C018F07AC0E2
:1042E00019F07BC01AF07CC01BF07DC01CF00A0ED8
:1042F0001D6E000E1E6E000E1F6E000E206E000E54
:10430000216E000E226E000E236E000E246E89ECCC
:104310002AF015C06AF016C06BF017C06CF018C018
:104320006DF019C06EF01AC06FF01BC070F01CC0A9
:1043300071F06A51300FDF6E7207D8A073077407EF
:10434000D8A0750776C015F077C016F078C017F0C2
:1043500079C018F07AC019F07BC01AF07CC01BF04D
:104360007DC01CF00A0E1D6E000E1E6E000E1F6E2C
:10437000000E206E000E216E000E226E000E236EC7
:10438000000E246E24EC27F015C076F016C077F0EE
:1043900017C078F018C079F019C07AF01AC07BF015
:1043A0001BC07CF01CC07DF000017E517F11D8B491
:1043B0001AD076517711781179117A117B117C110D
:1043C0007D11D8A47BD773BF05D0735102E172056C
:1043D000D8B074D775BF07D0755103E17405D8A064
:1043E00002D03DB26BD760C029F061C02AF0680EE0
:1043F0007E252B6E010E7F212C6E74C02DF075C0B2
:104400002EF031EC2BF029C060F02AC061F01200D0
:1044100058C166F059C167F05AC168F05BC169F0D4
:104420002EC066F02FC067F030C068F031C069F070
:10443000810E326EFF0E336E66C034F067C035F009
:1044400068C036F069C037F0180E05D0D890373202
:10445000363235323432E82EF9D734503224646F94
:10446000000E3320656F65BF0FD0655104E1170E54
:10447000645DD8A009D02EC02EF02FC02FF030C020
:1044800030F031C031F0120065BF5CD064C032F052
:10449000FF0E336EFF0E346E7F0E356E000E366EDD
:1044A000326601D007D036343632353234323332C8
:1044B000322EF6D733C060F034C061F035C062F000
:1044C00036C063F0000160516615326E61516715A8
:1044D000336E62516815346E63516915356E325012
:1044E000331034103510D8B4C6D766C032F067C068
:1044F00033F068C034F069C035F0200E05D0D89094
:104500003532343233323232E82EF9D73250D8B421
:1045100008D0605166276151672362516823635157
:104520006923601D326E611D336E621D346E631D22
:10453000356E325066173350671734506817355050
:10454000691732D066C032F067C033F068C034F00B
:1045500069C035F0200E05D0D89035323432333270
:104560003232E82EF9D7326608D0000E666F000EA0
:10457000676F000E686F000E16D0D8906635326EE9
:104580006735336E6835346E6935356E32503310A9
:1045900034103510D8B408D0000E666F000E676F67
:1045A000800E686FBF0E696F66C02EF067C02FF077
:1045B00068C030F069C031F0120019C021F01AC093
:1045C00022F01BC023F01CC024F01D06D8A01E063C
:1045D0001D280FE11E28D8A40CD0000E1A6E000E64
:1045E000196E1200214A222A234A242A1D06D8A025
:1045F0001E06600087F0F6FF60008BF0F7FF000EEC
:10460000F86E1F0EF76403D00800F55007D06F0056
:10461000DBFFE9FF6F00DFFFEAFFEF500009D8B4CE
:104620004AD060008FF0F6FF600093F0F7FF000EB5
:10463000F86E1F0EF76403D00800F55007D06F0026
:10464000DBFFE9FF6F00DFFFEAFFEF500009D8B49E
:1046500032D01D501E10D8B42ED060008FF0F6FF5F
:10466000600093F0F7FF000EF86E1F0EF76403D0A2
:104670000800F55007D06F00DBFFE9FF6F00DFFF98
:10468000EAFFEF501F6E600087F0F6FF60008BF0CE
:10469000F7FF000EF86E1F0EF76403D00800F55008
:1046A00007D06F00DBFFE9FF6F00DFFFEAFFEF508D
:1046B0001F18D8B497D7600087F0F6FF60008BF022
:1046C000F7FF000EF86E1F0EF76403D00800F550D8
:1046D00007D06F00DBFFE9FF6F00DFFFEAFFEF505D
:1046E0001F6E60008FF0F6FF600093F0F7FF000E82
:1046F000F86E1F0EF76403D00800F55007D06F0066
:10470000DBFFE9FF6F00DFFFEAFFEF50206E205074
:104710001F5C196E1A6AD8A01A061200000E00015A
:104720006C6F6C0E166ED3EC30F00009D8B412002A
:104730008AD020EE82F03250D9263350DA227E0E13
:10474000DF640CD020EE82F03250D9263350DA22CA
:10475000DF50346E34506A6F6B6B0ED020EE82F0F7
:104760003250D9263350DA22DF50346E010E342411
:104770006A6F6B6B000E6B236A513224346E6B517F
:104780003320356E020E3424D96E000E3520DA6ED9
:10479000000EDF6EC60E2C6E2C50D8A4200E2D6E8F
:1047A000020E2E6E06EC32F032C02EF033C02FF027
:1047B0004EEC20F0436E20EE82F03250D92633507A
:1047C000DA22000EDF6E020E3224156E000E332048
:1047D000166E000E186E000E176E000E1A6E800E0A
:1047E000196E39EC24F0120020EE82F03250D926F6
:1047F0003350DA227F0EDF60120020EE82F032505A
:10480000D9263350DA22DF50346E34503224356EDC
:10481000000E3320366E020E3524D96E000E36207F
:10482000DA6E6000B3F1DFFF20EE82F03250D9265D
:104830003350DA22DF2A6C0E2C6E2D6A010E2E6E9A
:1048400006EC32F0120000016C51346E356A3550BE
:10485000000AD8A4C9D734500D0AD8B46AD7160AAA
:10486000D8B41200650AD8B41200010AD8B41200F4
:10487000BBD715C01FF016C020F019501A10D8B4BD
:10488000120060007FF0D9FF600083F0DAFF600063
:104890005FF0DFFF19501F241B6E1A5020201C6E82
:1048A000FF0E1B24D96EFF0E1C20DA6E60005FF035
:1048B000DFFF1A5004E1030E195CD8A0120020EEAD
:1048C00001F01F50D9262050DA2260005FF0DFFF90
:1048D00020EE02F01F50D9262050DA2260005FF04F
:1048E000DFFF19501F241B6E1A5020201C6EFE0E75
:1048F0001B24D96EFF0E1C20DA6E60005FF0DFFF14
:1049000019501F241B6E1A5020201C6EFD0E1B24F4
:10491000D96EFF0E1C20DA6E60005FF0DFFF1A50C8
:1049200004E1070E195CD8A0120020EE03F01F501E
:10493000D9262050DA2260005FF0DFFF19501F24D3
:104940001B6E1A5020201C6EFC0E1B24D96EFF0E0D
:104950001C20DA6E60005FF0DFFF1A5004E1090EE0
:10496000195CD8A012001FC01BF020C01CF01B1E39
:104970001C1E1B4A1C2A030E1B141D6E1E6A1D5092
:104980001F261E5020221D50195E1E501A5AFC0E62
:104990001916FF0E1A160ED060007FF0D9FF6000C6
:1049A00083F0DAFF60005FF0DFFF1906D8A01A0677
:1049B0001F4A202A19501A10D8B41200EDD720EE41
:1049C000DAF110EE25F0060E6F006FFFE3FFE80648
:1049D000FBE222C030F023C031F030503110D8A4B7
:1049E00003D0250E306E316A30C015F031C016F09C
:1049F000BBEC2DF015C034F016C035F0F9C032F024
:104A0000FAC033F033BE0ED03450325C3350800ADB
:104A1000246E3550800A2458D8B004D032C034F007
:104A200033C035F034C032F035C033F0F7C02EF06B
:104A3000F8C02FF03DA00DD016D0000E186E200E3D
:104A4000176E20C019F021C01AF02FEC2AF0344A5A
:104A5000352A2E50345C3550800A246E2F50800A3F
:104A60002458D8A0EAD7000E2D6E000E2C6E23D04D
:104A70006000C3F0F6FF6000C7F0F7FF000EF86EAD
:104A80001F0EF76403D00800F55007D06F00DBFF5E
:104A9000E9FF6F00DFFFEAFFEF50246E2450176E2E
:104AA000186A20C019F021C01AF02FEC2AF0304A01
:104AB000312A2C4A2D2A32502C5C2D50800A246E2B
:104AC0003350800A2458D8A0D3D73DB00DD016D08B
:104AD000000E186E200E176E20C019F021C01AF0BB
:104AE0002FEC2AF0344A352A2E50345C3550800A97
:104AF000246E2F50800A2458D8A0EAD734C020F062
:104B000035C021F012001D6E1D50D8A418AE1AD069
:104B100015C019F016C01AF017C01BF018C01CF011
:104B2000191E1A1E1B1E1C1E192A000E1A221B22D9
:104B30001C2219C01FF01AC020F01BC021F01CC09D
:104B400022F008D015C01FF016C020F017C021F0C9
:104B500018C022F01550161017101810D8A409D03C
:104B6000000E156E000E166E000E176E000E186EFB
:104B70001200960E1E6E06D01E2AD89022322132C6
:104B800020321F32000E1F14196E000E20141A6EF0
:104B9000000E21141B6EFE0E22141C6E19501A10EA
:104BA0001B101C10D8B40DD0E7D71E2A010E1F26EB
:104BB000000E202221222222D890223221322032BD
:104BC0001F32000E1F14196E000E20141A6E000EF4
:104BD00021141B6EFF0E22141C6E19501A101B108C
:104BE0001C10D8B407D0E1D71E06D8901F36203647
:104BF0002136223621BE03D0020E1E60F5D71EA03C
:104C0000219ED8901E321EC019F01A6A1B6A1C6AB7
:104C100019C01CF01B6A1A6A196A19501F121A501F
:104C200020121B5021121C5022121D50D8A418AE65
:104C300001D0228E1FC015F020C016F021C017F041
:104C400022C018F01200000E256E000E246E000E19
:104C5000236E000E226E01D01C2A600073F0F6FF56
:104C6000200EF76E000EF86E0800F550200AD8B43A
:104C7000F3D7F70E1E6EFF0E1F6E600073F0F6FF87
:104C8000200EF76E000EF86E0800F550206E216AB7
:104C90001E5020261F50212221500BE1050E205CC2
:104CA000D8B007D0D9D7000E236E010E226E1C2A71
:104CB00034D0600073F0F6FF200EF76E000EF86E31
:104CC0000800F5501E6E1F6A1F50000AD8A425D098
:104CD0001E502B0AD8B4EBD7060AD8B4E4D71DD09F
:104CE00024C015F025C016F0000E186E0A0E176EBF
:104CF000BEEC30F0600073F0F6FF200EF76E000E91
:104D0000F86E0800F550155E000E165A300E152488
:104D1000246E000E1620256ECAD7D00E1E6EFF0E12
:104D20001F6E600073F0F6FF200EF76E000EF86E37
:104D30000800F550206E216A1E5020261F502122A7
:104D4000215004E10A0E205CD8A0CAD722502310BB
:104D5000D8A40DD024C01EF025C01FF01E1E1F1E9B
:104D60001E4A1F2A1EC01CF01FC01DF0120024C0C6
:104D70001CF025C01DF01200000E2F146D6F000EE8
:104D800030146E6F800E31146F6F7F0E3214706F9F
:104D90006D516E116F117011D8A408D0000E2F6ED6
:104DA000000E306E000E316E000E326E000E3314A7
:104DB0006D6F000E34146E6F800E35146F6F7F0EA2
:104DC0003614706F6D516E116F117011D8A408D028
:104DD000000E336E000E346E000E356E000E366E11
:104DE00032AE09D02F6C301ED8B0302A311ED8B068
:104DF000312A800E325636AE09D0336C341ED8B00C
:104E0000342A351ED8B0352A800E3656000E2F1A99
:104E1000000E301A000E311A800E321A000E331AAC
:104E2000000E341A000E351A800E361A33502F5CDD
:104E3000345030583550315836503258D8B002D0EE
:104E4000D8901200D880120020EE25F0070EDE6AFE
:104E5000E806FDE21D501E101F1020102110221028
:104E600023102410D8B446D0010E2D6E0AD0D8904D
:104E70001D361E361F36203621362236233624367E
:104E80002D2A24AEF4D7D890253626362736283654
:104E900029362A362B362C361D50155C1E501658D6
:104EA0001F501758205018582150195822501A587E
:104EB00023501B5824501C58D8A011D01D50155EEB
:104EC0001E50165A1F50175A2050185A2150195A5E
:104ED00022501A5A23501B5A24501C5A2580D8900D
:104EE000243223322232213220321F321E321D322E
:104EF0002D2EC9D725C015F026C016F027C017F0F3
:104F000028C018F029C019F02AC01AF02BC01BF0D5
:104F10002CC01CF01200000EBE6E110EBD6E200ED5
:104F2000BA6E000EBF6E000EBB6E000EBC6E020E9F
:104F3000C66E0B0EC76EDF0EC26EC368900EC46ED7
:104F4000080EC56E0C0E3A01706F600E606FFE0E9B
:104F5000506F020E806F0F0E906F8F0E406F000E1D
:104F6000716F000E916F000E816F010E516F500E28
:104F7000416F000E616F000E5A6F000E5B6F000EE6
:104F80006A6F000E6B6F000E7A6F000E7B6F000E63
:104F9000826F000E926F000E426F000E526F000E75
:104FA000626F000E726F4369536963697369070E1C
:104FB000836F936944695469646974690F0E846FDF
:104FC00094690E0E1A6F130EDE6F1E0E136F1F0EF6
:104FD000156F130E166F170EE56F0D0E2A6F140E58
:104FE000DF6F12005CC11FF05DC120F05EC121F0D7
:104FF0005FC122F015C01FF016C020F017C021F0CD
:1050000018C022F01FC019F020C01AF021C01BF0F8
:1050100022C01CF0180E05D0D8901C321B321A3258
:105020001932E82EF9D719501D6E1E6A1D501E1038
:10503000D8A419D0D8901F34196E20341A6E213498
:105040001B6E22341C6E19501A101B101C10D8A491
:1050500005D0000E166E020E156E1200000E166EB2
:10506000030E156E12001D281E10D8A41CD01FC0E0
:1050700019F020C01AF021C01BF022C01CF0090E4C
:10508000D89019361A361B361C36E82EF9D7195027
:105090001A101B101C10D8A402D0010E01D0000E53
:1050A000156E166A1200000E166E040E156E1200B2
:1050B000440EF66E310EF76E000EF86E01EEFFF044
:1050C00011EE00F009006F00D7FFEEFFE550E15050
:1050D000F9E1E250F7E1DE0EF66E630EF76E000EB8
:1050E000F86E00EEDAF110EE17F009006F00D7FF4E
:1050F000EEFFE550E150F9E1D20EF66E640EF76E68
:10510000000EF86E09006F00D4FFFEF009006F007A
:10511000D4FFFFF001EE00F010EEFFF0EE6AE55074
:10512000E150FCE1E250FAE100EE00F3830EEE6A9A
:10513000E806FDE100EE00F2C30EEE6AE806FDE1CE
:1051400000EE00F1C20EEE6AE806FDE100EED9F0D5
:10515000250EEE6AE806FDE100EE39F0130EEE6A68
:10516000E806FDE1080ED56E000ED66E000ED76E75
:10517000000115EF1FF0800E0101466F020E476F10
:1051800046C121F047C122F05EEC31F03D01149F91
:10519000200E156F030E166F040E196F020E1C6F92
:1051A000830E146F148F300E156E570E166E050E8B
:1051B000176E000E186EA2EC2FF0460E68EC2FF062
:1051C000410E85EC2FF0500E156E000E166E000E7F
:1051D000176E000E186EA2EC2FF0530E85EC2FF018
:1051E000020E4EEC31F0500E156E000E166E000ED3
:1051F000176E000E186EA2EC2FF0510E68EC2FF017
:105200003D01149F020E166F148F1A933F0E3B013F
:10521000FD17FD9BFD51F90B0209FD6FE70EFD1710
:10522000FD81800EF96F020EFA6F000EFB6FFC9B82
:105230003D011A831200173418341E6E1E50D8A474
:1052400009D0000E156E000E166E000E176E000EC1
:10525000186E120015C019F016C01AF017C01BF016
:1052600018C01CF0200E05D0D8901C321B321A3208
:105270001932E82EF9D719501D6E178EFF0E15162C
:10528000FF0E1616FF0E1716000E1816960E1E5E4F
:105290001EAE0DD01E50800A970FD8A0D2D7D8903E
:1052A00018321732163215321E3EF9D70DD01F0EA6
:1052B0001E6407D0C6D7D89015361636173618365E
:1052C0001E061E50D8A4F7D71D50D8B408D0181EFB
:1052D000171E161E156C000E16221722182215C056
:1052E00015F016C016F017C017F018C018F012000D
:1052F000176E2DD0BD98BD9A1200BD98BD8A1200C0
:10530000BD88BD9A1200BD9CBD9E1200BD9CBD8E85
:105310001200BD8CBD9E1200BF98BF9A1200BF98AC
:10532000BF8A1200BF88BF9A1200BF9CBF9E1200A6
:10533000BF9CBF8E1200BF8CBF9E1200BD98BD9A4D
:10534000BD9CBD9EBF98BF9ABF9CBF9E12001750C8
:10535000156E166A1650000AD8A4F0D71550000A28
:10536000D8B4C8D7010AD8B4CBD7030AD8B4C5D7A4
:10537000010AD8B4C8D7070AD8B4CBD7010AD8B421
:10538000C5D7030AD8B4C8D7010AD8B4CBD70F0AF7
:10539000D8B4C5D7010AD8B4C8D7030AD8B4CBD774
:1053A000010AD8B4C5D7CAD739019397C00E156E74
:1053B000550E166E000E176E1BEC32F093994E0EC2
:1053C000156E610E166E000E176E14EC32F0000EA4
:1053D0003D01EC6F000EED6F000EEE6F000EEF6FF3
:1053E000000EF06F000EF16FB00EF26F800EF36FD3
:1053F000000EF46F8A0EF56F000EF66F000EF76F59
:10540000000EF86F000EF96F000EFA6FDC0E156ECD
:10541000640E166E000E176E29EC32F0DA0E156E61
:10542000640E166E000E176E22EC32F0CC0E156E66
:10543000640E166E000E176E30EC32F0000E456EE4
:10544000000E4B6E000E4A6E400E496E000E486E06
:10545000000E476E000E466E3901938712001950F8
:105460001A10D8B404D019501A10D8A404D0175068
:1054700059EC32F04AD020EE09F01950D9261A50D2
:10548000DA22DE50DE10D8B416D020EE09F0195022
:10549000D9261A50DA2210EE03F01950E1261A50DC
:1054A000E222DE50E65CE650800A1F6EDE50800A83
:1054B0001F58D8B02AD020EE03F01950D9261A5020
:1054C000DA226F0078FF1BF06F0074FF1CF06000A1
:1054D00067F0D9FF60006BF0DAFF6F0078FF1DF016
:1054E0006F0074FF1EF01B501D24D96E1C501E202F
:1054F000DA6E60005FF0DFFF20EE03F01950D9266E
:105500001A50DA22DE2A000EDD2217C017F0186AC0
:1055100012001D501E101F102010211022102310E9
:105520002410D8B43CD0010E256E0AD0D8901D3678
:105530001E361F3620362136223623362436252ABB
:1055400024AEF4D71D50155C1E5016581F50175826
:10555000205018582150195822501A5823501B58BF
:1055600024501C58D8A010D01D50155E1E50165A3D
:105570001F50175A2050185A2150195A22501A5A9F
:1055800023501B5A24501C5AD890243223322232E2
:10559000213220321F321E321D32252ED3D715C0A4
:1055A00015F016C016F017C017F018C018F019C083
:1055B00019F01AC01AF01BC01BF01CC01CF012001E
:1055C000000E4824D96EDA6A010EDA22000EDF6E70
:1055D0003D01F9A715D0000E4824D96EDA6A010EF4
:1055E000DA220101DF8201D80BD00500FA6E00013A
:1055F000E651FD6EE751FE6EE851FF6EFA50120063
:105600003D01F9A315D0000E4824D96EDA6A010EC7
:10561000DA220101DF8401D80BD00500FA6E000107
:10562000E351FD6EE451FE6EE551FF6EFA5012003B
:10563000000E4824D96EDA6A010EDA22DF50D8B49F
:105640000DD001D812000500FA6E0001E051FD6E88
:10565000E151FE6EE251FF6EFA5012003DEC31F066
:1056600012003DA00AD02BC020F02CC021F029C090
:1056700022F02AC023F0B6EC2CF02EBE05D02DC0AF
:1056800032F02EC033F004D0000E336E000E326EB6
:10569000000E316E000E306E0CD0000E186E200E13
:1056A000176E29C019F02AC01AF02FEC2AF0304AE0
:1056B000312A3250305C3150800A2F6E3350800ACC
:1056C0002F58D8A0EAD73DB00AD02BC020F02CC06C
:1056D00021F029C022F02AC023F0B6EC2CF02BC018
:1056E00015F02CC016F0BBEC2DF032501524296EAD
:1056F000335016202A6E1200000E15141D6E000E77
:1057000016141E6E800E17141F6E7F0E1814206E56
:105710001D501E101F102010D8A408D0000E156EAA
:10572000000E166E000E176E000E186E000E191485
:105730001D6E000E1A141E6E800E1B141F6E7F0E3F
:105740001C14206E1D501E101F102010D8A408D04D
:10575000000E196E000E1A6E000E1B6E000E1C6EEF
:10576000195015180AE11A50161807E11B5017189E
:1057700004E11C501818D8B402D0D8901200D88078
:105780001200D6C115F0D7C116F0000E186E000E2B
:10579000176E000E1A6E830E196E39EC24F060003D
:1057A0005BF7D9FF60005FF7DAFF600063F7DEFFA9
:1057B000600067F7DDFF020E0101D625C26F000E03
:1057C000D721C36FA20EC46FC90EC56FC551D8A42F
:1057D000200EC66FD50EC76FC751D8A4200EC86F54
:1057E0006CEC2DF0020ED625296E000ED7212A6E04
:1057F000BFEC2FF0060E296E2950D8A4200E2A6E79
:10580000BFEC2FF01200000E1A6E18AE06D0176C07
:10581000181ED8B0182A010E1A6E16AE06D0156CD6
:10582000161ED8B0162A010E1A1A000E1C6E000E93
:105830001B6E17501810D8B41CD0010E196E04D06E
:10584000D89017361836192A18AEFAD7D8901B36C2
:105850001C361750155C18501658D8A005D0175094
:10586000155E1850165A1B80D89018321732192E10
:10587000EDD71A50D8B404D01B6C1C1ED8B01C2A0B
:105880001BC015F01CC016F01200000E3E01DE6FAA
:10589000000EDF6F000EE06F000EE16F000EE46F90
:1058A000000EE56F000EEA6F000EEC6F000EF16F58
:1058B000100EF36F000EF46F000EF56F000EF66F12
:1058C000000EF76F000EF96F000EFA6F200EFB6FDF
:1058D000000EFC6F020EFD6F070EFE6F1F0EFF6FB6
:1058E000840EF86F3901A1959185D40E156E640E62
:1058F000166E000E176E4CEC32F01200000E1A6E8F
:1059000016AE06D0156C161ED8B0162A010E1A6EE9
:1059100018AE04D0176C181ED8B0182A17501810DB
:10592000D8B418D0010E196E04D0D8901736183696
:10593000192A18AEFAD71750155C18501658D8A067
:1059400004D01750155E1850165AD89018321732D6
:10595000192EF1D71A50D8B404D0156C161ED8B031
:10596000162A15C015F016C016F01200000E286E8B
:10597000000E276E0BD026C017F0186A22C019F04F
:1059800023C01AF02FEC2AF0274A282A2750202477
:10599000246E28502120256E600093F0F6FF6000F1
:1059A00097F0F7FF000EF86E1F0EF76403D00800A3
:1059B000F55007D06F00DBFFE9FF6F00DFFFEAFF64
:1059C000EF50266E2650D8A4D6D727C020F028C086
:1059D00021F0120017C01BF018C01CF015C01DF0FC
:1059E00016C01EF01B50196E1C501A6E1B4A1C2A42
:1059F000600067F0F6FF60006BF0F7FF000EF86ED6
:105A0000600077F0D9FF60007BF0DAFF1D4A1E2AA4
:105A10001F0EF76403D00800F55007D06F00DBFFBE
:105A2000E9FF6F00DFFFEAFFEF50DF6EDF50D8B411
:105A30001200D8D7D0C038F0000EF66F000EF56F08
:105A400011D0CEC0AFF0CFC0B0F0380EB16FD1C022
:105A5000B2F0D2C0B3F066EC15F00001AF51F527FB
:105A6000B051F6236000E3F0F6FF200EF76E000E53
:105A7000F86E0800F5500009D8A4E3D7F5C0CEF0C1
:105A8000F6C0CFF01200000E126E000E116ED8900C
:105A90001134D96E1234DA6E4C0ED926010EDA2288
:105AA000DE50DE10D8B40CD0D8901134D96E123438
:105AB000DA6E4C0ED926010EDA22DE06000EDD5A11
:105AC000114A122A12BEE3D7125005E1060E115CEC
:105AD000D8B01200DCD71200C50EC96F010ECA6F14
:105AE000C2C1CBF1C3C1CCF1000ECF6F000ECE6F9F
:105AF000000ED56F000ED46FCB0E0001CE6F010EDD
:105B0000CF6FC4C1D0F0C90ED16F010ED26F1AECA5
:105B10002DF00101CE51C225D96ECF51C321DA6ECD
:065B2000000EDF6E120012
:105B28006F00E8FF13F06F00ECFF14F03901A89D37
:105B38003FC00FF040C010F009EC31F00001DD511A
:105B4800DE11DF11D8B40CD001D80AD00500FA6EE6
:105B5800DD51FD6EDE51FE6EDF51FF6EFA50120010
:105B6800600053F0FBFF60004FF0FAFF110015C012
:105B780017F016C018F002D0154A162A600057F020
:105B8800F6FF60005BF0F7FF000EF86E1F0EF7647B
:105B980003D00800F55007D06F00DBFFE9FF6F0066
:105BA800DFFFEAFFEF500009D8A4E6D71750155CCD
:105BB800156E18501658166E1200B80E3B01F96F84
:105BC800010EFA6F000EFB6F3D0EF16F110EF06FB4
:105BD800020EFD6F000EF86F010EF76F000EEF6FEB
:105BE800010EEE6F000EFF6F000EFE6F3901A293DB
:105BF800A291A297A2959293929192979295800ED4
:105C08003B01FC6F1200000E9B6E000E9C6E020E94
:105C18009D6E830E996E000E986E3901A89D98505E
:105C28006F0064FE18F0196A18C019F0186A181085
:105C38003F6E1950406E988DDE0E156E640E166E0E
:105C4800000E176E3EEC32F0010E9A6E1200000E36
:105C5800331A000E341A000E351A800E361A2FC069
:105C680015F030C016F031C017F032C018F033C04C
:105C780019F034C01AF035C01BF036C01CF04BECDC
:105C88001CF015C02FF016C030F017C031F018C046
:105C980032F01200D28A000ED2BE010E156ED29ECC
:105CA800550ED46EAA0ED46ED490000ED76E000E88
:105CB800D66E080ED56E550ED46EAA0ED46ED4804C
:105CC80015B002D0D29E01D0D28E39018389838744
:105CD8008981888D818512006F00E8FF06F06F00CA
:105CE800ECFF07F03901A1950001EC51ED11EE111F
:105CF800D8B40CD001D80AD00500FA6EEC51FD6E6C
:105D0800ED51FE6EEE51FF6EFA50120060001FF06A
:105D1800FBFF60001BF0FAFF1100010E1B6E200E46
:105D280015181610D8B414D0F70E176EFF0E186E8B
:105D380015C019F016C01AF01750192618501A2253
:105D48001A5004E1050E195CD8A002D0000E1B6E93
:105D58001BC015F0166A12004650D8B4FDD7000EC5
:105D68004724D96EDA6A010EDA22DF50456E000E3A
:105D78004724D96EDA6A020EDA22DF50156E472AF6
:105D88003F0E476402D0000E476E390193974606CE
:105D98009387155012004EEC2EF02CEC31F08BEC62
:105DA80027F08BEC31F045EC2CF0E1EC2DF06DECAC
:105DB80031F0D7EC31F090EC30F053EC32F007ECE6
:105DC8002EF0E3EC31F0D4EC29F0A6EC31F045EC00
:105DD80032F012006F00E8FF0BF06F00ECFF0CF0E0
:105DE8000001EF51F011F111D8B40CD001D80AD04C
:105DF8000500FA6EEF51FD6EF051FE6EF151FF6E27
:105E0800FA501200600033F0FBFF60002FF0FAFF39
:025E1800110077
:105E1C006F00E8FF0DF06F00ECFF0EF00001F25187
:105E2C00F311F411D8B40CD001D80AD00500FA6ED5
:105E3C00F251FD6EF351FE6EF451FF6EFA501200EA
:105E4C0060003BF0FBFF600037F0FAFF1100156EAD
:105E5C004950D8B4FDD7390193B904D0600057F03C
:105E6C00EAFD11D09399400E4B24D96EDA6A020EDA
:105E7C00DA22600057F0DFFF4B2A3F0E4B6402D052
:105E8C00000E4B6E490693891200BF0E1D6EFF0E5D
:105E9C001E6E1BC01FF01CC020F01D501F261E5074
:105EAC00202220500AE11A0E1F5CD8B006D0200E1A
:105EBC001B101B6E1C501C6E12001BC01BF01CC058
:105ECC001CF01200196EBC90FE0E99EC31F0080E0D
:105EDC00156E000E166E000E176E000E186EA2ECEC
:105EEC002FF0195099EC31F0200E156E030E166E32
:105EFC00000E176E000E186EA2EC2FF01200196E29
:105F0C00BC90FE0E99EC31F0080E156E000E166E5C
:105F1C00000E176E000E186EA2EC2FF0195099ECB3
:105F2C0031F0080E156E000E166E000E176E000E78
:105F3C00186EA2EC2FF01200000E0001D96F000EAB
:105F4C00DA6F000EDB6F000EDC6F00F00400010E48
:105F5C000001D927000EDA23DB23DC23D951155C91
:105F6C00DA511658DB511758DC511858D8A01200CA
:105F7C00ECD7010E2B6E29C020F02AC021F0000EA8
:105F8C00226E000E236EB6EC2CF021BE1200000E19
:105F9C00186E0A0E176E000E196E000E1A6E2FEC8C
:105FAC002AF018BE1200000E2B6E1200FBEC31F022
:105FBC004450020DF350390FD96EDA6A600007F0C5
:105FCC00DEFF60000BF0DDFF442A4404056E010E79
:105FDC00056402D0000E446E600013F1F1FE010E58
:065FEC000001FC6F120031
:105FF4006F00E8FF09F06F00ECFF0AF03901A99186
:10600400414A422A425004E1170E415CD8A006D00E
:10601400F7EC30F0000E426E000E416E60002BF083
:10602400FBFF600027F0FAFF110015C017F016C03F
:1060340018F0D89018321732D890183217321750F7
:10604400696E15C017F0030E1716060E186ED89059
:106054001736182EFCD71750686E120015C017F0AB
:1060640016C018F0D89018321732D8901832173258
:1060740017506D6E15C017F0030E1716060E186E26
:10608400D8901736182EFCD717506C6E1200BF0E1E
:10609400176EFF0E186E15C019F016C01AF01750BF
:1060A400192618501A221A5006E11A0E195CD8B093
:1060B40002D0010E01D0000E156E166A1200D00E29
:1060C400176EFF0E186E15C019F016C01AF017508F
:1060D400192618501A221A5006E10A0E195CD8B073
:1060E40002D0010E01D0000E156E166A1200155072
:1060F400161017101810D8B408D0000E151A000E78
:10610400161A000E171A800E181A15C015F016C0AC
:1061140016F017C017F018C018F01200010E966E92
:10612400200E956E000E976E4D0E936E000E926EBD
:106134003901A9919981D60E156E640E166E000E62
:10614400176E37EC32F094681200400E496011D09B
:10615400400E4A24D96EDA6A020EDA22DF503D017B
:10616400EA6F4A2A3F0E4A6402D0000E4A6E492A58
:106174001200390193991200155017026F00CCFFD9
:1061840019F06F00D0FF1AF015501802F3501A26B8
:1061940016501702F3501A2619C015F01AC016F03B
:1061A40012000DEC32F00009D8B40BD0B0EC2EF094
:1061B400176E1650D96EDA6A60005FF0DFFF010EC9
:1061C4001200000E12002CC029F02DC02AF0BFECE2
:1061D4002FF0710E296E2950D8A4200E2A6EBFEC20
:1061E4002FF0010E0001FB6F12000001E951EA11CA
:1061F400EB11D8B4120001D812000500FA6EE9516F
:10620400FD6EEA51FE6EEB51FF6EFA5012009AA435
:1062140009D09A90600043F099FF60003FF098FF26
:106224009A801200600043F099FF60003FF098FFED
:106234001200C30E0001D36F010ED46F000ECE6F97
:10624400000ECF6FC2C1D0F0D30ED16FD26B1AEC57
:106254002DF01200000EC06F000EC16F000EC26F51
:10626400000EC36F000EC46F000EC56F000EC66F24
:10627400000EC76F1200000E4824D96EDA6A020EAF
:10628400DA226F00A3F7DFFF482A3F0E486402D0EA
:10629400000E486E462A1200196EBC90195099ECF3
:1062A40031F0080E156E000E166E000E176E000EFD
:1062B400186EA2EC2FF0120021C015F022C016F0C7
:1062C400000E186E000E176E000E1A6E430E196E35
:1062D40039EC24F01200010EAE6E000EAD6E000E0D
:1062E400AF6E9F0EAB6E000EAA6E3901A495800EA0
:1062F400AC6E1200BEA002D0010E01D0000EFF0A47
:10630400086EBE500818FE0B0818BE6E010EFD6F15
:106314001200200E3901D96F000EDB6F000EDD6F05
:10632400050EDF6F000EDE6FDCB11200FDD7156EB7
:10633400010E3D01126F600057F011FD3901A2A951
:10634400FDD73D0110511200020E3D01146F400EA5
:10635400156F000E166F000E1C6F080E196FC49691
:106364001200000E0101D66F030ED76FE10ED86F35
:10637400010ED96FC1EC2BF01200B70E296E295013
:10638400D8A4200E2A6EBFEC2FF0000E0001FB6F84
:1063940012008A0E296E2950D8A4200E2A6EBFEC52
:1063A4002FF0020E0001FB6F1200800E6A6E4F0E7A
:1063B400696EC00E686E3F015F51F30B04095F6F95
:1063C4001200800E6E6E4F0E6D6EC00E6C6E3F012D
:1063D4005F51FC0B01095F6F1200286E756C6C290C
:1063E40000F8CA6100FB966300F57E6300000000BC
:0163F40000A8
:1063F6003E01F051046E036AEF510324016E000E54
:106406000420026E12002CC029F02DC02AF0BFEC29
:106416002FF012004650D8B402D0010E1200000E22
:10642600120015C0EFF016C0F0F017C0F1F0120020
:1064360015C0F2F016C0F3F017C0F4F0120015C044
:10644600E3F016C0E4F017C0E5F0120015C0E6F060
:1064560016C0E7F017C0E8F0120015C0E0F016C04D
:10646600E1F017C0E2F0120015C0E9F016C0EAF03C
:1064760017C0EBF0120015C0DDF016C0DEF017C035
:10648600DFF01200550E3901EF6FAA0EEF6FEF81A4
:10649600120015C0ECF016C0EDF017C0EEF01200B9
:1064A600A40E3E019E6F1F0E9C6F1200166E1650B4
:1064B6002DEC2FF01200156E600057F09CFE1200B6
:1064C6003E019C5112003DEC31F01200D5C912007C
:0A64D6001200110012001200120063
:020000040020DA
:10000000FF0FFF0FFF0FFF0FFF0FFF0FFF0FFF0F80
:020000040030CA
:0A000000AFFFFFFF9FFFFFDFFFFFD0
:00000001FF
