:0400000057EF00F0C6
:10000800CB53CB53CB53CB53CB53CB53CB53CB53F8
:10001800CB53CB534951CB53CB53CB53CB53CB536C
:100028005A51CB53CB53CB53CB53CB53CB53CB534B
:10003800CB53CB53CB5315510351E851F751CB5305
:10004800CB53CB53CB53CB532B00CB53CB53CB53AB
:10005800CB53CB53CB53CB53CB53CB53CB53CB53A8
:10006800CB53CB53CB53CB53CB53CB53CB53CB5398
:10007800CB53CB532B00CB53CB53CB532B002B0061
:100088002B002B002B002B002B002B00CB50CB532D
:100098002352CB53CB53CB532B002B002B002B00DD
:0A00A800CB53CB53FF007BEF98F021
:10FDF8000002400050000D0A20436F6D6D616E6473
:10FE08002070726F636573736F722056302E310DD8
:10FE18000A0056312E303020505320544553540098
:10FE28002050532054595045202531753A205053BD
:10FE38002054657374202531753A20444143204F7E
:10FE480055542025342E34756D5620423D252E32CA
:10FE5800752C20537570706C79205265616442610D
:10FE6800636B2025342E34756D5620563D252B3670
:10FE78002E3166562025342E34756D5620493D2581
:10FE88002B332E31666D41200D0A000D0A204143A7
:10FE980043454C205375707072657373696F6E209B
:10FEA800537570706C79200D0A000D0A204558545E
:10FEB800205375707072657373696F6E2053757017
:10FEC800706C79200D0A000D0A2052616D70207443
:10FED8006F2031303030564443204F4E200D0A00F9
:10FEE8000D0A2053746561647920313030305644EE
:10FEF80043204F4E200D0A0025342E34756D5620B0
:10FF080025342E34756D562025342E34756D5600E3
:10FF180044252E32752C204D2531752C2050253145
:10FF2800752C204925327500563D252B362E316615
:10FF38005620493D252B332E31666D412020000D7A
:10FF48000A20566F6C7461676520444F574E200D28
:10FF58000A000D0A20566F6C74616765204F46468B
:10FF6800200D0A000D0A20566F6C74616765204CDD
:10FF78004F57200D0A000D0A20566F6C7461676593
:10FF8800204F4E200D0A000D0A20566F6C746167D1
:10FF980065205550200D0A000D0A204275696C64D1
:10FFA8002025732025730D0A00417072202035200A
:10FFB800323032320031303A31363A313700257337
:10FFC80020257300494E46004E414E00696E66007A
:10FFD8006E616E006C6C73006C660070300070317E
:10FFE80000706400706C00706F00707000707200B8
:07FFF800707300707500003A
:020000040001F9
:10000000000EB46F000EB36F95C0C3F096C0C4F07D
:1000100097C0C5F098C0C6F0C6AF16D0000EB46F3A
:10002000010EB36FC3C060F0C4C061F0C5C062F020
:10003000C6C063F0F7ECA4F060C0C3F061C0C4F0C8
:1000400062C0C5F063C0C6F0000ECC6F000ECB6F6F
:10005000F4C0B8F0F5C0B9F0B351B411D8A402D0CF
:100060002DA413D0B351B411D8A404D0000EA06FA6
:100070002B0E03D0000EA06F2D0E9F6F9FC043F17B
:10008000CB4BCC2BB807D8A0B907C3C060F0C4C015
:1000900061F0C5C062F0C6C063F02EEC9BF0600555
:1000A0006111D8A443D0BF0E9A6FFF0E9B6F995178
:1000B0009C6F9D6B9A519C279B519D239D5111E1F3
:1000C0001A0E9C5DD8B00DD0430ECB25606F010E8B
:1000D000CC21616FCC0E626FFF0E636F94EC9FF0CA
:1000E0000CD0430ECB25606F010ECC21616FD40E76
:1000F000626FFF0E636F94EC9FF00001FD0EB82756
:10010000FF0EB92393C073F094C074F0430E000146
:10011000756F010E766FB8C077F0B9C078F0B2ECA9
:100120009DF073C093F074C094F01200C3C060F0EF
:10013000C4C061F0C5C062F0C6C063F02EEC9BF095
:1001400060516111D8A42BD0BF0E9A6FFF0E9B6F28
:1001500099519C6F9D6B9A519C279B519D239D515A
:1001600011E11A0E9C5DD8B00DD0430ECB25606F07
:10017000010ECC21616FD00E626FFF0E636F94ECA5
:100180009FF0BBD7430ECB25606F010ECC21616F72
:10019000D80E626FFF0E636F94EC9FF0AED7000E27
:1001A000CD6F000ECE6F800ECF6F3F0ED06F000E62
:1001B000CA6F000EC96FC3C060F0C4C061F0C5C093
:1001C00062F0C6C063F0000E646F000E656F000E33
:1001D000666F000E676FFDEC9DF0D8A01DD074D047
:1001E000CDC06EF0CEC06FF0CFC070F0D0C071F057
:1001F000000E726F000E736F200E746F410E756FDC
:1002000095EC8DF06EC0CDF06FC0CEF070C0CFF029
:1002100071C0D0F0C94BCA2BC3C087F0C4C088F0EE
:10022000C5C089F0C6C08AF0000E726F000E736FF1
:10023000200E746F410E756FCDC06EF0CEC06FF0A2
:10024000CFC070F0D0C071F095EC8DF06EC08BF027
:100250006FC08CF070C08DF071C08EF0F8EC99F02A
:10026000D8A01ED0BDD7CDC060F0CEC061F0CFC049
:1002700062F0D0C063F0000E646F000E656F200E58
:10028000666F410E676FC3EC90F060C0CDF061C047
:10029000CEF062C0CFF063C0D0F0C907D8A0CA07C3
:1002A000C3C087F0C4C088F0C5C089F0C6C08AF05A
:1002B000CDC08BF0CEC08CF0CFC08DF0D0C08EF012
:1002C000F8EC99F0D8A0CFD799C066F0676B0CEC2A
:1002D000A4F06651BA6FBAC0B7F0670EBA19D8A4C5
:1002E00019D0F651F711D8A404D0000EF76F010E03
:1002F000F66FF7BF05D0F75108E1F605D8B005D085
:10030000000EB66F060EB56F08D0F6C0B5F0F7C098
:10031000B6F003D0F7AFF9D7F3D7670EBA19D8A460
:1003200022D0CAAF06D0FC0EC95DFF0ECA59D8A0B4
:1003300018D0FF0E9A6FFF0E9B6FB5C09CF0B6C031
:100340009DF09A519C279B519D23C9519C5D9D51C5
:10035000800A9E6FCA51800A9E59D8A002D0660EAC
:1003600001D0650EB76FB5C0ABF0B6C0ACF0670E8C
:10037000BA19D8A405D0660EB719D8B4CAAF02D03E
:10038000AB4BAC2B660EB719D8A416D0CAAF0CD0A5
:10039000000ECD6F000ECE6F800ECF6F3F0ED06F70
:1003A000000ECA6F000EC96F670EBA19D8B404D018
:1003B000C951AB27CA51AC23000EC86F000EC76FDE
:1003C000C3C0BBF0C4C0BCF0C5C0BDF0C6C0BEF069
:1003D000CDC0ADF0CEC0AEF0CFC0AFF0D0C0B0F069
:1003E0007AD0BBC060F0BCC061F0BDC062F0BEC0DE
:1003F00063F0CDC064F0CEC065F0CFC066F0D0C071
:1004000067F0C3EC90F060C079F061C07AF062C030
:100410007BF063C07CF0BBEC93F079C0BFF07AC096
:10042000C0F07BC0C1F07CC0C2F0BFC060F0C0C0F3
:1004300061F0C1C062F0C2C063F0F5EC9BF060C037
:10044000B1F061C0B2F0BBC087F0BCC088F0BDC0E5
:1004500089F0BEC08AF0CDC072F0CEC073F0CFC0BC
:1004600074F0D0C075F0BFC06EF0C0C06FF0C1C0F6
:1004700070F0C2C071F095EC8DF06EC08BF06FC063
:100480008CF070C08DF071C08EF04EECA2F087C081
:10049000BBF088C0BCF089C0BDF08AC0BEF0CDC042
:1004A00060F0CEC061F0CFC062F0D0C063F0000E4B
:1004B000646F000E656F200E666F410E676FC3ECB0
:1004C00090F060C0CDF061C0CEF062C0CFF063C0EC
:1004D000D0F0C74BC82BAB51C75DC851800A9A6F8B
:1004E000AC51800A9A59D8A07CD7CDC06EF0CEC04E
:1004F0006FF0CFC070F0D0C071F0000E726F000EC0
:10050000736FA00E746F400E756F95EC8DF06EC01A
:10051000BFF06FC0C0F070C0C1F071C0C2F0BBC00E
:1005200087F0BCC088F0BDC089F0BEC08AF0BFC0F3
:100530008BF0C0C08CF0C1C08DF0C2C08EF0F8EC62
:1005400099F0D8A015D0BBC060F0BCC061F0BDC0B0
:1005500062F0BEC063F0BFC064F0C0C065F0C1C04F
:1005600066F0C2C067F0FDEC9DF0D8B0B1B108D024
:10057000000EBF6F000EC06F000EC16F000EC26F85
:10058000C3C060F0C4C061F0C5C062F0C6C063F013
:10059000BFC064F0C0C065F0C1C066F0C2C067F003
:1005A0003DEC8FF060C0BBF061C0BCF062C0BDF03C
:1005B00063C0BEF0BBC087F0BCC088F0BDC089F08E
:1005C000BEC08AF0000E726F000E736F200E746F43
:1005D000410E756FADC06EF0AEC06FF0AFC070F081
:1005E000B0C071F095EC8DF06EC08BF06FC08CF0E8
:1005F00070C08DF071C08EF0F8EC99F0D8A022D0C8
:10060000C94BCA2BADC06EF0AEC06FF0AFC070F07A
:10061000B0C071F0000E726F000E736F200E746F19
:10062000410E756F95EC8DF06EC0ADF06FC0AEF001
:1006300070C0AFF071C0B0F0660EB719D8A402D088
:10064000AB4BAC2BADC0CDF0AEC0CEF0AFC0CFF059
:10065000B0C0D0F0650EB719D8B405D0C9C0A9F0A4
:10066000CAC0AAF004D0000EAA6F000EA96F000E37
:10067000A86F000EA76F000EA66F000EA56F000EEC
:10068000C86F000EC76FC4D0BBC060F0BCC061F0C3
:10069000BDC062F0BEC063F0CDC064F0CEC065F0F6
:1006A000CFC066F0D0C067F0C3EC90F060C079F0C6
:1006B00061C07AF062C07BF063C07CF0BBEC93F069
:1006C00079C0BFF07AC0C0F07BC0C1F07CC0C2F07E
:1006D000BFC060F0C0C061F0C1C062F0C2C063F0D2
:1006E000F5EC9BF060C0B1F061C0B2F02DB80CD059
:1006F000B151B211D8A408D0670EBA19D8B4AAAFB4
:1007000003D0A54BA62B39D0A751A811D8B4AAAFB6
:1007100022D0430ECB25D96E010ECC21DA6E2E0EDF
:10072000DF6ECB4BCC2BB807D8A0B907000EA86F53
:10073000010EA76F10D0430ECB25D96E010ECC2130
:10074000DA6E300EDF6ECB4BCC2BB807D8A0B907D2
:10075000A507D8A0A607A551A611D8A4ECD7430E8B
:10076000CB25D96E010ECC21DA6EB151300FDF6E80
:10077000CB4BCC2BB807D8A0B907BBC087F0BCC007
:1007800088F0BDC089F0BEC08AF0CDC072F0CEC086
:1007900073F0CFC074F0D0C075F0BFC06EF0C0C0B1
:1007A0006FF0C1C070F0C2C071F095EC8DF06EC0FA
:1007B0008BF06FC08CF070C08DF071C08EF04EEC7D
:1007C000A2F087C0BBF088C0BCF089C0BDF08AC071
:1007D000BEF0CDC060F0CEC061F0CFC062F0D0C03E
:1007E00063F0000E646F000E656F200E666F410EA1
:1007F000676FC3EC90F060C0CDF061C0CEF062C016
:10080000CFF063C0D0F0A907D8A0AA07C74BC82B68
:10081000AB51C75DC851800A9A6FAC51800A9A5992
:10082000D8B008D0CCBF30D7CC5104E14B0ECB5D53
:10083000D8A02AD7A751A811D8B42DA80AD0430E02
:10084000CB25D96E010ECC21DA6E2E0EDF6ECB4B8E
:10085000CC2B430ECB25D96E010ECC21DA6E000EC7
:10086000DF6E650EB719D8A44DD4000EC86F4F0EB9
:10087000C76F430EC725D96E010EC821DA6E000E70
:10088000DF6E000EB46F000EB36FCAAF08D0000E5B
:10089000B46F010EB36FC96DCA1FD8B0CA2B000E5A
:1008A000B66F020EB56F2AD0C707D8A0C807430E8F
:1008B000C725D96E010EC821DA6EC9C060F0CAC062
:1008C00061F0000E636F0A0E626FBEEC9EF0605125
:1008D000300FDF6EC9C060F0CAC061F0000E636FF8
:1008E0000A0E626F42EC9EF060C0C9F061C0CAF0AF
:1008F000B507D8A0B607B807D8A0B907C951CA111B
:10090000D8A4D2D7B6BF05D0B651CEE1B505D8B080
:10091000CBD7C707D8A0C807B351B411D8A404D007
:10092000000EA26F2B0E03D0000EA26F2D0EA16F32
:10093000430EC725D96E010EC821DA6E600087F21A
:10094000DFFFB807D8A0B907C707D8A0C807BF0EF0
:100950009A6FFF0E9B6F99519C6F9D6B9A519C27CC
:100960009B519D239D5104E11A0E9C5DD8A004D09B
:10097000000EA46F650E03D0000EA46F450EA36F8A
:10098000430EC725D96E010EC821DA6E60008FF2C2
:10099000DFFFB807D8A0B907430ECB25606F010E63
:1009A000CC21616F430EC725626F010EC821636FB2
:1009B00094EC9FF082EF80F0D351D96EDA6A6F0029
:1009C0007BFFF6FF6F0077FFF7FF000EF86E080061
:1009D000F550250AD8A44AD3D351D96EDA6ADE2A53
:1009E000000EDD22000EF56F000EF46FF4C02DF046
:1009F000F5C02EF0F669F769000EE56F000E13D012
:100A00002D80D351D96EDA6ADE2A000EDD2231D074
:100A10002D82F7D72D84F5D72D86F3D72D88F1D7E2
:100A2000000EE56F010EE46F24D0D351D96EDA6A5F
:100A30006F007BFFF6FF6F0077FFF7FF000EF86E89
:100A40000800F550D66FD76BD751000AD8A4E8D765
:100A5000D651200AD8B4E0D7030AD8B4DFD7080AA1
:100A6000D8B4D8D7060AD8B4CBD71D0AD8B4D0D7B3
:100A7000D7D7E451E511D8B4D8D72DB02D92D351A2
:100A8000D96EDA6A6F007BFFF6FF6F0077FFF7FF22
:100A9000000EF86E0800F5502A0AD8A42AD0D351C7
:100AA000D96EDA6ADE2A000EDD22600053F3D9FF28
:100AB000600057F3DAFF6F007CFFD6F0020EDE26EF
:100AC0006F007CFFD7F0000EDD2260005BF3D9FFE2
:100AD00060005FF3DAFF6F0078FFF4F06F0074FFDF
:100AE000F5F0F5AF39D02D80F46DF51FD8B0F52BAA
:100AF00033D0D351D96EDA6A6F0078FF66F06F0099
:100B000074FF67F0DBEC97F066C0F4F067C0F5F0B7
:100B100006D0D351D96EDA6ADE2A000EDD22D00E5D
:100B2000D66FFF0ED76FD351D96EDA6A6F007BFF95
:100B3000F6FF6F0077FFF7FF000EF86E0800F55024
:100B4000D86FD96BD651D827D751D923D95104E1C1
:100B50000A0ED85DD8A0DDD7D351D96EDA6A6F00FE
:100B60007BFFF6FF6F0077FFF7FF000EF86E0800BF
:100B7000F5502E0AD8A470D0000EF76F000EF66F55
:100B8000D351D96EDA6ADE2A000EDD22D351D96E36
:100B9000DA6A6F007BFFF6FF6F0077FFF7FF000E4A
:100BA000F86E0800F5502A0AD8A423D0D351D96E84
:100BB000DA6ADE2A000EDD22600053F3D9FF6000FE
:100BC00057F3DAFF6F007CFFD6F0020EDE266F00CF
:100BD0007CFFD7F0000EDD2260005BF3D9FF6000E0
:100BE0005FF3DAFF6F0078FFF6F06F0074FFF7F045
:100BF00033D0D351D96EDA6A6F0078FF66F06F0098
:100C000074FF67F0DBEC97F066C0F6F067C0F7F0B2
:100C100006D0D351D96EDA6ADE2A000EDD22D00E5C
:100C2000D66FFF0ED76FD351D96EDA6A6F007BFF94
:100C3000F6FF6F0077FFF7FF000EF86E0800F55023
:100C4000D86FD96BD651D827D751D923D95104E1C0
:100C50000A0ED85DD8A0DDD7D351D96EDA6A6F00FD
:100C60007BFFF6FF6F0077FFF7FF000EF86E0800BE
:100C7000F550666F676B0CECA4F06651E96FE951B3
:100C8000D8B43DD0D351D96EDA6A6F0078FFD6F070
:100C90006F0074FFD7F0010ED627000ED723600037
:100CA0005BF3F6FF60005FF3F7FF000EF86E0800DD
:100CB000F550666F676B0CECA4F06651EA6FEA5171
:100CC000D8B41DD0D351D96EDA6A6F0078FFD6F050
:100CD0006F0074FFD7F0020ED627000ED7236000F6
:100CE0005BF3F6FF60005FF3F7FF000EF86E08009D
:100CF000F550666F676B0CECA4F06651EB6F660EF7
:100D0000E919D8A44CD0D351D96EDA6A6F007BFFB1
:100D1000F6FF6F0077FFF7FF000EF86E08006F0018
:100D2000D4FFE8F0D351D96EDA6ADE2A000EDD2254
:100D3000600053F3D9FF600057F3DAFF6F007CFFC8
:100D4000D6F0040EDE266F007CFFD7F0000EDD2209
:100D500060005BF3D9FF60005FF3DAFF6F0078FF9C
:100D6000ECF06F0078FFEDF06F0078FFEEF06F00B1
:100D700078FFEFF0D1C093F0D2C094F0ECC095F0C2
:100D8000EDC096F0EEC097F0EFC098F0E8C099F093
:100D900000EC80F093C0D1F094C0D2F01200E90EC4
:100DA000646F656BE00E666FFF0E676F000E696F14
:100DB000020E686F90EC94F064516511D8A45ED077
:100DC000D351D96EDA6A6F0078FFD6F06F0074FFE6
:100DD000D7F0010ED627000ED72360005BF3F6FF95
:100DE00060005FF3F7FF000EF86E08006F00D4FF9D
:100DF000E8F0BF0ED66FFF0ED76FD351D96EDA6A07
:100E00006F007BFFF6FF6F0077FFF7FF000EF86EB5
:100E10000800F550D86FD96BD651D827D751D923B0
:100E2000D95102E11A0ED85D600053F3D9FF60007A
:100E300057F3DAFF6F007CFFD6F0040EDE266F005A
:100E40007CFFD7F0000EDD2260005BF3D9FF60006D
:100E50005FF3DAFF6F0078FFECF06F0078FFEDF0E2
:100E60006F0078FFEEF06F0078FFEFF0D351D96E8E
:100E7000DA6A020EDE26000EDD227CD7D351D96E4F
:100E8000DA6A6F007BFFF6FF6F0077FFF7FF000E57
:100E9000F86E0800F550730AD8B417D0D351D96E44
:100EA000DA6A6F0078FF64F06F0074FF65F0DC0EA3
:100EB000666FFF0E676F000E696F030E686F90EC30
:100EC00094F064516511D8A44AD0D351D96EDA6A2E
:100ED0006F007BFFF6FF6F0077FFF7FF000EF86EE5
:100EE0000800F550730AD8B404D0000EE76F030E63
:100EF00003D0000EE76F010EE66FD351D96EDA6AA8
:100F0000E651DE26E751DD22600053F3D9FF600091
:100F100057F3DAFF6F007CFFD6F0020EDE266F007B
:100F20007CFFD7F0000EDD2260005BF3D9FF60008C
:100F30005FF3DAFF6F0078FFE2F06F0074FFE3F019
:100F4000D1C06AF0D2C06BF0E2C06CF0E3C06DF0CB
:100F500095EC96F06AC0D1F06BC0D2F01200D3517C
:100F6000D96EDA6A6F007BFFF6FF6F0077FFF7FF3D
:100F7000000EF86E0800F550750AD8A447D0D3517A
:100F8000D96EDA6ADE2A000EDD22600053F3D9FF43
:100F9000600057F3DAFF6F007CFFD6F0020EDE260A
:100FA0006F007CFFD7F0000EDD2260005BF3D9FFFD
:100FB00060005FF3DAFF6F0078FFD8F06F0074FF16
:100FC000D9F0D8C0DAF0D9C0DBF0DC6BDD6BDE6BBA
:100FD000DF6BE06BE16BD1C07EF0D2C07FF0DAC096
:100FE00080F0DBC081F0DCC082F0DDC083F0DEC0C9
:100FF00084F0DFC085F0E0C086F0E1C087F0E3EC6C
:1010000092F07EC0D1F07FC0D2F01200D351D96EE1
:10101000DA6A6F007BFFF6FF6F0077FFF7FF000EC5
:10102000F86E0800F550250AD8A415D0D351D96E12
:10103000DA6ADE2A000EDD22000E626F250E616F75
:10104000D1C063F0D2C064F0AFEC9CF0000ED26F60
:10105000010ED16F1200D351D96EDA6ADE2A000E6A
:10106000DD22000ED26F000ED16F1200D351D96E67
:10107000DA6A6F007BFFF6FF6F0077FFF7FF000E65
:10108000F86E0800F550616F626BD1C063F0D2C09A
:1010900064F0AFEC9CF0D351D96EDA6ADE2A000E10
:1010A000DD22D4D7000E0101BE6F000EBF6F92EC9F
:1010B000A3F0BD92BE94200E0001606F4C0E616FD4
:1010C000010E626F40ECA7F09E0E606F410E616FE3
:1010D000010E626F47ECA7F0080E606F330E616F70
:1010E000010E626F5CECA7F0000E3E01F16F000E86
:1010F0000001616F000E606FAEECA4F0000E616F36
:10110000000E606F95ECA4F01A0E606F4F0E616FC9
:10111000010E626F55ECA7F0D28ED28CFA5175ECAD
:10112000A7F094EC9BF00C0EF3ECA6F0BF0E0001C0
:10113000606F010E616F74ECA5F00009D8A4F6D7BA
:1011400091ECA6F0000E0101A36F040EA46FA00E97
:10115000A56FFF0EA66FB10EA76FFF0EA86FBD0E95
:10116000A96FFF0EAA6F20ECA1F0000E0001736FB3
:10117000040E746F29ECA4F0010E656F2C0E646FE1
:101180004EECA5F0000E0101A36F040EA46FC60E75
:10119000A56FFF0EA66FB10EA76FFF0EA86FBD0E55
:1011A000A96FFF0EAA6F20ECA1F0000E0001736F73
:1011B000000E746F040E756F000E62EC9FF0000E4F
:1011C0000101A36F040EA46FC90EA56FFF0EA66FD9
:1011D0001A0EA76FFE0EA86F20ECA1F0000E000102
:1011E000736F000E746F040E756F010E62EC9FF04A
:1011F000000E0001616F000E606F4DECA6F0310A29
:10120000D8B42ED0000E0001616F000E606F310E59
:10121000626F15ECA3F0000E0001616F010E606FAC
:10122000390E626F15ECA3F0000E0001616F020E23
:10123000606F350E626F15ECA3F0000E0001616F58
:10124000030E606F370E626F15ECA3F0000E000105
:10125000616F100E606F000E626F15ECA3F008D086
:10126000000E0001616F100E606F4DECA6F0346E41
:10127000070E0001656FD00E646F4EECA5F0000103
:10128000FB51D8B4FCD737507E0D830EF324D96EB2
:10129000050EF420DA6E840EDE5C030EDE58D8B044
:1012A00004D0000E52EC9CF015D037507E0D830E0A
:1012B000F324D96E050EF420DA6E090EDE5C070EFB
:1012C000DE58D8A004D0010E52EC9CF003D0020EE0
:1012D00052EC9CF037507E0D850EF324D96E050E2E
:1012E000F420DA6E010EDB5008E1320EDE5CD8B07D
:1012F00004D0030E52EC9CF016D037507E0D850EB4
:10130000F324D96E050EF420DA6E010EDB5004E1F1
:10131000970EDE5CD8A004D0040E52EC9CF003D0F3
:10132000050E52EC9CF0000EFB6FCABC04D00B0EF5
:1013300052EC9CF003D0090E52EC9CF0CAB804D0D9
:10134000070E52EC9CF003D0060E52EC9CF0FC51C0
:10135000D8B495D73450080DB20EF3243F6E020E68
:10136000F420406E37507E0D830EF324D96E050EA7
:10137000F420DA6E6F0078FFBCF16F0074FFBDF1EE
:10138000BCC160F0BDC161F0626B636B000E3AECF2
:1013900097F060C06EF061C06FF062C070F063C023
:1013A00071F06000FFF0D9FF600003F1DAFF6F0019
:1013B00078FF72F06F0078FF73F06F0078FF74F0C1
:1013C0006F0078FF75F095EC8DF06EC028F16FC05E
:1013D00029F170C02AF171C02BF137507E0D850EB6
:1013E000F324D96E050EF420DA6E6F0078FFBCF19D
:1013F0006F0074FFBDF1BCC160F0BDC161F0626BF4
:10140000636B000E3AEC97F060C06EF061C06FF055
:1014100062C070F063C071F020EE04F03F50D92636
:101420004050DA226F0078FF72F06F0078FF73F09F
:101430006F0078FF74F06F0078FF75F095EC8DF019
:101440006EC024F16FC025F170C026F171C027F184
:10145000280E0101A36FFE0EA46F34C0A5F1A66B88
:1014600035C0A7F1A86B37507E0DFD0EF324D96E61
:10147000050EF420DA6E6F0078FFA9F16F0074FF9B
:10148000AAF184ECA7F00101BC6FBC51AB6FAC6B4F
:1014900037507E0D830EF324D96E050EF420DA6EDC
:1014A0006F0078FFADF16F0074FFAEF128C1AFF1AE
:1014B00029C1B0F12AC1B1F12BC1B2F137507E0D73
:1014C000850EF324D96E050EF420DA6E6F0078FFD6
:1014D000B3F16F0074FFB4F124C1B5F125C1B6F1C9
:1014E00026C1B7F127C1B8F13AECA5F0BE2BBE0575
:1014F000BC6F030EBC17D8A4ECD0000EA36F040E73
:10150000A46F000EA56FFF0EA66F37507E0DFD0E67
:10151000F324D96E050EF420DA6E6F0078FFA7F180
:101520006F0074FFA8F137507E0D830EF324D96E3F
:10153000050EF420DA6E6F0078FFA9F16F0074FFDA
:10154000AAF137507E0D850EF324D96E050EF420D6
:10155000DA6E6F0078FFABF16F0074FFACF120EC36
:10156000A1F0000E0001736F000E746F040E756F12
:10157000010E62EC9FF0000E0101A36F040EA46F38
:10158000000EA56FFF0EA66F37507E0DC50EF3241B
:10159000D96E050EF420DA6E6F0078FFA7F16F00A8
:1015A00074FFA8F137507E0DD30EF324D96E050ECB
:1015B000F420DA6E6F0078FFA9F16F0074FFAAF1D2
:1015C00037507E0DD50EF324D96E050EF420DA6E59
:1015D0006F0078FFABF16F0074FFACF120ECA1F06D
:1015E000000E0001736F000E746F040E756F020E13
:1015F00062EC9FF0000E0101A36F040EA46F180EA1
:10160000A56FFF0EA66F84ECA7F00101BC6FBC5163
:10161000A76FA86B35C0A9F1AA6B34C0ABF1AC6B56
:1016200036C0ADF1AE6B20ECA1F0000E0001736F7F
:10163000000E746F040E756F030E62EC9FF0000EC7
:101640000101A36F040EA46F300EA56FFF0EA66FED
:1016500028C1A7F129C1A8F12AC1A9F12BC1AAF17A
:1016600024C1ABF125C1ACF126C1ADF127C1AEF16A
:1016700020ECA1F0000E0001736F000E746F040ED9
:10168000756F000E62EC9FF024D0362A0001FA51EB
:10169000FE5DD8B004D0000EFA6F000E366EFA2B45
:1016A000FA5175ECA7F008D0BA9A26D0FDC0FAF02E
:1016B0000001FA5175ECA7F0BD82F6D7000E356E29
:1016C000000E0001FA6F000E75ECA7F0BD92BA8A09
:1016D00013D035500101BC6FBD6BBD51000AD8A4B9
:1016E000EDD7BC51000AD8B4E9D7010AD8B4CDD798
:1016F000030AD8B4DBD7E2D7000E0001846F050ED1
:10170000856F46EC95F0000E0001FC6FCBB009D060
:10171000F92B040EF965B3D5352A000EF96FBE8496
:10172000AED5000EF96FBE94AAD5FF00FF00FF00F2
:10173000FF00FF00FF00FF00FF00000000000000AE
:101740000000000000000000000000000000000099
:101750000000000000000000000000000000000089
:101760000000000000000000000000000000000079
:101770000000000000000000000000000000000069
:101B2000000000000000000000007151800B7A6F7F
:101B3000715171257C6F70BF7C817C51D8B40DD000
:101B40007C29D8A408D0000E6E6F000E6F6F000EB7
:101B5000706F000E716F708F08D0000E6E6F000EE8
:101B60006F6F000E706F000E716F7551800B7A1BD6
:101B7000755175257B6F74BF7B817B51D8B40DD0B7
:101B80007B29D8A408D0000E726F000E736F000E70
:101B9000746F000E756F748F08D0000E726F000E98
:101BA000736F000E746F000E756F7B51D8B403D045
:101BB0007C51D8A409D0000E6E6F000E6F6F000E1E
:101BC000706F000E716F120074516E036F00CCFFC6
:101BD00085F06F00D0FF86F085517D6F7E6B7F6B47
:101BE000806B8651816F826B836B846B73516F0343
:101BF0006F00CCFF85F06F00D0FF86F085517D2708
:101C0000000E7E237F23802386518127000E8223AE
:101C100083238423725170036F00CCFF85F06F0023
:101C2000D0FF86F085517D27000E7E237F23802301
:101C300086518127000E8223832384237FC080F076
:101C40007EC07FF07DC07EF07D6B72516F036F00B0
:101C5000CCFF85F06F00D0FF86F085517D2786513F
:101C60007E23000E7F23000E802373516E036F00CE
:101C7000CCFF85F06F00D0FF86F085517D2786511F
:101C80007E23000E7F23000E80237FC080F07EC065
:101C90007FF07DC07EF07D6B72516E036F00CCFFD4
:101CA00085F06F00D0FF86F085517D2786517E2319
:101CB000000E7F23000E802374516F036F00CCFF52
:101CC00085F06F00D0FF86F08551812786518223F1
:101CD000000E8323000E8423735170036F00CCFF2A
:101CE00085F06F00D0FF86F08551812786518223D1
:101CF000000E8323000E8423745170036F00CCFF09
:101D000085F06F00D0FF86F08551766F8651776F32
:101D1000786B796B78C079F077C078F076C077F01F
:101D2000766B7651812777518223785183237951BD
:101D3000842380518127000E8223832384237FC044
:101D400080F07EC07FF07DC07EF07D6B7B517CC0DB
:101D500076F0776B7627000E7723820E7625856FD7
:101D6000FF0E7721866F0FD0D89081378237833767
:101D7000843780BF8181D8907D377E377F37803729
:101D80008507D8A0860783AFEFD7000E7B6F80AFA3
:101D900017D0FF0E7D15766FFF0E7E15776FFF0E45
:101DA0007F15786F7F0E8015796F765177117811D6
:101DB0007911D8B403D0010E7B6F02D081B1FBD76B
:101DC0007B51D8B41FD0010E8127000E82238323BC
:101DD000842384A117D081C076F082C077F083C0BD
:101DE00078F084C079F07935793378337733763386
:101DF00076C081F077C082F078C083F079C084F03B
:101E0000854B862B86BF0DD0865103E18529D8A04E
:101E100008D0000E816F000E826F800E836F7F0EE0
:101E200020D086BF05D086510EE18505D8B00BD0F5
:101E3000000E816F000E826F000E836F000E846FA4
:101E4000000E7A6F0FD085C07CF0FF0E8117FF0E59
:101E500082177F0E8317000E84177CB1838FD89072
:101E60007C31846F7A51841381C06EF082C06FF030
:101E700083C070F084C071F012006351800B6C6FEE
:101E8000635163256E6F62BF6E816E51D8B40DD001
:101E90006E29D8A408D0000E606F000E616F000E8E
:101EA000626F000E636F628F06D0000E606F000ECF
:101EB000616F000E626F000E636F6751800B6D6F74
:101EC0006C516D19D8A46C8D675167256D6F66BF15
:101ED0006D816D51D8B40DD06D29D8A408D0000EF5
:101EE000646F000E656F000E666F000E676F668F81
:101EF00006D0000E646F000E656F000E666F000E58
:101F0000676F6E516D5DD8B022D06CAD02D0800E7F
:101F10006C1B6EC06FF06DC06EF06FC06DF060C076
:101F20006FF064C060F06FC064F061C06FF065C0B6
:101F300061F06FC065F062C06FF066C062F06FC0A4
:101F400066F063C06FF067C063F06FC067F0000EAB
:101F50006F6F6E516DC068F0696B685F000E695BF2
:101F600069BF2CD0695104E11A0E685DD8A026D053
:101F70006051611162116311D8B402D0010E01D019
:101F8000000E6F6F000E606F000E616F000E626FCB
:101F9000000E636F6DC06EF015D06FA105D0D890A4
:101FA0006F3101096F6F02D0D8906F3360B16F8FBE
:101FB000633563336233613360336E2B6D516E5D15
:101FC000D8A0EBD76CBD28D06E51D8A409D0000E94
:101FD000606F000E616F000E626F000E636F120083
:101FE0006451602765516123665162236751632301
:101FF00063A171D06FA105D0D8906F3101096F6FC7
:1020000002D0D8906F3360B16F8F63356333623322
:10201000613360336E2B5FD06451605D65516159EF
:10202000665162596351800A686F6751800A685926
:10203000D8B025D06051645D686F61516559696F92
:10204000625166596A6F635167596B6FFF0E68255D
:10205000606FFF0E6921616FFF0E6A21626FFF0ED4
:102060006B21636F800E6C1B6F6D6F51D8A40FD006
:10207000010E6027000E61236223632308D06451A0
:10208000605F6551615B6651625B6751635B605184
:10209000611162116311D8A41CD06F51D8A419D05A
:1020A000000E606F000E616F000E626F000E636FB6
:1020B0001200D89060376137623763376FBF608135
:1020C0006FA102D0D88001D0D8906F376E51D8A4BC
:1020D0006E0762AFEED7000E6D6F6FAF0BD06FC0A3
:1020E00068F07F0E6817D8B403D0010E6D6F02D070
:1020F00060B1FBD76D51D8B420D0010E6027000E1F
:1021000061236223632363A118D060C068F061C0BB
:1021100069F062C06AF063C06BF06B356B336A3391
:102120006933683368C060F069C061F06AC062F00A
:102130006BC063F06E29D8A46E2B6E29D8B403D07F
:102140006E51D8A40DD0000E606F000E616F000EAE
:10215000626F000E636F6E51D8A402D0000E6C6FD8
:102160006EA102D0628F01D0629FD8906E31636FF2
:102170006CBF638F60C060F061C061F062C062F0EC
:1021800063C063F012006351800B706F635163256D
:10219000776F62BF77817751D8B40DD07729D8A4F3
:1021A00008D0000E606F000E616F000E626F000EAF
:1021B000636F628F06D0000E606F000E616F000EBD
:1021C000626F000E636F6751800B701B675167254C
:1021D000786F66BF78817851D8B40DD07829D8A4AB
:1021E00008D0000E646F000E656F000E666F000E63
:1021F000676F668F06D0000E646F000E656F000E6D
:10220000666F000E676F6451651166116711D8A47F
:1022100017D0000E606F000E616F000E626F000E2F
:10222000636F800E62137F0E63137051631360C07F
:1022300060F061C061F062C062F063C063F01200E0
:102240007751D8A409D0000E606F000E616F000EA8
:10225000626F000E636F1200785177C068F0696B8F
:10226000685F000E695B7F0E6825716F000E692143
:10227000726F60C06CF061C06DF062C06EF063C0E0
:102280006FF0000E606F000E616F000E626F000E47
:10229000636F000E736F000E746F000E756F000E8B
:1022A000766F000E786F28D07851D8B411D0D890BE
:1022B0006C376D376E376F37D8906037613762375C
:1022C000633776BF6081D890733774377537763748
:1022D00064516C5D65516D5966516E5967516F5906
:1022E000D8A009D0768D64516C5F65516D5B6651E5
:1022F0006E5B67516F5B782B190E7865D5D76C5183
:102300006D116E116F11D8B411D073810FD0D890A8
:10231000603761376237633776BF6081D890733733
:102320007437753776377107D8A0720762AFEFD769
:10233000000E786F76AF17D0FF0E7315686FFF0E23
:102340007415696FFF0E75156A6F7F0E76156B6FCA
:10235000685169116A116B11D8B403D0010E786FFE
:1023600002D060B1FBD77851D8B41FD0010E6027DE
:10237000000E61236223632363A117D060C068F05D
:1023800061C069F062C06AF063C06BF06B356B339B
:102390006A336933683368C060F069C061F06AC04D
:1023A00062F06BC063F0714B722B72BF10D0725130
:1023B00003E17129D8A00BD0000E726F7169000E75
:1023C000606F000E616F000E626F000E636F72BF70
:1023D00005D0725111E17105D8B00ED0000E726FA8
:1023E000000E716F000E606F000E616F000E626F65
:1023F000000E636F000E706F71C077F077A102D08E
:10240000628F01D0629FD8907731636F0ED7000E34
:10241000836F000E826F020E7825606F000E7921A7
:10242000616FF8ECA0F060516111D8A402D0030EE6
:102430001200020E7825606F000E7921616FF8ECB2
:10244000A0F0615103E1020E605DD8B07DD0020EB4
:1024500012008351050D6F00CCFF7AF06F00D0FFA2
:102460007BF06000E3F1D9FF6000E7F1DAFF6F0075
:1024700078FF7CF06F0074FF7DF07A517C25D96E77
:102480007B517D21DA6E6F0078FF64F06F0074FF7E
:1024900065F0020E7825666F000E7921676F835113
:1024A000050D6F00CCFF7EF06F00D0FF7FF0600065
:1024B000E3F1D9FF6000E7F1DAFF6F0078FF80F009
:1024C0006F0074FF81F07E518025D96E7F5181218C
:1024D000DA6E6F0078FF60F06F0074FF61F0F8EC67
:1024E000A0F060C068F061C069F090EC94F06451B5
:1024F0006511D8A428D078C076F079C077F08351E0
:10250000050D6000E3F1D9FF6000E7F1DAFF6F002D
:1025100078FF7AF06F0074FF7BF0F3507A27F45065
:102520007B23020E7A25D96E000E7B21DA6E01D84C
:1025300028D00500FA6EDE50FD6EDE50FE6EDE50D5
:10254000FF6EFA501200832B8351050D6000E3F1FA
:10255000D9FF6000E7F1DAFF6F0078FF7AF06F00D3
:1025600074FF7BF0F3507A27F4507B23020E7A2518
:10257000D96E000E7B21DA6EDE50DE10DE10D8A49C
:1025800068D700018351050D6000E3F1D9FF6000B9
:10259000E7F1DAFF6F0078FF7AF06F0074FF7BF0ED
:1025A000F3507A27F4507B23020E7A25D96E000E61
:1025B0007B21DA6EDE50DE10DE10D8A402D0010ED0
:1025C000826F82511200F7AF2D92F7BF05D0F751FD
:1025D00008E1F605D8B005D0000E916F010E906F9E
:1025E00004D0F6C090F0F7C091F0F4C092F0F5C0BE
:1025F00093F080C094F081C095F082C096F083C0C3
:1026000097F084C098F085C099F086C09AF087C092
:102610009BF0000E9D6F4F0E9C6F000E0101926F9C
:1026200076D09C07D8A09D07430E9C25D96E010E3D
:102630009D21DA6E94C060F095C061F096C062F0A2
:1026400097C063F098C064F099C065F09AC066F0D6
:102650009BC067F00A0E686F000E696F000E6A6F0C
:10266000000E6B6F000E6C6F000E6D6F000E6E6FC4
:10267000000E6F6F0AEC9DF060C088F061C089F0B9
:1026800062C08AF063C08BF064C08CF065C08DF0CE
:1026900066C08EF067C08FF08851300FDF6E9007F4
:1026A000D8A091079207D8A0930794C060F095C076
:1026B00061F096C062F097C063F098C064F099C072
:1026C00065F09AC066F09BC067F00A0E686F000E56
:1026D000696F000E6A6F000E6B6F000E6C6F000E5C
:1026E0006D6F000E6E6F000E6F6F60EC9AF060C041
:1026F00094F061C095F062C096F063C097F064C03A
:1027000098F065C099F066C09AF067C09BF0000130
:102710009C519D11D8B41AD09451951196119711CE
:10272000981199119A119B11D8A47BD791BF05D00C
:10273000915102E19005D8B074D793BF07D093515F
:1027400003E19205D8A002D02DB26BD77EC073F002
:102750007FC074F0430E9C25756F010E9D21766F2E
:1027600092C077F093C078F0B2EC9DF073C07EF029
:1027700074C07FF0120018C189F019C18AF01AC123
:102780008BF01BC18CF079C089F07AC08AF07BC0D5
:102790008BF07CC08CF0810E7D6FFF0E7E6F89C048
:1027A0007FF08AC080F08BC081F08CC082F0180E60
:1027B00005D0D8908233813380337F33E82EF9D728
:1027C0007F517D25876F000E7E21886F88BF0FD0D7
:1027D000885104E1170E875DD8A009D079C079F03F
:1027E0007AC07AF07BC07BF07CC07CF0120088BF9E
:1027F0005CD087C07DF0FF0E7E6FFF0E7F6F7F0E77
:10280000806F000E816F7D6701D007D081358133E5
:1028100080337F337E337D2FF6D77EC083F07FC039
:1028200084F080C085F081C086F000018351891555
:102830007D6F84518A157E6F85518B157F6F865110
:102840008C15806F7D517E117F118011D8B4C6D751
:1028500089C07DF08AC07EF08BC07FF08CC080F094
:10286000200E05D0D89080337F337E337D33E82E21
:10287000F9D77D51D8B408D08351892784518A2350
:1028800085518B2386518C23831D7D6F841D7E6F24
:10289000851D7F6F861D806F7D5189177E518A1738
:1028A0007F518B1780518C1732D089C07DF08AC040
:1028B0007EF08BC07FF08CC080F0200E05D0D890C9
:1028C00080337F337E337D33E82EF9D77D6708D0A0
:1028D000000E896F000E8A6F000E8B6F000E16D0EF
:1028E000D89089357D6F8A357E6F8B357F6F8C35BB
:1028F000806F7D517E117F118011D8B408D0000EF9
:10290000896F000E8A6F800E8B6FBF0E8C6F89C02F
:1029100079F08AC07AF08BC07BF08CC07CF012001A
:1029200064C06CF065C06DF066C06EF067C06FF09B
:102930006807D8A06907682910E16929D8A40DD0D3
:10294000000E656F000E646F120000016C4B6D2B62
:102950006E4B6F2B6807D8A069076000B3F1F6FFD4
:102960006000B7F1F7FF000EF86E1F0EF76403D09A
:102970000800F55007D06F00DBFFE1FF6F00DFFFBD
:10298000E2FFE7500009D8B44CD06000BBF1F6FF7D
:102990006000BFF1F7FF000EF86E1F0EF76403D062
:1029A0000800F55007D06F00DBFFE1FF6F00DFFF8D
:1029B000E2FFE7500009D8B434D000016851691132
:1029C000D8B42FD06000BBF1F6FF6000BFF1F7FF75
:1029D000000EF86E1F0EF76403D00800F55007D004
:1029E0006F00DBFFE1FF6F00DFFFE2FFE750000158
:1029F0006A6F6000B3F1F6FF6000B7F1F7FF000EF9
:102A0000F86E1F0EF76403D00800F55007D06F0072
:102A1000DBFFE1FF6F00DFFFE2FFE7506A19D8B488
:102A200094D76000B3F1F6FF6000B7F1F7FF000E36
:102A3000F86E1F0EF76403D00800F55007D06F0042
:102A4000DBFFE1FF6F00DFFFE2FFE75000016A6F8D
:102A50006000BBF1F6FF6000BFF1F7FF000EF86EFB
:102A60001F0EF76403D00800F55007D06F00DBFF9E
:102A7000E1FF6F00DFFFE2FFE75000016B6F6B517A
:102A80006A5D646F656BD8A065071200000E8B6FDE
:102A90008B0E606F616B74ECA5F00009D8B4120066
:102AA00088D020EE82F08451D9268551DA227E0E1C
:102AB000DF640CD020EE82F08451D9268551DA22D1
:102AC000DF50866F8651896F8A6B0ED020EE82F0C0
:102AD0008451D9268551DA22DF50866F010E862572
:102AE000896F8A6B000E8A2389518425866F8A51EB
:102AF0008521876F020E8625D96E000E8721DA6E3A
:102B0000000EDF6E900E766FFE0E776F020E786FFE
:102B100001ECA7F084C078F085C079F007EC92F062
:102B2000F86F20EE82F08451D9268551DA22000E0A
:102B3000DF6E020E8425606F000E8521616F000E2E
:102B4000636F000E626F000E656F800E646FEFECB6
:102B500095F0120020EE82F08451D9268551DA22B8
:102B60007F0EDF60120020EE82F08451D92685515D
:102B7000DA22DF50866F86518425876F000E85210B
:102B8000886F020E8725D96E000E8821DA6E6000EC
:102B90002FF2DFFF20EE82F08451D9268551DA2210
:102BA000DF2A8B0E766F776B010E786F01ECA7F042
:102BB000120000018B51866F876B8751000AD8A4E1
:102BC000C9D786510D0AD8B46CD7160AD8B41200EA
:102BD000650AD8B41200010AD8B41200BBD760C08D
:102BE0006AF061C06BF064516511D8B412006000E6
:102BF000ABF1D9FF6000AFF1DAFF60008BF1DFFFCE
:102C000064516A25666F65516B21676FFF0E6625FB
:102C1000D96EFF0E6721DA6E60008BF1DFFF655120
:102C200004E1030E645DD8A0120020EE01F06A51A9
:102C3000D9266B51DA2260008BF1DFFF20EE02F023
:102C40006A51D9266B51DA2260008BF1DFFF6451A3
:102C50006A25666F65516B21676FFE0E6625D96E1A
:102C6000FF0E6721DA6E60008BF1DFFF64516A2589
:102C7000666F65516B21676FFD0E6625D96EFF0E7D
:102C80006721DA6E60008BF1DFFF655104E1070E0A
:102C9000645DD8A0120020EE03F06A51D9266B5172
:102CA000DA2260008BF1DFFF64516A25666F65519F
:102CB0006B21676FFC0E6625D96EFF0E6721DA6EF9
:102CC00060008BF1DFFF655104E1090E645DD8A05F
:102CD00012006AC066F06BC067F0661F671F664B24
:102CE000672B030E6615686F696B68516A27695117
:102CF0006B236851645F6951655BFC0E6417FF0EBE
:102D000065170ED06000ABF1D9FF6000AFF1DAFFBC
:102D100060008BF1DFFF6407D8A065076A4B6B2B5F
:102D200064516511D8B41200EDD720EEC0F110EE59
:102D30006FF0060E6F006FFFE3FFE806FBE26CC06A
:102D40007AF06DC07BF07A517B11D8A403D06F0E5E
:102D50007A6F7B6B7AC060F07BC061F0F8ECA0F01A
:102D600060C07EF061C07FF0F6C07CF0F7C07DF0FF
:102D70007DBF0ED07E517C5D7D51800A6E6F7F518C
:102D8000800A6E59D8B004D07CC07EF07DC07FF040
:102D90007EC07CF07FC07DF0F4C078F0F5C079F0A3
:102DA0002DA00DD016D0000E626F200E616F6AC08C
:102DB00063F06BC064F0AFEC9CF07E4B7F2B7851DE
:102DC0007E5D7F51800A6E6F7951800A6E59D8A05E
:102DD000EAD7000E776F000E766F24D06000EBF11B
:102DE000F6FF6000EFF1F7FF000EF86E1F0EF764BC
:102DF00003D00800F55007D06F00DBFFE1FF6F0044
:102E0000DFFFE2FFE75000016E6F6E51616F626B92
:102E10006AC063F06BC064F0AFEC9CF07A4B7B2B24
:102E2000764B772B7C51765D7751800A6E6F7D51A2
:102E3000800A6E59D8A0D2D72DB00DD016D0000E72
:102E4000626F200E616F6AC063F06BC064F0AFEC1C
:102E50009CF07E4B7F2B78517E5D7F51800A6E6F98
:102E60007951800A6E59D8A0EAD77EC06AF07FC037
:102E70006BF01200686F00016851D8A463AF1AD0DC
:102E800060C064F061C065F062C066F063C067F066
:102E9000641F651F661F671F642B000E6523662372
:102EA000672364C06AF065C06BF066C06CF067C0F1
:102EB0006DF008D060C06AF061C06BF062C06CF069
:102EC00063C06DF06051611162116311D8A409D023
:102ED000000E606F000E616F000E626F000E636F78
:102EE0001200960E696F06D0692BD8906D336C3343
:102EF0006B336A33000E6A15646F000E6B15656FD5
:102F0000000E6C15666FFE0E6D15676F64516511CE
:102F100066116711D8B40DD0E7D7692B010E6A2767
:102F2000000E6B236C236D23D8906D336C336B33A1
:102F30006A33000E6A15646F000E6B15656F000E24
:102F40006C15666FFF0E6D15676F64516511661124
:102F50006711D8B407D0E1D76907D8906A376B37C3
:102F60006C376D376CBF03D0020E6961F5D769A16C
:102F70006C9FD890693369C064F0656B666B676B52
:102F800064C067F0666B656B646B64516A1365516E
:102F90006B1366516C1367516D136851D8A463AFFE
:102FA00001D06D8F6AC060F06BC061F06CC062F0E0
:102FB0006DC063F01200000E6F6F000E6E6F000E9A
:102FC0006D6F000E6C6F02D0664B672B60009BF13B
:102FD000F6FF60009FF1F7FF000EF86E0800F55055
:102FE000200AD8B4F1D7F70E686FFF0E696F600042
:102FF0009BF1F6FF60009FF1F7FF000EF86E0800EE
:10300000F5506A6F6B6B68516A2769516B236B517E
:103010000CE1050E6A5DD8B008D0D6D7000E6D6FF2
:10302000010E6C6F664B672B36D060009BF1F6FF8C
:1030300060009FF1F7FF000EF86E0800F550686F12
:10304000696B6951000AD8A426D068512B0AD8B4FC
:10305000E9D7060AD8B4E2D71ED06EC060F06FC0C0
:1030600061F0000E636F0A0E626F25ECA5F0600040
:103070009BF1F6FF60009FF1F7FF000EF86E08006D
:10308000F550605F000E615B300E60256E6F000EC4
:1030900061216F6FC7D7D00E686FFF0E696F600038
:1030A0009BF1F6FF60009FF1F7FF000EF86E08003D
:1030B000F5506A6F6B6B68516A2769516B236B51CE
:1030C00004E10A0E6A5DD8A0C8D76C516D11D8A46E
:1030D0000DD06EC068F06FC069F0681F691F684B43
:1030E000692B68C066F069C067F012006EC066F0B8
:1030F0006FC067F012002A0EF66E170EF76E010E03
:10310000F86E05EE43F111EE00F009006F00D7FFF5
:10311000EEFFE550E150F9E1E250F7E1480EF66EBE
:10312000400EF76E010EF86E00EE80F210EE5AF0CF
:1031300009006F00D7FFEEFFE550E150F9E1DE0E28
:10314000F66E4E0EF76E010EF86E00EEC0F110EE48
:103150000BF009006F00D7FFEEFFE550E150F9E1F9
:10316000200EF66E4F0EF76E010EF86E09006F001E
:10317000D4FFFDF009006F00D4FFFEF01E0EF66EC6
:103180004F0EF76E010EF86E09006F00D4FF3FF08E
:1031900009006F00D4FF40F001EE83F113EEC0F39D
:1031A000EE6AE550E150FCE1E250FAE101EE00F197
:1031B000830EEE6AE806FDE101EE00F010EEFFF08E
:1031C000EE6AE550E150FCE1E250FAE100EE00F376
:1031D000830EEE6AE806FDE100EE00F2800EEE6A74
:1031E000E806FDE100EE00F19D0EEE6AE806FDE165
:1031F00000EEF4F0090EEE6AE806FDE100EE21F0C3
:103200001E0EEE6AE806FDE1080ED56E000ED66EC3
:10321000000ED76E000152EF88F039019397C20E6D
:103220000001606F3A0E616F010E626F1DECA7F036
:10323000390193991C0E0001606F4A0E616F010EF7
:10324000626F16ECA7F03901939BF40E0001606FDA
:103250004E0E616F010E626F2BECA7F03901939D4A
:10326000140E0001606F4F0E616F010E626F0FEC64
:10327000A7F0000E3D01EC6F000EED6F000EEE6F3B
:10328000000EEF6F000EF06F000EF16FB00EF26FD8
:10329000900EF36F000EF46F8A0EF56F000EF66F4E
:1032A000000EF76F000EF86F000EF96F000EFA6F48
:1032B000240E0001606F4F0E616F010E626F32ECE1
:1032C000A7F0220E606F4F0E616F010E626F24EC4B
:1032D000A7F00E0E606F4F0E616F010E626F39EC3A
:1032E000A7F0000E386E000E3E6E000E3D6E400ED2
:1032F0003C6E000E3B6E000E3A6E000E396E3901C8
:103300009387938B938D1200D6ECA6F03350020D69
:103310006F00CCFF05F06F00D0FF06F037507E0D38
:10332000830E076E050E086EF3500726F450082230
:1033300005500724D96E06500820DA6E600007F0A9
:10334000DEFF60000BF0DDFFD6ECA6F03350020D7F
:103350006F00CCFF05F06F00D0FF06F036507E0DF9
:10336000830E076E050E086EF3500726F4500822F0
:1033700005500724D96E06500820DA6E600007F069
:10338000DEFF60000BF0DDFF14D0010E05D03D0E16
:1033900003D0280E01D0290E336E23D0000E336ED9
:1033A0003504D8A4362A1F0E36641BD0000E366EA4
:1033B00018D03350056E066A0650000AD8A4EED71E
:1033C0000550000AD8B4E1D7010AD8B4E0D7290AD9
:1033D000D8B4E1D7010AD8B4E1D7140AD8B4D9D700
:1033E000DDD76000CFF0F1FE010E0001FB6F12008F
:1033F000000E87158F6F000E8815906F800E89154F
:10340000916F7F0E8A15926F8F51901191119211C9
:10341000D8A408D0000E876F000E886F000E896F49
:10342000000E8A6F000E8B158F6F000E8C15906F3B
:10343000800E8D15916F7F0E8E15926F8F519011AA
:1034400091119211D8A408D0000E8B6F000E8C6FD2
:10345000000E8D6F000E8E6F8AAF09D0876D881FAA
:10346000D8B0882B891FD8B0892B800E8A578EAF91
:1034700009D08B6D8C1FD8B08C2B8D1FD8B08D2BA5
:10348000800E8E57000E871B000E881B000E891BB6
:10349000800E8A1B000E8B1B000E8C1B000E8D1BDA
:1034A000800E8E1B8B51875D8C5188598D518959A7
:1034B0008E518A59D8B002D0D8901200D88012000C
:1034C00020EE70F0070EDE6AE806FDE26851691131
:1034D0006A116B116C116D116E116F11D8B446D059
:1034E000010E786F0AD0D890683769376A376B3722
:1034F0006C376D376E376F37782B6FAFF4D7D89046
:103500007037713772377337743775377637773767
:103510006851605D695161596A5162596B516359D3
:103520006C5164596D5165596E5166596F516759A7
:10353000D8A011D06851605F6951615B6A51625BCC
:103540006B51635B6C51645B6D51655B6E51665B87
:103550006F51675B7081D8906F336E336D336C330E
:103560006B336A3369336833782FC9D770C060F022
:1035700071C061F072C062F073C063F074C064F037
:1035800075C065F076C066F077C067F01200000E77
:10359000BE6E110EBD6E200EBA6E000EBF6E000E16
:1035A000BB6E070EBC6E020EC66E0B0EC76EDF0E34
:1035B000C26EC368900EC46E080EC56E080E3A0146
:1035C000706F000E606FFE0E506F020E806F0B0E5C
:1035D000906F8F0E406F000E716F000E916F000E96
:1035E000816F010E516F500E416F000E616F000E22
:1035F0005A6F000E5B6F000E6A6F000E6B6F000E4D
:103600007A6F000E7B6F000E826F000E926F000EBD
:10361000426F000E526F000E626F000E726F4369B0
:10362000536963697369070E836F936944695469C9
:10363000646974690F0E846F94690E0E1A6F130E0D
:10364000DE6F1E0E136F1F0E156F130E166F170E03
:10365000E56F0D0E2A6F140EDF6F12001CC16AF0A9
:103660001DC16BF01EC16CF01FC16DF060C06AF02F
:1036700061C06BF062C06CF063C06DF06AC064F052
:103680006BC065F06CC066F06DC067F0180E05D0B9
:10369000D8906733663365336433E82EF9D76451C5
:1036A000686F696B68516911D8A419D0D8906A35D0
:1036B000646F6B35656F6C35666F6D35676F645120
:1036C000651166116711D8A405D0000E616F020E56
:1036D000606F1200000E616F030E606F12006829A8
:1036E0006911D8A41CD06AC064F06BC065F06CC0CE
:1036F00066F06DC067F0090ED8906437653766379D
:103700006737E82EF9D76451651166116711D8A49F
:1037100002D0010E01D0000E606F616B1200000E2E
:10372000616F040E606F1200400E0101066F030E00
:10373000076F06C16CF007C16DF000ECA6F03D010B
:10374000149F200E156F030E166F040E196F020ED4
:103750001C6F830E146F148F300E0001606F570EB4
:10376000616F050E626F000E636FE2ECA1F0460E12
:1037700035ECA3F0410E54ECA3F0500E606F000E38
:10378000616F000E626F000E636FE2ECA1F0530EEA
:1037900054ECA3F0020E62ECA5F0500E606F000E28
:1037A000616F000E626F000E636FE2ECA1F0510ECC
:1037B00035ECA3F03D01149F020E166F148F1A937F
:1037C0003F0E3B01FD17FD9BFD51F90B0209FD6FFB
:1037D000E70EFD17FD81400EF96F030EFA6F000E24
:1037E000FB6FFC9B3D011A83120062356335696FE4
:1037F0006951D8A409D0000E606F000E616F000EF1
:10380000626F000E636F120060C064F061C065F00B
:1038100062C066F063C067F0200E05D0D8906733B1
:10382000663365336433E82EF9D76451686F628F6D
:10383000FF0E6017FF0E6117FF0E6217000E631771
:10384000960E695F69AF0DD06951800A970FD8A0B5
:10385000D2D7D8906333623361336033693FF9D78D
:103860000DD01F0E696507D0C6D7D8906037613775
:103870006237633769076951D8A4F7D76851D8B45C
:1038800008D0631F621F611F606D000E61236223F9
:10389000632360C060F061C061F062C062F063C029
:1038A00063F01200206E2DD0BD98BD9A1200BD9815
:1038B000BD8A1200BD88BD9A1200BD9CBD9E12003B
:1038C000BD9CBD8E1200BD8CBD9E1200BF98BF9ADC
:1038D0001200BF98BF8A1200BF88BF9A1200BF9C17
:1038E000BF9E1200BF9CBF8E1200BF8CBF9E1200F5
:1038F000BD98BD9ABD9CBD9EBF98BF9ABF9CBF9E00
:10390000120020500001606F616B6151000AD8A461
:10391000EFD76051000AD8B4C7D7010AD8B4CAD7C4
:10392000030AD8B4C4D7010AD8B4C7D7070AD8B491
:10393000CAD7010AD8B4C4D7030AD8B4C7D7010A72
:10394000D8B4CAD70F0AD8B4C4D7010AD8B4C7D7D5
:10395000030AD8B4CAD7010AD8B4C4D7C9D76351A7
:103960006411D8B404D063516411D8A404D0615157
:1039700063ECA7F04AD020EE09F06351D9266451D8
:10398000DA22DE50DE10D8B416D020EE09F06351F2
:10399000D9266451DA2210EE03F06351E126645116
:1039A000E222DE50E65CE650800A696FDE50800A53
:1039B0006959D8B02AD020EE03F06351D92664515A
:1039C000DA226F0078FF65F06F0074FF66F0600028
:1039D0008FF1D9FF600093F1DAFF6F0078FF67F095
:1039E0006F0074FF68F065516725D96E66516821D4
:1039F000DA6E600087F1DFFF20EE03F06351D92615
:103A00006451DA22DE2A000EDD2261C061F000017D
:103A1000626B1200685169116A116B116C116D11A2
:103A20006E116F11D8B43CD0010E206E0AD0D89020
:103A3000683769376A376B376C376D376E376F3772
:103A4000202A6FAFF4D76851605D695161596A519E
:103A500062596B5163596C5164596D5165596E517E
:103A600066596F516759D8A010D06851605F69518D
:103A7000615B6A51625B6B51635B6C51645B6D515E
:103A8000655B6E51665B6F51675BD8906F336E33C9
:103A90006D336C336B336A3369336833202ED3D77D
:103AA00060C060F061C061F062C062F063C063F04A
:103AB00064C064F065C065F066C066F067C067F01A
:103AC0001200000E3B24D96EDA6A020EDA22000ED2
:103AD000DF6E3D01F9A715D0000E3B24D96EDA6ADE
:103AE000020EDA220201DF8201D80BD00500FA6E45
:103AF00001013251FD6E3351FE6E3451FF6EFA50AA
:103B000012003D01F9A315D0000E3B24D96EDA6AEC
:103B1000020EDA220201DF8401D80BD00500FA6E12
:103B200001012F51FD6E3051FE6E3151FF6EFA5082
:103B30001200000E3B24D96EDA6A020EDA22DF5040
:103B4000D8B40DD001D812000500FA6E01012C5135
:103B5000FD6E2D51FE6E2E51FF6EFA501200EFECED
:103B6000A5F012002DA00AD075C06AF076C06BF0E7
:103B700073C06CF074C06DF02DEC9FF078BF05D071
:103B800077C07CF078C07DF004D0000E7D6F000E11
:103B90007C6F000E7B6F000E7A6F0CD0000E626F90
:103BA000200E616F73C063F074C064F0AFEC9CF0E2
:103BB0007A4B7B2B7C517A5D7B51800A796F7D51EA
:103BC000800A7959D8A0EAD72DB00AD075C06AF01A
:103BD00076C06BF073C06CF074C06DF02DEC9FF08C
:103BE00075C060F076C061F0F8ECA0F07C51602503
:103BF000736F7D516121746F1200000E6015686F44
:103C0000000E6115696F800E62156A6F7F0E631575
:103C10006B6F685169116A116B11D8A408D0000E3E
:103C2000606F000E616F000E626F000E636F000E1A
:103C30006415686F000E6515696F800E66156A6FF2
:103C40007F0E67156B6F685169116A116B11D8A4EB
:103C500008D0000E646F000E656F000E666F000ED8
:103C6000676F645160190AE16551611907E1665196
:103C7000621904E167516319D8B402D0D8901200D8
:103C8000D8801200000E656F63AF06D0626D631FAF
:103C9000D8B0632B010E656F61AF06D0606D611FF8
:103CA000D8B0612B010E651B000E676F000E666FAA
:103CB00062516311D8B41CD0010E646F04D0D89047
:103CC00062376337642B63AFFAD7D89066376737AC
:103CD0006251605D63516159D8A005D06251605F47
:103CE0006351615B6681D89063336233642FEDD793
:103CF0006551D8B404D0666D671FD8B0672B66C015
:103D000060F067C061F01200000E3E01DE6F000E31
:103D1000DF6F000EE06F000EE16F000EE46F000E2B
:103D2000E56F000EEA6F000EEC6F000EF16F100EE3
:103D3000F36F000EF46F000EF56F000EF66F000EBD
:103D4000F76F000EF96F000EFA6F200EFB6F000E7A
:103D5000FC6F020EFD6F070EFE6F1F0EFF6F840ECD
:103D6000F86F3901A1959185260E0001606F4F0E05
:103D7000616F010E626F5CECA7F01200000E656FC0
:103D800061AF06D0606D611FD8B0612B010E656F09
:103D900063AF04D0626D631FD8B0632B62516311AF
:103DA000D8B418D0010E646F04D0D890623763374E
:103DB000642B63AFFAD76251605D63516159D8A03B
:103DC00004D06251605F6351615BD89063336233AA
:103DD000642FF1D76551D8B404D0606D611FD8B09D
:103DE000612B60C060F061C061F0120070C060F0D3
:103DF00071C061F0F8ECA0F06051726F7EECA7F03A
:103E000006C16CF007C16DF0000E00016E6FA5ECED
:103E1000A0F0BC94400E72650AD020EE40F07051C4
:103E2000D9267151DA22000EDF6E400E726F3B010F
:103E3000FC9F6000CBF1F7FBF86BFC8F06C16BF0C9
:103E400007C16CF070C06DF071C06EF072C06FF0A1
:103E500051ECA0F081ECA7F01200000E726F000E82
:103E6000716F0BD070C061F0626B6CC063F06DC09D
:103E700064F0AFEC9CF0714B722B71516A256E6F40
:103E800072516B216F6F6000BBF1F6FF6000BFF1F4
:103E9000F7FF000EF86E1F0EF76403D00800F55010
:103EA00007D06F00DBFFE1FF6F00DFFFE2FFE750AD
:103EB0000001706F7051D8A4D5D771C06AF072C07C
:103EC0006BF01200786F09D0400E05D0140E03D0AD
:103ED000540E01D0000E796F16D000017851766F24
:103EE000776B7751000AD8A4F5D77651000AD8B479
:103EF000F1D7010AD8B4E8D7030AD8B4E7D7010A42
:103F0000D8B4E6D7E7D7450E20ECA6F000017951EA
:103F10007325F5ECA2F0FAECA6F074C070F075C051
:103F200071F0F6EC9EF0120062C066F063C067F0BC
:103F300060C068F061C069F000016651646F67514C
:103F4000656F664B672B600093F1F6FF600097F199
:103F5000F7FF000EF86E6000A3F1D9FF6000A7F133
:103F6000DAFF684B692B1F0EF76403D00800F55089
:103F700007D06F00DBFFE1FF6F00DFFFE2FFE750DC
:103F8000DF6EDF50D8B41200D7D7930E3B01F96F24
:103F9000010EFA6F000EFB6F3D0EF16F110EF06F08
:103FA000030EFD6F000EF86F010EF76F000EEF6F3E
:103FB000010EEE6F150EFF6F000EFE6F3901A2931A
:103FC000A291A297A29592939281300E0001606F08
:103FD0004F0E616F010E626F55ECA7F03901929799
:103FE0009295C00E3B01FC6F12009FC1F0F0A0C182
:103FF000F1F0000E426F000E416F14D09DC1D1F060
:104000009EC1D2F0F00E0001D36FA1C1D4F0A2C1C5
:10401000D5F0DCEC84F0D151010141270001D251EF
:10402000010142236000C3F3F6FF6000C7F3F7FF0E
:10403000000EF86E0800F5500009D8A4DFD741C182
:104040009DF142C19EF11200F5FF5E4C01F8FFEEBA
:104050004C01EFFFD44D01F2FFC24D01FBFF964D25
:1040600001E9FF804D01ECFF6A4D01E3FF9A4B012E
:10407000E6FF784B0100000000009775CF3E6F12FD
:10408000833B295C4F3F6F12833B9775CF3E6F1286
:10409000833B9775CF3E6F12833B9775CF3E6F1270
:1040A000833B000120EE42F06B51D9266C51DA229D
:1040B000400EDF6012006BC060F06CC061F06DC03C
:1040C00062F06EC063F06FC064F0656B47ECA1F006
:1040D00020EE40F06B51D9266C51DA226000BFF11E
:1040E000DFFF20EE42F06B51D9266C51DA226000DE
:1040F000BFF1DFFF1200000120EE42F06051D9262F
:104100006151DA22400EDF60120020EE40F0605173
:10411000D9266151DA22DF50206E20506025D96EF9
:10412000000E6121DA6E60008BF1DFFF20EE40F0BF
:104130006051D9266151DA22DF2A20EE42F0605127
:10414000D9266151DA22DF2A120020EE42F06C51AA
:10415000D9266D51DA22000EDF6E20EE40F06C5150
:10416000D9266D51DA22000EDF6E20EE41F06C513F
:10417000D9266D51DA22000EDF6E6E51D8B41200CE
:104180006CC060F06DC061F0000E636F000E626F76
:10419000000E656F400E646FEFEC95F01200000E9C
:1041A000116E000E106ED8901034D96E1134DA6E84
:1041B0000C0ED926010EDA22DE50DE10D8B40CD057
:1041C000D8901034D96E1134DA6E0C0ED926010E47
:1041D000DA22DE06000EDD5A104A112A11BEE3D79C
:1041E000115005E1060E105CD8B01200DCD71200A9
:1041F00060C062F061C063F003D00001604B612BCE
:10420000600083F1F6FF600087F1F7FF000EF86EA3
:104210001F0EF76403D00800F55007D06F00DBFFD6
:10422000E1FF6F00DFFFE2FFE7500009D8A4E5D708
:1042300000016251605D606F63516159616F1200EE
:10424000A70EAF6F010EB06FA3C1B1F1A4C1B2F15F
:10425000000EB56F000EB46F000EBB6F000EBA6F8C
:10426000B10E9D6F010E9E6FA5C19FF1A6C1A0F179
:10427000AF0EA16F010EA26FF5EC9FF0B451A32514
:10428000D96EB551A421DA6E000EDF6E120062C045
:1042900069F063C06AF060C067F061C068F015D073
:1042A0006000A7F1D9FF6000ABF1DAFFDF50666F65
:1042B000694B6A2B60009FF1D9FF6000A3F1DAFF20
:1042C00060009BF1DFFF674B682B6407D8A0650790
:1042D0006429E6E16529D8B41200E2D7000E9B6E8E
:1042E000000E9C6E020E9D6E830E996E000E986EEF
:1042F0003901A89D98506F0064FE63F00001646B63
:1043000063C064F0636B63112F6E6451306E3901CA
:10431000988D2E0E0001606F4F0E616F010E626F5F
:0A43200047ECA7F0010E9A6E1200A0
:10432C006F00E8FF12F06F00ECFF13F03901A89D4D
:10433C002FC00EF030C00FF0AAECA5F001013851DF
:10434C0039113A11D8B40CD001D80AD00500FA6E44
:10435C003851FD6E3951FE6E3A51FF6EFA50120013
:10436C0060004FF0FBFF60004BF0FAFF1100D28AA7
:10437C00000ED2BE010E206ED29E550ED46EAA0E29
:10438C00D46ED490000ED76E000ED66E080ED56E7D
:10439C00550ED46EAA0ED46ED48020B002D0D29E0C
:1043AC0001D0D28E39018281838D8399838B83973F
:1043BC008981888D81851200000E0101206F000E0D
:1043CC00216F000E226F000E236F00F00400010E0F
:1043DC0001012027000E2123222323232051000139
:1043EC00605D01012151000161590101225100015F
:1043FC0062590101235100016359D8A01200E5D77D
:10440C006F0060FF1AF06F00E8FF1BF06F00ECFF0D
:10441C001CF0275028102910D8B40CD001D80AD081
:10442C000500FA6E2750FD6E2850FE6E2950FF6E67
:10443C00FA501200600073F0FBFF60006FF0FAFF9F
:10444C0060006BF0D8FF11006F0060FF1DF06F0073
:10445C00E8FF1EF06F00ECFF1FF02A502B102C1001
:10446C00D8B40CD001D80AD00500FA6E2A50FD6ED3
:10447C002B50FE6E2C50FF6EFA50120060007FF035
:10448C00FBFF60007BF0FAFF600077F0D8FF1100B3
:10449C00000E8B1B000E8C1B000E8D1B800E8E1BBA
:1044AC0087C060F088C061F089C062F08AC063F098
:1044BC008BC064F08CC065F08DC066F08EC067F068
:1044CC003DEC8FF060C087F061C088F062C089F06D
:1044DC0063C08AF0120076C060F077C061F0000E05
:1044EC00636F000E626F000E656F830E646FEFECEE
:1044FC0095F06000DBF1D9FF6000DFF1DAFF6000BE
:10450C00E3F1DEFF6000E7F1DDFFFE0E736FFD0EE1
:10451C00746F29ECA4F012006F00E8FF09F06F0033
:10452C00ECFF0AF03901A19501013E513F114011F8
:10453C00D8B40CD001D80AD00500FA6E3E51FD6EED
:10454C003F51FE6E4051FF6EFA50120060002BF08E
:0A455C00FBFF600027F0FAFF1100DA
:104568006F00E8FF14F06F00ECFF15F03901A2911D
:104578000101355136113711D8B40CD001D80AD001
:104588000500FA6E3551FD6E3651FE6E3751FF6EDD
:10459800FA501200600057F0FBFF600053F0FAFF7A
:1045A8001100010E206E200E000160196111D8B4AF
:1045B80014D0F70E626FFF0E636F60C064F061C0C5
:1045C80065F06251642763516523655104E1050E66
:1045D800645DD8A002D0000E206E20C060F0616B30
:1045E800120000016F6F7EECA7F006C16CF007C1E6
:1045F8006DF0000E00016E6FA5ECA0F0BC943B01BD
:10460800FC9F000EF86F010EF76FFC8F06C160F07B
:1046180007C161F06FC062F07BECA0F081ECA7F0FD
:104628001200000ED2BE010E206E6151030B39013B
:10463800E16F600083F1E0F960008BF1E3F93F0E70
:10464800E517E585D29E550EE66FAA0EE66FE5835F
:10465800E5B3FED7E59520B002D0D29E01D0D28E28
:104668001200646FBC94FE0E6AECA6F0080E0001FE
:10467800606F000E616F000E626F000E636FE2ECF8
:10468800A1F064516AECA6F0200E0001606F030EE1
:10469800616F000E626F000E636FE2ECA1F0120012
:1046A800646FBC94FE0E6AECA6F0080E0001606F01
:1046B800000E616F000E626F000E636FE2ECA1F0F6
:1046C80064516AECA6F0080E0001606F000E616F7D
:1046D800000E626F000E636FE2ECA1F01200395019
:1046E800D8B4FDD7000E3A24D96EDA6A020EDA225F
:1046F800DF50386E000E3A24D96EDA6A030EDA22D9
:10470800DF50206E3A2A3F0E3A6402D0000E3A6E0D
:10471800390193973906938720501200BDECA1F018
:10472800DEECA5F0C7EC9AF05CECA6F084EC9EF009
:10473800C5EC9FF03EECA6F09DECA6F0DFECA4F0F3
:1047480069ECA7F06EECA1F0A9ECA6F00DEC99F0DD
:1047580084ECA6F04EECA7F01200206E3C50D8B4C2
:10476800FDD7390193B904D0600083F0EAFD11D078
:104778009399400E3E24D96EDA6A020EDA2260005E
:1047880083F0DFFF3E2A3F0E3E6402D0000E3E6EED
:064798003C0693891200AB
:1047A0006F00E8FF16F06F00ECFF17F024502510A3
:1047B0002610D8B40CD001D80AD00500FA6E2450C7
:1047C000FD6E2550FE6E2650FF6EFA5012006000FE
:1047D0005FF0FBFF60005BF0FAFF11006F00E8FF85
:1047E00018F06F00ECFF19F0215022102310D8B4FC
:1047F0000CD001D80AD00500FA6E2150FD6E22506F
:10480000FE6E2350FF6EFA501200600067F0FBFF4F
:10481000600063F0FAFF1100BF0E686FFF0E696F52
:1048200066C06AF067C06BF068516A2769516B23F4
:104830006B510AE11A0E6A5DD8B006D0200E6611DF
:10484000666F6751676F120066C066F067C067F0F9
:104850001200010E756F73C06AF074C06BF0000E29
:104860006C6F000E6D6F2DEC9FF06BBF1200000E91
:10487000626F0A0E616F000E636F000E646FAFEC23
:104880009CF062BF1200000E756F12006F00E8FF0F
:104890000CF06F00ECFF0DF03901A991314A322A7A
:1048A000325004E1170E315CD8A006D098ECA5F088
:1048B000000E326E000E316E600037F0FBFF6000BC
:1048C00033F0FAFF1100BF0E0001626FFF0E636F3D
:1048D00060C064F061C065F0625164276351652374
:1048E000655106E11A0E645DD8B002D0010E01D008
:1048F000000E606F616B1200D00E0001626FFF0E40
:10490000636F60C064F061C065F0625164276351F9
:104910006523655106E10A0E645DD8B002D0010E30
:1049200001D0000E606F616B120060C062F061C068
:1049300063F0D89063336233D8906333623362514B
:10494000696E60C062F0030E6217060E636FD89046
:104950006237632FFCD76251686E120060C062F04C
:1049600061C063F0D89063336233D89063336233AD
:1049700062516D6E60C062F0030E6217060E636FC7
:10498000D8906237632FFCD762516C6E1200206E94
:1049900060C062F061C063F0D89000016237633795
:1049A0002050020D0C0EF324D96E010EF420DA6EA5
:1049B00060008BF1DEFF60008FF1DDFF1200010E61
:1049C000966E200E956E000E976E4D0E936E000E35
:1049D000926E3901A9919981280E0001606F4F0EE6
:1049E000616F010E626F40ECA7F094681200605195
:1049F000611162116311D8B408D0000E601B000E63
:104A0000611B000E621B800E631B60C060F061C002
:104A100061F062C062F063C063F01200400E3C605F
:104A200011D0400E3D24D96EDA6A020EDA22DF5030
:104A30003D01EA6F3D2A3F0E3D6402D0000E3D6EFF
:104A40003C2A1200390193991200605162036F00F1
:104A5000CCFF64F06F00D0FF65F060516303F3504A
:104A6000652761516203F350652764C060F065C03B
:104A700061F01200A50E0001F26F010EF36F000E3F
:104A800001019D6F000E9E6FA3C19FF1A4C1A0F113
:104A9000F20EA16FA26BF5EC9FF0120064C060F003
:104AA00065C061F0000EC7ECA4F005D000F000F086
:104AB00000F000F00400000E86ECA5F00009D8A478
:104AC0001200F4D7646FBC94000164516AECA6F044
:104AD000080E0001606F000E616F000E626F000E25
:104AE000636FE2ECA1F0120008ECA7F00009D8B463
:104AF0000BD073ECA3F0600083F1D9FF600087F165
:104B0000DAFFDF6E010E1200000E1200206E0400AC
:104B10002050020D0C0EF324D96E010EF420DA6E33
:104B2000DE50DE10D8A402D0010E1200000E1200DA
:104B300001013B513C113D11D8B4120001D81200C3
:104B40000500FA6E3B51FD6E3C51FE6E3D51FF6E0D
:104B5000FA5012009AA409D09A9060003FF099FF91
:104B600060003BF098FF9A80120060003FF099FFD0
:104B700060003BF098FF1200930E736FFE0E746F8F
:104B800029ECA4F0010E346E000E616F100E606F00
:104B900034C062F015ECA3F01200B20E736FFE0E7B
:104BA000746F29ECA4F0000E346E000E616F100ECD
:104BB000606F34C062F015ECA3F01200000EC06FFD
:104BC000000EC16F000EC26F000EC36F000EC46FE7
:104BD000000EC56F000EC66F000EC76F1200000EEC
:104BE0003B24D96EDA6A030EDA226F00A3F7DFFFE7
:104BF0003B2A3F0E3B6402D0000E3B6E392A120066
:104C00006CC060F06DC061F0000E0001636F000EBB
:104C1000626F000E656F430E646FEFEC95F012004B
:104C2000BEA002D0010E01D0000EFF0A0B6EBE50D6
:104C30000B18FE0B0B18BE6E010E0001FC6F12006C
:104C4000706FFAECA6F0FE0EF5ECA2F0FAECA6F00E
:104C500000017051F5ECA2F0FAECA6F0120076C05B
:104C600073F077C074F029ECA4F0CF0E736FFE0ED2
:104C7000746F29ECA4F0010E356E1200010EAE6EB9
:104C8000000EAD6E000EAF6E9F0EAB6E000EAA6EE4
:104C90003901A495800EAC6E12006151030B3901ED
:104CA000E16F600083F1E0F93F0EE517E58100F068
:104CB00000F03901E3511200200E3901D96F000EC6
:104CC000DB6F000EDD6F050EDF6F000EDE6FDCB1F7
:104CD0001200FDD7206E010E3D01126F600083F0BF
:104CE00011FD3901A2A9FDD73D0110511200E80EB6
:104CF000736FFE0E746F29ECA4F0130EFE6F140E8A
:104D0000FD6F020E356E1200020E3D01146F400E53
:104D1000156F000E166F000E1C6F500E196FC496A3
:104D20001200000E0001766F050E776F800E786F0F
:104D3000020E796F71ECA2F01200800E6A6E4F0EB7
:104D4000696EC00E686E3F015F51F30B04095F6F1F
:104D50001200800E6E6E4F0E6D6EC00E6C6E3F01B7
:104D60005F51FC0B01095F6F12006C0E736FFF0E39
:104D7000746F29ECA4F0020EFE6F030EFD6F12009B
:104D8000470E736FFF0E746F29ECA4F0070EFE6FD1
:104D9000080EFD6F12008F0E736FFF0E746F29ECFB
:104DA000A4F01D0EFE6F1F0EFD6F12003E01F051AC
:104DB000046E036AEF510324016E000E0420026E9C
:104DC00012007E0E736FFF0E746F29ECA4F0020EBA
:104DD000356E12005A0E736FFF0E746F29ECA4F03B
:104DE000000E356E12000001716F0001715120EC50
:104DF000A6F01200010100B7FDD73D0117BB12005C
:104E0000FCD776C073F077C074F029ECA4F01200E0
:104E10003950D8B402D0010E1200000E120060C04A
:104E200021F061C022F062C023F0120060C027F0C0
:104E300061C028F062C029F0120060C02AF061C091
:104E40002BF062C02CF0120060C02FF161C030F175
:104E500062C031F1120060C024F061C025F062C070
:104E600026F0120060C032F161C033F162C034F14B
:104E7000120060C02CF161C02DF162C02EF1120051
:104E800060C03BF161C03CF162C03DF1120060C006
:104E900038F161C039F162C03AF11200550E3901A2
:104EA000EF6FAA0EEF6FEF81120060C035F161C0A5
:104EB00036F162C037F1120060C03EF161C03FF1CF
:104EC00062C040F11200606F00016051B1ECA3F0CC
:104ED0001200A40E3E019E6F1F0E9C6F1200286EE2
:094EE000756C6C2900BDFFB1FFE7
:104EEA00206E600083F09CFE1200000E3D01F96FF7
:104EFA0012000101008712003B01FC8D12003E01E5
:104F0A009C511200EFECA5F012003D01F89F12002F
:104F1A0000971200B20214131200120012001200BB
:064F2C001100120012004A
:020000040020DA
:10000000FF0FFF0FFF0FFF0FFF0FFF0FFF0FFF0F80
:020000040030CA
:0A000000AFFFFFFF9FFFFFDFFFFFD0
:00000001FF
