:0400000057EF00F0C6
:10000800AA0CAA0CAA0CAA0CAA0CAA0CAA0CAA0C38
:10001800AA0CAA0C6B0BAA0CAA0CAA0CAA0CAA0C68
:10002800AA0CAA0CAA0CAA0CAA0CAA0CAA0CAA0C18
:10003800AA0CAA0CAA0CCB0BBB0BAA0CAA0CAA0CD8
:10004800AA0CAA0CAA0CAA0C2B00AA0CAA0CAA0C83
:10005800AA0CAA0CAA0CAA0CAA0CAA0CAA0CAA0CE8
:10006800AA0CAA0CAA0CAA0CAA0CAA0CAA0CAA0CD8
:10007800AA0CAA0C2B00AA0CAA0CAA0C2B002B0069
:100088002B002B002B002B002B002B00FF0AAA0CA7
:10009800AB0BAA0CAA0CAA0C2B002B002B002B00D4
:0A00A800AA0CAA0CFF00B5EF16F039
:1020000000024000080050533A20563D2534752008
:10201000493D253475200D0A0000C251D96EDA6A97
:102020006F007FFFF6FF200EF76E000EF86E0800BF
:10203000F550250AD8A4D3D0C251D96EDA6ADF2A66
:10204000000E3D6E000E3C6E3CC040F03DC041F0C5
:102050003E683F68C251D96EDA6A6F007FFFF6FFB3
:10206000200EF76E000EF86E0800F5502A0AD8A46C
:102070001AD0C251D96EDA6ADF2AC351D96EDA6A30
:10208000020EDF26DF5CD96EDA6A6F0078FF3CF063
:102090006F0078FF3DF03DAE33D040803C6C3D1E7C
:1020A000D8B03D2A2DD0C251D96EDA6ADF501C6EED
:1020B000D7EC11F01CC03CF01DC03DF004D0C25163
:1020C000D96EDA6ADF2AD00E0001C46FFF0EC56F29
:1020D000C251D96EDA6A6F007FFFF6FF200EF76EED
:1020E000000EF86E0800F550C66FC76BC451C627C6
:1020F000C551C723C75104E10A0EC65DD8A0DFD77A
:10210000C251D96EDA6A6F007FFFF6FF200EF76EBC
:10211000000EF86E0800F550750AD8A435D0C251EB
:10212000D96EDA6ADF2AC351D96EDA6ADF50DF2A44
:10213000DF2AD96EDA6A6F0078FFC4F06F0074FF8F
:10214000C5F0C4C0C8F0C5C0C9F0CA6BCB6BCC6BBE
:10215000CD6BCE6BCF6BC1C0AAF0C8C0ABF0C9C00D
:10216000ACF0CAC0ADF0CBC0AEF0CCC0AFF0CDC0CB
:10217000B0F0CEC0B1F0CFC0B2F008EC11F0AAC000
:10218000C1F0ABC0C2F01200C251D96EDA6A6F0062
:102190007FFFF6FF200EF76E000EF86E0800F55078
:1021A000250AD8A413D0C251D96EDA6ADF2A000EEC
:1021B000186E250E176EC1C019F01A6A7EEC14F065
:1021C000000E0001C26F010EC16F1200C251D96E24
:1021D000DA6ADF2A000EC26F000EC16F1200C25110
:1021E000D96EDA6A6F007FFFF6FF200EF76E000EE1
:1021F000F86E0800F550176E186AC1C019F01A6A17
:102200007EEC14F00001C251D96EDA6ADF2AD8D709
:102210003FAE40923FBE05D03F5008E13E04D8B0EB
:1022200005D0000EB46F010EB36F04D03EC0B3F002
:102230003FC0B4F03CC0B5F03DC0B6F0ABC0B7F0A5
:10224000ACC0B8F0ADC0B9F0AEC0BAF0AFC0BBF032
:10225000B0C0BCF0B1C0BDF0B2C0BEF0000EC06FE7
:102260001F0EBF6F000EA96F74D0BF07D8A0C007A4
:10227000BF518A0FD96EDA6AB7C015F0B8C016F030
:10228000B9C017F0BAC018F0BBC019F0BCC01AF042
:10229000BDC01BF0BEC01CF00A0E1D6E000E1E6EEF
:1022A000000E1F6E000E206E000E216E000E226EBC
:1022B000000E236E000E246ED8EC14F015C030F022
:1022C00016C031F017C032F018C033F019C034F026
:1022D0001AC035F01BC036F01CC037F03050300F3C
:1022E000DF6EB307D8A0B407B507D8A0B607B7C04C
:1022F00015F0B8C016F0B9C017F0BAC018F0BBC0DE
:1023000019F0BCC01AF0BDC01BF0BEC01CF00A0E14
:102310001D6E000E1E6E000E1F6E000E206E000E53
:10232000216E000E226E000E236E000E246EFDEC58
:1023300012F015C0B7F016C0B8F017C0B9F018C049
:10234000BAF019C0BBF01AC0BCF01BC0BDF01CC075
:10235000BEF0BF51C011D8B41AD0B751B811B911DD
:10236000BA11BB11BC11BD11BE11D8A47ED7B4BF28
:1023700005D0B45102E1B305D8B077D7B6BF07D0C6
:10238000B65103E1B505D8A002D040B26ED7AAC0BD
:1023900027F0BF518A0F286EB5C029F0B6C02AF0C9
:1023A00080EC15F027C0AAF028C0ABF01200000E98
:1023B000256E000E246E000E236E000E226E01D0DC
:1023C0001C2A600073F0F6FF200EF76E000EF86E08
:1023D0000800F550200AD8B4F3D7F70E1E6EFF0E92
:1023E0001F6E600073F0F6FF200EF76E000EF86EA1
:1023F0000800F550206E216A1E5020261F50212211
:1024000021500BE1050E205CD8B007D0D9D7000EC3
:10241000236E010E226E1C2A34D0600073F0F6FF8A
:10242000200EF76E000EF86E0800F5501E6E1F6A43
:102430001F50000AD8A425D01E502B0AD8B4EBD7C1
:10244000060AD8B4E4D71DD024C015F025C016F074
:10245000000E186E0A0E176E51EC18F0600073F043
:10246000F6FF200EF76E000EF86E0800F550155EB0
:10247000000E165A300E1524246E000E1620256EFE
:10248000CAD7D00E1E6EFF0E1F6E600073F0F6FFEF
:10249000200EF76E000EF86E0800F550206E216ACF
:1024A0001E5020261F502122215004E10A0E205CDC
:1024B000D8A0CAD722502310D8A40DD024C01EF013
:1024C00025C01FF01E1E1F1E1E4A1F2A1EC01CF004
:1024D0001FC01DF0120024C01CF025C01DF012000A
:1024E000010E0001E76F66EC18F0BD92BE94A20EDB
:1024F000156E310E166E000E176E29EC19F0E00EF7
:10250000156E2C0E166E000E176E30EC19F0E00EE4
:10251000156E2F0E166E000E176E37EC19F0600058
:102520000BF1F1FED28E010E49EC19F04350D8B4F4
:10253000FDD7840E385C030E3958D8B007D0000E92
:10254000C7EC13F0090EC7EC13F013D0C50E385CBE
:10255000090E3958D8A007D0010EC7EC13F00A0EA7
:10256000C7EC13F006D0020EC7EC13F00B0EC7EC4D
:1025700013F0840E3A5C030E3B58D8B007D0030E1C
:10258000C7EC13F0060EC7EC13F013D0C50E3A5C7F
:10259000090E3B58D8A007D0040EC7EC13F0070E65
:1025A000C7EC13F006D0050EC7EC13F0080EC7EC0D
:1025B00013F0000E436E4450D8B4B8D7000E00019B
:1025C000D46F020ED56F060ED66F38C0D7F039C063
:1025D000D8F03AC0D9F03BC0DAF017EC17F0000E93
:1025E000276E020E286ED3EC17F00001E72BE7519F
:1025F00049EC19F0000E446E99D720EE25F0070E35
:10260000DE6AE806FDE21D501E101F10201021108A
:10261000221023102410D8B446D0010E2D6E0AD0FB
:10262000D8901D361E361F362036213622362336E8
:1026300024362D2A24AEF4D7D890253626362736D0
:10264000283629362A362B362C361D50155C1E505E
:1026500016581F50175820501858215019582250FA
:102660001A5823501B5824501C58D8A011D01D5064
:10267000155E1E50165A1F50175A2050185A2150D6
:10268000195A22501A5A23501B5A24501C5A25807A
:10269000D890243223322232213220321F321E328D
:1026A0001D322D2EC9D725C015F026C016F027C023
:1026B00017F028C018F029C019F02AC01AF02BC052
:1026C0001BF02CC01CF01200000EBE6E110EBD6E71
:1026D000200EBA6E000EBF6E000EBB6E000EBC6EFA
:1026E000020EC66E0F0EC76EDF0EC26EC368900E6E
:1026F000C46E0C0EC56E0C0E3A01706F600E606FEA
:10270000FE0E506F020E806F0F0E906F8F0E406F97
:10271000000E716F000E916F000E816F010E516FF0
:10272000500E416F000E616F000E5A6F000E5B6F0E
:10273000000E6A6F000E6B6F000E7A6F000E7B6FDB
:10274000000E826F000E926F000E426F000E526FED
:10275000000E626F000E726F43695369636973699B
:10276000070E836F936944695469646974690F0E35
:10277000846F9469130EDE6F1E0E136F1F0E156F9C
:10278000130E166F170EE56F140EDF6F1200176E23
:102790002DD0BD98BD9A1200BD98BD8A1200BD888B
:1027A000BD9A1200BD9CBD9E1200BD9CBD8E120044
:1027B000BD8CBD9E1200BF98BF9A1200BF98BF8A01
:1027C0001200BF88BF9A1200BF9CBF9E1200BF9C20
:1027D000BF8E1200BF8CBF9E1200BD98BD9ABD9CDB
:1027E000BD9EBF98BF9ABF9CBF9E12001750156E2A
:1027F000166A1650000AD8A4F0D71550000AD8B4AB
:10280000C8D7010AD8B4CBD7030AD8B4C5D7010AB0
:10281000D8B4C8D7070AD8B4CBD7010AD8B4C5D71B
:10282000030AD8B4C8D7010AD8B4CBD70F0AD8B492
:10283000C5D7010AD8B4C8D7030AD8B4CBD7010A80
:10284000D8B4C5D7CAD7390193975E0E156E2A0E34
:10285000166E000E176E0DEC19F09399480E156E5A
:10286000300E166E000E176E06EC19F0000E3D01CC
:10287000EC6F000EED6F000EEE6F000EEF6F000EAE
:10288000F06F000EF16FB00EF26F800EF36F000E5E
:10289000F46F150EF56F010EF66F000EF76F000E58
:1028A000F86F000EF96F000EFA6FAC0E156E320E57
:1028B000166E000E176E1BEC19F0AA0E156E320E76
:1028C000166E000E176E14EC19F09C0E156E320E7B
:1028D000166E000E176E22EC19F0000E456E000EFB
:1028E0004B6E000E4A6E400E496E000E486E000E92
:1028F000476E000E466E39019387120019501A1068
:10290000D8B404D019501A10D8A404D0175044ECED
:1029100019F04AD020EE09F01950D9261A50DA22BF
:10292000DE50DE10D8B416D020EE09F01950D926AA
:102930001A50DA2210EE03F01950E1261A50E22262
:10294000DE50E65CE650800A1F6EDE50800A1F589B
:10295000D8B02AD020EE03F01950D9261A50DA2226
:102960006F0078FF1BF06F0074FF1CF0600067F0D1
:10297000D9FF60006BF0DAFF6F0078FF1DF06F0089
:1029800074FF1EF01B501D24D96E1C501E20DA6EE1
:1029900060005FF0DFFF20EE03F01950D9261A50D7
:1029A000DA22DE2A000EDD2217C017F0186A1200A4
:1029B0001D501E101F102010211022102310241053
:1029C000D8B43CD0010E256E0AD0D8901D361E36E4
:1029D0001F3620362136223623362436252A24AEC9
:1029E000F4D71D50155C1E5016581F501758205014
:1029F00018582150195822501A5823501B58245047
:102A00001C58D8A010D01D50155E1E50165A1F50CD
:102A1000175A2050185A2150195A22501A5A235026
:102A20001B5A24501C5AD89024322332223221328D
:102A300020321F321E321D32252ED3D715C015F07D
:102A400016C016F017C017F018C018F019C019F00A
:102A50001AC01AF01BC01BF01CC01CF01200000EA4
:102A60004824D96EDA6A010EDA22000EDF6E3D01CB
:102A7000F9A715D0000E4824D96EDA6A010EDA22C1
:102A80000101DF8201D80BD00500FA6E00017551FB
:102A9000FD6E7651FE6E7751FF6EFA5012003D01C9
:102AA000F9A315D0000E4824D96EDA6A010EDA2295
:102AB0000101DF8401D80BD00500FA6E00017251CC
:102AC000FD6E7351FE6E7451FF6EFA501200000ECF
:102AD0004824D96EDA6A010EDA22DF50D8B40DD05C
:102AE00001D812000500FA6E00016F51FD6E7051A1
:102AF000FE6E7151FF6EFA501200C0EC18F0120019
:102B000040A008D028C020F0216A27C022F0236A04
:102B1000F7EC16F02ABE05D029C02EF02AC02FF0FF
:102B200004D0000E2F6E000E2E6E000E2D6E000EC5
:102B30002C6E0BD0000E186E200E176E27C019F0E9
:102B40001A6A7EEC14F02C4A2D2A2E502C5C2D5043
:102B5000800A2B6E2F50800A2B58D8A0EBD740B09C
:102B600008D028C020F0216A27C022F0236AF7ECA1
:102B700016F028C015F08DEC18F02E501524276E95
:102B80002F501620286E1200000E3E01DE6F000E40
:102B9000DF6F000EE06F000EE16F000EE46F000EBD
:102BA000E56F000EEA6F000EEC6F000EF16F100E75
:102BB000F36F000EF46F000EF56F000EF66F000E4F
:102BC000F76F000EF96F000EFA6F000EFB6F000E2C
:102BD000FC6F020EFD6F070EFE6F000EFF6F940E6E
:102BE000F86F3901A1959185A20E156E320E166E01
:0A2BF000000E176E37EC19F012000A
:102BFC006F00E8FF13F06F00ECFF14F03901A89D93
:102C0C0086C00FF087C010F07BEC18F000016C51FF
:102C1C006D116E11D8B40CD001D80AD00500FA6E23
:102C2C006C51FD6E6D51FE6E6E51FF6EFA501200BE
:102C3C00600053F0FBFF60004FF0FAFF1100000E34
:102C4C009B6E000E9C6E020E9D6E830E996E000E96
:102C5C00986E3901A89D98506F0064FE18F0196A9F
:102C6C0018C019F0186A18100001866F1950876F78
:102C7C003901988DAE0E156E320E166E000E176E53
:102C8C0030EC19F0010E9A6E1200D1C0D3F0000E88
:102C9C00856F000E846F0DD0D0C0C1F0D30EC26F03
:102CAC00D2C0C3F00DEC10F00001C1518427C25109
:102CBC00852360004FF3F6FF200EF76E000EF86EC2
:102CCC000800F5500009D8A4E7D784C0D0F085C01F
:102CDC00D1F01200000E126E000E116E1150020D8A
:102CEC00F350600FD96EDA6ADE50DE10D8B409D01A
:102CFC001150020DF350600FD96EDA6ADE06000E29
:102D0C00DD5A114A122A12BEE9D7125005E1060EFD
:102D1C00115CD8B01200E2D71200D28A000ED2BEDB
:102D2C00010E156ED29E550ED46EAA0ED46ED49092
:102D3C00000ED76E000ED66E080ED56E550ED46EE4
:102D4C00AA0ED46ED48015B002D0D29E01D0D28EF1
:102D5C003901838983878981888D8185120000EEF2
:102D6C0000F2800EEE6AE806FDE100EE00F1C00E06
:102D7C00EE6AE806FDE100EE60F04A0EEE6AE80647
:102D8C00FDE100EE38F0140EEE6AE806FDE1080EE7
:102D9C00D56E000ED66E000ED76E000170EF12F0DD
:102DAC006F00E8FF06F06F00ECFF07F03901A1950A
:102DBC0000017B517C117D11D8B40CD001D80AD004
:102DCC000500FA6E7B51FD6E7C51FE6E7D51FF6EDF
:102DDC00FA50120060001FF0FBFF60001BF0FAFFBE
:102DEC001100000E266E000E256E0BD024C017F0BD
:102DFC00186A22C019F023C01AF07EEC14F0254A90
:102E0C00262A25502024D96E26502120DA6EDF5038
:102E1C00246E2450D8A4EAD725C020F026C021F077
:102E2C001200D70EDB6FD4C0DCF0D5C0DDF0000E85
:102E3C00E06F000EDF6F000EE66F000EE56FDC0E2C
:102E4C00D06FD6C0D1F0DB0ED26F4BEC16F0DF5149
:102E5C00D425D96EE051D521DA6E000EDF6E12004A
:102E6C00010E1B6E200E15181610D8B414D0F70EC8
:102E7C00176EFF0E186E15C019F016C01AF0175009
:102E8C00192618501A221A5004E1050E195CD8A004
:0E2E9C0002D0000E1B6E1BC015F0166A12004D
:102EAC006F00E8FF09F06F00ECFF0AF03901A991FF
:102EBC000001884B892B895104E1170E885DD8A03D
:102ECC0007D0AFEC18F0000E0001896F000E886F70
:0E2EDC0060002BF0FBFF600027F0FAFF1100F2
:102EEC006F00E8FF0BF06F00ECFF0CF000017E515F
:102EFC007F118011D8B40CD001D80AD00500FA6E1D
:102F0C007E51FD6E7F51FE6E8051FF6EFA501200A5
:0E2F1C00600033F0FBFF60002FF0FAFF1100A1
:102F2C006F00E8FF0DF06F00ECFF0EF00001815117
:102F3C0082118311D8B40CD001D80AD00500FA6ED6
:102F4C008151FD6E8251FE6E8351FF6EFA5012005C
:102F5C0060003BF0FBFF600037F0FAFF1100156ECC
:102F6C004950D8B4FDD7390193B904D0600057F05B
:102F7C00EAFD11D09399800E4B24D96EDA6A010EBA
:102F8C00DA22600057F0DFFF4B2A3F0E4B6402D071
:102F9C00000E4B6E490693891200010E296E27C054
:102FAC0020F028C021F0000E226E000E236EF7ECEC
:102FBC0016F021BE1200000E186E0A0E176E000ECF
:102FCC00196E000E1A6E7EEC14F018BE1200000E74
:102FDC00296E1200FBEC18F04250020DF350380F22
:102FEC00D96EDA6A600007F0DEFF60000BF0DDFFDF
:102FFC00422A4204056E010E056402D0000E426E98
:10300C0060000BF1F1FE010E436E1200D00E176E34
:10301C00FF0E186E15C019F016C01AF017501926AD
:10302C0018501A221A5006E10A0E195CD8B002D0B8
:10303C00010E01D0000E156E166A1200400E49608A
:10304C0011D0800E4A24D96EDA6A010EDA22DF50D2
:10305C003D01EA6F4A2A3F0E4A6402D0000E4A6EC6
:10306C00492A1200390193991200010E966E200E16
:10307C00956E000E976E4D0E936E000E926EA9918A
:10308C009981A40E156E320E166E000E176E29EC79
:10309C0019F094681200155017026F00CCFF19F04C
:1030AC006F00D0FF1AF015501802F3501A26165064
:1030BC001702F3501A2619C015F01AC016F0120098
:1030CC0093EC16F09EEC18F064EC13F0E0EC18F0B6
:1030DC003BEC18F0C4EC15F03EEC19F025EC16F0B6
:1030EC0023EC14F0EEEC18F012009AA409D09A908C
:1030FC00600043F099FF60003FF098FF9A80120047
:10310C00600043F099FF60003FF098FF120015C07B
:10311C0017F001D0152A1550D96EDA6ADF50D8A4F1
:10312C00F9D71750155C156E166A15BE16061200E7
:10313C00000EC06F000EC16F000EC26F000EC36F89
:10314C00000EC46F000EC56F000EC66F000EC76F69
:10315C001200785179117A11D8B4120001D81200EA
:10316C000500FA6E7851FD6E7951FE6E7A51FF6E44
:10317C00FA501200400E4824D96EDA6A010EDA2297
:10318C006F00A3F7DFFF482A3F0E486402D0000E01
:10319C00486E462A1200BEA002D0010E01D0000ECD
:1031AC00FF0A086EBE500818FE0B0818BE6E010E02
:1031BC00446E1200200E3901D96F000EDB6F000E29
:1031CC00DD6F050EDF6F000EDE6FDCB11200FDD778
:1031DC00020E3D01146F400E156F000E166F000E9F
:1031EC001C6F080E196FC49612003E01F051046E4C
:1031FC00036AEF510324016E000E0420026E1200CC
:10320C0015C07EF016C07FF017C080F0120015C0FC
:10321C0081F016C082F017C083F0120015C072F056
:10322C0016C073F017C074F0120015C075F016C0FC
:10323C0076F017C077F0120015C06FF016C070F062
:10324C0017C071F0120015C078F016C079F017C0D5
:10325C007AF0120015C06CF016C06DF017C06EF04D
:10326C00120015C07BF016C07CF017C07DF0120068
:10327C00A40E3E019E6F1F0E9C6F1200166E165010
:10328C00B5EC17F01200156E600057F09CFE1200A2
:0A329C00C0EC18F01200120012003E
:0832A8001100120012001200D7
:020000040020DA
:10000000FF0FFF0FFF0FFF0FFF0FFF0FFF0FFF0F80
:020000040030CA
:0A000000AFFFFFFF9FFFFFFFFFFFB0
:00000001FF
