:0400000057EF00F0C6
:1000080033523352335233523352335233523352C0
:1000180033523352DC4F335233523352335233520A
:10002800ED4F3352335233523352335233523352E9
:10003800335233523352A74F954F6A503C50335284
:1000480033523352335233522B00335233523352DA
:100058003352335233523352335233523352335270
:100068003352335233523352335233523352335260
:10007800335233522B003352335233522B002B005E
:100088002B002B002B002B002B002B004A4F335248
:10009800C2503352335233522B002B002B002B000B
:0A00A80033523352FF00D1EF98F0FD
:10FEA0000002400050000D0A20436F6D6D616E64CA
:10FEB0002070726F636573736F722056302E310D30
:10FEC0000A002050532054657374202531753A2060
:10FED000444143204F55543D252E32752C205375F7
:10FEE00070706C7920526561644261636B202534C7
:10FEF0002E347520563D252B362E3166562025345E
:10FF00002E347520493D252B332E31666D410D0A67
:10FF1000000D0A2052616D7020746F203130303036
:10FF2000564443204F4E200D0A000D0A205374659D
:10FF30006164792031303030564443204F4E200DDB
:10FF40000A0053504920646973706C6179207465AC
:10FF50007374696E67000D0A20566F6C7461676573
:10FF600020444F574E200D0A000D0A20566F6C7426
:10FF7000616765204F4646200D0A000D0A20566F26
:10FF80006C74616765204C4F57200D0A00446973FB
:10FF9000706C61792074657374696E672020000D40
:10FFA0000A20566F6C74616765205550200D0A0059
:10FFB0000D0A204275696C642025732025730D0A93
:10FFC000004D617220313620323032320031333A06
:10FFD00034313A303500494E46004E414E00696E8C
:10FFE00066006E616E006C6C73006C66007064007D
:10FFF000706C00706F00707200707300707500009C
:020000040001F9
:10000000000EAC6F000EAB6F8DC0BDF08EC0BEF0A9
:100010008FC0BFF090C0C0F0C0AF16D0000EAC6F64
:10002000010EAB6FBDC01DF0BEC01EF0BFC01FF003
:10003000C0C020F01AECA2F01DC0BDF01EC0BEF082
:100040001FC0BFF020C0C0F0000EC46F000EC36F11
:10005000F3C0AFF0F4C0B0F0AB51AC11D8A402D0F3
:1000600035A413D0AB51AC11D8A404D0000E986FB6
:100070002B0E03D0000E986F2D0E976F97C077F15F
:10008000C34BC42BAF07D8A0B007BDC01DF0BEC086
:100090001EF0BFC01FF0C0C020F06BEC98F01D0434
:1000A0001E10D8A443D0BF0E926FFF0E936F9151D4
:1000B000946F956B9251942793519523955111E12B
:1000C0001A0E945DD8B00DD0770EC3251D6E010EAB
:1000D000C4211E6ED60E1F6EFF0E206E39EC9DF0F1
:1000E0000CD0770EC3251D6E010EC4211E6EDE0ED0
:1000F0001F6EFF0E206E39EC9DF00001FD0EAF2744
:10010000FF0EB0238BC069F08CC06AF0770E00013F
:100110006B6F010E6C6FAFC06DF0B0C06EF04DEC48
:100120009BF069C08BF06AC08CF01200BDC01DF05E
:10013000BEC01EF0BFC01FF0C0C020F06BEC98F036
:100140001D501E10D8A42BD0BF0E926FFF0E936FC0
:100150009151946F956B925194279351952395519A
:1001600011E11A0E945DD8B00DD0770EC3251D6E27
:10017000010EC4211E6EDA0E1F6EFF0E206E39ECCA
:100180009DF0BBD7770EC3251D6E010EC4211E6ED8
:10019000E20E1F6EFF0E206E39EC9DF0AED7000E02
:1001A000C56F000EC66F800EC76F3F0EC86F000E82
:1001B000C26F000EC16FBDC01DF0BEC01EF0BFC03B
:1001C0001FF0C0C020F0000E216E000E226E000E47
:1001D000236E000E246E9AEC9BF0D8A01DD074D034
:1001E000C5C066F0C6C067F0C7C068F0C8C069F097
:1001F000000E6A6F000E6B6F200E6C6F410E6D6FFC
:1002000069EC8AF066C0C5F067C0C6F068C0C7F088
:1002100069C0C8F0C14BC22BBDC07FF0BEC080F02A
:10022000BFC081F0C0C082F0000E6A6F000E6B6F1D
:10023000200E6C6F410E6D6FC5C066F0C6C067F0D2
:10024000C7C068F0C8C069F069EC8AF066C083F086
:1002500067C084F068C085F069C086F035EC97F01F
:10026000D8A01ED0BDD7C5C01DF0C6C01EF0C7C0E7
:100270001FF0C8C020F0000E216E000E226E200E6E
:10028000236E410E246E04EC8FF01DC0C5F01EC01D
:10029000C6F01FC0C7F020C0C8F0C107D8A0C20771
:1002A000BDC07FF0BEC080F0BFC081F0C0C082F092
:1002B000C5C083F0C6C084F0C7C085F0C8C086F052
:1002C00035EC97F0D8A0CFD791C023F0246AF2EC98
:1002D000A0F02350B26FB2C0B1F0670EB219D8A42B
:1002E00019D0F551F611D8A404D0000EF66F010E06
:1002F000F56FF6BF05D0F65108E1F505D8B005D089
:10030000000EAE6F060EAD6F08D0F5C0ADF0F6C0B2
:10031000AEF003D0F6AFF9D7F3D7670EB219D8A471
:1003200022D0C2AF06D0FC0EC15DFF0EC259D8A0CC
:1003300018D0FF0E926FFF0E936FADC094F0AEC059
:1003400095F09251942793519523C151945D955105
:10035000800A966FC251800A9659D8A002D0660EC4
:1003600001D0650EB16FADC0A3F0AEC0A4F0670EB2
:10037000B219D8A405D0660EB119D8B4C2AF02D054
:10038000A34BA42B660EB119D8A416D0C2AF0CD0C3
:10039000000EC56F000EC66F800EC76F3F0EC86F90
:1003A000000EC26F000EC16F670EB219D8B404D030
:1003B000C151A327C251A423000EBC6F000EBB6F16
:1003C000BDC0B3F0BEC0B4F0BFC0B5F0C0C0B6F0A1
:1003D000C5C0A5F0C6C0A6F0C7C0A7F0C8C0A8F0A9
:1003E0007AD0B3C01DF0B4C01EF0B5C01FF0B6C0C7
:1003F00020F0C5C021F0C6C022F0C7C023F0C8C09D
:1004000024F004EC8FF01DC071F01EC072F01FC00C
:1004100073F020C074F002EC92F071C0B7F072C0BB
:10042000B8F073C0B9F074C0BAF0B7C01DF0B8C06E
:100430001EF0B9C01FF0BAC020F094EC99F01DC0B6
:10044000A9F01EC0AAF0B3C07FF0B4C080F0B5C060
:1004500081F0B6C082F0C5C06AF0C6C06BF0C7C0FC
:100460006CF0C8C06DF0B7C066F0B8C067F0B9C036
:1004700068F0BAC069F069EC8AF066C083F067C0C2
:1004800084F068C085F069C086F072EC9FF07FC090
:10049000B3F080C0B4F081C0B5F082C0B6F0C5C082
:1004A0001DF0C6C01EF0C7C01FF0C8C020F0000E6F
:1004B000216E000E226E200E236E410E246E04EC7F
:1004C0008FF01DC0C5F01EC0C6F01FC0C7F020C011
:1004D000C8F0BB4BBC2BA351BB5DBC51800A926FD3
:1004E000A451800A9259D8A07CD7C5C066F0C6C076
:1004F00067F0C7C068F0C8C069F0000E6A6F000EF0
:100500006B6FA00E6C6F400E6D6F69EC8AF066C069
:10051000B7F067C0B8F068C0B9F069C0BAF0B3C04E
:100520007FF0B4C080F0B5C081F0B6C082F0B7C033
:1005300083F0B8C084F0B9C085F0BAC086F035EC5D
:1005400097F0D8A015D0B3C01DF0B4C01EF0B5C050
:100550001FF0B6C020F0B7C021F0B8C022F0B9C07B
:1005600023F0BAC024F09AEC9BF0D8B0A9B108D01F
:10057000000EB76F000EB86F000EB96F000EBA6FA5
:10058000BDC01DF0BEC01EF0BFC01FF0C0C020F037
:10059000B7C021F0B8C022F0B9C023F0BAC024F02F
:1005A00011EC8CF01DC0B3F01EC0B4F01FC0B5F04C
:1005B00020C0B6F0B3C07FF0B4C080F0B5C081F009
:1005C000B6C082F0000E6A6F000E6B6F200E6C6F6B
:1005D000410E6D6FA5C066F0A6C067F0A7C068F0B9
:1005E000A8C069F069EC8AF066C083F067C084F047
:1005F00068C085F069C086F035EC97F0D8A022D0AD
:10060000C14BC22BA5C066F0A6C067F0A7C068F0BA
:10061000A8C069F0000E6A6F000E6B6F200E6C6F41
:10062000410E6D6F69EC8AF066C0A5F067C0A6F058
:1006300068C0A7F069C0A8F0660EB119D8A402D0AE
:10064000A34BA42BA5C0C5F0A6C0C6F0A7C0C7F099
:10065000A8C0C8F0650EB119D8B405D0C1C0A1F0CA
:10066000C2C0A2F004D0000EA26F000EA16F000E57
:10067000A06F000E9F6F000E9E6F000E9D6F000E0C
:10068000BC6F000EBB6FC4D0B3C01DF0B4C01EF071
:10069000B5C01FF0B6C020F0C5C021F0C6C022F022
:1006A000C7C023F0C8C024F004EC8FF01DC071F067
:1006B0001EC072F01FC073F020C074F002EC92F004
:1006C00071C0B7F072C0B8F073C0B9F074C0BAF0BE
:1006D000B7C01DF0B8C01EF0B9C01FF0BAC020F0FE
:1006E00094EC99F01DC0A9F01EC0AAF035B80CD04A
:1006F000A951AA11D8A408D0670EB219D8B4A2AFD4
:1007000003D09D4B9E2B39D09F51A011D8B4A2AFDE
:1007100022D0770EC325D96E010EC421DA6E2E0EBB
:10072000DF6EC34BC42BAF07D8A0B007000EA06F7D
:10073000010E9F6F10D0770EC325D96E010EC42114
:10074000DA6E300EDF6EC34BC42BAF07D8A0B007F4
:100750009D07D8A09E079D519E11D8A4ECD7770E77
:10076000C325D96E010EC421DA6EA951300FDF6E98
:10077000C34BC42BAF07D8A0B007B3C07FF0B4C041
:1007800080F0B5C081F0B6C082F0C5C06AF0C6C0C6
:100790006BF0C7C06CF0C8C06DF0B7C066F0B8C0F1
:1007A00067F0B9C068F0BAC069F069EC8AF066C059
:1007B00083F067C084F068C085F069C086F072EC91
:1007C0009FF07FC0B3F080C0B4F081C0B5F082C0AC
:1007D000B6F0C5C01DF0C6C01EF0C7C01FF0C8C02F
:1007E00020F0000E216E000E226E200E236E410EB0
:1007F000246E04EC8FF01DC0C5F01EC0C6F01FC0F3
:10080000C7F020C0C8F0A107D8A0A207BB4BBC2BE3
:10081000A351BB5DBC51800A926FA451800A9259CA
:10082000D8B008D0C4BF30D7C45104E14B0EC35D6B
:10083000D8A02AD79F51A011D8B435A80AD0770ED6
:10084000C325D96E010EC421DA6E2E0EDF6EC34BA6
:10085000C42B770EC325D96E010EC421DA6E000EAB
:10086000DF6E650EB119D8A44DD4000EBC6F4F0ECB
:10087000BB6F770EBB25D96E010EBC21DA6E000E60
:10088000DF6E000EAC6F000EAB6FC2AF08D0000E73
:10089000AC6F010EAB6FC16DC21FD8B0C22B000E82
:1008A000AE6F020EAD6F2AD0BB07D8A0BC07770E83
:1008B000BB25D96E010EBC21DA6EC1C01DF0C2C0CD
:1008C0001EF0000E206E0A0E1F6E9BEC9CF01D5059
:1008D000300FDF6EC1C01DF0C2C01EF0000E206ED2
:1008E0000A0E1F6EDFEC9BF01DC0C1F01EC0C2F0EF
:1008F000AD07D8A0AE07AF07D8A0B007C151C2114D
:10090000D8A4D2D7AEBF05D0AE51CEE1AD05D8B098
:10091000CBD7BB07D8A0BC07AB51AC11D8A404D02F
:10092000000E9A6F2B0E03D0000E9A6F2D0E996F4A
:10093000770EBB25D96E010EBC21DA6E600067F21E
:10094000DFFFAF07D8A0B007BB07D8A0BC07BF0E1A
:10095000926FFF0E936F9151946F956B9251942704
:1009600093519523955104E11A0E945DD8A004D0BB
:10097000000E9C6F650E03D0000E9C6F450E9B6FA2
:10098000770EBB25D96E010EBC21DA6E60006FF2C6
:10099000DFFFAF07D8A0B007770EC3251D6E010E8D
:1009A000C4211E6E770EBB251F6E010EBC21206E6A
:1009B00039EC9DF082EF80F0CB51D96EDA6A6F008E
:1009C0007BFFF6FF6F0077FFF7FF000EF86E080061
:1009D000F550250AD8A460D3CB51D96EDA6ADE2A45
:1009E000000EDD22000EF46F000EF36FF3C035F041
:1009F000F4C036F0F569F669000E0201CE6F000E04
:100A000014D03580CB51D96EDA6ADE2A000EDD2291
:100A100033D03582F7D73584F5D73586F3D7358887
:100A2000F1D7000E0201CE6F010ECD6F25D000016F
:100A3000CB51D96EDA6A6F007BFFF6FF6F0077FF4C
:100A4000F7FF000EF86E0800F550CE6FCF6BCF5158
:100A5000000AD8A4E6D7CE51200AD8B4DED7030ABC
:100A6000D8B4DDD7080AD8B4D6D7060AD8B4C9D7BF
:100A70001D0AD8B4CED7D5D70201CD51CE11D8B4E6
:100A8000D6D735B035920001CB51D96EDA6A6F00F6
:100A90007BFFF6FF6F0077FFF7FF000EF86E080090
:100AA000F5502A0AD8A42AD0CB51D96EDA6ADE2AA8
:100AB000000EDD22600033F3D9FF600037F3DAFF68
:100AC0006F007CFFCEF0020EDE266F007CFFCFF0C1
:100AD000000EDD2260003BF3D9FF60003FF3DAFF38
:100AE0006F0078FFF3F06F0074FFF4F0F4AF39D0CB
:100AF0003580F36DF41FD8B0F42B33D0CB51D96EC1
:100B0000DA6A6F0078FF24F06F0074FF25F027EC9D
:100B100096F024C0F3F025C0F4F006D0CB51D96E86
:100B2000DA6ADE2A000EDD22D00ECE6FFF0ECF6F06
:100B3000CB51D96EDA6A6F007BFFF6FF6F0077FF4B
:100B4000F7FF000EF86E0800F550D06FD16BCE5154
:100B5000D027CF51D123D15104E10A0ED05DD8A0C6
:100B6000DDD7CB51D96EDA6A6F007BFFF6FF6F00DD
:100B700077FFF7FF000EF86E0800F5502E0AD8A494
:100B800070D0000EF66F000EF56FCB51D96EDA6A99
:100B9000DE2A000EDD22CB51D96EDA6A6F007BFFB0
:100BA000F6FF6F0077FFF7FF000EF86E0800F550B4
:100BB0002A0AD8A423D0CB51D96EDA6ADE2A000ED5
:100BC000DD22600033F3D9FF600037F3DAFF6F00F6
:100BD0007CFFCEF0020EDE266F007CFFCFF0000E11
:100BE000DD2260003BF3D9FF60003FF3DAFF6F00C6
:100BF00078FFF5F06F0074FFF6F033D0CB51D96E6B
:100C0000DA6A6F0078FF24F06F0074FF25F027EC9C
:100C100096F024C0F5F025C0F6F006D0CB51D96E81
:100C2000DA6ADE2A000EDD22D00ECE6FFF0ECF6F05
:100C3000CB51D96EDA6A6F007BFFF6FF6F0077FF4A
:100C4000F7FF000EF86E0800F550D06FD16BCE5153
:100C5000D027CF51D123D15104E10A0ED05DD8A0C5
:100C6000DDD7CB51D96EDA6A6F007BFFF6FF6F00DC
:100C700077FFF7FF000EF86E0800F550236E246A28
:100C8000F2ECA0F023500201D16FD151D8B441D081
:100C90000001CB51D96EDA6A6F0078FFCEF06F0099
:100CA00074FFCFF0010ECE27000ECF2360003BF380
:100CB000F6FF60003FF3F7FF000EF86E0800F550F6
:100CC000236E246AF2ECA0F023500201D26FD251BD
:100CD000D8B41FD00001CB51D96EDA6A6F0078FF0B
:100CE000CEF06F0074FFCFF0020ECE27000ECF23A0
:100CF00060003BF3F6FF60003FF3F7FF000EF86E75
:100D00000800F550236E246AF2ECA0F02350020193
:100D1000D36F660ED119D8A44DD00001CB51D96E36
:100D2000DA6A6F007BFFF6FF6F0077FFF7FF000EB8
:100D3000F86E08006F00D4FFD4F2CB51D96EDA6A96
:100D4000DE2A000EDD22600033F3D9FF600037F3A6
:100D5000DAFF6F007CFFCEF0040EDE266F007CFF12
:100D6000CFF0000EDD2260003BF3D9FF60003FF3BF
:100D7000DAFF6F0078FFD5F26F0078FFD6F26F00D0
:100D800078FFD7F26F0078FFD8F2C9C08BF0CAC0E5
:100D90008CF0D5C28DF0D6C28EF0D7C28FF0D8C2FB
:100DA00090F0D4C291F000EC80F08BC0C9F08CC000
:100DB000CAF01200D10E216E020E226EEA0E236ED0
:100DC000FF0E246E000E266E020E256ED7EC92F0FA
:100DD00021502210D8A45FD00001CB51D96EDA6A1D
:100DE0006F0078FFCEF06F0074FFCFF0010ECE27BA
:100DF000000ECF2360003BF3F6FF60003FF3F7FFE8
:100E0000000EF86E08006F00D4FFD4F2BF0ECE6F54
:100E1000FF0ECF6FCB51D96EDA6A6F007BFFF6FF02
:100E20006F0077FFF7FF000EF86E0800F550D06FE7
:100E3000D16BCE51D027CF51D123D15102E11A0E1F
:100E4000D05D600033F3D9FF600037F3DAFF6F0045
:100E50007CFFCEF0040EDE266F007CFFCFF0000E8C
:100E6000DD2260003BF3D9FF60003FF3DAFF6F0043
:100E700078FFD5F26F0078FFD6F26F0078FFD7F2D7
:100E80006F0078FFD8F2CB51D96EDA6A020EDE26F7
:100E9000000EDD227AD70001CB51D96EDA6A6F00DD
:100EA0007BFFF6FF6F0077FFF7FF000EF86E08007C
:100EB000F550730AD8B417D0CB51D96EDA6A6F00E7
:100EC00078FF21F06F0074FF22F0E60E236EFF0E14
:100ED000246E000E266E030E256ED7EC92F0215084
:100EE0002210D8A44FD00001CB51D96EDA6A6F001E
:100EF0007BFFF6FF6F0077FFF7FF000EF86E08002C
:100F0000F550730AD8B405D0000E0201D06F030E5D
:100F100004D0000E0201D06F010ECF6F0001CB5143
:100F2000D96EDA6A0201CF51DE26D051DD2260008F
:100F300033F3D9FF600037F3DAFF6F007CFFCEF0A8
:100F4000020EDE266F007CFFCFF0000EDD22600077
:100F50003BF3D9FF60003FF3DAFF6F0078FFCBF27D
:100F60006F0074FFCCF2C9C060F0CAC061F0CBC2A0
:100F700062F0CCC263F08CEC93F060C0C9F061C049
:100F8000CAF012000001CB51D96EDA6A6F007BFF04
:100F9000F6FF6F0077FFF7FF000EF86E0800F550C0
:100FA000750AD8A448D0CB51D96EDA6ADE2A000E71
:100FB000DD22600033F3D9FF600037F3DAFF6F0002
:100FC0007CFFCEF0020EDE266F007CFFCFF0000E1D
:100FD000DD2260003BF3D9FF60003FF3DAFF6F00D2
:100FE00078FFD0F06F0074FFD1F0D0C0C3F2D1C051
:100FF000C4F20201C56BC66BC76BC86BC96BCA6B09
:10100000C9C074F0CAC075F0C3C276F0C4C277F02C
:10101000C5C278F0C6C279F0C7C27AF0C8C27BF008
:10102000C9C27CF0CAC27DF029EC91F074C0C9F04D
:1010300075C0CAF01200CB51D96EDA6A6F007BFF1F
:10104000F6FF6F0077FFF7FF000EF86E0800F5500F
:10105000250AD8A416D0CB51D96EDA6ADE2A000E42
:10106000DD22000E206E250E1F6EC9C021F0CAC001
:1010700022F04DEC9AF0000E0001CA6F010EC96F0C
:101080001200CB51D96EDA6ADE2A000EDD22000E84
:10109000CA6F000EC96F1200CB51D96EDA6A6F00A9
:1010A0007BFFF6FF6F0077FFF7FF000EF86E08007A
:1010B000F5501F6E206AC9C021F0CAC022F04DEC65
:1010C0009AF00001CB51D96EDA6ADE2A000EDD22D9
:1010D000D2D7FF00FF00FF00FF00FF00FF00FF006E
:1010E000FF00000000000000000000000000000001
:1010F00000000000000000000000000000000000F0
:1011000000000000000000000000000000000000DF
:1011100000000000000000000000000000000000CF
:1011200000000000000000000000000000000000BF
:1014D00000006951800B726F69516925746F68BF94
:1014E00074817451D8B40DD07429D8A408D0000EDA
:1014F000666F000E676F000E686F000E696F688F71
:1015000008D0000E666F000E676F000E686F000E49
:10151000696F6D51800B721B6D516D25736F6CBFC0
:1015200073817351D8B40DD07329D8A408D0000E9C
:101530006A6F000E6B6F000E6C6F000E6D6F6C8F1C
:1015400008D0000E6A6F000E6B6F000E6C6F000EFD
:101550006D6F7351D8B403D07451D8A409D0000E64
:10156000666F000E676F000E686F000E696F1200E5
:101570006C5166036F00CCFF7DF06F00D0FF7EF0F2
:101580007D51756F766B776B786B7E51796F7A6B67
:101590007B6B7C6B6B5167036F00CCFF7DF06F0042
:1015A000D0FF7EF07D517527000E762377237823B8
:1015B0007E517927000E7A237B237C236A516803AE
:1015C0006F00CCFF7DF06F00D0FF7EF07D5175275E
:1015D000000E7623772378237E517927000E7A2315
:1015E0007B237C2377C078F076C077F075C076F0E7
:1015F000756B6A5167036F00CCFF7DF06F00D0FF01
:101600007EF07D5175277E517623000E7723000EE4
:1016100078236B5166036F00CCFF7DF06F00D0FF25
:101620007EF07D5175277E517623000E7723000EC4
:10163000782377C078F076C077F075C076F0756B58
:101640006A5166036F00CCFF7DF06F00D0FF7EF023
:101650007D5175277E517623000E7723000E782367
:101660006C5167036F00CCFF7DF06F00D0FF7EF000
:101670007D5179277E517A23000E7B23000E7C2337
:101680006B5168036F00CCFF7DF06F00D0FF7EF0E0
:101690007D5179277E517A23000E7B23000E7C2317
:1016A0006C5168036F00CCFF7DF06F00D0FF7EF0BF
:1016B0007D516E6F7E516F6F706B716B70C071F08A
:1016C0006FC070F06EC06FF06E6B6E5179276F5106
:1016D0007A2370517B2371517C2378517927000E36
:1016E0007A237B237C2377C078F076C077F075C0AF
:1016F00076F0756B735174C06EF06F6B6E27000ED1
:101700006F23820E6E257D6FFF0E6F217E6F0FD0CF
:10171000D89079377A377B377C3778BF7981D89002
:1017200075377637773778377D07D8A07E077BAF58
:10173000EFD7000E736F78AF17D0FF0E75156E6F71
:10174000FF0E76156F6FFF0E7715706F7F0E781591
:10175000716F6E516F1170117111D8B403D0010EF9
:10176000736F02D079B1FBD77351D8B41FD0010E7B
:101770007927000E7A237B237C237CA117D079C0A4
:101780006EF07AC06FF07BC070F07CC071F0713584
:10179000713370336F336E336EC079F06FC07AF08F
:1017A00070C07BF071C07CF07D4B7E2B7EBF0DD076
:1017B0007E5103E17D29D8A008D0000E796F000E7C
:1017C0007A6F800E7B6F7F0E20D07EBF05D07E515A
:1017D0000EE17D05D8B00BD0000E796F000E7A6F48
:1017E000000E7B6F000E7C6F000E726F0FD07DC0FD
:1017F00074F0FF0E7917FF0E7A177F0E7B17000E1D
:101800007C1774B17B8FD89074317C6F72517C13CC
:1018100079C066F07AC067F07BC068F07CC069F080
:1018200012002050800B646F20502024666F1FBE72
:1018300066816651D8B40DD06629D8A408D0000EB0
:101840001D6E000E1E6E000E1F6E000E206E1F8E8F
:1018500006D0000E1D6E000E1E6E000E1F6E000ED6
:10186000206E2450800B656F64516519D8A4648D77
:1018700024502424656F23BE65816551D8B40DD0F2
:101880006529D8A408D0000E216E000E226E000E2D
:10189000236E000E246E238E06D0000E216E000EE5
:1018A000226E000E236E000E246E6651655DD8B068
:1018B00022D064AD02D0800E641B66C067F065C0A4
:1018C00066F067C065F01DC067F021C01DF067C0FD
:1018D00021F01EC067F022C01EF067C022F01FC0BA
:1018E00067F023C01FF067C023F020C067F024C05A
:1018F00020F067C024F0000E676F665165C060F08D
:10190000616B605F000E615B61BF2CD0615104E1CF
:101910001A0E605DD8A026D01D501E101F1020107A
:10192000D8B402D0010E01D0000E676F000E1D6EFC
:10193000000E1E6E000E1F6E000E206E65C066F05B
:1019400015D067A105D0D89067310109676F02D023
:10195000D89067331DB0678F203420321F321E327B
:101960001D32662B6551665DD8A0EBD764BD28D0CB
:101970006651D8A409D0000E1D6E000E1E6E000E1A
:101980001F6E000E206E120021501D2622501E22B6
:1019900023501F222450202220A071D067A105D0FF
:1019A000D89067310109676F02D0D89067331DB0B6
:1019B000678F203420321F321E321D32662B5FD0DB
:1019C00021501D5C22501E5823501F582050800A61
:1019D000606F2450800A6059D8B025D01D50215C1A
:1019E000606F1E502258616F1F502358626F205045
:1019F0002458636FFF0E60251D6EFF0E61211E6E61
:101A0000FF0E62211F6EFF0E6321206E800E641B8D
:101A1000676D6751D8A40FD0010E1D26000E1E223F
:101A20001F22202208D021501D5E22501E5A235012
:101A30001F5A2450205A1D501E101F102010D8A4C9
:101A40001CD06751D8A419D0000E1D6E000E1E6E5A
:101A5000000E1F6E000E206E1200D8901D361E362E
:101A60001F36203667BF1D8067A102D0D88001D005
:101A7000D89067376651D8A466071FAEEED7000E20
:101A8000656F67AF0BD067C060F07F0E6017D8B48A
:101A900003D0010E656F02D01DB0FBD76551D8B4DD
:101AA00020D0010E1D26000E1E221F22202220A063
:101AB00018D01DC060F01EC061F01FC062F020C0D1
:101AC00063F06335633362336133603360C01DF0AC
:101AD00061C01EF062C01FF063C020F06629D8A468
:101AE000662B6629D8B403D06651D8A40DD0000E59
:101AF0001D6E000E1E6E000E1F6E000E206E6651D3
:101B0000D8A402D0000E646F66A102D01F8E01D04F
:101B10001F9ED8906631206E64BF208E1DC01DF0C0
:101B20001EC01EF01FC01FF020C020F0120058EC95
:101B3000A0F0BD92BE945A0E1D6E460E1E6E010E92
:101B40001F6E18ECA4F0D60E1D6E3C0E1E6E010E1C
:101B50001F6E1FECA4F0CC0E1D6E420E1E6E010E09
:101B60001F6E34ECA4F06000F3F0F1FE000E1E6E68
:101B7000000E1D6EBAECA1F0000E1E6E000E1D6E62
:101B8000A1ECA1F0B60E1D6E480E1E6E010E1F6E6A
:101B90002DECA4F0D28ED28C0001F85146ECA4F0CA
:101BA00034EC99F00C0ECBECA3F0420E0001666F02
:101BB000FF0E676F21EC9CF064ECA3F0000E0001B7
:101BC000DA6F040EDB6FB00EDC6FFF0EDD6FC10E3F
:101BD000DE6FFF0EDF6FCD0EE06FFF0EE16F97EC53
:101BE0009DF0000E696F040E6A6F97ECA0F0000183
:101BF000FA51D8B4FCD7840E285C030E2958D8B00B
:101C000004D0000EF1EC99F00DD0090E285C070EFF
:101C10002958D8A004D0010EF1EC99F003D0020E9F
:101C2000F1EC99F02B5008E1320E2A5CD8B004D0C8
:101C3000030EF1EC99F00DD02B5004E1970E2A5CC5
:101C4000D8A004D0040EF1EC99F003D0050EF1EC0D
:101C500099F0000E0001FA6FCABC04D00B0EF1EC33
:101C600099F003D0090EF1EC99F0CAB804D0070E30
:101C7000F1EC99F003D0060EF1EC99F00001FB5164
:101C8000D8B4B5D728C01DF029C01EF01F6A206A3D
:101C9000000E86EC95F01DC066F01EC067F01FC0F8
:101CA00068F020C069F0970E6A6F750E6B6FCF0EEB
:101CB0006C6F3E0E6D6F69EC8AF066C068F167C0AC
:101CC00069F168C06AF169C06BF12AC01DF02BC0D0
:101CD0001EF01F6A206A000E86EC95F01DC066F0AB
:101CE0001EC067F01FC068F020C069F06F0E6A6FF9
:101CF000120E6B6F830E6C6F3B0E6D6F69EC8AF08A
:101D000066C064F167C065F168C066F169C067F1DB
:101D1000C20E0201D96FFE0EDA6FF9C0DBF2DC6B86
:101D200055ECA4F00001E26FE2510201DD6FDE6BC1
:101D300028C0DFF229C0E0F268C1E1F269C1E2F235
:101D40006AC1E3F26BC1E4F22AC0E5F22BC0E6F20D
:101D500064C1E7F265C1E8F266C1E9F267C1EAF27F
:101D600074ECA2F08D0E0001666FFF0E676F21EC20
:101D70009CF01ED0F851FD5DD8B002D0000EF86F77
:101D8000F82BF85146ECA4F007D0BA9A24D0FCC046
:101D9000F8F0F85146ECA4F0BD82F7D7000EF96FC9
:101DA000000EF86F000E46ECA4F0BD92BA8A13D074
:101DB0000001F951E26FE36BE351000AD8A4EED7BA
:101DC000E251000AD8B4EAD7010AD8B4D3D7030A3B
:101DD000D8B4DDD7E3D7000E00017A6F030E7B6F16
:101DE00036EC94F0000E0001FB6FCBB009D0F72B5E
:101DF000040EF765FCD6F92B000EF76FBE84F7D6FC
:101E0000000EF76FBE94F3D62050800B686F205001
:101E100020246F6F1FBE6F816F51D8B40DD06F2912
:101E2000D8A408D0000E1D6E000E1E6E000E1F6E90
:101E3000000E206E1F8E06D0000E1D6E000E1E6E50
:101E4000000E1F6E000E206E2450800B681B245065
:101E50002424706F23BE70817051D8B40DD07029C6
:101E6000D8A408D0000E216E000E226E000E236E44
:101E7000000E246E238E06D0000E216E000E226E00
:101E8000000E236E000E246E215022102310241009
:101E9000D8A417D0000E1D6E000E1E6E000E1F6E11
:101EA000000E206E800E1F127F0E2012685120122D
:101EB0001DC01DF01EC01EF01FC01FF020C020F06E
:101EC00012006F51D8A409D0000E1D6E000E1E6EB8
:101ED000000E1F6E000E206E120070516FC060F079
:101EE000616B605F000E615B7F0E6025696F000EA5
:101EF00061216A6F1DC064F01EC065F01FC066F0EE
:101F000020C067F0000E1D6E000E1E6E000E1F6ECC
:101F1000000E206E000E6B6F000E6C6F000E6D6F6A
:101F2000000E6E6F000E706F28D07051D8B411D0B3
:101F3000D8906437653766376737D8901D361E36B8
:101F40001F3620366EBF1D80D8906B376C376D37CB
:101F50006E372150645D22506559235066592450D4
:101F60006759D8A009D06E8D2150645F2250655BFF
:101F70002350665B2450675B702B190E7065D5D7B4
:101F80006451651166116711D8B411D06B810FD0FF
:101F9000D8901D361E361F3620366EBF1D80D89055
:101FA0006B376C376D376E376907D8A06A071FAE7D
:101FB000EFD7000E706F6EAF17D0FF0E6B15606F0E
:101FC000FF0E6C15616FFF0E6D15626F7F0E6E1543
:101FD000636F6051611162116311D8B403D0010EB7
:101FE000706F02D01DB0FBD77051D8B41FD0010E56
:101FF0001D26000E1E221F22202220A017D01DC049
:1020000060F01EC061F01FC062F020C063F0633555
:10201000633362336133603360C01DF061C01EF012
:1020200062C01FF063C020F0694B6A2B6ABF10D0FA
:102030006A5103E16929D8A00BD0000E6A6F696963
:10204000000E1D6E000E1E6E000E1F6E000E206E26
:102050006ABF05D06A5111E16905D8B00ED0000EF3
:102060006A6F000E696F000E1D6E000E1E6E000E70
:102070001F6E000E206E000E686F69C06FF06FA1BA
:1020800002D01F8E01D01F9ED8906F31206E0ED7C8
:10209000000E0001796F000E786F020E6E251D6E26
:1020A000000E6F211E6EBBEC9EF01D501E10D8A4BA
:1020B00002D0030E1200020E00016E251D6E000EEE
:1020C0006F211E6EBBEC9EF01E5003E1020E1D5CE4
:1020D000D8B07FD0020E12007951050D6F00CCFFF1
:1020E00070F06F00D0FF71F06000BBF1D9FF6000AD
:1020F000BFF1DAFF6F0078FF72F06F0074FF73F0CA
:1021000070517225D96E71517321DA6E6F0078FFAC
:1021100021F06F0074FF22F0020E6E25236E000E78
:102120006F21246E7951050D6F00CCFF74F06F00A4
:10213000D0FF75F06000BBF1D9FF6000BFF1DAFF9E
:102140006F0078FF76F06F0074FF77F0745176259A
:10215000D96E75517721DA6E6F0078FF1DF06F0030
:1021600074FF1EF0BBEC9EF01DC025F01EC026F0D3
:10217000D7EC92F021502210D8A429D06EC06CF078
:102180006FC06DF000017951050D6000BBF1D9FF02
:102190006000BFF1DAFF6F0078FF70F06F0074FF2E
:1021A00071F0F3507027F4507123020E7025D96E30
:1021B000000E7121DA6E01D82AD00500FA6EDE50C9
:1021C000FD6EDE50FE6EDE50FF6EFA501200000112
:1021D000792B00017951050D6000BBF1D9FF60003A
:1021E000BFF1DAFF6F0078FF70F06F0074FF71F0DD
:1021F000F3507027F4507123020E7025D96E000E33
:102200007121DA6EDE50DE10DE10D8A465D7000131
:102210007951050D6000BBF1D9FF6000BFF1DAFF15
:102220006F0078FF70F06F0074FF71F0F35070274B
:10223000F4507123020E7025D96E000E7121DA6EF2
:10224000DE50DE10DE10D8A402D0010E786F785177
:1022500012000001F6AF3592F6BF05D0F65108E145
:10226000F505D8B005D0000E876F010E866F04D03B
:10227000F5C086F0F6C087F0F3C088F0F4C089F0AE
:1022800076C08AF077C08BF078C08CF079C08DF082
:102290007AC08EF07BC08FF07CC090F07DC091F052
:1022A000000E936F4F0E926F000E0101C66F76D035
:1022B0009207D8A09307770E9225D96E010E93212D
:1022C000DA6E8AC060F08BC061F08CC062F08DC0A5
:1022D00063F08EC064F08FC065F090C066F091C06E
:1022E00067F00A0E686F000E696F000E6A6F000ECD
:1022F0006B6F000E6C6F000E6D6F000E6E6F000E38
:102300006F6FA7EC9AF060C07EF061C07FF062C092
:1023100080F063C081F064C082F065C083F066C065
:1023200084F067C085F07E51300FDF6E8607D8A03D
:1023300087078807D8A089078AC060F08BC061F042
:102340008CC062F08DC063F08EC064F08FC065F009
:1023500090C066F091C067F00A0E686F000E696F5A
:10236000000E6A6F000E6B6F000E6C6F000E6D6FCB
:10237000000E6E6F000E6F6F9DEC97F060C08AF0DC
:1023800061C08BF062C08CF063C08DF064C08EF0D1
:1023900065C08FF066C090F067C091F00001925167
:1023A0009311D8B41AD08A518B118C118D118E11C2
:1023B0008F1190119111D8A47BD787BF05D0875179
:1023C00002E18605D8B074D789BF07D0895103E1EF
:1023D0008805D8A002D035B26BD774C069F075C03B
:1023E0006AF0770E92256B6F010E93216C6F88C097
:1023F0006DF089C06EF04DEC9BF069C074F06AC05E
:1024000075F0120058C181F059C182F05AC183F0B1
:102410005BC184F071C081F072C082F073C083F040
:1024200074C084F0810E756FFF0E766F81C077F0F7
:1024300082C078F083C079F084C07AF0180E05D09D
:10244000D8907A33793378337733E82EF9D77751C8
:1024500075257F6F000E7621806F80BF0FD0805171
:1024600004E1170E7F5DD8A009D071C071F072C071
:1024700072F073C073F074C074F0120080BF5CD04F
:102480007FC075F0FF0E766FFF0E776F7F0E786F4F
:10249000000E796F756701D007D0793579337833BD
:1024A00077337633752FF6D776C07BF077C07CF024
:1024B00078C07DF079C07EF000017B518115756F89
:1024C0007C518215766F7D518315776F7E5184150F
:1024D000786F7551761177117811D8B4C6D781C04D
:1024E00075F082C076F083C077F084C078F0200E5B
:1024F00005D0D8907833773376337533E82EF9D713
:102500007551D8B408D07B5181277C5182237D51ED
:1025100083237E5184237B1D756F7C1D766F7D1D0B
:10252000776F7E1D786F75518117765182177751BD
:1025300083177851841732D081C075F082C076F04D
:1025400083C077F084C078F0200E05D0D89078331F
:10255000773376337533E82EF9D7756708D0000ED8
:10256000816F000E826F000E836F000E16D0D89020
:102570008135756F8235766F8335776F8435786FE7
:102580007551761177117811D8B408D0000E816F8B
:10259000000E826F800E836FBF0E846F81C071F05A
:1025A00082C072F083C073F084C074F0120021C046
:1025B00062F022C063F023C064F024C065F02506F9
:1025C000D8A02606252810E12628D8A40DD0000E74
:1025D000226E000E216E12000001624B632B644BD1
:1025E000652B2506D8A0260660008BF1F6FF60005B
:1025F0008FF1F7FF000EF86E1F0EF76403D008008E
:10260000F55007D06F00DBFFE1FF6F00DFFFE2FF57
:10261000E7500009D8B44BD0600093F1F6FF60009A
:1026200097F1F7FF000EF86E1F0EF76403D0080055
:10263000F55007D06F00DBFFE1FF6F00DFFFE2FF27
:10264000E7500009D8B433D025502610D8B42FD085
:10265000600093F1F6FF600097F1F7FF000EF86E4F
:102660001F0EF76403D00800F55007D06F00DBFFA2
:10267000E1FF6F00DFFFE2FFE7500001606F6000E5
:102680008BF1F6FF60008FF1F7FF000EF86E1F0E62
:10269000F76403D00800F55007D06F00DBFFE1FFBF
:1026A0006F00DFFFE2FFE7506019D8B495D76000F4
:1026B0008BF1F6FF60008FF1F7FF000EF86E1F0E32
:1026C000F76403D00800F55007D06F00DBFFE1FF8F
:1026D0006F00DFFFE2FFE7500001606F600093F1E1
:1026E000F6FF600097F1F7FF000EF86E1F0EF7641B
:1026F00003D00800F55007D06F00DBFFE1FF6F004B
:10270000DFFFE2FFE7500001616F6151605D216E04
:10271000226AD8A02206120020EED1F110EE65F058
:10272000060E6F006FFFE3FFE806FBE262C070F089
:1027300063C071F0000170517111D8A403D0650E0F
:10274000706F716B70C01DF071C01EF0BBEC9EF01D
:102750001DC074F01EC075F0F5C072F0F6C073F0C5
:10276000000173BF0ED07451725D7351800A646FA3
:102770007551800A6459D8B004D072C074F073C027
:1027800075F074C072F075C073F0F3C06EF0F4C0F1
:102790006FF035A00ED017D0000E206E200E1F6EE9
:1027A00060C021F061C022F04DEC9AF00001744B42
:1027B000752B6E51745D7551800A646F6F51800A7C
:1027C0006459D8A0E9D7000E6D6F000E6C6F25D04C
:1027D0006000C3F1F6FF6000C7F1F7FF000EF86E6E
:1027E0001F0EF76403D00800F55007D06F00DBFF21
:1027F000E1FF6F00DFFFE2FFE7500001646F64510B
:102800001F6E206A60C021F061C022F04DEC9AF08A
:102810000001704B712B6C4B6D2B72516C5D6D51C7
:10282000800A646F7351800A6459D8A0D1D735B03B
:102830000ED017D0000E206E200E1F6E60C021F04B
:1028400061C022F04DEC9AF00001744B752B6E5173
:10285000745D7551800A646F6F51800A6459D8A005
:10286000E9D774C060F075C061F01200000E816F8E
:10287000810E1E6E87ECA2F00009D8B4120089D038
:1028800020EE82F07A51D9267B51DA227E0EDF6467
:102890000CD020EE82F07A51D9267B51DA22DF501B
:1028A0007C6F7C517F6F806B0ED020EE82F07A516E
:1028B000D9267B51DA22DF507C6F010E7C257F6F99
:1028C000806B000E80237F517A257C6F80517B21A5
:1028D0007D6F020E7C25D96E000E7D21DA6E000E12
:1028E000DF6E780E6C6FFF0E6D6F020E6E6FD9EC9F
:1028F000A3F07AC06EF07BC06FF048EC90F03B6EB6
:10290000000120EE82F07A51D9267B51DA22000EA6
:10291000DF6E020E7A251D6E000E7B211E6E000EEC
:10292000206E000E1F6E000E226E800E216EDFECF8
:1029300094F0120020EE82F07A51D9267B51DA22EF
:102940007F0EDF60120020EE82F07A51D9267B5193
:10295000DA22DF507C6F7C517A257D6F000E7B215F
:102960007E6F020E7D25D96E000E7E21DA6E60002C
:1029700007F2DFFF20EE82F07A51D9267B51DA226E
:10298000DF2A810E6C6F6D6B010E6E6FD9ECA3F0B8
:102990001200000181517C6F7D6B7D51000AD8A42B
:1029A000C9D77C510D0AD8B46BD7160AD8B4120017
:1029B000650AD8B41200010AD8B41200BBD71DC0F2
:1029C00062F01EC063F021502210D8B412006000E3
:1029D0008BF1D9FF60008FF1DAFF60007FF0DFFF3D
:1029E000215000016225236E22506321246EFF0EC8
:1029F0002324D96EFF0E2420DA6E60007FF0DFFF03
:102A0000225004E1030E215CD8A0120020EE01F058
:102A10006251D9266351DA2260007FF0DFFF20EE99
:102A200002F06251D9266351DA2260007FF0DFFFA5
:102A300021506225236E22506321246EFE0E232432
:102A4000D96EFF0E2420DA6E60007FF0DFFF215088
:102A50006225236E22506321246EFD0E2324D96E3D
:102A6000FF0E2420DA6E60007FF0DFFF225004E1C9
:102A7000070E215CD8A0120020EE03F06251D92687
:102A80006351DA2260007FF0DFFF21506225236E60
:102A900022506321246EFC0E2324D96EFF0E2420C5
:102AA000DA6E60007FF0DFFF225004E1090E215C46
:102AB000D8A0120062C023F063C024F0231E241E9D
:102AC000234A242A030E2314606F616B605162272E
:102AD000615163236051215E6151225AFC0E21161F
:102AE000FF0E22160ED060008BF1D9FF60008FF12F
:102AF000DAFF60007FF0DFFF2106D8A02206624BDC
:102B0000632B21502210D8B41200EDD7606F000162
:102B10006051D8A420AE1AD01DC021F01EC022F0F2
:102B20001FC023F020C024F0211E221E231E241EBD
:102B3000212A000E22222322242221C062F022C058
:102B400063F023C064F024C065F008D01DC062F0BB
:102B50001EC063F01FC064F020C065F01D501E1041
:102B60001F102010D8A409D0000E1D6E000E1E6E7E
:102B7000000E1F6E000E206E1200960E616F06D0C2
:102B8000612BD8906533643363336233000E621572
:102B9000216E000E6315226E000E6415236EFE0E6C
:102BA0006515246E2150221023102410D8B40DD0A6
:102BB000E7D7612B010E6227000E63236423652390
:102BC000D8906533643363336233000E6215216E2F
:102BD000000E6315226E000E6415236EFF0E651540
:102BE000246E2150221023102410D8B407D0E1D72E
:102BF0006107D890623763376437653764BF03D0A5
:102C0000020E6161F5D761A1649FD890613361C004
:102C100021F0226A236A246A21C024F0236A226AEE
:102C2000216A2150621322506313235064132450ED
:102C300065136051D8A420AE01D0658F62C01DF02D
:102C400063C01EF064C01FF065C020F01200000ECB
:102C5000676F000E666F000E656F000E646F02D026
:102C6000244A252A600093F0F6FF600097F0F7FFF2
:102C7000000EF86E0800F550200AD8B4F1D7F70E10
:102C8000606FFF0E616F600093F0F6FF600097F0D9
:102C9000F7FF000EF86E0800F550626F636B60512D
:102CA00062276151632363510CE1050E625DD8B068
:102CB00008D0D6D7000E656F010E646F244A252A0E
:102CC00036D0600093F0F6FF600097F0F7FF000E3B
:102CD000F86E0800F550606F616B6151000AD8A46E
:102CE00026D060512B0AD8B4E9D7060AD8B4E2D767
:102CF0001ED066C01DF067C01EF0000E206E0A0ECA
:102D00001F6E5FECA2F0600093F0F6FF600097F09A
:102D1000F7FF000EF86E0800F5501D5E000E1E5AFB
:102D2000300E1D24666F000E1E20676FC7D7D00EB1
:102D3000606FFF0E616F600093F0F6FF600097F028
:102D4000F7FF000EF86E0800F550626F636B60517C
:102D5000622761516323635104E10A0E625DD8A0CA
:102D6000C8D764516511D8A40DD066C060F067C0A3
:102D700061F0601F611F604B612B60C024F061C077
:102D800025F0120066C024F067C025F0120093976A
:102D9000FC0E1D6E350E1E6E010E1F6EF5ECA3F0BF
:102DA0009399900E1D6E440E1E6E010E1F6EEEEC7A
:102DB000A3F0939B960E1D6E480E1E6E010E1F6EA5
:102DC00003ECA4F0939DBC0E1D6E480E1E6E010E0A
:102DD0001F6EE7ECA3F0000E3D01EC6F000EED6FEF
:102DE000000EEE6F000EEF6F000EF06F000EF16F31
:102DF000B00EF26F900EF36F000EF46F8A0EF56F47
:102E0000000EF66F000EF76F000EF86F000EF96FF0
:102E1000000EFA6FC60E1D6E480E1E6E010E1F6E5E
:102E20000AECA4F0C40E1D6E480E1E6E010E1F6E3D
:102E3000FCECA3F0B00E1D6E480E1E6E010E1F6E50
:102E400011ECA4F0000E3D6E000E436E000E426EBB
:102E5000400E416E000E406E000E3F6E000E3E6E44
:102E600039019387938B938D1200000E7F15876F26
:102E7000000E8015886F800E8115896F7F0E821578
:102E80008A6F8751881189118A11D8A408D0000E41
:102E90007F6F000E806F000E816F000E826F000E3C
:102EA0008315876F000E8415886F800E8515896FD6
:102EB0007F0E86158A6F8751881189118A11D8A4CF
:102EC00008D0000E836F000E846F000E856F000E19
:102ED000866F82AF09D07F6D801FD8B0802B811F95
:102EE000D8B0812B800E825786AF09D0836D841FA6
:102EF000D8B0842B851FD8B0852B800E8657000E46
:102F00007F1B000E801B000E811B800E821B000E9B
:102F1000831B000E841B000E851B800E861B8351B5
:102F20007F5D845180598551815986518259D8B02D
:102F300002D0D8901200D880120020EE1DF0070EAB
:102F4000DE6AE806FDE2685169116A116B116C11C5
:102F50006D116E116F11D8B446D0010E256E0AD0D6
:102F6000D890683769376A376B376C376D376E378B
:102F70006F37252A6FAFF4D7D8901D361E361F360F
:102F8000203621362236233624366851605D695159
:102F900061596A5162596B5163596C5164596D5151
:102FA00065596E5166596F516759D8A011D0685153
:102FB000605F6951615B6A51625B6B51635B6C512D
:102FC000645B6D51655B6E51665B6F51675B1D8025
:102FD000D8906F336E336D336C336B336A33693330
:102FE0006833252EC9D71DC060F01EC061F01FC018
:102FF00062F020C063F021C064F022C065F023C0FD
:1030000066F024C067F01200000EBE6E110EBD6E99
:10301000200EBA6E000EBF6E000EBB6E070EBC6EA9
:10302000020EC66E0B0EC76EDF0EC26EC368900E28
:10303000C46E080EC56E080E3A01706F000E606F08
:10304000FE0E506F020E806F0B0E906F8F0E406F52
:10305000000E716F000E916F000E816F010E516FA7
:10306000500E416F000E616F000E5A6F000E5B6FC5
:10307000000E6A6F000E6B6F000E7A6F000E7B6F92
:10308000000E826F000E926F000E426F000E526FA4
:10309000000E626F000E726F436953696369736952
:1030A000070E836F936944695469646974690F0EEC
:1030B000846F94690E0E1A6F130EDE6F1E0E136F5F
:1030C0001F0E156F130E166F170EE56F0D0E2A6F7C
:1030D000140EDF6F12005CC162F05DC163F05EC16F
:1030E00064F05FC165F01DC062F01EC063F01FC0D8
:1030F00064F020C065F062C021F063C022F064C0BB
:1031000023F065C024F0180E05D0D8902432233265
:1031100022322132E82EF9D72150606F616B605165
:103120006111D8A419D0D8906235216E6335226E12
:103130006435236E6535246E21502210231024102F
:10314000D8A405D0000E1E6E020E1D6E1200000ED9
:103150001E6E030E1D6E120060296111D8A41CD0D2
:1031600062C021F063C022F064C023F065C024F087
:10317000090ED8902136223623362436E82EF9D788
:103180002150221023102410D8A402D0010E01D007
:10319000000E1D6E1E6A1200000E1E6E040E1D6EC5
:1031A0001200D20EF66E100EF76E010EF86E01EEE2
:1031B000FFF011EE00F009006F00D7FFEEFFE550C1
:1031C000E150F9E1E250F7E1060EF66E440EF76EBB
:1031D000010EF86E00EED1F110EE2EF009006F0036
:1031E000D7FFEEFFE550E150F9E1C20EF66E480E52
:1031F000F76E010EF86E09006F00D4FFFCF00900B5
:103200006F00D4FFFDF001EE00F010EEFFF0EE6A6B
:10321000E550E150FCE1E250FAE100EE00F3830EEC
:10322000EE6AE806FDE100EE00F2C30EEE6AE80683
:10323000FDE100EE00F1D10EEE6AE806FDE100EEE0
:10324000E4F0180EEE6AE806FDE100EE28F01C0E30
:10325000EE6AE806FDE1080ED56E000ED66E000E91
:10326000D76E000197EF8DF0800E0101466F020EC0
:10327000476F46C125F047C126F000ECA3F03D01A1
:10328000149F200E156F030E166F040E196F020E99
:103290001C6F830E146F148F300E1D6E570E1E6E32
:1032A000050E1F6E000E206E49ECA1F0460E0FECCD
:1032B000A1F0410E2CECA1F0500E1D6E000E1E6E02
:1032C000000E1F6E000E206E49ECA1F0530E2CEC88
:1032D000A1F0020EF0ECA2F0500E1D6E000E1E6E5C
:1032E000000E1F6E000E206E49ECA1F0510E0FEC87
:1032F000A1F03D01149F020E166F148F1A933F0E1A
:103300003B01FD17FD9BFD51F90B0209FD6FE70E17
:10331000FD17FD81800EF96F020EFA6F000EFB6F34
:10332000FC9B3D011A8312001F342034266E265068
:10333000D8A409D0000E1D6E000E1E6E000E1F6E6A
:10334000000E206E12001DC021F01EC022F01FC012
:1033500023F020C024F0200E05D0D8902432233250
:1033600022322132E82EF9D72150256E1F8EFF0E12
:103370001D16FF0E1E16FF0E1F16000E2016960EAF
:10338000265E26AE0DD02650800A970FD8A0D2D741
:10339000D89020321F321E321D32263EF9D70DD072
:1033A0001F0E266407D0C6D7D8901D361E361F368E
:1033B000203626062650D8A4F7D72550D8B408D0F2
:1033C000201E1F1E1E1E1D6C000E1E221F222022EC
:1033D0001DC01DF01EC01EF01FC01FF020C020F039
:1033E00012001F6E2DD0BD98BD9A1200BD98BD8AE7
:1033F0001200BD88BD9A1200BD9CBD9E1200BD9CEE
:10340000BD8E1200BD8CBD9E1200BF98BF9A1200E7
:10341000BF98BF8A1200BF88BF9A1200BF9CBF9E90
:103420001200BF9CBF8E1200BF8CBF9E1200BD98C1
:10343000BD9ABD9CBD9EBF98BF9ABF9CBF9E120007
:103440001F501D6E1E6A1E50000AD8A4F0D71D50D2
:10345000000AD8B4C8D7010AD8B4CBD7030AD8B465
:10346000C5D7010AD8B4C8D7070AD8B4CBD7010A40
:10347000D8B4C5D7030AD8B4C8D7010AD8B4CBD7B3
:103480000F0AD8B4C5D7010AD8B4C8D7030AD8B42C
:10349000CBD7010AD8B4C5D7CAD721502210D8B487
:1034A00004D021502210D8A404D01F5041ECA4F025
:1034B0004AD020EE09F02150D9262250DA22DE50DF
:1034C000DE10D8B416D020EE09F02150D9262250B3
:1034D000DA2210EE03F02150E1262250E222DE50E3
:1034E000E65CE650800A276EDE50800A2758D8B086
:1034F0002AD020EE03F02150D9262250DA226F0084
:1035000078FF23F06F0074FF24F0600087F0D9FF8C
:1035100060008BF0DAFF6F0078FF25F06F0074FF1A
:1035200026F023502524D96E24502620DA6E600020
:103530007FF0DFFF20EE03F02150D9262250DA225F
:10354000DE2A000EDD221FC01FF0206A1200685123
:1035500069116A116B116C116D116E116F11D8B474
:103560003CD0010E1D6E0AD0D890683769376A3793
:103570006B376C376D376E376F371D2A6FAFF4D7E7
:103580006851605D695161596A5162596B51635963
:103590006C5164596D5165596E5166596F51675937
:1035A000D8A010D06851605F6951615B6A51625B5D
:1035B0006B51635B6C51645B6D51655B6E51665B17
:1035C0006F51675BD8906F336E336D336C336B33F1
:1035D0006A33693368331D2ED3D760C060F061C091
:1035E00061F062C062F063C063F064C064F065C003
:1035F00065F066C066F067C067F01200000E4024F8
:10360000D96EDA6A010EDA22000EDF6E3D01F9A7EB
:1036100014D0000E4024D96EDA6A010EDA220101BC
:10362000DF8201D80AD00500FA6E7251FD6E735127
:10363000FE6E7451FF6EFA5012003D01F9A314D0D2
:10364000000E4024D96EDA6A010EDA220101DF840D
:1036500001D80AD00500FA6E6F51FD6E7051FE6EF2
:103660007151FF6EFA501200000E4024D96EDA6AD2
:10367000010EDA22DF50D8B40DD001D812000500B7
:10368000FA6E01016C51FD6E6D51FE6E6E51FF6E52
:10369000FA501200DFECA2F0120035A00AD06BC085
:1036A00060F06CC061F069C062F06AC063F0D3EC96
:1036B0009CF06EBF05D06DC072F06EC073F004D088
:1036C000000E736F000E726F000E716F000E706F40
:1036D0000DD0000E206E200E1F6E69C021F06AC052
:1036E00022F04DEC9AF00001704B712B7251705D1D
:1036F0007151800A6F6F7351800A6F59D8A0E9D752
:1037000035B00AD06BC060F06CC061F069C062F087
:103710006AC063F0D3EC9CF06BC01DF06CC01EF06F
:10372000BBEC9EF0000172511D24696F73511E2085
:103730006A6F1200000E1D14606F000E1E14616F80
:10374000800E1F14626F7F0E2014636F6051611131
:1037500062116311D8A408D0000E1D6E000E1E6EFB
:10376000000E1F6E000E206E000E2114606F000E02
:103770002214616F800E2314626F7F0E2414636F16
:103780006051611162116311D8A408D0000E216E3E
:10379000000E226E000E236E000E246E21501D18A6
:1037A0000AE122501E1807E123501F1804E124509B
:1037B0002018D8B402D0D8901200D8801200000E81
:1037C000226E20AE06D01F6C201ED8B0202A010E1B
:1037D000226E1EAE06D01D6C1E1ED8B01E2A010E13
:1037E000221A000E246E000E236E1F502010D8B433
:1037F0001CD0010E216E04D0D8901F362036212A0D
:1038000020AEFAD7D890233624361F501D5C2050A6
:103810001E58D8A005D01F501D5E20501E5A238070
:10382000D89020321F32212EEDD72250D8B404D0A8
:10383000236C241ED8B0242A23C01DF024C01EF0FF
:10384000120066C01DF067C01EF0BBEC9EF01D505C
:1038500000016A6F4FECA4F046C125F047C126F085
:10386000000E276E18EC9EF0BC94400E00016A65B5
:1038700013D0400E6625686F000E6721696F6000E7
:10388000A3F1F6FF6000A7F1F7FF000EF86E000E3F
:10389000F56E0C00400E6A6F3B01FC9F6000ABF1BF
:1038A000F7FBF86BFC8F46C160F047C161F066C062
:1038B00062F067C063F06AC064F0EEEC9DF052EC19
:1038C000A4F01200000E3E01DE6F000EDF6F000E4E
:1038D000E06F000EE16F000EE46F000EE56F000E6A
:1038E000EA6F000EEC6F000EF16F100EF36F000E1A
:1038F000F46F000EF56F000EF66F000EF76F000EFE
:10390000F96F000EFA6F200EFB6F000EFC6F020EB7
:10391000FD6F070EFE6F1F0EFF6F840EF86F3901EB
:10392000A1959185C80E1D6E480E1E6E010E1F6E6C
:1039300034ECA4F01200000E226E1EAE06D01D6CF8
:103940001E1ED8B01E2A010E226E20AE04D01F6C9F
:10395000201ED8B0202A1F502010D8B418D0010E35
:10396000216E04D0D8901F362036212A20AEFAD7F7
:103970001F501D5C20501E58D8A004D01F501D5E43
:1039800020501E5AD89020321F32212EF1D72250BB
:10399000D8B404D01D6C1E1ED8B01E2A1DC01DF048
:1039A0001EC01EF01200000E686F000E676F0CD074
:1039B00066C01FF0206A62C021F063C022F04DECA7
:1039C0009AF00001674B682B67516025646F68515E
:1039D0006121656F600093F1F6FF600097F1F7FFDA
:1039E000000EF86E1F0EF76403D00800F55007D0E4
:1039F0006F00DBFFE1FF6F00DFFFE2FFE750000138
:103A0000666F6651D8A4D4D767C060F068C061F013
:103A10001200D4C0D8F0D5C0D9F0000E0101766FE5
:103A2000000E756F14D0D2C0C9F0D3C0CAF0D80E42
:103A30000001CB6FD6C0CCF0D7C0CDF0DCEC84F069
:103A4000C951010175270001CA51010176236000A7
:103A500063F3F6FF600067F3F7FF000EF86E0800EF
:103A6000F5500009D8A4DFD775C1D2F076C1D3F0E4
:103A700012001FC023F020C024F01DC025F01EC07E
:103A800026F02350216E2450226E234A242A6000FF
:103A900087F0F6FF60008BF0F7FF000EF86E600015
:103AA00097F0D9FF60009BF0DAFF254A262A1F0E07
:103AB000F76403D00800F55007D06F00DBFFE1FF8B
:103AC0006F00DFFFE2FFE750DF6EDF50D8B4120077
:103AD000D8D7C70E3B01F96F010EFA6F000EFB6FCE
:103AE0003D0EF16F110EF06F030EFD6F000EF86FBB
:103AF000010EF76F000EEF6F010EEE6F150EFF6FE8
:103B0000000EFE6F3901A293A291A297A295929303
:103B10009281D00E1D6E480E1E6E010E1F6E2DEC92
:103B2000A4F092979295C00E3B01FC6F1200DE0E3E
:103B30000201D96FDA6BDAC0DBF2DBC0DCF2000E17
:103B4000DF6F000EDE6F000EE56F000EE46FDB0E20
:103B50000001D26F020ED36FDCC0D4F0DDC0D5F00F
:103B6000D90ED66F020ED76F09EC9DF00201DE511F
:103B70000001DA25D96E0201DF510001DB21DA6E86
:103B8000000EDF6E12001FC026F020C027F01DC0FF
:103B900024F01EC025F019D060009BF0F6FF6000F5
:103BA0009FF0F7FF000EF86E08006F00D4FF23F0BF
:103BB000264A272A600093F0D9FF600097F0DAFFC9
:103BC00060008FF0DFFF244A252A2106D8A02206B4
:103BD0002128E2E12228D8B41200DED7000120EE2D
:103BE00042F06051D9266151DA22400EDF601200A6
:103BF00060C01DF061C01EF062C01FF063C020F005
:103C000064C021F0226AC3EC9DF020EE40F06051C8
:103C1000D9266151DA22600093F1DFFF20EE42F0F5
:103C20006051D9266151DA22600093F1DFFF120062
:103C300020EE42F02550D9262650DA22000EDF6E03
:103C400020EE40F02550D9262650DA22000EDF6EF5
:103C500020EE41F02550D9262650DA22000EDF6EE4
:103C60002750D8B4120025C01DF026C01EF0000E4B
:103C7000206E000E1F6E000E226E400E216EDFECD5
:103C800094F0120020EE42F01D50D9261E50DA2288
:103C9000400EDF60120020EE40F01D50D9261E506D
:103CA000DA22DF50206E20501D24D96E000E1E2017
:103CB000DA6E60007FF0DFFF20EE40F01D50D92665
:103CC0001E50DA22DF2A20EE42F01D50D9261E5067
:103CD000DA22DF2A1200000E0E6E000E0D6ED89052
:103CE0000D34D96E0E34DA6E4C0ED926010EDA225E
:103CF000DE50DE10D8B40CD0D8900D34D96E0E340E
:103D0000DA6E4C0ED926010EDA22DE06000EDD5ADE
:103D10000D4A0E2A0EBEE3D70E5005E1060E0D5CCD
:103D2000D8B01200DCD712006F00E8FF0FF06F0070
:103D3000ECFF10F03901A89D37C00BF038C00CF033
:103D4000ABECA2F00001E751E811E911D8B40CD0B6
:103D500001D80AD00500FA6EE751FD6EE851FE6EFB
:103D6000E951FF6EFA501200600043F0FBFF600063
:103D70003FF0FAFF11001DC01FF01EC020F002D05E
:103D80001D4A1E2A600077F0F6FF60007BF0F7FF07
:103D9000000EF86E1F0EF76403D00800F55007D030
:103DA0006F00DBFFE1FF6F00DFFFE2FFE75000097C
:103DB000D8A4E6D71F501D5C1D6E20501E581E6EE5
:103DC0001200D28A000ED2BE010E1D6ED29E550E7A
:103DD000D46EAA0ED46ED490000ED76E000ED66E9E
:103DE000080ED56E550ED46EAA0ED46ED4801DB0BA
:103DF00002D0D29E01D0D28E39018281838D8399E7
:103E0000838B83978981888D81851200000E9B6E3C
:103E1000000E9C6E020E9D6E830E996E000E986EC3
:103E20003901A89D98506F0064FE20F0216A20C0DF
:103E300021F0206A2010376E2150386E988DCE0EFA
:103E40001D6E480E1E6E010E1F6E1FECA4F0010EBB
:103E50009A6E12006F0060FF17F06F00E8FF18F015
:103E60006F00ECFF19F02F5030103110D8B40CD087
:103E700001D80AD00500FA6E2F50FD6E3050FE6E4C
:103E80003150FF6EFA501200600067F0FBFF6000D7
:103E900063F0FAFF60005FF0D8FF11006F0060FF71
:103EA0001AF06F00E8FF1BF06F00ECFF1CF03250BF
:103EB00033103410D8B40CD001D80AD00500FA6EF3
:103EC0003250FD6E3350FE6E3450FF6EFA501200C9
:103ED000600073F0FBFF60006FF0FAFF60006BF0B2
:103EE000D8FF1100000E831B000E841B000E851BE3
:103EF000800E861B7FC01DF080C01EF081C01FF0A9
:103F000082C020F083C021F084C022F085C023F05D
:103F100086C024F011EC8CF01DC07FF01EC080F034
:103F20001FC081F020C082F012006CC01DF06DC077
:103F30001EF0000E206E000E1F6E000E226E830E0D
:103F4000216EDFEC94F06000B3F1D9FF6000B7F1AF
:103F5000DAFF6000BBF1DEFF6000BFF1DDFFA60EFF
:0E3F60000001696FFE0E6A6F97ECA0F0120070
:103F70006F00E8FF06F06F00ECFF07F03901A19534
:103F80000001ED51EE11EF11D8B40CD001D80AD0D8
:103F90000500FA6EED51FD6EEE51FE6EEF51FF6EB3
:103FA000FA50120060001FF0FBFF60001BF0FAFFE8
:023FB0001100FE
:103FB4006F00E8FF11F06F00ECFF12F03901A291DD
:103FC4000001E451E511E611D8B40CD001D80AD0AF
:103FD4000500FA6EE451FD6EE551FE6EE651FF6E8A
:103FE400FA50120060004BF0FBFF600047F0FAFF4C
:103FF4001100010E236E200E1D181E10D8B414D00B
:10400400F70E1F6EFF0E206E1DC021F01EC022F0A1
:104014001F50212620502222225004E1050E215C4B
:10402400D8A002D0000E236E23C01DF01E6A120019
:104034000001646F4FECA4F046C125F047C126F09F
:10404400000E276E18EC9EF0BC943B01FC9F000E02
:10405400F86F010EF76FFC8F46C11DF047C11EF0CB
:1040640064C01FF042EC9EF052ECA4F012003E50EB
:10407400D8B4FDD7000E3F24D96EDA6A010EDA22D5
:10408400DF503D6E000E3F24D96EDA6A020EDA224A
:10409400DF501D6E3F2A3F0E3F6402D0000E3F6E7C
:1040A400390193973E0693871D501200E1EC9EF070
:1040B400CEECA2F004EC98F03CECA3F062EC9CF0A3
:1040C40069EC9DF01EECA3F094ECA3F031ECA2F0AB
:1040D4003BECA4F0A0ECA3F006EC9FF0C7EC96F048
:0A40E40057ECA3F026ECA4F0120044
:1040F0006F00E8FF15F06F00ECFF16F00001F051C3
:10410000F111F211D8B40CD001D80AD00500FA6E22
:10411000F051FD6EF151FE6EF251FF6EFA50120039
:1041200060005BF0FBFF600057F0FAFF1100010E2A
:104130006B6F69C060F06AC061F0000E626F000EC4
:10414000636FD3EC9CF061BF1200000E206E0A0E6C
:104150001F6E000E216E000E226E4DEC9AF020BEF6
:104160001200000E00016B6F12001D6E4150D8B49A
:10417000FDD7390193B904D0600077F0EAFD11D082
:104180009399400E4324D96EDA6A020EDA22600057
:1041900077F0DFFF432A3F0E436402D0000E436EE8
:0641A000410693891200A4
:1041A8006F00E8FF13F06F00ECFF14F02C502D1097
:1041B8002E10D8B40CD001D80AD00500FA6E2C50B5
:1041C800FD6E2D50FE6E2E50FF6EFA5012006000EC
:1041D80053F0FBFF60004FF0FAFF1100BF0E606F55
:1041E800FF0E616F23C062F024C063F06051622744
:1041F8006151632363510AE11A0E625DD8B006D09B
:10420800200E2310236E2450246E120023C023F0A6
:1042180024C024F01200216EBC94FE0E4AECA3F0D8
:10422800080E1D6E000E1E6E000E1F6E000E206E14
:1042380049ECA1F021504AECA3F0200E1D6E030EAC
:104248001E6E000E1F6E000E206E49ECA1F01200CB
:10425800216EBC94FE0E4AECA3F0080E1D6E000EF3
:104268001E6E000E1F6E000E206E49ECA1F021504C
:104278004AECA3F0080E1D6E000E1E6E000E1F6E97
:10428800000E206E49ECA1F01200000E0101606FD3
:10429800000E616F000E626F000E636F00F0040085
:1042A800010E01016027000E612362236323605120
:1042B8001D5C61511E5862511F5863512058D8A087
:1042C8001200ECD7ACECA3F03C50020DF350280FD1
:1042D800D96EDA6A600007F0DEFF60000BF0DDFFE0
:1042E8003C2A3C04056E010E056402D0000E3C6EAB
:0E42F8006000F3F0F1FE010E0001FA6F1200FB
:104308006F00E8FF09F06F00ECFF0AF03901A9918E
:10431800394A3A2A3A5004E1170E395CD8A006D037
:1043280099ECA2F0000E3A6E000E396E60002BF088
:10433800FBFF600027F0FAFF11001DC01FF01EC030
:1043480020F0D89020321F32D89020321F321F50D0
:10435800696E1DC01FF0030E1F16060E206ED89042
:104368001F36202EFCD71F50686E12001DC01FF08C
:104378001EC020F0D89020321F32D89020321F3231
:104388001F506D6E1DC01FF0030E1F16060E206E07
:10439800D8901F36202EFCD71F506C6E1200BF0E0F
:1043A8001F6EFF0E206E1DC021F01EC022F01F5090
:1043B800212620502222225006E11A0E215CD8B074
:1043C80002D0010E01D0000E1D6E1E6A1200D00E22
:1043D8001F6EFF0E206E1DC021F01EC022F01F5060
:1043E800212620502222225006E10A0E215CD8B054
:1043F80002D0010E01D0000E1D6E1E6A1200286E3A
:10440800756C6C2900CDFFC1FFF6FF7A4501F9FFF5
:10441800824701F3FF6E4701FCFF104701EDFFF8EB
:104428004601F0FFE0460100000000001D501E108C
:104438001F102010D8B408D0000E1D1A000E1E1A26
:10444800000E1F1A800E201A1DC01DF01EC01EF07F
:104458001FC01FF020C020F01200010E966E200E23
:10446800956E000E976E4D0E936E000E926E39018A
:10447800A9919981CA0E1D6E480E1E6E010E1F6EFF
:1044880018ECA4F094681200400E416011D0400E60
:104498004224D96EDA6A020EDA22DF503D01EA6F51
:1044A800422A3F0E426402D0000E426E412A120098
:1044B8003901939912001D501F026F00CCFF21F0A3
:1044C8006F00D0FF22F01D502002F35022261E500C
:1044D8001F02F350222621C01DF022C01EF0120038
:1044E800DB0E0001DA6F020EDB6F000ED26F000EDA
:1044F800D36FD9C2D4F0DAC2D5F0DA0ED66FD76B43
:1045080009EC9DF01200E0ECA3F00009D8B40BD040
:1045180039ECA0F01F6E1E50D96EDA6A60007FF089
:10452800DFFF010E1200000E12000001EA51EB112C
:10453800EC11D8B4120001D812000500FA6EEA5145
:10454800FD6EEB51FE6EEC51FF6EFA5012009AA40C
:1045580009D09A90600033F099FF60002FF098FF1F
:104568009A801200600033F099FF60002FF098FFE6
:1045780012006CC069F06DC06AF097ECA0F0110EE3
:104588000001696FFF0E6A6F97ECA0F0010E000141
:10459800F96F1200000EC06F000EC16F000EC26FDF
:1045A800000EC36F000EC46F000EC56F000EC66FFD
:1045B800000EC76F1200000E4024D96EDA6A020E90
:1045C800DA226F00A3F7DFFF402A3F0E406402D0D3
:1045D800000E406E3E2A1200216EBC9421504AEC17
:1045E800A3F0080E1D6E000E1E6E000E1F6E000E4C
:1045F800206E49ECA1F0120025C01DF026C01EF067
:10460800000E206E000E1F6E000E226E430E216EED
:10461800DFEC94F01200656FD2ECA3F0FE0E1AECFA
:10462800A0F0D2ECA3F0000165511AECA0F0D2EC96
:10463800A3F01200010EAE6E000EAD6E000EAF6E4E
:104648009F0EAB6E000EAA6E3901A495800EAC6E5B
:104658001200BEA002D0010E01D0000EFF0A086EA3
:10466800BE500818FE0B0818BE6E010EFB6F120034
:10467800200E3901D96F000EDB6F000EDD6F050EBD
:10468800DF6F000EDE6FDCB11200FDD71D6E010E6C
:104698003D01126F600077F011FD3901A2A9FDD725
:1046A8003D0110511200020E3D01146F400E156FAE
:1046B800000E166F000E1C6F500E196FC496120074
:1046C800000E00016C6F030E6D6FDC0E6E6F010E35
:1046D8006F6F95EC9FF012007B0E696FFF0E6A6F8B
:1046E80097ECA0F0020E0001FD6F030EFC6F1200A4
:1046F800560E696FFF0E6A6F97ECA0F0090E000165
:10470800FD6F0A0EFC6F12009F0E696FFF0E6A6F35
:1047180097ECA0F01D0E0001FD6F1E0EFC6F12003D
:10472800800E6A6E4F0E696EC00E686E3F015F5153
:10473800F30B04095F6F1200800E6E6E4F0E6D6EE4
:10474800C00E6C6E3F015F51FC0B01095F6F1200D8
:104758003E01F051046E036AEF510324016E000E0E
:104768000420026E1200690E696FFF0E6A6F97ECE3
:10477800A0F0000E0001F96F12002A0E696FFF0EFB
:104788006A6F97ECA0F0020E0001F96F12000001A9
:10479800666F000166510FECA3F01200010140B7EB
:1047A800FDD73D0117BB1200FCD76CC069F06DC086
:1047B8006AF097ECA0F012003E50D8B402D0010E77
:1047C8001200000E12001DC0F0F01EC0F1F01FC054
:1047D800F2F012001DC02FF01EC030F01FC031F0E3
:1047E80012001DC032F01EC033F01FC034F012009A
:1047F8001DC06FF11EC070F11FC071F112001DC005
:104808002CF01EC02DF01FC02EF012001DC072F13A
:104818001EC073F11FC074F112001DC06CF11EC0E0
:104828006DF11FC06EF112001DC0EAF01EC0EBF062
:104838001FC0ECF012001DC0E7F01EC0E8F01FC05A
:10484800E9F01200550E3901EF6FAA0EEF6FEF81F4
:1048580012001DC0E4F01EC0E5F01FC0E6F0120013
:104868001DC0EDF01EC0EEF01FC0EFF01200A40E48
:104878003E019E6F1F0E9C6F12001E6E1E50B5ECFF
:10488800A0F012001D6E600077F09CFE1200000E72
:104898003D01F96F12000101408712003B01FC8DB8
:1048A80012003E019C511200DFECA2F0120001013F
:1048B800409712003D01F89F1200141312001200D5
:0A48C800120012001100120012008D
:020000040020DA
:10000000FF0FFF0FFF0FFF0FFF0FFF0FFF0FFF0F80
:020000040030CA
:0A000000AFFFFFFF9FFFFFDFFFFFD0
:00000001FF
