:0400000057EF00F0C6
:100008005317531753175317531753175317531798
:1000180053175317D4155317531753175317531709
:100028005317531753175317531753175317531778
:1000380053175317531714160416531753175317F8
:1000480053175317531753172B0053175317531797
:100058005317531753175317531753175317531748
:100068005317531753175317531753175317531738
:10007800531753172B005317531753172B002B00E5
:100088002B002B002B002B002B002B00791553176E
:100098005E165317531753172B002B002B002B00FA
:0A00A80053175317FF0042EF28F032
:102000000002400008000D0A20436F6D6D616E6490
:102010002070726F636573736F722056302E310DAE
:102020000A002050532054657374202531753A20DE
:10203000444143204F55543D2532752C2053757033
:10204000706C7920526561644261636B2025347540
:1020500020563D252B352E316656202534752049D6
:102060003D252B332E31666D410D0A000D0A20509F
:1020700073205465737465722025732025730D0ACF
:10208000004D6172202039203230323200206869E0
:102090002020202020200020686F202020202020C9
:1020A0000030383A33363A313400494E46004E411A
:1020B0004E00696E66006E616E006C6C73006C663B
:0B20C00000686900686F00687700008E
:1020CC00000E926F000E916F73C0A1F074C0A2F05D
:1020DC0075C0A3F076C0A4F0A4AF16D0000E926F1A
:1020EC00010E916FA1C015F0A2C016F0A3C017F09D
:1020FC00A4C018F009EC2DF015C0A1F016C0A2F088
:10210C0017C0A3F018C0A4F0000EAA6F000EA96FA0
:10211C00F7C096F0F8C097F091519211D8A402D064
:10212C003DA413D091519211D8A404D0000E7E6F0F
:10213C002B0E03D0000E7E6F2D0E7D6F7DC098F19F
:10214C00A94BAA2B9607D8A09707A1C015F0A2C03F
:10215C0016F0A3C017F0A4C018F063EC25F015041A
:10216C001610D8A447D0BF0E0001786FFF0E796F00
:10217C0077517A6F7B6B78517A2779517B237B511E
:10218C0013E11A0E7A5DD8B00FD0980EA925156EF2
:10219C00010EAA21166EAA0E176E1750D8A4200E87
:1021AC00186E49EC2AF00ED0980EA925156E010E6A
:1021BC00AA21166EB20E176E1750D8A4200E186EE8
:1021CC0049EC2AF00001FD0E9627FF0E972371C0F3
:1021DC0029F072C02AF0980E2B6E010E2C6E96C050
:1021EC002DF097C02EF090EC28F029C071F02AC089
:1021FC0072F01200A1C015F0A2C016F0A3C017F027
:10220C00A4C018F063EC25F015501610D8A430D0EB
:10221C00BF0E0001786FFF0E796F77517A6F7B6B71
:10222C0078517A2779517B237B5113E11A0E7A5D11
:10223C00D8B00FD0980EA925156E010EAA21166ED6
:10224C00AE0E176E1750D8A4200E186E49EC2AF05B
:10225C00B9D7980EA925156E010EAA21166EB60EC9
:10226C00176E1750D8A4200E186E49EC2AF0AAD776
:10227C00000E0001AB6F000EAC6F800EAD6F3F0E09
:10228C00AE6F000EA86F000EA76FA1C015F0A2C014
:10229C0016F0A3C017F0A4C018F0000E196E000EB3
:1022AC001A6E000E1B6E000E1C6EDBEC28F0D8A014
:1022BC001DD074D0ABC023F0ACC024F0ADC025F061
:1022CC00AEC026F0000E276E000E286E200E296E72
:1022DC00410E2A6E88EC18F023C0ABF024C0ACF091
:1022EC0025C0ADF026C0AEF0A74BA82BA1C02FF097
:1022FC00A2C030F0A3C031F0A4C032F0000E276EA3
:10230C00000E286E200E296E410E2A6EABC023F0F3
:10231C00ACC024F0ADC025F0AEC026F088EC18F0AF
:10232C0023C033F024C034F025C035F026C036F07D
:10233C0094EC24F0D8A01ED0BDD7ABC015F0ACC027
:10234C0016F0ADC017F0AEC018F0000E196E000EEE
:10235C001A6E200E1B6E410E1C6EB7EC1BF015C0D6
:10236C00ABF016C0ACF017C0ADF018C0AEF0A707BC
:10237C00D8A0A807A1C02FF0A2C030F0A3C031F0A4
:10238C00A4C032F0ABC033F0ACC034F0ADC035F00B
:10239C00AEC036F094EC24F0D8A0CFD777C01BF0A9
:1023AC001C6A65EC2CF01B50986F98C095F0670E6A
:1023BC009819D8A419D0F951FA11D8A404D0000E48
:1023CC00FA6F010EF96FFABF05D0FA5108E1F90561
:1023DC00D8B005D0000E946F060E936F08D0F9C0DC
:1023EC0093F0FAC094F003D0FAAFF9D7F3D7670E95
:1023FC009819D8A422D0A8AF06D0FC0EA75DFF0E6A
:10240C00A859D8A018D0FF0E786FFF0E796F93C023
:10241C007AF094C07BF078517A2779517B23A751BD
:10242C007A5D7B51800A7C6FA851800A7C59D8A0B8
:10243C0002D0660E01D0650E956F93C089F094C0E2
:10244C008AF0670E9819D8A405D0660E9519D8B4E1
:10245C00A8AF02D0894B8A2B660E9519D8A416D03A
:10246C00A8AF0CD0000EAB6F000EAC6F800EAD6F32
:10247C003F0EAE6F000EA86F000EA76F670E981977
:10248C00D8B404D0A7518927A8518A23000EA66F6F
:10249C00000EA56FA1C099F0A2C09AF0A3C09BF04A
:1024AC00A4C09CF0ABC08BF0ACC08CF0ADC08DF078
:1024BC00AEC08EF07AD099C015F09AC016F09BC0C1
:1024CC0017F09CC018F0ABC019F0ACC01AF0ADC03E
:1024DC001BF0AEC01CF0B7EC1BF015C02EF016C0F4
:1024EC002FF017C030F018C031F0E0EC1FF02EC008
:1024FC009DF02FC09EF030C09FF031C0A0F09DC069
:10250C0015F09EC016F09FC017F0A0C018F02CEC70
:10251C0026F015C08FF016C090F099C02FF09AC01D
:10252C0030F09BC031F09CC032F0ABC027F0ACC097
:10253C0028F0ADC029F0AEC02AF09DC023F09EC09B
:10254C0024F09FC025F0A0C026F088EC18F023C022
:10255C0033F024C034F025C035F026C036F063ECDF
:10256C002BF02FC099F030C09AF031C09BF032C0E4
:10257C009CF0ABC015F0ACC016F0ADC017F0AEC0FF
:10258C0018F0000E196E000E1A6E200E1B6E410E06
:10259C001C6EB7EC1BF015C0ABF016C0ACF017C03E
:1025AC00ADF018C0AEF0A54BA62B8951A55DA65178
:1025BC00800A786F8A51800A7859D8A07CD7ABC032
:1025CC0023F0ACC024F0ADC025F0AEC026F0000E58
:1025DC00276E000E286EA00E296E400E2A6E88EC17
:1025EC0018F023C09DF024C09EF025C09FF026C09B
:1025FC00A0F099C02FF09AC030F09BC031F09CC075
:10260C0032F09DC033F09EC034F09FC035F0A0C0B6
:10261C0036F094EC24F0D8A015D099C015F09AC0DF
:10262C0016F09BC017F09CC018F09DC019F09EC00E
:10263C001AF09FC01BF0A0C01CF0DBEC28F0D8B047
:10264C008FB108D0000E9D6F000E9E6F000E9F6F15
:10265C00000EA06FA1C015F0A2C016F0A3C017F019
:10266C00A4C018F09DC019F09EC01AF09FC01BF0BA
:10267C00A0C01CF031EC1AF015C099F016C09AF0FD
:10268C0017C09BF018C09CF099C02FF09AC030F086
:10269C009BC031F09CC032F0000E276E000E286EED
:1026AC00200E296E410E2A6E8BC023F08CC024F0B4
:1026BC008DC025F08EC026F088EC18F023C033F0C6
:1026CC0024C034F025C035F026C036F094EC24F04C
:1026DC00D8A022D0A74BA82B8BC023F08CC024F001
:1026EC008DC025F08EC026F0000E276E000E286ED1
:1026FC00200E296E410E2A6E88EC18F023C08BF048
:10270C0024C08CF025C08DF026C08EF0660E951975
:10271C00D8A402D0894B8A2B8BC0ABF08CC0ACF008
:10272C008DC0ADF08EC0AEF0650E9519D8B405D045
:10273C00A7C087F0A8C088F004D0000E886F000EE8
:10274C00876F000E866F000E856F000E846F000E73
:10275C00836F000EA66F000EA56FC4D099C015F044
:10276C009AC016F09BC017F09CC018F0ABC019F0C3
:10277C00ACC01AF0ADC01BF0AEC01CF0B7EC1BF037
:10278C0015C02EF016C02FF017C030F018C031F065
:10279C00E0EC1FF02EC09DF02FC09EF030C09FF0DB
:1027AC0031C0A0F09DC015F09EC016F09FC017F070
:1027BC00A0C018F02CEC26F015C08FF016C090F0CD
:1027CC003DB80CD08F519011D8A408D0670E981931
:1027DC00D8B488AF03D0834B842B39D08551861164
:1027EC00D8B488AF22D0980EA925D96E010EAA2193
:1027FC00DA6E2E0EDF6EA94BAA2B9607D8A0970780
:10280C00000E866F010E856F10D0980EA925D96E1B
:10281C00010EAA21DA6E300EDF6EA94BAA2B960799
:10282C00D8A097078307D8A0840783518411D8A414
:10283C00ECD7980EA925D96E010EAA21DA6E8F510C
:10284C00300FDF6EA94BAA2B9607D8A0970799C01B
:10285C002FF09AC030F09BC031F09CC032F0ABC06E
:10286C0027F0ACC028F0ADC029F0AEC02AF09DC056
:10287C0023F09EC024F09FC025F0A0C026F088EC69
:10288C0018F023C033F024C034F025C035F026C036
:10289C0036F063EC2BF02FC099F030C09AF031C0B9
:1028AC009BF032C09CF0ABC015F0ACC016F0ADC0C4
:1028BC0017F0AEC018F0000E196E000E1A6E200E36
:1028CC001B6E410E1C6EB7EC1BF015C0ABF016C0A6
:1028DC00ACF017C0ADF018C0AEF08707D8A08807D1
:1028EC00A54BA62B8951A55DA651800A786F8A51FC
:1028FC00800A7859D8B008D0AABF30D7AA5104E1C1
:10290C004B0EA95DD8A02AD785518611D8B43DA805
:10291C000AD0980EA925D96E010EAA21DA6E2E0EB8
:10292C00DF6EA94BAA2B980EA925D96E010EAA21F0
:10293C00DA6E000EDF6E650E9519D8A448D4000E21
:10294C00A66F4F0EA56F980EA525D96E010EA62168
:10295C00DA6E000EDF6E000E926F000E916FA8AF54
:10296C0008D0000E926F010E916FA76DA81FD8B002
:10297C00A82B000E946F020E936F2AD0A507D8A037
:10298C00A607980EA525D96E010EA621DA6EA7C052
:10299C0015F0A8C016F0000E186E0A0E176EDDECBE
:1029AC0029F01550300FDF6EA7C015F0A8C016F037
:1029BC00000E186E0A0E176E62EC29F015C0A7F007
:1029CC0016C0A8F09307D8A094079607D8A097072D
:1029DC00A751A811D8A4D2D794BF05D09451CEE159
:1029EC009305D8B0CBD7A507D8A0A60791519211C3
:1029FC00D8A404D0000E806F2B0E03D0000E806F75
:102A0C002D0E7F6F980EA525D96E010EA621DA6EBC
:102A1C006000FFF1DFFF9607D8A09707A507D8A0A5
:102A2C00A607BF0E786FFF0E796F77517A6F7B6BAD
:102A3C0078517A2779517B237B5104E11A0E7A5D08
:102A4C00D8A004D0000E826F650E03D0000E826FEA
:102A5C00450E816F980EA525D96E010EA621DA6E52
:102A6C00600007F2DFFF9607D8A09707980EA925FC
:102A7C00156E010EAA21166E980EA525176E010E65
:102A8C00A621186E49EC2AF0EDEF10F0B151D96E79
:102A9C00DA6A6F007FFFF6FF200EF76E000EF86EFD
:102AAC000800F550250AD8A413D3B151D96EDA6AAF
:102ABC00DF2A000EF86F000EF76FF7C03DF0F8C07C
:102ACC003EF0F969FA69000EC36F000E11D03D801B
:102ADC00B151D96EDA6ADF2A30D03D82F9D73D8404
:102AEC00F7D73D86F5D73D88F3D7000EC36F010E9F
:102AFC00C26F23D0B151D96EDA6A6F007FFFF6FF37
:102B0C00200EF76E000EF86E0800F550B46FB56B22
:102B1C00B551000AD8A4E9D7B451200AD8B4E1D7EA
:102B2C00030AD8B4E0D7080AD8B4D9D7060AD8B45F
:102B3C00CED71D0AD8B4D1D7D8D7C251C311D8B467
:102B4C00D9D73DB03D92B151D96EDA6A6F007FFF93
:102B5C00F6FF200EF76E000EF86E0800F5502A0AEC
:102B6C00D8A428D0B151D96EDA6ADF2A6000CBF232
:102B7C00D9FF6000CFF2DAFF6F007CFFB4F0020ED9
:102B8C00DE266F007CFFB5F0000EDD226000D3F274
:102B9C00D9FF6000D7F2DAFF6F0078FFF7F06F0013
:102BAC0074FFF8F0F8AF33D03D80F76DF81FD8B054
:102BBC00F82B2DD0B151D96EDA6ADF501C6EFBECBC
:102BCC0023F01CC0F7F01DC0F8F004D0B151D96E41
:102BDC00DA6ADF2AD00E0001B46FFF0EB56FB15167
:102BEC00D96EDA6A6F007FFFF6FF200EF76E000ECB
:102BFC00F86E0800F550B66FB76BB451B627B551E7
:102C0C00B723B75104E10A0EB65DD8A0DFD7B15196
:102C1C00D96EDA6A6F007FFFF6FF200EF76E000E9A
:102C2C00F86E0800F5502E0AD8A465D0000EFA6F85
:102C3C00000EF96FB151D96EDA6ADF2AB151D96E33
:102C4C00DA6A6F007FFFF6FF200EF76E000EF86E4B
:102C5C000800F5502A0AD8A421D0B151D96EDA6AED
:102C6C00DF2A6000CBF2D9FF6000CFF2DAFF6F00F1
:102C7C007CFFB4F0020EDE266F007CFFB5F0000E78
:102C8C00DD226000D3F2D9FF6000D7F2DAFF6F00CB
:102C9C0078FFF9F06F0074FFFAF02DD0B151D96EB6
:102CAC00DA6ADF501C6EFBEC23F01CC0F9F01DC07F
:102CBC00FAF004D0B151D96EDA6ADF2AD00E0001D5
:102CCC00B46FFF0EB56FB151D96EDA6A6F007FFF2A
:102CDC00F6FF200EF76E000EF86E0800F550B66F7A
:102CEC00B76BB451B627B551B723B75104E10A0EEF
:102CFC00B65DD8A0DFD7B151D96EDA6A6F007FFF0D
:102D0C00F6FF200EF76E000EF86E0800F5501B6EE5
:102D1C001C6A65EC2CF01B50CB6FCB51D8B42FD068
:102D2C00B151D96EDA6ADF50B46F010EB42760006E
:102D3C00D3F2F6FF200EF76E000EF86E0800F55079
:102D4C001B6E1C6A65EC2CF01B50CC6FCC51D8B4AC
:102D5C0016D0B151D96EDA6ADF50B46F020EB427B7
:102D6C006000D3F2F6FF200EF76E000EF86E08002E
:102D7C00F5501B6E1C6A65EC2CF01B50CD6F660E6B
:102D8C00CB19D8A449D0B151D96EDA6A6F007FFF44
:102D9C00F6FF200EF76E000EF86E08006F00D4FFE1
:102DAC00C6F0B151D96EDA6ADF2A6000CBF2D9FFD6
:102DBC006000CFF2DAFF6F007CFFB4F0040EDE2669
:102DCC006F007CFFB5F0000EDD226000D3F2D9FF5E
:102DDC006000D7F2DAFF6F0078FFC7F06F0078FF62
:102DEC00C8F06F0078FFC9F06F0078FFCAF0AFC071
:102DFC0071F0B0C072F0C7C073F0C8C074F0C9C035
:102E0C0075F0CAC076F0C6C077F066EC10F071C0F1
:102E1C00AFF072C0B0F01200CB0E196E1A6ABE0E73
:102E2C001B6E1B50D8A4200E1C6E000E1E6E020EC4
:102E3C001D6EB5EC20F019501A10D8A455D0000115
:102E4C00B151D96EDA6ADF50B46F010EB42760004D
:102E5C00D3F2F6FF200EF76E000EF86E08006F002E
:102E6C00D4FFC6F0BF0EB46FFF0EB56FB151D96E63
:102E7C00DA6A6F007FFFF6FF200EF76E000EF86E19
:102E8C000800F550B66FB76BB451B627B551B723E0
:102E9C00B75102E11A0EB65D6000CBF2D9FF6000AB
:102EAC00CFF2DAFF6F007CFFB4F0040EDE266F0069
:102EBC007CFFB5F0000EDD226000D3F2D9FF60007C
:102ECC00D7F2DAFF6F0078FFC7F06F0078FFC8F019
:102EDC006F0078FFC9F06F0078FFCAF0B151D96E5E
:102EEC00DA6A020EDF2683D70001B151D96EDA6A95
:102EFC006F007FFFF6FF200EF76E000EF86E0800D5
:102F0C00F550730AD8B41BD0B151D96EDA6ADF50C0
:102F1C00B46FB4C019F01950D8A4200E1A6EBA0EA2
:102F2C001B6E1B50D8A4200E1C6E000E1E6E030EC2
:102F3C001D6EB5EC20F019501A10D8A448D0000121
:102F4C00B151D96EDA6A6F007FFFF6FF200EF76E73
:102F5C00000EF86E0800F550730AD8B404D0000EB9
:102F6C00C56F030E03D0000EC56F010EC46FB151B7
:102F7C00D96EDA6AC451DF266000CBF2D9FF60004B
:102F8C00CFF2DAFF6F007CFFB4F0020EDE266F008A
:102F9C007CFFB5F0000EDD226000D3F2D9FF60009B
:102FAC00D7F2DAFF6F0078FFC0F06F0074FFC1F04A
:102FBC00AFC020F0B0C021F0C0C022F0C1C023F0DF
:102FCC00B7EC22F020C0AFF021C0B0F0120000012D
:102FDC00B151D96EDA6A6F007FFFF6FF200EF76EE3
:102FEC00000EF86E0800F550750AD8A445D0B15102
:102FFC00D96EDA6ADF2A6000CBF2D9FF6000CFF21B
:10300C00DAFF6F007CFFB4F0020EDE266F007CFF4F
:10301C00B5F0000EDD226000D3F2D9FF6000D7F2CC
:10302C00DAFF6F0078FFB6F06F0074FFB7F0B6C030
:10303C00B8F0B7C0B9F0BA6BBB6BBC6BBD6BBE6BF9
:10304C00BF6BAFC060F0B0C061F0B8C062F0B9C087
:10305C0063F0BAC064F0BBC065F0BCC066F0BDC024
:10306C0067F0BEC068F0BFC069F008EC1FF060C02C
:10307C00AFF061C0B0F01200B151D96EDA6A6F00D6
:10308C007FFFF6FF200EF76E000EF86E0800F5506D
:10309C00250AD8A414D0B151D96EDA6ADF2A000EF1
:1030AC00186E250E176EAFC019F0B0C01AF040ECB8
:1030BC0027F0000E0001B06F010EAF6F1200B1517E
:1030CC00D96EDA6ADF2A000EB06F000EAF6F1200F5
:1030DC00B151D96EDA6A6F007FFFF6FF200EF76EE2
:1030EC00000EF86E0800F550176E186AAFC019F094
:1030FC00B0C01AF040EC27F00001B151D96EDA6A79
:10310C00DF2AD7D72650800B0001606F265026246B
:10311C00626F25BE62816251D8B40DD06229D8A4E9
:10312C0008D0000E236E000E246E000E256E000ECD
:10313C00266E258E08D0000E236E000E246E000E17
:10314C00256E000E266E2A50800B601B2A502A24F6
:10315C00616F29BE61816151D8B40DD06129D8A4A9
:10316C0008D0000E276E000E286E000E296E000E81
:10317C002A6E298E08D0000E276E000E286E000EC7
:10318C00296E000E2A6E6151D8B403D06251D8A4B6
:10319C0009D0000E236E000E246E000E256E000E5C
:1031AC00266E1200295023026F00CCFF6BF06F00CB
:1031BC00D0FF6CF06B51636F646B656B666B6C511D
:1031CC00676F686B696B6A6B285024026F00CCFFC9
:1031DC006BF06F00D0FF6CF06B516327000E642313
:1031EC00652366236C516727000E682369236A23C5
:1031FC00275025026F00CCFF6BF06F00D0FF6CF0F6
:10320C006B516327000E6423652366236C5167277B
:10321C00000E682369236A2365C066F064C065F0FC
:10322C0063C064F0636B275024026F00CCFF6BF01B
:10323C006F00D0FF6CF06B5163276C516423000E50
:10324C006523000E6623285023026F00CCFF6BF021
:10325C006F00D0FF6CF06B5163276C516423000E30
:10326C006523000E662365C066F064C065F063C01C
:10327C0064F0636B275023026F00CCFF6BF06F0080
:10328C00D0FF6CF06B5163276C516423000E6523E7
:10329C00000E6623295024026F00CCFF6BF06F00E8
:1032AC00D0FF6CF06B5167276C516823000E6923BB
:1032BC00000E6A23285025026F00CCFF6BF06F00C4
:1032CC00D0FF6CF06B5167276C516823000E69239B
:1032DC00000E6A23295025026F00CCFF6BF06F00A3
:1032EC00D0FF6CF06B512B6E6C512C6E2D6A2E6ACC
:1032FC002DC02EF02CC02DF02BC02CF02B6A2B5097
:10330C0067272C5068232D5069232E506A23665151
:10331C006727000E682369236A2365C066F064C0C2
:10332C0065F063C064F0636B615162C02BF02C6A72
:10333C002B26000E2C22820E2B246B6FFF0E2C20C2
:10334C006C6F0FD0D8906737683769376A3766BFAC
:10335C006781D89063376437653766376B07D8A0B9
:10336C006C0769AFEFD7000E616F66AF17D0FF0E19
:10337C0063152B6EFF0E64152C6EFF0E65152D6EEE
:10338C007F0E66152E6E2B502C102D102E10D8B4CF
:10339C0003D0010E616F02D067B1FBD76151D8B475
:1033AC001FD0010E6727000E682369236A236AA1C8
:1033BC0017D067C02BF068C02CF069C02DF06AC024
:1033CC002EF02E342E322D322C322B322BC067F0B5
:1033DC002CC068F02DC069F02EC06AF06B4B6C2BC2
:1033EC006CBF0DD06C5103E16B29D8A008D0000E36
:1033FC00676F000E686F800E696F7F0E20D06CBFF8
:10340C0005D06C510EE16B05D8B00BD0000E676F78
:10341C00000E686F000E696F000E6A6F000E606F11
:10342C000FD06BC062F0FF0E6717FF0E68177F0E90
:10343C006917000E6A1762B1698FD89062316A6F92
:10344C0060516A1367C023F068C024F069C025F08E
:10345C006AC026F012001850800B216E18501824E8
:10346C00236E17BE23802350D8B40DD02328D8A4A4
:10347C0008D0000E156E000E166E000E176E000EA4
:10348C00186E178E06D0000E156E000E166E000EFE
:10349C00176E000E186E1C50800B226E21502218D5
:1034AC00D8A4218C1C501C24226E1BBE22802250BE
:1034BC00D8B40DD02228D8A408D0000E196E000E56
:1034CC001A6E000E1B6E000E1C6E1B8E06D0000EAC
:1034DC00196E000E1A6E000E1B6E000E1C6E235021
:1034EC00225CD8B022D021AC02D0800E211A23C08D
:1034FC0024F022C023F024C022F015C024F019C0FF
:10350C0015F024C019F016C024F01AC016F024C00F
:10351C001AF017C024F01BC017F024C01BF018C001
:10352C0024F01CC018F024C01CF0000E246E235094
:10353C0022C01DF01E6A1D5E000E1E5A1EBE2CD02F
:10354C001E5004E11A0E1D5CD8A026D01550161082
:10355C0017101810D8B402D0010E01D0000E246E32
:10356C00000E156E000E166E000E176E000E186E05
:10357C0022C023F015D024A005D0D8902430010906
:10358C00246E02D0D890243215B0248E1834183200
:10359C00173216321532232A2250235CD8A0EBD7CF
:1035AC0021BC28D02350D8A409D0000E156E000ED3
:1035BC00166E000E176E000E186E1200195015269E
:1035CC001A5016221B5017221C50182218A071D00A
:1035DC0024A005D0D89024300109246E02D0D890B4
:1035EC00243215B0248E1834183217321632153294
:1035FC00232A5FD01950155C1A5016581B501758B7
:10360C001850800A1D6E1C50800A1D58D8B025D049
:10361C001550195C1D6E16501A581E6E17501B58FB
:10362C001F6E18501C58206EFF0E1D24156EFF0EB9
:10363C001E20166EFF0E1F20176EFF0E2020186E18
:10364C00800E211A246C2450D8A40FD0010E1526FC
:10365C00000E16221722182208D01950155E1A5087
:10366C00165A1B50175A1C50185A15501610171072
:10367C001810D8A41CD02450D8A419D0000E156E44
:10368C00000E166E000E176E000E186E1200D890FB
:10369C00153616361736183624BE158024A002D0DF
:1036AC00D88001D0D89024362350D8A4230617AE46
:1036BC00EED7000E226E24AE0BD024C01DF07F0E70
:1036CC001D16D8B403D0010E226E02D015B0FBD754
:1036DC002250D8B420D0010E1526000E1622172227
:1036EC00182218A018D015C01DF016C01EF017C057
:1036FC001FF018C020F0203420321F321E321D3231
:10370C001DC015F01EC016F01FC017F020C018F019
:10371C002328D8A4232A2328D8B403D02350D8A4F0
:10372C000DD0000E156E000E166E000E176E000EEC
:10373C00186E2350D8A402D0000E216E23A002D004
:10374C00178E01D0179ED8902330186E21BE188E7C
:10375C0015C015F016C016F017C017F018C018F0E9
:10376C0012001850800B256E185018242C6E17BEA2
:10377C002C802C50D8B40DD02C28D8A408D0000EF6
:10378C00156E000E166E000E176E000E186E178E4C
:10379C0006D0000E156E000E166E000E176E000E83
:1037AC00186E1C50800B251A1C501C242D6E1BBE31
:1037BC002D802D50D8B40DD02D28D8A408D0000EB3
:1037CC00196E000E1A6E000E1B6E000E1C6E1B8EF8
:1037DC0006D0000E196E000E1A6E000E1B6E000E37
:1037EC001C6E19501A101B101C10D8A417D0000EE8
:1037FC00156E000E166E000E176E000E186E800EF3
:10380C0017127F0E18122550181215C015F016C07D
:10381C0016F017C017F018C018F012002C50D8A4CE
:10382C0009D0000E156E000E166E000E176E000EEF
:10383C00186E12002D502CC01DF01E6A1D5E000E5D
:10384C001E5A7F0E1D24266E000E1E20276E15C0DC
:10385C0021F016C022F017C023F018C024F0000E7F
:10386C00156E000E166E000E176E000E186E000E02
:10387C00286E000E296E000E2A6E000E2B6E000EA6
:10388C002D6E28D02D50D8B411D0D8902136223698
:10389C0023362436D89015361636173618362BBEE6
:1038AC001580D890283629362A362B361950215CAB
:1038BC001A5022581B5023581C502458D8A009D0F9
:1038CC002B8C1950215E1A50225A1B50235A1C5013
:1038DC00245A2D2A190E2D64D5D7215022102310CD
:1038EC002410D8B411D028800FD0D89015361636A5
:1038FC00173618362BBE1580D890283629362A361E
:10390C002B362606D8A0270617AEEFD7000E2D6E45
:10391C002BAE17D0FF0E28141D6EFF0E29141E6E31
:10392C00FF0E2A141F6E7F0E2B14206E1D501E10BE
:10393C001F102010D8B403D0010E2D6E02D015B07C
:10394C00FBD72D50D8B41FD0010E1526000E162211
:10395C001722182218A017D015C01DF016C01EF083
:10396C0017C01FF018C020F0203420321F321E3236
:10397C001D321DC015F01EC016F01FC017F020C060
:10398C0018F0264A272A27BE10D0275003E12628F4
:10399C00D8A00BD0000E276E2668000E156E000EF8
:1039AC00166E000E176E000E186E27BE05D027502F
:1039BC0011E12604D8B00ED0000E276E000E266E34
:1039CC00000E156E000E166E000E176E000E186EA1
:1039DC00000E256E26C02CF02CA002D0178E01D024
:1039EC00179ED8902C30186E0ED7000E0001D86F91
:1039FC00000ED76F62EC2DF0BD92BE94C00E156E0A
:103A0C005B0E166E000E176E77EC2EF0440E156ED4
:103A1C00550E166E000E176E7EEC2EF03E0E156EC9
:103A2C00590E166E000E176E85EC2EF0600013F119
:103A3C00F1FE0AEC2EF0D28E000E97EC2EF0000167
:103A4C00FB51D8B4FCD7840E395C030E3A58D8B06D
:103A5C0004D0000E89EC26F00DD0090E395C070E4F
:103A6C003A58D8A004D0010E89EC26F003D0020EEF
:103A7C0089EC26F03C5008E1320E3B5CD8B004D007
:103A8C00030E89EC26F00DD03C5004E1970E3B5C04
:103A9C00D8A004D0040E89EC26F003D0050E89ECD6
:103AAC0026F0000E0001FB6FCABC04D00B0E89EC93
:103ABC0026F003D0090E89EC26F0CAB804D0070E04
:103ACC0089EC26F003D0060E89EC26F00001FC519F
:103ADC00D8B4B5D739C015F03AC016F0176A186AC1
:103AEC00000E5BEC23F015C023F016C024F017C0B9
:103AFC0025F018C026F0970E276E750E286ECF0E87
:103B0C00296E3E0E2A6E88EC18F023C0D9F024C022
:103B1C00DAF025C0DBF026C0DCF03BC015F03CC071
:103B2C0016F0176A186A000E5BEC23F015C023F030
:103B3C0016C024F017C025F018C026F06F0E276EA3
:103B4C00120E286E830E296E3B0E2A6E88EC18F02E
:103B5C0023C094F124C095F125C096F126C097F1AD
:103B6C00220E0201C36FFDC0C4F2C56B9CEC2EF09B
:103B7C000001D56FD5510201C66FC76B39C0C8F2B1
:103B8C003AC0C9F2D9C0CAF2DAC0CBF2DBC0CCF26F
:103B9C00DCC0CDF23BC0CEF23CC0CFF294C1D0F22F
:103BAC0095C1D1F296C1D2F297C1D3F2ADEC2DF002
:103BBC001DD0130ED86502D0000ED86FD82BD8515B
:103BCC0097EC2EF007D0BA9A23D0140ED86F140E9F
:103BDC0097EC2EF0BD82F7D7000EFD6F000ED86F5C
:103BEC00000E97EC2EF0BD92BA8A12D0FD51D56F13
:103BFC00D66BD651000AD8A4EFD7D551000AD8B449
:103C0C00EBD7010AD8B4D5D7030AD8B4DED7E4D79A
:103C1C00400E326E020E336E66EC21F0000E000187
:103C2C00FC6FCBB009D0D72B040ED76508D7FD2B72
:103C3C00000ED76FBE8403D7000ED76FBE94FFD68D
:103C4C00000E316E000E306E020E2E24156E000E1C
:103C5C002F20166E19EC2BF015501610D8A402D08C
:103C6C00030E1200020E2E24156E000E2F20166E5F
:103C7C0019EC2BF0165003E1020E155CD8B082D073
:103C8C00020E12003150040D6F00CCFF60F06F007B
:103C9C00D0FF61F06000BBF0D9FF6000BFF0DAFF2D
:103CAC006F0078FF62F06F0074FF63F06051622563
:103CBC00D96E61516321DA6EDF50646F64C019F004
:103CCC001950D8A4200E1A6E020E2E241B6E000E54
:103CDC002F201C6E3150040D6F00CCFF65F06F006F
:103CEC00D0FF66F06000BBF0D9FF6000BFF0DAFFD8
:103CFC006F0078FF67F06F0074FF68F065516725FF
:103D0C00D96E66516821DA6EDF50696F69C015F0A3
:103D1C001550D8A4200E166E19EC2BF015C01DF002
:103D2C0016C01EF0B5EC20F019501A10D8A429D0EA
:103D3C002EC02CF02FC02DF03150040D6000BBF0C4
:103D4C00D9FF6000BFF0DAFF6F0078FF60F06F0002
:103D5C0074FF61F0F35000016027F4506123010EF1
:103D6C006025D96E000E6121DA6E01D829D00500CC
:103D7C00FA6EDE50FD6EDE50FE6EDE50FF6EFA50B7
:103D8C001200312A3150040D6000BBF0D9FF6000E5
:103D9C00BFF0DAFF6F0078FF60F06F0074FF61F026
:103DAC00F35000016027F4506123010E6025D96E99
:103DBC00000E6121DA6EDE50DE10DE10D8A462D760
:103DCC003150040D6000BBF0D9FF6000BFF0DAFF8A
:103DDC006F0078FF60F06F0074FF61F0F35000012A
:103DEC006027F4506123010E6025D96E000E61210D
:103DFC00DA6EDE50DE10DE10D8A402D0010E306E6A
:103E0C0030501200FAAF3D92FABF05D0FA5108E1DA
:103E1C00F905D8B005D0000E736F010E726F04D087
:103E2C00F9C072F0FAC073F0F7C074F0F8C075F016
:103E3C0062C076F063C077F064C078F065C079F04A
:103E4C0066C07AF067C07BF068C07CF069C07DF01A
:103E5C00000E7F6F4F0E7E6F000E0101E76F76D064
:103E6C007E07D8A07F07980E7E25D96E010E7F2184
:103E7C00DA6E76C015F077C016F078C017F079C0FE
:103E8C0018F07AC019F07BC01AF07CC01BF07DC012
:103E9C001CF00A0E1D6E000E1E6E000E1F6E000E24
:103EAC00206E000E216E000E226E000E236E000E90
:103EBC00246E9AEC27F015C06AF016C06BF017C090
:103ECC006CF018C06DF019C06EF01AC06FF01BC00A
:103EDC0070F01CC071F06A51300FDF6E7207D8A001
:103EEC0073077407D8A0750776C015F077C016F065
:103EFC0078C017F079C018F07AC019F07BC01AF0AE
:103F0C007CC01BF07DC01CF00A0E1D6E000E1E6ED8
:103F1C00000E1F6E000E206E000E216E000E226E23
:103F2C00000E236E000E246EFCEC24F015C076F00F
:103F3C0016C077F017C078F018C079F019C07AF075
:103F4C001AC07BF01BC07CF01CC07DF000017E51C0
:103F5C007F11D8B41AD076517711781179117A1162
:103F6C007B117C117D11D8A47BD773BF05D0735105
:103F7C0002E17205D8B074D775BF07D0755103E153
:103F8C007405D8A002D03DB26BD760C029F061C0D7
:103F9C002AF0980E7E252B6E010E7F212C6E74C09C
:103FAC002DF075C02EF090EC28F029C060F02AC0DE
:103FBC0061F012008CC166F08DC167F08EC168F0A3
:103FCC008FC169F02EC066F02FC067F030C068F06A
:103FDC0031C069F0810E326EFF0E336E66C034F064
:103FEC0067C035F068C036F069C037F0180E05D0E0
:103FFC00D8903732363235323432E82EF9D7345045
:10400C003224646F000E3320656F65BF0FD065518D
:10401C0004E1170E645DD8A009D02EC02EF02FC07D
:10402C002FF030C030F031C031F0120065BF5CD0E1
:10403C0064C032F0FF0E336EFF0E346E7F0E356EA1
:10404C00000E366E326601D007D036343632353239
:10405C0034323332322EF6D733C060F034C061F0D4
:10406C0035C062F036C063F0000160516615326EE7
:10407C0061516715336E62516815346E6351691561
:10408C00356E3250331034103510D8B4C6D766C0E4
:10409C0032F067C033F068C034F069C035F0200EE0
:1040AC0005D0D8903532343233323232E82EF9D74B
:1040BC003250D8B408D060516627615167236251E1
:1040CC00682363516923601D326E611D336E621D5E
:1040DC00346E631D356E325066173350671734508B
:1040EC0068173550691732D066C032F067C033F0AC
:1040FC0068C034F069C035F0200E05D0D890353248
:10410C00343233323232E82EF9D7326608D0000E10
:10411C00666F000E676F000E686F000E16D0D89099
:10412C006635326E6735336E6835346E6935356E8B
:10413C003250331034103510D8B408D0000E666FDE
:10414C00000E676F800E686FBF0E696F66C02EF031
:10415C0067C02FF068C030F069C031F0120019C090
:10416C0021F01AC022F01BC023F01CC024F01D0645
:10417C00D8A01E061D280FE11E28D8A40CD0000EB6
:10418C001A6E000E196E1200214A222A234A242A82
:10419C001D06D8A01E06600087F0F6FF60008BF0AD
:1041AC00F7FF000EF86E1F0EF76403D00800F550F1
:1041BC0007D06F00DBFFE1FF6F00DFFFE2FFE7508E
:1041CC000009D8B44AD060008FF0F6FF600093F07D
:1041DC00F7FF000EF86E1F0EF76403D00800F550C1
:1041EC0007D06F00DBFFE1FF6F00DFFFE2FFE7505E
:1041FC000009D8B432D01D501E10D8B42ED0600097
:10420C008FF0F6FF600093F0F7FF000EF86E1F0EB4
:10421C00F76403D00800F55007D06F00DBFFE1FF17
:10422C006F00DFFFE2FFE7501F6E600087F0F6FFC4
:10423C0060008BF0F7FF000EF86E1F0EF76403D0D2
:10424C000800F55007D06F00DBFFE1FF6F00DFFFC8
:10425C00E2FFE7501F18D8B497D7600087F0F6FF3D
:10426C0060008BF0F7FF000EF86E1F0EF76403D0A2
:10427C000800F55007D06F00DBFFE1FF6F00DFFF98
:10428C00E2FFE7501F6E60008FF0F6FF600093F0C6
:10429C00F7FF000EF86E1F0EF76403D00800F55000
:1042AC0007D06F00DBFFE1FF6F00DFFFE2FFE7509D
:1042BC00206E20501F5C196E1A6AD8A01A061200C4
:1042CC00000E00016C6F6C0E166E77EC2DF0000971
:1042DC00D8B412008AD020EE82F03250D926335056
:1042EC00DA227E0EDF640CD020EE82F03250D9261A
:1042FC003350DA22DF50346E34506A6F6B6B0ED051
:10430C0020EE82F03250D9263350DA22DF50346E50
:10431C00010E34246A6F6B6B000E6B236A513224CE
:10432C00346E6B513320356E020E3424D96E000E70
:10433C003520DA6E000EDF6E690E2C6E2C50D8A470
:10434C00200E2D6E020E2E6E3FEC2EF032C02EF093
:10435C0033C02FF026EC1EF0436E20EE82F032506C
:10436C00D9263350DA22000EDF6E020E3224156E7F
:10437C00000E3320166E000E186E000E176E000E17
:10438C001A6E800E196E11EC22F0120020EE82F0E3
:10439C003250D9263350DA227F0EDF60120020EE25
:1043AC0082F03250D9263350DA22DF50346E34503A
:1043BC003224356E000E3320366E020E3524D96E43
:1043CC00000E3620DA6E6000B3F1DFFF20EE82F0D3
:1043DC003250D9263350DA22DF2A6C0E2C6E2D6A1D
:1043EC00010E2E6E3FEC2EF0120000016C51346E5B
:1043FC00356A3550000AD8A4C9D734500D0AD8B440
:10440C006AD7160AD8B41200650AD8B41200010A89
:10441C00D8B41200BBD715C01FF016C020F019502D
:10442C001A10D8B4120060007FF0D9FF600083F03E
:10443C00DAFF60005FF0DFFF19501F241B6E1A506B
:10444C0020201C6EFF0E1B24D96EFF0E1C20DA6E72
:10445C0060005FF0DFFF1A5004E1030E195CD8A076
:10446C00120020EE01F01F50D9262050DA226000F5
:10447C005FF0DFFF20EE02F01F50D9262050DA2229
:10448C0060005FF0DFFF19501F241B6E1A502020B4
:10449C001C6EFE0E1B24D96EFF0E1C20DA6E600003
:1044AC005FF0DFFF19501F241B6E1A5020201C6E6A
:1044BC00FD0E1B24D96EFF0E1C20DA6E60005FF01F
:1044CC00DFFF1A5004E1070E195CD8A0120020EE91
:1044DC0003F01F50D9262050DA2260005FF0DFFF76
:1044EC0019501F241B6E1A5020201C6EFC0E1B240E
:1044FC00D96EFF0E1C20DA6E60005FF0DFFF1A50E1
:10450C0004E1090E195CD8A012001FC01BF020C0DA
:10451C001CF01B1E1C1E1B4A1C2A030E1B141D6E9A
:10452C001E6A1D501F261E5020221D50195E1E5043
:10453C001A5AFC0E1916FF0E1A160ED060007FF0D8
:10454C00D9FF600083F0DAFF60005FF0DFFF19062F
:10455C00D8A01A061F4A202A19501A10D8B41200D3
:10456C00EDD720EEE8F110EE25F0060E6F006FFF90
:10457C00E3FFE806FBE222C030F023C031F03050FC
:10458C003110D8A403D0250E306E316A30C015F02E
:10459C0031C016F019EC2BF015C034F016C035F004
:1045AC00F9C032F0FAC033F033BE0ED03450325C66
:1045BC003350800A246E3550800A2458D8B004D069
:1045CC0032C034F033C035F034C032F035C033F083
:1045DC00F7C02EF0F8C02FF03DA00DD016D0000E75
:1045EC00186E200E176E20C019F021C01AF040EC86
:1045FC0027F0344A352A2E50345C3550800A246E0C
:10460C002F50800A2458D8A0EAD7000E2D6E000E29
:10461C002C6E23D06000C3F0F6FF6000C7F0F7FFEC
:10462C00000EF86E1F0EF76403D00800F55007D08B
:10463C006F00DBFFE1FF6F00DFFFE2FFE750246E4E
:10464C002450176E186A20C019F021C01AF040ECE3
:10465C0027F0304A312A2C4A2D2A32502C5C2D500E
:10466C00800A246E3350800A2458D8A0D3D73DB08A
:10467C000DD016D0000E186E200E176E20C019F03B
:10468C0021C01AF040EC27F0344A352A2E50345C05
:10469C003550800A246E2F50800A2458D8A0EAD7AF
:1046AC0034C020F035C021F012001D6E1D50D8A46E
:1046BC0018AE1AD015C019F016C01AF017C01BF09E
:1046CC0018C01CF0191E1A1E1B1E1C1E192A000EC7
:1046DC001A221B221C2219C01FF01AC020F01BC06A
:1046EC0021F01CC022F008D015C01FF016C020F01D
:1046FC0017C021F018C022F0155016101710181002
:10470C00D8A409D0000E156E000E166E000E176E92
:10471C00000E186E1200960E1E6E06D01E2AD89031
:10472C002232213220321F32000E1F14196E000E5D
:10473C0020141A6E000E21141B6EFE0E22141C6E19
:10474C0019501A101B101C10D8B40DD0E7D71E2A04
:10475C00010E1F26000E202221222222D890223266
:10476C00213220321F32000E1F14196E000E20143D
:10477C001A6E000E21141B6EFF0E22141C6E1950A3
:10478C001A101B101C10D8B407D0E1D71E06D890F5
:10479C001F3620362136223621BE03D0020E1E6073
:1047AC00F5D71EA0219ED8901E321EC019F01A6A91
:1047BC001B6A1C6A19C01CF01B6A1A6A196A195008
:1047CC001F121A5020121B5021121C5022121D5065
:1047DC00D8A418AE01D0228E1FC015F020C016F040
:1047EC0021C017F022C018F01200000E256E000E2A
:1047FC00246E000E236E000E226E01D01C2A600067
:10480C0073F0F6FF200EF76E000EF86E0800F550F0
:10481C00200AD8B4F3D7F70E1E6EFF0E1F6E600081
:10482C0073F0F6FF200EF76E000EF86E0800F550D0
:10483C00206E216A1E5020261F50212221500BE190
:10484C00050E205CD8B007D0D9D7000E236E010E10
:10485C00226E1C2A34D0600073F0F6FF200EF76E27
:10486C00000EF86E0800F5501E6E1F6A1F50000AED
:10487C00D8A425D01E502B0AD8B4EBD7060AD8B42E
:10488C00E4D71DD024C015F025C016F0000E186E0C
:10489C000A0E176E4DEC2DF0600073F0F6FF200E33
:1048AC00F76E000EF86E0800F550155E000E165AE5
:1048BC00300E1524246E000E1620256ECAD7D00E8D
:1048CC001E6EFF0E1F6E600073F0F6FF200EF76E6B
:1048DC00000EF86E0800F550206E216A1E5020263E
:1048EC001F502122215004E10A0E205CD8A0CAD707
:1048FC0022502310D8A40DD024C01EF025C01FF0C8
:10490C001E1E1F1E1E4A1F2A1EC01CF01FC01DF09B
:10491C00120024C01CF025C01DF01200000E2F1434
:10492C006D6F000E30146E6F800E31146F6F7F0E32
:10493C003214706F6D516E116F117011D8A408D0B4
:10494C00000E2F6E000E306E000E316E000E326EA9
:10495C00000E33146D6F000E34146E6F800E351410
:10496C006F6F7F0E3614706F6D516E116F11701169
:10497C00D8A408D0000E336E000E346E000E356EC7
:10498C00000E366E32AE09D02F6C301ED8B0302AE5
:10499C00311ED8B0312A800E325636AE09D0336C67
:1049AC00341ED8B0342A351ED8B0352A800E36566F
:1049BC00000E2F1A000E301A000E311A800E321A09
:1049CC00000E331A000E341A000E351A800E361AE9
:1049DC0033502F5C34503058355031583650325893
:1049EC00D8B002D0D8901200D880120020EE25F05A
:1049FC00070EDE6AE806FDE21D501E101F10201087
:104A0C002110221023102410D8B446D0010E2D6E84
:104A1C000AD0D8901D361E361F3620362136223647
:104A2C00233624362D2A24AEF4D7D89025362636B4
:104A3C002736283629362A362B362C361D50155C4F
:104A4C001E5016581F5017582050185821501958DE
:104A5C0022501A5823501B5824501C58D8A011D03F
:104A6C001D50155E1E50165A1F50175A2050185ABA
:104A7C002150195A22501A5A23501B5A24501C5A8E
:104A8C002580D890243223322232213220321F3218
:104A9C001E321D322D2EC9D725C015F026C016F09A
:104AAC0027C017F028C018F029C019F02AC01AF036
:104ABC002BC01BF02CC01CF0120090C11FF091C138
:104ACC0020F092C121F093C122F015C01FF016C046
:104ADC0020F017C021F018C022F01FC019F020C020
:104AEC001AF021C01BF022C01CF0180E05D0D89073
:104AFC001C321B321A321932E82EF9D719501D6E9E
:104B0C001E6A1D501E10D8A419D0D8901F34196ECF
:104B1C0020341A6E21341B6E22341C6E19501A105C
:104B2C001B101C10D8A405D0000E166E020E156EAC
:104B3C001200000E166E030E156E12001D281E10AC
:104B4C00D8A41CD01FC019F020C01AF021C01BF033
:104B5C0022C01CF0090ED89019361A361B361C369A
:104B6C00E82EF9D719501A101B101C10D8A402D01B
:104B7C00010E01D0000E156E166A1200000E166E94
:104B8C00040E156E1200000EBE6E110EBD6E200EC0
:104B9C00BA6E000EBF6E000EBB6E000EBC6E020E27
:104BAC00C66E0F0EC76EDF0EC26EC368900EC46E5B
:104BBC000C0EC56E0C0E3A01706F600E606FFE0E1F
:104BCC00506F020E806F0F0E906F8F0E406F000EA5
:104BDC00716F000E916F000E816F010E516F500EB0
:104BEC00416F000E616F000E5A6F000E5B6F000E6E
:104BFC006A6F000E6B6F000E7A6F000E7B6F000EEB
:104C0C00826F000E926F000E426F000E526F000EFC
:104C1C00626F000E726F4369536963697369070EA3
:104C2C00836F936944695469646974690F0E846F66
:104C3C009469130EDE6F1E0E136F1F0E156F130E7D
:104C4C00166F170EE56F140EDF6F12001734183441
:104C5C001E6E1E50D8A409D0000E156E000E166ED6
:104C6C00000E176E000E186E120015C019F016C04B
:104C7C001AF017C01BF018C01CF0200E05D0D890ED
:104C8C001C321B321A321932E82EF9D719501D6E0C
:104C9C00178EFF0E1516FF0E1616FF0E1716000EAA
:104CAC001816960E1E5E1EAE0DD01E50800A970F63
:104CBC00D8A0D2D7D89018321732163215321E3EE1
:104CCC00F9D70DD01F0E1E6407D0C6D7D890153655
:104CDC001636173618361E061E50D8A4F7D71D5098
:104CEC00D8B408D0181E171E161E156C000E1622EE
:104CFC001722182215C015F016C016F017C017F0A1
:104D0C0018C018F01200176E2DD0BD98BD9A120065
:104D1C00BD98BD8A1200BD88BD9A1200BD9CBD9E77
:104D2C001200BD9CBD8E1200BD8CBD9E1200BF98A2
:104D3C00BF9A1200BF98BF8A1200BF88BF9A120098
:104D4C00BF9CBF9E1200BF9CBF8E1200BF8CBF9E2B
:104D5C001200BD98BD9ABD9CBD9EBF98BF9ABF9CCA
:104D6C00BF9E12001750156E166A1650000AD8A472
:104D7C00F0D71550000AD8B4C8D7010AD8B4CBD78D
:104D8C00030AD8B4C5D7010AD8B4C8D7070AD8B40F
:104D9C00CBD7010AD8B4C5D7030AD8B4C8D7010AEF
:104DAC00D8B4CBD70F0AD8B4C5D7010AD8B4C8D752
:104DBC00030AD8B4CBD7010AD8B4C5D7CAD739019E
:104DCC009397E20E156E4F0E166E000E176E5BEC7F
:104DDC002EF09399400E156E5A0E166E000E176E2D
:104DEC0054EC2EF0000E3D01EC6F000EED6F000E3A
:104DFC00EE6F000EEF6F000EF06F000EF16FB00E45
:104E0C00F26F800EF36F000EF46F8A0EF56F000ECA
:104E1C00F66F000EF76F000EF86F000EF96F000EB4
:104E2C00FA6F500E156E5D0E166E000E176E69EC55
:104E3C002EF04E0E156E5D0E166E000E176E62EC99
:104E4C002EF03E0E156E5D0E166E000E176E70EC8B
:104E5C002EF0000E456E000E4B6E000E4A6E400E8C
:104E6C00496E000E486E000E476E000E466E3901FC
:104E7C009387120019501A10D8B404D019501A1074
:104E8C00D8A404D0175092EC2EF04AD020EE09F0A2
:104E9C001950D9261A50DA22DE50DE10D8B416D0AA
:104EAC0020EE09F01950D9261A50DA2210EE03F030
:104EBC001950E1261A50E222DE50E65CE650800AD8
:104ECC001F6EDE50800A1F58D8B02AD020EE03F097
:104EDC001950D9261A50DA226F0078FF1BF06F0098
:104EEC0074FF1CF0600067F0D9FF60006BF0DAFF14
:104EFC006F0078FF1DF06F0074FF1EF01B501D2417
:104F0C00D96E1C501E20DA6E60005FF0DFFF20EEC1
:104F1C0003F01950D9261A50DA22DE2A000EDD22AF
:104F2C0017C017F0186A12001D501E101F10201009
:104F3C002110221023102410D8B43CD0010E256E61
:104F4C000AD0D8901D361E361F3620362136223612
:104F5C0023362436252A24AEF4D71D50155C1E505A
:104F6C0016581F50175820501858215019582250B5
:104F7C001A5823501B5824501C58D8A010D01D5020
:104F8C00155E1E50165A1F50175A2050185A215091
:104F9C00195A22501A5A23501B5A24501C5AD89072
:104FAC00243223322232213220321F321E321D3261
:104FBC00252ED3D715C015F016C016F017C017F054
:104FCC0018C018F019C019F01AC01AF01BC01BF049
:104FDC001CC01CF01200000E4824D96EDA6A010EB7
:104FEC00DA22000EDF6E3D01F9A715D0000E482421
:104FFC00D96EDA6A010EDA220101DF8201D80BD0F8
:10500C000500FA6E0001E651FD6EE751FE6EE851A7
:10501C00FF6EFA5012003D01F9A315D0000E482482
:10502C00D96EDA6A010EDA220101DF8401D80BD0C5
:10503C000500FA6E0001E351FD6EE451FE6EE55180
:10504C00FF6EFA501200000E4824D96EDA6A010E77
:10505C00DA22DF50D8B40DD001D812000500FA6E58
:10506C000001E051FD6EE151FE6EE251FF6EFA500F
:10507C001200CFEC2DF012002C0EF66E5C0EF76EBB
:10508C00000EF86E00EEE8F110EE17F009006F005C
:10509C00D7FFEEFFE550E150F9E1440EF66E5D0EE0
:1050AC00F76E000EF86E09006F00D4FFFDF00900DA
:1050BC006F00D4FFFEF009006F00D4FFFFF000EE8C
:1050CC0000F310EEFFF0EE6AE550E150FCE1E25027
:1050DC00FAE100EE00F2C30EEE6AE806FDE100EE26
:1050EC0000F1E80EEE6AE806FDE100EED9F0240EC0
:1050FC00EE6AE806FDE100EE39F0130EEE6AE80602
:10510C00FDE1080ED56E000ED66E000ED76E0001B6
:10511C00FBEF1CF03DA00AD02BC020F02CC021F0DE
:10512C0029C022F02AC023F015EC2AF02EBE05D09F
:10513C002DC032F02EC033F004D0000E336E000EB2
:10514C00326E000E316E000E306E0CD0000E186EEA
:10515C00200E176E29C019F02AC01AF040EC27F067
:10516C00304A312A3250305C3150800A2F6E335025
:10517C00800A2F58D8A0EAD73DB00AD02BC020F017
:10518C002CC021F029C022F02AC023F015EC2AF003
:10519C002BC015F02CC016F019EC2BF03250152446
:1051AC00296E335016202A6E1200000E15141D6E37
:1051BC00000E16141E6E800E17141F6E7F0E181420
:1051CC00206E1D501E101F102010D8A408D0000EE9
:1051DC00156E000E166E000E176E000E186E000E79
:1051EC0019141D6E000E1A141E6E800E1B141F6EE9
:1051FC007F0E1C14206E1D501E101F102010D8A4E2
:10520C0008D0000E196E000E1A6E000E1B6E000EEA
:10521C001C6E195015180AE11A50161807E11B508C
:10522C00171804E11C501818D8B402D0D8901200EA
:10523C00D8801200D7C215F0D8C216F0000E186E26
:10524C00000E176E000E1A6E830E196E11EC22F002
:10525C0060005FFBD9FF600063FBDAFF600067FB57
:10526C00DEFF60006BFBDDFF020E0201D725C36F72
:10527C00000ED821C46F6C0EC56F810EC66FC6515F
:10528C00D8A4200EC76FA10EC86FC851D8A4200E89
:10529C00C96FCBEC2AF0020ED725296E000ED8214F
:1052AC002A6E82EC2CF0060E296E2950D8A4200E02
:1052BC002A6E82EC2CF01200000E1A6E18AE06D07C
:1052CC00176C181ED8B0182A010E1A6E16AE06D01E
:1052DC00156C161ED8B0162A010E1A1A000E1C6E6A
:1052EC00000E1B6E17501810D8B41CD0010E196E7E
:1052FC0004D0D89017361836192A18AEFAD7D89089
:10530C001B361C361750155C18501658D8A005D0F3
:10531C001750155E1850165A1B80D8901832173239
:10532C00192EEDD71A50D8B404D01B6C1C1ED8B053
:10533C001C2A1BC015F01CC016F01200000E3E01FA
:10534C00DE6F000EDF6F000EE06F000EE16F000EDF
:10535C00E46F000EE56F000EEA6F000EEC6F000EAE
:10536C00F16F100EF36F000EF46F000EF56F000E60
:10537C00F66F000EF76F000EF96F000EFA6F000E4D
:10538C00FB6F000EFC6F020EFD6F070EFE6F000E22
:10539C00FF6F940EF86F3901A1959185480E156E2B
:1053AC005D0E166E000E176E85EC2EF01200000EC0
:1053BC001A6E16AE06D0156C161ED8B0162A010E33
:1053CC001A6E18AE04D0176C181ED8B0182A1750C5
:1053DC001810D8B418D0010E196E04D0D890173606
:1053EC001836192A18AEFAD71750155C18501658DB
:1053FC00D8A004D01750155E1850165AD8901832F1
:10540C001732192EF1D71A50D8B404D0156C161EB9
:10541C00D8B0162A15C015F016C016F01200000EE2
:10542C00286E000E276E0BD026C017F0186A22C00B
:10543C0019F023C01AF040EC27F0274A282A2750ED
:10544C002024246E28502120256E600093F0F6FF56
:10545C00600097F0F7FF000EF86E1F0EF76403D094
:10546C000800F55007D06F00DBFFE1FF6F00DFFF96
:10547C00E2FFE750266E2650D8A4D6D727C020F0DE
:10548C0028C021F0120017C01BF018C01CF015C06A
:10549C001DF016C01EF01B50196E1C501A6E1B4AC4
:1054AC001C2A600067F0F6FF60006BF0F7FF000E3F
:1054BC00F86E600077F0D9FF60007BF0DAFF1D4AD0
:1054CC001E2A1F0EF76403D00800F55007D06F009A
:1054DC00DBFFE1FF6F00DFFFE2FFE750DF6EDF5025
:1054EC00D8B41200D8D7D0C038F0000EF66F000E2A
:1054FC00F56F11D0CEC0AFF0CFC0B0F0380EB16F99
:10550C00D1C0B2F0D2C0B3F04CEC15F00001AF51E9
:10551C00F527B051F6236000E3F0F6FF200EF76E8E
:10552C00000EF86E0800F5500009D8A4E3D7F5C0BA
:10553C00CEF0F6C0CFF01200000E126E000E116EFF
:10554C00D8901134D96E1234DA6E800ED926010E31
:10555C00DA22DE50DE10D8B40CD0D8901134D96ECB
:10556C001234DA6E800ED926010EDA22DE06000E17
:10557C00DD5A114A122A12BEE3D7125005E1060E6B
:10558C00115CD8B01200DCD71200C60ECA6F020E26
:10559C00CB6FC3C2CCF2C4C2CDF2000ED06F000EE2
:1055AC00CF6F000ED66F000ED56FCC0E0001CE6FF4
:1055BC00020ECF6FC5C2D0F0CA0ED16F020ED26FE1
:1055CC0079EC2AF00201CF51C325D96ED051C421F8
:1055DC00DA6E000EDF6E12006F00E8FF13F06F0042
:1055EC00ECFF14F03901A89D3FC00FF040C010F043
:1055FC009BEC2DF00001DD51DE11DF11D8B40CD085
:10560C0001D80AD00500FA6EDD51FD6EDE51FE6E3A
:10561C00DF51FF6EFA501200600053F0FBFF600088
:10562C004FF0FAFF110015C017F016C018F002D099
:10563C00154A162A600057F0F6FF60005BF0F7FF82
:10564C00000EF86E1F0EF76403D00800F55007D05B
:10565C006F00DBFFE1FF6F00DFFFE2FFE7500009A7
:10566C00D8A4E6D71750155C156E18501658166E40
:10567C001200000E9B6E000E9C6E020E9D6E830E31
:10568C00996E000E986E3901A89D98506F0064FEBB
:10569C0018F0196A18C019F0186A18103F6E1950D2
:1056AC00406E988D520E156E5D0E166E000E176EB6
:1056BC007EEC2EF0010E9A6E1200000E331A000EC4
:1056CC00341A000E351A800E361A2FC015F030C061
:1056DC0016F031C017F032C018F033C019F034C0D6
:1056EC001AF035C01BF036C01CF031EC1AF015C0A6
:1056FC002FF016C030F017C031F018C032F0120085
:10570C00D28A000ED2BE010E156ED29E550ED46EEC
:10571C00AA0ED46ED490000ED76E000ED66E080E64
:10572C00D56E550ED46EAA0ED46ED48015B002D0A0
:10573C00D29E01D0D28E3901838983878981888D4D
:10574C00818512006F00E8FF06F06F00ECFF07F098
:10575C003901A1950001EC51ED11EE11D8B40CD02A
:10576C0001D80AD00500FA6EEC51FD6EED51FE6EBB
:10577C00EE51FF6EFA50120060001FF0FBFF60004C
:10578C001BF0FAFF1100010E1B6E200E15181610DF
:10579C00D8B414D0F70E176EFF0E186E15C019F092
:1057AC0016C01AF01750192618501A221A5004E174
:1057BC00050E195CD8A002D0000E1B6E1BC015F094
:1057CC00166A12004650D8B4FDD7000E4724D96E85
:1057DC00DA6A010EDA22DF50456E000E4724D96ECC
:1057EC00DA6A020EDA22DF50156E472A3F0E476442
:1057FC0002D0000E476E39019397460693871550D9
:02580C00120088
:105810006F00E8FF0BF06F00ECFF0CF00001EF51A0
:10582000F011F111D8B40CD001D80AD00500FA6EED
:10583000EF51FD6EF051FE6EF151FF6EFA50120005
:0E584000600033F0FBFF60002FF0FAFF110054
:105850006F00E8FF0DF06F00ECFF0EF00001F25159
:10586000F311F411D8B40CD001D80AD00500FA6EA7
:10587000F251FD6EF351FE6EF451FF6EFA501200BC
:1058800060003BF0FBFF600037F0FAFF1100156E7F
:105890004950D8B4FDD7390193B904D0600057F00E
:1058A000EAFD11D09399400E4B24D96EDA6A010EAD
:1058B000DA22600057F0DFFF4B2A3F0E4B6402D024
:1058C000000E4B6E490693891200BF0E1D6EFF0E2F
:1058D0001E6E1BC01FF01CC020F01D501F261E5046
:1058E000202220500AE11A0E1F5CD8B006D0200EEC
:1058F0001B101B6E1C501C6E12001BC01BF01CC02A
:105900001CF01200010E2B6E29C020F02AC021F0DD
:10591000000E226E000E236E15EC2AF021BE12003E
:10592000000E186E0A0E176E000E196E000E1A6E1B
:1059300040EC27F018BE1200000E2B6E120022EC75
:105940002EF04450020DF350390FD96EDA6A600020
:1059500007F0DEFF60000BF0DDFF442A4404056E13
:10596000010E056402D0000E446E600013F1F1FEDA
:10597000010E0001FB6F12006F00E8FF09F06F00DD
:10598000ECFF0AF03901A991414A422A425004E150
:10599000170E415CD8A006D089EC2DF0000E426EA7
:1059A000000E416E60002BF0FBFF600027F0FAFF55
:1059B0001100BF0E176EFF0E186E15C019F016C03D
:1059C0001AF01750192618501A221A5006E11A0E0A
:1059D000195CD8B002D0010E01D0000E156E166A07
:1059E0001200D00E176EFF0E186E15C019F016C0FB
:1059F0001AF01750192618501A221A5006E10A0EEA
:105A0000195CD8B002D0010E01D0000E156E166AD6
:105A100012001550161017101810D8B408D0000E28
:105A2000151A000E161A000E171A800E181A15C035
:105A300015F016C016F017C017F018C018F01200B5
:105A4000400E496011D0400E4A24D96EDA6A010E28
:105A5000DA22DF503D01EA6F4A2A3F0E4A6402D043
:105A6000000E4A6E492A1200390193991200010E64
:105A7000966E200E956E000E976E4D0E936E000E74
:105A8000926EA99199814A0E156E5D0E166E000EEA
:105A9000176E77EC2EF094681200155017026F0005
:105AA000CCFF19F06F00D0FF1AF015501802F35018
:105AB0001A2616501702F3501A2619C015F01AC0EC
:105AC00016F0120086EC2BF0BEEC2DF0C9EC25F0A0
:105AD000EFEC2DF037EC2DF0A4EC29F08CEC2EF04F
:105AE0003FEC2BF0E5EC26F0FDEC2DF0120046EC3F
:105AF0002EF00009D8B40BD0E8EC2BF0176E16503E
:105B0000D96EDA6A60005FF0DFFF010E1200000E4E
:105B100012000001E951EA11EB11D8B4120001D8CA
:105B200012000500FA6EE951FD6EEA51FE6EEB516E
:105B3000FF6EFA5012009AA409D09A90600043F0C8
:105B400099FF60003FF098FF9A801200600043F0D8
:105B500099FF60003FF098FF1200C40E0001D36F60
:105B6000020ED46F000ECE6F000ECF6FC3C2D0F006
:105B7000D30ED16FD26B79EC2AF01200000EC06FF9
:105B8000000EC16F000EC26F000EC36F000EC46F17
:105B9000000EC56F000EC66F000EC76F1200000E1C
:105BA0004824D96EDA6A020EDA226F00A3F7DFFF0B
:105BB000482A3F0E486402D0000E486E462A120062
:105BC000BEA002D0010E01D0000EFF0A086EBE502A
:105BD0000818FE0B0818BE6E010EFC6F1200200E96
:105BE0003901D96F000EDB6F000EDD6F050EDF6F20
:105BF000000EDE6FDCB11200FDD7020E3D01146F06
:105C0000400E156F000E166F000E1C6F080E196FF8
:105C1000C4961200400E0201D76F020ED86FEF0E2D
:105C2000D96F010EDA6F20EC29F01200286E756C26
:105C30006C2900C79A5C00C16C5C00C45A5C00000F
:035C400000000061
:105C44003E01F051046E036AEF510324016E000E0D
:105C54000420026E1200970E296E2950D8A4200E3B
:105C64002A6E82EC2CF012008D0E296E2950D8A4D5
:105C7400200E2A6E82EC2CF012002CC029F02DC0CC
:105C84002AF082EC2CF012004650D8B402D0010E57
:105C94001200000E12002CC029F02DC02AF082EC54
:105CA4002CF0120015C0EFF016C0F0F017C0F1F0A0
:105CB400120015C0F2F016C0F3F017C0F4F0120091
:105CC40015C0E3F016C0E4F017C0E5F0120015C0EB
:105CD400E6F016C0E7F017C0E8F0120015C0E0F0D7
:105CE40016C0E1F017C0E2F0120015C0E9F016C0CA
:105CF400EAF017C0EBF0120015C0DDF016C0DEF0BC
:105D040017C0DFF0120015C0ECF016C0EDF017C09C
:105D1400EEF01200A40E3E019E6F1F0E9C6F120047
:105D2400166E165047EC2CF01200156E600057F0FA
:105D34009CFE12003E019C511200CFEC2DF012008B
:035D440001A18139
:0C5D4800120012001100120012001200E4
:020000040020DA
:10000000FF0FFF0FFF0FFF0FFF0FFF0FFF0FFF0F80
:020000040030CA
:0A000000AFFFFFFF9FFFFFFFFFFFB0
:00000001FF
