:0400000057EF00F0C6
:100008002953295329532953295329532953295308
:10001800295329539B502953295329532953295389
:10002800AC502953BD5029532953295329532953D7
:10003800295329532953455033502B513B512953A8
:1000480029532953295329532B0029532953295319
:1000580029532953295329532953295329532953B8
:1000680029532953295329532953295329532953A8
:10007800295329532B002953295329532B002B008B
:100088002B002B002B002B002B002B00D54F2953C6
:1000980077512953295329532B002B002B002B0070
:0A00A80029532953FF00F4EF96F0EE
:10FDCA000002200002000D0A20436F6D6D616E640F
:10FDDA002070726F636573736F722056312E300D07
:10FDEA000A0056312E3032205053205445535400C5
:10FDFA002050532054595045202531753A205053EC
:10FE0A002054657374202531753A20444143204FAC
:10FE1A0055542025342E34756D5620423D252E32F8
:10FE2A00752C20537570706C79205265616442613B
:10FE3A00636B2025342E34756D5620563D252B369E
:10FE4A002E3166562025342E34756D5620493D25AF
:10FE5A002B332E31666D41203A20537461746973D5
:10FE6A0074696373205374643D25362E31665620B7
:10FE7A005661723D25362E316656204D65616E3DBE
:10FE8A0025362E3166560D0A000D0A204143434598
:10FE9A004C205375707072657373696F6E20537559
:10FEAA0070706C79200D0A000D0A204558542053B1
:10FEBA0075707072657373696F6E20537570706CAC
:10FECA0079200D0A000D0A20537465616479205661
:10FEDA004443204F4E203A2044656661756C740D88
:10FEEA000A004D2531752C20502531752C204425CA
:10FEFA00332E3166205625332E31662020200025E8
:10FF0A00342E34756D562025342E34756D562025C1
:10FF1A00342E34756D5600563D252B362E316656D5
:10FF2A0020493D252B332E31666D412020000D0AD4
:10FF3A0020566F6C74616765204F4E203A205365D6
:10FF4A00740D0A000D0A20566F6C746167652044AF
:10FF5A004F574E200D0A000D0A20566F6C746167C8
:10FF6A0065204F4646200D0A000D0A2052616D7029
:10FF7A0020564443204F4E200D0A000D0A20566F8A
:10FF8A006C74616765204C4F57200D0A000D0A20DA
:10FF9A00566F6C74616765205550200D0A000D0A72
:10FFAA00204275696C642025732025730D0A004A66
:10FFBA00756C20313420323032340031323A3436E2
:10FFCA003A353200286E756C6C290025732025732A
:10FFDA0000696E66006E616E0070300070310070EC
:10FFEA006400706C00706F00707000707200707343
:05FFFA0000707500001D
:020000040001F9
:10000000000ED06FA8C0D1F0A9C0D2F0AAC0D3F022
:10001000ABC0D4F0D4AF14D0010ED06FD1C063F018
:10002000D2C064F0D3C065F0D4C066F087ECA3F012
:1000300063C0D1F064C0D2F065C0D3F066C0D4F024
:10004000000ED66F000ED56FF4C0C0F0F5C0C1F041
:10005000D051D8A402D02FA40DD0D051D8A404D010
:10006000000EB66F2B0E03D0000EB66F2D0EB56FBF
:10007000B5C0D0F0D1C063F0D2C064F0D3C065F099
:10008000D4C066F036EC99F063056411D8A42BD087
:10009000D051D8B409D0D0C0A0F1C007D8A0C107B2
:1000A000000ED66F010ED56FA00ED525636F010E21
:1000B000D621646FDB0E656FFF0E666F95ECA2F0C4
:1000C000FD0EC027FF0EC123A6C073F0A7C074F0B9
:1000D000A00E756F010E766FC0C077F0C1C078F0CA
:1000E000C3EC9CF01200D1C063F0D2C064F0D3C066
:1000F00065F0D4C066F036EC99F063516411D8A471
:1001000019D0D051D8B409D0D0C0A0F1C007D8A020
:10011000C107000ED66F010ED56FA00ED525636FF7
:10012000010ED621646FDF0E656FFF0E666F95ECD2
:10013000A2F0C6D7000ED76F000ED86F800ED96F11
:100140003F0EDA6F000EBF6F000EBE6FD1C063F0BE
:10015000D2C064F0D3C065F0D4C066F0000E676F03
:10016000000E686F000E696F000E6A6F7EEC9CF0E7
:10017000D8A00BD0BAD0C2C0D7F0C3C0D8F0C4C08A
:10018000D9F0C5C0DAF0BE4BBF2BD7C075F0D8C0D0
:1001900076F0D9C077F0DAC078F0000E796F000EF3
:1001A0007A6F200E7B6F410E7C6F63EC8DF075C013
:1001B000C2F076C0C3F077C0C4F078C0C5F0C251B9
:1001C000D15D636FC351D259646FC451D359656F08
:1001D000C551D459666FF7EC9FF066BFCCD7665116
:1001E0006511641104E1020E635DD8A0C4D7C2C0DA
:1001F0008EF0C3C08FF0C4C090F0C5C091F0D1C0E4
:1002000092F0D2C093F0D3C094F0D4C095F067ECD4
:1002100098F0D8A0B0D7D751D15D636FD851D259DB
:10022000646FD951D359656FDA51D459666FF7ECC1
:100230009FF066BF08D066516511641142E1020E5D
:10024000635DD8B03ED0D7C0D1F0D8C0D2F0D9C00D
:10025000D3F0DAC0D4F049D0D7C075F0D8C076F06A
:10026000D9C077F0DAC078F0000E796F000E7A6F9F
:10027000200E7B6F410E7C6FF9EC91F075C0D7F0CA
:1002800076C0D8F077C0D9F078C0DAF0BE07D8A031
:10029000BF07D751D15D636FD851D259646FD9511F
:1002A000D359656FDA51D459666FF7EC9FF066BF8A
:1002B000CAD766516511641104E1020E635DD8A0CE
:1002C000C2D7D1C08EF0D2C08FF0D3C090F0D4C0CE
:1002D00091F0D7C092F0D8C093F0D9C094F0DAC0B2
:1002E00095F067EC98F0D8A0B7D7ACC0B8F0B8C01C
:1002F000B9F0F7BF05D0F6C0B1F0F7C0B2F004D046
:10030000000EB26F060EB16FB1C0BCF0B2C0BDF04E
:10031000BC4BBD2B660EB919D8A416D0BFAF0CD0FC
:10032000000ED76F000ED86F800ED96F3F0EDA6FB8
:10033000000EBF6F000EBE6F670EB819D8B404D0A0
:10034000BE51BC27BF51BD23000EC76F000EC66F44
:10035000D1C0C8F0D2C0C9F0D3C0CAF0D4C0CBF06D
:10036000D7C0C2F0D8C0C3F0D9C0C4F0DAC0C5F05D
:100370007AD0C8C075F0C9C076F0CAC077F0CBC0DB
:1003800078F0D7C079F0D8C07AF0D9C07BF0DAC065
:100390007CF0F9EC91F075C08EF076C08FF077C0EC
:1003A00090F078C091F032EC94F08EC0CCF08FC019
:1003B000CDF090C0CEF091C0CFF0CCC063F0CDC0F6
:1003C00064F0CEC065F0CFC066F0C3EC9AF063C0B5
:1003D000BAF064C0BBF0C8C09EF0C9C09FF0CAC0EC
:1003E000A0F0CBC0A1F0CCC079F0CDC07AF0CEC0E7
:1003F0007BF0CFC07CF0D7C075F0D8C076F0D9C004
:1004000077F0DAC078F063EC8DF075C0A2F076C0BA
:10041000A3F077C0A4F078C0A5F0D1ECA0F09EC006
:10042000C8F09FC0C9F0A0C0CAF0A1C0CBF0D7C02F
:1004300075F0D8C076F0D9C077F0DAC078F0000E49
:10044000796F000E7A6F200E7B6F410E7C6FF9EC96
:1004500091F075C0D7F076C0D8F077C0D9F078C0E9
:10046000DAF0C64BC72BBC51C65DC751800AAD6FD1
:10047000BD51800AAD59D8A07CD7D7C075F0D8C07F
:1004800076F0D9C077F0DAC078F0000E796F000E00
:100490007A6FA00E7B6F400E7C6F63EC8DF075C0A1
:1004A000CCF076C0CDF077C0CEF078C0CFF0C8C029
:1004B0008EF0C9C08FF0CAC090F0CBC091F0CCC014
:1004C00092F0CDC093F0CEC094F0CFC095F067EC21
:1004D00098F0D8A015D0C8C063F0C9C064F0CAC0F5
:1004E00065F0CBC066F0CCC067F0CDC068F0CEC080
:1004F00069F0CFC06AF07EEC9CF0D8B0BAB108D0F9
:10050000000ECC6F000ECD6F000ECE6F000ECF6FC1
:10051000D1C08EF0D2C08FF0D3C090F0D4C091F093
:10052000CCC092F0CDC093F0CEC094F0CFC095F087
:100530000BEC8FF08EC0C8F08FC0C9F090C0CAF02D
:1005400091C0CBF0C8C08EF0C9C08FF0CAC090F087
:10055000CBC091F0000E796F000E7A6F200E7B6F8A
:10056000410E7C6FC2C075F0C3C076F0C4C077F096
:10057000C5C078F063EC8DF075C092F076C093F052
:1005800077C094F078C095F067EC98F0D8A022D0AE
:10059000BE4BBF2BC2C075F0C3C076F0C4C077F0AD
:1005A000C5C078F0000E796F000E7A6F200E7B6F59
:1005B000410E7C6F63EC8DF075C0C2F076C0C3F065
:1005C00077C0C4F078C0C5F0660EB919D8A402D0BF
:1005D000BC4BBD2BC2C0D7F0C3C0D8F0C4C0D9F04B
:1005E000C5C0DAF0BEC0AFF0BFC0B0F0000EB76F4C
:1005F000000EB46F000EB36F000EC76F000EC66F13
:10060000CAD0C8C075F0C9C076F0CAC077F0CBC0F8
:1006100078F0D7C079F0D8C07AF0D9C07BF0DAC0D2
:100620007CF0F9EC91F075C08EF076C08FF077C059
:1006300090F078C091F032EC94F08EC0CCF08FC086
:10064000CDF090C0CEF091C0CFF0CCC063F0CDC063
:1006500064F0CEC065F0CFC066F0C3EC9AF064BF22
:1006600006D0645113E10A0E635DD8B00FD0CCC040
:1006700063F0CDC064F0CEC065F0CFC066F0C3ECCF
:100680009AF063C0BAF064C0BBF004D0000EBB6F38
:10069000090EBA6FB751D8B4B0AF20D0A00ED5258F
:1006A000D96E010ED621DA6E2E0EDF6ED54BD62B0B
:1006B000C007D8A0C107010EB76F10D0A00ED52576
:1006C000D96E010ED621DA6E300EDF6ED54BD62BE9
:1006D000C007D8A0C107B307D8A0B407B351B4115D
:1006E000D8A4ECD7A00ED525D96E010ED621DA6E8E
:1006F000BA51300FDF6ED54BD62BC007D8A0C1073B
:10070000C8C09EF0C9C09FF0CAC0A0F0CBC0A1F085
:10071000CCC079F0CDC07AF0CEC07BF0CFC07CF0F9
:10072000D7C075F0D8C076F0D9C077F0DAC078F0CD
:1007300063EC8DF075C0A2F076C0A3F077C0A4F092
:1007400078C0A5F0D1ECA0F09EC0C8F09FC0C9F061
:10075000A0C0CAF0A1C0CBF0D7C075F0D8C076F069
:10076000D9C077F0DAC078F0000E796F000E7A6F9A
:10077000200E7B6F410E7C6FF9EC91F075C0D7F0C5
:1007800076C0D8F077C0D9F078C0DAF0AF07D8A03B
:10079000B007C64BC72BBC51C65DC751800AAD6FB1
:1007A000BD51800AAD59D8B008D0D6BF2AD7D6518E
:1007B00004E14B0ED55DD8A024D7000EC76F4F0EB5
:1007C000C66FA00EC625D96E010EC721DA6EDF6A8C
:1007D000A00EAD6F010EAE6FD551AD5FD651AE5BC1
:1007E000C651AD25636FC751AE21646FA00E656F12
:1007F000010E666FD5C067F0D6C068F034EC9FF08C
:10080000D551C65DD56FD651C759D66FD051D8B422
:1008100002D0010E01D0000EC66FC76BD051D8B404
:100820000CD0D507D8A0D607A00ED525D96E010EBD
:10083000D621DA6E600043F3DFFFC651C05FC751B7
:10084000C15BA6C073F0A7C074F0A00ED525756F6C
:10085000010ED621766FC0C077F0C1C078F0C3EC2E
:100860009CF01200000E0201FC6F000EFD6F37ECD1
:10087000A2F0BD92BE94BC0E0001636F490E646F7E
:10088000010E656FF9ECA5F0160E636F3E0E646FF6
:10089000010E656F00ECA6F0EE0E636F2F0E646F15
:1008A000010E656F1CECA6F0000E3E01F16F000E0C
:1008B000206E000E1F6E0BECA3F0000E206E000EDB
:1008C0001F6E3EECA3F0920E636F4C0E646F010E30
:1008D000656F0EECA6F0D28ED28CF8512EECA6F0FD
:1008E00062EC9AF00C0EB3ECA5F0FD0E0001636F04
:1008F000020E646F55ECA4F00009D8A4F6D76CEC96
:10090000A5F0000E0301C66F040EC76FA80EC86FD6
:10091000FF0EC96FB90ECA6FFF0ECB6FC50ECC6F3D
:10092000FF0ECD6F38EC9EF0000E0001636F040ED9
:10093000646F71EC9DF0010E0001676F2C0E666F05
:10094000F4ECA3F0000E0301C66F040EC76FD50EC2
:10095000C86FFF0EC96FB90ECA6FFF0ECB6FC50E01
:10096000CC6FFF0ECD6F38EC9EF0000E0001766F5D
:10097000000E776F040E786F000E64EC9EF0000E90
:100980000301C66F040EC76FD80EC86FFF0EC96F84
:10099000EC0ECA6FFD0ECB6F38EC9EF0000E00011E
:1009A000766F000E776F040E786F010E64EC9EF088
:1009B000000E206E000E1F6EFDECA4F0310AD8B4BC
:1009C0002ED0000E0001646F000E636F310E656F54
:1009D0009BECA1F0000E0001646F010E636F390EF5
:1009E000656F9BECA1F0000E0001646F020E636F57
:1009F000350E656F9BECA1F0000E0001646F030ED5
:100A0000636F370E656F9BECA1F0000E0001646F01
:100A1000100E636F000E656F9BECA1F007D0000E07
:100A2000206E100E1F6EFDECA4F03F6E070E00014D
:100A3000676FD00E666FF4ECA3F0F951D8B4FDD710
:100A400035507E0DFF0EF324D96E040EF420DA6EBD
:100A5000840EDE5C030EDE58D8B004D0000E20EC0D
:100A60009BF015D035507E0DFF0EF324D96E040E89
:100A7000F420DA6E090EDE5C070EDE58D8A004D032
:100A8000010E20EC9BF003D0020E20EC9BF03550C1
:100A90007E0D010EF324D96E050EF420DA6E010EE0
:100AA000DB5008E1320EDE5CD8B004D0030E20EC3F
:100AB0009BF016D035507E0D010EF324D96E050E35
:100AC000F420DA6E010EDB5004E1970EDE5CD8A054
:100AD00004D0040E20EC9BF003D0050E20EC9BF01C
:100AE000000EF96FCABC04D00B0E20EC9BF003D0B3
:100AF000090E20EC9BF0CAB804D0070E20EC9BF046
:100B000003D0060E20EC9BF0FA51D8B496D73F5094
:100B1000080DD20EF324FB6F020EF420FC6F35504B
:100B20007E0DFF0EF324D96E040EF420DA6E6F00F2
:100B300078FFFAF26F0074FFFBF2FAC267F0FBC2B3
:100B400068F0696B6A6B000EB3EC95F067C075F0E6
:100B500068C076F069C077F06AC078F06000EFF3A3
:100B6000D9FF6000F3F3DAFF6F0078FF79F06F00D0
:100B700078FF7AF06F0078FF7BF06F0078FF7CF0F1
:100B800063EC8DF075C07CF176C07DF177C07EF1AD
:100B900078C07FF135507E0D010EF324D96E050E1D
:100BA000F420DA6E6F0078FFFAF26F0074FFFBF248
:100BB000FAC267F0FBC268F0696B6A6B000EB3ECB7
:100BC00095F067C075F068C076F069C077F06AC0CC
:100BD00078F020EE04F0FB51D926FC51DA226F00A8
:100BE00078FF79F06F0078FF7AF06F0078FF7BF084
:100BF0006F0078FF7CF063EC8DF075C078F176C003
:100C000079F177C07AF178C07BF16000EFF3D9FF1A
:100C10006000F3F3DAFF6F0078FFA6F06F0078FF53
:100C2000A7F06F0078FFA8F06F0078FFA9F0000E22
:100C3000AA6F91EC90F0FA0E0301C66FFD0EC76F1C
:100C40003FC0C8F3C96B33C0CAF3CB6B35507E0DC0
:100C5000790EF324D96E050EF420DA6E6F0078FF5A
:100C6000CCF36F0074FFCDF33DECA6F00201FA6FF8
:100C7000FA510301CE6FCF6B35507E0DFF0EF3247A
:100C8000D96E040EF420DA6E6F0078FFD0F36F0097
:100C900074FFD1F37CC1D2F37DC1D3F37EC1D4F311
:100CA0007FC1D5F335507E0D010EF324D96E050EAC
:100CB000F420DA6E6F0078FFD6F36F0074FFD7F37D
:100CC00078C1D8F379C1D9F37AC1DAF37BC1DBF308
:100CD00064C1DCF365C1DDF366C1DEF367C1DFF338
:100CE00021C0E0F322C0E1F323C0E2F324C0E3F328
:100CF00068C1E4F369C1E5F36AC1E6F36BC1E7F3E8
:100D00001CECA4F00201FC2BFC05FA6F030EFA1791
:100D1000D8A4F4D0000E0301C66F040EC76F090EED
:100D2000C86FFF0EC96F35507E0D790EF324D96E52
:100D3000050EF420DA6E6F0078FFCAF36F0074FFBF
:100D4000CBF335507E0DFF0EF324D96E040EF42044
:100D5000DA6E6F0078FFCCF36F0074FFCDF335507F
:100D60007E0D010EF324D96E050EF420DA6E6F00AD
:100D700078FFCEF36F0074FFCFF338EC9EF0000ED7
:100D80000001766F000E776F040E786F010E64EC31
:100D90009EF0000E0301C66F040EC76F090EC86FE8
:100DA000FF0EC96F35507E0D410EF324D96E050E2E
:100DB000F420DA6E6F0078FFCAF36F0074FFCBF394
:100DC00035507E0D4F0EF324D96E050EF420DA6EE9
:100DD0006F0078FFCCF36F0074FFCDF335507E0DBC
:100DE000510EF324D96E050EF420DA6E6F0078FFF1
:100DF000CEF36F0074FFCFF338EC9EF0000E0001CD
:100E0000766F000E776F040E786F020E64EC9EF022
:100E1000000E0301C66F040EC76FEC0EC86FFE0E06
:100E2000C96F33C0CAF3CB6B3FC0CCF3CD6B64C189
:100E3000CEF365C1CFF366C1D0F367C1D1F321C052
:100E4000D2F322C0D3F323C0D4F324C0D5F338ECBB
:100E50009EF0000E0001766F000E776F040E786F23
:100E6000030E64EC9EF0000E0301C66F040EC76F04
:100E7000210EC86FFF0EC96F7CC1CAF37DC1CBF3D1
:100E80007EC1CCF37FC1CDF378C1CEF379C1CFF36E
:100E90007AC1D0F37BC1D1F338EC9EF0000E000193
:100EA000766F000E776F040E786F000E64EC9EF084
:100EB00025D0342A0001F851415CD8B004D0000E8E
:100EC000F86F000E346EF8512EECA6F00001F82BEE
:100ED00008D0BA9A26D040C0F8F00001F8512EECA4
:100EE000A6F0BD82F6D7000E336E000E0001F86F3B
:100EF000000E2EECA6F0BD92BA8A13D03350020138
:100F0000FA6FFB6BFB51000AD8A4EDD7FA51000A27
:100F1000D8B4E9D7010AD8B4CCD7030AD8B4DBD700
:100F2000E2D7000E00017B6F030E7C6F54EC96F04D
:100F3000000E0001FA6FCBB009D0322A040E3264E1
:100F40007CD5332A000E326EBE8477D5000E326E09
:100F5000BE9473D5DD51D96EDA6A6F007BFFF6FF60
:100F60006F0077FFF7FF000EF86E0800F550250AB6
:100F7000D8A4EAD1DD51D96EDA6ADE2A000EDD226C
:100F8000000EF56F000EF46FF4C02FF0F669F769EC
:100F9000000E09D02F84DD51D96EDA6ADE2A000EE8
:100FA000DD2214D0010EE76F11D0DD51D96EDA6A5F
:100FB0006F007BFFF6FF6F0077FFF7FF000EF86E04
:100FC0000800F5502B0AD8B4E5D7ECD7E751D8B4D0
:100FD000ECD7DDC067F0DEC068F0DFC069F09CECE4
:100FE00099F067C0F4F068C0F5F0F5AF05D02F8038
:100FF000F46DF51FD8B0F52BDD51D96EDA6A6F00AC
:101000007BFFF6FF6F0077FFF7FF000EF86E08001A
:10101000F5502E0AD8A412D0DD51D96EDA6ADE2A34
:10102000000EDD22DDC067F0DEC068F0DFC069F0D1
:101030009CEC99F067C0F6F068C0F7F0DD51D96E0E
:10104000DA6A6F0078FFE8F06F0074FFE9F0600083
:10105000A3F3F6FF6000A7F3F7FF000EF86E080099
:10106000F550750AD8A444D060007BF3D9FF600026
:101070007FF3DAFF6F007CFFE0F0020EDE266F00E8
:101080007CFFE1F0000EDD22600083F3D9FF6000F9
:1010900087F3DAFF6F0078FFE2F06F0074FFE3F090
:1010A000010EE825E06F000EE921E16FDD51D96EF8
:1010B000DA6A600083F3DEFF600087F3DDFF0BD0A8
:1010C000DBC07CF0DCC07DF0E2C07EF0E3C07FF0EE
:1010D00000EC9AF012006000A3F3F6FF6000A7F3A3
:1010E000F7FF000EF86E0800F550750AD8B4E8D77F
:1010F000000EE76FDD51D96EDA6A6F007BFFF6FFF5
:101100006F0077FFF7FF000EF86E0800F550730AC6
:10111000D8A409D0DD51D96EDA6ADE2A000EDD22AC
:10112000010EE76F4AD0DD51D96EDA6A6F007BFF9E
:10113000F6FF6F0077FFF7FF000EF86E0800F5501E
:101140006C0AD8A43AD0DD51D96EDA6A6F0078FF04
:10115000E0F06F0074FFE1F0010EE027000EE123E4
:10116000600083F3F6FF600087F3F7FF000EF86E70
:101170000800F5506C0AD8A420D0DD51D96EDA6A87
:101180006F0078FFE0F06F0074FFE1F0020EE027DF
:10119000000EE123600083F3F6FF600087F3F7FFA2
:1011A000000EF86E0800F550730AD8A406D0DD5181
:1011B000D96EDA6A030EDE26B1D7E751D8B423D050
:1011C000DBC06CF0DCC06DF060007BF3D9FF600029
:1011D0007FF3DAFF6F007CFFE0F0020EDE266F0087
:1011E0007CFFE1F0000EDD22600083F3D9FF600098
:1011F00087F3DAFF6F0078FF6EF06F0074FF6FF017
:1012000007EC95F01200DD51D96EDA6A6F0078FFB5
:10121000E8F06F0074FFE9F06000A3F3F6FF6000F0
:10122000A7F3F7FF000EF86E08006F00D4FFE6F09A
:1012300008D0E84BE92B10D06C0E01D0000EE66F01
:101240000BD0E6514C0AD8B4F4D72A0AD8B4F4D754
:101250000A0AD8B4EED7F2D76000A3F3F6FF600015
:10126000A7F3F7FF000EF86E0800F550660AD8B431
:1012700024D062D060007BF3D9FF60007FF3DAFFF7
:101280006F007CFFE0F0040EDE266F007CFFE1F0D3
:10129000000EDD22600083F3D9FF600087F3DAFFE0
:1012A0006F0078FFE2F06F0078FFE3F06F0078FFE7
:1012B000E4F06F0078FFE5F007D0E6514C0AD8B4AF
:1012C000D9D7200AD8B4D6D7010EE825E06F000E92
:1012D000E921E16FDD51D96EDA6A600083F3DEFF48
:1012E000600087F3DDFF1BD0DBC0A6F0DCC0A7F0F9
:1012F000E2C0A8F0E3C0A9F0E4C0AAF0E5C0ABF0FA
:101300006000A3F3F6FF6000A7F3F7FF000EF86E8E
:1013100008006F00D4FFACF000EC80F01200600019
:10132000A3F3F6FF6000A7F3F7FF000EF86E0800C6
:10133000F550660AD8B4D8D70001DD51D96EDA6A03
:10134000DE2A000EDD221200DD51D96EDA6A6F004E
:101350007BFFF6FF6F0077FFF7FF000EF86E0800C7
:10136000F550636F646BDBC065F0DCC066F0D9ECF0
:101370009BF0E2D7FF00FF00FF00FF00FF00FF002F
:10138000FF00FF000000000000000000000000005F
:10139000000000000000000000000000000000004D
:1013A000000000000000000000000000000000003D
:1013B000000000000000000000000000000000002D
:1013C000000000000000000000000000000000001D
:101770000000000063C084F064C085F065C086F09E
:1017800066C087F0000E8415676F000E8515686FC0
:10179000800E8615696F7F0E87156A6F800E691936
:1017A0002BE17F0E6A1967116811D8A425D0FF0EAE
:1017B0008415676FFF0E8515686F7F0E8615696F3C
:1017C000000E87156A6F6751681169116A11D8A4F4
:1017D00002D087AF08D0FF0E8413FF0E85137F0E53
:1017E0008613000E871384C063F085C064F086C042
:1017F00065F087C066F0120087BF07D08751861159
:1018000085112FE18405D8B02CD0FF0E8415676FA9
:10181000FF0E8515686FFF0E8615696F7F0E8715A1
:101820006A6F6751681169116A11D8A409D0000E56
:10183000636F000E646F000E656F000E666F12001E
:1018400087AF0FD0000E01019F6F210E9E6FFF0E1C
:101850000001846FFF0E856FFF0E866F7F0E876F0E
:10186000C2D7170E676F84C068F085C069F086C064
:101870006AF087C06BF0676701D007D06B356B33B8
:101880006A3369336833672FF6D768C07CF069C064
:101890007DF06AC07EF06BC07FF000017C517D114D
:1018A0007E117F11D8A42AD0000E706F000E716FC8
:1018B000000E726F000E736F0BD0D890843785378F
:1018C00086378737010E7027000E7123722373232A
:1018D00086AFF3D7FF0E7025676FFF0E7121686F1B
:1018E000FF0E7221696FFF0E73216A6F67517C5F73
:1018F00068517D5B69517E5B6A517F5B810E7C27FD
:10190000FF0E7D23FF0E7E23FF0E7F23FF0E841527
:10191000676FFF0E8515686F7F0E8615696F000E65
:1019200087156A6F000E6711846F000E6811856F4E
:10193000800E6911866F000E6A11876F7CA108D036
:101940008451842785518523865186238751872397
:101950007F357F337E337D337C33845184278551BB
:1019600085238651862387518723000E6C6F000ED6
:101970006D6F000E6E6F000E6F6F6CC074F06DC0F7
:1019800075F06EC076F06FC077F0000E806F000EBD
:10199000816F000E826F010E836F43D06C518025E2
:1019A000786F6D518121796F6E5182217A6F6F51FD
:1019B00083217B6F7851845D795185597A5186599D
:1019C0008751800A676F7B51800A6759D8A01CD065
:1019D000785180256C6F795181216D6F7A51822108
:1019E0006E6F7B5183216F6F7851845F7951855B76
:1019F0007A51865B7B51875B8051742781517523B7
:101A000082517623835177238451842785518523FE
:101A10008651862387518723D8908333823381333D
:101A200080338051811182118311D8A4B7D784519A
:101A3000851186118711D8B414D0010E7415676F03
:101A4000000E7515686F000E7615696F000E77151C
:101A50006A6F6751742768517523695176236A51FB
:101A6000772374C067F075C068F076C069F077C0FE
:101A70006AF06A356A33693368336733000E672565
:101A8000846F000E6821856F000E6921866F3F0EFE
:101A90006A21876F7CC067F07DC068F07EC069F006
:101AA0007FC06AF0170ED8906737683769376A3792
:101AB000E82EF9D767518427685185236951862319
:101AC0006A51872390D67851800B816F78517825A1
:101AD000836F77BF83818351D8B40DD08329D8A475
:101AE00008D0000E756F000E766F000E776F000E37
:101AF000786F778F08D0000E756F000E766F000E2E
:101B0000776F000E786F7C51800B811B7C517C2598
:101B1000826F7BBF82818251D8B40DD08229D8A434
:101B200008D0000E796F000E7A6F000E7B6F000EEA
:101B30007C6F7B8F08D0000E796F000E7A6F000EDD
:101B40007B6F000E7C6F8251D8B403D08351D8A430
:101B500009D0000E756F000E766F000E776F000EC5
:101B6000786F12007B5175036F00CCFF8CF06F0013
:101B7000D0FF8DF08C51846F856B866B876B8D5198
:101B8000886F896B8A6B8B6B7A5176036F00CCFF01
:101B90008CF06F00D0FF8DF08C518427000E8523D0
:101BA000862387238D518827000E89238A238B2340
:101BB000795177036F00CCFF8CF06F00D0FF8DF070
:101BC0008C518427000E8523862387238D518827F7
:101BD000000E89238A238B2386C087F085C086F078
:101BE00084C085F0846B795176036F00CCFF8CF054
:101BF0006F00D0FF8DF08C5184278D518523000E0E
:101C00008623000E87237A5175036F00CCFF8CF07A
:101C10006F00D0FF8DF08C5184278D518523000EED
:101C20008623000E872386C087F085C086F084C097
:101C300085F0846B795175036F00CCFF8CF06F00D9
:101C4000D0FF8DF08C5184278D518523000E862383
:101C5000000E87237B5176036F00CCFF8CF06F0062
:101C6000D0FF8DF08C5188278D518923000E8A2357
:101C7000000E8B237A5177036F00CCFF8CF06F003E
:101C8000D0FF8DF08C5188278D518923000E8A2337
:101C9000000E8B237B5177036F00CCFF8CF06F001D
:101CA000D0FF8DF08C517D6F8D517E6F7F6B806B7F
:101CB0007FC080F07EC07FF07DC07EF07D6B7D5167
:101CC00088277E5189237F518A2380518B23875116
:101CD0008827000E89238A238B2386C087F085C03E
:101CE00086F084C085F0846B825183C07DF07E6B6A
:101CF0007D27000E7E23820E7D258C6FFF0E7E21B8
:101D00008D6F0FD0D890883789378A378B3787BF48
:101D10008881D89084378537863787378C07D8A055
:101D20008D078AAFEFD7000E826F87AF17D0FF0EF7
:101D300084157D6FFF0E85157E6FFF0E86157F6FF4
:101D40007F0E8715806F7D517E117F118011D8B471
:101D500003D0010E826F02D088B1FBD78251D8B474
:101D60001FD0010E8827000E89238A238B238BA185
:101D700017D088C07DF089C07EF08AC07FF08BC00C
:101D800080F0803580337F337E337D337DC088F0B3
:101D90007EC089F07FC08AF080C08BF08C4B8D2B89
:101DA0008DBF0DD08D5103E18C29D8A008D0000E35
:101DB000886F000E896F800E8A6F7F0E20D08DBFD6
:101DC00005D08D510EE18C05D8B00BD0000E886F78
:101DD000000E896F000E8A6F000E8B6F000E816FF0
:101DE0000FD08CC083F0FF0E8817FF0E89177F0E6F
:101DF0008A17000E8B1783B18A8FD89083318B6F2F
:101E000081518B1388C075F089C076F08AC077F055
:101E10008BC078F012009151800B9A6F91519125EF
:101E20009C6F90BF9C819C51D8B40DD09C29D8A4A4
:101E300008D0000E8E6F000E8F6F000E906F000E98
:101E4000916F908F06D0000E8E6F000E8F6F000E78
:101E5000906F000E916F9551800B9B6F9A519B195B
:101E6000D8A49A8D955195259B6F94BF9B819B51CA
:101E7000D8B40DD09B29D8A408D0000E926F000EC4
:101E8000936F000E946F000E956F948F06D0000E26
:101E9000926F000E936F000E946F000E956F9C5121
:101EA0009B5DD8B022D09AAD02D0800E9A1B9CC008
:101EB0009DF09BC09CF09DC09BF08EC09DF092C099
:101EC0008EF09DC092F08FC09DF093C08FF09DC0AA
:101ED00093F090C09DF094C090F09DC094F091C09C
:101EE0009DF095C091F09DC095F0000E9D6F9C51A6
:101EF0009BC096F0976B965F000E975B97BF2CD0B8
:101F0000975104E11A0E965DD8A026D08E518F11FC
:101F100090119111D8B402D0010E01D0000E9D6F26
:101F2000000E8E6F000E8F6F000E906F000E916F7F
:101F30009BC09CF015D09DA105D0D8909D31010982
:101F40009D6F02D0D8909D338EB19D8F9135913386
:101F500090338F338E339C2B9B519C5DD8A0EBD755
:101F60009ABD28D09C51D8A409D0000E8E6F000EC7
:101F70008F6F000E906F000E916F120092518E279E
:101F800093518F23945190239551912391A171D016
:101F90009DA105D0D8909D3101099D6F02D0D890A8
:101FA0009D338EB19D8F9135913390338F338E3326
:101FB0009C2B5FD092518E5D93518F5994519059C3
:101FC0009151800A966F9551800A9659D8B025D0C4
:101FD0008E51925D966F8F519359976F905194598E
:101FE000986F91519559996FFF0E96258E6FFF0E40
:101FF00097218F6FFF0E9821906FFF0E9921916F9F
:10200000800E9A1B9D6D9D51D8A40FD0010E8E2776
:10201000000E8F239023912308D092518E5F93510D
:102020008F5B9451905B9551915B8E518F11901104
:102030009111D8A41CD09D51D8A419D0000E8E6F38
:10204000000E8F6F000E906F000E916F1200D890EF
:102050008E378F37903791379DBF8E819DA102D0EB
:10206000D88001D0D8909D379C51D8A49C0790AFC0
:10207000EED7000E9B6F9DAF0BD09DC096F07F0EEC
:102080009617D8B403D0010E9B6F02D08EB1FBD748
:102090009B51D8B420D0010E8E27000E8F239023A1
:1020A000912391A118D08EC096F08FC097F090C068
:1020B00098F091C099F099359933983397339633C6
:1020C00096C08EF097C08FF098C090F099C091F0B4
:1020D0009C29D8A49C2B9C29D8B403D09C51D8A46B
:1020E0000DD0000E8E6F000E8F6F000E906F000EE1
:1020F000916F9C51D8A402D0000E9A6F9CA102D07F
:10210000908F01D0909FD8909C31916F9ABF918F02
:102110008EC08EF08FC08FF090C090F091C091F083
:102120001200000EB06F000EAF6F000E01016C6F59
:10213000000E6D6F000E6E6F000E6F6F6CC170F150
:102140006DC171F16EC172F16FC173F1000E0001CA
:10215000B26F000EB16F70C18EF071C18FF072C19D
:1021600090F073C191F0A6C079F0A7C07AF0A8C032
:102170007BF0A9C07CF0B1C063F0B2C064F0000E87
:10218000666F7E0E656FDFECA3F0AA51020DFF0EA5
:10219000F324AB6F040EF420AC6F6351AB25D96E02
:1021A0006451AC21DA6E6F0078FFADF06F0074FF00
:1021B000AEF0ADC067F0AEC068F0696B6A6B000E40
:1021C000B3EC95F067C075F068C076F069C077F041
:1021D0006AC078F063EC8DF075C092F076C093F031
:1021E00077C094F078C095F00BEC8FF08EC070F152
:1021F0008FC071F190C072F191C073F1AF4BB02BF1
:10220000B14BB22BB2BFA7D7B25104E1200EB15DE2
:10221000D8A0A1D770C175F071C176F072C177F006
:1022200073C178F0AFC067F0B0C068F0000E68BF4F
:10223000FF0E696F6A6F010EB3EC95F067C079F01D
:1022400068C07AF069C07BF06AC07CF0F9EC91F06C
:1022500075C068F176C069F177C06AF178C06BF13A
:10226000000EB26F000EB16F81D0A6C079F0A7C08A
:102270007AF0A8C07BF0A9C07CF0B1C063F0B2C016
:1022800064F0000E666F7E0E656FDFECA3F0AA515E
:10229000020DFF0EF324AB6F040EF420AC6F6351FC
:1022A000AB25D96E6451AC21DA6E6F0078FFADF0CA
:1022B0006F0074FFAEF0ADC067F0AEC068F0696B40
:1022C0006A6B000EB3EC95F067C075F068C076F0ED
:1022D00069C077F06AC078F063EC8DF075C09EF04D
:1022E00076C09FF077C0A0F078C0A1F068C1A2F0DE
:1022F00069C1A3F06AC1A4F06BC1A5F0D1ECA0F054
:102300009EC074F19FC075F1A0C076F1A1C077F1B5
:102310006CC18EF06DC18FF06EC190F06FC191F005
:1023200074C179F075C17AF076C17BF077C17CF029
:1023300074C175F075C176F076C177F077C178F029
:1023400063EC8DF075C092F076C093F077C094F096
:1023500078C095F00BEC8FF08EC06CF18FC06DF1F2
:1023600090C06EF191C06FF1B14BB22BAF51B15D26
:10237000B251800AAB6FB051800AAB59D8A075D763
:102380006CC175F06DC176F06EC177F06FC178F0F9
:10239000AFC067F0B0C068F0000E68BFFF0E696F95
:1023A0006A6F010EB3EC95F067C079F068C07AF0FF
:1023B00069C07BF06AC07CF0F9EC91F075C021F047
:1023C00076C022F077C023F078C024F021C063F0FB
:1023D00022C064F023C065F024C066F0BAEC8BF034
:1023E00063C064F164C065F165C066F166C067F101
:1023F00012007851800B856F785178258C6F77BFEC
:102400008C818C51D8B40DD08C29D8A408D0000E62
:10241000756F000E766F000E776F000E786F778FF6
:1024200006D0000E756F000E766F000E776F000EEF
:10243000786F7C51800B851B7C517C258D6F7BBF19
:102440008D818D51D8B40DD08D29D8A408D0000E1F
:10245000796F000E7A6F000E7B6F000E7C6F7B8FA2
:1024600006D0000E796F000E7A6F000E7B6F000EA3
:102470007C6F79517A117B117C11D8A417D0000E92
:10248000756F000E766F000E776F000E786F800EFE
:1024900077137F0E78138551781375C075F076C069
:1024A00076F077C077F078C078F012008C51D8A41D
:1024B00009D0000E756F000E766F000E776F000E5C
:1024C000786F12008D518CC07DF07E6B7D5F000EA9
:1024D0007E5B7F0E7D25866F000E7E21876F75C027
:1024E00081F076C082F077C083F078C084F0000E6F
:1024F000756F000E766F000E776F000E786F000E0E
:10250000886F000E896F000E8A6F000E8B6F000EB1
:102510008D6F28D08D51D8B411D0D89081378237A3
:1025200083378437D89075377637773778378BBFCE
:102530007581D890883789378A378B377951815D93
:102540007A5182597B5183597C518459D8A009D042
:102550008B8D7951815F7A51825B7B51835B7C519A
:10256000845B8D2B190E8D65D5D781518211831116
:102570008411D8B411D088810FD0D89075377637B0
:10258000773778378BBF7581D890883789378A3706
:102590008B378607D8A0870777AFEFD7000E8D6FF0
:1025A0008BAF17D0FF0E88157D6FFF0E89157E6FDC
:1025B000FF0E8A157F6F7F0E8B15806F7D517E1108
:1025C0007F118011D8B403D0010E8D6F02D075B188
:1025D000FBD78D51D8B41FD0010E7527000E76237E
:1025E0007723782378A117D075C07DF076C07EF070
:1025F00077C07FF078C080F0803580337F337E33C2
:102600007D337DC075F07EC076F07FC077F080C0EE
:1026100078F0864B872B87BF10D0875103E186293E
:10262000D8A00BD0000E876F8669000E756F000E64
:10263000766F000E776F000E786F87BF05D08751D9
:1026400011E18605D8B00ED0000E876F000E866FA0
:10265000000E756F000E766F000E776F000E786FAC
:10266000000E856F86C08CF08CA102D0778F01D0D0
:10267000779FD8908C31786F0ED7000E00017A6F5B
:10268000000E796F020E6E251F6E000E6F21206EF8
:1026900082EC9FF01F502010D8A402D0030E12002D
:1026A000020E6E251F6E000E6F21206E82EC9FF0D1
:1026B000205003E1020E1F5CD8B085D0020E12003C
:1026C0007A51050D6F00CCFF70F06F00D0FF71F0F4
:1026D0006000BBF1D9FF6000BFF1DAFF6F0078FF47
:1026E00072F06F0074FF73F070517225D96E7151E2
:1026F0007321DA6E6F0078FF65F06F0074FF66F08B
:10270000020E6E25676F000E6F21686F7A51050DFE
:102710006F00CCFF74F06F00D0FF75F06000BBF16C
:10272000D9FF6000BFF1DAFF6F0078FF76F06F002D
:1027300074FF77F074517625D96E75517721DA6E72
:102740006F0078FF1FF06F0074FF20F082EC9FF0A5
:102750001FC069F020C06AF07DEC9BF065516611E6
:10276000D8A430D06EC06CF06FC06DF07A51050DFA
:102770006F00CCFF70F06F00D0FF71F06000BBF114
:10278000D9FF6000BFF1DAFF6F0078FF72F06F00D1
:1027900074FF73F070517225746F71517321756FEE
:1027A000020E7425D96E000E7521DA6E01D830D074
:1027B0000500FA6EDE50FD6EDE50FE6EDE50FF6EDE
:1027C000FA5012007A2B7A51050D6F00CCFF70F091
:1027D0006F00D0FF71F06000BBF1D9FF6000BFF166
:1027E000DAFF6F0078FF72F06F0074FF73F07051C2
:1027F0007225746F71517321756F020E7425D96E35
:10280000000E7521DA6EDE50DE10DE10D8A458D727
:1028100000017A51050D6F00CCFF70F06F00D0FF02
:1028200071F06000BBF1D9FF6000BFF1DAFF6F000B
:1028300078FF72F06F0074FF73F070517225746F3F
:1028400071517321756F020E7425D96E000E7521BA
:10285000DA6EDE50DE10DE10D8A402D0010E796FE1
:102860007951120058C19EF059C19FF05AC1A0F091
:102870005BC1A1F08EC09EF08FC09FF090C0A0F011
:1028800091C0A1F0810E926FFF0E936F9EC094F0E5
:102890009FC095F0A0C096F0A1C097F0180E05D08B
:1028A000D8909733963395339433E82EF9D79451D3
:1028B00092259C6F000E93219D6F9DBF0FD09D515F
:1028C00004E1170E9C5DD8A009D08EC08EF08FC099
:1028D0008FF090C090F091C091F012009DBF5CD03D
:1028E0009CC092F0FF0E936FFF0E946F7F0E956F5A
:1028F000000E966F926701D007D0963596339533C8
:1029000094339333922FF6D793C098F094C099F0F4
:1029100095C09AF096C09BF0000198519E15926F59
:1029200099519F15936F9A51A015946F9B51A115C2
:10293000956F9251931194119511D8B4C6D79EC03A
:1029400092F09FC093F0A0C094F0A1C095F0200E2B
:1029500005D0D8909533943393339233E82EF9D73A
:102960009251D8B408D098519E2799519F239A51DB
:10297000A0239B51A123981D926F991D936F9A1DBF
:10298000946F9B1D956F92519E1793519F17945171
:10299000A0179551A11732D09EC092F09FC093F01E
:1029A000A0C094F0A1C095F0200E05D0D89095332A
:1029B000943393339233E82EF9D7926708D0000E00
:1029C0009E6F000E9F6F000EA06F000E16D0D89065
:1029D0009E35926F9F35936FA035946FA135956F9B
:1029E0009251931194119511D8B408D0000E9E6F96
:1029F000000E9F6F800EA06FBF0EA16F9EC08EF065
:102A00009FC08FF0A0C090F0A1C091F012006EC0E6
:102A100076F06FC077F076517711D8A404D0CE0E3F
:102A2000766FFF0E776F000E796F000E786F03D010
:102A30000001784B792B78517625706F7951772189
:102A4000716F6000C3F1F6FF6000C7F1F7FF000E81
:102A5000F86E1F0EF76403D00800F55007D06F0022
:102A6000DBFFE1FF6F00DFFFE2FFE7500009D8A4C2
:102A7000DFD70001F7BF0ED07851F65DF751800A1D
:102A8000706F7951800A7059D8B004D0F6C078F0D0
:102A9000F7C079F078C072F079C073F0F4C074F0C8
:102AA000F5C075F02FA00ED03BD0000E646F200E45
:102AB000636F6CC065F06DC066F0D9EC9BF00001EF
:102AC000784B792B7451785D7951800A706F75510C
:102AD000800A7059D8B024D0E8D76000DBF1F6FF47
:102AE0006000DFF1F7FF000EF86E1F0EF76403D0F1
:102AF0000800F55007D06F00DBFFE1FF6F00DFFF3C
:102B0000E2FFE7500001706F7051636F646B6CC03F
:102B100065F06DC066F0D9EC9BF00001764B772B29
:102B20007207D8A073077229D8E17329D8A4D5D722
:102B30002FA012000DD0000E646F200E636F6CC0CA
:102B400065F06DC066F0D9EC9BF00001784B792BF5
:102B50007451785D7951800A706F7551800A70598F
:102B6000D8B01200E8D76F6F00016F51D8A46AAFD8
:102B70001AD067C06BF068C06CF069C06DF06AC0B5
:102B80006EF06B1F6C1F6D1F6E1F6B2B000E6C2386
:102B90006D236E236BC071F06CC072F06DC073F06A
:102BA0006EC074F008D067C071F068C072F069C080
:102BB00073F06AC074F06751681169116A11D8A482
:102BC00009D0000E676F000E686F000E696F000E6F
:102BD0006A6F1200960E706F06D0702BD890743307
:102BE000733372337133000E71156B6F000E7215F3
:102BF0006C6F000E73156D6FFE0E74156E6F6B515A
:102C00006C116D116E11D8B40DD0E7D7702B010E79
:102C10007127000E722373237423D8907433733397
:102C200072337133000E71156B6F000E72156C6F7D
:102C3000000E73156D6FFF0E74156E6F6B516C1176
:102C40006D116E11D8B407D0E1D77007D8907137E5
:102C500072377337743773BF03D0020E7061F5D7C4
:102C600070A1739FD890703370C06BF06C6B6D6BFC
:102C70006E6B6BC06EF06D6B6C6B6B6B6B5171132D
:102C80006C5172136D5173136E5174136F51D8A43C
:102C90006AAF01D0748F71C067F072C068F073C002
:102CA00069F074C06AF01200000E826F820E636FCA
:102CB000646B55ECA4F00009D8B4120086D020EE65
:102CC00082F07B51D9267C51DA227E0EDF640CD053
:102CD00020EE82F07B51D9267C51DA22DF507D6FC5
:102CE0007D51806F816B0ED020EE82F07B51D92612
:102CF0007C51DA22DF507D6F010E7D25806F816B64
:102D0000000E812380517B257D6F81517C217E6F58
:102D1000020E7D25D96E000E7E21DA6EDF6A700EFE
:102D2000656FFF0E666F020E676FBAECA5F07BC091
:102D30006EF07CC06FF03DEC93F0306E20EE82F0D0
:102D40007B51D9267C51DA22DF6A020E7B25636F24
:102D5000000E7C21646F000E666F000E656F000E22
:102D6000686F800E676F25ECA3F0120020EE82F0F2
:102D70007B51D9267C51DA227F0EDF60120020EED3
:102D800082F07B51D9267C51DA22DF507D6F7D5154
:102D90007B257E6F000E7C217F6F020E7E25D96E13
:102DA000000E7F21DA6E60000BF2DFFF20EE82F072
:102DB0007B51D9267C51DA22DF2A820E656F666B41
:102DC000010E676FBAECA5F01200000182510D0AE6
:102DD000D8B475D7160AD8B41200650AD8B4120050
:102DE000010AD8B41200C2D7740EF66E130EF76E35
:102DF000010EF86E05EEBFF011EE00F009006F0055
:102E0000D7FFEEFFE550E150F9E1E250F7E1BC0EEB
:102E1000F66E3B0EF76E010EF86E00EEA0F210EEAD
:102E20005AF009006F00D7FFEEFFE550E150F9E1DD
:102E3000980EF66E4C0EF76E010EF86E09006F00DC
:102E4000D4FFFEF109006F00D4FFFFF1960EF66E7D
:102E50004C0EF76E010EF86E09006F00D4FFFBF008
:102E600009006F00D4FFFCF08C0EF66E4C0EF76E6E
:102E7000010EF86E00EE3DF010EE05F009006F0057
:102E8000D7FFEEFFE550E150F9E101EEFFF013EE60
:102E9000C0F3EE6AE550E150FCE1E250FAE101EEE8
:102EA00000F010EEFFF0EE6AE550E150FCE1E25078
:102EB000FAE100EE00F3C60EEE6AE806FDE100EE70
:102EC00000F2A00EEE6AE806FDE100EE00F1F00E61
:102ED000EE6AE806FDE100EEF4F0070EEE6AE806A1
:102EE000FDE100EE21F01C0EEE6AE806FDE1080EA1
:102EF000D56E000ED66E000ED76E000132EF84F054
:102F000039019397600E0001636F380E646F010EF4
:102F1000656FD6ECA5F0390193993C0E0001636F03
:102F2000470E646F010E656FCFECA5F03901939BDE
:102F3000660E0001636F4C0E646F010E656FE4EC6A
:102F4000A5F03901939D860E0001636F4C0E646FEE
:102F5000010E656FC8ECA5F0000E3D01EC6F000E90
:102F6000ED6F000EEE6F000EEF6F000EF06F000EB3
:102F7000F16FB00EF26F900EF36F000EF46F8A0EC9
:102F8000F56F000EF66F000EF76F000EF86F000E73
:102F9000F96F000EFA6F9C0E0001636F4C0E646FA8
:102FA000010E656FEBECA5F09A0E636F4C0E646F2B
:102FB000010E656FDDECA5F0800E636F4C0E646F43
:102FC000010E656FF2ECA5F0000E366E000E3C6E41
:102FD000000E3B6E400E3A6E000E396E000E386EDB
:102FE000000E376E39019387938B938D1200A8ECF6
:102FF000A5F03150020D6F00CCFF05F06F00D0FF3F
:1030000006F035507E0DFF0EF324076E040EF420FB
:10301000086E05500724D96E06500820DA6E60004D
:1030200007F0DEFF60000BF0DDFFA8ECA5F03150EB
:10303000020D6F00CCFF05F06F00D0FF06F034509A
:103040007E0DFF0EF324076E040EF420086E05506B
:103050000724D96E06500820DA6E600007F0DEFF04
:1030600060000BF0DDFF14D0010E05D03D0E03D043
:10307000280E01D0290E316E23D0000E316E33049C
:10308000D8A4342A1F0E34641BD0000E346E18D01E
:103090003150056E066A0650000AD8A4EED70550D6
:1030A000000AD8B4E1D7010AD8B4E0D7290AD8B4C5
:1030B000E1D7010AD8B4E1D7140AD8B4D9D7DDD7FB
:1030C0006000C7F0F1FE010E0001F96F1200000E62
:1030D0008E15966F000E8F15976F800E9015986F56
:1030E0007F0E9115996F9651971198119911D8A447
:1030F00008D0000E8E6F000E8F6F000E906F000EC6
:10310000916F000E9215966F000E9315976F800EBB
:103110009415986F7F0E9515996F96519711981188
:103120009911D8A408D0000E926F000E936F000E74
:10313000946F000E956F91AF09D08E6D8F1FD8B030
:103140008F2B901FD8B0902B800E915795AF09D040
:10315000926D931FD8B0932B941FD8B0942B800EF0
:103160009557000E8E1B000E8F1B000E901B800EBD
:10317000911B000E921B000E931B000E941B800EE1
:10318000951B92518E5D93518F5994519059955141
:103190009159D8B002D0D8901200D8801200000EF9
:1031A000BE6E110EBD6E200EBA6E000EBF6E000E0A
:1031B000BB6E070EBC6E020EC66E0B0EC76EDF0E28
:1031C000C26EC368900EC46E080EC56E080E3A013A
:1031D000706F000E606FFE0E506F020E806F0B0E50
:1031E000906F8F0E406F000E716F000E916F000E8A
:1031F000816F010E516F500E416F000E616F000E16
:103200005A6F000E5B6F000E6A6F000E6B6F000E40
:103210007A6F000E7B6F000E826F000E926F000EB1
:10322000426F000E526F000E626F000E726F4369A4
:10323000536963697369070E836F936944695469BD
:10324000646974690F0E846F94690E0E1A6F130E01
:10325000DE6F1E0E136F1F0E156F130E166F170EF7
:10326000E56F0D0E2A6F140EDF6F12005CC16DF05A
:103270005DC16EF05EC16FF05FC170F063C06DF054
:1032800064C06EF065C06FF066C070F06DC067F02E
:103290006EC068F06FC069F070C06AF0180E05D09B
:1032A000D8906A33693368336733E82EF9D76751AA
:1032B0006B6F6C6B6B516C11D8A419D0D8906D35B5
:1032C000676F6E35686F6F35696F70356A6F6751FC
:1032D000681169116A11D8A405D0000E646F020E3E
:1032E000636F1200000E646F030E636F12006B2990
:1032F0006C11D8A41CD06DC067F06EC068F06FC0B0
:1033000069F070C06AF0090ED8906737683769377E
:103310006A37E82EF9D76751681169116A11D8A484
:1033200002D0010E01D0000E636F646B1200000E1C
:10333000646F040E636F1200000E6E6F000E6D6FEF
:103340006751D96EDA6A6F007BFFF6FF6F0077FF77
:10335000F7FF000EF86E0800F5502A0AD8A439D0FD
:103360006751D96EDA6ADE2A000EDD226000A3F111
:10337000D9FF6000A7F1DAFF6F007CFF6AF0020E50
:10338000DE266F007CFF6BF0000EDD226000ABF1EB
:10339000D9FF6000AFF1DAFF6F0078FF6DF06F00CA
:1033A00074FF6EF028D06DC063F06EC064F0000E44
:1033B000666F0A0E656FDFECA3F06C5163256D6FCD
:1033C000000E64216E6F6751D96EDA6ADE2A000E34
:1033D000DD226751D96EDA6A6F007BFFF6FF6F005E
:1033E00077FFF7FF000EF86E0800F550D00F6C6FF6
:1033F000090E6C65D8D76DC067F06EC068F012001A
:10340000F7AF05D0000E836F010E826F04D0F6C0B7
:1034100082F0F7C083F0F4C080F0F5C081F0000EB8
:10342000856F4F0E846F000E0101EF6F2AD0840765
:10343000D8A08507A00E8425D96E010E8521DA6EED
:103440007EC063F07FC064F0000E666F0A0E656F89
:1034500015ECA1F06351300FDF6E8207D8A083070F
:103460008007D8A081077EC063F07FC064F0000EA3
:10347000666F0A0E656FE2EC9EF063C07EF064C07A
:103480007FF0000184518511D8B40BD07E517F119B
:10349000D8A4CDD783BF05D08351C9E18205D8B068
:1034A000C6D77CC073F07DC074F0A00E8425756F04
:1034B000010E8521766F80C077F081C078F0C3EC73
:1034C0009CF01200830E0101466F030E476F46C148
:1034D00069F047C16AF0BEECA4F03D01149F200ED4
:1034E000156F030E166F040E196F020E1C6F830EFC
:1034F000146F148F300E0001636F570E646F050E4A
:10350000656F000E666F41ECA0F0460EBBECA1F0BB
:10351000410EDAECA1F0500E636F000E646F000EE6
:10352000656F000E666F41ECA0F0530EDAECA1F06F
:10353000020E8BECA4F0500E636F000E646F000E51
:10354000656F000E666F41ECA0F0510EBBECA1F070
:103550003D01149F020E166F148F1A933F0E3B010C
:10356000FD17FD9BFD51F90B0209FD6FE70EFD17DD
:10357000FD81830EF96F030EFA6F000EFB6FFC9B4B
:103580003D011A83120065356635206E2050D8A49F
:1035900009D0000E636F000E646F000E656F000EA1
:1035A000666F120063C067F064C068F065C069F0C0
:1035B00066C06AF0200E05D0D8906A33693368334C
:1035C0006733E82EF9D767511F6E658FFF0E6317BB
:1035D000FF0E6417FF0E6517000E6617960E205E2D
:1035E00020AE0DD02050800A970FD8A0D2D7D89007
:1035F0006633653364336333203EF9D70DD01F0E35
:10360000206407D0C6D7D8906337643765376637EC
:1036100020062050D8A4F7D71F50D8B408D0661F72
:10362000651F641F636D000E64236523662363C0FA
:1036300063F064C064F065C065F066C066F01200B7
:10364000636F2DD0BD98BD9A1200BD98BD8A12003F
:10365000BD88BD9A1200BD9CBD9E1200BD9CBD8E52
:103660001200BD8CBD9E1200BF98BF9A1200BF9879
:10367000BF8A1200BF88BF9A1200BF9CBF9E120073
:10368000BF9CBF8E1200BF8CBF9E1200BD98BD9A1A
:10369000BD9CBD9EBF98BF9ABF9CBF9E12000001FB
:1036A00063511F6E206A2050000AD8A4EFD71F5024
:1036B000000AD8B4C7D7010AD8B4CAD7030AD8B405
:1036C000C4D7010AD8B4C7D7070AD8B4CAD7010AE1
:1036D000D8B4C4D7030AD8B4C7D7010AD8B4CAD754
:1036E0000F0AD8B4C4D7010AD8B4C7D7030AD8B4CC
:1036F000CAD7010AD8B4C4D7C9D76907D8A06A07FE
:1037000069290FE16A29D8A40CD0000E666F000E5B
:10371000656F1200654B662B674B682B6907D8A055
:103720006A07600097F1F6FF60009BF1F7FF000E5B
:10373000F86E0800F5500009D8B420D060009FF161
:10374000D9FF6000A3F1DAFFDF50D8B417D0695178
:103750006A11D8B413D060009FF1D9FF6000A3F1C3
:10376000DAFF600097F1F6FF60009BF1F7FF000EB3
:10377000F86EDE500900F518D8B4CCD7600097F188
:10378000F6FF60009BF1F7FF000EF86E08006F0077
:10379000D4FF6BF060009FF1D9FF6000A3F1DAFF66
:1037A000DF506C6F6C516B5D656F666BD8A0660700
:1037B000120065516611D8B404D065516611D8A4C1
:1037C00004D0635129ECA6F0120020EE0AF06551F6
:1037D000D9266651DA22DE50DE10D8B416D020EE9B
:1037E0000AF06551D9266651DA2210EE03F06551D0
:1037F000E1266651E222DE50E65CE650800A6B6FFD
:10380000DE50800A6B59D8B0120020EE03F06551EB
:10381000D9266651DA226F0078FF67F06F0074FFD7
:1038200068F0600097F1D9FF60009BF1DAFF6F004C
:1038300078FF69F06F0074FF6AF067516925D96EEF
:1038400068516A21DA6E60008FF1DFFF20EE03F02D
:103850006551D9266651DA22DE2A000EDD221200D9
:10386000000E3924D96EDA6A010EDA22DF6A3D01D0
:10387000F9A714D0000E3924D96EDA6A010EDA22C3
:103880000101DF8201D80AD00500FA6E8651FD6E73
:103890008751FE6E8851FF6EFA5012003D01F9A368
:1038A00014D0000E3924D96EDA6A010EDA22010131
:1038B000DF8401D80AD00500FA6E8351FD6E845171
:1038C000FE6E8551FF6EFA501200000E3924D96E3B
:1038D000DA6A010EDA22DF50D8B40DD001D8120016
:1038E0000500FA6E01018051FD6E8151FE6E82511C
:1038F000FF6EFA501200ADECA4F01200000E63153A
:103900006B6F000E64156C6F800E65156D6F7F0E0A
:1039100066156E6F6B516C116D116E11D8A408D0C5
:10392000000E636F000E646F000E656F000E666F11
:10393000000E67156B6F000E68156C6F800E6915B1
:103940006D6F7F0E6A156E6F6B516C116D116E117C
:10395000D8A408D0000E676F000E686F000E696F64
:10396000000E6A6F675163190AE16851641907E133
:103970006951651904E16A516619D8B402D0D8902A
:103980001200D88012002FA00AD075C06CF076C04B
:103990006DF073C06EF074C06FF0D1ECA2F078AF30
:1039A00004D0000E786F000E776F000E7B6F000E54
:1039B0007A6F0DD0000E646F200E636F73C065F0D8
:1039C00074C066F0D9EC9BF000017A4B7B2B7751E9
:1039D0007A5D7B51800A796F7851800A7959D8A035
:1039E000E9D72FB0120075C06CF076C06DF073C0CF
:1039F0006EF074C06FF0D1ECA2F01200000E3E0128
:103A0000DE6F000EDF6F000EE06F000EE16F000E44
:103A1000E46F000EE56F000EEA6F000EEC6F000E13
:103A2000F16F100EF36F000EF46F000EF56F000EC5
:103A3000F66F000EF76F000EF96F000EFA6F200E92
:103A4000FB6F000EFC6F020EFD6F070EFE6F1F0E68
:103A5000FF6F840EF86F3901A19591859E0E0001CC
:103A6000636F4C0E646F010E656F1CECA6F01200C4
:103A7000800E3B01F96F020EFA6F000EFB6F3D0ED8
:103A8000F16F110EF06F030EFD6F000EF86F010E57
:103A9000F76F000EEF6F010EEE6F150EFF6F000E49
:103AA000FE6F3901A293A291A297A295929392815F
:103AB000A80E0001636F4C0E646F010E656F0EEC73
:103AC000A6F0390192979285A80E0001636F4C0E03
:103AD000646F010E656F15ECA6F0C00E3B01FC6F24
:103AE00012001AD060008FF1F6FF600093F1F7FF2B
:103AF000000EF86E1F0EF76403D00800F55007D0D3
:103B00006F00DBFFE1FF6F00DFFFE2FFE75029EC12
:103B1000A6F00001634B642B60008FF1F6FF60009C
:103B200093F1F7FF000EF86E1F0EF76403D0080044
:103B3000F55007D06F00DBFFE1FF6F00DFFFE2FF12
:103B4000E7500009D8A4CED70A0E29ECA6F012003F
:103B500073C01FF074C020F082EC9FF01F50756F8F
:103B600037ECA6F046C169F047C16AF0000E0001CB
:103B70006B6F5BEC9FF0BC94400E756509D020EE36
:103B800040F07351D9267451DA22DF6A400E756F06
:103B90003B01FC9F6000D7F1F7FBF86BFC8F46C13F
:103BA0006EF047C16FF073C070F074C071F075C0F3
:103BB00072F08EEC9EF03AECA6F01200F5FF84480D
:103BC00001F8FF9C4901EFFF084B01F2FFF04A01A9
:103BD000FBFF6C4A01E9FF504A01ECFF344A01E364
:103BE000FF944701E6FF6A47010000000000977557
:103BF000CF3E6F12833B295C4F3F6F12833B97751B
:103C0000CF3E6F12833B9775CF3E6F12833B977504
:103C1000CF3E6F12833B0001696F000E00016B6F96
:103C2000000E6A6F6AC063F06BC064F0000E666FCE
:103C30007E0E656FDFECA3F06951020DFF0EF324D9
:103C4000676F040EF420686F63516725D96E645165
:103C50006821DA6EDE6ADD6A6A4B6B2B6BBFE2D7D6
:103C60006B5105E1200E6A5DD8B01200DBD712005F
:103C7000CA0E0101F06F030EF16FC6C3F2F1C7C3A4
:103C8000F3F1000EF66F000EF56F000EFD6F000EE3
:103C9000FC6FF20E0001EA6F010EEB6FC8C3ECF08F
:103CA000C9C3EDF0F00EEE6F010EEF6FAEECA0F0B9
:103CB0000101F5510301C625D96E0101F651030139
:103CC000C721DA6EDF6A1200796F09D0400E05D085
:103CD000140E03D0540E01D0000E7A6F0FD00001E5
:103CE0007951000AD8B4F8D7010AD8B4EFD7030A3B
:103CF000D8B4EED7010AD8B4EDD7EED7450E0CEC08
:103D0000A5F07A517625F9ECA1F02FECA4F077C05C
:103D100073F078C074F0A8EC9DF01200000120EE62
:103D200042F06E51D9266F51DA22400EDF60120048
:103D30006EC063F06FC064F070C065F071C066F073
:103D400072C067F0686B34EC9FF020EE40F06E516B
:103D5000D9266F51DA226000CBF1DFFF20EE42F06E
:103D60006E51D9266F51DA226000CBF1DFFF1200CD
:103D7000000120EE42F06351D9266451DA22400E50
:103D8000DF60120020EE40F06351D9266451DA2240
:103D9000DF501F6E1F506325D96E000E6421DA6E4E
:103DA000600097F1DFFF20EE40F06351D9266451A7
:103DB000DA22DF2A20EE42F06351D9266451DA225A
:103DC000DF2A1200000E696F000E686F65516611E0
:103DD000D8B41CD0010E676F04D0D8906537663711
:103DE000672B66AFFAD7D890683769376551635D3E
:103DF00066516459D8A005D06551635F6651645B14
:103E00006881D89066336533672FEDD768C063F05B
:103E100069C064F01200000E116E000E106ED89092
:103E20001034D96E1134DA6E4C0ED926010EDA2216
:103E3000DE50DE10D8B40CD0D8901034D96E1134C6
:103E4000DA6E4C0ED926010EDA22DE06000EDD5A9D
:103E5000104A112A11BEE3D7115005E1060E105C7D
:103E6000D8B01200DCD7120065C06CF066C06DF0EF
:103E700063C06AF064C06BF015D06000B3F1D9FF85
:103E80006000B7F1DAFFDF50696F6C4B6D2B60009B
:103E9000ABF1D9FF6000AFF1DAFF6000A7F1DFFFFF
:103EA0006A4B6B2B6707D8A068076729E6E168298A
:103EB000D8B41200E2D720EE42F06951D9266A51F7
:103EC000DA22DF6A20EE40F06951D9266A51DA22FF
:103ED000DF6A20EE41F06951D9266A51DA22DF6AA1
:103EE0006B51D8B4120069C063F06AC064F0000E70
:103EF000666F000E656F000E686F400E676F25ECF1
:103F0000A3F012001FC063F020C064F002D01F4A6B
:103F1000202A60007FF0F6FF600083F0F7FF000EBC
:103F2000F86E1F0EF76403D00800F55007D06F003D
:103F3000DBFFE1FF6F00DFFFE2FFE7500009D8A4DD
:103F4000E6D7000163511F5C1F6E64512058206E3C
:023F500012005D
:103F54006F00E8FF12F06F00ECFF13F03901A89D29
:103F64002BC00EF02CC00FF079ECA4F001018F519E
:103F740090119111D8B40CD001D80AD00500FA6E72
:103F84008F51FD6E9051FE6E9151FF6EFA501200EA
:103F940060004FF0FBFF60004BF0FAFF1100D28A83
:103FA400000ED2BE010E1F6ED29E550ED46EAA0E06
:103FB400D46ED490000ED76E000ED66E080ED56E59
:103FC400550ED46EAA0ED46ED4801FB002D0D29EE9
:103FD40001D0D28E390182818285838D8399838B2E
:103FE40083978981888D8185120066BF09D063C05B
:103FF40063F064C064F065C065F066C066F01200EA
:1040040063C067F064C068F065C069F066C06AF0B8
:10401400671F681F691F6A1F672B000E68236923C7
:104024006A2367C063F068C064F069C065F06AC061
:1040340066F01200000E9B6E000E9C6E020E9D6ECA
:10404400830E996E000E986E3901A89D98506F00EA
:1040540064FE1FF0206A1FC020F01F6A1F102B6E21
:1040640020502C6E988DA60E0001636F4C0E646F69
:10407400010E656F00ECA6F0010E9A6E1200000EA0
:104084000101606F000E616F000E626F000E636FBE
:1040940000000400010E01016027000E6123622369
:1040A400632360510001635D0101615100016459A2
:1040B4000101625100016559010163510001665912
:0640C400D8A01200E5D7B0
:1040CC006F0060FF1CF06F00E8FF1DF06F00ECFF4D
:1040DC001EF0255026102710D8B40CD001D80AD0C9
:1040EC000500FA6E2550FD6E2650FE6E2750FF6EB1
:1040FC00FA50120060007BF0FBFF600077F0FAFFD3
:10410C00600073F0D8FF11006F0060FF60F06F006B
:10411C00E8FF61F06F00ECFF62F0285029102A10C4
:10412C00D8B40CD001D80AD00500FA6E2850FD6E18
:10413C002950FE6E2A50FF6EFA50120060008BF16F
:10414C00FBFF600087F1FAFF600083F1D8FF1100DC
:10415C00ECC0F0F0EDC0F1F00CD0EAC0DBF0EBC03D
:10416C00DCF0F00EDD6FEEC0DEF0EFC0DFF0AAEC9D
:10417C0087F06000C3F3F6FF6000C7F3F7FF000E93
:10418C00F86E0800F5500009D8A4E7D7000EEB6FC5
:10419C00000EEA6F1200000EA21B000EA31B000EF5
:1041AC00A41B800EA51B9EC08EF09FC08FF0A0C0DC
:1041BC0090F0A1C091F0A2C092F0A3C093F0A4C063
:1041CC0094F0A5C095F00BEC8FF08EC09EF08FC0D4
:1041DC009FF090C0A0F091C0A1F0120069C063F0F4
:1041EC006AC064F0000E666F000E656F000E686F9B
:1041FC00830E676F25ECA3F06000A7F1D9FF600078
:10420C00ABF1DAFF6000AFF1DEFF6000B3F1DDFF70
:10421C00D00E636FFD0E646F71EC9DF01200655152
:10422C006611D8B418D0010E1F6E04D0D890653723
:10423C0066371F2A66AFFAD76551635D66516459BC
:10424C00D8A004D06551635F6651645BD890663327
:10425C0065331F2EF1D763C063F064C064F01200A5
:10426C006F00E8FF09F06F00ECFF0AF03901A1952F
:10427C000101955196119711D8B40CD001D80AD0E0
:10428C000500FA6E9551FD6E9651FE6E9751FF6EBC
:10429C00FA50120060002BF0FBFF600027F0FAFFD1
:0242AC001100FF
:1042B0006F00E8FF14F06F00ECFF15F03901A291D8
:1042C00001018C518D118E11D8B40CD001D80AD0B7
:1042D0000500FA6E8C51FD6E8D51FE6E8E51FF6E93
:1042E000FA501200600057F0FBFF600053F0FAFF35
:0242F0001100BB
:1042F4006F00E8FF16F06F00ECFF17F03901A2958C
:10430400010189518A118B11D8B40CD001D80AD07B
:104314000500FA6E8951FD6E8A51FE6E8B51FF6E57
:10432400FA50120060005FF0FBFF60005BF0FAFFE0
:104334001100000ED2BE010E1F6E6451030B390131
:10434400E16F60008FF1E0F9600097F1E3F93F0E4F
:10435400E517E585D29E550EE66FAA0EE66FE58356
:10436400E5B3FED7E5951FB002D0D29E01D0D28E20
:104374001200206EBC94FE0E52ECA5F0080E000153
:10438400636F000E646F000E656F000E666F41EC84
:10439400A0F0205052ECA5F0200E0001636F030E34
:1043A400646F000E656F000E666F41ECA0F01200A2
:1043B400206EBC94FE0E52ECA5F0080E0001636F53
:1043C400000E646F000E656F000E666F41ECA0F086
:1043D400205052ECA5F0080E0001636F000E646FCC
:1043E400000E656F000E666F41ECA0F012006C6F5A
:1043F40037ECA6F046C169F047C16AF0000E00012F
:104404006B6F5BEC9FF0BC943B01FC9F000EF86F5C
:10441400010EF76FFC8F46C163F047C164F06CC0B6
:1044240065F0B8EC9EF03AECA6F012003750D8B420
:10443400FDD7000E3824D96EDA6A010EDA22DF5075
:10444400366E000E3824D96EDA6A020EDA22DF5094
:104454001F6E382A3F0E386402D0000E386E3901C0
:104464009397370693871F501200D1EC9FF09CEC72
:10447400A4F0CFEC98F044ECA5F0FEEC9CF038EC02
:104484009DF0EEECA4F090ECA5F06FECA3F023EC1F
:10449400A6F09CECA5F01CECA0F080EC97F05FEC8F
:1044A400A5F007ECA6F012006F00E8FF18F06F000B
:1044B400ECFF19F001019B519C119D11D8B40CD053
:1044C40001D80AD00500FA6E9B51FD6E9C51FE6E18
:1044D4009D51FF6EFA501200600067F0FBFF600010
:0644E40063F0FAFF110075
:1044EC006F00E8FF1AF06F00ECFF1BF00101985110
:1044FC0099119A11D8B40CD001D80AD00500FA6ED3
:10450C009851FD6E9951FE6E9A51FF6EFA50120041
:10451C0060006FF0FBFF60006BF0FAFF110063C0EE
:10452C001FF064C020F0600097F1F6FF60009BF173
:10453C00F7FF654B662B000EF86E60007FF0D9FF1D
:10454C00600083F0DAFF1F4A202A08006F00D7FFB3
:10455C00DFFFDF50D8B41200E6D71F6E3A50D8B444
:10456C00FDD7390193B904D060007FF0EAFD11D07A
:10457C009399400E3C24D96EDA6A020EDA2260005E
:10458C007FF0DFFF3C2A3F0E3C6402D0000E3C6EF5
:10459C003A0693891200000E726F000E716F0CD0E8
:1045AC0070C063F0646B6EC065F06FC066F0D9ECE0
:1045BC009BF00001714B722B71516C25D96E7251AD
:1045CC006D21DA6EDF50706F7051D8B41200E8D7DD
:1045DC006F00E8FF0CF06F00ECFF0DF03901A991B2
:1045EC002D4A2E2A2E5004E1170E2D5CD8A006D091
:1045FC0067ECA4F0000E2E6E000E2D6E600037F0EE
:10460C00FBFF600033F0FAFF11001FC063F020C005
:10461C0064F00001D89064336333D890643363330F
:10462C0063516D6E1FC063F0030E6317060E646F4B
:10463C00D8906337642FFCD763516C6E120063C043
:10464C001FF064C020F00BD060007FF0D9FF600039
:10465C0083F0DAFF600097F1DFFF1F4A202A67071B
:10466C00D8A068076729F0E16829D8B41200ECD704
:10467C001FC063F020C064F0D89064336333D890CB
:10468C00643363336351696E1FC063F0030E6317A9
:10469C00060E646FD8906337642FFCD76351686E35
:1046AC001200656F1FC063F020C064F0D890000149
:1046BC00633764376551020D4C0EF324D96E010E2D
:1046CC00F420DA6E60008FF1DEFF600093F1DDFF05
:1046DC001200010E966E200E956E000E976E4D0E0A
:1046EC00936E000E926E3901A9919981A00E000172
:1046FC00636F4C0E646F010E656FF9ECA5F0946856
:10470C0012006351641165116611D8B408D0000E03
:10471C00631B000E641B000E651B800E661B63C0C2
:10472C0063F064C064F065C065F066C066F01200AA
:10473C00400E3A6011D0400E3B24D96EDA6A020E5C
:10474C00DA22DF503D01EA6F3B2A3F0E3B6402D078
:10475C00000E3B6E3A2A1200390193991200930E07
:10476C00636FFE0E646F71EC9DF0010E3F6E000ED8
:10477C000001646F100E636F3FC065F09BECA1F0FD
:10478C00000E0BEC9EF01200B20E636FFE0E646F07
:10479C0071EC9DF0000E3F6E000E0001646F100E68
:1047AC00636F3FC065F09BECA1F0000E0BEC9EF02C
:1047BC001200635165036F00CCFF1FF06F00D0FF38
:1047CC0020F063516603F350202664516503F350C7
:1047DC0020261FC063F020C064F0120066C01FF0DA
:1047EC0067C020F0000E57ECA3F005D000000000CD
:1047FC00000000000400000E08ECA4F00009D8A48E
:10480C001200F4D70001636F040000016351020D24
:10481C004C0EF324D96E010EF420DA6EDE50DE104D
:10482C00D8A402D0010E1200000E1200C80E000116
:10483C00F26F030EF36F000EEA6F000EEB6FC6C340
:10484C00ECF0C7C3EDF0F20EEE6FEF6BAEECA0F038
:10485C001200010140B7FDD73D0117ABFDD7140E77
:10486C000001636F000E646F000E656F000E666FC3
:10487C0041ECA0F0BC8412006CC063F06DC064F01D
:10488C0071EC9DF0730E0001636FFF0E646F71ECA1
:10489C009DF0010E336E000E0BEC9EF01200C1EC7D
:1048AC00A5F00009D8B40BD018ECA2F060008FF181
:1048BC00D9FF600093F1DAFFDF6E010E1200000EDB
:1048CC0012000101925193119411D8B4120001D825
:1048DC0012000500FA6E9251FD6E9351FE6E9451CA
:1048EC00FF6EFA5012009AA409D09A9060003FF023
:1048FC0099FF60003BF098FF9A80120060003FF037
:10490C0099FF60003BF098FF1200206EBC94205081
:10491C0052ECA5F0080E0001636F000E646F000EE0
:10492C00656F000E666F41ECA0F01200000EC06FB8
:10493C00000EC16F000EC26F000EC36F000EC46F6D
:10494C00000EC56F000EC66F000EC76F1200000E72
:10495C003924D96EDA6A020EDA226F00A3F7DFFF70
:10496C00392A3F0E396402D0000E396E372A1200F4
:10497C0069C063F06AC064F0000E0001666F000E3F
:10498C00656F000E686F430E676F25ECA3F0120085
:10499C00CF0E636FFE0E646F71EC9DF0130E416EC3
:1049AC00140E406E020E336E000E0BEC9EF01200D5
:1049BC00BEA002D0010E01D0000EFF0A0B6EBE503D
:1049CC000B18FE0B0B18BE6E010E0001FA6F1200D5
:1049DC00010EAE6E000EAD6E000EAF6E9F0EAB6E86
:1049EC00000EAA6E3901A495800EAC6E12002050F8
:1049FC00030B3901E16F60007FF0E0F93F0EE51722
:104A0C00E581000000003901E35112006D6F2FECBD
:104A1C00A4F0FE0EF9ECA1F02FECA4F06D51F9EC22
:104A2C00A1F02FECA4F01200850E636FFF0E646FE3
:104A3C0071EC9DF0020E416E030E406E000E0BECFD
:104A4C009EF012004E0E636FFF0E646F71EC9DF0C2
:104A5C00070E416E080E406E000E0BEC9EF012001D
:104A6C00970E636FFF0E646F71EC9DF01F0E416E1D
:104A7C001F0E406E000E0BEC9EF01200200E390142
:104A8C00D96F000EDB6F000EDD6F050EDF6F000EB1
:104A9C00DE6FDCB11200FDD71F6E010E3D01126FEF
:104AAC0060007FF011FD3901A2A9FDD73D01105125
:104ABC001200020E3D01146F200E156F000E166FC2
:104ACC00020E1C6F020E196FC4961200000E00012C
:104ADC00696F030E6A6FA00E6B6F020E6C6FF4ECB5
:104AEC00A0F01200380E636FFF0E646F71EC9DF036
:104AFC00020E336E000E0BEC9EF01200610E636F13
:104B0C00FF0E646F71EC9DF0000E336E000E0BEC1B
:104B1C009EF01200800E6A6E4F0E696EC00E686EAB
:104B2C003F015F51F30B04095F6F1200800E6E6E34
:104B3C004F0E6D6EC00E6C6E3F015F51FC0B010988
:104B4C005F6F12003E01F051046E036AEF510324B3
:104B5C00016E000E0420026E120000016E6F000147
:104B6C006E510CECA5F0120065C063F066C064F0E9
:104B7C0071EC9DF012003750D8B402D0010E120027
:104B8C00000E120063C098F164C099F165C09AF1EF
:104B9C00120063C025F064C026F065C027F0120037
:104BAC0063C028F064C029F065C02AF0120063C00D
:104BBC0083F164C084F165C085F1120063C09BF180
:104BCC0064C09CF165C09DF1120063C086F164C0A5
:104BDC0087F165C088F1120063C080F164C081F177
:104BEC0065C082F1120063C092F164C093F165C09C
:104BFC0094F1120063C08FF164C090F165C091F123
:104C0C001200550E3901EF6FAA0EEF6FEF811200F3
:104C1C0063C08CF164C08DF165C08EF1120063C06D
:104C2C0089F164C08AF165C08BF1120063C095F103
:104C3C0064C096F165C097F11200A40E3E019E6F00
:104C4C001F0E9C6F1200206E2050B3ECA2F01200CD
:104C5C001F6E60007FF09CFE1200000E3D01F96F8C
:104C6C0012000101408712003B01FC8D12003E0135
:104C7C009C511200ADECA4F012003D01F89F120003
:054C8C00B9FF02141342
:104C920040971200D202C5FF120012001200120049
:064CA400110012001200D5
:020000040020DA
:10000000FFFFFFFFFFFFFFFFFFFFFFFFFFFFFFFF00
:020000040030CA
:0A000000AFFFFFFF9FFFFFDFFFFFD0
:00000001FF
