:0400000057EF00F0C6
:100008009C0C9C0C9C0C9C0C9C0C9C0C9C0C9C0CA8
:100018009C0C9C0C650B9C0C9C0C9C0C9C0C9C0CD0
:100028009C0C9C0C9C0C9C0C9C0C9C0C9C0C9C0C88
:100038009C0C9C0C9C0CC50BB50B9C0C9C0C9C0C38
:100048009C0C9C0C9C0C9C0C2B009C0C9C0C9C0CE5
:100058009C0C9C0C9C0C9C0C9C0C9C0C9C0C9C0C58
:100068009C0C9C0C9C0C9C0C9C0C9C0C9C0C9C0C48
:100078009C0C9C0C2B009C0C9C0C9C0C2B002B00AF
:100088002B002B002B002B002B002B00F90A9C0CBB
:10009800A50B9C0C9C0C9C0C2B002B002B002B0004
:0A00A8009C0C9C0CFF00A9EF16F061
:102000000050533A20563D25347520493D253475FE
:05201000200D0A000094
:10201600C251D96EDA6A6F007FFFF6FF200EF76EA7
:10202600000EF86E0800F550250AD8A4D3D0C25188
:10203600D96EDA6ADF2A000E3D6E000E3C6E3CC099
:1020460040F03DC041F03E683F68C251D96EDA6A41
:102056006F007FFFF6FF200EF76E000EF86E080089
:10206600F5502A0AD8A41AD0C251D96EDA6ADF2AE4
:10207600C351D96EDA6A020EDF26DF5CD96EDA6AE0
:102086006F0078FF3CF06F0078FF3DF03DAE33D037
:1020960040803C6C3D1ED8B03D2A2DD0C251D96E31
:1020A600DA6ADF501C6ED5EC11F01CC03CF01DC086
:1020B6003DF004D0C251D96EDA6ADF2AD00E000193
:1020C600C46FFF0EC56FC251D96EDA6A6F007FFF0B
:1020D600F6FF200EF76E000EF86E0800F550C66F7C
:1020E600C76BC451C627C551C723C75104E10A0EA1
:1020F600C65DD8A0DFD7C251D96EDA6A6F007FFFFE
:10210600F6FF200EF76E000EF86E0800F550750A01
:10211600D8A435D0C251D96EDA6ADF2AC351D96E36
:10212600DA6ADF50DF2ADF2AD96EDA6A6F0078FFB3
:10213600C4F06F0074FFC5F0C4C0C8F0C5C0C9F0D4
:10214600CA6BCB6BCC6BCD6BCE6BCF6BC1C0AAF021
:10215600C8C0ABF0C9C0ACF0CAC0ADF0CBC0AEF0E1
:10216600CCC0AFF0CDC0B0F0CEC0B1F0CFC0B2F0B1
:1021760006EC11F0AAC0C1F0ABC0C2F01200C25109
:10218600D96EDA6A6F007FFFF6FF200EF76E000E3B
:10219600F86E0800F550250AD8A413D0C251D96E9E
:1021A600DA6ADF2A000E186E250E176EC1C019F006
:1021B6001A6A19EC14F0000E0001C26F010EC16F0D
:1021C6001200C251D96EDA6ADF2A000EC26F000E03
:1021D600C16F1200C251D96EDA6A6F007FFFF6FF37
:1021E600200EF76E000EF86E0800F550176E186A8E
:1021F600C1C019F01A6A19EC14F00001C251D96E67
:10220600DA6ADF2AD8D73FAE40923FBE05D03F50AC
:1022160008E13E04D8B005D0000EB46F010EB36FCE
:1022260004D03EC0B3F03FC0B4F03CC0B5F03DC0F2
:10223600B6F0ABC0B7F0ACC0B8F0ADC0B9F0AEC048
:10224600BAF0AFC0BBF0B0C0BCF0B1C0BDF0B2C018
:10225600BEF0000EC06F1F0EBF6F000EA96F74D0C8
:10226600BF07D8A0C007BF518A0FD96EDA6AB7C0B8
:1022760015F0B8C016F0B9C017F0BAC018F0BBC058
:1022860019F0BCC01AF0BDC01BF0BEC01CF00A0E8F
:102296001D6E000E1E6E000E1F6E000E206E000ECE
:1022A600216E000E226E000E236E000E246ECDEC03
:1022B60014F015C030F016C031F017C032F018C057
:1022C60033F019C034F01AC035F01BC036F01CC00C
:1022D60037F03050300FDF6EB307D8A0B407B5071C
:1022E600D8A0B607B7C015F0B8C016F0B9C017F039
:1022F600BAC018F0BBC019F0BCC01AF0BDC01BF0C4
:10230600BEC01CF00A0E1D6E000E1E6E000E1F6E65
:10231600000E206E000E216E000E226E000E236E41
:10232600000E246EFBEC12F015C0B7F016C0B8F024
:1023360017C0B9F018C0BAF019C0BBF01AC0BCF08B
:102346001BC0BDF01CC0BEF0BF51C011D8B41AD01E
:10235600B751B811B911BA11BB11BC11BD11BE11DB
:10236600D8A47ED7B4BF05D0B45102E1B305D8B026
:1023760077D7B6BF07D0B65103E1B505D8A002D0CE
:1023860040B26ED7AAC027F0BF518A0F286EB5C0DB
:1023960029F0B6C02AF075EC15F027C0AAF028C0BF
:1023A600ABF01200000E256E000E246E000E236E9A
:1023B600000E226E01D01C2A600073F0F6FF200E7C
:1023C600F76E000EF86E0800F550200AD8B4F3D761
:1023D600F70E1E6EFF0E1F6E600073F0F6FF200EE6
:1023E600F76E000EF86E0800F550206E216A1E503A
:1023F60020261F50212221500BE1050E205CD8B06B
:1024060007D0D9D7000E236E010E226E1C2A34D0B7
:10241600600073F0F6FF200EF76E000EF86E0800EF
:10242600F5501E6E1F6A1F50000AD8A425D01E50F4
:102436002B0AD8B4EBD7060AD8B4E4D71DD024C0EB
:1024460015F025C016F0000E186E0A0E176E45EC34
:1024560018F0600073F0F6FF200EF76E000EF86EAF
:102466000800F550155E000E165A300E1524246E1F
:10247600000E1620256ECAD7D00E1E6EFF0E1F6EDA
:10248600600073F0F6FF200EF76E000EF86E08007F
:10249600F550206E216A1E5020261F502122215001
:1024A60004E10A0E205CD8A0CAD722502310D8A473
:1024B6000DD024C01EF025C01FF01E1E1F1E1E4A72
:1024C6001F2A1EC01CF01FC01DF0120024C01CF0E5
:1024D60025C01DF01200010E0001E76F5AEC18F03E
:1024E600BD92BE94860E156E310E166E000E176ED8
:1024F6000EEC19F0C80E156E2C0E166E000E176E29
:1025060015EC19F0C80E156E2F0E166E000E176E0E
:102516001CEC19F060000BF1F1FED28E010E2EECD0
:1025260019F04350D8B4FDD7840E385C030E3958E1
:10253600D8B007D0000E62EC13F0090E62EC13F06F
:1025460013D0C50E385C090E3958D8A007D0010E35
:1025560062EC13F00A0E62EC13F006D0020E62EC87
:1025660013F00B0E62EC13F0840E3A5C030E3B582C
:10257600D8B007D0030E62EC13F0060E62EC13F02F
:1025860013D0C50E3A5C090E3B58D8A007D0040EEE
:1025960062EC13F0070E62EC13F006D0050E62EC47
:1025A60013F0080E62EC13F0000E436E4450D8B4DC
:1025B600B8D7000E0001D46F020ED56F010ED66F8C
:1025C60038C0D7F039C0D8F03AC0D9F03BC0DAF0FD
:1025D6000BEC17F0000E276E020E286EC7EC17F0F4
:1025E6000001E72BE7512EEC19F0000E446E99D747
:1025F60020EE25F0070EDE6AE806FDE21D501E10ED
:102606001F1020102110221023102410D8B446D0F9
:10261600010E2D6E0AD0D8901D361E361F36203676
:1026260021362236233624362D2A24AEF4D7D890E6
:10263600253626362736283629362A362B362C36A0
:102646001D50155C1E5016581F501758205018580C
:102656002150195822501A5823501B5824501C58E0
:10266600D8A011D01D50155E1E50165A1F50175A6D
:102676002050185A2150195A22501A5A23501B5AC0
:1026860024501C5A2580D8902432233222322132FB
:1026960020321F321E321D322D2EC9D725C015F00D
:1026A60026C016F027C017F028C018F029C019F068
:1026B6002AC01AF02BC01BF02CC01CF01200176E9B
:1026C6002DD0BD98BD9A1200BD98BD8A1200BD8856
:1026D600BD9A1200BD9CBD9E1200BD9CBD8E12000F
:1026E600BD8CBD9E1200BF98BF9A1200BF98BF8ACC
:1026F6001200BF88BF9A1200BF9CBF9E1200BF9CEB
:10270600BF8E1200BF8CBF9E1200BD98BD9ABD9CA5
:10271600BD9EBF98BF9ABF9CBF9E12001750156EF4
:10272600166A1650000AD8A4F0D71550000AD8B475
:10273600C8D7010AD8B4CBD7030AD8B4C5D7010A7B
:10274600D8B4C8D7070AD8B4CBD7010AD8B4C5D7E6
:10275600030AD8B4C8D7010AD8B4CBD70F0AD8B45D
:10276600C5D7010AD8B4C8D7030AD8B4CBD7010A4B
:10277600D8B4C5D7CAD7000EBE6E110EBD6E200ED8
:10278600BA6E000EBF6E000EBB6E000EBC6E020E61
:10279600C66E0F0EC76EDF0EC26EC368BF0EC46E66
:1027A6000C0EC56E0C0E3A01706F7F0E606FFE0E3A
:1027B600506F020E806F0F0E906F8F0E406F000EDF
:1027C600716F000E916F000E816F010E516F500EEA
:1027D600416F000E616F000E5A6F000E5B6F000EA8
:1027E6006A6F000E6B6F000E7A6F000E7B6F000E25
:1027F600826F000E926F000E426F000E526F000E37
:10280600626F000E726F4369536963697369070EDD
:10281600836F936944695469646974690F0E846FA0
:102826009469130E166F170EE56F120019501A10E1
:10283600D8B404D019501A10D8A404D0175029ECD3
:1028460019F04AD020EE09F01950D9261A50DA228A
:10285600DE50DE10D8B416D020EE09F01950D92675
:102866001A50DA2210EE03F01950E1261A50E2222D
:10287600DE50E65CE650800A1F6EDE50800A1F5866
:10288600D8B02AD020EE03F01950D9261A50DA22F1
:102896006F0078FF1BF06F0074FF1CF0600067F09C
:1028A600D9FF60006BF0DAFF6F0078FF1DF06F0054
:1028B60074FF1EF01B501D24D96E1C501E20DA6EAC
:1028C60060005FF0DFFF20EE03F01950D9261A50A2
:1028D600DA22DE2A000EDD2217C017F0186A12006F
:1028E6009397480E156E2A0E166E000E176EF2ECB2
:1028F60018F09399300E156E300E166E000E176E88
:10290600EBEC18F0000E3D01EC6F000EED6F000EC3
:10291600EE6F000EEF6F000EF06F000EF16FB00E4F
:10292600F26F800EF36F000EF46F150EF56F010E49
:10293600F66F000EF76F000EF86F000EF96F000EBF
:10294600FA6F740E156E320E166E000E176E00ECD0
:1029560019F0720E156E320E166E000E176EF9EC29
:1029660018F0660E156E320E166E000E176E07EC18
:1029760019F0000E456E000E4B6E000E4A6E400EAC
:10298600496E000E486E000E476E000E466E390107
:10299600938712001D501E101F10201021102210A8
:1029A60023102410D8B43CD0010E256E0AD0D8903E
:1029B6001D361E361F36203621362236233624365D
:1029C600252A24AEF4D71D50155C1E5016581F50EC
:1029D6001758205018582150195822501A58235069
:1029E6001B5824501C58D8A010D01D50155E1E50E0
:1029F600165A1F50175A2050185A2150195A225049
:102A06001A5A23501B5A24501C5AD8902432233267
:102A16002232213220321F321E321D32252ED3D7CA
:102A260015C015F016C016F017C017F018C018F02C
:102A360019C019F01AC01AF01BC01BF01CC01CF0FC
:102A46001200000E4824D96EDA6A010EDA22000E50
:102A5600DF6E3D01F9A715D0000E4824D96EDA6A5B
:102A6600010EDA220101DF8201D80BD00500FA6ED1
:102A760000017551FD6E7651FE6E7751FF6EFA506C
:102A860012003D01F9A315D0000E4824D96EDA6A6A
:102A9600010EDA220101DF8401D80BD00500FA6E9F
:102AA60000017251FD6E7351FE6E7451FF6EFA5045
:102AB6001200000E4824D96EDA6A010EDA22DF50BF
:102AC600D8B40DD001D812000500FA6E00016F517E
:102AD600FD6E7051FE6E7151FF6EFA501200B2EC2F
:102AE60018F0120040A008D028C020F0216A27C0A4
:102AF60022F0236AEBEC16F02ABE05D029C02EF090
:102B06002AC02FF004D0000E2F6E000E2E6E000E7F
:102B16002D6E000E2C6E0BD0000E186E200E176E4A
:102B260027C019F01A6A19EC14F02C4A2D2A2E50D7
:102B36002C5C2D50800A2B6E2F50800A2B58D8A063
:102B4600EBD740B008D028C020F0216A27C022F079
:102B5600236AEBEC16F028C015F07FEC18F02E5027
:102B66001524276E2F501620286E1200000E3E01E7
:102B7600DE6F000EDF6F000EE06F000EE16F000EDD
:102B8600E46F000EE56F000EEA6F000EEC6F000EAC
:102B9600F16F100EF36F000EF46F000EF56F000E5E
:102BA600F66F000EF76F000EF96F000EFA6F000E4B
:102BB600FB6F000EFC6F020EFD6F070EFE6F000E20
:102BC600FF6F940EF86F3901A19591856C0E156E05
:102BD600320E166E000E176E1CEC19F012006F0006
:102BE600E8FF13F06F00ECFF14F03901A89D86C0D2
:102BF6000FF087C010F06DEC18F000016C516D11EC
:102C06006E11D8B40CD001D80AD00500FA6E6C51FA
:102C1600FD6E6D51FE6E6E51FF6EFA501200600031
:102C260053F0FBFF60004FF0FAFF1100000E9B6EA1
:102C3600000E9C6E020E9D6E830E996E000E986EAF
:102C46003901A89D98506F0064FE18F0196A18C0E3
:102C560019F0186A18100001866F1950876F39012C
:102C6600988D760E156E320E166E000E176E15ECDA
:102C760019F0010E9A6E1200D1C0D3F0000E856FC6
:102C8600000E846F0DD0D0C0C1F0D30EC26FD2C07B
:102C9600C3F00BEC10F00001C1518427C25185230B
:102CA60060004FF3F6FF200EF76E000EF86E080078
:102CB600F5500009D8A4E7D784C0D0F085C0D1F07C
:102CC6001200000E126E000E116E1150020DF3501E
:102CD600600FD96EDA6ADE50DE10D8B409D0115012
:102CE600020DF350600FD96EDA6ADE06000EDD5A69
:102CF600114A122A12BEE9D7125005E1060E115CDE
:102D0600D8B01200E2D71200D28A000ED2BE010E4F
:102D1600156ED29E550ED46EAA0ED46ED490000EA9
:102D2600D76E000ED66E080ED56E550ED46EAA0E50
:102D3600D46ED48015B002D0D29E01D0D28E390185
:102D4600838983878981888D8185120000EE00F250
:102D5600800EEE6AE806FDE100EE00F1C00EEE6AB6
:102D6600E806FDE100EE60F04A0EEE6AE806FDE1D7
:102D760000EE38F0140EEE6AE806FDE1080ED56E98
:102D8600000ED66E000ED76E00016EEF12F06F00C9
:102D9600E8FF06F06F00ECFF07F03901A19500018E
:102DA6007B517C117D11D8B40CD001D80AD0050016
:102DB600FA6E7B51FD6E7C51FE6E7D51FF6EFA50B0
:102DC600120060001FF0FBFF60001BF0FAFF11000D
:102DD600000E266E000E256E0BD024C017F0186A62
:102DE60022C019F023C01AF019EC14F0254A262A3D
:102DF60025502024D96E26502120DA6EDF50246E0D
:102E06002450D8A4EAD725C020F026C021F012000D
:102E1600D70EDB6FD4C0DCF0D5C0DDF0000EE06F5E
:102E2600000EDF6F000EE66F000EE56FDC0ED06F52
:102E3600D6C0D1F0DB0ED26F3FEC16F0DF51D425B1
:102E4600D96EE051D521DA6E000EDF6E1200010E4A
:102E56001B6E200E15181610D8B414D0F70E176E68
:102E6600FF0E186E15C019F016C01AF01750192665
:102E760018501A221A5004E1050E195CD8A002D087
:0C2E8600000E1B6E1BC015F0166A120037
:102E94006F00E8FF09F06F00ECFF0AF03901A99117
:102EA4000001884B892B895104E1170E885DD8A055
:102EB40007D0A1EC18F0000E0001896F000E886F96
:0E2EC40060002BF0FBFF600027F0FAFF11000A
:102ED4006F00E8FF0BF06F00ECFF0CF000017E5177
:102EE4007F118011D8B40CD001D80AD00500FA6E35
:102EF4007E51FD6E7F51FE6E8051FF6EFA501200BE
:0E2F0400600033F0FBFF60002FF0FAFF1100B9
:102F14006F00E8FF0DF06F00ECFF0EF0000181512F
:102F240082118311D8B40CD001D80AD00500FA6EEE
:102F34008151FD6E8251FE6E8351FF6EFA50120074
:102F440060003BF0FBFF600037F0FAFF1100156EE4
:102F54004950D8B4FDD7390193B904D0600057F073
:102F6400EAFD11D09399800E4B24D96EDA6A010ED2
:102F7400DA22600057F0DFFF4B2A3F0E4B6402D089
:102F8400000E4B6E490693891200010E296E27C06C
:102F940020F028C021F0000E226E000E236EEBEC10
:102FA40016F021BE1200000E186E0A0E176E000EE7
:102FB400196E000E1A6E19EC14F018BE1200000EF1
:102FC400296E1200E0EC18F04250020DF350380F55
:102FD400D96EDA6A600007F0DEFF60000BF0DDFFF7
:102FE400422A4204056E010E056402D0000E426EB0
:102FF40060000BF1F1FE010E436E1200D00E176E4D
:10300400FF0E186E15C019F016C01AF017501926C5
:1030140018501A221A5006E10A0E195CD8B002D0D0
:10302400010E01D0000E156E166A1200400E4960A2
:1030340011D0800E4A24D96EDA6A010EDA22DF50EA
:103044003D01EA6F4A2A3F0E4A6402D0000E4A6EDE
:10305400492A1200390193991200010E966E200E2E
:10306400956E000E976E4D0E936E000E926EA991A2
:1030740099816E0E156E320E166E000E176E0EECE2
:1030840019F094681200155017026F00CCFF19F064
:103094006F00D0FF1AF015501802F3501A2616507C
:1030A4001702F3501A2619C015F01AC016F01200B0
:1030B40087EC16F090EC18F0BEEC13F0D2EC18F09C
:1030C4002FEC18F0B9EC15F023EC19F019EC16F00C
:1030D40073EC14F012009AA409D09A90600043F0A3
:1030E40099FF60003FF098FF9A801200600043F05F
:1030F40099FF60003FF098FF120015C017F001D04F
:10310400152A1550D96EDA6ADF50D8A4F9D71750AA
:10311400155C156E166A15BE16061200000EC06FF9
:10312400000EC16F000EC26F000EC36F000EC46F9D
:10313400000EC56F000EC66F000EC76F12007851E7
:1031440079117A11D8B4120001D812000500FA6E70
:103154007851FD6E7951FE6E7A51FF6EFA5012006D
:10316400400E4824D96EDA6A010EDA226F00A3F702
:10317400DFFF482A3F0E486402D0000E486E462AFC
:103184001200BEA002D0010E01D0000EFF0A086E8C
:10319400BE500818FE0B0818BE6E010E446E1200D5
:1031A400200E3901D96F000EDB6F000EDD6F050EA6
:1031B400DF6F000EDE6FDCB11200FDD73E01F0516F
:1031C400046E036AEF510324016E000E0420026EA4
:1031D400120015C07EF016C07FF017C080F01200F8
:1031E40015C081F016C082F017C083F0120015C01C
:1031F40072F016C073F017C074F0120015C075F0A9
:1032040016C076F017C077F0120015C06FF016C024
:1032140070F017C071F0120015C078F016C079F084
:1032240017C07AF0120015C06CF016C06DF017C00C
:103234006EF0120015C07BF016C07CF017C07DF054
:103244001200A40E3E019E6F1F0E9C6F1200166E9C
:103254001650A9EC17F01200156E600057F09CFE92
:103264001200B2EC18F01200120012001100120049
:043274001200120032
:020000040020DA
:10000000FF0FFF0FFF0FFF0FFF0FFF0FFF0FFF0F80
:020000040030CA
:0A000000AFFFFFFF9FFFFFFFFFFFB0
:00000001FF
