:0400000057EF00F0C6
:10000800DA55DA55DA55DA55DA55DA55DA55DA5570
:10001800DA55DA553E53DA55DA55DA55DA55DA55FE
:100028004F53DA55DA55DA55DA55DA55DA55DA55DD
:10003800DA55DA55DA550A53F852CE53DE53DA5503
:10004800DA55DA55DA55DA552B00DA55DA55DA5534
:10005800DA55DA55DA55DA55DA55DA55DA55DA5520
:10006800DA55DA55DA55DA55DA55DA55DA55DA5510
:10007800DA55DA552B00DA55DA55DA552B002B000C
:100088002B002B002B002B002B002B00AD52DA5538
:100098001A54DA55DA55DA552B002B002B002B00B1
:0A00A800DA55DA55FF0044EF9CF032
:10FDBE000002400050006042A20D0D0A20436F6DFC
:10FDCE006D616E642070726F636573736F7220560F
:10FDDE00312E300D0A0056312E3032205053205421
:10FDEE004553540020505320545950452025317509
:10FDFE003A2050532054657374202531753A2044AF
:10FE0E004143204F55542025342E34756D562042D3
:10FE1E003D252E32752C20537570706C79205265ED
:10FE2E0061644261636B2025342E34756D56205605
:10FE3E003D252B362E3166562025342E34756D56C3
:10FE4E0020493D252B332E31666D41203A205374C7
:10FE5E006174697374696373205374643D25362E1F
:10FE6E00316656205661723D25362E316656204D2E
:10FE7E0065616E3D25362E3166560D0A000D0A203F
:10FE8E00414343454C205375707072657373696FAF
:10FE9E006E20537570706C79200D0A000D0A204586
:10FEAE005854205375707072657373696F6E20535A
:10FEBE007570706C79200D0A000D0A2053746561FF
:10FECE00647920564443204F4E203A2044656661A3
:10FEDE00756C740D0A004D2531752C205025317529
:10FEEE002C204425332E3166205625332E316620A4
:10FEFE0020200025342E34756D562025342E347571
:10FF0E006D562025342E34756D5600563D252B36F4
:10FF1E002E31665620493D252B332E31666D4120FC
:10FF2E0020000D0A20566F6C74616765204F4E20BD
:10FF3E003A205365740D0A000D0A20566F6C7461D9
:10FF4E00676520444F574E200D0A000D0A20566F4C
:10FF5E006C74616765204F4646200D0A000D0A201D
:10FF6E0052616D7020564443204F4E200D0A000DF5
:10FF7E000A20566F6C74616765204C4F57200D0A2E
:10FF8E00000D0A20566F6C74616765205550200D68
:10FF9E000A000D0A204275696C64202573202573B2
:10FFAE000D0A00417072203234203230323200316C
:10FFBE00373A34373A343400257320257300494ECE
:10FFCE0046004E414E00696E66006E616E006C6CAE
:10FFDE0073006C6600703000703100706400706CDD
:10FFEE0000706F007070007072007073007075009A
:01FFFE000002
:020000040001F9
:10000000000EC46F000EC36FA5C0D5F0A6C0D6F019
:10001000A7C0D7F0A8C0D8F0D8AF16D0000EC46FD4
:10002000010EC36FD5C060F0D6C061F0D7C062F0DA
:10003000D8C063F0E6ECA8F060C0D5F061C0D6F09F
:1000400062C0D7F063C0D8F0000EDC6F000EDB6F2B
:100050002CC0C7F02DC0C8F0C351C411D8A402D021
:100060002EA413D0C351C411D8A404D0000EB06F75
:100070002B0E03D0000EB06F2D0EAF6FAFC040F24D
:10008000DB4BDC2BC707D8A0C807D5C060F0D6C0B3
:1000900061F0D7C062F0D8C063F0E7EC9EF0600575
:1000A0006111D8A443D0BF0EAA6FFF0EAB6FA95148
:1000B000AC6FAD6BAA51AC27AB51AD23AD5111E183
:1000C0001A0EAC5DD8B00DD0400EDB25606F020E6D
:1000D000DC21616FCC0E626FFF0E636F4EECA3F0FC
:1000E0000CD0400EDB25606F020EDC21616FD40E58
:1000F000626FFF0E636F4EECA3F00001FD0EC72789
:10010000FF0EC823A3C072F0A4C073F0400E00011C
:10011000746F020E756FC7C076F0C8C077F06CECD4
:10012000A1F072C0A3F073C0A4F01200D5C060F0BB
:10013000D6C061F0D7C062F0D8C063F0E7EC9EF0A3
:1001400060516111D8A42BD0BF0EAA6FFF0EAB6F08
:10015000A951AC6FAD6BAA51AC27AB51AD23AD51DA
:1001600011E11A0EAC5DD8B00DD0400EDB25606FEA
:10017000020EDC21616FD00E626FFF0E636F4EECDA
:10018000A3F0BBD7400EDB25606F020EDC21616F50
:10019000D80E626FFF0E636F4EECA3F0AED7000E69
:1001A000DD6F000EDE6F800EDF6F3F0EE06F000E22
:1001B000DA6F000ED96FD5C060F0D6C061F0D7C03D
:1001C00062F0D8C063F0000E646F000E656F000E21
:1001D000666F000E676FB7ECA1F0D8A01DD074D089
:1001E000DDC072F0DEC073F0DFC074F0E0C075F007
:1001F000000E766F000E776F200E786F410E796FCC
:10020000F1EC8FF072C0DDF073C0DEF074C0DFF08F
:1002100075C0E0F0D94BDA2BD5C08BF0D6C08CF08E
:10022000D7C08DF0D8C08EF0000E766F000E776FBD
:10023000200E786F410E796FDDC072F0DEC073F072
:10024000DFC074F0E0C075F0F1EC8FF072C08FF099
:1002500073C090F074C091F075C092F0B1EC9DF055
:10026000D8A01ED0BDD7DDC072F0DEC073F0DFC0F5
:1002700074F0E0C075F0000E766F000E776F200E00
:10028000786F410E796F8BEC94F072C0DDF073C023
:10029000DEF074C0DFF075C0E0F0D907D8A0DA074F
:1002A000D5C08BF0D6C08CF0D7C08DF0D8C08EF002
:1002B000DDC08FF0DEC090F0DFC091F0E0C092F0C2
:1002C000B1EC9DF0D8A0CFD7A9C064F0656BF9EC74
:1002D000A7F06451CA6FCAC0C9F0670ECA19D8A482
:1002E00019D0F851F911D8A404D0000EF96F010EFD
:1002F000F86FF9BF05D0F95108E1F805D8B005D07D
:10030000000EC66F060EC56F08D0F8C0C5F0F9C064
:10031000C6F003D0F9AFF9D7F3D7670ECA19D8A43E
:1003200022D0DAAF06D0FC0ED95DFF0EDA59D8A084
:1003300018D0FF0EAA6FFF0EAB6FC5C0ACF0C6C0E1
:10034000ADF0AA51AC27AB51AD23D951AC5DAD5145
:10035000800AAE6FDA51800AAE59D8A002D0660E7C
:1003600001D0650EC96FC5C0BBF0C6C0BCF0670E3A
:10037000CA19D8A405D0660EC919D8B4DAAF02D00C
:10038000BB4BBC2B660EC919D8A416D0DAAF0CD063
:10039000000EDD6F000EDE6F800EDF6F3F0EE06F30
:1003A000000EDA6F000ED96F670ECA19D8B404D0E8
:1003B000D951BB27DA51BC23000ED46F000ED36F86
:1003C000D5C0CBF0D6C0CCF0D7C0CDF0D8C0CEF0E1
:1003D000DDC0BDF0DEC0BEF0DFC0BFF0E0C0C0F0E9
:1003E0007AD0CBC072F0CCC073F0CDC074F0CEC068
:1003F00075F0DDC076F0DEC077F0DFC078F0E0C0E9
:1004000079F08BEC94F072C08BF073C08CF074C0F8
:100410008DF075C08EF084EC97F08BC0CFF08CC05F
:10042000D0F08DC0D1F08EC0D2F0CFC060F0D0C07F
:1004300061F0D1C062F0D2C063F00CECA0F060C0FB
:10044000C1F061C0C2F0CBC09BF0CCC09CF0CDC06D
:100450009DF0CEC09EF0DDC076F0DEC077F0DFC04C
:1004600078F0E0C079F0CFC072F0D0C073F0D1C0A6
:1004700074F0D2C075F0F1EC8FF072C09FF073C0D1
:10048000A0F074C0A1F075C0A2F038ECA6F09BC03B
:10049000CBF09CC0CCF09DC0CDF09EC0CEF0DDC0B6
:1004A00072F0DEC073F0DFC074F0E0C075F0000ED3
:1004B000766F000E776F200E786F410E796F8BECA0
:1004C00094F072C0DDF073C0DEF074C0DFF075C070
:1004D000E0F0D34BD42BBB51D35DD451800AAA6F2B
:1004E000BC51800AAA59D8A07CD7DDC072F0DEC00A
:1004F00073F0DFC074F0E0C075F0000E766F000E90
:10050000776FA00E786F400E796FF1EC8FF072C0AC
:10051000CFF073C0D0F074C0D1F075C0D2F0CBC0B2
:100520008BF0CCC08CF0CDC08DF0CEC08EF0CFC0A3
:100530008FF0D0C090F0D1C091F0D2C092F0B1EC69
:100540009DF0D8A015D0CBC060F0CCC061F0CDC07C
:1005500062F0CEC063F0CFC064F0D0C065F0D1C00F
:1005600066F0D2C067F0B7ECA1F0D8B0C1B108D046
:10057000000ECF6F000ED06F000ED16F000ED26F45
:10058000D5C08BF0D6C08CF0D7C08DF0D8C08EF01F
:10059000CFC08FF0D0C090F0D1C091F0D2C092F017
:1005A00099EC91F08BC0CBF08CC0CCF08DC0CDF02D
:1005B0008EC0CEF0CBC08BF0CCC08CF0CDC08DF017
:1005C000CEC08EF0000E766F000E776F200E786F23
:1005D000410E796FBDC072F0BEC073F0BFC074F041
:1005E000C0C075F0F1EC8FF072C08FF073C090F066
:1005F00074C091F075C092F0B1EC9DF0D8A022D0FB
:10060000D94BDA2BBDC072F0BEC073F0BFC074F01E
:10061000C0C075F0000E766F000E776F200E786FF9
:10062000410E796FF1EC8FF072C0BDF073C0BEF077
:1006300074C0BFF075C0C0F0660EC919D8A402D04E
:10064000BB4BBC2BBDC0DDF0BEC0DEF0BFC0DFF0D9
:10065000C0C0E0F0650EC919D8B405D0D9C0B9F052
:10066000DAC0BAF004D0000EBA6F000EB96F000EF7
:10067000B86F000EB76F000EB66F000EB56F000EAC
:10068000D46F000ED36FC4D0CBC072F0CCC073F067
:10069000CDC074F0CEC075F0DDC076F0DEC077F06E
:1006A000DFC078F0E0C079F08BEC94F072C08BF092
:1006B00073C08CF074C08DF075C08EF084EC97F030
:1006C0008BC0CFF08CC0D0F08DC0D1F08EC0D2F0F6
:1006D000CFC060F0D0C061F0D1C062F0D2C063F092
:1006E0000CECA0F060C0C1F061C0C2F02EB80CD01C
:1006F000C151C211D8A408D0670ECA19D8B4BAAF74
:1007000003D0B54BB62B39D0B751B811D8B4BAAF66
:1007100022D0400EDB25D96E020EDC21DA6E2E0EC1
:10072000DF6EDB4BDC2BC707D8A0C807000EB86F05
:10073000010EB76F10D0400EDB25D96E020EDC2102
:10074000DA6E300EDF6EDB4BDC2BC707D8A0C80794
:10075000B507D8A0B607B551B611D8A4ECD7400E4E
:10076000DB25D96E020EDC21DA6EC151300FDF6E4F
:10077000DB4BDC2BC707D8A0C807CBC09BF0CCC095
:100780009CF0CDC09DF0CEC09EF0DDC076F0DEC006
:1007900077F0DFC078F0E0C079F0CFC072F0D0C061
:1007A00073F0D1C074F0D2C075F0F1EC8FF072C06C
:1007B0009FF073C0A0F074C0A1F075C0A2F038EC37
:1007C000A6F09BC0CBF09CC0CCF09DC0CDF09EC0ED
:1007D000CEF0DDC072F0DEC073F0DFC074F0E0C0B8
:1007E00075F0000E766F000E776F200E786F410E59
:1007F000796F8BEC94F072C0DDF073C0DEF074C0E2
:10080000DFF075C0E0F0B907D8A0BA07D34BD42BFE
:10081000BB51D35DD451800AAA6FBC51800AAA593A
:10082000D8B008D0DCBF30D7DC5104E14B0EDB5D23
:10083000D8A02AD7B751B811D8B42EA80AD0400EE4
:10084000DB25D96E020EDC21DA6E2E0EDF6EDB4B5D
:10085000DC2B400EDB25D96E020EDC21DA6E000E99
:10086000DF6E650EC919D8A44DD4000ED46F4F0E9B
:10087000D36F400ED325D96E020ED421DA6E000E4E
:10088000DF6E000EC46F000EC36FDAAF08D0000E2B
:10089000C46F010EC36FD96DDA1FD8B0DA2B000E0A
:1008A000C66F020EC56F2AD0D307D8A0D407400E5A
:1008B000D325D96E020ED421DA6ED9C060F0DAC029
:1008C00061F0000E636F0A0E626F78ECA2F0605167
:1008D000300FDF6ED9C060F0DAC061F0000E636FD8
:1008E0000A0E626FFCECA1F060C0D9F061C0DAF0D2
:1008F000C507D8A0C607C707D8A0C807D951DA11BD
:10090000D8A4D2D7C6BF05D0C651CEE1C505D8B050
:10091000CBD7D307D8A0D407C351C411D8A404D0CF
:10092000000EB26F2B0E03D0000EB26F2D0EB16F02
:10093000400ED325D96E020ED421DA6E6000C7F2C4
:10094000DFFFC707D8A0C807D307D8A0D407BF0EBA
:10095000AA6FFF0EAB6FA951AC6FAD6BAA51AC275C
:10096000AB51AD23AD5104E11A0EAC5DD8A004D05B
:10097000000EB46F650E03D0000EB46F450EB36F5A
:10098000400ED325D96E020ED421DA6E6000CFF26C
:10099000DFFFC707D8A0C807400EDB25606F020E37
:1009A000DC21616F400ED325626F020ED421636F8C
:1009B0004EECA3F082EF80F0E351D96EDA6A6F005B
:1009C0007BFFF6FF6F0077FFF7FF000EF86E080061
:1009D000F550250AD8A45CD3E351D96EDA6ADE2A31
:1009E000000EDD22000E2D6E000E2C6E2CC02EF09F
:1009F0002DC02FF0F869F969000E0101776F000E24
:100A000014D02E80E351D96EDA6ADE2A000EDD2280
:100A100033D02E82F7D72E84F5D72E86F3D72E88A3
:100A2000F1D7000E0101776F010E766F25D000011E
:100A3000E351D96EDA6A6F007BFFF6FF6F0077FF34
:100A4000F7FF000EF86E0800F550E66FE76BE75110
:100A5000000AD8A4E6D7E651200AD8B4DED7030AA4
:100A6000D8B4DDD7080AD8B4D6D7060AD8B4C9D7BF
:100A70001D0AD8B4CED7D5D7010176517711D8B495
:100A8000D6D72EB02E920001E351D96EDA6A6F00EC
:100A90007BFFF6FF6F0077FFF7FF000EF86E080090
:100AA000F5502A0AD8A42AD0E351D96EDA6ADE2A90
:100AB000000EDD22600093F3D9FF600097F3DAFFA8
:100AC0006F007CFFE6F0020EDE266F007CFFE7F091
:100AD000000EDD2260009BF3D9FF60009FF3DAFF78
:100AE0006F0078FF2CF06F0074FF2DF02DAE39D021
:100AF0002E802C6C2D1ED8B02D2A33D0E351D96E08
:100B0000DA6A6F0078FF65F06F0074FF66F0A4EC9E
:100B10009BF065C02CF066C02DF006D0E351D96E75
:100B2000DA6ADE2A000EDD22D00EE66FFF0EE76FD6
:100B3000E351D96EDA6A6F007BFFF6FF6F0077FF33
:100B4000F7FF000EF86E0800F550E86FE96BE6510C
:100B5000E827E751E923E95104E10A0EE85DD8A04E
:100B6000DDD7E351D96EDA6A6F007BFFF6FF6F00C5
:100B700077FFF7FF000EF86E0800F5502E0AD8A494
:100B800070D0000EF96F000EF86FE351D96EDA6A7B
:100B9000DE2A000EDD22E351D96EDA6A6F007BFF98
:100BA000F6FF6F0077FFF7FF000EF86E0800F550B4
:100BB0002A0AD8A423D0E351D96EDA6ADE2A000EBD
:100BC000DD22600093F3D9FF600097F3DAFF6F0036
:100BD0007CFFE6F0020EDE266F007CFFE7F0000EE1
:100BE000DD2260009BF3D9FF60009FF3DAFF6F0006
:100BF00078FFF8F06F0074FFF9F033D0E351D96E4D
:100C0000DA6A6F0078FF65F06F0074FF66F0A4EC9D
:100C10009BF065C0F8F066C0F9F006D0E351D96EDC
:100C2000DA6ADE2A000EDD22D00EE66FFF0EE76FD5
:100C3000E351D96EDA6A6F007BFFF6FF6F0077FF32
:100C4000F7FF000EF86E0800F550E86FE96BE6510B
:100C5000E827E751E923E95104E10A0EE85DD8A04D
:100C6000DDD7E351D96EDA6A6F007BFFF6FF6F00C4
:100C700077FFF7FF000EF86E0800F550646F656BA4
:100C8000F9ECA7F0645101017E6F7E51D8B441D0D8
:100C90000001E351D96EDA6A6F0078FFE6F06F0069
:100CA00074FFE7F0010EE627000EE72360009BF3D8
:100CB000F6FF60009FF3F7FF000EF86E0800F55096
:100CC000646F656BF9ECA7F0645101017F6F7F5190
:100CD000D8B41FD00001E351D96EDA6A6F0078FFF3
:100CE000E6F06F0074FFE7F0020EE627000EE72340
:100CF00060009BF3F6FF60009FF3F7FF000EF86EB5
:100D00000800F550646F656BF9ECA7F064510101C0
:100D1000806F660E7E19D8A44DD00001E351D96EC4
:100D2000DA6A6F007BFFF6FF6F0077FFF7FF000EB8
:100D3000F86E08006F00D4FF81F1E351D96EDA6AD2
:100D4000DE2A000EDD22600093F3D9FF600097F3E6
:100D5000DAFF6F007CFFE6F0040EDE266F007CFFFA
:100D6000E7F0000EDD2260009BF3D9FF60009FF3E7
:100D7000DAFF6F0078FF7AF16F0078FF7BF16F0088
:100D800078FF7CF16F0078FF7DF1E1C0A3F0E2C055
:100D9000A4F07AC1A5F07BC1A6F07CC1A7F07DC10B
:100DA000A8F081C1A9F000EC80F0A3C0E1F0A4C0DC
:100DB000E2F012007E0E0001626F010E636FE00E22
:100DC000646FFF0E656F000E676F020E666F59EC61
:100DD00098F062516311D8A45ED0E351D96EDA6AFB
:100DE0006F0078FFE6F06F0074FFE7F0010EE62772
:100DF000000EE72360009BF3F6FF60009FF3F7FF10
:100E0000000EF86E08006F00D4FF81F1BF0EE66F90
:100E1000FF0EE76FE351D96EDA6A6F007BFFF6FFD2
:100E20006F0077FFF7FF000EF86E0800F550E86FCF
:100E3000E96BE651E827E751E923E95102E11A0E8F
:100E4000E85D600093F3D9FF600097F3DAFF6F006D
:100E50007CFFE6F0040EDE266F007CFFE7F0000E5C
:100E6000DD2260009BF3D9FF60009FF3DAFF6F0083
:100E700078FF7AF16F0078FF7BF16F0078FF7CF1EB
:100E80006F0078FF7DF1E351D96EDA6A020EDE263B
:100E9000000EDD227AD7E351D96EDA6A6F007BFF4C
:100EA000F6FF6F0077FFF7FF000EF86E0800F550B1
:100EB000730AD8B417D0E351D96EDA6A6F0078FF9D
:100EC00062F06F0074FF63F0DC0E646FFF0E656FFD
:100ED000000E676F030E666F59EC98F06251631154
:100EE000D8A44ED0E351D96EDA6A6F007BFFF6FFCB
:100EF0006F0077FFF7FF000EF86E0800F550730AD9
:100F0000D8B405D0000E0101796F030E04D0000E95
:100F10000101796F010E786F0001E351D96EDA6A31
:100F200001017851DE267951DD22600093F3D9FF6B
:100F3000600097F3DAFF6F007CFFE6F0020EDE261A
:100F40006F007CFFE7F0000EDD2260009BF3D9FF0D
:100F500060009FF3DAFF6F0078FF74F16F0074FF99
:100F600075F1E1C069F0E2C06AF074C16BF075C15F
:100F70006CF0B7EC99F069C0E1F06AC0E2F01200E1
:100F8000E351D96EDA6A6F007BFFF6FF6F0077FFDF
:100F9000F7FF000EF86E0800F550750AD8A448D087
:100FA000E351D96EDA6ADE2A000EDD22600093F387
:100FB000D9FF600097F3DAFF6F007CFFE6F0020EC6
:100FC000DE266F007CFFE7F0000EDD2260009BF361
:100FD000D9FF60009FF3DAFF6F0078FFE8F06F0041
:100FE00074FFE9F0E8C06CF1E9C06DF101016E6BCE
:100FF0006F6B706B716B726B736BE1C07DF0E2C0F5
:101000007EF06CC17FF06DC180F06EC181F06FC168
:1010100082F070C183F071C184F072C185F073C138
:1010200086F0ABEC96F07DC0E1F07EC0E2F01200FD
:10103000E351D96EDA6A6F007BFFF6FF6F0077FF2E
:10104000F7FF000EF86E0800F550250AD8A415D059
:10105000E351D96EDA6ADE2A000EDD22000E616FDE
:10106000250E606FE1C062F0E2C063F069ECA0F0B1
:10107000000EE26F010EE16F1200E351D96EDA6AE1
:10108000DE2A000EDD22000EE26F000EE16F12007C
:10109000E351D96EDA6A6F007BFFF6FF6F0077FFCE
:1010A000F7FF000EF86E0800F550606F616BE1C04D
:1010B00062F0E2C063F069ECA0F0E351D96EDA6A45
:1010C000DE2A000EDD22D4D7000E0001F66F000EDE
:1010D000F76F7CECA7F0BD92BE94280E0001606F04
:1010E000550E616F010E626F5FECABF0760E606FB4
:1010F000490E616F010E626F66ECABF07A0E606FA5
:101100003A0E616F010E626F7BECABF0000E3E0198
:10111000F16F000E216E000E206E51ECA8F0000E53
:10112000216E000E206E9DECA8F0580E606F570ED9
:10113000616F010E626F74ECABF0D28ED28CFA51FB
:1011400094ECABF04DEC9FF00C0E12ECABF0F70E04
:10115000216E8CECA9F00009D8A4F9D7CBECAAF049
:10116000000E0101826F040E836FA00E846FFF0ECC
:10117000856FB10E866FFF0E876FBD0E886FFF0EF5
:10118000896FE4ECA4F0000E0001726F040E736F1F
:1011900016ECA8F0010E646F2C0E636F51ECA9F0F1
:1011A000000E0101826F040E836FC60E846FFF0E66
:1011B000856FB10E866FFF0E876FBD0E886FFF0EB5
:1011C000896FE4ECA4F0000E0001736F000E746FE1
:1011D000040E756F000E1CECA3F0000E0101826F6F
:1011E000040E836FC90E846FFF0E856FE40E866F49
:1011F000FD0E876FE4ECA4F0000E0001736F000E8B
:10120000746F040E756F010E1CECA3F0000E216EBE
:10121000000E206E85ECAAF0310AD8B42ED0000E54
:101220000001616F000E606F310E626FFFECA6F07F
:10123000000E0001616F010E606F390E626FFFECEE
:10124000A6F0000E0001616F020E606F350E626F36
:10125000FFECA6F0000E0001616F030E606F370E09
:10126000626FFFECA6F0000E0001616F100E606F60
:10127000000E626FFFECA6F007D0000E216E100E7C
:10128000206E85ECAAF0366E070E0001646FD00E5A
:10129000636F51ECA9F001016051D8B4FCD739500B
:1012A0007E0D830EF324D96E050EF420DA6E840EC3
:1012B000DE5C030EDE58D8B004D0000EAEEC9FF01A
:1012C00015D039507E0D830EF324D96E050EF4200F
:1012D000DA6E090EDE5C070EDE58D8A004D0010ECF
:1012E000AEEC9FF003D0020EAEEC9FF039507E0DB5
:1012F000850EF324D96E050EF420DA6E010EDB5054
:1013000008E1320EDE5CD8B004D0030EAEEC9FF0E4
:1013100016D039507E0D850EF324D96E050EF420BB
:10132000DA6E010EDB5004E1970EDE5CD8A004D02B
:10133000040EAEEC9FF003D0050EAEEC9FF0000E55
:101340000101606FCABC04D00B0EAEEC9FF003D05D
:10135000090EAEEC9FF0CAB804D0070EAEEC9FF0B9
:1013600003D0060EAEEC9FF001016151D8B493D7C3
:101370003650080DC20EF3240001FB6F020EF4205C
:10138000FC6F39507E0D830EF324D96E050EF420C8
:10139000DA6E6F0078FFF4F06F0074FFF5F0F4C0C0
:1013A00064F0F5C065F0666B676B000E03EC9BF0B4
:1013B00064C072F065C073F066C074F067C075F009
:1013C0006000EFF3D9FF6000F3F3DAFF6F0078FFFE
:1013D00076F06F0078FF77F06F0078FF78F06F009D
:1013E00078FF79F0F1EC8FF072C03CF173C03DF101
:1013F00074C03EF175C03FF139507E0D850EF32467
:10140000D96E050EF420DA6E6F0078FFF4F06F00ED
:1014100074FFF5F0F4C064F0F5C065F0666B676BBF
:10142000000E03EC9BF064C072F065C073F066C000
:1014300074F067C075F020EE04F0FB51D926FC5122
:10144000DA226F0078FF76F06F0078FF77F06F0098
:1014500078FF78F06F0078FF79F0F1EC8FF072C0D0
:1014600038F173C039F174C03AF175C03BF16000D6
:10147000EFF3D9FF6000F3F3DAFF6F0078FFC8F0F5
:101480006F0078FFC9F06F0078FFCAF06F0078FF37
:10149000CBF0000ECC6F1FEC93F0F20E0101826FC7
:1014A000FD0E836F36C084F1856B37C086F1876B84
:1014B00039507E0DFD0EF324D96E050EF420DA6E40
:1014C0006F0078FF88F16F0074FF89F1A3ECABF037
:1014D0000001F46FF45101018A6F8B6B39507E0D5E
:1014E000830EF324D96E050EF420DA6E6F0078FFB8
:1014F0008CF16F0074FF8DF13CC18EF13DC18FF115
:101500003EC190F13FC191F139507E0D850EF3241B
:10151000D96E050EF420DA6E6F0078FF92F16F003D
:1015200074FF93F138C194F139C195F13AC196F144
:101530003BC197F124C198F125C199F126C19AF1D7
:1015400027C19BF122C09CF123C09DF124C09EF1D4
:1015500025C09FF128C1A0F129C1A1F12AC1A2F1A2
:101560002BC1A3F179ECA9F00001F62BF605F46F7D
:10157000030EF417D8A4F4D0000E0101826F040EFC
:10158000836F010E846FFF0E856F39507E0DFD0E47
:10159000F324D96E050EF420DA6E6F0078FF86F121
:1015A0006F0074FF87F139507E0D830EF324D96EDE
:1015B000050EF420DA6E6F0078FF88F16F0074FF7B
:1015C00089F139507E0D850EF324D96E050EF42075
:1015D000DA6E6F0078FF8AF16F0074FF8BF1E4EC34
:1015E000A4F0000E0001736F000E746F040E756F8F
:1015F000010E1CECA3F0000E0101826F040E836F3C
:10160000010E846FFF0E856F39507E0DC50EF324D9
:10161000D96E050EF420DA6E6F0078FF86F16F0048
:1016200074FF87F139507E0DD30EF324D96E050E69
:10163000F420DA6E6F0078FF88F16F0074FF89F193
:1016400039507E0DD50EF324D96E050EF420DA6ED6
:101650006F0078FF8AF16F0074FF8BF1E4ECA4F067
:10166000000E0001736F000E746F040E756F020E92
:101670001CECA3F0000E0101826F040E836FE40ED8
:10168000846FFE0E856F37C086F1876B36C088F198
:10169000896B24C18AF125C18BF126C18CF127C148
:1016A0008DF122C08EF123C08FF124C090F125C0AE
:1016B00091F1E4ECA4F0000E0001736F000E746F62
:1016C000040E756F030E1CECA3F0000E0101826F77
:1016D000040E836F190E846FFF0E856F3CC186F177
:1016E0003DC187F13EC188F13FC189F138C18AF11E
:1016F00039C18BF13AC18CF13BC18DF1E4ECA4F01E
:10170000000E0001736F000E746F040E756F000EF3
:101710001CECA3F025D0382AFA510101B05DD8B0F5
:1017200005D0000E0001FA6F000E386E0001FA516C
:1017300094ECABF00001FA2B07D0BA9A24D0AFC1D9
:10174000FAF0FA5194ECABF0BD82F7D7000E376E89
:10175000000EFA6F000E94ECABF0BD92BA8A13D073
:1017600037500001F46FF56BF551000AD8A4EED79D
:10177000F451000AD8B4EAD7010AD8B4CCD7030A86
:10178000D8B4DDD7E3D7000E0001836F050E846F58
:101790000FEC99F0000E0101616FCBB009D05F2B07
:1017A000040E5F6578D5372A000E5F6FBE8473D54F
:1017B000000E5F6FBE946FD59BC0ACF09CC0ADF0C7
:1017C0009DC0AEF09EC0AFF0ACC0C4F0ADC0C5F0DF
:1017D000AEC0C6F0AFC0C7F0000EC4159F6F000EBC
:1017E000C515A06F800EC615A16F7F0EC715A26F1D
:1017F000800EA11933E17F0EA2199F11A011D8A468
:101800002DD09BC076F09CC077F09DC078F09EC034
:1018100079F09BC072F09CC073F09DC074F09EC0C4
:1018200075F0F1EC8FF072C08BF073C08CF074C067
:101830008DF075C08EF09BC08FF09CC090F09DC065
:1018400091F09EC092F099EC91F08BC09BF08CC00F
:101850009CF08DC09DF08EC09EF01200C7BF07D0D7
:10186000C751C611C51135E1C405D8B032D0FF0E3D
:10187000C4159F6FFF0EC515A06FFF0EC615A16F93
:101880007F0EC715A26F9F51A011A111A211D8A45C
:1018900009D09BC09BF09CC09CF09DC09DF09EC059
:1018A0009EF01200C7AF15D0000E01015C6F210E33
:1018B0005B6F6A0E0001606FFF0E616FD5ECA9F0DF
:1018C00060C09BF061C09CF062C09DF063C09EF060
:1018D0001200170E9F6FC4C0A0F0C5C0A1F0C6C013
:1018E000A2F0C7C0A3F09F6701D007D0A335A333F0
:1018F000A233A133A0339F2FF6D7A0C0BCF0A1C064
:10190000BDF0A2C0BEF0A3C0BFF00001BC51BD112C
:10191000BE11BF11D8A42AD0000EA86F000EA96F67
:10192000000EAA6F000EAB6F0BD0D890C437C5372E
:10193000C637C737010EA827000EA923AA23AB2359
:10194000C6AFF3D7FF0EA8259F6FFF0EA921A06F8A
:10195000FF0EAA21A16FFF0EAB21A26F9F51BC5FAA
:10196000A051BD5BA151BE5BA251BF5B810EBC27E4
:10197000FF0EBD23FF0EBE23FF0EBF23FF0EC415B7
:101980009F6FFF0EC515A06F7F0EC615A16F000ECD
:10199000C715A26F000E9F11C46F000EA011C56F76
:1019A000800EA111C66F000EA211C76FBCA108D096
:1019B000C451C427C551C523C651C623C751C72327
:1019C000BF35BF33BE33BD33BC33C451C427C5514B
:1019D000C523C651C623C751C723000EA46F000EEE
:1019E000A56F000EA66F000EA76FA4C0B0F0A5C033
:1019F000B1F0A6C0B2F0A7C0B3F0000EC06F000EE9
:101A0000C16F000EC26F010EC36F43D0A451C02539
:101A1000B46FA551C121B56FA651C221B66FA751B0
:101A2000C321B76FB451C45DB551C559B651C6593C
:101A3000C751800A9F6FB751800A9F59D8A01CD008
:101A4000B451C025A46FB551C121A56FB651C221B3
:101A5000A66FB751C321A76FB451C45FB551C55B21
:101A6000B651C65BB751C75BC051B027C151B12356
:101A7000C251B223C351B323C451C427C551C52396
:101A8000C651C623C751C723D890C333C233C1330D
:101A9000C033C051C111C211C311D8A4B7D7C451AA
:101AA000C511C611C711D8B452D0000EB86F000EC0
:101AB000B96F800EBA6F3F0EBB6FB8C08BF0B9C064
:101AC0008CF0BAC08DF0BBC08EF0000E8F6F000E90
:101AD000906F800E916F3F0E926FB1EC9DF0D8A089
:101AE00036D0000EB86F000EB96F800EBA6F3F0E81
:101AF000BB6F000E8B6F000E8C6F800E8D6F3F0ED4
:101B00008E6FB8C08FF0B9C090F0BAC091F0BBC072
:101B100092F0B1EC9DF0D8B006D0020EB027000EC6
:101B2000B123B22313D0010EB0159F6F000EB11573
:101B3000A06F000EB215A16F000EB315A26F9F51DA
:101B4000B027A051B123A151B223A251B323B0C0F9
:101B50009FF0B1C0A0F0B2C0A1F0B3C0A2F0A23516
:101B6000A233A133A0339F33000E9F25C46F000E14
:101B7000A021C56F000EA121C66F3F0EA221C76F25
:101B8000BCC09FF0BDC0A0F0BEC0A1F0BFC0A2F01D
:101B9000170ED8909F37A037A137A237E82EF9D774
:101BA0009F51C427A051C523A151C623A251C723C9
:101BB000C4C0ACF0C5C0ADF0C6C0AEF0C7C0AFF099
:101BC000ACC0B8F0ADC0B9F0AEC0BAF0AFC0BBF0B9
:101BD000B8C09BF0B9C09CF0BAC09DF0BBC09EF0ED
:101BE0001200FF00FF00FF00FF00FF00FF00FF00EA
:101BF000FF000000000000000000000000000000E6
:101C000000000000000000000000000000000000D4
:101C100000000000000000000000000000000000C4
:101C200000000000000000000000000000000000B4
:101C300000000000000000000000000000000000A4
:101FE00000007551800B7E6F75517525806F74BF31
:101FF00080818051D8B40DD08029D8A408D0000E9B
:10200000726F000E736F000E746F000E756F748F19
:1020100008D0000E726F000E736F000E746F000E0A
:10202000756F7951800B7E1B795179257F6F78BF51
:102030007F817F51D8B40DD07F29D8A408D0000E5D
:10204000766F000E776F000E786F000E796F788FC5
:1020500008D0000E766F000E776F000E786F000EBE
:10206000796F7F51D8B403D08051D8A409D0000E25
:10207000726F000E736F000E746F000E756F12009A
:10208000785172036F00CCFF89F06F00D0FF8AF0A7
:102090008951816F826B836B846B8A51856F866BEC
:1020A000876B886B775173036F00CCFF89F06F00EB
:1020B000D0FF8AF089518127000E82238323842355
:1020C0008A518527000E862387238823765174033F
:1020D0006F00CCFF89F06F00D0FF8AF08951812713
:1020E000000E8223832384238A518527000E8623B2
:1020F0008723882383C084F082C083F081C082F06C
:10210000816B765173036F00CCFF89F06F00D0FFB5
:102110008AF0895181278A518223000E8323000E81
:102120008423775172036F00CCFF89F06F00D0FFDA
:102130008AF0895181278A518223000E8323000E61
:10214000842383C084F082C083F081C082F0816BDD
:10215000765172036F00CCFF89F06F00D0FF8AF0D8
:10216000895181278A518223000E8323000E842304
:10217000785173036F00CCFF89F06F00D0FF8AF0B5
:10218000895185278A518623000E8723000E8823D4
:10219000775174036F00CCFF89F06F00D0FF8AF095
:1021A000895185278A518623000E8723000E8823B4
:1021B000785174036F00CCFF89F06F00D0FF8AF074
:1021C00089517A6F8A517B6F7C6B7D6B7CC07DF00F
:1021D0007BC07CF07AC07BF07A6B7A5185277B518B
:1021E00086237C5187237D51882384518527000EC7
:1021F00086238723882383C084F082C083F081C034
:1022000082F0816B7F5180C07AF07B6B7A27000E61
:102210007B23820E7A25896FFF0E7B218A6F0FD078
:10222000D890853786378737883784BF8581D8909F
:1022300081378237833784378907D8A08A0787AFE9
:10224000EFD7000E7F6F84AF17D0FF0E81157A6F26
:10225000FF0E82157B6FFF0E83157C6F7F0E84153A
:102260007D6F7A517B117C117D11D8B403D0010EA2
:102270007F6F02D085B1FBD77F51D8B41FD0010E3C
:102280008527000E86238723882388A117D085C041
:102290007AF086C07BF087C07CF088C07DF07D3509
:1022A0007D337C337B337A337AC085F07BC086F014
:1022B0007CC087F07DC088F0894B8A2B8ABF0DD007
:1022C0008A5103E18929D8A008D0000E856F000E3D
:1022D000866F800E876F7F0E20D08ABF05D08A510F
:1022E0000EE18905D8B00BD0000E856F000E866F09
:1022F000000E876F000E886F000E7E6F0FD089C0B2
:1023000080F0FF0E8517FF0E86177F0E8717000ED1
:10231000881780B1878FD8908031886F7E5188135D
:1023200085C072F086C073F087C074F088C075F005
:1023300012008E51800B976F8E518E25996F8DBF35
:1023400099819951D8B40DD09929D8A408D0000EFC
:102350008B6F000E8C6F000E8D6F000E8E6F8D8F49
:1023600006D0000E8B6F000E8C6F000E8D6F000E6E
:102370008E6F9251800B986F97519819D8A4978DB2
:1023800092519225986F91BF98819851D8B40DD0F1
:102390009829D8A408D0000E8F6F000E906F000E01
:1023A000916F000E926F918F06D0000E8F6F000E0E
:1023B000906F000E916F000E926F9951985DD8B09A
:1023C00022D097AD02D0800E971B99C09AF098C08A
:1023D00099F09AC098F08BC09AF08FC08BF09AC099
:1023E0008FF08CC09AF090C08CF09AC090F08DC0A5
:1023F0009AF091C08DF09AC091F08EC09AF092C080
:102400008EF09AC092F0000E9A6F995198C093F096
:10241000946B935F000E945B94BF2CD0945104E1B5
:102420001A0E935DD8A026D08B518C118D118E1170
:10243000D8B402D0010E01D0000E9A6F000E8B6F3F
:10244000000E8C6F000E8D6F000E8E6F98C099F08D
:1024500015D09AA105D0D8909A3101099A6F02D06F
:10246000D8909A338BB19A8F8E358E338D338C33CF
:102470008B33992B9851995DD8A0EBD797BD28D075
:102480009951D8A409D0000E8B6F000E8C6F000EEE
:102490008D6F000E8E6F12008F518B2790518C2301
:1024A00091518D2392518E238EA171D09AA105D086
:1024B000D8909A3101099A6F02D0D8909A338BB193
:1024C0009A8F8E358E338D338C338B33992B5FD02F
:1024D0008F518B5D90518C5991518D598E51800A3D
:1024E000936F9251800A9359D8B025D08B518F5D4C
:1024F000936F8C519059946F8D519159956F8E5166
:102500009259966FFF0E93258B6FFF0E94218C6F5F
:10251000FF0E95218D6FFF0E96218E6F800E971BFB
:102520009A6D9A51D8A40FD0010E8B27000E8C23E0
:102530008D238E2308D08F518B5F90518C5B9151EE
:102540008D5B92518E5B8B518C118D118E11D8A4A5
:102550001CD09A51D8A419D0000E8B6F000E8C6F2E
:10256000000E8D6F000E8E6F1200D8908B378C3757
:102570008D378E379ABF8B819AA102D0D88001D037
:10258000D8909A379951D8A499078DAFEED7000EFD
:10259000986F9AAF0BD09AC093F07F0E9317D8B470
:1025A00003D0010E986F02D08BB1FBD79851D8B4ED
:1025B00020D0010E8B27000E8C238D238E238EA11D
:1025C00018D08BC093F08CC094F08DC095F08EC065
:1025D00096F09635963395339433933393C08BF0BE
:1025E00094C08CF095C08DF096C08EF09929D8A437
:1025F000992B9929D8B403D09951D8A40DD0000EA5
:102600008B6F000E8C6F000E8D6F000E8E6F9951C8
:10261000D8A402D0000E976F99A102D08D8F01D05F
:102620008D9FD89099318E6F97BF8E8F8BC08BF016
:102630008CC08CF08DC08DF08EC08EF01200000E1C
:10264000D26F000ED16F000E01012C6F000E2D6FA6
:10265000000E2E6F000E2F6F2CC130F12DC131F105
:102660002EC132F12FC133F1000E0001D46F000EE4
:10267000D36F30C18BF031C18CF032C18DF033C1DA
:102680008EF0C8C076F0C9C077F0CAC078F0CBC071
:1026900079F0D3C060F0D4C061F0000E636F7E0E9D
:1026A000626F14ECA9F0CC51020D830ECD6F050EB4
:1026B000CE6FF350CD27F450CE236051CD25D96E87
:1026C0006151CE21DA6E6F0078FFCFF06F0074FF9A
:1026D000D0F0CFC064F0D0C065F0666B676B000EC1
:1026E00003EC9BF064C072F065C073F066C074F0D8
:1026F00067C075F0F1EC8FF072C08FF073C090F08E
:1027000074C091F075C092F099EC91F08BC030F1EB
:102710008CC031F18DC032F18EC033F1D14BD22B50
:10272000D34BD42BD4BFA5D7D45104E1200ED35D15
:10273000D8A09FD730C172F031C173F032C174F0AC
:1027400033C175F0D1C064F0D2C065F0000E65BF32
:10275000FF0E666F676F010E03EC9BF064C076F0AE
:1027600065C077F066C078F067C079F08BEC94F0C4
:1027700072C028F173C029F174C02AF175C02BF121
:10278000000ED46F000ED36F83D0C8C076F0C9C0DE
:1027900077F0CAC078F0CBC079F0D3C060F0D4C075
:1027A00061F0000E636F7E0E626F14ECA9F0CC51E5
:1027B000020D830ECD6F050ECE6FF350CD27F45072
:1027C000CE236051CD25D96E6151CE21DA6E6F00D6
:1027D00078FFCFF06F0074FFD0F0CFC064F0D0C0AE
:1027E00065F0666B676B000E03EC9BF064C072F0E3
:1027F00065C073F066C074F067C075F0F1EC8FF0DF
:1028000072C09BF073C09CF074C09DF075C09EF0C8
:1028100028C19FF029C1A0F02AC1A1F02BC1A2F0CC
:1028200038ECA6F09BC034F19CC035F19DC036F168
:102830009EC037F12CC18BF02DC18CF02EC18DF0D4
:102840002FC18EF034C176F035C177F036C178F003
:1028500037C179F034C172F035C173F036C174F00C
:1028600037C175F0F1EC8FF072C08FF073C090F04B
:1028700074C091F075C092F099EC91F08BC02CF17E
:102880008CC02DF18DC02EF18EC02FF1D34BD42BE7
:10289000D151D35DD451800ACD6FD251800ACD5928
:1028A000D8A073D72CC172F02DC173F02EC174F073
:1028B0002FC175F0D1C064F0D2C065F0000E65BFC5
:1028C000FF0E666F676F010E03EC9BF064C076F03D
:1028D00065C077F066C078F067C079F08BEC94F053
:1028E00072C022F073C023F074C024F075C025F0CC
:1028F00022C09BF023C09CF024C09DF025C09EF018
:10290000DCEC8BF09BC024F19CC025F19DC026F12E
:102910009EC027F112007551800B826F755175258D
:10292000896F74BF89818951D8B40DD08929D8A401
:1029300008D0000E726F000E736F000E746F000EE1
:10294000756F748F06D0000E726F000E736F000EDD
:10295000746F000E756F7951800B821B7951792548
:102960008A6F78BF8A818A51D8B40DD08A29D8A4B9
:1029700008D0000E766F000E776F000E786F000E95
:10298000796F788F06D0000E766F000E776F000E8D
:10299000786F000E796F7651771178117911D8A47C
:1029A00017D0000E726F000E736F000E746F000E62
:1029B000756F800E74137F0E75138251751372C07C
:1029C00072F073C073F074C074F075C075F01200CB
:1029D0008951D8A409D0000E726F000E736F000EDB
:1029E000746F000E756F12008A5189C07AF07B6B8C
:1029F0007A5F000E7B5B7F0E7A25836F000E7B2152
:102A0000846F72C07EF073C07FF074C080F075C0B8
:102A100081F0000E726F000E736F000E746F000E67
:102A2000756F000E856F000E866F000E876F000EAB
:102A3000886F000E8A6F28D08A51D8B411D0D890F0
:102A40007E377F3780378137D89072377337743746
:102A5000753788BF7281D890853786378737883732
:102A600076517E5D77517F597851805979518159DE
:102A7000D8A009D0888D76517E5F77517F5B7851E1
:102A8000805B7951815B8A2B190E8A65D5D77E517F
:102A90007F1180118111D8B411D085810FD0D890C9
:102AA000723773377437753788BF7281D89085371E
:102AB0008637873788378307D8A0840774AFEFD766
:102AC000000E8A6F88AF17D0FF0E85157A6FFF0E44
:102AD00086157B6FFF0E87157C6F7F0E88157D6FC7
:102AE0007A517B117C117D11D8B403D0010E8A6F0D
:102AF00002D072B1FBD78A51D8B41FD0010E722711
:102B0000000E73237423752375A117D072C07AF059
:102B100073C07BF074C07CF075C07DF07D357D3373
:102B20007C337B337A337AC072F07BC073F07CC025
:102B300074F07DC075F0834B842B84BF10D084511A
:102B400003E18329D8A00BD0000E846F8369000EA7
:102B5000726F000E736F000E746F000E756F84BF7E
:102B600005D0845111E18305D8B00ED0000E846FDA
:102B7000000E836F000E726F000E736F000E746F85
:102B8000000E756F000E826F83C089F089A102D09C
:102B9000748F01D0749FD8908931756F0ED7000E55
:102BA000826F000E816F020E7725206E000E782155
:102BB000216E33ECA5F020502110D8A402D0030ED2
:102BC0001200020E7725206E000E7821216E33EC64
:102BD000A5F0215003E1020E205CD8B07DD0020E9A
:102BE00012008251050D6F00CCFF79F06F00D0FF0D
:102BF0007AF06000DFF1D9FF6000E3F1DAFF6F00E7
:102C000078FF7BF06F0074FF7CF079517B25D96EE3
:102C10007A517C21DA6E6F0078FF62F06F0074FFEA
:102C200063F0020E7725646F000E7821656F825184
:102C3000050D6F00CCFF7DF06F00D0FF7EF06000CF
:102C4000DFF1D9FF6000E3F1DAFF6F0078FF7FF07A
:102C50006F0074FF80F07D517F25D96E7E518021F9
:102C6000DA6E6F0078FF20F06F0074FF21F033EC14
:102C7000A5F020C066F021C067F059EC98F06251D1
:102C80006311D8A428D077C075F078C076F082514F
:102C9000050D6000DFF1D9FF6000E3F1DAFF6F009E
:102CA00078FF79F06F0074FF7AF0F3507927F450D1
:102CB0007A23020E7925D96E000E7A21DA6E01D8B8
:102CC00028D00500FA6EDE50FD6EDE50FE6EDE503E
:102CD000FF6EFA501200822B8251050D6000DFF169
:102CE000D9FF6000E3F1DAFF6F0078FF79F06F0041
:102CF00074FF7AF0F3507927F4507A23020E792585
:102D0000D96E000E7A21DA6EDE50DE10DE10D8A405
:102D100068D700018251050D6000DFF1D9FF600026
:102D2000E3F1DAFF6F0078FF79F06F0074FF7AF05B
:102D3000F3507927F4507A23020E7925D96E000ECC
:102D40007A21DA6EDE50DE10DE10D8A402D0010E39
:102D5000816F815112000001F9AF2E92F9BF05D0A9
:102D6000F95108E1F805D8B005D0000E906F010EBA
:102D70008F6F04D0F8C08FF0F9C090F02CC091F0A4
:102D80002DC092F07FC093F080C094F081C095F088
:102D900082C096F083C097F084C098F085C099F007
:102DA00086C09AF0000E9C6F4F0E9B6F000E0201C2
:102DB0008F6F76D09B07D8A09C07400E9B25D96EBD
:102DC000020E9C21DA6E93C060F094C061F095C051
:102DD00062F096C063F097C064F098C065F099C047
:102DE00066F09AC067F00A0E686F000E696F000EF9
:102DF0006A6F000E6B6F000E6C6F000E6D6F000E31
:102E00006E6F000E6F6FC4ECA0F060C087F061C001
:102E100088F062C089F063C08AF064C08BF065C03E
:102E20008CF066C08DF067C08EF08751300FDF6E7A
:102E30008F07D8A090079107D8A0920793C060F0A1
:102E400094C061F095C062F096C063F097C064F0E2
:102E500098C065F099C066F09AC067F00A0E686F76
:102E6000000E696F000E6A6F000E6B6F000E6C6FC4
:102E7000000E6D6F000E6E6F000E6F6F19EC9EF0FE
:102E800060C093F061C094F062C095F063C096F0AA
:102E900064C097F065C098F066C099F067C09AF07A
:102EA00000019B519C11D8B41AD0935194119511E3
:102EB00096119711981199119A11D8A47BD790BFA8
:102EC00005D0905102E18F05D8B074D792BF07D0DA
:102ED000925103E19105D8A002D02EB26BD77DC0EC
:102EE00072F07EC073F0400E9B25746F020E9C2121
:102EF000756F91C076F092C077F06CECA1F072C063
:102F00007DF073C07EF0120018C19BF019C19CF0D7
:102F10001AC19DF01BC19EF08BC09BF08CC09CF031
:102F20008DC09DF08EC09EF0810E8F6FFF0E906F52
:102F30009BC091F09CC092F09DC093F09EC094F015
:102F4000180E05D0D8909433933392339133E82EF2
:102F5000F9D791518F25996F000E90219A6F9ABFE2
:102F60000FD09A5104E1170E995DD8A009D08BC0FB
:102F70008BF08CC08CF08DC08DF08EC08EF0120066
:102F80009ABF5CD099C08FF0FF0E906FFF0E916FCB
:102F90007F0E926F000E936F8F6701D007D093352D
:102FA00093339233913390338F2FF6D790C095F0AF
:102FB00091C096F092C097F093C098F0000195519F
:102FC0009B158F6F96519C15906F97519D15916F22
:102FD00098519E15926F8F51901191119211D8B402
:102FE000C6D79BC08FF09CC090F09DC091F09EC052
:102FF00092F0200E05D0D8909233913390338F33D6
:10300000E82EF9D78F51D8B408D095519B27965107
:103010009C2397519D2398519E23951D8F6F961D3C
:10302000906F971D916F981D926F8F519B179051C4
:103030009C1791519D1792519E1732D09BC08FF0D3
:103040009CC090F09DC091F09EC092F0200E05D0E3
:10305000D8909233913390338F33E82EF9D78F671E
:1030600008D0000E9B6F000E9C6F000E9D6F000E2F
:1030700016D0D8909B358F6F9C35906F9D35916F92
:103080009E35926F8F51901191119211D8B408D042
:10309000000E9B6F000E9C6F800E9D6FBF0E9E6F8B
:1030A0009BC08BF09CC08CF09DC08DF09EC08EF0BC
:1030B000120062C06AF063C06BF064C06CF065C05F
:1030C0006DF06607D8A06707662910E16729D8A4C4
:1030D0000DD0000E636F000E626F120000016A4B8C
:1030E0006B2B6C4B6D2B6607D8A067076000ABF1AC
:1030F000F6FF6000AFF1F7FF000EF86E1F0EF764E9
:1031000003D00800F55007D06F00DBFFE1FF6F0030
:10311000DFFFE2FFE7500009D8B44CD06000B3F104
:10312000F6FF6000B7F1F7FF000EF86E1F0EF764B0
:1031300003D00800F55007D06F00DBFFE1FF6F0000
:10314000DFFFE2FFE7500009D8B434D00001665138
:103150006711D8B42FD06000B3F1F6FF6000B7F16B
:10316000F7FF000EF86E1F0EF76403D00800F5504D
:1031700007D06F00DBFFE1FF6F00DFFFE2FFE750EA
:103180000001686F6000ABF1F6FF6000AFF1F7FF80
:10319000000EF86E1F0EF76403D00800F55007D03C
:1031A0006F00DBFFE1FF6F00DFFFE2FFE750681910
:1031B000D8B494D76000ABF1F6FF6000AFF1F7FF31
:1031C000000EF86E1F0EF76403D00800F55007D00C
:1031D0006F00DBFFE1FF6F00DFFFE2FFE750000160
:1031E000686F6000B3F1F6FF6000B7F1F7FF000E03
:1031F000F86E1F0EF76403D00800F55007D06F007B
:10320000DBFFE1FF6F00DFFFE2FFE7500001696FC6
:103210006951685D626F636BD8A063071200000E8E
:103220008A6F8A0E216E8CECA9F00009D8B41200C6
:1032300088D020EE82F08351D9268451DA227E0E86
:10324000DF640CD020EE82F08351D9268451DA223B
:10325000DF50856F8551886F896B0ED020EE82F02C
:103260008351D9268451DA22DF50856F010E8525DE
:10327000886F896B000E892388518325856F89515A
:103280008421866F020E8525D96E000E8621DA6EA6
:10329000000EDF6E680E756FFF0E766F020E776F91
:1032A00020ECABF083C077F084C078F0CFEC95F0E1
:1032B000346E20EE82F08351D9268451DA22000E3A
:1032C000DF6E020E8325606F000E8421616F000E99
:1032D000636F000E626F000E656F800E646F5DECB1
:1032E0009AF0120020EE82F08351D9268451DA221E
:1032F0007F0EDF60120020EE82F08351D9268451C8
:10330000DA22DF50856F85518325866F000E842178
:10331000876F020E8625D96E000E8721DA6E600057
:103320002BF2DFFF20EE82F08351D9268451DA227E
:10333000DF2A8A0E756F766B010E776F20ECABF08B
:10334000120000018A51856F866B8651000AD8A44D
:10335000C9D785510D0AD8B46CD7160AD8B4120053
:10336000650AD8B41200010AD8B41200BBD720EE07
:10337000A4F110EE6EF0060E6F006FFFE3FFE8069B
:10338000FBE26BC079F06CC07AF0000179517A11E0
:10339000D8A403D06E0E796F7A6B79C020F07AC012
:1033A00021F033ECA5F020C07DF021C07EF0F8C004
:1033B0007BF0F9C07CF07CBF0ED07D517B5D7C51F1
:1033C000800A6D6F7E51800A6D59D8B004D07BC0E1
:1033D0007DF07CC07EF07DC07BF07EC07CF02CC098
:1033E00077F02DC078F02EA00DD016D0000E616FB2
:1033F000200E606F69C062F06AC063F069ECA0F0F3
:103400007D4B7E2B77517D5D7E51800A6D6F7851AB
:10341000800A6D59D8A0EAD7000E766F000E756F3E
:1034200024D06000E7F1F6FF6000EBF1F7FF000E3B
:10343000F86E1F0EF76403D00800F55007D06F0038
:10344000DBFFE1FF6F00DFFFE2FFE75000016D6F80
:103450006D51606F616B69C062F06AC063F069ECC6
:10346000A0F0794B7A2B754B762B7B51755D76519D
:10347000800A6D6F7C51800A6D59D8A0D2D72EB0CA
:103480000DD016D0000E616F200E606F69C062F023
:103490006AC063F069ECA0F07D4B7E2B77517D5DB7
:1034A0007E51800A6D6F7851800A6D59D8A0EAD795
:1034B0007DC069F07EC06AF0120060C068F061C033
:1034C00069F064516511D8B412006000A3F1D9FF0E
:1034D0006000A7F1DAFF60008BF1DFFF645168251F
:1034E000206E65516921216EFF0E2024D96EFF0EDA
:1034F0002120DA6E60008BF1DFFF655104E1030EDD
:10350000645DD8A0120020EE01F06851D9266951FF
:10351000DA2260008BF1DFFF20EE02F06851D9263D
:103520006951DA2260008BF1DFFF64516825206E5B
:1035300065516921216EFE0E2024D96EFF0E2120D7
:10354000DA6E60008BF1DFFF64516825206E6551F3
:103550006921216EFD0E2024D96EFF0E2120DA6E26
:1035600060008BF1DFFF655104E1070E645DD8A0B8
:10357000120020EE03F06851D9266951DA2260006A
:103580008BF1DFFF64516825206E65516921216E42
:10359000FC0E2024D96EFF0E2120DA6E60008BF124
:1035A000DFFF655104E1090E645DD8A0120068C018
:1035B00020F069C021F0201E211E204A212A030E7E
:1035C0002014666F676B66516827675169236651DF
:1035D000645F6751655BFC0E6417FF0E65170ED0C4
:1035E0006000A3F1D9FF6000A7F1DAFF60008BF162
:1035F000DFFF6407D8A06507684B692B645165112C
:10360000D8B41200EDD76C6F00016C51D8A467AF2D
:103610001AD064C068F065C069F066C06AF067C01F
:103620006BF0681F691F6A1F6B1F682B000E6923F0
:103630006A236B2368C06EF069C06FF06AC070F0D7
:103640006BC071F008D064C06EF065C06FF066C0EA
:1036500070F067C071F06451651166116711D8A4EC
:1036600009D0000E646F000E656F000E666F000ECD
:10367000676F1200960E6D6F06D06D2BD890713368
:1036800070336F336E33000E6E15686F000E6F155A
:10369000696F000E70156A6FFE0E71156B6F6851C1
:1036A00069116A116B11D8B40DD0E7D76D2B010EDB
:1036B0006E27000E6F2370237123D89071337033FF
:1036C0006F336E33000E6E15686F000E6F15696FE5
:1036D000000E70156A6FFF0E71156B6F68516911DE
:1036E0006A116B11D8B407D0E1D76D07D8906E3747
:1036F0006F377037713770BF03D0020E6D61F5D729
:103700006DA1709FD8906D336DC068F0696B6A6B66
:103710006B6B68C06BF06A6B696B686B68516E139A
:1037200069516F136A5170136B5171136C51D8A4A6
:1037300067AF01D0718F6EC064F06FC065F070C06C
:1037400066F071C067F01200000E6E6F000E6D6FB4
:10375000000E6C6F000E6B6F02D0654B662B600025
:1037600097F1F6FF60009BF1F7FF000EF86E08007E
:10377000F550200AD8B4F1D7F70E676FFF0E686FC7
:10378000600097F1F6FF60009BF1F7FF000EF86E06
:103790000800F550696F6A6B6751692768516A23A1
:1037A0006A510CE1050E695DD8B008D0D6D7000E7D
:1037B0006C6F010E6B6F654B662B36D0600097F116
:1037C000F6FF60009BF1F7FF000EF86E0800F55061
:1037D000676F686B6851000AD8A426D067512B0A1E
:1037E000D8B4E9D7060AD8B4E2D71ED06DC060F0CD
:1037F0006EC061F0000E636F0A0E626F14ECA9F0E8
:10380000600097F1F6FF60009BF1F7FF000EF86E85
:103810000800F550605F000E615B300E60256D6F33
:10382000000E61216E6FC7D7D00E676FFF0E686FF5
:10383000600097F1F6FF60009BF1F7FF000EF86E55
:103840000800F550696F6A6B6751692768516A23F0
:103850006A5104E10A0E695DD8A0C8D76B516C119A
:10386000D8A40DD06DC067F06EC068F0671F681FE8
:10387000674B682B67C065F068C066F012006DC0CA
:1038800065F06EC066F01200E20EF66E1B0EF76E6B
:10389000010EF86E05EE43F111EE00F009006F0025
:1038A000D7FFEEFFE550E150F9E1E250F7E1200EDD
:1038B000F66E480EF76E010EF86E00EE90F210EE06
:1038C0005AF009006F00D7FFEEFFE550E150F9E133
:1038D000040EF66E570EF76E010EF86E00EEA4F1B0
:1038E00010EE0DF009006F00D7FFEEFFE550E1503C
:1038F000F9E15C0EF66E570EF76E010EF86E0900D8
:103900006F00D4FFFBF009006F00D4FFFCF001EE64
:1039100083F113EEC0F3EE6AE550E150FCE1E250B2
:10392000FAE101EE00F1830EEE6AE806FDE101EE38
:1039300000F010EEFFF0EE6AE550E150FCE1E250DD
:10394000FAE100EE00F3C30EEE6AE806FDE100EED8
:1039500000F2900EEE6AE806FDE100EE00F16C0E5A
:10396000EE6AE806FDE10001FA6BF96BF86B00EE18
:1039700022F01F0EEE6AE806FDE1080ED56E000E7D
:10398000D66E000ED76E000164EF88F03901939770
:10399000360E0001606F420E616F010E626F3CECEB
:1039A000ABF039019399FA0E0001606F510E616F0F
:1039B000010E626F35ECABF03901939B320E0001C2
:1039C000606F570E616F010E626F4AECABF0390108
:1039D000939D520E0001606F570E616F010E626F72
:1039E0002EECABF0000E3D01EC6F000EED6F000E03
:1039F000EE6F000EEF6F000EF06F000EF16FB00E65
:103A0000F26F900EF36F000EF46F8A0EF56F000EDA
:103A1000F66F000EF76F000EF86F000EF96F000ED4
:103A2000FA6F600E0001606F570E616F010E626FDA
:103A300051ECABF05E0E606F570E616F010E626F5E
:103A400043ECABF04C0E606F570E616F010E626F6E
:103A500058ECABF0000E3A6E000E406E000E3F6E5A
:103A6000400E3E6E000E3D6E000E3C6E000E3B6E34
:103A700039019387938B938D120007ECABF035508F
:103A8000020D6F00CCFF05F06F00D0FF06F039503B
:103A90007E0D830E076E050E086EF3500726F45058
:103AA000082205500724D96E06500820DA6E6000FF
:103AB00007F0DEFF60000BF0DDFF07ECABF03550E8
:103AC000020D6F00CCFF05F06F00D0FF06F03850FC
:103AD0007E0D830E076E050E086EF3500726F45018
:103AE000082205500724D96E06500820DA6E6000BF
:103AF00007F0DEFF60000BF0DDFF14D0010E05D0F3
:103B00003D0E03D0280E01D0290E356E23D0000EB5
:103B1000356E3704D8A4382A1F0E38641BD0000E27
:103B2000386E18D03550056E066A0650000AD8A4C3
:103B3000EED70550000AD8B4E1D7010AD8B4E0D7CF
:103B4000290AD8B4E1D7010AD8B4E1D7140AD8B405
:103B5000D9D7DDD76000D7F0F1FE010E0101606F0B
:103B60001200000E8B15936F000E8C15946F800E53
:103B70008D15956F7F0E8E15966F9351941195113B
:103B80009611D8A408D0000E8B6F000E8C6F000E1B
:103B90008D6F000E8E6F000E8F15936F000E9015B7
:103BA000946F800E9115956F7F0E9215966F9351BD
:103BB000941195119611D8A408D0000E8F6F000EA5
:103BC000906F000E916F000E926F8EAF09D08B6DCB
:103BD0008C1FD8B08C2B8D1FD8B08D2B800E8E579C
:103BE00092AF09D08F6D901FD8B0902B911FD8B095
:103BF000912B800E9257000E8B1B000E8C1B000E1B
:103C00008D1B800E8E1B000E8F1B000E901B000E56
:103C1000911B800E921B8F518B5D90518C5991514D
:103C20008D5992518E59D8B002D0D8901200D880B8
:103C3000120020EE70F0070EDE6AE806FDE2685121
:103C400069116A116B116C116D116E116F11D8B47D
:103C500046D0010E786F0AD0D890683769376A3736
:103C60006B376C376D376E376F37782B6FAFF4D794
:103C7000D890703771377237733774377537763736
:103C800077376851605D695161596A5162596B516A
:103C900063596C5164596D5165596E5166596F5134
:103CA0006759D8A011D06851605F6951615B6A5152
:103CB000625B6B51635B6C51645B6D51655B6E5114
:103CC000665B6F51675B7081D8906F336E336D3375
:103CD0006C336B336A3369336833782FC9D770C05C
:103CE00060F071C061F072C062F073C063F074C0C4
:103CF00064F075C065F076C066F077C067F01200BA
:103D0000000EBE6E110EBD6E200EBA6E000EBF6E9E
:103D1000000EBB6E070EBC6E020EC66E0B0EC76E9B
:103D2000DF0EC26EC368900EC46E080EC56E080E1C
:103D30003A01706F000E606FFE0E506F020E806FC2
:103D40000B0E906F8F0E406F000E716F000E916F13
:103D5000000E816F010E516F500E416F000E616FAA
:103D6000000E5A6F000E5B6F000E6A6F000E6B6FD5
:103D7000000E7A6F000E7B6F000E826F000E926F46
:103D8000000E426F000E526F000E626F000E726FD7
:103D90004369536963697369070E836F9369446963
:103DA0005469646974690F0E846F94690E0E1A6FFA
:103DB000130EDE6F1E0E136F1F0E156F130E166F90
:103DC000170EE56F0D0E2A6F140EDF6F12001CC167
:103DD0006AF01DC16BF01EC16CF01FC16DF060C0B8
:103DE0006AF061C06BF062C06CF063C06DF06AC0D5
:103DF00064F06BC065F06CC066F06DC067F0180EC3
:103E000005D0D8906733663365336433E82EF9D72D
:103E10006451686F696B68516911D8A419D0D89042
:103E20006A35646F6B35656F6C35666F6D35676FBE
:103E30006451651166116711D8A405D0000E616F39
:103E4000020E606F1200000E616F030E606F1200B1
:103E500068296911D8A41CD06AC064F06BC065F0F1
:103E60006CC066F06DC067F0090ED8906437653796
:103E700066376737E82EF9D7645165116611671107
:103E8000D8A402D0010E01D0000E606F616B120049
:103E9000000E616F040E606F1200800E0101066F4C
:103EA000030E076F06C16AF007C16BF02AECAAF097
:103EB0003D01149F200E156F030E166F040E196F2F
:103EC000020E1C6F830E146F148F300E0001606F92
:103ED000570E616F050E626F000E636FCBECA5F09D
:103EE000460E1FECA7F0410E3EECA7F0500E606F9F
:103EF000000E616F000E626F000E636FCBECA5F0D9
:103F0000530E3EECA7F0020EE6ECA9F0500E606FE7
:103F1000000E616F000E626F000E636FCBECA5F0B8
:103F2000510E1FECA7F03D01149F020E166F148F67
:103F30001A933F0E3B01FD17FD9BFD51F90B020942
:103F4000FD6FE70EFD17FD81800EF96F030EFA6F0E
:103F5000000EFB6FFC9B3D011A8312000001606F95
:103F60002DD0BD98BD9A1200BD98BD8A1200BD88A3
:103F7000BD9A1200BD9CBD9E1200BD9CBD8E12005C
:103F8000BD8CBD9E1200BF98BF9A1200BF98BF8A19
:103F90001200BF88BF9A1200BF9CBF9E1200BF9C38
:103FA000BF8E1200BF8CBF9E1200BD98BD9ABD9CF3
:103FB000BD9EBF98BF9ABF9CBF9E1200000160517A
:103FC000206E216A2150000AD8A4EFD72050000AA1
:103FD000D8B4C7D7010AD8B4CAD7030AD8B4C4D74B
:103FE000010AD8B4C7D7070AD8B4CAD7010AD8B4C7
:103FF000C4D7030AD8B4C7D7010AD8B4CAD70F0A9E
:10400000D8B4C4D7010AD8B4C7D7030AD8B4CAD71A
:10401000010AD8B4C4D7C9D762356335216E21509F
:10402000D8A409D0000E606F000E616F000E626FA1
:10403000000E636F120060C064F061C065F062C082
:1040400066F063C067F0200E05D0D8906733663302
:1040500065336433E82EF9D76451206E628FFF0E0A
:104060006017FF0E6117FF0E6217000E6317960EA2
:10407000215E21AE0DD02150800A970FD8A0D2D753
:10408000D8906333623361336033213EF9D70DD06A
:104090001F0E216407D0C6D7D890603761376237CA
:1040A000633721062150D8A4F7D72050D8B408D0C0
:1040B000631F621F611F606D000E61236223632313
:1040C00060C060F061C061F062C062F063C063F024
:1040D000120062516311D8B404D062516311D8A4A4
:1040E00004D060518FECABF04AD020EE09F0625161
:1040F000D9266351DA22DE50DE10D8B416D020EE75
:1041000009F06251D9266351DA2210EE03F06251B0
:10411000E1266351E222DE50E65CE650800A686FD9
:10412000DE50800A6859D8B02AD020EE03F06251E0
:10413000D9266351DA226F0078FF64F06F0074FFB4
:1041400065F060008BF1D9FF60008FF1DAFF6F003E
:1041500078FF66F06F0074FF67F064516625D96ED2
:1041600065516721DA6E600083F1DFFF20EE03F016
:104170006251D9266351DA22DE2A000EDD2260C0A8
:1041800060F00001616B1200685169116A116B11D6
:104190006C116D116E116F11D8B43CD0010E206EF0
:1041A0000AD0D890683769376A376B376C376D3704
:1041B0006E376F37202A6FAFF4D76851605D695151
:1041C00061596A5162596B5163596C5164596D510F
:1041D00065596E5166596F516759D8A010D0685112
:1041E000605F6951615B6A51625B6B51635B6C51EB
:1041F000645B6D51655B6E51665B6F51675BD89018
:104200006F336E336D336C336B336A3369336833BA
:10421000202ED3D760C060F061C061F062C062F050
:1042200063C063F064C064F065C065F066C066F0AA
:1042300067C067F01200000E3D24D96EDA6A020EE4
:10424000DA22000EDF6E3D01F9A715D0000E3D24E5
:10425000D96EDA6A020EDA220201DF8201D80BD0AF
:104260000500FA6E01014651FD6E4751FE6E485140
:10427000FF6EFA5012003D01F9A315D0000E3D2447
:10428000D96EDA6A020EDA220201DF8401D80BD07D
:104290000500FA6E01014351FD6E4451FE6E455119
:1042A000FF6EFA501200000E3D24D96EDA6A020E3B
:1042B000DA22DF50D8B40DD001D812000500FA6E12
:1042C00001014051FD6E4151FE6E4251FF6EFA50A8
:1042D000120019ECAAF012002EA00AD074C069F0E6
:1042E00075C06AF072C06BF073C06CF0E7ECA2F0BE
:1042F00077BF05D076C07BF077C07CF004D0000E8D
:104300007C6F000E7B6F000E7A6F000E796F0CD001
:10431000000E616F200E606F72C062F073C063F0B8
:1043200069ECA0F0794B7A2B7B51795D7A51800A48
:10433000786F7C51800A7859D8A0EAD72EB00AD07D
:1043400074C069F075C06AF072C06BF073C06CF035
:10435000E7ECA2F074C020F075C021F033ECA5F0BA
:104360007B512024726F7C512120736F1200000E4C
:104370006015686F000E6115696F800E62156A6FB7
:104380007F0E63156B6F685169116A116B11D8A4A8
:1043900008D0000E606F000E616F000E626F000E9D
:1043A000636F000E6415686F000E6515696F800EEF
:1043B00066156A6F7F0E67156B6F685169116A1118
:1043C0006B11D8A408D0000E646F000E656F000E4C
:1043D000666F000E676F645160190AE165516119DB
:1043E00007E16651621904E167516319D8B402D03C
:1043F000D8901200D8801200000E656F63AF06D00F
:10440000626D631FD8B0632B010E656F61AF06D07C
:10441000606D611FD8B0612B010E651B000E676FC8
:10442000000E666F62516311D8B41CD0010E646F28
:1044300004D0D89062376337642B63AFFAD7D89033
:10444000663767376251605D63516159D8A005D006
:104450006251605F6351615B6681D8906333623300
:10446000642FEDD76551D8B404D0666D671FD8B0FE
:10447000672B66C060F067C061F01200000E3E015D
:10448000DE6F000EDF6F000EE06F000EE16F000EBA
:10449000E46F000EE56F000EEA6F000EEC6F000E89
:1044A000F16F100EF36F000EF46F000EF56F000E3B
:1044B000F66F000EF76F000EF96F000EFA6F200E08
:1044C000FB6F000EFC6F020EFD6F070EFE6F1F0EDE
:1044D000FF6F840EF86F3901A1959185620E00017E
:1044E000606F570E616F010E626F7BECABF01200D4
:1044F000000E216E61AF06D0606D611FD8B0612BD8
:10450000010E216E63AF04D0626D631FD8B0632BC0
:1045100062516311D8B418D0010E206E04D0D89027
:1045200062376337202A63AFFAD76251605D635107
:104530006159D8A004D06251605F6351615BD8902B
:1045400063336233202EF1D72150D8B404D0606D8C
:10455000611FD8B0612B60C060F061C061F01200D3
:1045600070C020F071C021F033ECA5F02050726FC4
:104570009DECABF006C16AF007C16BF0000E0001C4
:104580006C6F91ECA4F0BC94400E72650AD020EEE2
:1045900040F07051D9267151DA22000EDF6E400EC4
:1045A000726F3B01FC9F6000CBF1F7FBF86BFC8F57
:1045B00006C16BF007C16CF070C06DF071C06EF099
:1045C00072C06FF03DECA4F0A0ECABF01200000E56
:1045D000716F000E706F0BD06FC060F0616B6BC0BD
:1045E00062F06CC063F069ECA0F0704B712B7051FD
:1045F00069256D6F71516A216E6F6000B7F1F6FF2A
:104600006000BBF1F7FF000EF86E1F0EF76403D0D9
:104610000800F55007D06F00DBFFE1FF6F00DFFF00
:10462000E2FFE75000016F6F6F51D8A4D5D770C07B
:1046300069F071C06AF01200786F09D0400E05D0A1
:10464000140E03D0540E01D0000E796F16D0000165
:104650007851766F776B7751000AD8A4F5D77651E9
:10466000000AD8B4F1D7010AD8B4E8D7030AD8B4FD
:10467000E7D7010AD8B4E6D7E7D7450E3AECAAF057
:10468000000179517325DFECA6F019ECABF074C092
:1046900070F075C071F0B0ECA2F0120062C064F06E
:1046A00063C065F060C066F061C067F000016451EE
:1046B000206E6551216E644B652B600083F0F6FF20
:1046C000600087F0F7FF000EF86E60009BF1D9FFE5
:1046D00060009FF1DAFF664B672B1F0EF76403D073
:1046E0000800F55007D06F00DBFFE1FF6F00DFFF30
:1046F000E2FFE750DF6EDF50D8B41200D7D70001D9
:10470000666F000E0001686F000E676F67C060F093
:1047100068C061F0000E636F7E0E626F14ECA9F04A
:104720006651020D830E646F050E656FF3506427AA
:10473000F450652360516425D96E61516521DA6EAC
:10474000000EDE6E000EDD6E674B682B68BFDED795
:10475000685105E1200E675DD8B01200D7D712006E
:10476000ECC0F0F0EDC0F1F0000E01015E6F000E44
:104770005D6F14D0EAC0E1F0EBC0E2F0F00E000192
:10478000E36FEEC0E4F0EFC0E5F0DCEC84F0E15163
:1047900001015D270001E25101015E236000C3F3C6
:1047A000F6FF6000C7F3F7FF000EF86E0800F55043
:1047B0000009D8A4DFD75DC1EAF05EC1EBF01200BA
:1047C000620E3B01F96F010EFA6F000EFB6F3D0E9A
:1047D000F16F110EF06F030EFD6F000EF86F010EFA
:1047E000F76F000EEF6F010EEE6F150EFF6F000EEC
:1047F000FE6F3901A293A291A297A2959293928102
:104800006C0E0001606F570E616F010E626F74ECE9
:10481000ABF0390192979295C00E3B01FC6F1200EC
:10482000F5FF3E5301F8FFEE5301EFFFC65501F2CD
:10483000FFAE5501FBFFCE5401E9FFB05401ECFF80
:10484000925401E3FF7A5201E6FF52520100000048
:1048500000009775CF3E6F12833B295C4F3F6F126C
:10486000833B9775CF3E6F12833B9775CF3E6F1298
:10487000833B9775CF3E6F12833B000120EE42F0E1
:104880006B51D9266C51DA22400EDF6012006BC0EA
:1048900060F06CC061F06DC062F06EC063F06FC01C
:1048A00064F0656B0CECA5F020EE40F06B51D9265E
:1048B0006C51DA226000BFF1DFFF20EE42F06B5155
:1048C000D9266C51DA226000BFF1DFFF120000012F
:1048D00020EE42F06051D9266151DA22400EDF60AD
:1048E000120020EE40F06051D9266151DA22DF50EB
:1048F000206E20506025D96E000E6121DA6E6000B6
:104900008BF1DFFF20EE40F06051D9266151DA22B1
:10491000DF2A20EE42F06051D9266151DA22DF2AE7
:10492000120020EE42F06A51D9266B51DA22000EB5
:10493000DF6E20EE40F06A51D9266B51DA22000E6C
:10494000DF6E20EE41F06A51D9266B51DA22000E5B
:10495000DF6E6C51D8B412006AC060F06BC061F0B9
:10496000000E636F000E626F000E656F400E646F85
:104970005DEC9AF01200000E116E000E106ED890D1
:104980001034D96E1134DA6E0C0ED926010EDA22EB
:10499000DE50DE10D8B40CD0D8901034D96E11345B
:1049A000DA6E0C0ED926010EDA22DE06000EDD5A72
:1049B000104A112A11BEE3D7115005E1060E105C12
:1049C000D8B01200DCD71200860E926F010E936FE2
:1049D00082C194F183C195F1000E986F000E976F1C
:1049E000000E9E6F000E9D6F940E0001EA6F010E87
:1049F000EB6F84C1ECF085C1EDF0920EEE6F010E0D
:104A0000EF6FB0ECA3F097518225D96E98518321B6
:104A1000DA6E000EDF6E120062C069F063C06AF0E9
:104A200060C067F061C068F015D06000A7F1D9FFE1
:104A30006000ABF1DAFFDF50666F694B6A2B6000F4
:104A40009FF1D9FF6000A3F1DAFF60009BF1DFFF67
:104A5000674B682B6407D8A065076429E6E16529E0
:104A6000D8B41200E2D720C060F021C061F002D0BB
:104A7000204A212A600083F0F6FF600087F0F7FFEC
:104A8000000EF86E1F0EF76403D00800F55007D033
:104A90006F00DBFFE1FF6F00DFFFE2FFE75000097F
:104AA000D8A4E6D700016051205C206E61512158E6
:104AB000216E12006F00E8FF12F06F00ECFF13F0A0
:104AC0003901A89D30C00EF031C00FF0C3ECA9F041
:104AD00001014C514D114E11D8B40CD001D80AD05F
:104AE0000500FA6E4C51FD6E4D51FE6E4E51FF6E3B
:104AF000FA50120060004FF0FBFF60004BF0FAFF2D
:104B00001100000E9B6E000E9C6E020E9D6E830EB9
:104B1000996E000E986E3901A89D98506F0064FE42
:104B200020F0216A20C021F0206A2010306E215030
:104B3000316E988D6A0E0001606F570E616F010E25
:104B4000626F66ECABF0010E9A6E1200D28A000E14
:104B5000D2BE010E206ED29E550ED46EAA0ED46E19
:104B6000D490000ED76E000ED66E080ED56E550E80
:104B7000D46EAA0ED46ED48020B002D0D29E01D0C2
:104B8000D28E39018281838D8399838B839789812A
:104B9000888D81851200000E0101206F000E216FAB
:104BA000000E226F000E236F00F00400010E0101C1
:104BB0002027000E21232223232320510001605DA2
:104BC0000101215100016159010122510001625985
:0E4BD0000101235100016359D8A01200E5D75E
:104BE0006F0060FF1AF06F00E8FF1BF06F00ECFF32
:104BF0001CF0265027102810D8B40CD001D80AD0A9
:104C00000500FA6E2650FD6E2750FE6E2850FF6E8E
:104C1000FA501200600073F0FBFF60006FF0FAFFC3
:104C200060006BF0D8FF11006F0060FF1DF06F0097
:104C3000E8FF1EF06F00ECFF1FF029502A102B1028
:104C4000D8B40CD001D80AD00500FA6E2950FD6EF8
:104C50002A50FE6E2B50FF6EFA50120060007FF05B
:104C6000FBFF60007BF0FAFF600077F0D8FF1100D7
:104C7000000E9F1B000EA01B000EA11B800EA21B8E
:104C80009BC08BF09CC08CF09DC08DF09EC08EF0C0
:104C90009FC08FF0A0C090F0A1C091F0A2C092F090
:104CA00099EC91F08BC09BF08CC09CF08DC09DF076
:104CB0008EC09EF0120075C060F076C061F0000EEC
:104CC000636F000E626F000E656F830E646F5DECA4
:104CD0009AF06000D7F1D9FF6000DBF1DAFF6000E5
:104CE000DFF1DEFF6000E3F1DDFFC80E726FFD0E45
:104CF000736F16ECA8F012006F00E8FF09F06F0068
:104D0000ECFF0AF03901A1950101525153115411E0
:104D1000D8B40CD001D80AD00500FA6E5251FD6EFD
:104D20005351FE6E5451FF6EFA50120060002BF08A
:0A4D3000FBFF600027F0FAFF1100FE
:104D3C006F00E8FF14F06F00ECFF15F03901A29141
:104D4C00010149514A114B11D8B40CD001D80AD0E9
:104D5C000500FA6E4951FD6E4A51FE6E4B51FF6EC5
:104D6C00FA501200600057F0FBFF600053F0FAFF9E
:104D7C001100010E0001646F200E20182110D8B410
:104D8C0014D0F70E606FFF0E616F20C062F021C06F
:104D9C0063F06051622761516323635104E1050E96
:104DAC00625DD8A002D0000E646F64C020F0216A4E
:104DBC00120000016D6F9DECABF006C16AF007C1EB
:104DCC006BF0000E00016C6F91ECA4F0BC943B01F5
:104DDC00FC9F000EF86F010EF76FFC8F06C160F0A0
:104DEC0007C161F06DC062F067ECA4F0A0ECABF011
:104DFC001200000ED2BE010E206E6151030B390160
:104E0C00E16F600083F1E0F960008BF1E3F93F0E94
:104E1C00E517E585D29E550EE66FAA0EE66FE58383
:104E2C00E5B3FED7E59520B002D0D29E01D0D28E4C
:104E3C001200216EBC94FE0EB1ECAAF0080E00011B
:104E4C00606F000E616F000E626F000E636FCBEC33
:104E5C00A5F02150B1ECAAF0200E0001606F030EFA
:104E6C00616F000E626F000E636FCBECA5F0120049
:104E7C00216EBC94FE0EB1ECAAF0080E0001606F1E
:104E8C00000E616F000E626F000E636FCBECA5F02D
:104E9C002150B1ECAAF0080E0001606F000E616F9A
:104EAC00000E626F000E636FCBECA5F012003B504E
:104EBC00D8B4FDD7000E3C24D96EDA6A020EDA2281
:104ECC00DF503A6E000E3C24D96EDA6A030EDA22F9
:104EDC00DF50206E3C2A3F0E3C6402D0000E3C6E2C
:104EEC00390193973B06938720501200A6ECA5F04E
:104EFC0008ECAAF080EC9EF0A3ECAAF03EECA2F039
:104F0C00E0ECA3F076ECAAF0EFECAAF0CEECA8F073
:104F1C0089ECABF081ECA5F0FBECAAF0C6EC9CF0B4
:0A4F2C00BEECAAF06DECABF0120031
:104F38006F00E8FF16F06F00ECFF17F00101585101
:104F480059115A11D8B40CD001D80AD00500FA6EFC
:104F58005851FD6E5951FE6E5A51FF6EFA501200AB
:0E4F680060005FF0FBFF60005BF0FAFF1100DD
:104F78006F00E8FF18F06F00ECFF19F001015551C0
:104F880056115711D8B40CD001D80AD00500FA6EC2
:104F98005551FD6E5651FE6E5751FF6EFA50120074
:104FA800600067F0FBFF600063F0FAFF1100206EFD
:104FB8003E50D8B4FDD7390193B904D0600083F0CE
:104FC800EAFD11D09399400E4024D96EDA6A030E97
:104FD800DA22600083F0DFFF402A3F0E406402D0EF
:104FE800000E406E3E0693891200BF0E666FFF0EDC
:104FF800676F64C068F065C069F0665168276751DB
:10500800692369510AE11A0E685DD8B006D0200EEE
:105018006411646F6551656F120064C064F065C007
:1050280065F01200010E746F72C069F073C06AF007
:10503800000E6B6F000E6C6FE7ECA2F06ABF1200F7
:10504800000E616F0A0E606F000E626F000E636FD4
:0E50580069ECA0F061BF1200000E746F120030
:105068006F00E8FF0CF06F00ECFF0DF03901A9911B
:10507800324A332A335004E1170E325CD8A006D0E6
:10508800B1ECA9F0000E336E000E326E600037F0FE
:10509800FBFF600033F0FAFF110020C060F021C070
:1050A80061F00001D89061336033D8906133603388
:1050B80060516D6E20C060F0030E6017060E616FC0
:1050C800D8906037612FFCD760516C6E1200BF0E0C
:1050D8000001606FFF0E616F20C062F021C063F0B5
:1050E8006051622761516323635106E11A0E625DC4
:1050F800D8B002D0010E01D0000E206E216A120035
:10510800D00E0001606FFF0E616F20C062F021C0F9
:1051180063F06051622761516323635106E10A0E0F
:10512800625DD8B002D0010E01D0000E206E216A57
:10513800120020C060F021C061F0D8906133603364
:10514800D890613360336051696E20C060F0030EFF
:105158006017060E616FD8906037612FFCD76051D9
:10516800686E1200626F20C060F021C061F0D890B4
:105178000001603761376251020D0C0EF324D96EBD
:10518800010EF420DA6E600083F1DEFF600087F123
:10519800DDFF1200010E966E200E956E000E976EC2
:1051A8004D0E936E000E926E3901A9919981640E8D
:1051B8000001606F570E616F010E626F5FECABF01C
:1051C800946812006051611162116311D8B408D05B
:1051D800000E601B000E611B000E621B800E631B1D
:1051E80060C060F061C061F062C062F063C063F0EB
:1051F8001200400E3E6011D0400E3F24D96EDA6A8C
:10520800030EDA22DF503D01EA6F3F2A3F0E3F646A
:1052180002D0000E3F6E3E2A120039019399120007
:10522800605162036F00CCFF20F06F00D0FF21F0C7
:1052380060516303F350212661516203F350212624
:1052480020C060F021C061F012008B0E726FFE0E5C
:10525800736F16ECA8F0010E366E000E616F100E1B
:10526800606F36C062F0FFECA6F0000E7FECA3F092
:105278001200AA0E726FFE0E736F16ECA8F0000EE5
:10528800366E000E616F100E606F36C062F0FFEC74
:10529800A6F0000E7FECA3F0120063C020F064C0FB
:1052A80021F0000EB6ECA8F005D000F000F000F0F8
:1052B80000F00400000E65ECA9F00009D8A4120063
:1052C800F4D70001606F040000016051020D0C0E5C
:1052D800F324D96E010EF420DA6EDE50DE10D8A465
:1052E80002D0010E1200000E1200840E0001F26FAF
:1052F800010EF36F000EEA6F000EEB6F82C1ECF047
:1053080083C1EDF0F20EEE6FEF6BB0ECA3F012007C
:1053180027ECABF00009D8B40CD05DECA7F0000185
:10532800606F2150D96EDA6A600083F1DFFF010EE9
:105338001200000E120075C072F076C073F016EC01
:10534800A8F06B0E726FFF0E736F16ECA8F0010ECB
:10535800376E000E7FECA3F0120001014F5150117F
:105368005111D8B4120001D812000500FA6E4F513D
:10537800FD6E5051FE6E5151FF6EFA5012009AA404
:1053880009D09A9060003FF099FF60003BF098FFC9
:105398009A80120060003FF099FF60003BF098FF90
:1053A8001200FF0E646FFF0E656FFF0E666F7F0EB3
:1053B800676F64C060F065C061F066C062F067C086
:1053C80063F01200216EBC942150B1ECAAF0080ED3
:1053D8000001606F000E616F000E626F000E636F58
:1053E800CBECA5F01200C70E726FFE0E736F16ECB1
:1053F800A8F0130E0101B06F140EAF6F020E376ED6
:10540800000E7FECA3F01200000EC06F000EC16FFB
:10541800000EC26F000EC36F000EC46F000EC56F82
:10542800000EC66F000EC76F1200000E3D24D96E25
:10543800DA6A030EDA226F00A3F7DFFF3D2A3F0E78
:105448003D6402D0000E3D6E3B2A12006AC060F037
:105458006BC061F0000E0001636F000E626F000EFA
:10546800656F430E646F5DEC9AF012006E6F19EC75
:10547800ABF0FE0EDFECA6F019ECABF000016E51BC
:10548800DFECA6F019ECABF012007D0E726FFF0E88
:10549800736F16ECA8F0020E0101B06F030EAF6F28
:1054A800000E7FECA3F01200460E726FFF0E736FB2
:1054B80016ECA8F0070E0101B06F080EAF6F000ED2
:1054C8007FECA3F012008F0E726FFF0E736F16EC55
:1054D800A8F01F0E0101B06F1F0EAF6F000E7FEC1A
:1054E800A3F01200010EAE6E000EAD6E000EAF6E90
:1054F8009F0EAB6E000EAA6E3901A495800EAC6E9D
:1055080012002150030B3901E16F600083F0E0F9CC
:105518003F0EE517E58100F000F03901E351120074
:10552800BEA002D0010E01D0000EFF0A0B6EBE50C5
:105538000B18FE0B0B18BE6E010E616F1200200EC9
:105548003901D96F000EDB6F000EDD6F050EDF6FBE
:10555800000EDE6FDCB11200FDD7206E010E3D019A
:10556800126F600083F011FD3901A2A9FDD73D013A
:1055780010511200020E3D01146F400E156F000EFF
:10558800166F000E1C6F500E196FC4961200000E95
:105598000001756F050E766F900E776F020E786FAB
:1055A8005BECA6F01200300E726FFF0E736F16ECF4
:1055B800A8F0020E376E000E7FECA3F01200590E11
:1055C800726FFF0E736F16ECA8F0000E376E000EA8
:1055D8007FECA3F01200800E6A6E4F0E696EC00E4B
:1055E800686E3F015F51F30B04095F6F1200800E74
:1055F8006E6E4F0E6D6EC00E6C6E3F015F51FC0BF0
:1056080001095F6F12003E01F051046E036AEF5109
:105618000324016E000E0420026E120000016F6F59
:1056280000016F513AECAAF01200010100B7FDD752
:105638003D0117BB1200FCD775C072F076C073F03D
:1056480016ECA8F012003B50D8B402D0010E12009C
:10565800000E120060C055F161C056F162C057F1EA
:10566800120060C026F061C027F062C028F0120066
:1056780060C029F061C02AF062C02BF0120060C03F
:1056880043F161C044F162C045F1120060C058F1B5
:1056980061C059F162C05AF1120060C046F161C0A0
:1056A80047F162C048F1120060C040F161C041F1A9
:1056B80062C042F1120060C04FF161C050F162C097
:1056C80051F1120060C04CF161C04DF162C04EF161
:1056D8001200550E3901EF6FAA0EEF6FEF8112001D
:1056E80060C049F161C04AF162C04BF1120060C06C
:1056F80052F161C053F162C054F11200286E756C0A
:095708006C2900BDFFB1FF141370
:10571200A40E3E019E6F1F0E9C6F1200216E21503F
:10572200DBECA7F01200206E600083F09CFE1200FA
:10573200000E3D01F96F12000101008712003B01CA
:10574200FC8D12003E019C51120019ECAAF01200CD
:105752003D01F89F120000971200C20212001200CF
:04576200120012001F
:0657680011001200120006
:020000040020DA
:10000000FF0FFF0FFF0FFF0FFF0FFF0FFF0FFF0F80
:020000040030CA
:0A000000AFFFFFFF9FFFFFDFFFFFD0
:00000001FF
